{
	"contracts/MudAi.sol": {
		"MudAi": {
			"abi": [
				{
					"inputs": [
						{
							"internalType": "bool",
							"name": "_paused",
							"type": "bool"
						}
					],
					"stateMutability": "nonpayable",
					"type": "constructor"
				},
				{
					"inputs": [],
					"name": "ApprovalCallerNotOwnerNorApproved",
					"type": "error"
				},
				{
					"inputs": [],
					"name": "ApprovalQueryForNonexistentToken",
					"type": "error"
				},
				{
					"inputs": [],
					"name": "BalanceQueryForZeroAddress",
					"type": "error"
				},
				{
					"inputs": [],
					"name": "MintERC2309QuantityExceedsLimit",
					"type": "error"
				},
				{
					"inputs": [],
					"name": "MintToZeroAddress",
					"type": "error"
				},
				{
					"inputs": [],
					"name": "MintZeroQuantity",
					"type": "error"
				},
				{
					"inputs": [],
					"name": "OwnerQueryForNonexistentToken",
					"type": "error"
				},
				{
					"inputs": [],
					"name": "OwnershipNotInitializedForExtraData",
					"type": "error"
				},
				{
					"inputs": [],
					"name": "TransferCallerNotOwnerNorApproved",
					"type": "error"
				},
				{
					"inputs": [],
					"name": "TransferFromIncorrectOwner",
					"type": "error"
				},
				{
					"inputs": [],
					"name": "TransferToNonERC721ReceiverImplementer",
					"type": "error"
				},
				{
					"inputs": [],
					"name": "TransferToZeroAddress",
					"type": "error"
				},
				{
					"inputs": [],
					"name": "URIQueryForNonexistentToken",
					"type": "error"
				},
				{
					"anonymous": false,
					"inputs": [
						{
							"indexed": true,
							"internalType": "address",
							"name": "owner",
							"type": "address"
						},
						{
							"indexed": true,
							"internalType": "address",
							"name": "approved",
							"type": "address"
						},
						{
							"indexed": true,
							"internalType": "uint256",
							"name": "tokenId",
							"type": "uint256"
						}
					],
					"name": "Approval",
					"type": "event"
				},
				{
					"anonymous": false,
					"inputs": [
						{
							"indexed": true,
							"internalType": "address",
							"name": "owner",
							"type": "address"
						},
						{
							"indexed": true,
							"internalType": "address",
							"name": "operator",
							"type": "address"
						},
						{
							"indexed": false,
							"internalType": "bool",
							"name": "approved",
							"type": "bool"
						}
					],
					"name": "ApprovalForAll",
					"type": "event"
				},
				{
					"anonymous": false,
					"inputs": [
						{
							"indexed": true,
							"internalType": "uint256",
							"name": "fromTokenId",
							"type": "uint256"
						},
						{
							"indexed": false,
							"internalType": "uint256",
							"name": "toTokenId",
							"type": "uint256"
						},
						{
							"indexed": true,
							"internalType": "address",
							"name": "from",
							"type": "address"
						},
						{
							"indexed": true,
							"internalType": "address",
							"name": "to",
							"type": "address"
						}
					],
					"name": "ConsecutiveTransfer",
					"type": "event"
				},
				{
					"anonymous": false,
					"inputs": [
						{
							"indexed": true,
							"internalType": "address",
							"name": "previousOwner",
							"type": "address"
						},
						{
							"indexed": true,
							"internalType": "address",
							"name": "newOwner",
							"type": "address"
						}
					],
					"name": "OwnershipTransferred",
					"type": "event"
				},
				{
					"anonymous": false,
					"inputs": [
						{
							"indexed": true,
							"internalType": "address",
							"name": "from",
							"type": "address"
						},
						{
							"indexed": true,
							"internalType": "address",
							"name": "to",
							"type": "address"
						},
						{
							"indexed": true,
							"internalType": "uint256",
							"name": "tokenId",
							"type": "uint256"
						}
					],
					"name": "Transfer",
					"type": "event"
				},
				{
					"inputs": [],
					"name": "MAX_SUPPLY",
					"outputs": [
						{
							"internalType": "uint256",
							"name": "",
							"type": "uint256"
						}
					],
					"stateMutability": "view",
					"type": "function"
				},
				{
					"inputs": [],
					"name": "PRICE_PER_TOKEN",
					"outputs": [
						{
							"internalType": "uint256",
							"name": "",
							"type": "uint256"
						}
					],
					"stateMutability": "view",
					"type": "function"
				},
				{
					"inputs": [
						{
							"internalType": "address",
							"name": "to",
							"type": "address"
						},
						{
							"internalType": "uint256",
							"name": "tokenId",
							"type": "uint256"
						}
					],
					"name": "approve",
					"outputs": [],
					"stateMutability": "payable",
					"type": "function"
				},
				{
					"inputs": [
						{
							"internalType": "address",
							"name": "owner",
							"type": "address"
						}
					],
					"name": "balanceOf",
					"outputs": [
						{
							"internalType": "uint256",
							"name": "",
							"type": "uint256"
						}
					],
					"stateMutability": "view",
					"type": "function"
				},
				{
					"inputs": [
						{
							"internalType": "uint256",
							"name": "tokenId",
							"type": "uint256"
						}
					],
					"name": "getApproved",
					"outputs": [
						{
							"internalType": "address",
							"name": "",
							"type": "address"
						}
					],
					"stateMutability": "view",
					"type": "function"
				},
				{
					"inputs": [
						{
							"internalType": "address",
							"name": "owner",
							"type": "address"
						},
						{
							"internalType": "address",
							"name": "operator",
							"type": "address"
						}
					],
					"name": "isApprovedForAll",
					"outputs": [
						{
							"internalType": "bool",
							"name": "",
							"type": "bool"
						}
					],
					"stateMutability": "view",
					"type": "function"
				},
				{
					"inputs": [
						{
							"internalType": "address",
							"name": "to",
							"type": "address"
						},
						{
							"internalType": "uint256",
							"name": "quantity",
							"type": "uint256"
						}
					],
					"name": "mint",
					"outputs": [],
					"stateMutability": "payable",
					"type": "function"
				},
				{
					"inputs": [],
					"name": "name",
					"outputs": [
						{
							"internalType": "string",
							"name": "",
							"type": "string"
						}
					],
					"stateMutability": "view",
					"type": "function"
				},
				{
					"inputs": [],
					"name": "owner",
					"outputs": [
						{
							"internalType": "address",
							"name": "",
							"type": "address"
						}
					],
					"stateMutability": "view",
					"type": "function"
				},
				{
					"inputs": [
						{
							"internalType": "uint256",
							"name": "tokenId",
							"type": "uint256"
						}
					],
					"name": "ownerOf",
					"outputs": [
						{
							"internalType": "address",
							"name": "",
							"type": "address"
						}
					],
					"stateMutability": "view",
					"type": "function"
				},
				{
					"inputs": [],
					"name": "renounceOwnership",
					"outputs": [],
					"stateMutability": "nonpayable",
					"type": "function"
				},
				{
					"inputs": [
						{
							"internalType": "address",
							"name": "from",
							"type": "address"
						},
						{
							"internalType": "address",
							"name": "to",
							"type": "address"
						},
						{
							"internalType": "uint256",
							"name": "tokenId",
							"type": "uint256"
						}
					],
					"name": "safeTransferFrom",
					"outputs": [],
					"stateMutability": "payable",
					"type": "function"
				},
				{
					"inputs": [
						{
							"internalType": "address",
							"name": "from",
							"type": "address"
						},
						{
							"internalType": "address",
							"name": "to",
							"type": "address"
						},
						{
							"internalType": "uint256",
							"name": "tokenId",
							"type": "uint256"
						},
						{
							"internalType": "bytes",
							"name": "_data",
							"type": "bytes"
						}
					],
					"name": "safeTransferFrom",
					"outputs": [],
					"stateMutability": "payable",
					"type": "function"
				},
				{
					"inputs": [
						{
							"internalType": "address",
							"name": "operator",
							"type": "address"
						},
						{
							"internalType": "bool",
							"name": "approved",
							"type": "bool"
						}
					],
					"name": "setApprovalForAll",
					"outputs": [],
					"stateMutability": "nonpayable",
					"type": "function"
				},
				{
					"inputs": [
						{
							"internalType": "string",
							"name": "baseURI",
							"type": "string"
						}
					],
					"name": "setBaseURI",
					"outputs": [],
					"stateMutability": "nonpayable",
					"type": "function"
				},
				{
					"inputs": [
						{
							"internalType": "bytes4",
							"name": "interfaceId",
							"type": "bytes4"
						}
					],
					"name": "supportsInterface",
					"outputs": [
						{
							"internalType": "bool",
							"name": "",
							"type": "bool"
						}
					],
					"stateMutability": "view",
					"type": "function"
				},
				{
					"inputs": [],
					"name": "symbol",
					"outputs": [
						{
							"internalType": "string",
							"name": "",
							"type": "string"
						}
					],
					"stateMutability": "view",
					"type": "function"
				},
				{
					"inputs": [
						{
							"internalType": "uint256",
							"name": "tokenId",
							"type": "uint256"
						}
					],
					"name": "tokenURI",
					"outputs": [
						{
							"internalType": "string",
							"name": "",
							"type": "string"
						}
					],
					"stateMutability": "view",
					"type": "function"
				},
				{
					"inputs": [],
					"name": "totalSupply",
					"outputs": [
						{
							"internalType": "uint256",
							"name": "",
							"type": "uint256"
						}
					],
					"stateMutability": "view",
					"type": "function"
				},
				{
					"inputs": [
						{
							"internalType": "address",
							"name": "from",
							"type": "address"
						},
						{
							"internalType": "address",
							"name": "to",
							"type": "address"
						},
						{
							"internalType": "uint256",
							"name": "tokenId",
							"type": "uint256"
						}
					],
					"name": "transferFrom",
					"outputs": [],
					"stateMutability": "payable",
					"type": "function"
				},
				{
					"inputs": [
						{
							"internalType": "address",
							"name": "newOwner",
							"type": "address"
						}
					],
					"name": "transferOwnership",
					"outputs": [],
					"stateMutability": "nonpayable",
					"type": "function"
				},
				{
					"inputs": [],
					"name": "withdraw",
					"outputs": [],
					"stateMutability": "nonpayable",
					"type": "function"
				}
			],
			"devdoc": {
				"kind": "dev",
				"methods": {
					"approve(address,uint256)": {
						"details": "Gives permission to `to` to transfer `tokenId` token to another account. The approval is cleared when the token is transferred. Only a single account can be approved at a time, so approving the zero address clears previous approvals. Requirements: - The caller must own the token or be an approved operator. - `tokenId` must exist. Emits an {Approval} event."
					},
					"balanceOf(address)": {
						"details": "Returns the number of tokens in `owner`'s account."
					},
					"getApproved(uint256)": {
						"details": "Returns the account approved for `tokenId` token. Requirements: - `tokenId` must exist."
					},
					"isApprovedForAll(address,address)": {
						"details": "Returns if the `operator` is allowed to manage all of the assets of `owner`. See {setApprovalForAll}."
					},
					"name()": {
						"details": "Returns the token collection name."
					},
					"owner()": {
						"details": "Returns the address of the current owner."
					},
					"ownerOf(uint256)": {
						"details": "Returns the owner of the `tokenId` token. Requirements: - `tokenId` must exist."
					},
					"renounceOwnership()": {
						"details": "Leaves the contract without owner. It will not be possible to call `onlyOwner` functions anymore. Can only be called by the current owner. NOTE: Renouncing ownership will leave the contract without an owner, thereby removing any functionality that is only available to the owner."
					},
					"safeTransferFrom(address,address,uint256)": {
						"details": "Equivalent to `safeTransferFrom(from, to, tokenId, '')`."
					},
					"safeTransferFrom(address,address,uint256,bytes)": {
						"details": "Safely transfers `tokenId` token from `from` to `to`. Requirements: - `from` cannot be the zero address. - `to` cannot be the zero address. - `tokenId` token must exist and be owned by `from`. - If the caller is not `from`, it must be approved to move this token by either {approve} or {setApprovalForAll}. - If `to` refers to a smart contract, it must implement {IERC721Receiver-onERC721Received}, which is called upon a safe transfer. Emits a {Transfer} event."
					},
					"setApprovalForAll(address,bool)": {
						"details": "Approve or remove `operator` as an operator for the caller. Operators can call {transferFrom} or {safeTransferFrom} for any token owned by the caller. Requirements: - The `operator` cannot be the caller. Emits an {ApprovalForAll} event."
					},
					"supportsInterface(bytes4)": {
						"details": "Returns true if this contract implements the interface defined by `interfaceId`. See the corresponding [EIP section](https://eips.ethereum.org/EIPS/eip-165#how-interfaces-are-identified) to learn more about how these ids are created. This function call must use less than 30000 gas."
					},
					"symbol()": {
						"details": "Returns the token collection symbol."
					},
					"tokenURI(uint256)": {
						"details": "Returns the Uniform Resource Identifier (URI) for `tokenId` token."
					},
					"totalSupply()": {
						"details": "Returns the total number of tokens in existence. Burned tokens will reduce the count. To get the total number of tokens minted, please see {_totalMinted}."
					},
					"transferFrom(address,address,uint256)": {
						"details": "Transfers `tokenId` from `from` to `to`. Requirements: - `from` cannot be the zero address. - `to` cannot be the zero address. - `tokenId` token must be owned by `from`. - If the caller is not `from`, it must be approved to move this token by either {approve} or {setApprovalForAll}. Emits a {Transfer} event."
					},
					"transferOwnership(address)": {
						"details": "Transfers ownership of the contract to a new account (`newOwner`). Can only be called by the current owner."
					}
				},
				"version": 1
			},
			"evm": {
				"assembly": "    /* \"contracts/MudAi.sol\":135:1034  contract MudAi is Ownable, ERC721A {... */\n  mstore(0x40, 0x80)\n    /* \"contracts/MudAi.sol\":316:378  constructor(bool _paused) ERC721A(\"ERC721A Token\", \"721AT\") {} */\n  callvalue\n  dup1\n  iszero\n  tag_1\n  jumpi\n  0x00\n  dup1\n  revert\ntag_1:\n  pop\n  mload(0x40)\n  sub(codesize, bytecodeSize)\n  dup1\n  bytecodeSize\n  dup4\n  codecopy\n  dup2\n  dup2\n  add\n  0x40\n  mstore\n  dup2\n  add\n  swap1\n  tag_2\n  swap2\n  swap1\n  tag_3\n  jump\t// in\ntag_2:\n    /* \"contracts/ERC721A.sol\":4957:5111  constructor(string memory name_, string memory symbol_) {... */\n  mload(0x40)\n  dup1\n  0x40\n  add\n  0x40\n  mstore\n  dup1\n  0x0d\n  dup2\n  mstore\n  0x20\n  add\n  0x4552433732314120546f6b656e00000000000000000000000000000000000000\n  dup2\n  mstore\n  pop\n  mload(0x40)\n  dup1\n  0x40\n  add\n  0x40\n  mstore\n  dup1\n  0x05\n  dup2\n  mstore\n  0x20\n  add\n  0x3732314154000000000000000000000000000000000000000000000000000000\n  dup2\n  mstore\n  pop\n    /* \"@openzeppelin/contracts/access/Ownable.sol\":936:968  _transferOwnership(_msgSender()) */\n  tag_8\n    /* \"@openzeppelin/contracts/access/Ownable.sol\":955:967  _msgSender() */\n  tag_9\n    /* \"@openzeppelin/contracts/access/Ownable.sol\":955:965  _msgSender */\n  shl(0x20, tag_10)\n    /* \"@openzeppelin/contracts/access/Ownable.sol\":955:967  _msgSender() */\n  0x20\n  shr\n  jump\t// in\ntag_9:\n    /* \"@openzeppelin/contracts/access/Ownable.sol\":936:954  _transferOwnership */\n  shl(0x20, tag_11)\n    /* \"@openzeppelin/contracts/access/Ownable.sol\":936:968  _transferOwnership(_msgSender()) */\n  0x20\n  shr\n  jump\t// in\ntag_8:\n    /* \"contracts/ERC721A.sol\":5031:5036  name_ */\n  dup2\n    /* \"contracts/ERC721A.sol\":5023:5028  _name */\n  0x03\n    /* \"contracts/ERC721A.sol\":5023:5036  _name = name_ */\n  swap1\n  dup1\n  mload\n  swap1\n  0x20\n  add\n  swap1\n  tag_13\n  swap3\n  swap2\n  swap1\n  tag_14\n  jump\t// in\ntag_13:\n  pop\n    /* \"contracts/ERC721A.sol\":5056:5063  symbol_ */\n  dup1\n    /* \"contracts/ERC721A.sol\":5046:5053  _symbol */\n  0x04\n    /* \"contracts/ERC721A.sol\":5046:5063  _symbol = symbol_ */\n  swap1\n  dup1\n  mload\n  swap1\n  0x20\n  add\n  swap1\n  tag_15\n  swap3\n  swap2\n  swap1\n  tag_14\n  jump\t// in\ntag_15:\n  pop\n    /* \"contracts/ERC721A.sol\":5089:5104  _startTokenId() */\n  tag_16\n    /* \"contracts/ERC721A.sol\":5089:5102  _startTokenId */\n  shl(0x20, tag_17)\n    /* \"contracts/ERC721A.sol\":5089:5104  _startTokenId() */\n  0x20\n  shr\n  jump\t// in\ntag_16:\n    /* \"contracts/ERC721A.sol\":5073:5086  _currentIndex */\n  0x01\n    /* \"contracts/ERC721A.sol\":5073:5104  _currentIndex = _startTokenId() */\n  dup2\n  swap1\n  sstore\n  pop\n    /* \"contracts/ERC721A.sol\":4957:5111  constructor(string memory name_, string memory symbol_) {... */\n  pop\n  pop\n    /* \"contracts/MudAi.sol\":316:378  constructor(bool _paused) ERC721A(\"ERC721A Token\", \"721AT\") {} */\n  pop\n    /* \"contracts/MudAi.sol\":135:1034  contract MudAi is Ownable, ERC721A {... */\n  jump(tag_19)\n    /* \"@openzeppelin/contracts/utils/Context.sol\":640:736  function _msgSender() internal view virtual returns (address) {... */\ntag_10:\n    /* \"@openzeppelin/contracts/utils/Context.sol\":693:700  address */\n  0x00\n    /* \"@openzeppelin/contracts/utils/Context.sol\":719:729  msg.sender */\n  caller\n    /* \"@openzeppelin/contracts/utils/Context.sol\":712:729  return msg.sender */\n  swap1\n  pop\n    /* \"@openzeppelin/contracts/utils/Context.sol\":640:736  function _msgSender() internal view virtual returns (address) {... */\n  swap1\n  jump\t// out\n    /* \"@openzeppelin/contracts/access/Ownable.sol\":2433:2620  function _transferOwnership(address newOwner) internal virtual {... */\ntag_11:\n    /* \"@openzeppelin/contracts/access/Ownable.sol\":2506:2522  address oldOwner */\n  0x00\n    /* \"@openzeppelin/contracts/access/Ownable.sol\":2525:2531  _owner */\n  dup1\n  0x00\n  swap1\n  sload\n  swap1\n  0x0100\n  exp\n  swap1\n  div\n  0xffffffffffffffffffffffffffffffffffffffff\n  and\n    /* \"@openzeppelin/contracts/access/Ownable.sol\":2506:2531  address oldOwner = _owner */\n  swap1\n  pop\n    /* \"@openzeppelin/contracts/access/Ownable.sol\":2550:2558  newOwner */\n  dup2\n    /* \"@openzeppelin/contracts/access/Ownable.sol\":2541:2547  _owner */\n  0x00\n  dup1\n    /* \"@openzeppelin/contracts/access/Ownable.sol\":2541:2558  _owner = newOwner */\n  0x0100\n  exp\n  dup2\n  sload\n  dup2\n  0xffffffffffffffffffffffffffffffffffffffff\n  mul\n  not\n  and\n  swap1\n  dup4\n  0xffffffffffffffffffffffffffffffffffffffff\n  and\n  mul\n  or\n  swap1\n  sstore\n  pop\n    /* \"@openzeppelin/contracts/access/Ownable.sol\":2604:2612  newOwner */\n  dup2\n    /* \"@openzeppelin/contracts/access/Ownable.sol\":2573:2613  OwnershipTransferred(oldOwner, newOwner) */\n  0xffffffffffffffffffffffffffffffffffffffff\n  and\n    /* \"@openzeppelin/contracts/access/Ownable.sol\":2594:2602  oldOwner */\n  dup2\n    /* \"@openzeppelin/contracts/access/Ownable.sol\":2573:2613  OwnershipTransferred(oldOwner, newOwner) */\n  0xffffffffffffffffffffffffffffffffffffffff\n  and\n  0x8be0079c531659141344cd1fd0a4f28419497f9722a3daafe3b4186f6b6457e0\n  mload(0x40)\n  mload(0x40)\n  dup1\n  swap2\n  sub\n  swap1\n  log3\n    /* \"@openzeppelin/contracts/access/Ownable.sol\":2496:2620  {... */\n  pop\n    /* \"@openzeppelin/contracts/access/Ownable.sol\":2433:2620  function _transferOwnership(address newOwner) internal virtual {... */\n  pop\n  jump\t// out\n    /* \"contracts/ERC721A.sol\":5437:5527  function _startTokenId() internal view virtual returns (uint256) {... */\ntag_17:\n    /* \"contracts/ERC721A.sol\":5493:5500  uint256 */\n  0x00\n    /* \"contracts/ERC721A.sol\":5437:5527  function _startTokenId() internal view virtual returns (uint256) {... */\n  swap1\n  jump\t// out\n    /* \"contracts/MudAi.sol\":135:1034  contract MudAi is Ownable, ERC721A {... */\ntag_14:\n  dup3\n  dup1\n  sload\n  tag_23\n  swap1\n  tag_24\n  jump\t// in\ntag_23:\n  swap1\n  0x00\n  mstore\n  keccak256(0x00, 0x20)\n  swap1\n  0x1f\n  add\n  0x20\n  swap1\n  div\n  dup2\n  add\n  swap3\n  dup3\n  tag_26\n  jumpi\n  0x00\n  dup6\n  sstore\n  jump(tag_25)\ntag_26:\n  dup3\n  0x1f\n  lt\n  tag_27\n  jumpi\n  dup1\n  mload\n  not(0xff)\n  and\n  dup4\n  dup1\n  add\n  or\n  dup6\n  sstore\n  jump(tag_25)\ntag_27:\n  dup3\n  dup1\n  add\n  0x01\n  add\n  dup6\n  sstore\n  dup3\n  iszero\n  tag_25\n  jumpi\n  swap2\n  dup3\n  add\ntag_28:\n  dup3\n  dup2\n  gt\n  iszero\n  tag_29\n  jumpi\n  dup3\n  mload\n  dup3\n  sstore\n  swap2\n  0x20\n  add\n  swap2\n  swap1\n  0x01\n  add\n  swap1\n  jump(tag_28)\ntag_29:\ntag_25:\n  pop\n  swap1\n  pop\n  tag_30\n  swap2\n  swap1\n  tag_31\n  jump\t// in\ntag_30:\n  pop\n  swap1\n  jump\t// out\ntag_31:\ntag_32:\n  dup1\n  dup3\n  gt\n  iszero\n  tag_33\n  jumpi\n  0x00\n  dup2\n  0x00\n  swap1\n  sstore\n  pop\n  0x01\n  add\n  jump(tag_32)\ntag_33:\n  pop\n  swap1\n  jump\t// out\n    /* \"#utility.yul\":7:144   */\ntag_35:\n    /* \"#utility.yul\":61:66   */\n  0x00\n    /* \"#utility.yul\":92:98   */\n  dup2\n    /* \"#utility.yul\":86:99   */\n  mload\n    /* \"#utility.yul\":77:99   */\n  swap1\n  pop\n    /* \"#utility.yul\":108:138   */\n  tag_37\n    /* \"#utility.yul\":132:137   */\n  dup2\n    /* \"#utility.yul\":108:138   */\n  tag_38\n  jump\t// in\ntag_37:\n    /* \"#utility.yul\":7:144   */\n  swap3\n  swap2\n  pop\n  pop\n  jump\t// out\n    /* \"#utility.yul\":150:495   */\ntag_3:\n    /* \"#utility.yul\":217:223   */\n  0x00\n    /* \"#utility.yul\":266:268   */\n  0x20\n    /* \"#utility.yul\":254:263   */\n  dup3\n    /* \"#utility.yul\":245:252   */\n  dup5\n    /* \"#utility.yul\":241:264   */\n  sub\n    /* \"#utility.yul\":237:269   */\n  slt\n    /* \"#utility.yul\":234:353   */\n  iszero\n  tag_40\n  jumpi\n    /* \"#utility.yul\":272:351   */\n  tag_41\n  tag_42\n  jump\t// in\ntag_41:\n    /* \"#utility.yul\":234:353   */\ntag_40:\n    /* \"#utility.yul\":392:393   */\n  0x00\n    /* \"#utility.yul\":417:478   */\n  tag_43\n    /* \"#utility.yul\":470:477   */\n  dup5\n    /* \"#utility.yul\":461:467   */\n  dup3\n    /* \"#utility.yul\":450:459   */\n  dup6\n    /* \"#utility.yul\":446:468   */\n  add\n    /* \"#utility.yul\":417:478   */\n  tag_35\n  jump\t// in\ntag_43:\n    /* \"#utility.yul\":407:478   */\n  swap2\n  pop\n    /* \"#utility.yul\":363:488   */\n  pop\n    /* \"#utility.yul\":150:495   */\n  swap3\n  swap2\n  pop\n  pop\n  jump\t// out\n    /* \"#utility.yul\":582:672   */\ntag_46:\n    /* \"#utility.yul\":616:623   */\n  0x00\n    /* \"#utility.yul\":659:664   */\n  dup2\n    /* \"#utility.yul\":652:665   */\n  iszero\n    /* \"#utility.yul\":645:666   */\n  iszero\n    /* \"#utility.yul\":634:666   */\n  swap1\n  pop\n    /* \"#utility.yul\":582:672   */\n  swap2\n  swap1\n  pop\n  jump\t// out\n    /* \"#utility.yul\":678:998   */\ntag_24:\n    /* \"#utility.yul\":722:728   */\n  0x00\n    /* \"#utility.yul\":759:760   */\n  0x02\n    /* \"#utility.yul\":753:757   */\n  dup3\n    /* \"#utility.yul\":749:761   */\n  div\n    /* \"#utility.yul\":739:761   */\n  swap1\n  pop\n    /* \"#utility.yul\":806:807   */\n  0x01\n    /* \"#utility.yul\":800:804   */\n  dup3\n    /* \"#utility.yul\":796:808   */\n  and\n    /* \"#utility.yul\":827:845   */\n  dup1\n    /* \"#utility.yul\":817:898   */\n  tag_49\n  jumpi\n    /* \"#utility.yul\":883:887   */\n  0x7f\n    /* \"#utility.yul\":875:881   */\n  dup3\n    /* \"#utility.yul\":871:888   */\n  and\n    /* \"#utility.yul\":861:888   */\n  swap2\n  pop\n    /* \"#utility.yul\":817:898   */\ntag_49:\n    /* \"#utility.yul\":945:947   */\n  0x20\n    /* \"#utility.yul\":937:943   */\n  dup3\n    /* \"#utility.yul\":934:948   */\n  lt\n    /* \"#utility.yul\":914:932   */\n  dup2\n    /* \"#utility.yul\":911:949   */\n  eq\n    /* \"#utility.yul\":908:992   */\n  iszero\n  tag_50\n  jumpi\n    /* \"#utility.yul\":964:982   */\n  tag_51\n  tag_52\n  jump\t// in\ntag_51:\n    /* \"#utility.yul\":908:992   */\ntag_50:\n    /* \"#utility.yul\":729:998   */\n  pop\n    /* \"#utility.yul\":678:998   */\n  swap2\n  swap1\n  pop\n  jump\t// out\n    /* \"#utility.yul\":1004:1184   */\ntag_52:\n    /* \"#utility.yul\":1052:1129   */\n  0x4e487b7100000000000000000000000000000000000000000000000000000000\n    /* \"#utility.yul\":1049:1050   */\n  0x00\n    /* \"#utility.yul\":1042:1130   */\n  mstore\n    /* \"#utility.yul\":1149:1153   */\n  0x22\n    /* \"#utility.yul\":1146:1147   */\n  0x04\n    /* \"#utility.yul\":1139:1154   */\n  mstore\n    /* \"#utility.yul\":1173:1177   */\n  0x24\n    /* \"#utility.yul\":1170:1171   */\n  0x00\n    /* \"#utility.yul\":1163:1178   */\n  revert\n    /* \"#utility.yul\":1313:1430   */\ntag_42:\n    /* \"#utility.yul\":1422:1423   */\n  0x00\n    /* \"#utility.yul\":1419:1420   */\n  dup1\n    /* \"#utility.yul\":1412:1424   */\n  revert\n    /* \"#utility.yul\":1436:1552   */\ntag_38:\n    /* \"#utility.yul\":1506:1527   */\n  tag_58\n    /* \"#utility.yul\":1521:1526   */\n  dup2\n    /* \"#utility.yul\":1506:1527   */\n  tag_46\n  jump\t// in\ntag_58:\n    /* \"#utility.yul\":1499:1504   */\n  dup2\n    /* \"#utility.yul\":1496:1528   */\n  eq\n    /* \"#utility.yul\":1486:1546   */\n  tag_59\n  jumpi\n    /* \"#utility.yul\":1542:1543   */\n  0x00\n    /* \"#utility.yul\":1539:1540   */\n  dup1\n    /* \"#utility.yul\":1532:1544   */\n  revert\n    /* \"#utility.yul\":1486:1546   */\ntag_59:\n    /* \"#utility.yul\":1436:1552   */\n  pop\n  jump\t// out\n    /* \"contracts/MudAi.sol\":135:1034  contract MudAi is Ownable, ERC721A {... */\ntag_19:\n  dataSize(sub_0)\n  dup1\n  dataOffset(sub_0)\n  0x00\n  codecopy\n  0x00\n  return\nstop\n\nsub_0: assembly {\n        /* \"contracts/MudAi.sol\":135:1034  contract MudAi is Ownable, ERC721A {... */\n      mstore(0x40, 0x80)\n      jumpi(tag_1, lt(calldatasize, 0x04))\n      shr(0xe0, calldataload(0x00))\n      dup1\n      0x6352211e\n      gt\n      tag_24\n      jumpi\n      dup1\n      0x95d89b41\n      gt\n      tag_25\n      jumpi\n      dup1\n      0x95d89b41\n      eq\n      tag_18\n      jumpi\n      dup1\n      0xa22cb465\n      eq\n      tag_19\n      jumpi\n      dup1\n      0xb88d4fde\n      eq\n      tag_20\n      jumpi\n      dup1\n      0xc87b56dd\n      eq\n      tag_21\n      jumpi\n      dup1\n      0xe985e9c5\n      eq\n      tag_22\n      jumpi\n      dup1\n      0xf2fde38b\n      eq\n      tag_23\n      jumpi\n      jump(tag_1)\n    tag_25:\n      dup1\n      0x6352211e\n      eq\n      tag_13\n      jumpi\n      dup1\n      0x70a08231\n      eq\n      tag_14\n      jumpi\n      dup1\n      0x715018a6\n      eq\n      tag_15\n      jumpi\n      dup1\n      0x833b9499\n      eq\n      tag_16\n      jumpi\n      dup1\n      0x8da5cb5b\n      eq\n      tag_17\n      jumpi\n      jump(tag_1)\n    tag_24:\n      dup1\n      0x23b872dd\n      gt\n      tag_26\n      jumpi\n      dup1\n      0x23b872dd\n      eq\n      tag_7\n      jumpi\n      dup1\n      0x32cb6b0c\n      eq\n      tag_8\n      jumpi\n      dup1\n      0x3ccfd60b\n      eq\n      tag_9\n      jumpi\n      dup1\n      0x40c10f19\n      eq\n      tag_10\n      jumpi\n      dup1\n      0x42842e0e\n      eq\n      tag_11\n      jumpi\n      dup1\n      0x55f804b3\n      eq\n      tag_12\n      jumpi\n      jump(tag_1)\n    tag_26:\n      dup1\n      0x01ffc9a7\n      eq\n      tag_2\n      jumpi\n      dup1\n      0x06fdde03\n      eq\n      tag_3\n      jumpi\n      dup1\n      0x081812fc\n      eq\n      tag_4\n      jumpi\n      dup1\n      0x095ea7b3\n      eq\n      tag_5\n      jumpi\n      dup1\n      0x18160ddd\n      eq\n      tag_6\n      jumpi\n    tag_1:\n      0x00\n      dup1\n      revert\n        /* \"contracts/ERC721A.sol\":9166:9796  function supportsInterface(bytes4 interfaceId) public view virtual override returns (bool) {... */\n    tag_2:\n      callvalue\n      dup1\n      iszero\n      tag_27\n      jumpi\n      0x00\n      dup1\n      revert\n    tag_27:\n      pop\n      tag_28\n      0x04\n      dup1\n      calldatasize\n      sub\n      dup2\n      add\n      swap1\n      tag_29\n      swap2\n      swap1\n      tag_30\n      jump\t// in\n    tag_29:\n      tag_31\n      jump\t// in\n    tag_28:\n      mload(0x40)\n      tag_32\n      swap2\n      swap1\n      tag_33\n      jump\t// in\n    tag_32:\n      mload(0x40)\n      dup1\n      swap2\n      sub\n      swap1\n      return\n        /* \"contracts/ERC721A.sol\":10050:10148  function name() public view virtual override returns (string memory) {... */\n    tag_3:\n      callvalue\n      dup1\n      iszero\n      tag_34\n      jumpi\n      0x00\n      dup1\n      revert\n    tag_34:\n      pop\n      tag_35\n      tag_36\n      jump\t// in\n    tag_35:\n      mload(0x40)\n      tag_37\n      swap2\n      swap1\n      tag_38\n      jump\t// in\n    tag_37:\n      mload(0x40)\n      dup1\n      swap2\n      sub\n      swap1\n      return\n        /* \"contracts/ERC721A.sol\":16371:16585  function getApproved(uint256 tokenId) public view virtual override returns (address) {... */\n    tag_4:\n      callvalue\n      dup1\n      iszero\n      tag_39\n      jumpi\n      0x00\n      dup1\n      revert\n    tag_39:\n      pop\n      tag_40\n      0x04\n      dup1\n      calldatasize\n      sub\n      dup2\n      add\n      swap1\n      tag_41\n      swap2\n      swap1\n      tag_42\n      jump\t// in\n    tag_41:\n      tag_43\n      jump\t// in\n    tag_40:\n      mload(0x40)\n      tag_44\n      swap2\n      swap1\n      tag_45\n      jump\t// in\n    tag_44:\n      mload(0x40)\n      dup1\n      swap2\n      sub\n      swap1\n      return\n        /* \"contracts/ERC721A.sol\":15823:16221  function approve(address to, uint256 tokenId) public payable virtual override {... */\n    tag_5:\n      tag_46\n      0x04\n      dup1\n      calldatasize\n      sub\n      dup2\n      add\n      swap1\n      tag_47\n      swap2\n      swap1\n      tag_48\n      jump\t// in\n    tag_47:\n      tag_49\n      jump\t// in\n    tag_46:\n      stop\n        /* \"contracts/ERC721A.sol\":5905:6222  function totalSupply() public view virtual override returns (uint256) {... */\n    tag_6:\n      callvalue\n      dup1\n      iszero\n      tag_50\n      jumpi\n      0x00\n      dup1\n      revert\n    tag_50:\n      pop\n      tag_51\n      tag_52\n      jump\t// in\n    tag_51:\n      mload(0x40)\n      tag_53\n      swap2\n      swap1\n      tag_54\n      jump\t// in\n    tag_53:\n      mload(0x40)\n      dup1\n      swap2\n      sub\n      swap1\n      return\n        /* \"contracts/ERC721A.sol\":19914:22678  function transferFrom(... */\n    tag_7:\n      tag_55\n      0x04\n      dup1\n      calldatasize\n      sub\n      dup2\n      add\n      swap1\n      tag_56\n      swap2\n      swap1\n      tag_57\n      jump\t// in\n    tag_56:\n      tag_58\n      jump\t// in\n    tag_55:\n      stop\n        /* \"contracts/MudAi.sol\":177:217  uint256 public constant MAX_SUPPLY = 100 */\n    tag_8:\n      callvalue\n      dup1\n      iszero\n      tag_59\n      jumpi\n      0x00\n      dup1\n      revert\n    tag_59:\n      pop\n      tag_60\n      tag_61\n      jump\t// in\n    tag_60:\n      mload(0x40)\n      tag_62\n      swap2\n      swap1\n      tag_54\n      jump\t// in\n    tag_62:\n      mload(0x40)\n      dup1\n      swap2\n      sub\n      swap1\n      return\n        /* \"contracts/MudAi.sol\":643:812  function withdraw() external onlyOwner {... */\n    tag_9:\n      callvalue\n      dup1\n      iszero\n      tag_63\n      jumpi\n      0x00\n      dup1\n      revert\n    tag_63:\n      pop\n      tag_64\n      tag_65\n      jump\t// in\n    tag_64:\n      stop\n        /* \"contracts/MudAi.sol\":384:637  function mint(address to, uint256 quantity) external payable {... */\n    tag_10:\n      tag_66\n      0x04\n      dup1\n      calldatasize\n      sub\n      dup2\n      add\n      swap1\n      tag_67\n      swap2\n      swap1\n      tag_48\n      jump\t// in\n    tag_67:\n      tag_68\n      jump\t// in\n    tag_66:\n      stop\n        /* \"contracts/ERC721A.sol\":22769:22956  function safeTransferFrom(... */\n    tag_11:\n      tag_69\n      0x04\n      dup1\n      calldatasize\n      sub\n      dup2\n      add\n      swap1\n      tag_70\n      swap2\n      swap1\n      tag_57\n      jump\t// in\n    tag_70:\n      tag_71\n      jump\t// in\n    tag_69:\n      stop\n        /* \"contracts/MudAi.sol\":818:922  function setBaseURI(string calldata baseURI) external onlyOwner {... */\n    tag_12:\n      callvalue\n      dup1\n      iszero\n      tag_72\n      jumpi\n      0x00\n      dup1\n      revert\n    tag_72:\n      pop\n      tag_73\n      0x04\n      dup1\n      calldatasize\n      sub\n      dup2\n      add\n      swap1\n      tag_74\n      swap2\n      swap1\n      tag_75\n      jump\t// in\n    tag_74:\n      tag_76\n      jump\t// in\n    tag_73:\n      stop\n        /* \"contracts/ERC721A.sol\":11402:11552  function ownerOf(uint256 tokenId) public view virtual override returns (address) {... */\n    tag_13:\n      callvalue\n      dup1\n      iszero\n      tag_77\n      jumpi\n      0x00\n      dup1\n      revert\n    tag_77:\n      pop\n      tag_78\n      0x04\n      dup1\n      calldatasize\n      sub\n      dup2\n      add\n      swap1\n      tag_79\n      swap2\n      swap1\n      tag_42\n      jump\t// in\n    tag_79:\n      tag_80\n      jump\t// in\n    tag_78:\n      mload(0x40)\n      tag_81\n      swap2\n      swap1\n      tag_45\n      jump\t// in\n    tag_81:\n      mload(0x40)\n      dup1\n      swap2\n      sub\n      swap1\n      return\n        /* \"contracts/ERC721A.sol\":7056:7286  function balanceOf(address owner) public view virtual override returns (uint256) {... */\n    tag_14:\n      callvalue\n      dup1\n      iszero\n      tag_82\n      jumpi\n      0x00\n      dup1\n      revert\n    tag_82:\n      pop\n      tag_83\n      0x04\n      dup1\n      calldatasize\n      sub\n      dup2\n      add\n      swap1\n      tag_84\n      swap2\n      swap1\n      tag_85\n      jump\t// in\n    tag_84:\n      tag_86\n      jump\t// in\n    tag_83:\n      mload(0x40)\n      tag_87\n      swap2\n      swap1\n      tag_54\n      jump\t// in\n    tag_87:\n      mload(0x40)\n      dup1\n      swap2\n      sub\n      swap1\n      return\n        /* \"@openzeppelin/contracts/access/Ownable.sol\":1831:1932  function renounceOwnership() public virtual onlyOwner {... */\n    tag_15:\n      callvalue\n      dup1\n      iszero\n      tag_88\n      jumpi\n      0x00\n      dup1\n      revert\n    tag_88:\n      pop\n      tag_89\n      tag_90\n      jump\t// in\n    tag_89:\n      stop\n        /* \"contracts/MudAi.sol\":223:275  uint256 public constant PRICE_PER_TOKEN = 0.01 ether */\n    tag_16:\n      callvalue\n      dup1\n      iszero\n      tag_91\n      jumpi\n      0x00\n      dup1\n      revert\n    tag_91:\n      pop\n      tag_92\n      tag_93\n      jump\t// in\n    tag_92:\n      mload(0x40)\n      tag_94\n      swap2\n      swap1\n      tag_54\n      jump\t// in\n    tag_94:\n      mload(0x40)\n      dup1\n      swap2\n      sub\n      swap1\n      return\n        /* \"@openzeppelin/contracts/access/Ownable.sol\":1201:1286  function owner() public view virtual returns (address) {... */\n    tag_17:\n      callvalue\n      dup1\n      iszero\n      tag_95\n      jumpi\n      0x00\n      dup1\n      revert\n    tag_95:\n      pop\n      tag_96\n      tag_97\n      jump\t// in\n    tag_96:\n      mload(0x40)\n      tag_98\n      swap2\n      swap1\n      tag_45\n      jump\t// in\n    tag_98:\n      mload(0x40)\n      dup1\n      swap2\n      sub\n      swap1\n      return\n        /* \"contracts/ERC721A.sol\":10219:10321  function symbol() public view virtual override returns (string memory) {... */\n    tag_18:\n      callvalue\n      dup1\n      iszero\n      tag_99\n      jumpi\n      0x00\n      dup1\n      revert\n    tag_99:\n      pop\n      tag_100\n      tag_101\n      jump\t// in\n    tag_100:\n      mload(0x40)\n      tag_102\n      swap2\n      swap1\n      tag_38\n      jump\t// in\n    tag_102:\n      mload(0x40)\n      dup1\n      swap2\n      sub\n      swap1\n      return\n        /* \"contracts/ERC721A.sol\":16912:17143  function setApprovalForAll(address operator, bool approved) public virtual override {... */\n    tag_19:\n      callvalue\n      dup1\n      iszero\n      tag_103\n      jumpi\n      0x00\n      dup1\n      revert\n    tag_103:\n      pop\n      tag_104\n      0x04\n      dup1\n      calldatasize\n      sub\n      dup2\n      add\n      swap1\n      tag_105\n      swap2\n      swap1\n      tag_106\n      jump\t// in\n    tag_105:\n      tag_107\n      jump\t// in\n    tag_104:\n      stop\n        /* \"contracts/ERC721A.sol\":23537:23933  function safeTransferFrom(... */\n    tag_20:\n      tag_108\n      0x04\n      dup1\n      calldatasize\n      sub\n      dup2\n      add\n      swap1\n      tag_109\n      swap2\n      swap1\n      tag_110\n      jump\t// in\n    tag_109:\n      tag_111\n      jump\t// in\n    tag_108:\n      stop\n        /* \"contracts/ERC721A.sol\":10422:10735  function tokenURI(uint256 tokenId) public view virtual override returns (string memory) {... */\n    tag_21:\n      callvalue\n      dup1\n      iszero\n      tag_112\n      jumpi\n      0x00\n      dup1\n      revert\n    tag_112:\n      pop\n      tag_113\n      0x04\n      dup1\n      calldatasize\n      sub\n      dup2\n      add\n      swap1\n      tag_114\n      swap2\n      swap1\n      tag_42\n      jump\t// in\n    tag_114:\n      tag_115\n      jump\t// in\n    tag_113:\n      mload(0x40)\n      tag_116\n      swap2\n      swap1\n      tag_38\n      jump\t// in\n    tag_116:\n      mload(0x40)\n      dup1\n      swap2\n      sub\n      swap1\n      return\n        /* \"contracts/ERC721A.sol\":17293:17455  function isApprovedForAll(address owner, address operator) public view virtual override returns (bool) {... */\n    tag_22:\n      callvalue\n      dup1\n      iszero\n      tag_117\n      jumpi\n      0x00\n      dup1\n      revert\n    tag_117:\n      pop\n      tag_118\n      0x04\n      dup1\n      calldatasize\n      sub\n      dup2\n      add\n      swap1\n      tag_119\n      swap2\n      swap1\n      tag_120\n      jump\t// in\n    tag_119:\n      tag_121\n      jump\t// in\n    tag_118:\n      mload(0x40)\n      tag_122\n      swap2\n      swap1\n      tag_33\n      jump\t// in\n    tag_122:\n      mload(0x40)\n      dup1\n      swap2\n      sub\n      swap1\n      return\n        /* \"@openzeppelin/contracts/access/Ownable.sol\":2081:2279  function transferOwnership(address newOwner) public virtual onlyOwner {... */\n    tag_23:\n      callvalue\n      dup1\n      iszero\n      tag_123\n      jumpi\n      0x00\n      dup1\n      revert\n    tag_123:\n      pop\n      tag_124\n      0x04\n      dup1\n      calldatasize\n      sub\n      dup2\n      add\n      swap1\n      tag_125\n      swap2\n      swap1\n      tag_85\n      jump\t// in\n    tag_125:\n      tag_126\n      jump\t// in\n    tag_124:\n      stop\n        /* \"contracts/ERC721A.sol\":9166:9796  function supportsInterface(bytes4 interfaceId) public view virtual override returns (bool) {... */\n    tag_31:\n        /* \"contracts/ERC721A.sol\":9251:9255  bool */\n      0x00\n        /* \"contracts/ERC721A.sol\":9584:9594  0x01ffc9a7 */\n      0x01ffc9a7\n        /* \"contracts/ERC721A.sol\":9569:9594  interfaceId == 0x01ffc9a7 */\n      0xe0\n      shl\n        /* \"contracts/ERC721A.sol\":9569:9580  interfaceId */\n      dup3\n        /* \"contracts/ERC721A.sol\":9569:9594  interfaceId == 0x01ffc9a7 */\n      not(0xffffffffffffffffffffffffffffffffffffffffffffffffffffffff)\n      and\n      eq\n        /* \"contracts/ERC721A.sol\":9569:9670  interfaceId == 0x01ffc9a7 || // ERC165 interface ID for ERC165.... */\n      dup1\n      tag_128\n      jumpi\n      pop\n        /* \"contracts/ERC721A.sol\":9660:9670  0x80ac58cd */\n      0x80ac58cd\n        /* \"contracts/ERC721A.sol\":9645:9670  interfaceId == 0x80ac58cd */\n      0xe0\n      shl\n        /* \"contracts/ERC721A.sol\":9645:9656  interfaceId */\n      dup3\n        /* \"contracts/ERC721A.sol\":9645:9670  interfaceId == 0x80ac58cd */\n      not(0xffffffffffffffffffffffffffffffffffffffffffffffffffffffff)\n      and\n      eq\n        /* \"contracts/ERC721A.sol\":9569:9670  interfaceId == 0x01ffc9a7 || // ERC165 interface ID for ERC165.... */\n    tag_128:\n        /* \"contracts/ERC721A.sol\":9569:9746  interfaceId == 0x01ffc9a7 || // ERC165 interface ID for ERC165.... */\n      dup1\n      tag_129\n      jumpi\n      pop\n        /* \"contracts/ERC721A.sol\":9736:9746  0x5b5e139f */\n      0x5b5e139f\n        /* \"contracts/ERC721A.sol\":9721:9746  interfaceId == 0x5b5e139f */\n      0xe0\n      shl\n        /* \"contracts/ERC721A.sol\":9721:9732  interfaceId */\n      dup3\n        /* \"contracts/ERC721A.sol\":9721:9746  interfaceId == 0x5b5e139f */\n      not(0xffffffffffffffffffffffffffffffffffffffffffffffffffffffff)\n      and\n      eq\n        /* \"contracts/ERC721A.sol\":9569:9746  interfaceId == 0x01ffc9a7 || // ERC165 interface ID for ERC165.... */\n    tag_129:\n        /* \"contracts/ERC721A.sol\":9550:9746  return... */\n      swap1\n      pop\n        /* \"contracts/ERC721A.sol\":9166:9796  function supportsInterface(bytes4 interfaceId) public view virtual override returns (bool) {... */\n      swap2\n      swap1\n      pop\n      jump\t// out\n        /* \"contracts/ERC721A.sol\":10050:10148  function name() public view virtual override returns (string memory) {... */\n    tag_36:\n        /* \"contracts/ERC721A.sol\":10104:10117  string memory */\n      0x60\n        /* \"contracts/ERC721A.sol\":10136:10141  _name */\n      0x03\n        /* \"contracts/ERC721A.sol\":10129:10141  return _name */\n      dup1\n      sload\n      tag_131\n      swap1\n      tag_132\n      jump\t// in\n    tag_131:\n      dup1\n      0x1f\n      add\n      0x20\n      dup1\n      swap2\n      div\n      mul\n      0x20\n      add\n      mload(0x40)\n      swap1\n      dup2\n      add\n      0x40\n      mstore\n      dup1\n      swap3\n      swap2\n      swap1\n      dup2\n      dup2\n      mstore\n      0x20\n      add\n      dup3\n      dup1\n      sload\n      tag_133\n      swap1\n      tag_132\n      jump\t// in\n    tag_133:\n      dup1\n      iszero\n      tag_134\n      jumpi\n      dup1\n      0x1f\n      lt\n      tag_135\n      jumpi\n      0x0100\n      dup1\n      dup4\n      sload\n      div\n      mul\n      dup4\n      mstore\n      swap2\n      0x20\n      add\n      swap2\n      jump(tag_134)\n    tag_135:\n      dup3\n      add\n      swap2\n      swap1\n      0x00\n      mstore\n      keccak256(0x00, 0x20)\n      swap1\n    tag_136:\n      dup2\n      sload\n      dup2\n      mstore\n      swap1\n      0x01\n      add\n      swap1\n      0x20\n      add\n      dup1\n      dup4\n      gt\n      tag_136\n      jumpi\n      dup3\n      swap1\n      sub\n      0x1f\n      and\n      dup3\n      add\n      swap2\n    tag_134:\n      pop\n      pop\n      pop\n      pop\n      pop\n      swap1\n      pop\n        /* \"contracts/ERC721A.sol\":10050:10148  function name() public view virtual override returns (string memory) {... */\n      swap1\n      jump\t// out\n        /* \"contracts/ERC721A.sol\":16371:16585  function getApproved(uint256 tokenId) public view virtual override returns (address) {... */\n    tag_43:\n        /* \"contracts/ERC721A.sol\":16447:16454  address */\n      0x00\n        /* \"contracts/ERC721A.sol\":16471:16487  _exists(tokenId) */\n      tag_138\n        /* \"contracts/ERC721A.sol\":16479:16486  tokenId */\n      dup3\n        /* \"contracts/ERC721A.sol\":16471:16478  _exists */\n      tag_139\n        /* \"contracts/ERC721A.sol\":16471:16487  _exists(tokenId) */\n      jump\t// in\n    tag_138:\n        /* \"contracts/ERC721A.sol\":16466:16530  if (!_exists(tokenId)) revert ApprovalQueryForNonexistentToken() */\n      tag_140\n      jumpi\n        /* \"contracts/ERC721A.sol\":16496:16530  ApprovalQueryForNonexistentToken() */\n      mload(0x40)\n      0xcf4700e400000000000000000000000000000000000000000000000000000000\n      dup2\n      mstore\n      0x04\n      add\n      mload(0x40)\n      dup1\n      swap2\n      sub\n      swap1\n      revert\n        /* \"contracts/ERC721A.sol\":16466:16530  if (!_exists(tokenId)) revert ApprovalQueryForNonexistentToken() */\n    tag_140:\n        /* \"contracts/ERC721A.sol\":16548:16563  _tokenApprovals */\n      0x07\n        /* \"contracts/ERC721A.sol\":16548:16572  _tokenApprovals[tokenId] */\n      0x00\n        /* \"contracts/ERC721A.sol\":16564:16571  tokenId */\n      dup4\n        /* \"contracts/ERC721A.sol\":16548:16572  _tokenApprovals[tokenId] */\n      dup2\n      mstore\n      0x20\n      add\n      swap1\n      dup2\n      mstore\n      0x20\n      add\n      0x00\n      keccak256\n        /* \"contracts/ERC721A.sol\":16548:16578  _tokenApprovals[tokenId].value */\n      0x00\n      add\n      0x00\n      swap1\n      sload\n      swap1\n      0x0100\n      exp\n      swap1\n      div\n      0xffffffffffffffffffffffffffffffffffffffff\n      and\n        /* \"contracts/ERC721A.sol\":16541:16578  return _tokenApprovals[tokenId].value */\n      swap1\n      pop\n        /* \"contracts/ERC721A.sol\":16371:16585  function getApproved(uint256 tokenId) public view virtual override returns (address) {... */\n      swap2\n      swap1\n      pop\n      jump\t// out\n        /* \"contracts/ERC721A.sol\":15823:16221  function approve(address to, uint256 tokenId) public payable virtual override {... */\n    tag_49:\n        /* \"contracts/ERC721A.sol\":15911:15924  address owner */\n      0x00\n        /* \"contracts/ERC721A.sol\":15927:15943  ownerOf(tokenId) */\n      tag_142\n        /* \"contracts/ERC721A.sol\":15935:15942  tokenId */\n      dup3\n        /* \"contracts/ERC721A.sol\":15927:15934  ownerOf */\n      tag_80\n        /* \"contracts/ERC721A.sol\":15927:15943  ownerOf(tokenId) */\n      jump\t// in\n    tag_142:\n        /* \"contracts/ERC721A.sol\":15911:15943  address owner = ownerOf(tokenId) */\n      swap1\n      pop\n        /* \"contracts/ERC721A.sol\":15981:15986  owner */\n      dup1\n        /* \"contracts/ERC721A.sol\":15958:15986  _msgSenderERC721A() != owner */\n      0xffffffffffffffffffffffffffffffffffffffff\n      and\n        /* \"contracts/ERC721A.sol\":15958:15977  _msgSenderERC721A() */\n      tag_143\n        /* \"contracts/ERC721A.sol\":15958:15975  _msgSenderERC721A */\n      tag_144\n        /* \"contracts/ERC721A.sol\":15958:15977  _msgSenderERC721A() */\n      jump\t// in\n    tag_143:\n        /* \"contracts/ERC721A.sol\":15958:15986  _msgSenderERC721A() != owner */\n      0xffffffffffffffffffffffffffffffffffffffff\n      and\n      eq\n        /* \"contracts/ERC721A.sol\":15954:16126  if (_msgSenderERC721A() != owner)... */\n      tag_145\n      jumpi\n        /* \"contracts/ERC721A.sol\":16005:16049  isApprovedForAll(owner, _msgSenderERC721A()) */\n      tag_146\n        /* \"contracts/ERC721A.sol\":16022:16027  owner */\n      dup2\n        /* \"contracts/ERC721A.sol\":16029:16048  _msgSenderERC721A() */\n      tag_147\n        /* \"contracts/ERC721A.sol\":16029:16046  _msgSenderERC721A */\n      tag_144\n        /* \"contracts/ERC721A.sol\":16029:16048  _msgSenderERC721A() */\n      jump\t// in\n    tag_147:\n        /* \"contracts/ERC721A.sol\":16005:16021  isApprovedForAll */\n      tag_121\n        /* \"contracts/ERC721A.sol\":16005:16049  isApprovedForAll(owner, _msgSenderERC721A()) */\n      jump\t// in\n    tag_146:\n        /* \"contracts/ERC721A.sol\":16000:16126  if (!isApprovedForAll(owner, _msgSenderERC721A())) {... */\n      tag_148\n      jumpi\n        /* \"contracts/ERC721A.sol\":16076:16111  ApprovalCallerNotOwnerNorApproved() */\n      mload(0x40)\n      0xcfb3b94200000000000000000000000000000000000000000000000000000000\n      dup2\n      mstore\n      0x04\n      add\n      mload(0x40)\n      dup1\n      swap2\n      sub\n      swap1\n      revert\n        /* \"contracts/ERC721A.sol\":16000:16126  if (!isApprovedForAll(owner, _msgSenderERC721A())) {... */\n    tag_148:\n        /* \"contracts/ERC721A.sol\":15954:16126  if (_msgSenderERC721A() != owner)... */\n    tag_145:\n        /* \"contracts/ERC721A.sol\":16169:16171  to */\n      dup3\n        /* \"contracts/ERC721A.sol\":16136:16151  _tokenApprovals */\n      0x07\n        /* \"contracts/ERC721A.sol\":16136:16160  _tokenApprovals[tokenId] */\n      0x00\n        /* \"contracts/ERC721A.sol\":16152:16159  tokenId */\n      dup5\n        /* \"contracts/ERC721A.sol\":16136:16160  _tokenApprovals[tokenId] */\n      dup2\n      mstore\n      0x20\n      add\n      swap1\n      dup2\n      mstore\n      0x20\n      add\n      0x00\n      keccak256\n        /* \"contracts/ERC721A.sol\":16136:16166  _tokenApprovals[tokenId].value */\n      0x00\n      add\n      0x00\n        /* \"contracts/ERC721A.sol\":16136:16171  _tokenApprovals[tokenId].value = to */\n      0x0100\n      exp\n      dup2\n      sload\n      dup2\n      0xffffffffffffffffffffffffffffffffffffffff\n      mul\n      not\n      and\n      swap1\n      dup4\n      0xffffffffffffffffffffffffffffffffffffffff\n      and\n      mul\n      or\n      swap1\n      sstore\n      pop\n        /* \"contracts/ERC721A.sol\":16206:16213  tokenId */\n      dup2\n        /* \"contracts/ERC721A.sol\":16202:16204  to */\n      dup4\n        /* \"contracts/ERC721A.sol\":16186:16214  Approval(owner, to, tokenId) */\n      0xffffffffffffffffffffffffffffffffffffffff\n      and\n        /* \"contracts/ERC721A.sol\":16195:16200  owner */\n      dup3\n        /* \"contracts/ERC721A.sol\":16186:16214  Approval(owner, to, tokenId) */\n      0xffffffffffffffffffffffffffffffffffffffff\n      and\n      0x8c5be1e5ebec7d5bd14f71427d1e84f3dd0314c0f7b2291e5b200ac8c7c3b925\n      mload(0x40)\n      mload(0x40)\n      dup1\n      swap2\n      sub\n      swap1\n      log4\n        /* \"contracts/ERC721A.sol\":15901:16221  {... */\n      pop\n        /* \"contracts/ERC721A.sol\":15823:16221  function approve(address to, uint256 tokenId) public payable virtual override {... */\n      pop\n      pop\n      jump\t// out\n        /* \"contracts/ERC721A.sol\":5905:6222  function totalSupply() public view virtual override returns (uint256) {... */\n    tag_52:\n        /* \"contracts/ERC721A.sol\":5966:5973  uint256 */\n      0x00\n        /* \"contracts/ERC721A.sol\":6190:6205  _startTokenId() */\n      tag_150\n        /* \"contracts/ERC721A.sol\":6190:6203  _startTokenId */\n      tag_151\n        /* \"contracts/ERC721A.sol\":6190:6205  _startTokenId() */\n      jump\t// in\n    tag_150:\n        /* \"contracts/ERC721A.sol\":6175:6187  _burnCounter */\n      sload(0x02)\n        /* \"contracts/ERC721A.sol\":6159:6172  _currentIndex */\n      sload(0x01)\n        /* \"contracts/ERC721A.sol\":6159:6187  _currentIndex - _burnCounter */\n      sub\n        /* \"contracts/ERC721A.sol\":6159:6205  _currentIndex - _burnCounter - _startTokenId() */\n      sub\n        /* \"contracts/ERC721A.sol\":6152:6205  return _currentIndex - _burnCounter - _startTokenId() */\n      swap1\n      pop\n        /* \"contracts/ERC721A.sol\":5905:6222  function totalSupply() public view virtual override returns (uint256) {... */\n      swap1\n      jump\t// out\n        /* \"contracts/ERC721A.sol\":19914:22678  function transferFrom(... */\n    tag_58:\n        /* \"contracts/ERC721A.sol\":20051:20078  uint256 prevOwnershipPacked */\n      0x00\n        /* \"contracts/ERC721A.sol\":20081:20108  _packedOwnershipOf(tokenId) */\n      tag_153\n        /* \"contracts/ERC721A.sol\":20100:20107  tokenId */\n      dup3\n        /* \"contracts/ERC721A.sol\":20081:20099  _packedOwnershipOf */\n      tag_154\n        /* \"contracts/ERC721A.sol\":20081:20108  _packedOwnershipOf(tokenId) */\n      jump\t// in\n    tag_153:\n        /* \"contracts/ERC721A.sol\":20051:20108  uint256 prevOwnershipPacked = _packedOwnershipOf(tokenId) */\n      swap1\n      pop\n        /* \"contracts/ERC721A.sol\":20164:20168  from */\n      dup4\n        /* \"contracts/ERC721A.sol\":20123:20168  address(uint160(prevOwnershipPacked)) != from */\n      0xffffffffffffffffffffffffffffffffffffffff\n      and\n        /* \"contracts/ERC721A.sol\":20139:20158  prevOwnershipPacked */\n      dup2\n        /* \"contracts/ERC721A.sol\":20123:20168  address(uint160(prevOwnershipPacked)) != from */\n      0xffffffffffffffffffffffffffffffffffffffff\n      and\n      eq\n        /* \"contracts/ERC721A.sol\":20119:20205  if (address(uint160(prevOwnershipPacked)) != from) revert TransferFromIncorrectOwner() */\n      tag_155\n      jumpi\n        /* \"contracts/ERC721A.sol\":20177:20205  TransferFromIncorrectOwner() */\n      mload(0x40)\n      0xa114810000000000000000000000000000000000000000000000000000000000\n      dup2\n      mstore\n      0x04\n      add\n      mload(0x40)\n      dup1\n      swap2\n      sub\n      swap1\n      revert\n        /* \"contracts/ERC721A.sol\":20119:20205  if (address(uint160(prevOwnershipPacked)) != from) revert TransferFromIncorrectOwner() */\n    tag_155:\n        /* \"contracts/ERC721A.sol\":20217:20244  uint256 approvedAddressSlot */\n      0x00\n        /* \"contracts/ERC721A.sol\":20246:20269  address approvedAddress */\n      dup1\n        /* \"contracts/ERC721A.sol\":20273:20308  _getApprovedSlotAndAddress(tokenId) */\n      tag_156\n        /* \"contracts/ERC721A.sol\":20300:20307  tokenId */\n      dup5\n        /* \"contracts/ERC721A.sol\":20273:20299  _getApprovedSlotAndAddress */\n      tag_157\n        /* \"contracts/ERC721A.sol\":20273:20308  _getApprovedSlotAndAddress(tokenId) */\n      jump\t// in\n    tag_156:\n        /* \"contracts/ERC721A.sol\":20216:20308  (uint256 approvedAddressSlot, address approvedAddress) = _getApprovedSlotAndAddress(tokenId) */\n      swap2\n      pop\n      swap2\n      pop\n        /* \"contracts/ERC721A.sol\":20405:20473  _isSenderApprovedOrOwner(approvedAddress, from, _msgSenderERC721A()) */\n      tag_158\n        /* \"contracts/ERC721A.sol\":20430:20445  approvedAddress */\n      dup2\n        /* \"contracts/ERC721A.sol\":20447:20451  from */\n      dup8\n        /* \"contracts/ERC721A.sol\":20453:20472  _msgSenderERC721A() */\n      tag_159\n        /* \"contracts/ERC721A.sol\":20453:20470  _msgSenderERC721A */\n      tag_144\n        /* \"contracts/ERC721A.sol\":20453:20472  _msgSenderERC721A() */\n      jump\t// in\n    tag_159:\n        /* \"contracts/ERC721A.sol\":20405:20429  _isSenderApprovedOrOwner */\n      tag_160\n        /* \"contracts/ERC721A.sol\":20405:20473  _isSenderApprovedOrOwner(approvedAddress, from, _msgSenderERC721A()) */\n      jump\t// in\n    tag_158:\n        /* \"contracts/ERC721A.sol\":20400:20579  if (!_isSenderApprovedOrOwner(approvedAddress, from, _msgSenderERC721A()))... */\n      tag_161\n      jumpi\n        /* \"contracts/ERC721A.sol\":20492:20535  isApprovedForAll(from, _msgSenderERC721A()) */\n      tag_162\n        /* \"contracts/ERC721A.sol\":20509:20513  from */\n      dup7\n        /* \"contracts/ERC721A.sol\":20515:20534  _msgSenderERC721A() */\n      tag_163\n        /* \"contracts/ERC721A.sol\":20515:20532  _msgSenderERC721A */\n      tag_144\n        /* \"contracts/ERC721A.sol\":20515:20534  _msgSenderERC721A() */\n      jump\t// in\n    tag_163:\n        /* \"contracts/ERC721A.sol\":20492:20508  isApprovedForAll */\n      tag_121\n        /* \"contracts/ERC721A.sol\":20492:20535  isApprovedForAll(from, _msgSenderERC721A()) */\n      jump\t// in\n    tag_162:\n        /* \"contracts/ERC721A.sol\":20487:20579  if (!isApprovedForAll(from, _msgSenderERC721A())) revert TransferCallerNotOwnerNorApproved() */\n      tag_164\n      jumpi\n        /* \"contracts/ERC721A.sol\":20544:20579  TransferCallerNotOwnerNorApproved() */\n      mload(0x40)\n      0x59c896be00000000000000000000000000000000000000000000000000000000\n      dup2\n      mstore\n      0x04\n      add\n      mload(0x40)\n      dup1\n      swap2\n      sub\n      swap1\n      revert\n        /* \"contracts/ERC721A.sol\":20487:20579  if (!isApprovedForAll(from, _msgSenderERC721A())) revert TransferCallerNotOwnerNorApproved() */\n    tag_164:\n        /* \"contracts/ERC721A.sol\":20400:20579  if (!_isSenderApprovedOrOwner(approvedAddress, from, _msgSenderERC721A()))... */\n    tag_161:\n        /* \"contracts/ERC721A.sol\":20608:20609  0 */\n      0x00\n        /* \"contracts/ERC721A.sol\":20594:20610  to == address(0) */\n      0xffffffffffffffffffffffffffffffffffffffff\n      and\n        /* \"contracts/ERC721A.sol\":20594:20596  to */\n      dup6\n        /* \"contracts/ERC721A.sol\":20594:20610  to == address(0) */\n      0xffffffffffffffffffffffffffffffffffffffff\n      and\n      eq\n        /* \"contracts/ERC721A.sol\":20590:20642  if (to == address(0)) revert TransferToZeroAddress() */\n      iszero\n      tag_165\n      jumpi\n        /* \"contracts/ERC721A.sol\":20619:20642  TransferToZeroAddress() */\n      mload(0x40)\n      0xea553b3400000000000000000000000000000000000000000000000000000000\n      dup2\n      mstore\n      0x04\n      add\n      mload(0x40)\n      dup1\n      swap2\n      sub\n      swap1\n      revert\n        /* \"contracts/ERC721A.sol\":20590:20642  if (to == address(0)) revert TransferToZeroAddress() */\n    tag_165:\n        /* \"contracts/ERC721A.sol\":20653:20696  _beforeTokenTransfers(from, to, tokenId, 1) */\n      tag_166\n        /* \"contracts/ERC721A.sol\":20675:20679  from */\n      dup7\n        /* \"contracts/ERC721A.sol\":20681:20683  to */\n      dup7\n        /* \"contracts/ERC721A.sol\":20685:20692  tokenId */\n      dup7\n        /* \"contracts/ERC721A.sol\":20694:20695  1 */\n      0x01\n        /* \"contracts/ERC721A.sol\":20653:20674  _beforeTokenTransfers */\n      tag_167\n        /* \"contracts/ERC721A.sol\":20653:20696  _beforeTokenTransfers(from, to, tokenId, 1) */\n      jump\t// in\n    tag_166:\n        /* \"contracts/ERC721A.sol\":20785:20800  approvedAddress */\n      dup1\n        /* \"contracts/ERC721A.sol\":20782:20939  if approvedAddress {... */\n      iszero\n      tag_168\n      jumpi\n        /* \"contracts/ERC721A.sol\":20923:20924  0 */\n      0x00\n        /* \"contracts/ERC721A.sol\":20902:20921  approvedAddressSlot */\n      dup3\n        /* \"contracts/ERC721A.sol\":20895:20925  sstore(approvedAddressSlot, 0) */\n      sstore\n        /* \"contracts/ERC721A.sol\":20782:20939  if approvedAddress {... */\n    tag_168:\n        /* \"contracts/ERC721A.sol\":21311:21329  _packedAddressData */\n      0x06\n        /* \"contracts/ERC721A.sol\":21311:21335  _packedAddressData[from] */\n      0x00\n        /* \"contracts/ERC721A.sol\":21330:21334  from */\n      dup8\n        /* \"contracts/ERC721A.sol\":21311:21335  _packedAddressData[from] */\n      0xffffffffffffffffffffffffffffffffffffffff\n      and\n      0xffffffffffffffffffffffffffffffffffffffff\n      and\n      dup2\n      mstore\n      0x20\n      add\n      swap1\n      dup2\n      mstore\n      0x20\n      add\n      0x00\n      keccak256\n      0x00\n        /* \"contracts/ERC721A.sol\":21309:21335  --_packedAddressData[from] */\n      dup2\n      sload\n      0x01\n      swap1\n      sub\n      swap2\n      swap1\n      pop\n      dup2\n      swap1\n      sstore\n      pop\n        /* \"contracts/ERC721A.sol\":21379:21397  _packedAddressData */\n      0x06\n        /* \"contracts/ERC721A.sol\":21379:21401  _packedAddressData[to] */\n      0x00\n        /* \"contracts/ERC721A.sol\":21398:21400  to */\n      dup7\n        /* \"contracts/ERC721A.sol\":21379:21401  _packedAddressData[to] */\n      0xffffffffffffffffffffffffffffffffffffffff\n      and\n      0xffffffffffffffffffffffffffffffffffffffff\n      and\n      dup2\n      mstore\n      0x20\n      add\n      swap1\n      dup2\n      mstore\n      0x20\n      add\n      0x00\n      keccak256\n      0x00\n        /* \"contracts/ERC721A.sol\":21377:21401  ++_packedAddressData[to] */\n      dup2\n      sload\n      0x01\n      add\n      swap2\n      swap1\n      pop\n      dup2\n      swap1\n      sstore\n      pop\n        /* \"contracts/ERC721A.sol\":21694:21837  _packOwnershipData(... */\n      tag_169\n        /* \"contracts/ERC721A.sol\":21730:21732  to */\n      dup6\n        /* \"contracts/ERC721A.sol\":21778:21823  _nextExtraData(from, to, prevOwnershipPacked) */\n      tag_170\n        /* \"contracts/ERC721A.sol\":21793:21797  from */\n      dup9\n        /* \"contracts/ERC721A.sol\":21799:21801  to */\n      dup9\n        /* \"contracts/ERC721A.sol\":21803:21822  prevOwnershipPacked */\n      dup8\n        /* \"contracts/ERC721A.sol\":21778:21792  _nextExtraData */\n      tag_171\n        /* \"contracts/ERC721A.sol\":21778:21823  _nextExtraData(from, to, prevOwnershipPacked) */\n      jump\t// in\n    tag_170:\n        /* \"contracts/ERC721A.sol\":2403:2411  1 << 225 */\n      0x0200000000000000000000000000000000000000000000000000000000\n        /* \"contracts/ERC721A.sol\":21750:21823  _BITMASK_NEXT_INITIALIZED | _nextExtraData(from, to, prevOwnershipPacked) */\n      or\n        /* \"contracts/ERC721A.sol\":21694:21712  _packOwnershipData */\n      tag_172\n        /* \"contracts/ERC721A.sol\":21694:21837  _packOwnershipData(... */\n      jump\t// in\n    tag_169:\n        /* \"contracts/ERC721A.sol\":21665:21682  _packedOwnerships */\n      0x05\n        /* \"contracts/ERC721A.sol\":21665:21691  _packedOwnerships[tokenId] */\n      0x00\n        /* \"contracts/ERC721A.sol\":21683:21690  tokenId */\n      dup7\n        /* \"contracts/ERC721A.sol\":21665:21691  _packedOwnerships[tokenId] */\n      dup2\n      mstore\n      0x20\n      add\n      swap1\n      dup2\n      mstore\n      0x20\n      add\n      0x00\n      keccak256\n        /* \"contracts/ERC721A.sol\":21665:21837  _packedOwnerships[tokenId] = _packOwnershipData(... */\n      dup2\n      swap1\n      sstore\n      pop\n        /* \"contracts/ERC721A.sol\":22005:22006  0 */\n      0x00\n        /* \"contracts/ERC721A.sol\":2403:2411  1 << 225 */\n      0x0200000000000000000000000000000000000000000000000000000000\n        /* \"contracts/ERC721A.sol\":21954:21973  prevOwnershipPacked */\n      dup5\n        /* \"contracts/ERC721A.sol\":21954:22001  prevOwnershipPacked & _BITMASK_NEXT_INITIALIZED */\n      and\n        /* \"contracts/ERC721A.sol\":21954:22006  prevOwnershipPacked & _BITMASK_NEXT_INITIALIZED == 0 */\n      eq\n        /* \"contracts/ERC721A.sol\":21950:22567  if (prevOwnershipPacked & _BITMASK_NEXT_INITIALIZED == 0) {... */\n      iszero\n      tag_173\n      jumpi\n        /* \"contracts/ERC721A.sol\":22026:22045  uint256 nextTokenId */\n      0x00\n        /* \"contracts/ERC721A.sol\":22058:22059  1 */\n      0x01\n        /* \"contracts/ERC721A.sol\":22048:22055  tokenId */\n      dup6\n        /* \"contracts/ERC721A.sol\":22048:22059  tokenId + 1 */\n      add\n        /* \"contracts/ERC721A.sol\":22026:22059  uint256 nextTokenId = tokenId + 1 */\n      swap1\n      pop\n        /* \"contracts/ERC721A.sol\":22213:22214  0 */\n      0x00\n        /* \"contracts/ERC721A.sol\":22179:22196  _packedOwnerships */\n      0x05\n        /* \"contracts/ERC721A.sol\":22179:22209  _packedOwnerships[nextTokenId] */\n      0x00\n        /* \"contracts/ERC721A.sol\":22197:22208  nextTokenId */\n      dup4\n        /* \"contracts/ERC721A.sol\":22179:22209  _packedOwnerships[nextTokenId] */\n      dup2\n      mstore\n      0x20\n      add\n      swap1\n      dup2\n      mstore\n      0x20\n      add\n      0x00\n      keccak256\n      sload\n        /* \"contracts/ERC721A.sol\":22179:22214  _packedOwnerships[nextTokenId] == 0 */\n      eq\n        /* \"contracts/ERC721A.sol\":22175:22553  if (_packedOwnerships[nextTokenId] == 0) {... */\n      iszero\n      tag_174\n      jumpi\n        /* \"contracts/ERC721A.sol\":22315:22328  _currentIndex */\n      sload(0x01)\n        /* \"contracts/ERC721A.sol\":22300:22311  nextTokenId */\n      dup2\n        /* \"contracts/ERC721A.sol\":22300:22328  nextTokenId != _currentIndex */\n      eq\n        /* \"contracts/ERC721A.sol\":22296:22535  if (nextTokenId != _currentIndex) {... */\n      tag_175\n      jumpi\n        /* \"contracts/ERC721A.sol\":22493:22512  prevOwnershipPacked */\n      dup4\n        /* \"contracts/ERC721A.sol\":22460:22477  _packedOwnerships */\n      0x05\n        /* \"contracts/ERC721A.sol\":22460:22490  _packedOwnerships[nextTokenId] */\n      0x00\n        /* \"contracts/ERC721A.sol\":22478:22489  nextTokenId */\n      dup4\n        /* \"contracts/ERC721A.sol\":22460:22490  _packedOwnerships[nextTokenId] */\n      dup2\n      mstore\n      0x20\n      add\n      swap1\n      dup2\n      mstore\n      0x20\n      add\n      0x00\n      keccak256\n        /* \"contracts/ERC721A.sol\":22460:22512  _packedOwnerships[nextTokenId] = prevOwnershipPacked */\n      dup2\n      swap1\n      sstore\n      pop\n        /* \"contracts/ERC721A.sol\":22296:22535  if (nextTokenId != _currentIndex) {... */\n    tag_175:\n        /* \"contracts/ERC721A.sol\":22175:22553  if (_packedOwnerships[nextTokenId] == 0) {... */\n    tag_174:\n        /* \"contracts/ERC721A.sol\":22008:22567  {... */\n      pop\n        /* \"contracts/ERC721A.sol\":21950:22567  if (prevOwnershipPacked & _BITMASK_NEXT_INITIALIZED == 0) {... */\n    tag_173:\n        /* \"contracts/ERC721A.sol\":22611:22618  tokenId */\n      dup4\n        /* \"contracts/ERC721A.sol\":22607:22609  to */\n      dup6\n        /* \"contracts/ERC721A.sol\":22592:22619  Transfer(from, to, tokenId) */\n      0xffffffffffffffffffffffffffffffffffffffff\n      and\n        /* \"contracts/ERC721A.sol\":22601:22605  from */\n      dup8\n        /* \"contracts/ERC721A.sol\":22592:22619  Transfer(from, to, tokenId) */\n      0xffffffffffffffffffffffffffffffffffffffff\n      and\n      0xddf252ad1be2c89b69c2b068fc378daa952ba7f163c4a11628f55a4df523b3ef\n      mload(0x40)\n      mload(0x40)\n      dup1\n      swap2\n      sub\n      swap1\n      log4\n        /* \"contracts/ERC721A.sol\":22629:22671  _afterTokenTransfers(from, to, tokenId, 1) */\n      tag_176\n        /* \"contracts/ERC721A.sol\":22650:22654  from */\n      dup7\n        /* \"contracts/ERC721A.sol\":22656:22658  to */\n      dup7\n        /* \"contracts/ERC721A.sol\":22660:22667  tokenId */\n      dup7\n        /* \"contracts/ERC721A.sol\":22669:22670  1 */\n      0x01\n        /* \"contracts/ERC721A.sol\":22629:22649  _afterTokenTransfers */\n      tag_177\n        /* \"contracts/ERC721A.sol\":22629:22671  _afterTokenTransfers(from, to, tokenId, 1) */\n      jump\t// in\n    tag_176:\n        /* \"contracts/ERC721A.sol\":20041:22678  {... */\n      pop\n      pop\n      pop\n        /* \"contracts/ERC721A.sol\":19914:22678  function transferFrom(... */\n      pop\n      pop\n      pop\n      jump\t// out\n        /* \"contracts/MudAi.sol\":177:217  uint256 public constant MAX_SUPPLY = 100 */\n    tag_61:\n        /* \"contracts/MudAi.sol\":214:217  100 */\n      0x64\n        /* \"contracts/MudAi.sol\":177:217  uint256 public constant MAX_SUPPLY = 100 */\n      dup2\n      jump\t// out\n        /* \"contracts/MudAi.sol\":643:812  function withdraw() external onlyOwner {... */\n    tag_65:\n        /* \"@openzeppelin/contracts/access/Ownable.sol\":1094:1107  _checkOwner() */\n      tag_179\n        /* \"@openzeppelin/contracts/access/Ownable.sol\":1094:1105  _checkOwner */\n      tag_180\n        /* \"@openzeppelin/contracts/access/Ownable.sol\":1094:1107  _checkOwner() */\n      jump\t// in\n    tag_179:\n        /* \"contracts/MudAi.sol\":693:705  bool success */\n      0x00\n        /* \"contracts/MudAi.sol\":711:721  msg.sender */\n      caller\n        /* \"contracts/MudAi.sol\":711:726  msg.sender.call */\n      0xffffffffffffffffffffffffffffffffffffffff\n      and\n        /* \"contracts/MudAi.sol\":734:755  address(this).balance */\n      selfbalance\n        /* \"contracts/MudAi.sol\":711:760  msg.sender.call{value: address(this).balance}(\"\") */\n      mload(0x40)\n      tag_182\n      swap1\n      tag_183\n      jump\t// in\n    tag_182:\n      0x00\n      mload(0x40)\n      dup1\n      dup4\n      sub\n      dup2\n      dup6\n      dup8\n      gas\n      call\n      swap3\n      pop\n      pop\n      pop\n      returndatasize\n      dup1\n      0x00\n      dup2\n      eq\n      tag_186\n      jumpi\n      mload(0x40)\n      swap2\n      pop\n      and(add(returndatasize, 0x3f), not(0x1f))\n      dup3\n      add\n      0x40\n      mstore\n      returndatasize\n      dup3\n      mstore\n      returndatasize\n      0x00\n      0x20\n      dup5\n      add\n      returndatacopy\n      jump(tag_185)\n    tag_186:\n      0x60\n      swap2\n      pop\n    tag_185:\n      pop\n        /* \"contracts/MudAi.sol\":692:760  (bool success, ) = msg.sender.call{value: address(this).balance}(\"\") */\n      pop\n      swap1\n      pop\n        /* \"contracts/MudAi.sol\":778:785  success */\n      dup1\n        /* \"contracts/MudAi.sol\":770:805  require(success, \"Transfer Failed\") */\n      tag_187\n      jumpi\n      mload(0x40)\n      0x08c379a000000000000000000000000000000000000000000000000000000000\n      dup2\n      mstore\n      0x04\n      add\n      tag_188\n      swap1\n      tag_189\n      jump\t// in\n    tag_188:\n      mload(0x40)\n      dup1\n      swap2\n      sub\n      swap1\n      revert\n    tag_187:\n        /* \"contracts/MudAi.sol\":682:812  {... */\n      pop\n        /* \"contracts/MudAi.sol\":643:812  function withdraw() external onlyOwner {... */\n      jump\t// out\n        /* \"contracts/MudAi.sol\":384:637  function mint(address to, uint256 quantity) external payable {... */\n    tag_68:\n        /* \"contracts/MudAi.sol\":214:217  100 */\n      0x64\n        /* \"contracts/MudAi.sol\":480:488  quantity */\n      dup2\n        /* \"contracts/MudAi.sol\":463:477  _totalMinted() */\n      tag_191\n        /* \"contracts/MudAi.sol\":463:475  _totalMinted */\n      tag_192\n        /* \"contracts/MudAi.sol\":463:477  _totalMinted() */\n      jump\t// in\n    tag_191:\n        /* \"contracts/MudAi.sol\":463:488  _totalMinted() + quantity */\n      tag_193\n      swap2\n      swap1\n      tag_194\n      jump\t// in\n    tag_193:\n        /* \"contracts/MudAi.sol\":463:502  _totalMinted() + quantity <= MAX_SUPPLY */\n      gt\n      iszero\n        /* \"contracts/MudAi.sol\":455:521  require(_totalMinted() + quantity <= MAX_SUPPLY, \"Max Supply Hit\") */\n      tag_195\n      jumpi\n      mload(0x40)\n      0x08c379a000000000000000000000000000000000000000000000000000000000\n      dup2\n      mstore\n      0x04\n      add\n      tag_196\n      swap1\n      tag_197\n      jump\t// in\n    tag_196:\n      mload(0x40)\n      dup1\n      swap2\n      sub\n      swap1\n      revert\n    tag_195:\n        /* \"contracts/MudAi.sol\":265:275  0.01 ether */\n      0x2386f26fc10000\n        /* \"contracts/MudAi.sol\":552:560  quantity */\n      dup2\n        /* \"contracts/MudAi.sol\":552:578  quantity * PRICE_PER_TOKEN */\n      tag_198\n      swap2\n      swap1\n      tag_199\n      jump\t// in\n    tag_198:\n        /* \"contracts/MudAi.sol\":539:548  msg.value */\n      callvalue\n        /* \"contracts/MudAi.sol\":539:578  msg.value >= quantity * PRICE_PER_TOKEN */\n      lt\n      iszero\n        /* \"contracts/MudAi.sol\":531:601  require(msg.value >= quantity * PRICE_PER_TOKEN, \"Insufficient Funds\") */\n      tag_200\n      jumpi\n      mload(0x40)\n      0x08c379a000000000000000000000000000000000000000000000000000000000\n      dup2\n      mstore\n      0x04\n      add\n      tag_201\n      swap1\n      tag_202\n      jump\t// in\n    tag_201:\n      mload(0x40)\n      dup1\n      swap2\n      sub\n      swap1\n      revert\n    tag_200:\n        /* \"contracts/MudAi.sol\":611:630  _mint(to, quantity) */\n      tag_203\n        /* \"contracts/MudAi.sol\":617:619  to */\n      dup3\n        /* \"contracts/MudAi.sol\":621:629  quantity */\n      dup3\n        /* \"contracts/MudAi.sol\":611:616  _mint */\n      tag_204\n        /* \"contracts/MudAi.sol\":611:630  _mint(to, quantity) */\n      jump\t// in\n    tag_203:\n        /* \"contracts/MudAi.sol\":384:637  function mint(address to, uint256 quantity) external payable {... */\n      pop\n      pop\n      jump\t// out\n        /* \"contracts/ERC721A.sol\":22769:22956  function safeTransferFrom(... */\n    tag_71:\n        /* \"contracts/ERC721A.sol\":22910:22949  safeTransferFrom(from, to, tokenId, '') */\n      tag_206\n        /* \"contracts/ERC721A.sol\":22927:22931  from */\n      dup4\n        /* \"contracts/ERC721A.sol\":22933:22935  to */\n      dup4\n        /* \"contracts/ERC721A.sol\":22937:22944  tokenId */\n      dup4\n        /* \"contracts/ERC721A.sol\":22910:22949  safeTransferFrom(from, to, tokenId, '') */\n      mload(0x40)\n      dup1\n      0x20\n      add\n      0x40\n      mstore\n      dup1\n      0x00\n      dup2\n      mstore\n      pop\n        /* \"contracts/ERC721A.sol\":22910:22926  safeTransferFrom */\n      tag_111\n        /* \"contracts/ERC721A.sol\":22910:22949  safeTransferFrom(from, to, tokenId, '') */\n      jump\t// in\n    tag_206:\n        /* \"contracts/ERC721A.sol\":22769:22956  function safeTransferFrom(... */\n      pop\n      pop\n      pop\n      jump\t// out\n        /* \"contracts/MudAi.sol\":818:922  function setBaseURI(string calldata baseURI) external onlyOwner {... */\n    tag_76:\n        /* \"@openzeppelin/contracts/access/Ownable.sol\":1094:1107  _checkOwner() */\n      tag_208\n        /* \"@openzeppelin/contracts/access/Ownable.sol\":1094:1105  _checkOwner */\n      tag_180\n        /* \"@openzeppelin/contracts/access/Ownable.sol\":1094:1107  _checkOwner() */\n      jump\t// in\n    tag_208:\n        /* \"contracts/MudAi.sol\":908:915  baseURI */\n      dup2\n      dup2\n        /* \"contracts/MudAi.sol\":892:905  _baseTokenURI */\n      0x09\n        /* \"contracts/MudAi.sol\":892:915  _baseTokenURI = baseURI */\n      swap2\n      swap1\n      tag_210\n      swap3\n      swap2\n      swap1\n      tag_211\n      jump\t// in\n    tag_210:\n      pop\n        /* \"contracts/MudAi.sol\":818:922  function setBaseURI(string calldata baseURI) external onlyOwner {... */\n      pop\n      pop\n      jump\t// out\n        /* \"contracts/ERC721A.sol\":11402:11552  function ownerOf(uint256 tokenId) public view virtual override returns (address) {... */\n    tag_80:\n        /* \"contracts/ERC721A.sol\":11474:11481  address */\n      0x00\n        /* \"contracts/ERC721A.sol\":11516:11543  _packedOwnershipOf(tokenId) */\n      tag_213\n        /* \"contracts/ERC721A.sol\":11535:11542  tokenId */\n      dup3\n        /* \"contracts/ERC721A.sol\":11516:11534  _packedOwnershipOf */\n      tag_154\n        /* \"contracts/ERC721A.sol\":11516:11543  _packedOwnershipOf(tokenId) */\n      jump\t// in\n    tag_213:\n        /* \"contracts/ERC721A.sol\":11493:11545  return address(uint160(_packedOwnershipOf(tokenId))) */\n      swap1\n      pop\n        /* \"contracts/ERC721A.sol\":11402:11552  function ownerOf(uint256 tokenId) public view virtual override returns (address) {... */\n      swap2\n      swap1\n      pop\n      jump\t// out\n        /* \"contracts/ERC721A.sol\":7056:7286  function balanceOf(address owner) public view virtual override returns (uint256) {... */\n    tag_86:\n        /* \"contracts/ERC721A.sol\":7128:7135  uint256 */\n      0x00\n        /* \"contracts/ERC721A.sol\":7168:7169  0 */\n      dup1\n        /* \"contracts/ERC721A.sol\":7151:7170  owner == address(0) */\n      0xffffffffffffffffffffffffffffffffffffffff\n      and\n        /* \"contracts/ERC721A.sol\":7151:7156  owner */\n      dup3\n        /* \"contracts/ERC721A.sol\":7151:7170  owner == address(0) */\n      0xffffffffffffffffffffffffffffffffffffffff\n      and\n      eq\n        /* \"contracts/ERC721A.sol\":7147:7207  if (owner == address(0)) revert BalanceQueryForZeroAddress() */\n      iszero\n      tag_215\n      jumpi\n        /* \"contracts/ERC721A.sol\":7179:7207  BalanceQueryForZeroAddress() */\n      mload(0x40)\n      0x8f4eb60400000000000000000000000000000000000000000000000000000000\n      dup2\n      mstore\n      0x04\n      add\n      mload(0x40)\n      dup1\n      swap2\n      sub\n      swap1\n      revert\n        /* \"contracts/ERC721A.sol\":7147:7207  if (owner == address(0)) revert BalanceQueryForZeroAddress() */\n    tag_215:\n        /* \"contracts/ERC721A.sol\":1371:1384  (1 << 64) - 1 */\n      0xffffffffffffffff\n        /* \"contracts/ERC721A.sol\":7224:7242  _packedAddressData */\n      0x06\n        /* \"contracts/ERC721A.sol\":7224:7249  _packedAddressData[owner] */\n      0x00\n        /* \"contracts/ERC721A.sol\":7243:7248  owner */\n      dup5\n        /* \"contracts/ERC721A.sol\":7224:7249  _packedAddressData[owner] */\n      0xffffffffffffffffffffffffffffffffffffffff\n      and\n      0xffffffffffffffffffffffffffffffffffffffff\n      and\n      dup2\n      mstore\n      0x20\n      add\n      swap1\n      dup2\n      mstore\n      0x20\n      add\n      0x00\n      keccak256\n      sload\n        /* \"contracts/ERC721A.sol\":7224:7279  _packedAddressData[owner] & _BITMASK_ADDRESS_DATA_ENTRY */\n      and\n        /* \"contracts/ERC721A.sol\":7217:7279  return _packedAddressData[owner] & _BITMASK_ADDRESS_DATA_ENTRY */\n      swap1\n      pop\n        /* \"contracts/ERC721A.sol\":7056:7286  function balanceOf(address owner) public view virtual override returns (uint256) {... */\n      swap2\n      swap1\n      pop\n      jump\t// out\n        /* \"@openzeppelin/contracts/access/Ownable.sol\":1831:1932  function renounceOwnership() public virtual onlyOwner {... */\n    tag_90:\n        /* \"@openzeppelin/contracts/access/Ownable.sol\":1094:1107  _checkOwner() */\n      tag_217\n        /* \"@openzeppelin/contracts/access/Ownable.sol\":1094:1105  _checkOwner */\n      tag_180\n        /* \"@openzeppelin/contracts/access/Ownable.sol\":1094:1107  _checkOwner() */\n      jump\t// in\n    tag_217:\n        /* \"@openzeppelin/contracts/access/Ownable.sol\":1895:1925  _transferOwnership(address(0)) */\n      tag_219\n        /* \"@openzeppelin/contracts/access/Ownable.sol\":1922:1923  0 */\n      0x00\n        /* \"@openzeppelin/contracts/access/Ownable.sol\":1895:1913  _transferOwnership */\n      tag_220\n        /* \"@openzeppelin/contracts/access/Ownable.sol\":1895:1925  _transferOwnership(address(0)) */\n      jump\t// in\n    tag_219:\n        /* \"@openzeppelin/contracts/access/Ownable.sol\":1831:1932  function renounceOwnership() public virtual onlyOwner {... */\n      jump\t// out\n        /* \"contracts/MudAi.sol\":223:275  uint256 public constant PRICE_PER_TOKEN = 0.01 ether */\n    tag_93:\n        /* \"contracts/MudAi.sol\":265:275  0.01 ether */\n      0x2386f26fc10000\n        /* \"contracts/MudAi.sol\":223:275  uint256 public constant PRICE_PER_TOKEN = 0.01 ether */\n      dup2\n      jump\t// out\n        /* \"@openzeppelin/contracts/access/Ownable.sol\":1201:1286  function owner() public view virtual returns (address) {... */\n    tag_97:\n        /* \"@openzeppelin/contracts/access/Ownable.sol\":1247:1254  address */\n      0x00\n        /* \"@openzeppelin/contracts/access/Ownable.sol\":1273:1279  _owner */\n      dup1\n      0x00\n      swap1\n      sload\n      swap1\n      0x0100\n      exp\n      swap1\n      div\n      0xffffffffffffffffffffffffffffffffffffffff\n      and\n        /* \"@openzeppelin/contracts/access/Ownable.sol\":1266:1279  return _owner */\n      swap1\n      pop\n        /* \"@openzeppelin/contracts/access/Ownable.sol\":1201:1286  function owner() public view virtual returns (address) {... */\n      swap1\n      jump\t// out\n        /* \"contracts/ERC721A.sol\":10219:10321  function symbol() public view virtual override returns (string memory) {... */\n    tag_101:\n        /* \"contracts/ERC721A.sol\":10275:10288  string memory */\n      0x60\n        /* \"contracts/ERC721A.sol\":10307:10314  _symbol */\n      0x04\n        /* \"contracts/ERC721A.sol\":10300:10314  return _symbol */\n      dup1\n      sload\n      tag_223\n      swap1\n      tag_132\n      jump\t// in\n    tag_223:\n      dup1\n      0x1f\n      add\n      0x20\n      dup1\n      swap2\n      div\n      mul\n      0x20\n      add\n      mload(0x40)\n      swap1\n      dup2\n      add\n      0x40\n      mstore\n      dup1\n      swap3\n      swap2\n      swap1\n      dup2\n      dup2\n      mstore\n      0x20\n      add\n      dup3\n      dup1\n      sload\n      tag_224\n      swap1\n      tag_132\n      jump\t// in\n    tag_224:\n      dup1\n      iszero\n      tag_225\n      jumpi\n      dup1\n      0x1f\n      lt\n      tag_226\n      jumpi\n      0x0100\n      dup1\n      dup4\n      sload\n      div\n      mul\n      dup4\n      mstore\n      swap2\n      0x20\n      add\n      swap2\n      jump(tag_225)\n    tag_226:\n      dup3\n      add\n      swap2\n      swap1\n      0x00\n      mstore\n      keccak256(0x00, 0x20)\n      swap1\n    tag_227:\n      dup2\n      sload\n      dup2\n      mstore\n      swap1\n      0x01\n      add\n      swap1\n      0x20\n      add\n      dup1\n      dup4\n      gt\n      tag_227\n      jumpi\n      dup3\n      swap1\n      sub\n      0x1f\n      and\n      dup3\n      add\n      swap2\n    tag_225:\n      pop\n      pop\n      pop\n      pop\n      pop\n      swap1\n      pop\n        /* \"contracts/ERC721A.sol\":10219:10321  function symbol() public view virtual override returns (string memory) {... */\n      swap1\n      jump\t// out\n        /* \"contracts/ERC721A.sol\":16912:17143  function setApprovalForAll(address operator, bool approved) public virtual override {... */\n    tag_107:\n        /* \"contracts/ERC721A.sol\":17058:17066  approved */\n      dup1\n        /* \"contracts/ERC721A.sol\":17006:17024  _operatorApprovals */\n      0x08\n        /* \"contracts/ERC721A.sol\":17006:17045  _operatorApprovals[_msgSenderERC721A()] */\n      0x00\n        /* \"contracts/ERC721A.sol\":17025:17044  _msgSenderERC721A() */\n      tag_229\n        /* \"contracts/ERC721A.sol\":17025:17042  _msgSenderERC721A */\n      tag_144\n        /* \"contracts/ERC721A.sol\":17025:17044  _msgSenderERC721A() */\n      jump\t// in\n    tag_229:\n        /* \"contracts/ERC721A.sol\":17006:17045  _operatorApprovals[_msgSenderERC721A()] */\n      0xffffffffffffffffffffffffffffffffffffffff\n      and\n      0xffffffffffffffffffffffffffffffffffffffff\n      and\n      dup2\n      mstore\n      0x20\n      add\n      swap1\n      dup2\n      mstore\n      0x20\n      add\n      0x00\n      keccak256\n        /* \"contracts/ERC721A.sol\":17006:17055  _operatorApprovals[_msgSenderERC721A()][operator] */\n      0x00\n        /* \"contracts/ERC721A.sol\":17046:17054  operator */\n      dup5\n        /* \"contracts/ERC721A.sol\":17006:17055  _operatorApprovals[_msgSenderERC721A()][operator] */\n      0xffffffffffffffffffffffffffffffffffffffff\n      and\n      0xffffffffffffffffffffffffffffffffffffffff\n      and\n      dup2\n      mstore\n      0x20\n      add\n      swap1\n      dup2\n      mstore\n      0x20\n      add\n      0x00\n      keccak256\n      0x00\n        /* \"contracts/ERC721A.sol\":17006:17066  _operatorApprovals[_msgSenderERC721A()][operator] = approved */\n      0x0100\n      exp\n      dup2\n      sload\n      dup2\n      0xff\n      mul\n      not\n      and\n      swap1\n      dup4\n      iszero\n      iszero\n      mul\n      or\n      swap1\n      sstore\n      pop\n        /* \"contracts/ERC721A.sol\":17117:17125  operator */\n      dup2\n        /* \"contracts/ERC721A.sol\":17081:17136  ApprovalForAll(_msgSenderERC721A(), operator, approved) */\n      0xffffffffffffffffffffffffffffffffffffffff\n      and\n        /* \"contracts/ERC721A.sol\":17096:17115  _msgSenderERC721A() */\n      tag_230\n        /* \"contracts/ERC721A.sol\":17096:17113  _msgSenderERC721A */\n      tag_144\n        /* \"contracts/ERC721A.sol\":17096:17115  _msgSenderERC721A() */\n      jump\t// in\n    tag_230:\n        /* \"contracts/ERC721A.sol\":17081:17136  ApprovalForAll(_msgSenderERC721A(), operator, approved) */\n      0xffffffffffffffffffffffffffffffffffffffff\n      and\n      0x17307eab39ab6107e8899845ad3d59bd9653f200f220920489ca2b5937696c31\n        /* \"contracts/ERC721A.sol\":17127:17135  approved */\n      dup4\n        /* \"contracts/ERC721A.sol\":17081:17136  ApprovalForAll(_msgSenderERC721A(), operator, approved) */\n      mload(0x40)\n      tag_231\n      swap2\n      swap1\n      tag_33\n      jump\t// in\n    tag_231:\n      mload(0x40)\n      dup1\n      swap2\n      sub\n      swap1\n      log3\n        /* \"contracts/ERC721A.sol\":16912:17143  function setApprovalForAll(address operator, bool approved) public virtual override {... */\n      pop\n      pop\n      jump\t// out\n        /* \"contracts/ERC721A.sol\":23537:23933  function safeTransferFrom(... */\n    tag_111:\n        /* \"contracts/ERC721A.sol\":23706:23737  transferFrom(from, to, tokenId) */\n      tag_233\n        /* \"contracts/ERC721A.sol\":23719:23723  from */\n      dup5\n        /* \"contracts/ERC721A.sol\":23725:23727  to */\n      dup5\n        /* \"contracts/ERC721A.sol\":23729:23736  tokenId */\n      dup5\n        /* \"contracts/ERC721A.sol\":23706:23718  transferFrom */\n      tag_58\n        /* \"contracts/ERC721A.sol\":23706:23737  transferFrom(from, to, tokenId) */\n      jump\t// in\n    tag_233:\n        /* \"contracts/ERC721A.sol\":23769:23770  0 */\n      0x00\n        /* \"contracts/ERC721A.sol\":23751:23753  to */\n      dup4\n        /* \"contracts/ERC721A.sol\":23751:23765  to.code.length */\n      0xffffffffffffffffffffffffffffffffffffffff\n      and\n      extcodesize\n        /* \"contracts/ERC721A.sol\":23751:23770  to.code.length != 0 */\n      eq\n        /* \"contracts/ERC721A.sol\":23747:23927  if (to.code.length != 0)... */\n      tag_234\n      jumpi\n        /* \"contracts/ERC721A.sol\":23789:23845  _checkContractOnERC721Received(from, to, tokenId, _data) */\n      tag_235\n        /* \"contracts/ERC721A.sol\":23820:23824  from */\n      dup5\n        /* \"contracts/ERC721A.sol\":23826:23828  to */\n      dup5\n        /* \"contracts/ERC721A.sol\":23830:23837  tokenId */\n      dup5\n        /* \"contracts/ERC721A.sol\":23839:23844  _data */\n      dup5\n        /* \"contracts/ERC721A.sol\":23789:23819  _checkContractOnERC721Received */\n      tag_236\n        /* \"contracts/ERC721A.sol\":23789:23845  _checkContractOnERC721Received(from, to, tokenId, _data) */\n      jump\t// in\n    tag_235:\n        /* \"contracts/ERC721A.sol\":23784:23927  if (!_checkContractOnERC721Received(from, to, tokenId, _data)) {... */\n      tag_237\n      jumpi\n        /* \"contracts/ERC721A.sol\":23872:23912  TransferToNonERC721ReceiverImplementer() */\n      mload(0x40)\n      0xd1a57ed600000000000000000000000000000000000000000000000000000000\n      dup2\n      mstore\n      0x04\n      add\n      mload(0x40)\n      dup1\n      swap2\n      sub\n      swap1\n      revert\n        /* \"contracts/ERC721A.sol\":23784:23927  if (!_checkContractOnERC721Received(from, to, tokenId, _data)) {... */\n    tag_237:\n        /* \"contracts/ERC721A.sol\":23747:23927  if (to.code.length != 0)... */\n    tag_234:\n        /* \"contracts/ERC721A.sol\":23537:23933  function safeTransferFrom(... */\n      pop\n      pop\n      pop\n      pop\n      jump\t// out\n        /* \"contracts/ERC721A.sol\":10422:10735  function tokenURI(uint256 tokenId) public view virtual override returns (string memory) {... */\n    tag_115:\n        /* \"contracts/ERC721A.sol\":10495:10508  string memory */\n      0x60\n        /* \"contracts/ERC721A.sol\":10525:10541  _exists(tokenId) */\n      tag_239\n        /* \"contracts/ERC721A.sol\":10533:10540  tokenId */\n      dup3\n        /* \"contracts/ERC721A.sol\":10525:10532  _exists */\n      tag_139\n        /* \"contracts/ERC721A.sol\":10525:10541  _exists(tokenId) */\n      jump\t// in\n    tag_239:\n        /* \"contracts/ERC721A.sol\":10520:10579  if (!_exists(tokenId)) revert URIQueryForNonexistentToken() */\n      tag_240\n      jumpi\n        /* \"contracts/ERC721A.sol\":10550:10579  URIQueryForNonexistentToken() */\n      mload(0x40)\n      0xa14c4b5000000000000000000000000000000000000000000000000000000000\n      dup2\n      mstore\n      0x04\n      add\n      mload(0x40)\n      dup1\n      swap2\n      sub\n      swap1\n      revert\n        /* \"contracts/ERC721A.sol\":10520:10579  if (!_exists(tokenId)) revert URIQueryForNonexistentToken() */\n    tag_240:\n        /* \"contracts/ERC721A.sol\":10590:10611  string memory baseURI */\n      0x00\n        /* \"contracts/ERC721A.sol\":10614:10624  _baseURI() */\n      tag_241\n        /* \"contracts/ERC721A.sol\":10614:10622  _baseURI */\n      tag_242\n        /* \"contracts/ERC721A.sol\":10614:10624  _baseURI() */\n      jump\t// in\n    tag_241:\n        /* \"contracts/ERC721A.sol\":10590:10624  string memory baseURI = _baseURI() */\n      swap1\n      pop\n        /* \"contracts/ERC721A.sol\":10666:10667  0 */\n      0x00\n        /* \"contracts/ERC721A.sol\":10647:10654  baseURI */\n      dup2\n        /* \"contracts/ERC721A.sol\":10641:10662  bytes(baseURI).length */\n      mload\n        /* \"contracts/ERC721A.sol\":10641:10667  bytes(baseURI).length != 0 */\n      eq\n      iszero\n        /* \"contracts/ERC721A.sol\":10641:10728  bytes(baseURI).length != 0 ? string(abi.encodePacked(baseURI, _toString(tokenId))) : '' */\n      tag_243\n      jumpi\n      mload(0x40)\n      dup1\n      0x20\n      add\n      0x40\n      mstore\n      dup1\n      0x00\n      dup2\n      mstore\n      pop\n      jump(tag_244)\n    tag_243:\n        /* \"contracts/ERC721A.sol\":10694:10701  baseURI */\n      dup1\n        /* \"contracts/ERC721A.sol\":10703:10721  _toString(tokenId) */\n      tag_245\n        /* \"contracts/ERC721A.sol\":10713:10720  tokenId */\n      dup5\n        /* \"contracts/ERC721A.sol\":10703:10712  _toString */\n      tag_246\n        /* \"contracts/ERC721A.sol\":10703:10721  _toString(tokenId) */\n      jump\t// in\n    tag_245:\n        /* \"contracts/ERC721A.sol\":10677:10722  abi.encodePacked(baseURI, _toString(tokenId)) */\n      add(0x20, mload(0x40))\n      tag_247\n      swap3\n      swap2\n      swap1\n      tag_248\n      jump\t// in\n    tag_247:\n      mload(0x40)\n      0x20\n      dup2\n      dup4\n      sub\n      sub\n      dup2\n      mstore\n      swap1\n      0x40\n      mstore\n        /* \"contracts/ERC721A.sol\":10641:10728  bytes(baseURI).length != 0 ? string(abi.encodePacked(baseURI, _toString(tokenId))) : '' */\n    tag_244:\n        /* \"contracts/ERC721A.sol\":10634:10728  return bytes(baseURI).length != 0 ? string(abi.encodePacked(baseURI, _toString(tokenId))) : '' */\n      swap2\n      pop\n      pop\n        /* \"contracts/ERC721A.sol\":10422:10735  function tokenURI(uint256 tokenId) public view virtual override returns (string memory) {... */\n      swap2\n      swap1\n      pop\n      jump\t// out\n        /* \"contracts/ERC721A.sol\":17293:17455  function isApprovedForAll(address owner, address operator) public view virtual override returns (bool) {... */\n    tag_121:\n        /* \"contracts/ERC721A.sol\":17390:17394  bool */\n      0x00\n        /* \"contracts/ERC721A.sol\":17413:17431  _operatorApprovals */\n      0x08\n        /* \"contracts/ERC721A.sol\":17413:17438  _operatorApprovals[owner] */\n      0x00\n        /* \"contracts/ERC721A.sol\":17432:17437  owner */\n      dup5\n        /* \"contracts/ERC721A.sol\":17413:17438  _operatorApprovals[owner] */\n      0xffffffffffffffffffffffffffffffffffffffff\n      and\n      0xffffffffffffffffffffffffffffffffffffffff\n      and\n      dup2\n      mstore\n      0x20\n      add\n      swap1\n      dup2\n      mstore\n      0x20\n      add\n      0x00\n      keccak256\n        /* \"contracts/ERC721A.sol\":17413:17448  _operatorApprovals[owner][operator] */\n      0x00\n        /* \"contracts/ERC721A.sol\":17439:17447  operator */\n      dup4\n        /* \"contracts/ERC721A.sol\":17413:17448  _operatorApprovals[owner][operator] */\n      0xffffffffffffffffffffffffffffffffffffffff\n      and\n      0xffffffffffffffffffffffffffffffffffffffff\n      and\n      dup2\n      mstore\n      0x20\n      add\n      swap1\n      dup2\n      mstore\n      0x20\n      add\n      0x00\n      keccak256\n      0x00\n      swap1\n      sload\n      swap1\n      0x0100\n      exp\n      swap1\n      div\n      0xff\n      and\n        /* \"contracts/ERC721A.sol\":17406:17448  return _operatorApprovals[owner][operator] */\n      swap1\n      pop\n        /* \"contracts/ERC721A.sol\":17293:17455  function isApprovedForAll(address owner, address operator) public view virtual override returns (bool) {... */\n      swap3\n      swap2\n      pop\n      pop\n      jump\t// out\n        /* \"@openzeppelin/contracts/access/Ownable.sol\":2081:2279  function transferOwnership(address newOwner) public virtual onlyOwner {... */\n    tag_126:\n        /* \"@openzeppelin/contracts/access/Ownable.sol\":1094:1107  _checkOwner() */\n      tag_251\n        /* \"@openzeppelin/contracts/access/Ownable.sol\":1094:1105  _checkOwner */\n      tag_180\n        /* \"@openzeppelin/contracts/access/Ownable.sol\":1094:1107  _checkOwner() */\n      jump\t// in\n    tag_251:\n        /* \"@openzeppelin/contracts/access/Ownable.sol\":2189:2190  0 */\n      0x00\n        /* \"@openzeppelin/contracts/access/Ownable.sol\":2169:2191  newOwner != address(0) */\n      0xffffffffffffffffffffffffffffffffffffffff\n      and\n        /* \"@openzeppelin/contracts/access/Ownable.sol\":2169:2177  newOwner */\n      dup2\n        /* \"@openzeppelin/contracts/access/Ownable.sol\":2169:2191  newOwner != address(0) */\n      0xffffffffffffffffffffffffffffffffffffffff\n      and\n      eq\n      iszero\n        /* \"@openzeppelin/contracts/access/Ownable.sol\":2161:2234  require(newOwner != address(0), \"Ownable: new owner is the zero address\") */\n      tag_253\n      jumpi\n      mload(0x40)\n      0x08c379a000000000000000000000000000000000000000000000000000000000\n      dup2\n      mstore\n      0x04\n      add\n      tag_254\n      swap1\n      tag_255\n      jump\t// in\n    tag_254:\n      mload(0x40)\n      dup1\n      swap2\n      sub\n      swap1\n      revert\n    tag_253:\n        /* \"@openzeppelin/contracts/access/Ownable.sol\":2244:2272  _transferOwnership(newOwner) */\n      tag_256\n        /* \"@openzeppelin/contracts/access/Ownable.sol\":2263:2271  newOwner */\n      dup2\n        /* \"@openzeppelin/contracts/access/Ownable.sol\":2244:2262  _transferOwnership */\n      tag_220\n        /* \"@openzeppelin/contracts/access/Ownable.sol\":2244:2272  _transferOwnership(newOwner) */\n      jump\t// in\n    tag_256:\n        /* \"@openzeppelin/contracts/access/Ownable.sol\":2081:2279  function transferOwnership(address newOwner) public virtual onlyOwner {... */\n      pop\n      jump\t// out\n        /* \"contracts/ERC721A.sol\":17704:17981  function _exists(uint256 tokenId) internal view virtual returns (bool) {... */\n    tag_139:\n        /* \"contracts/ERC721A.sol\":17769:17773  bool */\n      0x00\n        /* \"contracts/ERC721A.sol\":17823:17830  tokenId */\n      dup2\n        /* \"contracts/ERC721A.sol\":17804:17819  _startTokenId() */\n      tag_258\n        /* \"contracts/ERC721A.sol\":17804:17817  _startTokenId */\n      tag_151\n        /* \"contracts/ERC721A.sol\":17804:17819  _startTokenId() */\n      jump\t// in\n    tag_258:\n        /* \"contracts/ERC721A.sol\":17804:17830  _startTokenId() <= tokenId */\n      gt\n      iszero\n        /* \"contracts/ERC721A.sol\":17804:17869  _startTokenId() <= tokenId &&... */\n      dup1\n      iszero\n      tag_259\n      jumpi\n      pop\n        /* \"contracts/ERC721A.sol\":17856:17869  _currentIndex */\n      sload(0x01)\n        /* \"contracts/ERC721A.sol\":17846:17853  tokenId */\n      dup3\n        /* \"contracts/ERC721A.sol\":17846:17869  tokenId < _currentIndex */\n      lt\n        /* \"contracts/ERC721A.sol\":17804:17869  _startTokenId() <= tokenId &&... */\n    tag_259:\n        /* \"contracts/ERC721A.sol\":17804:17955  _startTokenId() <= tokenId &&... */\n      dup1\n      iszero\n      tag_260\n      jumpi\n      pop\n        /* \"contracts/ERC721A.sol\":17954:17955  0 */\n      0x00\n        /* \"contracts/ERC721A.sol\":2129:2137  1 << 224 */\n      0x0100000000000000000000000000000000000000000000000000000000\n        /* \"contracts/ERC721A.sol\":17906:17923  _packedOwnerships */\n      0x05\n        /* \"contracts/ERC721A.sol\":17906:17932  _packedOwnerships[tokenId] */\n      0x00\n        /* \"contracts/ERC721A.sol\":17924:17931  tokenId */\n      dup6\n        /* \"contracts/ERC721A.sol\":17906:17932  _packedOwnerships[tokenId] */\n      dup2\n      mstore\n      0x20\n      add\n      swap1\n      dup2\n      mstore\n      0x20\n      add\n      0x00\n      keccak256\n      sload\n        /* \"contracts/ERC721A.sol\":17906:17950  _packedOwnerships[tokenId] & _BITMASK_BURNED */\n      and\n        /* \"contracts/ERC721A.sol\":17906:17955  _packedOwnerships[tokenId] & _BITMASK_BURNED == 0 */\n      eq\n        /* \"contracts/ERC721A.sol\":17804:17955  _startTokenId() <= tokenId &&... */\n    tag_260:\n        /* \"contracts/ERC721A.sol\":17785:17955  return... */\n      swap1\n      pop\n        /* \"contracts/ERC721A.sol\":17704:17981  function _exists(uint256 tokenId) internal view virtual returns (bool) {... */\n      swap2\n      swap1\n      pop\n      jump\t// out\n        /* \"contracts/ERC721A.sol\":39448:39551  function _msgSenderERC721A() internal view virtual returns (address) {... */\n    tag_144:\n        /* \"contracts/ERC721A.sol\":39508:39515  address */\n      0x00\n        /* \"contracts/ERC721A.sol\":39534:39544  msg.sender */\n      caller\n        /* \"contracts/ERC721A.sol\":39527:39544  return msg.sender */\n      swap1\n      pop\n        /* \"contracts/ERC721A.sol\":39448:39551  function _msgSenderERC721A() internal view virtual returns (address) {... */\n      swap1\n      jump\t// out\n        /* \"contracts/ERC721A.sol\":5437:5527  function _startTokenId() internal view virtual returns (uint256) {... */\n    tag_151:\n        /* \"contracts/ERC721A.sol\":5493:5500  uint256 */\n      0x00\n        /* \"contracts/ERC721A.sol\":5437:5527  function _startTokenId() internal view virtual returns (uint256) {... */\n      swap1\n      jump\t// out\n        /* \"contracts/ERC721A.sol\":12526:13775  function _packedOwnershipOf(uint256 tokenId) private view returns (uint256) {... */\n    tag_154:\n        /* \"contracts/ERC721A.sol\":12593:12600  uint256 */\n      0x00\n        /* \"contracts/ERC721A.sol\":12612:12624  uint256 curr */\n      dup1\n        /* \"contracts/ERC721A.sol\":12627:12634  tokenId */\n      dup3\n        /* \"contracts/ERC721A.sol\":12612:12634  uint256 curr = tokenId */\n      swap1\n      pop\n        /* \"contracts/ERC721A.sol\":12692:12696  curr */\n      dup1\n        /* \"contracts/ERC721A.sol\":12673:12688  _startTokenId() */\n      tag_264\n        /* \"contracts/ERC721A.sol\":12673:12686  _startTokenId */\n      tag_151\n        /* \"contracts/ERC721A.sol\":12673:12688  _startTokenId() */\n      jump\t// in\n    tag_264:\n        /* \"contracts/ERC721A.sol\":12673:12696  _startTokenId() <= curr */\n      gt\n        /* \"contracts/ERC721A.sol\":12669:13711  if (_startTokenId() <= curr)... */\n      tag_265\n      jumpi\n        /* \"contracts/ERC721A.sol\":12725:12738  _currentIndex */\n      sload(0x01)\n        /* \"contracts/ERC721A.sol\":12718:12722  curr */\n      dup2\n        /* \"contracts/ERC721A.sol\":12718:12738  curr < _currentIndex */\n      lt\n        /* \"contracts/ERC721A.sol\":12714:13711  if (curr < _currentIndex) {... */\n      iszero\n      tag_266\n      jumpi\n        /* \"contracts/ERC721A.sol\":12762:12776  uint256 packed */\n      0x00\n        /* \"contracts/ERC721A.sol\":12779:12796  _packedOwnerships */\n      0x05\n        /* \"contracts/ERC721A.sol\":12779:12802  _packedOwnerships[curr] */\n      0x00\n        /* \"contracts/ERC721A.sol\":12797:12801  curr */\n      dup4\n        /* \"contracts/ERC721A.sol\":12779:12802  _packedOwnerships[curr] */\n      dup2\n      mstore\n      0x20\n      add\n      swap1\n      dup2\n      mstore\n      0x20\n      add\n      0x00\n      keccak256\n      sload\n        /* \"contracts/ERC721A.sol\":12762:12802  uint256 packed = _packedOwnerships[curr] */\n      swap1\n      pop\n        /* \"contracts/ERC721A.sol\":12894:12895  0 */\n      0x00\n        /* \"contracts/ERC721A.sol\":2129:2137  1 << 224 */\n      0x0100000000000000000000000000000000000000000000000000000000\n        /* \"contracts/ERC721A.sol\":12866:12872  packed */\n      dup3\n        /* \"contracts/ERC721A.sol\":12866:12890  packed & _BITMASK_BURNED */\n      and\n        /* \"contracts/ERC721A.sol\":12866:12895  packed & _BITMASK_BURNED == 0 */\n      eq\n        /* \"contracts/ERC721A.sol\":12862:13693  if (packed & _BITMASK_BURNED == 0) {... */\n      iszero\n      tag_267\n      jumpi\n        /* \"contracts/ERC721A.sol\":13521:13632  while (packed == 0) {... */\n    tag_268:\n        /* \"contracts/ERC721A.sol\":13538:13539  0 */\n      0x00\n        /* \"contracts/ERC721A.sol\":13528:13534  packed */\n      dup2\n        /* \"contracts/ERC721A.sol\":13528:13539  packed == 0 */\n      eq\n        /* \"contracts/ERC721A.sol\":13521:13632  while (packed == 0) {... */\n      iszero\n      tag_269\n      jumpi\n        /* \"contracts/ERC721A.sol\":13580:13597  _packedOwnerships */\n      0x05\n        /* \"contracts/ERC721A.sol\":13580:13605  _packedOwnerships[--curr] */\n      0x00\n        /* \"contracts/ERC721A.sol\":13598:13604  --curr */\n      dup4\n      0x01\n      swap1\n      sub\n      swap4\n      pop\n      dup4\n        /* \"contracts/ERC721A.sol\":13580:13605  _packedOwnerships[--curr] */\n      dup2\n      mstore\n      0x20\n      add\n      swap1\n      dup2\n      mstore\n      0x20\n      add\n      0x00\n      keccak256\n      sload\n        /* \"contracts/ERC721A.sol\":13571:13605  packed = _packedOwnerships[--curr] */\n      swap1\n      pop\n        /* \"contracts/ERC721A.sol\":13521:13632  while (packed == 0) {... */\n      jump(tag_268)\n    tag_269:\n        /* \"contracts/ERC721A.sol\":13664:13670  packed */\n      dup1\n        /* \"contracts/ERC721A.sol\":13657:13670  return packed */\n      swap3\n      pop\n      pop\n      pop\n      jump(tag_263)\n        /* \"contracts/ERC721A.sol\":12862:13693  if (packed & _BITMASK_BURNED == 0) {... */\n    tag_267:\n        /* \"contracts/ERC721A.sol\":12740:13711  {... */\n      pop\n        /* \"contracts/ERC721A.sol\":12714:13711  if (curr < _currentIndex) {... */\n    tag_266:\n        /* \"contracts/ERC721A.sol\":12669:13711  if (_startTokenId() <= curr)... */\n    tag_265:\n        /* \"contracts/ERC721A.sol\":13737:13768  OwnerQueryForNonexistentToken() */\n      mload(0x40)\n      0xdf2d9b4200000000000000000000000000000000000000000000000000000000\n      dup2\n      mstore\n      0x04\n      add\n      mload(0x40)\n      dup1\n      swap2\n      sub\n      swap1\n      revert\n        /* \"contracts/ERC721A.sol\":12526:13775  function _packedOwnershipOf(uint256 tokenId) private view returns (uint256) {... */\n    tag_263:\n      swap2\n      swap1\n      pop\n      jump\t// out\n        /* \"contracts/ERC721A.sol\":18839:19313  function _getApprovedSlotAndAddress(uint256 tokenId)... */\n    tag_157:\n        /* \"contracts/ERC721A.sol\":18938:18965  uint256 approvedAddressSlot */\n      0x00\n        /* \"contracts/ERC721A.sol\":18967:18990  address approvedAddress */\n      dup1\n        /* \"contracts/ERC721A.sol\":19006:19044  TokenApprovalRef storage tokenApproval */\n      0x00\n        /* \"contracts/ERC721A.sol\":19047:19062  _tokenApprovals */\n      0x07\n        /* \"contracts/ERC721A.sol\":19047:19071  _tokenApprovals[tokenId] */\n      0x00\n        /* \"contracts/ERC721A.sol\":19063:19070  tokenId */\n      dup6\n        /* \"contracts/ERC721A.sol\":19047:19071  _tokenApprovals[tokenId] */\n      dup2\n      mstore\n      0x20\n      add\n      swap1\n      dup2\n      mstore\n      0x20\n      add\n      0x00\n      keccak256\n        /* \"contracts/ERC721A.sol\":19006:19071  TokenApprovalRef storage tokenApproval = _tokenApprovals[tokenId] */\n      swap1\n      pop\n        /* \"contracts/ERC721A.sol\":19221:19239  tokenApproval.slot */\n      dup1\n        /* \"contracts/ERC721A.sol\":19198:19239  approvedAddressSlot := tokenApproval.slot */\n      swap3\n      pop\n        /* \"contracts/ERC721A.sol\":19277:19296  approvedAddressSlot */\n      dup3\n        /* \"contracts/ERC721A.sol\":19271:19297  sload(approvedAddressSlot) */\n      sload\n        /* \"contracts/ERC721A.sol\":19252:19297  approvedAddress := sload(approvedAddressSlot) */\n      swap2\n      pop\n        /* \"contracts/ERC721A.sol\":19184:19307  {... */\n      pop\n        /* \"contracts/ERC721A.sol\":18839:19313  function _getApprovedSlotAndAddress(uint256 tokenId)... */\n      swap2\n      pop\n      swap2\n      jump\t// out\n        /* \"contracts/ERC721A.sol\":18085:18731  function _isSenderApprovedOrOwner(... */\n    tag_160:\n        /* \"contracts/ERC721A.sol\":18230:18241  bool result */\n      0x00\n        /* \"contracts/ERC721A.sol\":18392:18408  _BITMASK_ADDRESS */\n      0xffffffffffffffffffffffffffffffffffffffff\n        /* \"contracts/ERC721A.sol\":18385:18390  owner */\n      dup4\n        /* \"contracts/ERC721A.sol\":18381:18409  and(owner, _BITMASK_ADDRESS) */\n      and\n        /* \"contracts/ERC721A.sol\":18372:18409  owner := and(owner, _BITMASK_ADDRESS) */\n      swap3\n      pop\n        /* \"contracts/ERC721A.sol\":18550:18566  _BITMASK_ADDRESS */\n      0xffffffffffffffffffffffffffffffffffffffff\n        /* \"contracts/ERC721A.sol\":18539:18548  msgSender */\n      dup3\n        /* \"contracts/ERC721A.sol\":18535:18567  and(msgSender, _BITMASK_ADDRESS) */\n      and\n        /* \"contracts/ERC721A.sol\":18522:18567  msgSender := and(msgSender, _BITMASK_ADDRESS) */\n      swap2\n      pop\n        /* \"contracts/ERC721A.sol\":18698:18713  approvedAddress */\n      dup4\n        /* \"contracts/ERC721A.sol\":18687:18696  msgSender */\n      dup3\n        /* \"contracts/ERC721A.sol\":18684:18714  eq(msgSender, approvedAddress) */\n      eq\n        /* \"contracts/ERC721A.sol\":18676:18681  owner */\n      dup4\n        /* \"contracts/ERC721A.sol\":18665:18674  msgSender */\n      dup4\n        /* \"contracts/ERC721A.sol\":18662:18682  eq(msgSender, owner) */\n      eq\n        /* \"contracts/ERC721A.sol\":18659:18715  or(eq(msgSender, owner), eq(msgSender, approvedAddress)) */\n      or\n        /* \"contracts/ERC721A.sol\":18649:18715  result := or(eq(msgSender, owner), eq(msgSender, approvedAddress)) */\n      swap1\n      pop\n        /* \"contracts/ERC721A.sol\":18085:18731  function _isSenderApprovedOrOwner(... */\n      swap4\n      swap3\n      pop\n      pop\n      pop\n      jump\t// out\n        /* \"contracts/ERC721A.sol\":24577:24731  function _beforeTokenTransfers(... */\n    tag_167:\n      pop\n      pop\n      pop\n      pop\n      jump\t// out\n        /* \"contracts/ERC721A.sol\":38775:39079  function _nextExtraData(... */\n    tag_171:\n        /* \"contracts/ERC721A.sol\":38906:38913  uint256 */\n      0x00\n        /* \"contracts/ERC721A.sol\":38925:38941  uint24 extraData */\n      dup1\n        /* \"contracts/ERC721A.sol\":2524:2527  232 */\n      0xe8\n        /* \"contracts/ERC721A.sol\":38951:38970  prevOwnershipPacked */\n      dup4\n        /* \"contracts/ERC721A.sol\":38951:38992  prevOwnershipPacked >> _BITPOS_EXTRA_DATA */\n      swap1\n      shr\n        /* \"contracts/ERC721A.sol\":38925:38993  uint24 extraData = uint24(prevOwnershipPacked >> _BITPOS_EXTRA_DATA) */\n      swap1\n      pop\n        /* \"contracts/ERC721A.sol\":2524:2527  232 */\n      0xe8\n        /* \"contracts/ERC721A.sol\":39018:39049  _extraData(from, to, extraData) */\n      tag_274\n        /* \"contracts/ERC721A.sol\":39029:39033  from */\n      dup7\n        /* \"contracts/ERC721A.sol\":39035:39037  to */\n      dup7\n        /* \"contracts/ERC721A.sol\":39039:39048  extraData */\n      dup5\n        /* \"contracts/ERC721A.sol\":39018:39028  _extraData */\n      tag_275\n        /* \"contracts/ERC721A.sol\":39018:39049  _extraData(from, to, extraData) */\n      jump\t// in\n    tag_274:\n        /* \"contracts/ERC721A.sol\":39010:39050  uint256(_extraData(from, to, extraData)) */\n      0xffffff\n      and\n        /* \"contracts/ERC721A.sol\":39010:39072  uint256(_extraData(from, to, extraData)) << _BITPOS_EXTRA_DATA */\n      swap1\n      shl\n        /* \"contracts/ERC721A.sol\":39003:39072  return uint256(_extraData(from, to, extraData)) << _BITPOS_EXTRA_DATA */\n      swap2\n      pop\n      pop\n        /* \"contracts/ERC721A.sol\":38775:39079  function _nextExtraData(... */\n      swap4\n      swap3\n      pop\n      pop\n      pop\n      jump\t// out\n        /* \"contracts/ERC721A.sol\":14308:14751  function _packOwnershipData(address owner, uint256 flags) private view returns (uint256 result) {... */\n    tag_172:\n        /* \"contracts/ERC721A.sol\":14388:14402  uint256 result */\n      0x00\n        /* \"contracts/ERC721A.sol\":14553:14569  _BITMASK_ADDRESS */\n      0xffffffffffffffffffffffffffffffffffffffff\n        /* \"contracts/ERC721A.sol\":14546:14551  owner */\n      dup4\n        /* \"contracts/ERC721A.sol\":14542:14570  and(owner, _BITMASK_ADDRESS) */\n      and\n        /* \"contracts/ERC721A.sol\":14533:14570  owner := and(owner, _BITMASK_ADDRESS) */\n      swap3\n      pop\n        /* \"contracts/ERC721A.sol\":14728:14733  flags */\n      dup2\n        /* \"contracts/ERC721A.sol\":14714:14725  timestamp() */\n      timestamp\n        /* \"contracts/ERC721A.sol\":14689:14712  _BITPOS_START_TIMESTAMP */\n      0xa0\n        /* \"contracts/ERC721A.sol\":14685:14726  shl(_BITPOS_START_TIMESTAMP, timestamp()) */\n      shl\n        /* \"contracts/ERC721A.sol\":14682:14734  or(shl(_BITPOS_START_TIMESTAMP, timestamp()), flags) */\n      or\n        /* \"contracts/ERC721A.sol\":14675:14680  owner */\n      dup4\n        /* \"contracts/ERC721A.sol\":14672:14735  or(owner, or(shl(_BITPOS_START_TIMESTAMP, timestamp()), flags)) */\n      or\n        /* \"contracts/ERC721A.sol\":14662:14735  result := or(owner, or(shl(_BITPOS_START_TIMESTAMP, timestamp()), flags)) */\n      swap1\n      pop\n        /* \"contracts/ERC721A.sol\":14308:14751  function _packOwnershipData(address owner, uint256 flags) private view returns (uint256 result) {... */\n      swap3\n      swap2\n      pop\n      pop\n      jump\t// out\n        /* \"contracts/ERC721A.sol\":25378:25531  function _afterTokenTransfers(... */\n    tag_177:\n      pop\n      pop\n      pop\n      pop\n      jump\t// out\n        /* \"@openzeppelin/contracts/access/Ownable.sol\":1359:1489  function _checkOwner() internal view virtual {... */\n    tag_180:\n        /* \"@openzeppelin/contracts/access/Ownable.sol\":1433:1445  _msgSender() */\n      tag_279\n        /* \"@openzeppelin/contracts/access/Ownable.sol\":1433:1443  _msgSender */\n      tag_280\n        /* \"@openzeppelin/contracts/access/Ownable.sol\":1433:1445  _msgSender() */\n      jump\t// in\n    tag_279:\n        /* \"@openzeppelin/contracts/access/Ownable.sol\":1422:1445  owner() == _msgSender() */\n      0xffffffffffffffffffffffffffffffffffffffff\n      and\n        /* \"@openzeppelin/contracts/access/Ownable.sol\":1422:1429  owner() */\n      tag_281\n        /* \"@openzeppelin/contracts/access/Ownable.sol\":1422:1427  owner */\n      tag_97\n        /* \"@openzeppelin/contracts/access/Ownable.sol\":1422:1429  owner() */\n      jump\t// in\n    tag_281:\n        /* \"@openzeppelin/contracts/access/Ownable.sol\":1422:1445  owner() == _msgSender() */\n      0xffffffffffffffffffffffffffffffffffffffff\n      and\n      eq\n        /* \"@openzeppelin/contracts/access/Ownable.sol\":1414:1482  require(owner() == _msgSender(), \"Ownable: caller is not the owner\") */\n      tag_282\n      jumpi\n      mload(0x40)\n      0x08c379a000000000000000000000000000000000000000000000000000000000\n      dup2\n      mstore\n      0x04\n      add\n      tag_283\n      swap1\n      tag_284\n      jump\t// in\n    tag_283:\n      mload(0x40)\n      dup1\n      swap2\n      sub\n      swap1\n      revert\n    tag_282:\n        /* \"@openzeppelin/contracts/access/Ownable.sol\":1359:1489  function _checkOwner() internal view virtual {... */\n      jump\t// out\n        /* \"contracts/ERC721A.sol\":6315:6605  function _totalMinted() internal view virtual returns (uint256) {... */\n    tag_192:\n        /* \"contracts/ERC721A.sol\":6370:6377  uint256 */\n      0x00\n        /* \"contracts/ERC721A.sol\":6573:6588  _startTokenId() */\n      tag_286\n        /* \"contracts/ERC721A.sol\":6573:6586  _startTokenId */\n      tag_151\n        /* \"contracts/ERC721A.sol\":6573:6588  _startTokenId() */\n      jump\t// in\n    tag_286:\n        /* \"contracts/ERC721A.sol\":6557:6570  _currentIndex */\n      sload(0x01)\n        /* \"contracts/ERC721A.sol\":6557:6588  _currentIndex - _startTokenId() */\n      sub\n        /* \"contracts/ERC721A.sol\":6550:6588  return _currentIndex - _startTokenId() */\n      swap1\n      pop\n        /* \"contracts/ERC721A.sol\":6315:6605  function _totalMinted() internal view virtual returns (uint256) {... */\n      swap1\n      jump\t// out\n        /* \"contracts/ERC721A.sol\":27102:30004  function _mint(address to, uint256 quantity) internal virtual {... */\n    tag_204:\n        /* \"contracts/ERC721A.sol\":27174:27194  uint256 startTokenId */\n      0x00\n        /* \"contracts/ERC721A.sol\":27197:27210  _currentIndex */\n      sload(0x01)\n        /* \"contracts/ERC721A.sol\":27174:27210  uint256 startTokenId = _currentIndex */\n      swap1\n      pop\n        /* \"contracts/ERC721A.sol\":27236:27237  0 */\n      0x00\n        /* \"contracts/ERC721A.sol\":27224:27232  quantity */\n      dup3\n        /* \"contracts/ERC721A.sol\":27224:27237  quantity == 0 */\n      eq\n        /* \"contracts/ERC721A.sol\":27220:27264  if (quantity == 0) revert MintZeroQuantity() */\n      iszero\n      tag_288\n      jumpi\n        /* \"contracts/ERC721A.sol\":27246:27264  MintZeroQuantity() */\n      mload(0x40)\n      0xb562e8dd00000000000000000000000000000000000000000000000000000000\n      dup2\n      mstore\n      0x04\n      add\n      mload(0x40)\n      dup1\n      swap2\n      sub\n      swap1\n      revert\n        /* \"contracts/ERC721A.sol\":27220:27264  if (quantity == 0) revert MintZeroQuantity() */\n    tag_288:\n        /* \"contracts/ERC721A.sol\":27275:27336  _beforeTokenTransfers(address(0), to, startTokenId, quantity) */\n      tag_289\n        /* \"contracts/ERC721A.sol\":27305:27306  0 */\n      0x00\n        /* \"contracts/ERC721A.sol\":27309:27311  to */\n      dup5\n        /* \"contracts/ERC721A.sol\":27313:27325  startTokenId */\n      dup4\n        /* \"contracts/ERC721A.sol\":27327:27335  quantity */\n      dup6\n        /* \"contracts/ERC721A.sol\":27275:27296  _beforeTokenTransfers */\n      tag_167\n        /* \"contracts/ERC721A.sol\":27275:27336  _beforeTokenTransfers(address(0), to, startTokenId, quantity) */\n      jump\t// in\n    tag_289:\n        /* \"contracts/ERC721A.sol\":27808:27809  1 */\n      0x01\n        /* \"contracts/ERC721A.sol\":1506:1508  64 */\n      0x40\n        /* \"contracts/ERC721A.sol\":27778:27779  1 */\n      0x01\n        /* \"contracts/ERC721A.sol\":27778:27804  1 << _BITPOS_NUMBER_MINTED */\n      swap1\n      shl\n        /* \"contracts/ERC721A.sol\":27777:27809  (1 << _BITPOS_NUMBER_MINTED) | 1 */\n      or\n        /* \"contracts/ERC721A.sol\":27765:27773  quantity */\n      dup3\n        /* \"contracts/ERC721A.sol\":27765:27810  quantity * ((1 << _BITPOS_NUMBER_MINTED) | 1) */\n      mul\n        /* \"contracts/ERC721A.sol\":27739:27757  _packedAddressData */\n      0x06\n        /* \"contracts/ERC721A.sol\":27739:27761  _packedAddressData[to] */\n      0x00\n        /* \"contracts/ERC721A.sol\":27758:27760  to */\n      dup6\n        /* \"contracts/ERC721A.sol\":27739:27761  _packedAddressData[to] */\n      0xffffffffffffffffffffffffffffffffffffffff\n      and\n      0xffffffffffffffffffffffffffffffffffffffff\n      and\n      dup2\n      mstore\n      0x20\n      add\n      swap1\n      dup2\n      mstore\n      0x20\n      add\n      0x00\n      keccak256\n      0x00\n        /* \"contracts/ERC721A.sol\":27739:27810  _packedAddressData[to] += quantity * ((1 << _BITPOS_NUMBER_MINTED) | 1) */\n      dup3\n      dup3\n      sload\n      add\n      swap3\n      pop\n      pop\n      dup2\n      swap1\n      sstore\n      pop\n        /* \"contracts/ERC721A.sol\":28080:28216  _packOwnershipData(... */\n      tag_290\n        /* \"contracts/ERC721A.sol\":28116:28118  to */\n      dup4\n        /* \"contracts/ERC721A.sol\":28169:28202  _nextExtraData(address(0), to, 0) */\n      tag_291\n        /* \"contracts/ERC721A.sol\":28192:28193  0 */\n      0x00\n        /* \"contracts/ERC721A.sol\":28196:28198  to */\n      dup7\n        /* \"contracts/ERC721A.sol\":28200:28201  0 */\n      0x00\n        /* \"contracts/ERC721A.sol\":28169:28183  _nextExtraData */\n      tag_171\n        /* \"contracts/ERC721A.sol\":28169:28202  _nextExtraData(address(0), to, 0) */\n      jump\t// in\n    tag_291:\n        /* \"contracts/ERC721A.sol\":28136:28166  _nextInitializedFlag(quantity) */\n      tag_292\n        /* \"contracts/ERC721A.sol\":28157:28165  quantity */\n      dup6\n        /* \"contracts/ERC721A.sol\":28136:28156  _nextInitializedFlag */\n      tag_293\n        /* \"contracts/ERC721A.sol\":28136:28166  _nextInitializedFlag(quantity) */\n      jump\t// in\n    tag_292:\n        /* \"contracts/ERC721A.sol\":28136:28202  _nextInitializedFlag(quantity) | _nextExtraData(address(0), to, 0) */\n      or\n        /* \"contracts/ERC721A.sol\":28080:28098  _packOwnershipData */\n      tag_172\n        /* \"contracts/ERC721A.sol\":28080:28216  _packOwnershipData(... */\n      jump\t// in\n    tag_290:\n        /* \"contracts/ERC721A.sol\":28046:28063  _packedOwnerships */\n      0x05\n        /* \"contracts/ERC721A.sol\":28046:28077  _packedOwnerships[startTokenId] */\n      0x00\n        /* \"contracts/ERC721A.sol\":28064:28076  startTokenId */\n      dup4\n        /* \"contracts/ERC721A.sol\":28046:28077  _packedOwnerships[startTokenId] */\n      dup2\n      mstore\n      0x20\n      add\n      swap1\n      dup2\n      mstore\n      0x20\n      add\n      0x00\n      keccak256\n        /* \"contracts/ERC721A.sol\":28046:28216  _packedOwnerships[startTokenId] = _packOwnershipData(... */\n      dup2\n      swap1\n      sstore\n      pop\n        /* \"contracts/ERC721A.sol\":28231:28247  uint256 toMasked */\n      0x00\n        /* \"contracts/ERC721A.sol\":28261:28272  uint256 end */\n      dup1\n        /* \"contracts/ERC721A.sol\":28290:28298  quantity */\n      dup4\n        /* \"contracts/ERC721A.sol\":28275:28287  startTokenId */\n      dup4\n        /* \"contracts/ERC721A.sol\":28275:28298  startTokenId + quantity */\n      add\n        /* \"contracts/ERC721A.sol\":28261:28298  uint256 end = startTokenId + quantity */\n      swap1\n      pop\n        /* \"contracts/ERC721A.sol\":28803:28819  _BITMASK_ADDRESS */\n      0xffffffffffffffffffffffffffffffffffffffff\n        /* \"contracts/ERC721A.sol\":28799:28801  to */\n      dup6\n        /* \"contracts/ERC721A.sol\":28795:28820  and(to, _BITMASK_ADDRESS) */\n      and\n        /* \"contracts/ERC721A.sol\":28783:28820  toMasked := and(to, _BITMASK_ADDRESS) */\n      swap2\n      pop\n        /* \"contracts/ERC721A.sol\":29167:29179  startTokenId */\n      dup3\n        /* \"contracts/ERC721A.sol\":29128:29136  toMasked */\n      dup3\n        /* \"contracts/ERC721A.sol\":29088:29089  0 */\n      0x00\n        /* \"contracts/ERC721A.sol\":29027:29052  _TRANSFER_EVENT_SIGNATURE */\n      0xddf252ad1be2c89b69c2b068fc378daa952ba7f163c4a11628f55a4df523b3ef\n        /* \"contracts/ERC721A.sol\":28969:28970  0 */\n      0x00\n        /* \"contracts/ERC721A.sol\":28909:28910  0 */\n      dup1\n        /* \"contracts/ERC721A.sol\":28883:29211  log4(... */\n      log4\n        /* \"contracts/ERC721A.sol\":29531:29532  1 */\n      0x01\n        /* \"contracts/ERC721A.sol\":29517:29529  startTokenId */\n      dup4\n        /* \"contracts/ERC721A.sol\":29513:29533  add(startTokenId, 1) */\n      add\n        /* \"contracts/ERC721A.sol\":29472:29811  for {... */\n    tag_294:\n        /* \"contracts/ERC721A.sol\":29571:29574  end */\n      dup2\n        /* \"contracts/ERC721A.sol\":29562:29569  tokenId */\n      dup2\n        /* \"contracts/ERC721A.sol\":29559:29575  eq(tokenId, end) */\n      eq\n        /* \"contracts/ERC721A.sol\":29472:29811  for {... */\n      tag_296\n      jumpi\n        /* \"contracts/ERC721A.sol\":29785:29792  tokenId */\n      dup1\n        /* \"contracts/ERC721A.sol\":29775:29783  toMasked */\n      dup4\n        /* \"contracts/ERC721A.sol\":29772:29773  0 */\n      0x00\n        /* \"contracts/ERC721A.sol\":29745:29770  _TRANSFER_EVENT_SIGNATURE */\n      0xddf252ad1be2c89b69c2b068fc378daa952ba7f163c4a11628f55a4df523b3ef\n        /* \"contracts/ERC721A.sol\":29742:29743  0 */\n      0x00\n        /* \"contracts/ERC721A.sol\":29739:29740  0 */\n      dup1\n        /* \"contracts/ERC721A.sol\":29734:29793  log4(0, 0, _TRANSFER_EVENT_SIGNATURE, 0, toMasked, tokenId) */\n      log4\n        /* \"contracts/ERC721A.sol\":29623:29624  1 */\n      0x01\n        /* \"contracts/ERC721A.sol\":29614:29621  tokenId */\n      dup2\n        /* \"contracts/ERC721A.sol\":29610:29625  add(tokenId, 1) */\n      add\n        /* \"contracts/ERC721A.sol\":29599:29625  tokenId := add(tokenId, 1) */\n      swap1\n      pop\n        /* \"contracts/ERC721A.sol\":29472:29811  for {... */\n      jump(tag_294)\n    tag_296:\n        /* \"contracts/ERC721A.sol\":29476:29551  {... */\n      pop\n        /* \"contracts/ERC721A.sol\":29854:29855  0 */\n      0x00\n        /* \"contracts/ERC721A.sol\":29842:29850  toMasked */\n      dup3\n        /* \"contracts/ERC721A.sol\":29842:29855  toMasked == 0 */\n      eq\n        /* \"contracts/ERC721A.sol\":29838:29883  if (toMasked == 0) revert MintToZeroAddress() */\n      iszero\n      tag_297\n      jumpi\n        /* \"contracts/ERC721A.sol\":29864:29883  MintToZeroAddress() */\n      mload(0x40)\n      0x2e07630000000000000000000000000000000000000000000000000000000000\n      dup2\n      mstore\n      0x04\n      add\n      mload(0x40)\n      dup1\n      swap2\n      sub\n      swap1\n      revert\n        /* \"contracts/ERC721A.sol\":29838:29883  if (toMasked == 0) revert MintToZeroAddress() */\n    tag_297:\n        /* \"contracts/ERC721A.sol\":29914:29917  end */\n      dup1\n        /* \"contracts/ERC721A.sol\":29898:29911  _currentIndex */\n      0x01\n        /* \"contracts/ERC721A.sol\":29898:29917  _currentIndex = end */\n      dup2\n      swap1\n      sstore\n      pop\n        /* \"contracts/ERC721A.sol\":27519:29928  unchecked {... */\n      pop\n      pop\n        /* \"contracts/ERC721A.sol\":29937:29997  _afterTokenTransfers(address(0), to, startTokenId, quantity) */\n      tag_298\n        /* \"contracts/ERC721A.sol\":29966:29967  0 */\n      0x00\n        /* \"contracts/ERC721A.sol\":29970:29972  to */\n      dup5\n        /* \"contracts/ERC721A.sol\":29974:29986  startTokenId */\n      dup4\n        /* \"contracts/ERC721A.sol\":29988:29996  quantity */\n      dup6\n        /* \"contracts/ERC721A.sol\":29937:29957  _afterTokenTransfers */\n      tag_177\n        /* \"contracts/ERC721A.sol\":29937:29997  _afterTokenTransfers(address(0), to, startTokenId, quantity) */\n      jump\t// in\n    tag_298:\n        /* \"contracts/ERC721A.sol\":27164:30004  {... */\n      pop\n        /* \"contracts/ERC721A.sol\":27102:30004  function _mint(address to, uint256 quantity) internal virtual {... */\n      pop\n      pop\n      jump\t// out\n        /* \"@openzeppelin/contracts/access/Ownable.sol\":2433:2620  function _transferOwnership(address newOwner) internal virtual {... */\n    tag_220:\n        /* \"@openzeppelin/contracts/access/Ownable.sol\":2506:2522  address oldOwner */\n      0x00\n        /* \"@openzeppelin/contracts/access/Ownable.sol\":2525:2531  _owner */\n      dup1\n      0x00\n      swap1\n      sload\n      swap1\n      0x0100\n      exp\n      swap1\n      div\n      0xffffffffffffffffffffffffffffffffffffffff\n      and\n        /* \"@openzeppelin/contracts/access/Ownable.sol\":2506:2531  address oldOwner = _owner */\n      swap1\n      pop\n        /* \"@openzeppelin/contracts/access/Ownable.sol\":2550:2558  newOwner */\n      dup2\n        /* \"@openzeppelin/contracts/access/Ownable.sol\":2541:2547  _owner */\n      0x00\n      dup1\n        /* \"@openzeppelin/contracts/access/Ownable.sol\":2541:2558  _owner = newOwner */\n      0x0100\n      exp\n      dup2\n      sload\n      dup2\n      0xffffffffffffffffffffffffffffffffffffffff\n      mul\n      not\n      and\n      swap1\n      dup4\n      0xffffffffffffffffffffffffffffffffffffffff\n      and\n      mul\n      or\n      swap1\n      sstore\n      pop\n        /* \"@openzeppelin/contracts/access/Ownable.sol\":2604:2612  newOwner */\n      dup2\n        /* \"@openzeppelin/contracts/access/Ownable.sol\":2573:2613  OwnershipTransferred(oldOwner, newOwner) */\n      0xffffffffffffffffffffffffffffffffffffffff\n      and\n        /* \"@openzeppelin/contracts/access/Ownable.sol\":2594:2602  oldOwner */\n      dup2\n        /* \"@openzeppelin/contracts/access/Ownable.sol\":2573:2613  OwnershipTransferred(oldOwner, newOwner) */\n      0xffffffffffffffffffffffffffffffffffffffff\n      and\n      0x8be0079c531659141344cd1fd0a4f28419497f9722a3daafe3b4186f6b6457e0\n      mload(0x40)\n      mload(0x40)\n      dup1\n      swap2\n      sub\n      swap1\n      log3\n        /* \"@openzeppelin/contracts/access/Ownable.sol\":2496:2620  {... */\n      pop\n        /* \"@openzeppelin/contracts/access/Ownable.sol\":2433:2620  function _transferOwnership(address newOwner) internal virtual {... */\n      pop\n      jump\t// out\n        /* \"contracts/ERC721A.sol\":25959:26656  function _checkContractOnERC721Received(... */\n    tag_236:\n        /* \"contracts/ERC721A.sol\":26117:26121  bool */\n      0x00\n        /* \"contracts/ERC721A.sol\":26162:26164  to */\n      dup4\n        /* \"contracts/ERC721A.sol\":26137:26182  ERC721A__IERC721Receiver(to).onERC721Received */\n      0xffffffffffffffffffffffffffffffffffffffff\n      and\n      0x150b7a02\n        /* \"contracts/ERC721A.sol\":26183:26202  _msgSenderERC721A() */\n      tag_301\n        /* \"contracts/ERC721A.sol\":26183:26200  _msgSenderERC721A */\n      tag_144\n        /* \"contracts/ERC721A.sol\":26183:26202  _msgSenderERC721A() */\n      jump\t// in\n    tag_301:\n        /* \"contracts/ERC721A.sol\":26204:26208  from */\n      dup8\n        /* \"contracts/ERC721A.sol\":26210:26217  tokenId */\n      dup7\n        /* \"contracts/ERC721A.sol\":26219:26224  _data */\n      dup7\n        /* \"contracts/ERC721A.sol\":26137:26225  ERC721A__IERC721Receiver(to).onERC721Received(_msgSenderERC721A(), from, tokenId, _data) */\n      mload(0x40)\n      dup6\n      0xffffffff\n      and\n      0xe0\n      shl\n      dup2\n      mstore\n      0x04\n      add\n      tag_302\n      swap5\n      swap4\n      swap3\n      swap2\n      swap1\n      tag_303\n      jump\t// in\n    tag_302:\n      0x20\n      mload(0x40)\n      dup1\n      dup4\n      sub\n      dup2\n      0x00\n      dup8\n      dup1\n      extcodesize\n      iszero\n      dup1\n      iszero\n      tag_304\n      jumpi\n      0x00\n      dup1\n      revert\n    tag_304:\n      pop\n      gas\n      call\n      swap3\n      pop\n      pop\n      pop\n      dup1\n      iszero\n      tag_305\n      jumpi\n      pop\n      mload(0x40)\n      returndatasize\n      not(0x1f)\n      0x1f\n      dup3\n      add\n      and\n      dup3\n      add\n      dup1\n      0x40\n      mstore\n      pop\n      dup2\n      add\n      swap1\n      tag_306\n      swap2\n      swap1\n      tag_307\n      jump\t// in\n    tag_306:\n      0x01\n    tag_305:\n        /* \"contracts/ERC721A.sol\":26133:26650  try ERC721A__IERC721Receiver(to).onERC721Received(_msgSenderERC721A(), from, tokenId, _data) returns (... */\n      tag_308\n      jumpi\n      returndatasize\n      dup1\n      0x00\n      dup2\n      eq\n      tag_313\n      jumpi\n      mload(0x40)\n      swap2\n      pop\n      and(add(returndatasize, 0x3f), not(0x1f))\n      dup3\n      add\n      0x40\n      mstore\n      returndatasize\n      dup3\n      mstore\n      returndatasize\n      0x00\n      0x20\n      dup5\n      add\n      returndatacopy\n      jump(tag_312)\n    tag_313:\n      0x60\n      swap2\n      pop\n    tag_312:\n      pop\n        /* \"contracts/ERC721A.sol\":26432:26433  0 */\n      0x00\n        /* \"contracts/ERC721A.sol\":26415:26421  reason */\n      dup2\n        /* \"contracts/ERC721A.sol\":26415:26428  reason.length */\n      mload\n        /* \"contracts/ERC721A.sol\":26415:26433  reason.length == 0 */\n      eq\n        /* \"contracts/ERC721A.sol\":26411:26640  if (reason.length == 0) {... */\n      iszero\n      tag_314\n      jumpi\n        /* \"contracts/ERC721A.sol\":26460:26500  TransferToNonERC721ReceiverImplementer() */\n      mload(0x40)\n      0xd1a57ed600000000000000000000000000000000000000000000000000000000\n      dup2\n      mstore\n      0x04\n      add\n      mload(0x40)\n      dup1\n      swap2\n      sub\n      swap1\n      revert\n        /* \"contracts/ERC721A.sol\":26411:26640  if (reason.length == 0) {... */\n    tag_314:\n        /* \"contracts/ERC721A.sol\":26600:26606  reason */\n      dup1\n        /* \"contracts/ERC721A.sol\":26594:26607  mload(reason) */\n      mload\n        /* \"contracts/ERC721A.sol\":26585:26591  reason */\n      dup2\n        /* \"contracts/ERC721A.sol\":26581:26583  32 */\n      0x20\n        /* \"contracts/ERC721A.sol\":26577:26592  add(32, reason) */\n      add\n        /* \"contracts/ERC721A.sol\":26570:26608  revert(add(32, reason), mload(reason)) */\n      revert\n        /* \"contracts/ERC721A.sol\":26133:26650  try ERC721A__IERC721Receiver(to).onERC721Received(_msgSenderERC721A(), from, tokenId, _data) returns (... */\n    tag_308:\n        /* \"contracts/ERC721A.sol\":26303:26357  ERC721A__IERC721Receiver(to).onERC721Received.selector */\n      shl(0xe0, 0x150b7a02)\n        /* \"contracts/ERC721A.sol\":26293:26357  retval == ERC721A__IERC721Receiver(to).onERC721Received.selector */\n      not(0xffffffffffffffffffffffffffffffffffffffffffffffffffffffff)\n      and\n        /* \"contracts/ERC721A.sol\":26293:26299  retval */\n      dup2\n        /* \"contracts/ERC721A.sol\":26293:26357  retval == ERC721A__IERC721Receiver(to).onERC721Received.selector */\n      not(0xffffffffffffffffffffffffffffffffffffffffffffffffffffffff)\n      and\n      eq\n        /* \"contracts/ERC721A.sol\":26286:26357  return retval == ERC721A__IERC721Receiver(to).onERC721Received.selector */\n      swap2\n      pop\n      pop\n        /* \"contracts/ERC721A.sol\":25959:26656  function _checkContractOnERC721Received(... */\n      swap5\n      swap4\n      pop\n      pop\n      pop\n      pop\n      jump\t// out\n        /* \"contracts/MudAi.sol\":928:1032  function _baseURI() internal view override returns (string memory) {... */\n    tag_242:\n        /* \"contracts/MudAi.sol\":980:993  string memory */\n      0x60\n        /* \"contracts/MudAi.sol\":1012:1025  _baseTokenURI */\n      0x09\n        /* \"contracts/MudAi.sol\":1005:1025  return _baseTokenURI */\n      dup1\n      sload\n      tag_318\n      swap1\n      tag_132\n      jump\t// in\n    tag_318:\n      dup1\n      0x1f\n      add\n      0x20\n      dup1\n      swap2\n      div\n      mul\n      0x20\n      add\n      mload(0x40)\n      swap1\n      dup2\n      add\n      0x40\n      mstore\n      dup1\n      swap3\n      swap2\n      swap1\n      dup2\n      dup2\n      mstore\n      0x20\n      add\n      dup3\n      dup1\n      sload\n      tag_319\n      swap1\n      tag_132\n      jump\t// in\n    tag_319:\n      dup1\n      iszero\n      tag_320\n      jumpi\n      dup1\n      0x1f\n      lt\n      tag_321\n      jumpi\n      0x0100\n      dup1\n      dup4\n      sload\n      div\n      mul\n      dup4\n      mstore\n      swap2\n      0x20\n      add\n      swap2\n      jump(tag_320)\n    tag_321:\n      dup3\n      add\n      swap2\n      swap1\n      0x00\n      mstore\n      keccak256(0x00, 0x20)\n      swap1\n    tag_322:\n      dup2\n      sload\n      dup2\n      mstore\n      swap1\n      0x01\n      add\n      swap1\n      0x20\n      add\n      dup1\n      dup4\n      gt\n      tag_322\n      jumpi\n      dup3\n      swap1\n      sub\n      0x1f\n      and\n      dup3\n      add\n      swap2\n    tag_320:\n      pop\n      pop\n      pop\n      pop\n      pop\n      swap1\n      pop\n        /* \"contracts/MudAi.sol\":928:1032  function _baseURI() internal view override returns (string memory) {... */\n      swap1\n      jump\t// out\n        /* \"contracts/ERC721A.sol\":39648:41356  function _toString(uint256 value) internal pure virtual returns (string memory str) {... */\n    tag_246:\n        /* \"contracts/ERC721A.sol\":39713:39730  string memory str */\n      0x60\n        /* \"contracts/ERC721A.sol\":40141:40145  0xa0 */\n      0xa0\n        /* \"contracts/ERC721A.sol\":40134:40138  0x40 */\n      0x40\n        /* \"contracts/ERC721A.sol\":40128:40139  mload(0x40) */\n      mload\n        /* \"contracts/ERC721A.sol\":40124:40146  add(mload(0x40), 0xa0) */\n      add\n        /* \"contracts/ERC721A.sol\":40231:40232  m */\n      dup1\n        /* \"contracts/ERC721A.sol\":40225:40229  0x40 */\n      0x40\n        /* \"contracts/ERC721A.sol\":40218:40233  mstore(0x40, m) */\n      mstore\n        /* \"contracts/ERC721A.sol\":40304:40308  0x20 */\n      0x20\n        /* \"contracts/ERC721A.sol\":40301:40302  m */\n      dup2\n        /* \"contracts/ERC721A.sol\":40297:40309  sub(m, 0x20) */\n      sub\n        /* \"contracts/ERC721A.sol\":40290:40309  str := sub(m, 0x20) */\n      swap2\n      pop\n        /* \"contracts/ERC721A.sol\":40384:40385  0 */\n      0x00\n        /* \"contracts/ERC721A.sol\":40379:40382  str */\n      dup3\n        /* \"contracts/ERC721A.sol\":40372:40386  mstore(str, 0) */\n      mstore\n        /* \"contracts/ERC721A.sol\":40485:40488  str */\n      dup2\n        /* \"contracts/ERC721A.sol\":40719:40724  value */\n      dup4\n        /* \"contracts/ERC721A.sol\":40701:41120  for { let temp := value } 1 {} {... */\n    tag_324:\n        /* \"contracts/ERC721A.sol\":40727:40728  1 */\n      0x01\n        /* \"contracts/ERC721A.sol\":40701:41120  for { let temp := value } 1 {} {... */\n      iszero\n      tag_326\n      jumpi\n        /* \"contracts/ERC721A.sol\":40766:40767  1 */\n      0x01\n        /* \"contracts/ERC721A.sol\":40761:40764  str */\n      dup5\n        /* \"contracts/ERC721A.sol\":40757:40768  sub(str, 1) */\n      sub\n        /* \"contracts/ERC721A.sol\":40750:40768  str := sub(str, 1) */\n      swap4\n      pop\n        /* \"contracts/ERC721A.sol\":40934:40936  10 */\n      0x0a\n        /* \"contracts/ERC721A.sol\":40928:40932  temp */\n      dup2\n        /* \"contracts/ERC721A.sol\":40924:40937  mod(temp, 10) */\n      mod\n        /* \"contracts/ERC721A.sol\":40920:40922  48 */\n      0x30\n        /* \"contracts/ERC721A.sol\":40916:40938  add(48, mod(temp, 10)) */\n      add\n        /* \"contracts/ERC721A.sol\":40911:40914  str */\n      dup5\n        /* \"contracts/ERC721A.sol\":40903:40939  mstore8(str, add(48, mod(temp, 10))) */\n      mstore8\n        /* \"contracts/ERC721A.sol\":41026:41028  10 */\n      0x0a\n        /* \"contracts/ERC721A.sol\":41020:41024  temp */\n      dup2\n        /* \"contracts/ERC721A.sol\":41016:41029  div(temp, 10) */\n      div\n        /* \"contracts/ERC721A.sol\":41008:41029  temp := div(temp, 10) */\n      swap1\n      pop\n        /* \"contracts/ERC721A.sol\":41091:41095  temp */\n      dup1\n        /* \"contracts/ERC721A.sol\":41081:41106  if iszero(temp) { break } */\n      tag_327\n      jumpi\n        /* \"contracts/ERC721A.sol\":41099:41104  break */\n      jump(tag_326)\n        /* \"contracts/ERC721A.sol\":41081:41106  if iszero(temp) { break } */\n    tag_327:\n        /* \"contracts/ERC721A.sol\":40701:41120  for { let temp := value } 1 {} {... */\n      jump(tag_324)\n    tag_326:\n        /* \"contracts/ERC721A.sol\":40705:40726  { let temp := value } */\n      pop\n        /* \"contracts/ERC721A.sol\":41157:41160  str */\n      dup3\n        /* \"contracts/ERC721A.sol\":41152:41155  end */\n      dup2\n        /* \"contracts/ERC721A.sol\":41148:41161  sub(end, str) */\n      sub\n        /* \"contracts/ERC721A.sol\":41270:41274  0x20 */\n      0x20\n        /* \"contracts/ERC721A.sol\":41265:41268  str */\n      dup5\n        /* \"contracts/ERC721A.sol\":41261:41275  sub(str, 0x20) */\n      sub\n        /* \"contracts/ERC721A.sol\":41254:41275  str := sub(str, 0x20) */\n      swap4\n      pop\n        /* \"contracts/ERC721A.sol\":41333:41339  length */\n      dup1\n        /* \"contracts/ERC721A.sol\":41328:41331  str */\n      dup5\n        /* \"contracts/ERC721A.sol\":41321:41340  mstore(str, length) */\n      mstore\n        /* \"contracts/ERC721A.sol\":39751:41350  {... */\n      pop\n      pop\n      pop\n        /* \"contracts/ERC721A.sol\":39648:41356  function _toString(uint256 value) internal pure virtual returns (string memory str) {... */\n      swap2\n      swap1\n      pop\n      jump\t// out\n        /* \"contracts/ERC721A.sol\":38486:38629  function _extraData(... */\n    tag_275:\n        /* \"contracts/ERC721A.sol\":38619:38625  uint24 */\n      0x00\n        /* \"contracts/ERC721A.sol\":38486:38629  function _extraData(... */\n      swap4\n      swap3\n      pop\n      pop\n      pop\n      jump\t// out\n        /* \"@openzeppelin/contracts/utils/Context.sol\":640:736  function _msgSender() internal view virtual returns (address) {... */\n    tag_280:\n        /* \"@openzeppelin/contracts/utils/Context.sol\":693:700  address */\n      0x00\n        /* \"@openzeppelin/contracts/utils/Context.sol\":719:729  msg.sender */\n      caller\n        /* \"@openzeppelin/contracts/utils/Context.sol\":712:729  return msg.sender */\n      swap1\n      pop\n        /* \"@openzeppelin/contracts/utils/Context.sol\":640:736  function _msgSender() internal view virtual returns (address) {... */\n      swap1\n      jump\t// out\n        /* \"contracts/ERC721A.sol\":14848:15166  function _nextInitializedFlag(uint256 quantity) private pure returns (uint256 result) {... */\n    tag_293:\n        /* \"contracts/ERC721A.sol\":14918:14932  uint256 result */\n      0x00\n        /* \"contracts/ERC721A.sol\":15147:15148  1 */\n      0x01\n        /* \"contracts/ERC721A.sol\":15137:15145  quantity */\n      dup3\n        /* \"contracts/ERC721A.sol\":15134:15149  eq(quantity, 1) */\n      eq\n        /* \"contracts/ERC721A.sol\":15108:15132  _BITPOS_NEXT_INITIALIZED */\n      0xe1\n        /* \"contracts/ERC721A.sol\":15104:15150  shl(_BITPOS_NEXT_INITIALIZED, eq(quantity, 1)) */\n      shl\n        /* \"contracts/ERC721A.sol\":15094:15150  result := shl(_BITPOS_NEXT_INITIALIZED, eq(quantity, 1)) */\n      swap1\n      pop\n        /* \"contracts/ERC721A.sol\":14848:15166  function _nextInitializedFlag(uint256 quantity) private pure returns (uint256 result) {... */\n      swap2\n      swap1\n      pop\n      jump\t// out\n    tag_211:\n      dup3\n      dup1\n      sload\n      tag_331\n      swap1\n      tag_132\n      jump\t// in\n    tag_331:\n      swap1\n      0x00\n      mstore\n      keccak256(0x00, 0x20)\n      swap1\n      0x1f\n      add\n      0x20\n      swap1\n      div\n      dup2\n      add\n      swap3\n      dup3\n      tag_333\n      jumpi\n      0x00\n      dup6\n      sstore\n      jump(tag_332)\n    tag_333:\n      dup3\n      0x1f\n      lt\n      tag_334\n      jumpi\n      dup1\n      calldataload\n      not(0xff)\n      and\n      dup4\n      dup1\n      add\n      or\n      dup6\n      sstore\n      jump(tag_332)\n    tag_334:\n      dup3\n      dup1\n      add\n      0x01\n      add\n      dup6\n      sstore\n      dup3\n      iszero\n      tag_332\n      jumpi\n      swap2\n      dup3\n      add\n    tag_335:\n      dup3\n      dup2\n      gt\n      iszero\n      tag_336\n      jumpi\n      dup3\n      calldataload\n      dup3\n      sstore\n      swap2\n      0x20\n      add\n      swap2\n      swap1\n      0x01\n      add\n      swap1\n      jump(tag_335)\n    tag_336:\n    tag_332:\n      pop\n      swap1\n      pop\n      tag_337\n      swap2\n      swap1\n      tag_338\n      jump\t// in\n    tag_337:\n      pop\n      swap1\n      jump\t// out\n    tag_338:\n    tag_339:\n      dup1\n      dup3\n      gt\n      iszero\n      tag_340\n      jumpi\n      0x00\n      dup2\n      0x00\n      swap1\n      sstore\n      pop\n      0x01\n      add\n      jump(tag_339)\n    tag_340:\n      pop\n      swap1\n      jump\t// out\n        /* \"#utility.yul\":7:417   */\n    tag_342:\n        /* \"#utility.yul\":84:89   */\n      0x00\n        /* \"#utility.yul\":109:174   */\n      tag_344\n        /* \"#utility.yul\":125:173   */\n      tag_345\n        /* \"#utility.yul\":166:172   */\n      dup5\n        /* \"#utility.yul\":125:173   */\n      tag_346\n      jump\t// in\n    tag_345:\n        /* \"#utility.yul\":109:174   */\n      tag_347\n      jump\t// in\n    tag_344:\n        /* \"#utility.yul\":100:174   */\n      swap1\n      pop\n        /* \"#utility.yul\":197:203   */\n      dup3\n        /* \"#utility.yul\":190:195   */\n      dup2\n        /* \"#utility.yul\":183:204   */\n      mstore\n        /* \"#utility.yul\":235:239   */\n      0x20\n        /* \"#utility.yul\":228:233   */\n      dup2\n        /* \"#utility.yul\":224:240   */\n      add\n        /* \"#utility.yul\":273:276   */\n      dup5\n        /* \"#utility.yul\":264:270   */\n      dup5\n        /* \"#utility.yul\":259:262   */\n      dup5\n        /* \"#utility.yul\":255:271   */\n      add\n        /* \"#utility.yul\":252:277   */\n      gt\n        /* \"#utility.yul\":249:361   */\n      iszero\n      tag_348\n      jumpi\n        /* \"#utility.yul\":280:359   */\n      tag_349\n      tag_350\n      jump\t// in\n    tag_349:\n        /* \"#utility.yul\":249:361   */\n    tag_348:\n        /* \"#utility.yul\":370:411   */\n      tag_351\n        /* \"#utility.yul\":404:410   */\n      dup5\n        /* \"#utility.yul\":399:402   */\n      dup3\n        /* \"#utility.yul\":394:397   */\n      dup6\n        /* \"#utility.yul\":370:411   */\n      tag_352\n      jump\t// in\n    tag_351:\n        /* \"#utility.yul\":90:417   */\n      pop\n        /* \"#utility.yul\":7:417   */\n      swap4\n      swap3\n      pop\n      pop\n      pop\n      jump\t// out\n        /* \"#utility.yul\":423:562   */\n    tag_353:\n        /* \"#utility.yul\":469:474   */\n      0x00\n        /* \"#utility.yul\":507:513   */\n      dup2\n        /* \"#utility.yul\":494:514   */\n      calldataload\n        /* \"#utility.yul\":485:514   */\n      swap1\n      pop\n        /* \"#utility.yul\":523:556   */\n      tag_355\n        /* \"#utility.yul\":550:555   */\n      dup2\n        /* \"#utility.yul\":523:556   */\n      tag_356\n      jump\t// in\n    tag_355:\n        /* \"#utility.yul\":423:562   */\n      swap3\n      swap2\n      pop\n      pop\n      jump\t// out\n        /* \"#utility.yul\":568:701   */\n    tag_357:\n        /* \"#utility.yul\":611:616   */\n      0x00\n        /* \"#utility.yul\":649:655   */\n      dup2\n        /* \"#utility.yul\":636:656   */\n      calldataload\n        /* \"#utility.yul\":627:656   */\n      swap1\n      pop\n        /* \"#utility.yul\":665:695   */\n      tag_359\n        /* \"#utility.yul\":689:694   */\n      dup2\n        /* \"#utility.yul\":665:695   */\n      tag_360\n      jump\t// in\n    tag_359:\n        /* \"#utility.yul\":568:701   */\n      swap3\n      swap2\n      pop\n      pop\n      jump\t// out\n        /* \"#utility.yul\":707:844   */\n    tag_361:\n        /* \"#utility.yul\":752:757   */\n      0x00\n        /* \"#utility.yul\":790:796   */\n      dup2\n        /* \"#utility.yul\":777:797   */\n      calldataload\n        /* \"#utility.yul\":768:797   */\n      swap1\n      pop\n        /* \"#utility.yul\":806:838   */\n      tag_363\n        /* \"#utility.yul\":832:837   */\n      dup2\n        /* \"#utility.yul\":806:838   */\n      tag_364\n      jump\t// in\n    tag_363:\n        /* \"#utility.yul\":707:844   */\n      swap3\n      swap2\n      pop\n      pop\n      jump\t// out\n        /* \"#utility.yul\":850:991   */\n    tag_365:\n        /* \"#utility.yul\":906:911   */\n      0x00\n        /* \"#utility.yul\":937:943   */\n      dup2\n        /* \"#utility.yul\":931:944   */\n      mload\n        /* \"#utility.yul\":922:944   */\n      swap1\n      pop\n        /* \"#utility.yul\":953:985   */\n      tag_367\n        /* \"#utility.yul\":979:984   */\n      dup2\n        /* \"#utility.yul\":953:985   */\n      tag_364\n      jump\t// in\n    tag_367:\n        /* \"#utility.yul\":850:991   */\n      swap3\n      swap2\n      pop\n      pop\n      jump\t// out\n        /* \"#utility.yul\":1010:1348   */\n    tag_368:\n        /* \"#utility.yul\":1065:1070   */\n      0x00\n        /* \"#utility.yul\":1114:1117   */\n      dup3\n        /* \"#utility.yul\":1107:1111   */\n      0x1f\n        /* \"#utility.yul\":1099:1105   */\n      dup4\n        /* \"#utility.yul\":1095:1112   */\n      add\n        /* \"#utility.yul\":1091:1118   */\n      slt\n        /* \"#utility.yul\":1081:1203   */\n      tag_370\n      jumpi\n        /* \"#utility.yul\":1122:1201   */\n      tag_371\n      tag_372\n      jump\t// in\n    tag_371:\n        /* \"#utility.yul\":1081:1203   */\n    tag_370:\n        /* \"#utility.yul\":1239:1245   */\n      dup2\n        /* \"#utility.yul\":1226:1246   */\n      calldataload\n        /* \"#utility.yul\":1264:1342   */\n      tag_373\n        /* \"#utility.yul\":1338:1341   */\n      dup5\n        /* \"#utility.yul\":1330:1336   */\n      dup3\n        /* \"#utility.yul\":1323:1327   */\n      0x20\n        /* \"#utility.yul\":1315:1321   */\n      dup7\n        /* \"#utility.yul\":1311:1328   */\n      add\n        /* \"#utility.yul\":1264:1342   */\n      tag_342\n      jump\t// in\n    tag_373:\n        /* \"#utility.yul\":1255:1342   */\n      swap2\n      pop\n        /* \"#utility.yul\":1071:1348   */\n      pop\n        /* \"#utility.yul\":1010:1348   */\n      swap3\n      swap2\n      pop\n      pop\n      jump\t// out\n        /* \"#utility.yul\":1368:1921   */\n    tag_374:\n        /* \"#utility.yul\":1426:1434   */\n      0x00\n        /* \"#utility.yul\":1436:1442   */\n      dup1\n        /* \"#utility.yul\":1486:1489   */\n      dup4\n        /* \"#utility.yul\":1479:1483   */\n      0x1f\n        /* \"#utility.yul\":1471:1477   */\n      dup5\n        /* \"#utility.yul\":1467:1484   */\n      add\n        /* \"#utility.yul\":1463:1490   */\n      slt\n        /* \"#utility.yul\":1453:1575   */\n      tag_376\n      jumpi\n        /* \"#utility.yul\":1494:1573   */\n      tag_377\n      tag_372\n      jump\t// in\n    tag_377:\n        /* \"#utility.yul\":1453:1575   */\n    tag_376:\n        /* \"#utility.yul\":1607:1613   */\n      dup3\n        /* \"#utility.yul\":1594:1614   */\n      calldataload\n        /* \"#utility.yul\":1584:1614   */\n      swap1\n      pop\n        /* \"#utility.yul\":1637:1655   */\n      0xffffffffffffffff\n        /* \"#utility.yul\":1629:1635   */\n      dup2\n        /* \"#utility.yul\":1626:1656   */\n      gt\n        /* \"#utility.yul\":1623:1740   */\n      iszero\n      tag_378\n      jumpi\n        /* \"#utility.yul\":1659:1738   */\n      tag_379\n      tag_380\n      jump\t// in\n    tag_379:\n        /* \"#utility.yul\":1623:1740   */\n    tag_378:\n        /* \"#utility.yul\":1773:1777   */\n      0x20\n        /* \"#utility.yul\":1765:1771   */\n      dup4\n        /* \"#utility.yul\":1761:1778   */\n      add\n        /* \"#utility.yul\":1749:1778   */\n      swap2\n      pop\n        /* \"#utility.yul\":1827:1830   */\n      dup4\n        /* \"#utility.yul\":1819:1823   */\n      0x01\n        /* \"#utility.yul\":1811:1817   */\n      dup3\n        /* \"#utility.yul\":1807:1824   */\n      mul\n        /* \"#utility.yul\":1797:1805   */\n      dup4\n        /* \"#utility.yul\":1793:1825   */\n      add\n        /* \"#utility.yul\":1790:1831   */\n      gt\n        /* \"#utility.yul\":1787:1915   */\n      iszero\n      tag_381\n      jumpi\n        /* \"#utility.yul\":1834:1913   */\n      tag_382\n      tag_383\n      jump\t// in\n    tag_382:\n        /* \"#utility.yul\":1787:1915   */\n    tag_381:\n        /* \"#utility.yul\":1368:1921   */\n      swap3\n      pop\n      swap3\n      swap1\n      pop\n      jump\t// out\n        /* \"#utility.yul\":1927:2066   */\n    tag_384:\n        /* \"#utility.yul\":1973:1978   */\n      0x00\n        /* \"#utility.yul\":2011:2017   */\n      dup2\n        /* \"#utility.yul\":1998:2018   */\n      calldataload\n        /* \"#utility.yul\":1989:2018   */\n      swap1\n      pop\n        /* \"#utility.yul\":2027:2060   */\n      tag_386\n        /* \"#utility.yul\":2054:2059   */\n      dup2\n        /* \"#utility.yul\":2027:2060   */\n      tag_387\n      jump\t// in\n    tag_386:\n        /* \"#utility.yul\":1927:2066   */\n      swap3\n      swap2\n      pop\n      pop\n      jump\t// out\n        /* \"#utility.yul\":2072:2401   */\n    tag_85:\n        /* \"#utility.yul\":2131:2137   */\n      0x00\n        /* \"#utility.yul\":2180:2182   */\n      0x20\n        /* \"#utility.yul\":2168:2177   */\n      dup3\n        /* \"#utility.yul\":2159:2166   */\n      dup5\n        /* \"#utility.yul\":2155:2178   */\n      sub\n        /* \"#utility.yul\":2151:2183   */\n      slt\n        /* \"#utility.yul\":2148:2267   */\n      iszero\n      tag_389\n      jumpi\n        /* \"#utility.yul\":2186:2265   */\n      tag_390\n      tag_391\n      jump\t// in\n    tag_390:\n        /* \"#utility.yul\":2148:2267   */\n    tag_389:\n        /* \"#utility.yul\":2306:2307   */\n      0x00\n        /* \"#utility.yul\":2331:2384   */\n      tag_392\n        /* \"#utility.yul\":2376:2383   */\n      dup5\n        /* \"#utility.yul\":2367:2373   */\n      dup3\n        /* \"#utility.yul\":2356:2365   */\n      dup6\n        /* \"#utility.yul\":2352:2374   */\n      add\n        /* \"#utility.yul\":2331:2384   */\n      tag_353\n      jump\t// in\n    tag_392:\n        /* \"#utility.yul\":2321:2384   */\n      swap2\n      pop\n        /* \"#utility.yul\":2277:2394   */\n      pop\n        /* \"#utility.yul\":2072:2401   */\n      swap3\n      swap2\n      pop\n      pop\n      jump\t// out\n        /* \"#utility.yul\":2407:2881   */\n    tag_120:\n        /* \"#utility.yul\":2475:2481   */\n      0x00\n        /* \"#utility.yul\":2483:2489   */\n      dup1\n        /* \"#utility.yul\":2532:2534   */\n      0x40\n        /* \"#utility.yul\":2520:2529   */\n      dup4\n        /* \"#utility.yul\":2511:2518   */\n      dup6\n        /* \"#utility.yul\":2507:2530   */\n      sub\n        /* \"#utility.yul\":2503:2535   */\n      slt\n        /* \"#utility.yul\":2500:2619   */\n      iszero\n      tag_394\n      jumpi\n        /* \"#utility.yul\":2538:2617   */\n      tag_395\n      tag_391\n      jump\t// in\n    tag_395:\n        /* \"#utility.yul\":2500:2619   */\n    tag_394:\n        /* \"#utility.yul\":2658:2659   */\n      0x00\n        /* \"#utility.yul\":2683:2736   */\n      tag_396\n        /* \"#utility.yul\":2728:2735   */\n      dup6\n        /* \"#utility.yul\":2719:2725   */\n      dup3\n        /* \"#utility.yul\":2708:2717   */\n      dup7\n        /* \"#utility.yul\":2704:2726   */\n      add\n        /* \"#utility.yul\":2683:2736   */\n      tag_353\n      jump\t// in\n    tag_396:\n        /* \"#utility.yul\":2673:2736   */\n      swap3\n      pop\n        /* \"#utility.yul\":2629:2746   */\n      pop\n        /* \"#utility.yul\":2785:2787   */\n      0x20\n        /* \"#utility.yul\":2811:2864   */\n      tag_397\n        /* \"#utility.yul\":2856:2863   */\n      dup6\n        /* \"#utility.yul\":2847:2853   */\n      dup3\n        /* \"#utility.yul\":2836:2845   */\n      dup7\n        /* \"#utility.yul\":2832:2854   */\n      add\n        /* \"#utility.yul\":2811:2864   */\n      tag_353\n      jump\t// in\n    tag_397:\n        /* \"#utility.yul\":2801:2864   */\n      swap2\n      pop\n        /* \"#utility.yul\":2756:2874   */\n      pop\n        /* \"#utility.yul\":2407:2881   */\n      swap3\n      pop\n      swap3\n      swap1\n      pop\n      jump\t// out\n        /* \"#utility.yul\":2887:3506   */\n    tag_57:\n        /* \"#utility.yul\":2964:2970   */\n      0x00\n        /* \"#utility.yul\":2972:2978   */\n      dup1\n        /* \"#utility.yul\":2980:2986   */\n      0x00\n        /* \"#utility.yul\":3029:3031   */\n      0x60\n        /* \"#utility.yul\":3017:3026   */\n      dup5\n        /* \"#utility.yul\":3008:3015   */\n      dup7\n        /* \"#utility.yul\":3004:3027   */\n      sub\n        /* \"#utility.yul\":3000:3032   */\n      slt\n        /* \"#utility.yul\":2997:3116   */\n      iszero\n      tag_399\n      jumpi\n        /* \"#utility.yul\":3035:3114   */\n      tag_400\n      tag_391\n      jump\t// in\n    tag_400:\n        /* \"#utility.yul\":2997:3116   */\n    tag_399:\n        /* \"#utility.yul\":3155:3156   */\n      0x00\n        /* \"#utility.yul\":3180:3233   */\n      tag_401\n        /* \"#utility.yul\":3225:3232   */\n      dup7\n        /* \"#utility.yul\":3216:3222   */\n      dup3\n        /* \"#utility.yul\":3205:3214   */\n      dup8\n        /* \"#utility.yul\":3201:3223   */\n      add\n        /* \"#utility.yul\":3180:3233   */\n      tag_353\n      jump\t// in\n    tag_401:\n        /* \"#utility.yul\":3170:3233   */\n      swap4\n      pop\n        /* \"#utility.yul\":3126:3243   */\n      pop\n        /* \"#utility.yul\":3282:3284   */\n      0x20\n        /* \"#utility.yul\":3308:3361   */\n      tag_402\n        /* \"#utility.yul\":3353:3360   */\n      dup7\n        /* \"#utility.yul\":3344:3350   */\n      dup3\n        /* \"#utility.yul\":3333:3342   */\n      dup8\n        /* \"#utility.yul\":3329:3351   */\n      add\n        /* \"#utility.yul\":3308:3361   */\n      tag_353\n      jump\t// in\n    tag_402:\n        /* \"#utility.yul\":3298:3361   */\n      swap3\n      pop\n        /* \"#utility.yul\":3253:3371   */\n      pop\n        /* \"#utility.yul\":3410:3412   */\n      0x40\n        /* \"#utility.yul\":3436:3489   */\n      tag_403\n        /* \"#utility.yul\":3481:3488   */\n      dup7\n        /* \"#utility.yul\":3472:3478   */\n      dup3\n        /* \"#utility.yul\":3461:3470   */\n      dup8\n        /* \"#utility.yul\":3457:3479   */\n      add\n        /* \"#utility.yul\":3436:3489   */\n      tag_384\n      jump\t// in\n    tag_403:\n        /* \"#utility.yul\":3426:3489   */\n      swap2\n      pop\n        /* \"#utility.yul\":3381:3499   */\n      pop\n        /* \"#utility.yul\":2887:3506   */\n      swap3\n      pop\n      swap3\n      pop\n      swap3\n      jump\t// out\n        /* \"#utility.yul\":3512:4455   */\n    tag_110:\n        /* \"#utility.yul\":3607:3613   */\n      0x00\n        /* \"#utility.yul\":3615:3621   */\n      dup1\n        /* \"#utility.yul\":3623:3629   */\n      0x00\n        /* \"#utility.yul\":3631:3637   */\n      dup1\n        /* \"#utility.yul\":3680:3683   */\n      0x80\n        /* \"#utility.yul\":3668:3677   */\n      dup6\n        /* \"#utility.yul\":3659:3666   */\n      dup8\n        /* \"#utility.yul\":3655:3678   */\n      sub\n        /* \"#utility.yul\":3651:3684   */\n      slt\n        /* \"#utility.yul\":3648:3768   */\n      iszero\n      tag_405\n      jumpi\n        /* \"#utility.yul\":3687:3766   */\n      tag_406\n      tag_391\n      jump\t// in\n    tag_406:\n        /* \"#utility.yul\":3648:3768   */\n    tag_405:\n        /* \"#utility.yul\":3807:3808   */\n      0x00\n        /* \"#utility.yul\":3832:3885   */\n      tag_407\n        /* \"#utility.yul\":3877:3884   */\n      dup8\n        /* \"#utility.yul\":3868:3874   */\n      dup3\n        /* \"#utility.yul\":3857:3866   */\n      dup9\n        /* \"#utility.yul\":3853:3875   */\n      add\n        /* \"#utility.yul\":3832:3885   */\n      tag_353\n      jump\t// in\n    tag_407:\n        /* \"#utility.yul\":3822:3885   */\n      swap5\n      pop\n        /* \"#utility.yul\":3778:3895   */\n      pop\n        /* \"#utility.yul\":3934:3936   */\n      0x20\n        /* \"#utility.yul\":3960:4013   */\n      tag_408\n        /* \"#utility.yul\":4005:4012   */\n      dup8\n        /* \"#utility.yul\":3996:4002   */\n      dup3\n        /* \"#utility.yul\":3985:3994   */\n      dup9\n        /* \"#utility.yul\":3981:4003   */\n      add\n        /* \"#utility.yul\":3960:4013   */\n      tag_353\n      jump\t// in\n    tag_408:\n        /* \"#utility.yul\":3950:4013   */\n      swap4\n      pop\n        /* \"#utility.yul\":3905:4023   */\n      pop\n        /* \"#utility.yul\":4062:4064   */\n      0x40\n        /* \"#utility.yul\":4088:4141   */\n      tag_409\n        /* \"#utility.yul\":4133:4140   */\n      dup8\n        /* \"#utility.yul\":4124:4130   */\n      dup3\n        /* \"#utility.yul\":4113:4122   */\n      dup9\n        /* \"#utility.yul\":4109:4131   */\n      add\n        /* \"#utility.yul\":4088:4141   */\n      tag_384\n      jump\t// in\n    tag_409:\n        /* \"#utility.yul\":4078:4141   */\n      swap3\n      pop\n        /* \"#utility.yul\":4033:4151   */\n      pop\n        /* \"#utility.yul\":4218:4220   */\n      0x60\n        /* \"#utility.yul\":4207:4216   */\n      dup6\n        /* \"#utility.yul\":4203:4221   */\n      add\n        /* \"#utility.yul\":4190:4222   */\n      calldataload\n        /* \"#utility.yul\":4249:4267   */\n      0xffffffffffffffff\n        /* \"#utility.yul\":4241:4247   */\n      dup2\n        /* \"#utility.yul\":4238:4268   */\n      gt\n        /* \"#utility.yul\":4235:4352   */\n      iszero\n      tag_410\n      jumpi\n        /* \"#utility.yul\":4271:4350   */\n      tag_411\n      tag_412\n      jump\t// in\n    tag_411:\n        /* \"#utility.yul\":4235:4352   */\n    tag_410:\n        /* \"#utility.yul\":4376:4438   */\n      tag_413\n        /* \"#utility.yul\":4430:4437   */\n      dup8\n        /* \"#utility.yul\":4421:4427   */\n      dup3\n        /* \"#utility.yul\":4410:4419   */\n      dup9\n        /* \"#utility.yul\":4406:4428   */\n      add\n        /* \"#utility.yul\":4376:4438   */\n      tag_368\n      jump\t// in\n    tag_413:\n        /* \"#utility.yul\":4366:4438   */\n      swap2\n      pop\n        /* \"#utility.yul\":4161:4448   */\n      pop\n        /* \"#utility.yul\":3512:4455   */\n      swap3\n      swap6\n      swap2\n      swap5\n      pop\n      swap3\n      pop\n      jump\t// out\n        /* \"#utility.yul\":4461:4929   */\n    tag_106:\n        /* \"#utility.yul\":4526:4532   */\n      0x00\n        /* \"#utility.yul\":4534:4540   */\n      dup1\n        /* \"#utility.yul\":4583:4585   */\n      0x40\n        /* \"#utility.yul\":4571:4580   */\n      dup4\n        /* \"#utility.yul\":4562:4569   */\n      dup6\n        /* \"#utility.yul\":4558:4581   */\n      sub\n        /* \"#utility.yul\":4554:4586   */\n      slt\n        /* \"#utility.yul\":4551:4670   */\n      iszero\n      tag_415\n      jumpi\n        /* \"#utility.yul\":4589:4668   */\n      tag_416\n      tag_391\n      jump\t// in\n    tag_416:\n        /* \"#utility.yul\":4551:4670   */\n    tag_415:\n        /* \"#utility.yul\":4709:4710   */\n      0x00\n        /* \"#utility.yul\":4734:4787   */\n      tag_417\n        /* \"#utility.yul\":4779:4786   */\n      dup6\n        /* \"#utility.yul\":4770:4776   */\n      dup3\n        /* \"#utility.yul\":4759:4768   */\n      dup7\n        /* \"#utility.yul\":4755:4777   */\n      add\n        /* \"#utility.yul\":4734:4787   */\n      tag_353\n      jump\t// in\n    tag_417:\n        /* \"#utility.yul\":4724:4787   */\n      swap3\n      pop\n        /* \"#utility.yul\":4680:4797   */\n      pop\n        /* \"#utility.yul\":4836:4838   */\n      0x20\n        /* \"#utility.yul\":4862:4912   */\n      tag_418\n        /* \"#utility.yul\":4904:4911   */\n      dup6\n        /* \"#utility.yul\":4895:4901   */\n      dup3\n        /* \"#utility.yul\":4884:4893   */\n      dup7\n        /* \"#utility.yul\":4880:4902   */\n      add\n        /* \"#utility.yul\":4862:4912   */\n      tag_357\n      jump\t// in\n    tag_418:\n        /* \"#utility.yul\":4852:4912   */\n      swap2\n      pop\n        /* \"#utility.yul\":4807:4922   */\n      pop\n        /* \"#utility.yul\":4461:4929   */\n      swap3\n      pop\n      swap3\n      swap1\n      pop\n      jump\t// out\n        /* \"#utility.yul\":4935:5409   */\n    tag_48:\n        /* \"#utility.yul\":5003:5009   */\n      0x00\n        /* \"#utility.yul\":5011:5017   */\n      dup1\n        /* \"#utility.yul\":5060:5062   */\n      0x40\n        /* \"#utility.yul\":5048:5057   */\n      dup4\n        /* \"#utility.yul\":5039:5046   */\n      dup6\n        /* \"#utility.yul\":5035:5058   */\n      sub\n        /* \"#utility.yul\":5031:5063   */\n      slt\n        /* \"#utility.yul\":5028:5147   */\n      iszero\n      tag_420\n      jumpi\n        /* \"#utility.yul\":5066:5145   */\n      tag_421\n      tag_391\n      jump\t// in\n    tag_421:\n        /* \"#utility.yul\":5028:5147   */\n    tag_420:\n        /* \"#utility.yul\":5186:5187   */\n      0x00\n        /* \"#utility.yul\":5211:5264   */\n      tag_422\n        /* \"#utility.yul\":5256:5263   */\n      dup6\n        /* \"#utility.yul\":5247:5253   */\n      dup3\n        /* \"#utility.yul\":5236:5245   */\n      dup7\n        /* \"#utility.yul\":5232:5254   */\n      add\n        /* \"#utility.yul\":5211:5264   */\n      tag_353\n      jump\t// in\n    tag_422:\n        /* \"#utility.yul\":5201:5264   */\n      swap3\n      pop\n        /* \"#utility.yul\":5157:5274   */\n      pop\n        /* \"#utility.yul\":5313:5315   */\n      0x20\n        /* \"#utility.yul\":5339:5392   */\n      tag_423\n        /* \"#utility.yul\":5384:5391   */\n      dup6\n        /* \"#utility.yul\":5375:5381   */\n      dup3\n        /* \"#utility.yul\":5364:5373   */\n      dup7\n        /* \"#utility.yul\":5360:5382   */\n      add\n        /* \"#utility.yul\":5339:5392   */\n      tag_384\n      jump\t// in\n    tag_423:\n        /* \"#utility.yul\":5329:5392   */\n      swap2\n      pop\n        /* \"#utility.yul\":5284:5402   */\n      pop\n        /* \"#utility.yul\":4935:5409   */\n      swap3\n      pop\n      swap3\n      swap1\n      pop\n      jump\t// out\n        /* \"#utility.yul\":5415:5742   */\n    tag_30:\n        /* \"#utility.yul\":5473:5479   */\n      0x00\n        /* \"#utility.yul\":5522:5524   */\n      0x20\n        /* \"#utility.yul\":5510:5519   */\n      dup3\n        /* \"#utility.yul\":5501:5508   */\n      dup5\n        /* \"#utility.yul\":5497:5520   */\n      sub\n        /* \"#utility.yul\":5493:5525   */\n      slt\n        /* \"#utility.yul\":5490:5609   */\n      iszero\n      tag_425\n      jumpi\n        /* \"#utility.yul\":5528:5607   */\n      tag_426\n      tag_391\n      jump\t// in\n    tag_426:\n        /* \"#utility.yul\":5490:5609   */\n    tag_425:\n        /* \"#utility.yul\":5648:5649   */\n      0x00\n        /* \"#utility.yul\":5673:5725   */\n      tag_427\n        /* \"#utility.yul\":5717:5724   */\n      dup5\n        /* \"#utility.yul\":5708:5714   */\n      dup3\n        /* \"#utility.yul\":5697:5706   */\n      dup6\n        /* \"#utility.yul\":5693:5715   */\n      add\n        /* \"#utility.yul\":5673:5725   */\n      tag_361\n      jump\t// in\n    tag_427:\n        /* \"#utility.yul\":5663:5725   */\n      swap2\n      pop\n        /* \"#utility.yul\":5619:5735   */\n      pop\n        /* \"#utility.yul\":5415:5742   */\n      swap3\n      swap2\n      pop\n      pop\n      jump\t// out\n        /* \"#utility.yul\":5748:6097   */\n    tag_307:\n        /* \"#utility.yul\":5817:5823   */\n      0x00\n        /* \"#utility.yul\":5866:5868   */\n      0x20\n        /* \"#utility.yul\":5854:5863   */\n      dup3\n        /* \"#utility.yul\":5845:5852   */\n      dup5\n        /* \"#utility.yul\":5841:5864   */\n      sub\n        /* \"#utility.yul\":5837:5869   */\n      slt\n        /* \"#utility.yul\":5834:5953   */\n      iszero\n      tag_429\n      jumpi\n        /* \"#utility.yul\":5872:5951   */\n      tag_430\n      tag_391\n      jump\t// in\n    tag_430:\n        /* \"#utility.yul\":5834:5953   */\n    tag_429:\n        /* \"#utility.yul\":5992:5993   */\n      0x00\n        /* \"#utility.yul\":6017:6080   */\n      tag_431\n        /* \"#utility.yul\":6072:6079   */\n      dup5\n        /* \"#utility.yul\":6063:6069   */\n      dup3\n        /* \"#utility.yul\":6052:6061   */\n      dup6\n        /* \"#utility.yul\":6048:6070   */\n      add\n        /* \"#utility.yul\":6017:6080   */\n      tag_365\n      jump\t// in\n    tag_431:\n        /* \"#utility.yul\":6007:6080   */\n      swap2\n      pop\n        /* \"#utility.yul\":5963:6090   */\n      pop\n        /* \"#utility.yul\":5748:6097   */\n      swap3\n      swap2\n      pop\n      pop\n      jump\t// out\n        /* \"#utility.yul\":6103:6632   */\n    tag_75:\n        /* \"#utility.yul\":6174:6180   */\n      0x00\n        /* \"#utility.yul\":6182:6188   */\n      dup1\n        /* \"#utility.yul\":6231:6233   */\n      0x20\n        /* \"#utility.yul\":6219:6228   */\n      dup4\n        /* \"#utility.yul\":6210:6217   */\n      dup6\n        /* \"#utility.yul\":6206:6229   */\n      sub\n        /* \"#utility.yul\":6202:6234   */\n      slt\n        /* \"#utility.yul\":6199:6318   */\n      iszero\n      tag_433\n      jumpi\n        /* \"#utility.yul\":6237:6316   */\n      tag_434\n      tag_391\n      jump\t// in\n    tag_434:\n        /* \"#utility.yul\":6199:6318   */\n    tag_433:\n        /* \"#utility.yul\":6385:6386   */\n      0x00\n        /* \"#utility.yul\":6374:6383   */\n      dup4\n        /* \"#utility.yul\":6370:6387   */\n      add\n        /* \"#utility.yul\":6357:6388   */\n      calldataload\n        /* \"#utility.yul\":6415:6433   */\n      0xffffffffffffffff\n        /* \"#utility.yul\":6407:6413   */\n      dup2\n        /* \"#utility.yul\":6404:6434   */\n      gt\n        /* \"#utility.yul\":6401:6518   */\n      iszero\n      tag_435\n      jumpi\n        /* \"#utility.yul\":6437:6516   */\n      tag_436\n      tag_412\n      jump\t// in\n    tag_436:\n        /* \"#utility.yul\":6401:6518   */\n    tag_435:\n        /* \"#utility.yul\":6550:6615   */\n      tag_437\n        /* \"#utility.yul\":6607:6614   */\n      dup6\n        /* \"#utility.yul\":6598:6604   */\n      dup3\n        /* \"#utility.yul\":6587:6596   */\n      dup7\n        /* \"#utility.yul\":6583:6605   */\n      add\n        /* \"#utility.yul\":6550:6615   */\n      tag_374\n      jump\t// in\n    tag_437:\n        /* \"#utility.yul\":6532:6615   */\n      swap3\n      pop\n      swap3\n      pop\n        /* \"#utility.yul\":6328:6625   */\n      pop\n        /* \"#utility.yul\":6103:6632   */\n      swap3\n      pop\n      swap3\n      swap1\n      pop\n      jump\t// out\n        /* \"#utility.yul\":6638:6967   */\n    tag_42:\n        /* \"#utility.yul\":6697:6703   */\n      0x00\n        /* \"#utility.yul\":6746:6748   */\n      0x20\n        /* \"#utility.yul\":6734:6743   */\n      dup3\n        /* \"#utility.yul\":6725:6732   */\n      dup5\n        /* \"#utility.yul\":6721:6744   */\n      sub\n        /* \"#utility.yul\":6717:6749   */\n      slt\n        /* \"#utility.yul\":6714:6833   */\n      iszero\n      tag_439\n      jumpi\n        /* \"#utility.yul\":6752:6831   */\n      tag_440\n      tag_391\n      jump\t// in\n    tag_440:\n        /* \"#utility.yul\":6714:6833   */\n    tag_439:\n        /* \"#utility.yul\":6872:6873   */\n      0x00\n        /* \"#utility.yul\":6897:6950   */\n      tag_441\n        /* \"#utility.yul\":6942:6949   */\n      dup5\n        /* \"#utility.yul\":6933:6939   */\n      dup3\n        /* \"#utility.yul\":6922:6931   */\n      dup6\n        /* \"#utility.yul\":6918:6940   */\n      add\n        /* \"#utility.yul\":6897:6950   */\n      tag_384\n      jump\t// in\n    tag_441:\n        /* \"#utility.yul\":6887:6950   */\n      swap2\n      pop\n        /* \"#utility.yul\":6843:6960   */\n      pop\n        /* \"#utility.yul\":6638:6967   */\n      swap3\n      swap2\n      pop\n      pop\n      jump\t// out\n        /* \"#utility.yul\":6973:7091   */\n    tag_442:\n        /* \"#utility.yul\":7060:7084   */\n      tag_444\n        /* \"#utility.yul\":7078:7083   */\n      dup2\n        /* \"#utility.yul\":7060:7084   */\n      tag_445\n      jump\t// in\n    tag_444:\n        /* \"#utility.yul\":7055:7058   */\n      dup3\n        /* \"#utility.yul\":7048:7085   */\n      mstore\n        /* \"#utility.yul\":6973:7091   */\n      pop\n      pop\n      jump\t// out\n        /* \"#utility.yul\":7097:7206   */\n    tag_446:\n        /* \"#utility.yul\":7178:7199   */\n      tag_448\n        /* \"#utility.yul\":7193:7198   */\n      dup2\n        /* \"#utility.yul\":7178:7199   */\n      tag_449\n      jump\t// in\n    tag_448:\n        /* \"#utility.yul\":7173:7176   */\n      dup3\n        /* \"#utility.yul\":7166:7200   */\n      mstore\n        /* \"#utility.yul\":7097:7206   */\n      pop\n      pop\n      jump\t// out\n        /* \"#utility.yul\":7212:7572   */\n    tag_450:\n        /* \"#utility.yul\":7298:7301   */\n      0x00\n        /* \"#utility.yul\":7326:7364   */\n      tag_452\n        /* \"#utility.yul\":7358:7363   */\n      dup3\n        /* \"#utility.yul\":7326:7364   */\n      tag_453\n      jump\t// in\n    tag_452:\n        /* \"#utility.yul\":7380:7450   */\n      tag_454\n        /* \"#utility.yul\":7443:7449   */\n      dup2\n        /* \"#utility.yul\":7438:7441   */\n      dup6\n        /* \"#utility.yul\":7380:7450   */\n      tag_455\n      jump\t// in\n    tag_454:\n        /* \"#utility.yul\":7373:7450   */\n      swap4\n      pop\n        /* \"#utility.yul\":7459:7511   */\n      tag_456\n        /* \"#utility.yul\":7504:7510   */\n      dup2\n        /* \"#utility.yul\":7499:7502   */\n      dup6\n        /* \"#utility.yul\":7492:7496   */\n      0x20\n        /* \"#utility.yul\":7485:7490   */\n      dup7\n        /* \"#utility.yul\":7481:7497   */\n      add\n        /* \"#utility.yul\":7459:7511   */\n      tag_457\n      jump\t// in\n    tag_456:\n        /* \"#utility.yul\":7536:7565   */\n      tag_458\n        /* \"#utility.yul\":7558:7564   */\n      dup2\n        /* \"#utility.yul\":7536:7565   */\n      tag_459\n      jump\t// in\n    tag_458:\n        /* \"#utility.yul\":7531:7534   */\n      dup5\n        /* \"#utility.yul\":7527:7566   */\n      add\n        /* \"#utility.yul\":7520:7566   */\n      swap2\n      pop\n        /* \"#utility.yul\":7302:7572   */\n      pop\n        /* \"#utility.yul\":7212:7572   */\n      swap3\n      swap2\n      pop\n      pop\n      jump\t// out\n        /* \"#utility.yul\":7578:7942   */\n    tag_460:\n        /* \"#utility.yul\":7666:7669   */\n      0x00\n        /* \"#utility.yul\":7694:7733   */\n      tag_462\n        /* \"#utility.yul\":7727:7732   */\n      dup3\n        /* \"#utility.yul\":7694:7733   */\n      tag_463\n      jump\t// in\n    tag_462:\n        /* \"#utility.yul\":7749:7820   */\n      tag_464\n        /* \"#utility.yul\":7813:7819   */\n      dup2\n        /* \"#utility.yul\":7808:7811   */\n      dup6\n        /* \"#utility.yul\":7749:7820   */\n      tag_465\n      jump\t// in\n    tag_464:\n        /* \"#utility.yul\":7742:7820   */\n      swap4\n      pop\n        /* \"#utility.yul\":7829:7881   */\n      tag_466\n        /* \"#utility.yul\":7874:7880   */\n      dup2\n        /* \"#utility.yul\":7869:7872   */\n      dup6\n        /* \"#utility.yul\":7862:7866   */\n      0x20\n        /* \"#utility.yul\":7855:7860   */\n      dup7\n        /* \"#utility.yul\":7851:7867   */\n      add\n        /* \"#utility.yul\":7829:7881   */\n      tag_457\n      jump\t// in\n    tag_466:\n        /* \"#utility.yul\":7906:7935   */\n      tag_467\n        /* \"#utility.yul\":7928:7934   */\n      dup2\n        /* \"#utility.yul\":7906:7935   */\n      tag_459\n      jump\t// in\n    tag_467:\n        /* \"#utility.yul\":7901:7904   */\n      dup5\n        /* \"#utility.yul\":7897:7936   */\n      add\n        /* \"#utility.yul\":7890:7936   */\n      swap2\n      pop\n        /* \"#utility.yul\":7670:7942   */\n      pop\n        /* \"#utility.yul\":7578:7942   */\n      swap3\n      swap2\n      pop\n      pop\n      jump\t// out\n        /* \"#utility.yul\":7948:8325   */\n    tag_468:\n        /* \"#utility.yul\":8054:8057   */\n      0x00\n        /* \"#utility.yul\":8082:8121   */\n      tag_470\n        /* \"#utility.yul\":8115:8120   */\n      dup3\n        /* \"#utility.yul\":8082:8121   */\n      tag_463\n      jump\t// in\n    tag_470:\n        /* \"#utility.yul\":8137:8226   */\n      tag_471\n        /* \"#utility.yul\":8219:8225   */\n      dup2\n        /* \"#utility.yul\":8214:8217   */\n      dup6\n        /* \"#utility.yul\":8137:8226   */\n      tag_472\n      jump\t// in\n    tag_471:\n        /* \"#utility.yul\":8130:8226   */\n      swap4\n      pop\n        /* \"#utility.yul\":8235:8287   */\n      tag_473\n        /* \"#utility.yul\":8280:8286   */\n      dup2\n        /* \"#utility.yul\":8275:8278   */\n      dup6\n        /* \"#utility.yul\":8268:8272   */\n      0x20\n        /* \"#utility.yul\":8261:8266   */\n      dup7\n        /* \"#utility.yul\":8257:8273   */\n      add\n        /* \"#utility.yul\":8235:8287   */\n      tag_457\n      jump\t// in\n    tag_473:\n        /* \"#utility.yul\":8312:8318   */\n      dup1\n        /* \"#utility.yul\":8307:8310   */\n      dup5\n        /* \"#utility.yul\":8303:8319   */\n      add\n        /* \"#utility.yul\":8296:8319   */\n      swap2\n      pop\n        /* \"#utility.yul\":8058:8325   */\n      pop\n        /* \"#utility.yul\":7948:8325   */\n      swap3\n      swap2\n      pop\n      pop\n      jump\t// out\n        /* \"#utility.yul\":8331:8697   */\n    tag_474:\n        /* \"#utility.yul\":8473:8476   */\n      0x00\n        /* \"#utility.yul\":8494:8561   */\n      tag_476\n        /* \"#utility.yul\":8558:8560   */\n      0x26\n        /* \"#utility.yul\":8553:8556   */\n      dup4\n        /* \"#utility.yul\":8494:8561   */\n      tag_465\n      jump\t// in\n    tag_476:\n        /* \"#utility.yul\":8487:8561   */\n      swap2\n      pop\n        /* \"#utility.yul\":8570:8663   */\n      tag_477\n        /* \"#utility.yul\":8659:8662   */\n      dup3\n        /* \"#utility.yul\":8570:8663   */\n      tag_478\n      jump\t// in\n    tag_477:\n        /* \"#utility.yul\":8688:8690   */\n      0x40\n        /* \"#utility.yul\":8683:8686   */\n      dup3\n        /* \"#utility.yul\":8679:8691   */\n      add\n        /* \"#utility.yul\":8672:8691   */\n      swap1\n      pop\n        /* \"#utility.yul\":8331:8697   */\n      swap2\n      swap1\n      pop\n      jump\t// out\n        /* \"#utility.yul\":8703:9069   */\n    tag_479:\n        /* \"#utility.yul\":8845:8848   */\n      0x00\n        /* \"#utility.yul\":8866:8933   */\n      tag_481\n        /* \"#utility.yul\":8930:8932   */\n      0x12\n        /* \"#utility.yul\":8925:8928   */\n      dup4\n        /* \"#utility.yul\":8866:8933   */\n      tag_465\n      jump\t// in\n    tag_481:\n        /* \"#utility.yul\":8859:8933   */\n      swap2\n      pop\n        /* \"#utility.yul\":8942:9035   */\n      tag_482\n        /* \"#utility.yul\":9031:9034   */\n      dup3\n        /* \"#utility.yul\":8942:9035   */\n      tag_483\n      jump\t// in\n    tag_482:\n        /* \"#utility.yul\":9060:9062   */\n      0x20\n        /* \"#utility.yul\":9055:9058   */\n      dup3\n        /* \"#utility.yul\":9051:9063   */\n      add\n        /* \"#utility.yul\":9044:9063   */\n      swap1\n      pop\n        /* \"#utility.yul\":8703:9069   */\n      swap2\n      swap1\n      pop\n      jump\t// out\n        /* \"#utility.yul\":9075:9441   */\n    tag_484:\n        /* \"#utility.yul\":9217:9220   */\n      0x00\n        /* \"#utility.yul\":9238:9305   */\n      tag_486\n        /* \"#utility.yul\":9302:9304   */\n      0x20\n        /* \"#utility.yul\":9297:9300   */\n      dup4\n        /* \"#utility.yul\":9238:9305   */\n      tag_465\n      jump\t// in\n    tag_486:\n        /* \"#utility.yul\":9231:9305   */\n      swap2\n      pop\n        /* \"#utility.yul\":9314:9407   */\n      tag_487\n        /* \"#utility.yul\":9403:9406   */\n      dup3\n        /* \"#utility.yul\":9314:9407   */\n      tag_488\n      jump\t// in\n    tag_487:\n        /* \"#utility.yul\":9432:9434   */\n      0x20\n        /* \"#utility.yul\":9427:9430   */\n      dup3\n        /* \"#utility.yul\":9423:9435   */\n      add\n        /* \"#utility.yul\":9416:9435   */\n      swap1\n      pop\n        /* \"#utility.yul\":9075:9441   */\n      swap2\n      swap1\n      pop\n      jump\t// out\n        /* \"#utility.yul\":9447:9813   */\n    tag_489:\n        /* \"#utility.yul\":9589:9592   */\n      0x00\n        /* \"#utility.yul\":9610:9677   */\n      tag_491\n        /* \"#utility.yul\":9674:9676   */\n      0x0e\n        /* \"#utility.yul\":9669:9672   */\n      dup4\n        /* \"#utility.yul\":9610:9677   */\n      tag_465\n      jump\t// in\n    tag_491:\n        /* \"#utility.yul\":9603:9677   */\n      swap2\n      pop\n        /* \"#utility.yul\":9686:9779   */\n      tag_492\n        /* \"#utility.yul\":9775:9778   */\n      dup3\n        /* \"#utility.yul\":9686:9779   */\n      tag_493\n      jump\t// in\n    tag_492:\n        /* \"#utility.yul\":9804:9806   */\n      0x20\n        /* \"#utility.yul\":9799:9802   */\n      dup3\n        /* \"#utility.yul\":9795:9807   */\n      add\n        /* \"#utility.yul\":9788:9807   */\n      swap1\n      pop\n        /* \"#utility.yul\":9447:9813   */\n      swap2\n      swap1\n      pop\n      jump\t// out\n        /* \"#utility.yul\":9819:10185   */\n    tag_494:\n        /* \"#utility.yul\":9961:9964   */\n      0x00\n        /* \"#utility.yul\":9982:10049   */\n      tag_496\n        /* \"#utility.yul\":10046:10048   */\n      0x0f\n        /* \"#utility.yul\":10041:10044   */\n      dup4\n        /* \"#utility.yul\":9982:10049   */\n      tag_465\n      jump\t// in\n    tag_496:\n        /* \"#utility.yul\":9975:10049   */\n      swap2\n      pop\n        /* \"#utility.yul\":10058:10151   */\n      tag_497\n        /* \"#utility.yul\":10147:10150   */\n      dup3\n        /* \"#utility.yul\":10058:10151   */\n      tag_498\n      jump\t// in\n    tag_497:\n        /* \"#utility.yul\":10176:10178   */\n      0x20\n        /* \"#utility.yul\":10171:10174   */\n      dup3\n        /* \"#utility.yul\":10167:10179   */\n      add\n        /* \"#utility.yul\":10160:10179   */\n      swap1\n      pop\n        /* \"#utility.yul\":9819:10185   */\n      swap2\n      swap1\n      pop\n      jump\t// out\n        /* \"#utility.yul\":10191:10589   */\n    tag_499:\n        /* \"#utility.yul\":10350:10353   */\n      0x00\n        /* \"#utility.yul\":10371:10454   */\n      tag_501\n        /* \"#utility.yul\":10452:10453   */\n      0x00\n        /* \"#utility.yul\":10447:10450   */\n      dup4\n        /* \"#utility.yul\":10371:10454   */\n      tag_502\n      jump\t// in\n    tag_501:\n        /* \"#utility.yul\":10364:10454   */\n      swap2\n      pop\n        /* \"#utility.yul\":10463:10556   */\n      tag_503\n        /* \"#utility.yul\":10552:10555   */\n      dup3\n        /* \"#utility.yul\":10463:10556   */\n      tag_504\n      jump\t// in\n    tag_503:\n        /* \"#utility.yul\":10581:10582   */\n      0x00\n        /* \"#utility.yul\":10576:10579   */\n      dup3\n        /* \"#utility.yul\":10572:10583   */\n      add\n        /* \"#utility.yul\":10565:10583   */\n      swap1\n      pop\n        /* \"#utility.yul\":10191:10589   */\n      swap2\n      swap1\n      pop\n      jump\t// out\n        /* \"#utility.yul\":10595:10713   */\n    tag_505:\n        /* \"#utility.yul\":10682:10706   */\n      tag_507\n        /* \"#utility.yul\":10700:10705   */\n      dup2\n        /* \"#utility.yul\":10682:10706   */\n      tag_508\n      jump\t// in\n    tag_507:\n        /* \"#utility.yul\":10677:10680   */\n      dup3\n        /* \"#utility.yul\":10670:10707   */\n      mstore\n        /* \"#utility.yul\":10595:10713   */\n      pop\n      pop\n      jump\t// out\n        /* \"#utility.yul\":10719:11154   */\n    tag_248:\n        /* \"#utility.yul\":10899:10902   */\n      0x00\n        /* \"#utility.yul\":10921:11016   */\n      tag_510\n        /* \"#utility.yul\":11012:11015   */\n      dup3\n        /* \"#utility.yul\":11003:11009   */\n      dup6\n        /* \"#utility.yul\":10921:11016   */\n      tag_468\n      jump\t// in\n    tag_510:\n        /* \"#utility.yul\":10914:11016   */\n      swap2\n      pop\n        /* \"#utility.yul\":11033:11128   */\n      tag_511\n        /* \"#utility.yul\":11124:11127   */\n      dup3\n        /* \"#utility.yul\":11115:11121   */\n      dup5\n        /* \"#utility.yul\":11033:11128   */\n      tag_468\n      jump\t// in\n    tag_511:\n        /* \"#utility.yul\":11026:11128   */\n      swap2\n      pop\n        /* \"#utility.yul\":11145:11148   */\n      dup2\n        /* \"#utility.yul\":11138:11148   */\n      swap1\n      pop\n        /* \"#utility.yul\":10719:11154   */\n      swap4\n      swap3\n      pop\n      pop\n      pop\n      jump\t// out\n        /* \"#utility.yul\":11160:11539   */\n    tag_183:\n        /* \"#utility.yul\":11344:11347   */\n      0x00\n        /* \"#utility.yul\":11366:11513   */\n      tag_513\n        /* \"#utility.yul\":11509:11512   */\n      dup3\n        /* \"#utility.yul\":11366:11513   */\n      tag_499\n      jump\t// in\n    tag_513:\n        /* \"#utility.yul\":11359:11513   */\n      swap2\n      pop\n        /* \"#utility.yul\":11530:11533   */\n      dup2\n        /* \"#utility.yul\":11523:11533   */\n      swap1\n      pop\n        /* \"#utility.yul\":11160:11539   */\n      swap2\n      swap1\n      pop\n      jump\t// out\n        /* \"#utility.yul\":11545:11767   */\n    tag_45:\n        /* \"#utility.yul\":11638:11642   */\n      0x00\n        /* \"#utility.yul\":11676:11678   */\n      0x20\n        /* \"#utility.yul\":11665:11674   */\n      dup3\n        /* \"#utility.yul\":11661:11679   */\n      add\n        /* \"#utility.yul\":11653:11679   */\n      swap1\n      pop\n        /* \"#utility.yul\":11689:11760   */\n      tag_515\n        /* \"#utility.yul\":11757:11758   */\n      0x00\n        /* \"#utility.yul\":11746:11755   */\n      dup4\n        /* \"#utility.yul\":11742:11759   */\n      add\n        /* \"#utility.yul\":11733:11739   */\n      dup5\n        /* \"#utility.yul\":11689:11760   */\n      tag_442\n      jump\t// in\n    tag_515:\n        /* \"#utility.yul\":11545:11767   */\n      swap3\n      swap2\n      pop\n      pop\n      jump\t// out\n        /* \"#utility.yul\":11773:12413   */\n    tag_303:\n        /* \"#utility.yul\":11968:11972   */\n      0x00\n        /* \"#utility.yul\":12006:12009   */\n      0x80\n        /* \"#utility.yul\":11995:12004   */\n      dup3\n        /* \"#utility.yul\":11991:12010   */\n      add\n        /* \"#utility.yul\":11983:12010   */\n      swap1\n      pop\n        /* \"#utility.yul\":12020:12091   */\n      tag_517\n        /* \"#utility.yul\":12088:12089   */\n      0x00\n        /* \"#utility.yul\":12077:12086   */\n      dup4\n        /* \"#utility.yul\":12073:12090   */\n      add\n        /* \"#utility.yul\":12064:12070   */\n      dup8\n        /* \"#utility.yul\":12020:12091   */\n      tag_442\n      jump\t// in\n    tag_517:\n        /* \"#utility.yul\":12101:12173   */\n      tag_518\n        /* \"#utility.yul\":12169:12171   */\n      0x20\n        /* \"#utility.yul\":12158:12167   */\n      dup4\n        /* \"#utility.yul\":12154:12172   */\n      add\n        /* \"#utility.yul\":12145:12151   */\n      dup7\n        /* \"#utility.yul\":12101:12173   */\n      tag_442\n      jump\t// in\n    tag_518:\n        /* \"#utility.yul\":12183:12255   */\n      tag_519\n        /* \"#utility.yul\":12251:12253   */\n      0x40\n        /* \"#utility.yul\":12240:12249   */\n      dup4\n        /* \"#utility.yul\":12236:12254   */\n      add\n        /* \"#utility.yul\":12227:12233   */\n      dup6\n        /* \"#utility.yul\":12183:12255   */\n      tag_505\n      jump\t// in\n    tag_519:\n        /* \"#utility.yul\":12302:12311   */\n      dup2\n        /* \"#utility.yul\":12296:12300   */\n      dup2\n        /* \"#utility.yul\":12292:12312   */\n      sub\n        /* \"#utility.yul\":12287:12289   */\n      0x60\n        /* \"#utility.yul\":12276:12285   */\n      dup4\n        /* \"#utility.yul\":12272:12290   */\n      add\n        /* \"#utility.yul\":12265:12313   */\n      mstore\n        /* \"#utility.yul\":12330:12406   */\n      tag_520\n        /* \"#utility.yul\":12401:12405   */\n      dup2\n        /* \"#utility.yul\":12392:12398   */\n      dup5\n        /* \"#utility.yul\":12330:12406   */\n      tag_450\n      jump\t// in\n    tag_520:\n        /* \"#utility.yul\":12322:12406   */\n      swap1\n      pop\n        /* \"#utility.yul\":11773:12413   */\n      swap6\n      swap5\n      pop\n      pop\n      pop\n      pop\n      pop\n      jump\t// out\n        /* \"#utility.yul\":12419:12629   */\n    tag_33:\n        /* \"#utility.yul\":12506:12510   */\n      0x00\n        /* \"#utility.yul\":12544:12546   */\n      0x20\n        /* \"#utility.yul\":12533:12542   */\n      dup3\n        /* \"#utility.yul\":12529:12547   */\n      add\n        /* \"#utility.yul\":12521:12547   */\n      swap1\n      pop\n        /* \"#utility.yul\":12557:12622   */\n      tag_522\n        /* \"#utility.yul\":12619:12620   */\n      0x00\n        /* \"#utility.yul\":12608:12617   */\n      dup4\n        /* \"#utility.yul\":12604:12621   */\n      add\n        /* \"#utility.yul\":12595:12601   */\n      dup5\n        /* \"#utility.yul\":12557:12622   */\n      tag_446\n      jump\t// in\n    tag_522:\n        /* \"#utility.yul\":12419:12629   */\n      swap3\n      swap2\n      pop\n      pop\n      jump\t// out\n        /* \"#utility.yul\":12635:12948   */\n    tag_38:\n        /* \"#utility.yul\":12748:12752   */\n      0x00\n        /* \"#utility.yul\":12786:12788   */\n      0x20\n        /* \"#utility.yul\":12775:12784   */\n      dup3\n        /* \"#utility.yul\":12771:12789   */\n      add\n        /* \"#utility.yul\":12763:12789   */\n      swap1\n      pop\n        /* \"#utility.yul\":12835:12844   */\n      dup2\n        /* \"#utility.yul\":12829:12833   */\n      dup2\n        /* \"#utility.yul\":12825:12845   */\n      sub\n        /* \"#utility.yul\":12821:12822   */\n      0x00\n        /* \"#utility.yul\":12810:12819   */\n      dup4\n        /* \"#utility.yul\":12806:12823   */\n      add\n        /* \"#utility.yul\":12799:12846   */\n      mstore\n        /* \"#utility.yul\":12863:12941   */\n      tag_524\n        /* \"#utility.yul\":12936:12940   */\n      dup2\n        /* \"#utility.yul\":12927:12933   */\n      dup5\n        /* \"#utility.yul\":12863:12941   */\n      tag_460\n      jump\t// in\n    tag_524:\n        /* \"#utility.yul\":12855:12941   */\n      swap1\n      pop\n        /* \"#utility.yul\":12635:12948   */\n      swap3\n      swap2\n      pop\n      pop\n      jump\t// out\n        /* \"#utility.yul\":12954:13373   */\n    tag_255:\n        /* \"#utility.yul\":13120:13124   */\n      0x00\n        /* \"#utility.yul\":13158:13160   */\n      0x20\n        /* \"#utility.yul\":13147:13156   */\n      dup3\n        /* \"#utility.yul\":13143:13161   */\n      add\n        /* \"#utility.yul\":13135:13161   */\n      swap1\n      pop\n        /* \"#utility.yul\":13207:13216   */\n      dup2\n        /* \"#utility.yul\":13201:13205   */\n      dup2\n        /* \"#utility.yul\":13197:13217   */\n      sub\n        /* \"#utility.yul\":13193:13194   */\n      0x00\n        /* \"#utility.yul\":13182:13191   */\n      dup4\n        /* \"#utility.yul\":13178:13195   */\n      add\n        /* \"#utility.yul\":13171:13218   */\n      mstore\n        /* \"#utility.yul\":13235:13366   */\n      tag_526\n        /* \"#utility.yul\":13361:13365   */\n      dup2\n        /* \"#utility.yul\":13235:13366   */\n      tag_474\n      jump\t// in\n    tag_526:\n        /* \"#utility.yul\":13227:13366   */\n      swap1\n      pop\n        /* \"#utility.yul\":12954:13373   */\n      swap2\n      swap1\n      pop\n      jump\t// out\n        /* \"#utility.yul\":13379:13798   */\n    tag_202:\n        /* \"#utility.yul\":13545:13549   */\n      0x00\n        /* \"#utility.yul\":13583:13585   */\n      0x20\n        /* \"#utility.yul\":13572:13581   */\n      dup3\n        /* \"#utility.yul\":13568:13586   */\n      add\n        /* \"#utility.yul\":13560:13586   */\n      swap1\n      pop\n        /* \"#utility.yul\":13632:13641   */\n      dup2\n        /* \"#utility.yul\":13626:13630   */\n      dup2\n        /* \"#utility.yul\":13622:13642   */\n      sub\n        /* \"#utility.yul\":13618:13619   */\n      0x00\n        /* \"#utility.yul\":13607:13616   */\n      dup4\n        /* \"#utility.yul\":13603:13620   */\n      add\n        /* \"#utility.yul\":13596:13643   */\n      mstore\n        /* \"#utility.yul\":13660:13791   */\n      tag_528\n        /* \"#utility.yul\":13786:13790   */\n      dup2\n        /* \"#utility.yul\":13660:13791   */\n      tag_479\n      jump\t// in\n    tag_528:\n        /* \"#utility.yul\":13652:13791   */\n      swap1\n      pop\n        /* \"#utility.yul\":13379:13798   */\n      swap2\n      swap1\n      pop\n      jump\t// out\n        /* \"#utility.yul\":13804:14223   */\n    tag_284:\n        /* \"#utility.yul\":13970:13974   */\n      0x00\n        /* \"#utility.yul\":14008:14010   */\n      0x20\n        /* \"#utility.yul\":13997:14006   */\n      dup3\n        /* \"#utility.yul\":13993:14011   */\n      add\n        /* \"#utility.yul\":13985:14011   */\n      swap1\n      pop\n        /* \"#utility.yul\":14057:14066   */\n      dup2\n        /* \"#utility.yul\":14051:14055   */\n      dup2\n        /* \"#utility.yul\":14047:14067   */\n      sub\n        /* \"#utility.yul\":14043:14044   */\n      0x00\n        /* \"#utility.yul\":14032:14041   */\n      dup4\n        /* \"#utility.yul\":14028:14045   */\n      add\n        /* \"#utility.yul\":14021:14068   */\n      mstore\n        /* \"#utility.yul\":14085:14216   */\n      tag_530\n        /* \"#utility.yul\":14211:14215   */\n      dup2\n        /* \"#utility.yul\":14085:14216   */\n      tag_484\n      jump\t// in\n    tag_530:\n        /* \"#utility.yul\":14077:14216   */\n      swap1\n      pop\n        /* \"#utility.yul\":13804:14223   */\n      swap2\n      swap1\n      pop\n      jump\t// out\n        /* \"#utility.yul\":14229:14648   */\n    tag_197:\n        /* \"#utility.yul\":14395:14399   */\n      0x00\n        /* \"#utility.yul\":14433:14435   */\n      0x20\n        /* \"#utility.yul\":14422:14431   */\n      dup3\n        /* \"#utility.yul\":14418:14436   */\n      add\n        /* \"#utility.yul\":14410:14436   */\n      swap1\n      pop\n        /* \"#utility.yul\":14482:14491   */\n      dup2\n        /* \"#utility.yul\":14476:14480   */\n      dup2\n        /* \"#utility.yul\":14472:14492   */\n      sub\n        /* \"#utility.yul\":14468:14469   */\n      0x00\n        /* \"#utility.yul\":14457:14466   */\n      dup4\n        /* \"#utility.yul\":14453:14470   */\n      add\n        /* \"#utility.yul\":14446:14493   */\n      mstore\n        /* \"#utility.yul\":14510:14641   */\n      tag_532\n        /* \"#utility.yul\":14636:14640   */\n      dup2\n        /* \"#utility.yul\":14510:14641   */\n      tag_489\n      jump\t// in\n    tag_532:\n        /* \"#utility.yul\":14502:14641   */\n      swap1\n      pop\n        /* \"#utility.yul\":14229:14648   */\n      swap2\n      swap1\n      pop\n      jump\t// out\n        /* \"#utility.yul\":14654:15073   */\n    tag_189:\n        /* \"#utility.yul\":14820:14824   */\n      0x00\n        /* \"#utility.yul\":14858:14860   */\n      0x20\n        /* \"#utility.yul\":14847:14856   */\n      dup3\n        /* \"#utility.yul\":14843:14861   */\n      add\n        /* \"#utility.yul\":14835:14861   */\n      swap1\n      pop\n        /* \"#utility.yul\":14907:14916   */\n      dup2\n        /* \"#utility.yul\":14901:14905   */\n      dup2\n        /* \"#utility.yul\":14897:14917   */\n      sub\n        /* \"#utility.yul\":14893:14894   */\n      0x00\n        /* \"#utility.yul\":14882:14891   */\n      dup4\n        /* \"#utility.yul\":14878:14895   */\n      add\n        /* \"#utility.yul\":14871:14918   */\n      mstore\n        /* \"#utility.yul\":14935:15066   */\n      tag_534\n        /* \"#utility.yul\":15061:15065   */\n      dup2\n        /* \"#utility.yul\":14935:15066   */\n      tag_494\n      jump\t// in\n    tag_534:\n        /* \"#utility.yul\":14927:15066   */\n      swap1\n      pop\n        /* \"#utility.yul\":14654:15073   */\n      swap2\n      swap1\n      pop\n      jump\t// out\n        /* \"#utility.yul\":15079:15301   */\n    tag_54:\n        /* \"#utility.yul\":15172:15176   */\n      0x00\n        /* \"#utility.yul\":15210:15212   */\n      0x20\n        /* \"#utility.yul\":15199:15208   */\n      dup3\n        /* \"#utility.yul\":15195:15213   */\n      add\n        /* \"#utility.yul\":15187:15213   */\n      swap1\n      pop\n        /* \"#utility.yul\":15223:15294   */\n      tag_536\n        /* \"#utility.yul\":15291:15292   */\n      0x00\n        /* \"#utility.yul\":15280:15289   */\n      dup4\n        /* \"#utility.yul\":15276:15293   */\n      add\n        /* \"#utility.yul\":15267:15273   */\n      dup5\n        /* \"#utility.yul\":15223:15294   */\n      tag_505\n      jump\t// in\n    tag_536:\n        /* \"#utility.yul\":15079:15301   */\n      swap3\n      swap2\n      pop\n      pop\n      jump\t// out\n        /* \"#utility.yul\":15307:15436   */\n    tag_347:\n        /* \"#utility.yul\":15341:15347   */\n      0x00\n        /* \"#utility.yul\":15368:15388   */\n      tag_538\n      tag_539\n      jump\t// in\n    tag_538:\n        /* \"#utility.yul\":15358:15388   */\n      swap1\n      pop\n        /* \"#utility.yul\":15397:15430   */\n      tag_540\n        /* \"#utility.yul\":15425:15429   */\n      dup3\n        /* \"#utility.yul\":15417:15423   */\n      dup3\n        /* \"#utility.yul\":15397:15430   */\n      tag_541\n      jump\t// in\n    tag_540:\n        /* \"#utility.yul\":15307:15436   */\n      swap2\n      swap1\n      pop\n      jump\t// out\n        /* \"#utility.yul\":15442:15517   */\n    tag_539:\n        /* \"#utility.yul\":15475:15481   */\n      0x00\n        /* \"#utility.yul\":15508:15510   */\n      0x40\n        /* \"#utility.yul\":15502:15511   */\n      mload\n        /* \"#utility.yul\":15492:15511   */\n      swap1\n      pop\n        /* \"#utility.yul\":15442:15517   */\n      swap1\n      jump\t// out\n        /* \"#utility.yul\":15523:15830   */\n    tag_346:\n        /* \"#utility.yul\":15584:15588   */\n      0x00\n        /* \"#utility.yul\":15674:15692   */\n      0xffffffffffffffff\n        /* \"#utility.yul\":15666:15672   */\n      dup3\n        /* \"#utility.yul\":15663:15693   */\n      gt\n        /* \"#utility.yul\":15660:15716   */\n      iszero\n      tag_544\n      jumpi\n        /* \"#utility.yul\":15696:15714   */\n      tag_545\n      tag_546\n      jump\t// in\n    tag_545:\n        /* \"#utility.yul\":15660:15716   */\n    tag_544:\n        /* \"#utility.yul\":15734:15763   */\n      tag_547\n        /* \"#utility.yul\":15756:15762   */\n      dup3\n        /* \"#utility.yul\":15734:15763   */\n      tag_459\n      jump\t// in\n    tag_547:\n        /* \"#utility.yul\":15726:15763   */\n      swap1\n      pop\n        /* \"#utility.yul\":15818:15822   */\n      0x20\n        /* \"#utility.yul\":15812:15816   */\n      dup2\n        /* \"#utility.yul\":15808:15823   */\n      add\n        /* \"#utility.yul\":15800:15823   */\n      swap1\n      pop\n        /* \"#utility.yul\":15523:15830   */\n      swap2\n      swap1\n      pop\n      jump\t// out\n        /* \"#utility.yul\":15836:15934   */\n    tag_453:\n        /* \"#utility.yul\":15887:15893   */\n      0x00\n        /* \"#utility.yul\":15921:15926   */\n      dup2\n        /* \"#utility.yul\":15915:15927   */\n      mload\n        /* \"#utility.yul\":15905:15927   */\n      swap1\n      pop\n        /* \"#utility.yul\":15836:15934   */\n      swap2\n      swap1\n      pop\n      jump\t// out\n        /* \"#utility.yul\":15940:16039   */\n    tag_463:\n        /* \"#utility.yul\":15992:15998   */\n      0x00\n        /* \"#utility.yul\":16026:16031   */\n      dup2\n        /* \"#utility.yul\":16020:16032   */\n      mload\n        /* \"#utility.yul\":16010:16032   */\n      swap1\n      pop\n        /* \"#utility.yul\":15940:16039   */\n      swap2\n      swap1\n      pop\n      jump\t// out\n        /* \"#utility.yul\":16045:16213   */\n    tag_455:\n        /* \"#utility.yul\":16128:16139   */\n      0x00\n        /* \"#utility.yul\":16162:16168   */\n      dup3\n        /* \"#utility.yul\":16157:16160   */\n      dup3\n        /* \"#utility.yul\":16150:16169   */\n      mstore\n        /* \"#utility.yul\":16202:16206   */\n      0x20\n        /* \"#utility.yul\":16197:16200   */\n      dup3\n        /* \"#utility.yul\":16193:16207   */\n      add\n        /* \"#utility.yul\":16178:16207   */\n      swap1\n      pop\n        /* \"#utility.yul\":16045:16213   */\n      swap3\n      swap2\n      pop\n      pop\n      jump\t// out\n        /* \"#utility.yul\":16219:16366   */\n    tag_502:\n        /* \"#utility.yul\":16320:16331   */\n      0x00\n        /* \"#utility.yul\":16357:16360   */\n      dup2\n        /* \"#utility.yul\":16342:16360   */\n      swap1\n      pop\n        /* \"#utility.yul\":16219:16366   */\n      swap3\n      swap2\n      pop\n      pop\n      jump\t// out\n        /* \"#utility.yul\":16372:16541   */\n    tag_465:\n        /* \"#utility.yul\":16456:16467   */\n      0x00\n        /* \"#utility.yul\":16490:16496   */\n      dup3\n        /* \"#utility.yul\":16485:16488   */\n      dup3\n        /* \"#utility.yul\":16478:16497   */\n      mstore\n        /* \"#utility.yul\":16530:16534   */\n      0x20\n        /* \"#utility.yul\":16525:16528   */\n      dup3\n        /* \"#utility.yul\":16521:16535   */\n      add\n        /* \"#utility.yul\":16506:16535   */\n      swap1\n      pop\n        /* \"#utility.yul\":16372:16541   */\n      swap3\n      swap2\n      pop\n      pop\n      jump\t// out\n        /* \"#utility.yul\":16547:16695   */\n    tag_472:\n        /* \"#utility.yul\":16649:16660   */\n      0x00\n        /* \"#utility.yul\":16686:16689   */\n      dup2\n        /* \"#utility.yul\":16671:16689   */\n      swap1\n      pop\n        /* \"#utility.yul\":16547:16695   */\n      swap3\n      swap2\n      pop\n      pop\n      jump\t// out\n        /* \"#utility.yul\":16701:17006   */\n    tag_194:\n        /* \"#utility.yul\":16741:16744   */\n      0x00\n        /* \"#utility.yul\":16760:16780   */\n      tag_555\n        /* \"#utility.yul\":16778:16779   */\n      dup3\n        /* \"#utility.yul\":16760:16780   */\n      tag_508\n      jump\t// in\n    tag_555:\n        /* \"#utility.yul\":16755:16780   */\n      swap2\n      pop\n        /* \"#utility.yul\":16794:16814   */\n      tag_556\n        /* \"#utility.yul\":16812:16813   */\n      dup4\n        /* \"#utility.yul\":16794:16814   */\n      tag_508\n      jump\t// in\n    tag_556:\n        /* \"#utility.yul\":16789:16814   */\n      swap3\n      pop\n        /* \"#utility.yul\":16948:16949   */\n      dup3\n        /* \"#utility.yul\":16880:16946   */\n      0xffffffffffffffffffffffffffffffffffffffffffffffffffffffffffffffff\n        /* \"#utility.yul\":16876:16950   */\n      sub\n        /* \"#utility.yul\":16873:16874   */\n      dup3\n        /* \"#utility.yul\":16870:16951   */\n      gt\n        /* \"#utility.yul\":16867:16974   */\n      iszero\n      tag_557\n      jumpi\n        /* \"#utility.yul\":16954:16972   */\n      tag_558\n      tag_559\n      jump\t// in\n    tag_558:\n        /* \"#utility.yul\":16867:16974   */\n    tag_557:\n        /* \"#utility.yul\":16998:16999   */\n      dup3\n        /* \"#utility.yul\":16995:16996   */\n      dup3\n        /* \"#utility.yul\":16991:17000   */\n      add\n        /* \"#utility.yul\":16984:17000   */\n      swap1\n      pop\n        /* \"#utility.yul\":16701:17006   */\n      swap3\n      swap2\n      pop\n      pop\n      jump\t// out\n        /* \"#utility.yul\":17012:17360   */\n    tag_199:\n        /* \"#utility.yul\":17052:17059   */\n      0x00\n        /* \"#utility.yul\":17075:17095   */\n      tag_561\n        /* \"#utility.yul\":17093:17094   */\n      dup3\n        /* \"#utility.yul\":17075:17095   */\n      tag_508\n      jump\t// in\n    tag_561:\n        /* \"#utility.yul\":17070:17095   */\n      swap2\n      pop\n        /* \"#utility.yul\":17109:17129   */\n      tag_562\n        /* \"#utility.yul\":17127:17128   */\n      dup4\n        /* \"#utility.yul\":17109:17129   */\n      tag_508\n      jump\t// in\n    tag_562:\n        /* \"#utility.yul\":17104:17129   */\n      swap3\n      pop\n        /* \"#utility.yul\":17297:17298   */\n      dup2\n        /* \"#utility.yul\":17229:17295   */\n      0xffffffffffffffffffffffffffffffffffffffffffffffffffffffffffffffff\n        /* \"#utility.yul\":17225:17299   */\n      div\n        /* \"#utility.yul\":17222:17223   */\n      dup4\n        /* \"#utility.yul\":17219:17300   */\n      gt\n        /* \"#utility.yul\":17214:17215   */\n      dup3\n        /* \"#utility.yul\":17207:17216   */\n      iszero\n        /* \"#utility.yul\":17200:17217   */\n      iszero\n        /* \"#utility.yul\":17196:17301   */\n      and\n        /* \"#utility.yul\":17193:17324   */\n      iszero\n      tag_563\n      jumpi\n        /* \"#utility.yul\":17304:17322   */\n      tag_564\n      tag_559\n      jump\t// in\n    tag_564:\n        /* \"#utility.yul\":17193:17324   */\n    tag_563:\n        /* \"#utility.yul\":17352:17353   */\n      dup3\n        /* \"#utility.yul\":17349:17350   */\n      dup3\n        /* \"#utility.yul\":17345:17354   */\n      mul\n        /* \"#utility.yul\":17334:17354   */\n      swap1\n      pop\n        /* \"#utility.yul\":17012:17360   */\n      swap3\n      swap2\n      pop\n      pop\n      jump\t// out\n        /* \"#utility.yul\":17366:17462   */\n    tag_445:\n        /* \"#utility.yul\":17403:17410   */\n      0x00\n        /* \"#utility.yul\":17432:17456   */\n      tag_566\n        /* \"#utility.yul\":17450:17455   */\n      dup3\n        /* \"#utility.yul\":17432:17456   */\n      tag_567\n      jump\t// in\n    tag_566:\n        /* \"#utility.yul\":17421:17456   */\n      swap1\n      pop\n        /* \"#utility.yul\":17366:17462   */\n      swap2\n      swap1\n      pop\n      jump\t// out\n        /* \"#utility.yul\":17468:17558   */\n    tag_449:\n        /* \"#utility.yul\":17502:17509   */\n      0x00\n        /* \"#utility.yul\":17545:17550   */\n      dup2\n        /* \"#utility.yul\":17538:17551   */\n      iszero\n        /* \"#utility.yul\":17531:17552   */\n      iszero\n        /* \"#utility.yul\":17520:17552   */\n      swap1\n      pop\n        /* \"#utility.yul\":17468:17558   */\n      swap2\n      swap1\n      pop\n      jump\t// out\n        /* \"#utility.yul\":17564:17713   */\n    tag_569:\n        /* \"#utility.yul\":17600:17607   */\n      0x00\n        /* \"#utility.yul\":17640:17706   */\n      0xffffffff00000000000000000000000000000000000000000000000000000000\n        /* \"#utility.yul\":17633:17638   */\n      dup3\n        /* \"#utility.yul\":17629:17707   */\n      and\n        /* \"#utility.yul\":17618:17707   */\n      swap1\n      pop\n        /* \"#utility.yul\":17564:17713   */\n      swap2\n      swap1\n      pop\n      jump\t// out\n        /* \"#utility.yul\":17719:17845   */\n    tag_567:\n        /* \"#utility.yul\":17756:17763   */\n      0x00\n        /* \"#utility.yul\":17796:17838   */\n      0xffffffffffffffffffffffffffffffffffffffff\n        /* \"#utility.yul\":17789:17794   */\n      dup3\n        /* \"#utility.yul\":17785:17839   */\n      and\n        /* \"#utility.yul\":17774:17839   */\n      swap1\n      pop\n        /* \"#utility.yul\":17719:17845   */\n      swap2\n      swap1\n      pop\n      jump\t// out\n        /* \"#utility.yul\":17851:17928   */\n    tag_508:\n        /* \"#utility.yul\":17888:17895   */\n      0x00\n        /* \"#utility.yul\":17917:17922   */\n      dup2\n        /* \"#utility.yul\":17906:17922   */\n      swap1\n      pop\n        /* \"#utility.yul\":17851:17928   */\n      swap2\n      swap1\n      pop\n      jump\t// out\n        /* \"#utility.yul\":17934:18088   */\n    tag_352:\n        /* \"#utility.yul\":18018:18024   */\n      dup3\n        /* \"#utility.yul\":18013:18016   */\n      dup2\n        /* \"#utility.yul\":18008:18011   */\n      dup4\n        /* \"#utility.yul\":17995:18025   */\n      calldatacopy\n        /* \"#utility.yul\":18080:18081   */\n      0x00\n        /* \"#utility.yul\":18071:18077   */\n      dup4\n        /* \"#utility.yul\":18066:18069   */\n      dup4\n        /* \"#utility.yul\":18062:18078   */\n      add\n        /* \"#utility.yul\":18055:18082   */\n      mstore\n        /* \"#utility.yul\":17934:18088   */\n      pop\n      pop\n      pop\n      jump\t// out\n        /* \"#utility.yul\":18094:18401   */\n    tag_457:\n        /* \"#utility.yul\":18162:18163   */\n      0x00\n        /* \"#utility.yul\":18172:18285   */\n    tag_575:\n        /* \"#utility.yul\":18186:18192   */\n      dup4\n        /* \"#utility.yul\":18183:18184   */\n      dup2\n        /* \"#utility.yul\":18180:18193   */\n      lt\n        /* \"#utility.yul\":18172:18285   */\n      iszero\n      tag_577\n      jumpi\n        /* \"#utility.yul\":18271:18272   */\n      dup1\n        /* \"#utility.yul\":18266:18269   */\n      dup3\n        /* \"#utility.yul\":18262:18273   */\n      add\n        /* \"#utility.yul\":18256:18274   */\n      mload\n        /* \"#utility.yul\":18252:18253   */\n      dup2\n        /* \"#utility.yul\":18247:18250   */\n      dup5\n        /* \"#utility.yul\":18243:18254   */\n      add\n        /* \"#utility.yul\":18236:18275   */\n      mstore\n        /* \"#utility.yul\":18208:18210   */\n      0x20\n        /* \"#utility.yul\":18205:18206   */\n      dup2\n        /* \"#utility.yul\":18201:18211   */\n      add\n        /* \"#utility.yul\":18196:18211   */\n      swap1\n      pop\n        /* \"#utility.yul\":18172:18285   */\n      jump(tag_575)\n    tag_577:\n        /* \"#utility.yul\":18303:18309   */\n      dup4\n        /* \"#utility.yul\":18300:18301   */\n      dup2\n        /* \"#utility.yul\":18297:18310   */\n      gt\n        /* \"#utility.yul\":18294:18395   */\n      iszero\n      tag_578\n      jumpi\n        /* \"#utility.yul\":18383:18384   */\n      0x00\n        /* \"#utility.yul\":18374:18380   */\n      dup5\n        /* \"#utility.yul\":18369:18372   */\n      dup5\n        /* \"#utility.yul\":18365:18381   */\n      add\n        /* \"#utility.yul\":18358:18385   */\n      mstore\n        /* \"#utility.yul\":18294:18395   */\n    tag_578:\n        /* \"#utility.yul\":18143:18401   */\n      pop\n        /* \"#utility.yul\":18094:18401   */\n      pop\n      pop\n      pop\n      jump\t// out\n        /* \"#utility.yul\":18407:18727   */\n    tag_132:\n        /* \"#utility.yul\":18451:18457   */\n      0x00\n        /* \"#utility.yul\":18488:18489   */\n      0x02\n        /* \"#utility.yul\":18482:18486   */\n      dup3\n        /* \"#utility.yul\":18478:18490   */\n      div\n        /* \"#utility.yul\":18468:18490   */\n      swap1\n      pop\n        /* \"#utility.yul\":18535:18536   */\n      0x01\n        /* \"#utility.yul\":18529:18533   */\n      dup3\n        /* \"#utility.yul\":18525:18537   */\n      and\n        /* \"#utility.yul\":18556:18574   */\n      dup1\n        /* \"#utility.yul\":18546:18627   */\n      tag_580\n      jumpi\n        /* \"#utility.yul\":18612:18616   */\n      0x7f\n        /* \"#utility.yul\":18604:18610   */\n      dup3\n        /* \"#utility.yul\":18600:18617   */\n      and\n        /* \"#utility.yul\":18590:18617   */\n      swap2\n      pop\n        /* \"#utility.yul\":18546:18627   */\n    tag_580:\n        /* \"#utility.yul\":18674:18676   */\n      0x20\n        /* \"#utility.yul\":18666:18672   */\n      dup3\n        /* \"#utility.yul\":18663:18677   */\n      lt\n        /* \"#utility.yul\":18643:18661   */\n      dup2\n        /* \"#utility.yul\":18640:18678   */\n      eq\n        /* \"#utility.yul\":18637:18721   */\n      iszero\n      tag_581\n      jumpi\n        /* \"#utility.yul\":18693:18711   */\n      tag_582\n      tag_583\n      jump\t// in\n    tag_582:\n        /* \"#utility.yul\":18637:18721   */\n    tag_581:\n        /* \"#utility.yul\":18458:18727   */\n      pop\n        /* \"#utility.yul\":18407:18727   */\n      swap2\n      swap1\n      pop\n      jump\t// out\n        /* \"#utility.yul\":18733:19014   */\n    tag_541:\n        /* \"#utility.yul\":18816:18843   */\n      tag_585\n        /* \"#utility.yul\":18838:18842   */\n      dup3\n        /* \"#utility.yul\":18816:18843   */\n      tag_459\n      jump\t// in\n    tag_585:\n        /* \"#utility.yul\":18808:18814   */\n      dup2\n        /* \"#utility.yul\":18804:18844   */\n      add\n        /* \"#utility.yul\":18946:18952   */\n      dup2\n        /* \"#utility.yul\":18934:18944   */\n      dup2\n        /* \"#utility.yul\":18931:18953   */\n      lt\n        /* \"#utility.yul\":18910:18928   */\n      0xffffffffffffffff\n        /* \"#utility.yul\":18898:18908   */\n      dup3\n        /* \"#utility.yul\":18895:18929   */\n      gt\n        /* \"#utility.yul\":18892:18954   */\n      or\n        /* \"#utility.yul\":18889:18977   */\n      iszero\n      tag_586\n      jumpi\n        /* \"#utility.yul\":18957:18975   */\n      tag_587\n      tag_546\n      jump\t// in\n    tag_587:\n        /* \"#utility.yul\":18889:18977   */\n    tag_586:\n        /* \"#utility.yul\":18997:19007   */\n      dup1\n        /* \"#utility.yul\":18993:18995   */\n      0x40\n        /* \"#utility.yul\":18986:19008   */\n      mstore\n        /* \"#utility.yul\":18776:19014   */\n      pop\n        /* \"#utility.yul\":18733:19014   */\n      pop\n      pop\n      jump\t// out\n        /* \"#utility.yul\":19020:19200   */\n    tag_559:\n        /* \"#utility.yul\":19068:19145   */\n      0x4e487b7100000000000000000000000000000000000000000000000000000000\n        /* \"#utility.yul\":19065:19066   */\n      0x00\n        /* \"#utility.yul\":19058:19146   */\n      mstore\n        /* \"#utility.yul\":19165:19169   */\n      0x11\n        /* \"#utility.yul\":19162:19163   */\n      0x04\n        /* \"#utility.yul\":19155:19170   */\n      mstore\n        /* \"#utility.yul\":19189:19193   */\n      0x24\n        /* \"#utility.yul\":19186:19187   */\n      0x00\n        /* \"#utility.yul\":19179:19194   */\n      revert\n        /* \"#utility.yul\":19206:19386   */\n    tag_583:\n        /* \"#utility.yul\":19254:19331   */\n      0x4e487b7100000000000000000000000000000000000000000000000000000000\n        /* \"#utility.yul\":19251:19252   */\n      0x00\n        /* \"#utility.yul\":19244:19332   */\n      mstore\n        /* \"#utility.yul\":19351:19355   */\n      0x22\n        /* \"#utility.yul\":19348:19349   */\n      0x04\n        /* \"#utility.yul\":19341:19356   */\n      mstore\n        /* \"#utility.yul\":19375:19379   */\n      0x24\n        /* \"#utility.yul\":19372:19373   */\n      0x00\n        /* \"#utility.yul\":19365:19380   */\n      revert\n        /* \"#utility.yul\":19392:19572   */\n    tag_546:\n        /* \"#utility.yul\":19440:19517   */\n      0x4e487b7100000000000000000000000000000000000000000000000000000000\n        /* \"#utility.yul\":19437:19438   */\n      0x00\n        /* \"#utility.yul\":19430:19518   */\n      mstore\n        /* \"#utility.yul\":19537:19541   */\n      0x41\n        /* \"#utility.yul\":19534:19535   */\n      0x04\n        /* \"#utility.yul\":19527:19542   */\n      mstore\n        /* \"#utility.yul\":19561:19565   */\n      0x24\n        /* \"#utility.yul\":19558:19559   */\n      0x00\n        /* \"#utility.yul\":19551:19566   */\n      revert\n        /* \"#utility.yul\":19578:19695   */\n    tag_380:\n        /* \"#utility.yul\":19687:19688   */\n      0x00\n        /* \"#utility.yul\":19684:19685   */\n      dup1\n        /* \"#utility.yul\":19677:19689   */\n      revert\n        /* \"#utility.yul\":19701:19818   */\n    tag_372:\n        /* \"#utility.yul\":19810:19811   */\n      0x00\n        /* \"#utility.yul\":19807:19808   */\n      dup1\n        /* \"#utility.yul\":19800:19812   */\n      revert\n        /* \"#utility.yul\":19824:19941   */\n    tag_383:\n        /* \"#utility.yul\":19933:19934   */\n      0x00\n        /* \"#utility.yul\":19930:19931   */\n      dup1\n        /* \"#utility.yul\":19923:19935   */\n      revert\n        /* \"#utility.yul\":19947:20064   */\n    tag_350:\n        /* \"#utility.yul\":20056:20057   */\n      0x00\n        /* \"#utility.yul\":20053:20054   */\n      dup1\n        /* \"#utility.yul\":20046:20058   */\n      revert\n        /* \"#utility.yul\":20070:20187   */\n    tag_412:\n        /* \"#utility.yul\":20179:20180   */\n      0x00\n        /* \"#utility.yul\":20176:20177   */\n      dup1\n        /* \"#utility.yul\":20169:20181   */\n      revert\n        /* \"#utility.yul\":20193:20310   */\n    tag_391:\n        /* \"#utility.yul\":20302:20303   */\n      0x00\n        /* \"#utility.yul\":20299:20300   */\n      dup1\n        /* \"#utility.yul\":20292:20304   */\n      revert\n        /* \"#utility.yul\":20316:20418   */\n    tag_459:\n        /* \"#utility.yul\":20357:20363   */\n      0x00\n        /* \"#utility.yul\":20408:20410   */\n      0x1f\n        /* \"#utility.yul\":20404:20411   */\n      not\n        /* \"#utility.yul\":20399:20401   */\n      0x1f\n        /* \"#utility.yul\":20392:20397   */\n      dup4\n        /* \"#utility.yul\":20388:20402   */\n      add\n        /* \"#utility.yul\":20384:20412   */\n      and\n        /* \"#utility.yul\":20374:20412   */\n      swap1\n      pop\n        /* \"#utility.yul\":20316:20418   */\n      swap2\n      swap1\n      pop\n      jump\t// out\n        /* \"#utility.yul\":20424:20649   */\n    tag_478:\n        /* \"#utility.yul\":20564:20598   */\n      0x4f776e61626c653a206e6577206f776e657220697320746865207a65726f2061\n        /* \"#utility.yul\":20560:20561   */\n      0x00\n        /* \"#utility.yul\":20552:20558   */\n      dup3\n        /* \"#utility.yul\":20548:20562   */\n      add\n        /* \"#utility.yul\":20541:20599   */\n      mstore\n        /* \"#utility.yul\":20633:20641   */\n      0x6464726573730000000000000000000000000000000000000000000000000000\n        /* \"#utility.yul\":20628:20630   */\n      0x20\n        /* \"#utility.yul\":20620:20626   */\n      dup3\n        /* \"#utility.yul\":20616:20631   */\n      add\n        /* \"#utility.yul\":20609:20642   */\n      mstore\n        /* \"#utility.yul\":20424:20649   */\n      pop\n      jump\t// out\n        /* \"#utility.yul\":20655:20823   */\n    tag_483:\n        /* \"#utility.yul\":20795:20815   */\n      0x496e73756666696369656e742046756e64730000000000000000000000000000\n        /* \"#utility.yul\":20791:20792   */\n      0x00\n        /* \"#utility.yul\":20783:20789   */\n      dup3\n        /* \"#utility.yul\":20779:20793   */\n      add\n        /* \"#utility.yul\":20772:20816   */\n      mstore\n        /* \"#utility.yul\":20655:20823   */\n      pop\n      jump\t// out\n        /* \"#utility.yul\":20829:21011   */\n    tag_488:\n        /* \"#utility.yul\":20969:21003   */\n      0x4f776e61626c653a2063616c6c6572206973206e6f7420746865206f776e6572\n        /* \"#utility.yul\":20965:20966   */\n      0x00\n        /* \"#utility.yul\":20957:20963   */\n      dup3\n        /* \"#utility.yul\":20953:20967   */\n      add\n        /* \"#utility.yul\":20946:21004   */\n      mstore\n        /* \"#utility.yul\":20829:21011   */\n      pop\n      jump\t// out\n        /* \"#utility.yul\":21017:21181   */\n    tag_493:\n        /* \"#utility.yul\":21157:21173   */\n      0x4d617820537570706c7920486974000000000000000000000000000000000000\n        /* \"#utility.yul\":21153:21154   */\n      0x00\n        /* \"#utility.yul\":21145:21151   */\n      dup3\n        /* \"#utility.yul\":21141:21155   */\n      add\n        /* \"#utility.yul\":21134:21174   */\n      mstore\n        /* \"#utility.yul\":21017:21181   */\n      pop\n      jump\t// out\n        /* \"#utility.yul\":21187:21352   */\n    tag_498:\n        /* \"#utility.yul\":21327:21344   */\n      0x5472616e73666572204661696c65640000000000000000000000000000000000\n        /* \"#utility.yul\":21323:21324   */\n      0x00\n        /* \"#utility.yul\":21315:21321   */\n      dup3\n        /* \"#utility.yul\":21311:21325   */\n      add\n        /* \"#utility.yul\":21304:21345   */\n      mstore\n        /* \"#utility.yul\":21187:21352   */\n      pop\n      jump\t// out\n        /* \"#utility.yul\":21358:21472   */\n    tag_504:\n      pop\n      jump\t// out\n        /* \"#utility.yul\":21478:21600   */\n    tag_356:\n        /* \"#utility.yul\":21551:21575   */\n      tag_605\n        /* \"#utility.yul\":21569:21574   */\n      dup2\n        /* \"#utility.yul\":21551:21575   */\n      tag_445\n      jump\t// in\n    tag_605:\n        /* \"#utility.yul\":21544:21549   */\n      dup2\n        /* \"#utility.yul\":21541:21576   */\n      eq\n        /* \"#utility.yul\":21531:21594   */\n      tag_606\n      jumpi\n        /* \"#utility.yul\":21590:21591   */\n      0x00\n        /* \"#utility.yul\":21587:21588   */\n      dup1\n        /* \"#utility.yul\":21580:21592   */\n      revert\n        /* \"#utility.yul\":21531:21594   */\n    tag_606:\n        /* \"#utility.yul\":21478:21600   */\n      pop\n      jump\t// out\n        /* \"#utility.yul\":21606:21722   */\n    tag_360:\n        /* \"#utility.yul\":21676:21697   */\n      tag_608\n        /* \"#utility.yul\":21691:21696   */\n      dup2\n        /* \"#utility.yul\":21676:21697   */\n      tag_449\n      jump\t// in\n    tag_608:\n        /* \"#utility.yul\":21669:21674   */\n      dup2\n        /* \"#utility.yul\":21666:21698   */\n      eq\n        /* \"#utility.yul\":21656:21716   */\n      tag_609\n      jumpi\n        /* \"#utility.yul\":21712:21713   */\n      0x00\n        /* \"#utility.yul\":21709:21710   */\n      dup1\n        /* \"#utility.yul\":21702:21714   */\n      revert\n        /* \"#utility.yul\":21656:21716   */\n    tag_609:\n        /* \"#utility.yul\":21606:21722   */\n      pop\n      jump\t// out\n        /* \"#utility.yul\":21728:21848   */\n    tag_364:\n        /* \"#utility.yul\":21800:21823   */\n      tag_611\n        /* \"#utility.yul\":21817:21822   */\n      dup2\n        /* \"#utility.yul\":21800:21823   */\n      tag_569\n      jump\t// in\n    tag_611:\n        /* \"#utility.yul\":21793:21798   */\n      dup2\n        /* \"#utility.yul\":21790:21824   */\n      eq\n        /* \"#utility.yul\":21780:21842   */\n      tag_612\n      jumpi\n        /* \"#utility.yul\":21838:21839   */\n      0x00\n        /* \"#utility.yul\":21835:21836   */\n      dup1\n        /* \"#utility.yul\":21828:21840   */\n      revert\n        /* \"#utility.yul\":21780:21842   */\n    tag_612:\n        /* \"#utility.yul\":21728:21848   */\n      pop\n      jump\t// out\n        /* \"#utility.yul\":21854:21976   */\n    tag_387:\n        /* \"#utility.yul\":21927:21951   */\n      tag_614\n        /* \"#utility.yul\":21945:21950   */\n      dup2\n        /* \"#utility.yul\":21927:21951   */\n      tag_508\n      jump\t// in\n    tag_614:\n        /* \"#utility.yul\":21920:21925   */\n      dup2\n        /* \"#utility.yul\":21917:21952   */\n      eq\n        /* \"#utility.yul\":21907:21970   */\n      tag_615\n      jumpi\n        /* \"#utility.yul\":21966:21967   */\n      0x00\n        /* \"#utility.yul\":21963:21964   */\n      dup1\n        /* \"#utility.yul\":21956:21968   */\n      revert\n        /* \"#utility.yul\":21907:21970   */\n    tag_615:\n        /* \"#utility.yul\":21854:21976   */\n      pop\n      jump\t// out\n\n    auxdata: 0xa2646970667358221220fb301be69ddd67f65d0bd3147d61095e520f9521800ffaf71375773b1832453364736f6c63430008070033\n}\n",
				"bytecode": {
					"linkReferences": {},
					"object": "60806040523480156200001157600080fd5b50604051620028e4380380620028e48339818101604052810190620000379190620002ac565b6040518060400160405280600d81526020017f4552433732314120546f6b656e000000000000000000000000000000000000008152506040518060400160405280600581526020017f3732314154000000000000000000000000000000000000000000000000000000815250620000c3620000b76200011460201b60201c565b6200011c60201b60201c565b8160039080519060200190620000db929190620001e5565b508060049080519060200190620000f4929190620001e5565b5062000105620001e060201b60201c565b6001819055505050506200036e565b600033905090565b60008060009054906101000a900473ffffffffffffffffffffffffffffffffffffffff169050816000806101000a81548173ffffffffffffffffffffffffffffffffffffffff021916908373ffffffffffffffffffffffffffffffffffffffff1602179055508173ffffffffffffffffffffffffffffffffffffffff168173ffffffffffffffffffffffffffffffffffffffff167f8be0079c531659141344cd1fd0a4f28419497f9722a3daafe3b4186f6b6457e060405160405180910390a35050565b600090565b828054620001f390620002ea565b90600052602060002090601f01602090048101928262000217576000855562000263565b82601f106200023257805160ff191683800117855562000263565b8280016001018555821562000263579182015b828111156200026257825182559160200191906001019062000245565b5b50905062000272919062000276565b5090565b5b808211156200029157600081600090555060010162000277565b5090565b600081519050620002a68162000354565b92915050565b600060208284031215620002c557620002c46200034f565b5b6000620002d58482850162000295565b91505092915050565b60008115159050919050565b600060028204905060018216806200030357607f821691505b602082108114156200031a576200031962000320565b5b50919050565b7f4e487b7100000000000000000000000000000000000000000000000000000000600052602260045260246000fd5b600080fd5b6200035f81620002de565b81146200036b57600080fd5b50565b612566806200037e6000396000f3fe6080604052600436106101355760003560e01c80636352211e116100ab57806395d89b411161006f57806395d89b41146103cc578063a22cb465146103f7578063b88d4fde14610420578063c87b56dd1461043c578063e985e9c514610479578063f2fde38b146104b657610135565b80636352211e146102e557806370a0823114610322578063715018a61461035f578063833b9499146103765780638da5cb5b146103a157610135565b806323b872dd116100fd57806323b872dd1461022657806332cb6b0c146102425780633ccfd60b1461026d57806340c10f191461028457806342842e0e146102a057806355f804b3146102bc57610135565b806301ffc9a71461013a57806306fdde0314610177578063081812fc146101a2578063095ea7b3146101df57806318160ddd146101fb575b600080fd5b34801561014657600080fd5b50610161600480360381019061015c9190611ca7565b6104df565b60405161016e9190611fbd565b60405180910390f35b34801561018357600080fd5b5061018c610571565b6040516101999190611fd8565b60405180910390f35b3480156101ae57600080fd5b506101c960048036038101906101c49190611d4e565b610603565b6040516101d69190611f56565b60405180910390f35b6101f960048036038101906101f49190611c67565b610682565b005b34801561020757600080fd5b506102106107c6565b60405161021d919061209a565b60405180910390f35b610240600480360381019061023b9190611b51565b6107dd565b005b34801561024e57600080fd5b50610257610b02565b604051610264919061209a565b60405180910390f35b34801561027957600080fd5b50610282610b07565b005b61029e60048036038101906102999190611c67565b610bbe565b005b6102ba60048036038101906102b59190611b51565b610c77565b005b3480156102c857600080fd5b506102e360048036038101906102de9190611d01565b610c97565b005b3480156102f157600080fd5b5061030c60048036038101906103079190611d4e565b610cb5565b6040516103199190611f56565b60405180910390f35b34801561032e57600080fd5b5061034960048036038101906103449190611ae4565b610cc7565b604051610356919061209a565b60405180910390f35b34801561036b57600080fd5b50610374610d80565b005b34801561038257600080fd5b5061038b610d94565b604051610398919061209a565b60405180910390f35b3480156103ad57600080fd5b506103b6610d9f565b6040516103c39190611f56565b60405180910390f35b3480156103d857600080fd5b506103e1610dc8565b6040516103ee9190611fd8565b60405180910390f35b34801561040357600080fd5b5061041e60048036038101906104199190611c27565b610e5a565b005b61043a60048036038101906104359190611ba4565b610f65565b005b34801561044857600080fd5b50610463600480360381019061045e9190611d4e565b610fd8565b6040516104709190611fd8565b60405180910390f35b34801561048557600080fd5b506104a0600480360381019061049b9190611b11565b611077565b6040516104ad9190611fbd565b60405180910390f35b3480156104c257600080fd5b506104dd60048036038101906104d89190611ae4565b61110b565b005b60006301ffc9a760e01b827bffffffffffffffffffffffffffffffffffffffffffffffffffffffff1916148061053a57506380ac58cd60e01b827bffffffffffffffffffffffffffffffffffffffffffffffffffffffff1916145b8061056a5750635b5e139f60e01b827bffffffffffffffffffffffffffffffffffffffffffffffffffffffff1916145b9050919050565b606060038054610580906122bf565b80601f01602080910402602001604051908101604052809291908181526020018280546105ac906122bf565b80156105f95780601f106105ce576101008083540402835291602001916105f9565b820191906000526020600020905b8154815290600101906020018083116105dc57829003601f168201915b5050505050905090565b600061060e8261118f565b610644576040517fcf4700e400000000000000000000000000000000000000000000000000000000815260040160405180910390fd5b6007600083815260200190815260200160002060000160009054906101000a900473ffffffffffffffffffffffffffffffffffffffff169050919050565b600061068d82610cb5565b90508073ffffffffffffffffffffffffffffffffffffffff166106ae6111ee565b73ffffffffffffffffffffffffffffffffffffffff1614610711576106da816106d56111ee565b611077565b610710576040517fcfb3b94200000000000000000000000000000000000000000000000000000000815260040160405180910390fd5b5b826007600084815260200190815260200160002060000160006101000a81548173ffffffffffffffffffffffffffffffffffffffff021916908373ffffffffffffffffffffffffffffffffffffffff160217905550818373ffffffffffffffffffffffffffffffffffffffff168273ffffffffffffffffffffffffffffffffffffffff167f8c5be1e5ebec7d5bd14f71427d1e84f3dd0314c0f7b2291e5b200ac8c7c3b92560405160405180910390a4505050565b60006107d06111f6565b6002546001540303905090565b60006107e8826111fb565b90508373ffffffffffffffffffffffffffffffffffffffff168173ffffffffffffffffffffffffffffffffffffffff161461084f576040517fa114810000000000000000000000000000000000000000000000000000000000815260040160405180910390fd5b60008061085b846112c9565b91509150610871818761086c6111ee565b6112f0565b6108bd57610886866108816111ee565b611077565b6108bc576040517f59c896be00000000000000000000000000000000000000000000000000000000815260040160405180910390fd5b5b600073ffffffffffffffffffffffffffffffffffffffff168573ffffffffffffffffffffffffffffffffffffffff161415610924576040517fea553b3400000000000000000000000000000000000000000000000000000000815260040160405180910390fd5b6109318686866001611334565b801561093c57600082555b600660008773ffffffffffffffffffffffffffffffffffffffff1673ffffffffffffffffffffffffffffffffffffffff168152602001908152602001600020600081546001900391905081905550600660008673ffffffffffffffffffffffffffffffffffffffff1673ffffffffffffffffffffffffffffffffffffffff1681526020019081526020016000206000815460010191905081905550610a0a856109e688888761133a565b7c020000000000000000000000000000000000000000000000000000000017611362565b600560008681526020019081526020016000208190555060007c020000000000000000000000000000000000000000000000000000000084161415610a92576000600185019050600060056000838152602001908152602001600020541415610a90576001548114610a8f578360056000838152602001908152602001600020819055505b5b505b838573ffffffffffffffffffffffffffffffffffffffff168773ffffffffffffffffffffffffffffffffffffffff167fddf252ad1be2c89b69c2b068fc378daa952ba7f163c4a11628f55a4df523b3ef60405160405180910390a4610afa868686600161138d565b505050505050565b606481565b610b0f611393565b60003373ffffffffffffffffffffffffffffffffffffffff1647604051610b3590611f41565b60006040518083038185875af1925050503d8060008114610b72576040519150601f19603f3d011682016040523d82523d6000602084013e610b77565b606091505b5050905080610bbb576040517f08c379a0000000000000000000000000000000000000000000000000000000008152600401610bb29061207a565b60405180910390fd5b50565b606481610bc9611411565b610bd39190612159565b1115610c14576040517f08c379a0000000000000000000000000000000000000000000000000000000008152600401610c0b9061205a565b60405180910390fd5b662386f26fc1000081610c2791906121af565b341015610c69576040517f08c379a0000000000000000000000000000000000000000000000000000000008152600401610c609061201a565b60405180910390fd5b610c738282611424565b5050565b610c9283838360405180602001604052806000815250610f65565b505050565b610c9f611393565b818160099190610cb0929190611912565b505050565b6000610cc0826111fb565b9050919050565b60008073ffffffffffffffffffffffffffffffffffffffff168273ffffffffffffffffffffffffffffffffffffffff161415610d2f576040517f8f4eb60400000000000000000000000000000000000000000000000000000000815260040160405180910390fd5b67ffffffffffffffff600660008473ffffffffffffffffffffffffffffffffffffffff1673ffffffffffffffffffffffffffffffffffffffff16815260200190815260200160002054169050919050565b610d88611393565b610d9260006115e2565b565b662386f26fc1000081565b60008060009054906101000a900473ffffffffffffffffffffffffffffffffffffffff16905090565b606060048054610dd7906122bf565b80601f0160208091040260200160405190810160405280929190818152602001828054610e03906122bf565b8015610e505780601f10610e2557610100808354040283529160200191610e50565b820191906000526020600020905b815481529060010190602001808311610e3357829003601f168201915b5050505050905090565b8060086000610e676111ee565b73ffffffffffffffffffffffffffffffffffffffff1673ffffffffffffffffffffffffffffffffffffffff16815260200190815260200160002060008473ffffffffffffffffffffffffffffffffffffffff1673ffffffffffffffffffffffffffffffffffffffff16815260200190815260200160002060006101000a81548160ff0219169083151502179055508173ffffffffffffffffffffffffffffffffffffffff16610f146111ee565b73ffffffffffffffffffffffffffffffffffffffff167f17307eab39ab6107e8899845ad3d59bd9653f200f220920489ca2b5937696c3183604051610f599190611fbd565b60405180910390a35050565b610f708484846107dd565b60008373ffffffffffffffffffffffffffffffffffffffff163b14610fd257610f9b848484846116a6565b610fd1576040517fd1a57ed600000000000000000000000000000000000000000000000000000000815260040160405180910390fd5b5b50505050565b6060610fe38261118f565b611019576040517fa14c4b5000000000000000000000000000000000000000000000000000000000815260040160405180910390fd5b6000611023611806565b9050600081511415611044576040518060200160405280600081525061106f565b8061104e84611898565b60405160200161105f929190611f1d565b6040516020818303038152906040525b915050919050565b6000600860008473ffffffffffffffffffffffffffffffffffffffff1673ffffffffffffffffffffffffffffffffffffffff16815260200190815260200160002060008373ffffffffffffffffffffffffffffffffffffffff1673ffffffffffffffffffffffffffffffffffffffff16815260200190815260200160002060009054906101000a900460ff16905092915050565b611113611393565b600073ffffffffffffffffffffffffffffffffffffffff168173ffffffffffffffffffffffffffffffffffffffff161415611183576040517f08c379a000000000000000000000000000000000000000000000000000000000815260040161117a90611ffa565b60405180910390fd5b61118c816115e2565b50565b60008161119a6111f6565b111580156111a9575060015482105b80156111e7575060007c0100000000000000000000000000000000000000000000000000000000600560008581526020019081526020016000205416145b9050919050565b600033905090565b600090565b6000808290508061120a6111f6565b11611292576001548110156112915760006005600083815260200190815260200160002054905060007c01000000000000000000000000000000000000000000000000000000008216141561128f575b600081141561128557600560008360019003935083815260200190815260200160002054905061125a565b80925050506112c4565b505b5b6040517fdf2d9b4200000000000000000000000000000000000000000000000000000000815260040160405180910390fd5b919050565b60008060006007600085815260200190815260200160002090508092508254915050915091565b600073ffffffffffffffffffffffffffffffffffffffff8316925073ffffffffffffffffffffffffffffffffffffffff821691508382148383141790509392505050565b50505050565b60008060e883901c905060e86113518686846118f1565b62ffffff16901b9150509392505050565b600073ffffffffffffffffffffffffffffffffffffffff83169250814260a01b178317905092915050565b50505050565b61139b6118fa565b73ffffffffffffffffffffffffffffffffffffffff166113b9610d9f565b73ffffffffffffffffffffffffffffffffffffffff161461140f576040517f08c379a00000000000000000000000000000000000000000000000000000000081526004016114069061203a565b60405180910390fd5b565b600061141b6111f6565b60015403905090565b600060015490506000821415611466576040517fb562e8dd00000000000000000000000000000000000000000000000000000000815260040160405180910390fd5b6114736000848385611334565b600160406001901b178202600660008573ffffffffffffffffffffffffffffffffffffffff1673ffffffffffffffffffffffffffffffffffffffff168152602001908152602001600020600082825401925050819055506114ea836114db600086600061133a565b6114e485611902565b17611362565b6005600083815260200190815260200160002081905550600080838301905073ffffffffffffffffffffffffffffffffffffffff85169150828260007fddf252ad1be2c89b69c2b068fc378daa952ba7f163c4a11628f55a4df523b3ef600080a4600183015b81811461158b57808360007fddf252ad1be2c89b69c2b068fc378daa952ba7f163c4a11628f55a4df523b3ef600080a4600181019050611550565b5060008214156115c7576040517f2e07630000000000000000000000000000000000000000000000000000000000815260040160405180910390fd5b8060018190555050506115dd600084838561138d565b505050565b60008060009054906101000a900473ffffffffffffffffffffffffffffffffffffffff169050816000806101000a81548173ffffffffffffffffffffffffffffffffffffffff021916908373ffffffffffffffffffffffffffffffffffffffff1602179055508173ffffffffffffffffffffffffffffffffffffffff168173ffffffffffffffffffffffffffffffffffffffff167f8be0079c531659141344cd1fd0a4f28419497f9722a3daafe3b4186f6b6457e060405160405180910390a35050565b60008373ffffffffffffffffffffffffffffffffffffffff1663150b7a026116cc6111ee565b8786866040518563ffffffff1660e01b81526004016116ee9493929190611f71565b602060405180830381600087803b15801561170857600080fd5b505af192505050801561173957506040513d601f19601f820116820180604052508101906117369190611cd4565b60015b6117b3573d8060008114611769576040519150601f19603f3d011682016040523d82523d6000602084013e61176e565b606091505b506000815114156117ab576040517fd1a57ed600000000000000000000000000000000000000000000000000000000815260040160405180910390fd5b805181602001fd5b63150b7a0260e01b7bffffffffffffffffffffffffffffffffffffffffffffffffffffffff1916817bffffffffffffffffffffffffffffffffffffffffffffffffffffffff191614915050949350505050565b606060098054611815906122bf565b80601f0160208091040260200160405190810160405280929190818152602001828054611841906122bf565b801561188e5780601f106118635761010080835404028352916020019161188e565b820191906000526020600020905b81548152906001019060200180831161187157829003601f168201915b5050505050905090565b606060a060405101806040526020810391506000825281835b6001156118dc57600184039350600a81066030018453600a81049050806118d7576118dc565b6118b1565b50828103602084039350808452505050919050565b60009392505050565b600033905090565b60006001821460e11b9050919050565b82805461191e906122bf565b90600052602060002090601f0160209004810192826119405760008555611987565b82601f1061195957803560ff1916838001178555611987565b82800160010185558215611987579182015b8281111561198657823582559160200191906001019061196b565b5b5090506119949190611998565b5090565b5b808211156119b1576000816000905550600101611999565b5090565b60006119c86119c3846120da565b6120b5565b9050828152602081018484840111156119e4576119e36123be565b5b6119ef84828561227d565b509392505050565b600081359050611a06816124d4565b92915050565b600081359050611a1b816124eb565b92915050565b600081359050611a3081612502565b92915050565b600081519050611a4581612502565b92915050565b600082601f830112611a6057611a5f6123b4565b5b8135611a708482602086016119b5565b91505092915050565b60008083601f840112611a8f57611a8e6123b4565b5b8235905067ffffffffffffffff811115611aac57611aab6123af565b5b602083019150836001820283011115611ac857611ac76123b9565b5b9250929050565b600081359050611ade81612519565b92915050565b600060208284031215611afa57611af96123c8565b5b6000611b08848285016119f7565b91505092915050565b60008060408385031215611b2857611b276123c8565b5b6000611b36858286016119f7565b9250506020611b47858286016119f7565b9150509250929050565b600080600060608486031215611b6a57611b696123c8565b5b6000611b78868287016119f7565b9350506020611b89868287016119f7565b9250506040611b9a86828701611acf565b9150509250925092565b60008060008060808587031215611bbe57611bbd6123c8565b5b6000611bcc878288016119f7565b9450506020611bdd878288016119f7565b9350506040611bee87828801611acf565b925050606085013567ffffffffffffffff811115611c0f57611c0e6123c3565b5b611c1b87828801611a4b565b91505092959194509250565b60008060408385031215611c3e57611c3d6123c8565b5b6000611c4c858286016119f7565b9250506020611c5d85828601611a0c565b9150509250929050565b60008060408385031215611c7e57611c7d6123c8565b5b6000611c8c858286016119f7565b9250506020611c9d85828601611acf565b9150509250929050565b600060208284031215611cbd57611cbc6123c8565b5b6000611ccb84828501611a21565b91505092915050565b600060208284031215611cea57611ce96123c8565b5b6000611cf884828501611a36565b91505092915050565b60008060208385031215611d1857611d176123c8565b5b600083013567ffffffffffffffff811115611d3657611d356123c3565b5b611d4285828601611a79565b92509250509250929050565b600060208284031215611d6457611d636123c8565b5b6000611d7284828501611acf565b91505092915050565b611d8481612209565b82525050565b611d938161221b565b82525050565b6000611da48261210b565b611dae8185612121565b9350611dbe81856020860161228c565b611dc7816123cd565b840191505092915050565b6000611ddd82612116565b611de7818561213d565b9350611df781856020860161228c565b611e00816123cd565b840191505092915050565b6000611e1682612116565b611e20818561214e565b9350611e3081856020860161228c565b80840191505092915050565b6000611e4960268361213d565b9150611e54826123de565b604082019050919050565b6000611e6c60128361213d565b9150611e778261242d565b602082019050919050565b6000611e8f60208361213d565b9150611e9a82612456565b602082019050919050565b6000611eb2600e8361213d565b9150611ebd8261247f565b602082019050919050565b6000611ed5600f8361213d565b9150611ee0826124a8565b602082019050919050565b6000611ef8600083612132565b9150611f03826124d1565b600082019050919050565b611f1781612273565b82525050565b6000611f298285611e0b565b9150611f358284611e0b565b91508190509392505050565b6000611f4c82611eeb565b9150819050919050565b6000602082019050611f6b6000830184611d7b565b92915050565b6000608082019050611f866000830187611d7b565b611f936020830186611d7b565b611fa06040830185611f0e565b8181036060830152611fb28184611d99565b905095945050505050565b6000602082019050611fd26000830184611d8a565b92915050565b60006020820190508181036000830152611ff28184611dd2565b905092915050565b6000602082019050818103600083015261201381611e3c565b9050919050565b6000602082019050818103600083015261203381611e5f565b9050919050565b6000602082019050818103600083015261205381611e82565b9050919050565b6000602082019050818103600083015261207381611ea5565b9050919050565b6000602082019050818103600083015261209381611ec8565b9050919050565b60006020820190506120af6000830184611f0e565b92915050565b60006120bf6120d0565b90506120cb82826122f1565b919050565b6000604051905090565b600067ffffffffffffffff8211156120f5576120f4612380565b5b6120fe826123cd565b9050602081019050919050565b600081519050919050565b600081519050919050565b600082825260208201905092915050565b600081905092915050565b600082825260208201905092915050565b600081905092915050565b600061216482612273565b915061216f83612273565b9250827fffffffffffffffffffffffffffffffffffffffffffffffffffffffffffffffff038211156121a4576121a3612322565b5b828201905092915050565b60006121ba82612273565b91506121c583612273565b9250817fffffffffffffffffffffffffffffffffffffffffffffffffffffffffffffffff04831182151516156121fe576121fd612322565b5b828202905092915050565b600061221482612253565b9050919050565b60008115159050919050565b60007fffffffff0000000000000000000000000000000000000000000000000000000082169050919050565b600073ffffffffffffffffffffffffffffffffffffffff82169050919050565b6000819050919050565b82818337600083830152505050565b60005b838110156122aa57808201518184015260208101905061228f565b838111156122b9576000848401525b50505050565b600060028204905060018216806122d757607f821691505b602082108114156122eb576122ea612351565b5b50919050565b6122fa826123cd565b810181811067ffffffffffffffff8211171561231957612318612380565b5b80604052505050565b7f4e487b7100000000000000000000000000000000000000000000000000000000600052601160045260246000fd5b7f4e487b7100000000000000000000000000000000000000000000000000000000600052602260045260246000fd5b7f4e487b7100000000000000000000000000000000000000000000000000000000600052604160045260246000fd5b600080fd5b600080fd5b600080fd5b600080fd5b600080fd5b600080fd5b6000601f19601f8301169050919050565b7f4f776e61626c653a206e6577206f776e657220697320746865207a65726f206160008201527f6464726573730000000000000000000000000000000000000000000000000000602082015250565b7f496e73756666696369656e742046756e64730000000000000000000000000000600082015250565b7f4f776e61626c653a2063616c6c6572206973206e6f7420746865206f776e6572600082015250565b7f4d617820537570706c7920486974000000000000000000000000000000000000600082015250565b7f5472616e73666572204661696c65640000000000000000000000000000000000600082015250565b50565b6124dd81612209565b81146124e857600080fd5b50565b6124f48161221b565b81146124ff57600080fd5b50565b61250b81612227565b811461251657600080fd5b50565b61252281612273565b811461252d57600080fd5b5056fea2646970667358221220fb301be69ddd67f65d0bd3147d61095e520f9521800ffaf71375773b1832453364736f6c63430008070033",
					"opcodes": "PUSH1 0x80 PUSH1 0x40 MSTORE CALLVALUE DUP1 ISZERO PUSH3 0x11 JUMPI PUSH1 0x0 DUP1 REVERT JUMPDEST POP PUSH1 0x40 MLOAD PUSH3 0x28E4 CODESIZE SUB DUP1 PUSH3 0x28E4 DUP4 CODECOPY DUP2 DUP2 ADD PUSH1 0x40 MSTORE DUP2 ADD SWAP1 PUSH3 0x37 SWAP2 SWAP1 PUSH3 0x2AC JUMP JUMPDEST PUSH1 0x40 MLOAD DUP1 PUSH1 0x40 ADD PUSH1 0x40 MSTORE DUP1 PUSH1 0xD DUP2 MSTORE PUSH1 0x20 ADD PUSH32 0x4552433732314120546F6B656E00000000000000000000000000000000000000 DUP2 MSTORE POP PUSH1 0x40 MLOAD DUP1 PUSH1 0x40 ADD PUSH1 0x40 MSTORE DUP1 PUSH1 0x5 DUP2 MSTORE PUSH1 0x20 ADD PUSH32 0x3732314154000000000000000000000000000000000000000000000000000000 DUP2 MSTORE POP PUSH3 0xC3 PUSH3 0xB7 PUSH3 0x114 PUSH1 0x20 SHL PUSH1 0x20 SHR JUMP JUMPDEST PUSH3 0x11C PUSH1 0x20 SHL PUSH1 0x20 SHR JUMP JUMPDEST DUP2 PUSH1 0x3 SWAP1 DUP1 MLOAD SWAP1 PUSH1 0x20 ADD SWAP1 PUSH3 0xDB SWAP3 SWAP2 SWAP1 PUSH3 0x1E5 JUMP JUMPDEST POP DUP1 PUSH1 0x4 SWAP1 DUP1 MLOAD SWAP1 PUSH1 0x20 ADD SWAP1 PUSH3 0xF4 SWAP3 SWAP2 SWAP1 PUSH3 0x1E5 JUMP JUMPDEST POP PUSH3 0x105 PUSH3 0x1E0 PUSH1 0x20 SHL PUSH1 0x20 SHR JUMP JUMPDEST PUSH1 0x1 DUP2 SWAP1 SSTORE POP POP POP POP PUSH3 0x36E JUMP JUMPDEST PUSH1 0x0 CALLER SWAP1 POP SWAP1 JUMP JUMPDEST PUSH1 0x0 DUP1 PUSH1 0x0 SWAP1 SLOAD SWAP1 PUSH2 0x100 EXP SWAP1 DIV PUSH20 0xFFFFFFFFFFFFFFFFFFFFFFFFFFFFFFFFFFFFFFFF AND SWAP1 POP DUP2 PUSH1 0x0 DUP1 PUSH2 0x100 EXP DUP2 SLOAD DUP2 PUSH20 0xFFFFFFFFFFFFFFFFFFFFFFFFFFFFFFFFFFFFFFFF MUL NOT AND SWAP1 DUP4 PUSH20 0xFFFFFFFFFFFFFFFFFFFFFFFFFFFFFFFFFFFFFFFF AND MUL OR SWAP1 SSTORE POP DUP2 PUSH20 0xFFFFFFFFFFFFFFFFFFFFFFFFFFFFFFFFFFFFFFFF AND DUP2 PUSH20 0xFFFFFFFFFFFFFFFFFFFFFFFFFFFFFFFFFFFFFFFF AND PUSH32 0x8BE0079C531659141344CD1FD0A4F28419497F9722A3DAAFE3B4186F6B6457E0 PUSH1 0x40 MLOAD PUSH1 0x40 MLOAD DUP1 SWAP2 SUB SWAP1 LOG3 POP POP JUMP JUMPDEST PUSH1 0x0 SWAP1 JUMP JUMPDEST DUP3 DUP1 SLOAD PUSH3 0x1F3 SWAP1 PUSH3 0x2EA JUMP JUMPDEST SWAP1 PUSH1 0x0 MSTORE PUSH1 0x20 PUSH1 0x0 KECCAK256 SWAP1 PUSH1 0x1F ADD PUSH1 0x20 SWAP1 DIV DUP2 ADD SWAP3 DUP3 PUSH3 0x217 JUMPI PUSH1 0x0 DUP6 SSTORE PUSH3 0x263 JUMP JUMPDEST DUP3 PUSH1 0x1F LT PUSH3 0x232 JUMPI DUP1 MLOAD PUSH1 0xFF NOT AND DUP4 DUP1 ADD OR DUP6 SSTORE PUSH3 0x263 JUMP JUMPDEST DUP3 DUP1 ADD PUSH1 0x1 ADD DUP6 SSTORE DUP3 ISZERO PUSH3 0x263 JUMPI SWAP2 DUP3 ADD JUMPDEST DUP3 DUP2 GT ISZERO PUSH3 0x262 JUMPI DUP3 MLOAD DUP3 SSTORE SWAP2 PUSH1 0x20 ADD SWAP2 SWAP1 PUSH1 0x1 ADD SWAP1 PUSH3 0x245 JUMP JUMPDEST JUMPDEST POP SWAP1 POP PUSH3 0x272 SWAP2 SWAP1 PUSH3 0x276 JUMP JUMPDEST POP SWAP1 JUMP JUMPDEST JUMPDEST DUP1 DUP3 GT ISZERO PUSH3 0x291 JUMPI PUSH1 0x0 DUP2 PUSH1 0x0 SWAP1 SSTORE POP PUSH1 0x1 ADD PUSH3 0x277 JUMP JUMPDEST POP SWAP1 JUMP JUMPDEST PUSH1 0x0 DUP2 MLOAD SWAP1 POP PUSH3 0x2A6 DUP2 PUSH3 0x354 JUMP JUMPDEST SWAP3 SWAP2 POP POP JUMP JUMPDEST PUSH1 0x0 PUSH1 0x20 DUP3 DUP5 SUB SLT ISZERO PUSH3 0x2C5 JUMPI PUSH3 0x2C4 PUSH3 0x34F JUMP JUMPDEST JUMPDEST PUSH1 0x0 PUSH3 0x2D5 DUP5 DUP3 DUP6 ADD PUSH3 0x295 JUMP JUMPDEST SWAP2 POP POP SWAP3 SWAP2 POP POP JUMP JUMPDEST PUSH1 0x0 DUP2 ISZERO ISZERO SWAP1 POP SWAP2 SWAP1 POP JUMP JUMPDEST PUSH1 0x0 PUSH1 0x2 DUP3 DIV SWAP1 POP PUSH1 0x1 DUP3 AND DUP1 PUSH3 0x303 JUMPI PUSH1 0x7F DUP3 AND SWAP2 POP JUMPDEST PUSH1 0x20 DUP3 LT DUP2 EQ ISZERO PUSH3 0x31A JUMPI PUSH3 0x319 PUSH3 0x320 JUMP JUMPDEST JUMPDEST POP SWAP2 SWAP1 POP JUMP JUMPDEST PUSH32 0x4E487B7100000000000000000000000000000000000000000000000000000000 PUSH1 0x0 MSTORE PUSH1 0x22 PUSH1 0x4 MSTORE PUSH1 0x24 PUSH1 0x0 REVERT JUMPDEST PUSH1 0x0 DUP1 REVERT JUMPDEST PUSH3 0x35F DUP2 PUSH3 0x2DE JUMP JUMPDEST DUP2 EQ PUSH3 0x36B JUMPI PUSH1 0x0 DUP1 REVERT JUMPDEST POP JUMP JUMPDEST PUSH2 0x2566 DUP1 PUSH3 0x37E PUSH1 0x0 CODECOPY PUSH1 0x0 RETURN INVALID PUSH1 0x80 PUSH1 0x40 MSTORE PUSH1 0x4 CALLDATASIZE LT PUSH2 0x135 JUMPI PUSH1 0x0 CALLDATALOAD PUSH1 0xE0 SHR DUP1 PUSH4 0x6352211E GT PUSH2 0xAB JUMPI DUP1 PUSH4 0x95D89B41 GT PUSH2 0x6F JUMPI DUP1 PUSH4 0x95D89B41 EQ PUSH2 0x3CC JUMPI DUP1 PUSH4 0xA22CB465 EQ PUSH2 0x3F7 JUMPI DUP1 PUSH4 0xB88D4FDE EQ PUSH2 0x420 JUMPI DUP1 PUSH4 0xC87B56DD EQ PUSH2 0x43C JUMPI DUP1 PUSH4 0xE985E9C5 EQ PUSH2 0x479 JUMPI DUP1 PUSH4 0xF2FDE38B EQ PUSH2 0x4B6 JUMPI PUSH2 0x135 JUMP JUMPDEST DUP1 PUSH4 0x6352211E EQ PUSH2 0x2E5 JUMPI DUP1 PUSH4 0x70A08231 EQ PUSH2 0x322 JUMPI DUP1 PUSH4 0x715018A6 EQ PUSH2 0x35F JUMPI DUP1 PUSH4 0x833B9499 EQ PUSH2 0x376 JUMPI DUP1 PUSH4 0x8DA5CB5B EQ PUSH2 0x3A1 JUMPI PUSH2 0x135 JUMP JUMPDEST DUP1 PUSH4 0x23B872DD GT PUSH2 0xFD JUMPI DUP1 PUSH4 0x23B872DD EQ PUSH2 0x226 JUMPI DUP1 PUSH4 0x32CB6B0C EQ PUSH2 0x242 JUMPI DUP1 PUSH4 0x3CCFD60B EQ PUSH2 0x26D JUMPI DUP1 PUSH4 0x40C10F19 EQ PUSH2 0x284 JUMPI DUP1 PUSH4 0x42842E0E EQ PUSH2 0x2A0 JUMPI DUP1 PUSH4 0x55F804B3 EQ PUSH2 0x2BC JUMPI PUSH2 0x135 JUMP JUMPDEST DUP1 PUSH4 0x1FFC9A7 EQ PUSH2 0x13A JUMPI DUP1 PUSH4 0x6FDDE03 EQ PUSH2 0x177 JUMPI DUP1 PUSH4 0x81812FC EQ PUSH2 0x1A2 JUMPI DUP1 PUSH4 0x95EA7B3 EQ PUSH2 0x1DF JUMPI DUP1 PUSH4 0x18160DDD EQ PUSH2 0x1FB JUMPI JUMPDEST PUSH1 0x0 DUP1 REVERT JUMPDEST CALLVALUE DUP1 ISZERO PUSH2 0x146 JUMPI PUSH1 0x0 DUP1 REVERT JUMPDEST POP PUSH2 0x161 PUSH1 0x4 DUP1 CALLDATASIZE SUB DUP2 ADD SWAP1 PUSH2 0x15C SWAP2 SWAP1 PUSH2 0x1CA7 JUMP JUMPDEST PUSH2 0x4DF JUMP JUMPDEST PUSH1 0x40 MLOAD PUSH2 0x16E SWAP2 SWAP1 PUSH2 0x1FBD JUMP JUMPDEST PUSH1 0x40 MLOAD DUP1 SWAP2 SUB SWAP1 RETURN JUMPDEST CALLVALUE DUP1 ISZERO PUSH2 0x183 JUMPI PUSH1 0x0 DUP1 REVERT JUMPDEST POP PUSH2 0x18C PUSH2 0x571 JUMP JUMPDEST PUSH1 0x40 MLOAD PUSH2 0x199 SWAP2 SWAP1 PUSH2 0x1FD8 JUMP JUMPDEST PUSH1 0x40 MLOAD DUP1 SWAP2 SUB SWAP1 RETURN JUMPDEST CALLVALUE DUP1 ISZERO PUSH2 0x1AE JUMPI PUSH1 0x0 DUP1 REVERT JUMPDEST POP PUSH2 0x1C9 PUSH1 0x4 DUP1 CALLDATASIZE SUB DUP2 ADD SWAP1 PUSH2 0x1C4 SWAP2 SWAP1 PUSH2 0x1D4E JUMP JUMPDEST PUSH2 0x603 JUMP JUMPDEST PUSH1 0x40 MLOAD PUSH2 0x1D6 SWAP2 SWAP1 PUSH2 0x1F56 JUMP JUMPDEST PUSH1 0x40 MLOAD DUP1 SWAP2 SUB SWAP1 RETURN JUMPDEST PUSH2 0x1F9 PUSH1 0x4 DUP1 CALLDATASIZE SUB DUP2 ADD SWAP1 PUSH2 0x1F4 SWAP2 SWAP1 PUSH2 0x1C67 JUMP JUMPDEST PUSH2 0x682 JUMP JUMPDEST STOP JUMPDEST CALLVALUE DUP1 ISZERO PUSH2 0x207 JUMPI PUSH1 0x0 DUP1 REVERT JUMPDEST POP PUSH2 0x210 PUSH2 0x7C6 JUMP JUMPDEST PUSH1 0x40 MLOAD PUSH2 0x21D SWAP2 SWAP1 PUSH2 0x209A JUMP JUMPDEST PUSH1 0x40 MLOAD DUP1 SWAP2 SUB SWAP1 RETURN JUMPDEST PUSH2 0x240 PUSH1 0x4 DUP1 CALLDATASIZE SUB DUP2 ADD SWAP1 PUSH2 0x23B SWAP2 SWAP1 PUSH2 0x1B51 JUMP JUMPDEST PUSH2 0x7DD JUMP JUMPDEST STOP JUMPDEST CALLVALUE DUP1 ISZERO PUSH2 0x24E JUMPI PUSH1 0x0 DUP1 REVERT JUMPDEST POP PUSH2 0x257 PUSH2 0xB02 JUMP JUMPDEST PUSH1 0x40 MLOAD PUSH2 0x264 SWAP2 SWAP1 PUSH2 0x209A JUMP JUMPDEST PUSH1 0x40 MLOAD DUP1 SWAP2 SUB SWAP1 RETURN JUMPDEST CALLVALUE DUP1 ISZERO PUSH2 0x279 JUMPI PUSH1 0x0 DUP1 REVERT JUMPDEST POP PUSH2 0x282 PUSH2 0xB07 JUMP JUMPDEST STOP JUMPDEST PUSH2 0x29E PUSH1 0x4 DUP1 CALLDATASIZE SUB DUP2 ADD SWAP1 PUSH2 0x299 SWAP2 SWAP1 PUSH2 0x1C67 JUMP JUMPDEST PUSH2 0xBBE JUMP JUMPDEST STOP JUMPDEST PUSH2 0x2BA PUSH1 0x4 DUP1 CALLDATASIZE SUB DUP2 ADD SWAP1 PUSH2 0x2B5 SWAP2 SWAP1 PUSH2 0x1B51 JUMP JUMPDEST PUSH2 0xC77 JUMP JUMPDEST STOP JUMPDEST CALLVALUE DUP1 ISZERO PUSH2 0x2C8 JUMPI PUSH1 0x0 DUP1 REVERT JUMPDEST POP PUSH2 0x2E3 PUSH1 0x4 DUP1 CALLDATASIZE SUB DUP2 ADD SWAP1 PUSH2 0x2DE SWAP2 SWAP1 PUSH2 0x1D01 JUMP JUMPDEST PUSH2 0xC97 JUMP JUMPDEST STOP JUMPDEST CALLVALUE DUP1 ISZERO PUSH2 0x2F1 JUMPI PUSH1 0x0 DUP1 REVERT JUMPDEST POP PUSH2 0x30C PUSH1 0x4 DUP1 CALLDATASIZE SUB DUP2 ADD SWAP1 PUSH2 0x307 SWAP2 SWAP1 PUSH2 0x1D4E JUMP JUMPDEST PUSH2 0xCB5 JUMP JUMPDEST PUSH1 0x40 MLOAD PUSH2 0x319 SWAP2 SWAP1 PUSH2 0x1F56 JUMP JUMPDEST PUSH1 0x40 MLOAD DUP1 SWAP2 SUB SWAP1 RETURN JUMPDEST CALLVALUE DUP1 ISZERO PUSH2 0x32E JUMPI PUSH1 0x0 DUP1 REVERT JUMPDEST POP PUSH2 0x349 PUSH1 0x4 DUP1 CALLDATASIZE SUB DUP2 ADD SWAP1 PUSH2 0x344 SWAP2 SWAP1 PUSH2 0x1AE4 JUMP JUMPDEST PUSH2 0xCC7 JUMP JUMPDEST PUSH1 0x40 MLOAD PUSH2 0x356 SWAP2 SWAP1 PUSH2 0x209A JUMP JUMPDEST PUSH1 0x40 MLOAD DUP1 SWAP2 SUB SWAP1 RETURN JUMPDEST CALLVALUE DUP1 ISZERO PUSH2 0x36B JUMPI PUSH1 0x0 DUP1 REVERT JUMPDEST POP PUSH2 0x374 PUSH2 0xD80 JUMP JUMPDEST STOP JUMPDEST CALLVALUE DUP1 ISZERO PUSH2 0x382 JUMPI PUSH1 0x0 DUP1 REVERT JUMPDEST POP PUSH2 0x38B PUSH2 0xD94 JUMP JUMPDEST PUSH1 0x40 MLOAD PUSH2 0x398 SWAP2 SWAP1 PUSH2 0x209A JUMP JUMPDEST PUSH1 0x40 MLOAD DUP1 SWAP2 SUB SWAP1 RETURN JUMPDEST CALLVALUE DUP1 ISZERO PUSH2 0x3AD JUMPI PUSH1 0x0 DUP1 REVERT JUMPDEST POP PUSH2 0x3B6 PUSH2 0xD9F JUMP JUMPDEST PUSH1 0x40 MLOAD PUSH2 0x3C3 SWAP2 SWAP1 PUSH2 0x1F56 JUMP JUMPDEST PUSH1 0x40 MLOAD DUP1 SWAP2 SUB SWAP1 RETURN JUMPDEST CALLVALUE DUP1 ISZERO PUSH2 0x3D8 JUMPI PUSH1 0x0 DUP1 REVERT JUMPDEST POP PUSH2 0x3E1 PUSH2 0xDC8 JUMP JUMPDEST PUSH1 0x40 MLOAD PUSH2 0x3EE SWAP2 SWAP1 PUSH2 0x1FD8 JUMP JUMPDEST PUSH1 0x40 MLOAD DUP1 SWAP2 SUB SWAP1 RETURN JUMPDEST CALLVALUE DUP1 ISZERO PUSH2 0x403 JUMPI PUSH1 0x0 DUP1 REVERT JUMPDEST POP PUSH2 0x41E PUSH1 0x4 DUP1 CALLDATASIZE SUB DUP2 ADD SWAP1 PUSH2 0x419 SWAP2 SWAP1 PUSH2 0x1C27 JUMP JUMPDEST PUSH2 0xE5A JUMP JUMPDEST STOP JUMPDEST PUSH2 0x43A PUSH1 0x4 DUP1 CALLDATASIZE SUB DUP2 ADD SWAP1 PUSH2 0x435 SWAP2 SWAP1 PUSH2 0x1BA4 JUMP JUMPDEST PUSH2 0xF65 JUMP JUMPDEST STOP JUMPDEST CALLVALUE DUP1 ISZERO PUSH2 0x448 JUMPI PUSH1 0x0 DUP1 REVERT JUMPDEST POP PUSH2 0x463 PUSH1 0x4 DUP1 CALLDATASIZE SUB DUP2 ADD SWAP1 PUSH2 0x45E SWAP2 SWAP1 PUSH2 0x1D4E JUMP JUMPDEST PUSH2 0xFD8 JUMP JUMPDEST PUSH1 0x40 MLOAD PUSH2 0x470 SWAP2 SWAP1 PUSH2 0x1FD8 JUMP JUMPDEST PUSH1 0x40 MLOAD DUP1 SWAP2 SUB SWAP1 RETURN JUMPDEST CALLVALUE DUP1 ISZERO PUSH2 0x485 JUMPI PUSH1 0x0 DUP1 REVERT JUMPDEST POP PUSH2 0x4A0 PUSH1 0x4 DUP1 CALLDATASIZE SUB DUP2 ADD SWAP1 PUSH2 0x49B SWAP2 SWAP1 PUSH2 0x1B11 JUMP JUMPDEST PUSH2 0x1077 JUMP JUMPDEST PUSH1 0x40 MLOAD PUSH2 0x4AD SWAP2 SWAP1 PUSH2 0x1FBD JUMP JUMPDEST PUSH1 0x40 MLOAD DUP1 SWAP2 SUB SWAP1 RETURN JUMPDEST CALLVALUE DUP1 ISZERO PUSH2 0x4C2 JUMPI PUSH1 0x0 DUP1 REVERT JUMPDEST POP PUSH2 0x4DD PUSH1 0x4 DUP1 CALLDATASIZE SUB DUP2 ADD SWAP1 PUSH2 0x4D8 SWAP2 SWAP1 PUSH2 0x1AE4 JUMP JUMPDEST PUSH2 0x110B JUMP JUMPDEST STOP JUMPDEST PUSH1 0x0 PUSH4 0x1FFC9A7 PUSH1 0xE0 SHL DUP3 PUSH28 0xFFFFFFFFFFFFFFFFFFFFFFFFFFFFFFFFFFFFFFFFFFFFFFFFFFFFFFFF NOT AND EQ DUP1 PUSH2 0x53A JUMPI POP PUSH4 0x80AC58CD PUSH1 0xE0 SHL DUP3 PUSH28 0xFFFFFFFFFFFFFFFFFFFFFFFFFFFFFFFFFFFFFFFFFFFFFFFFFFFFFFFF NOT AND EQ JUMPDEST DUP1 PUSH2 0x56A JUMPI POP PUSH4 0x5B5E139F PUSH1 0xE0 SHL DUP3 PUSH28 0xFFFFFFFFFFFFFFFFFFFFFFFFFFFFFFFFFFFFFFFFFFFFFFFFFFFFFFFF NOT AND EQ JUMPDEST SWAP1 POP SWAP2 SWAP1 POP JUMP JUMPDEST PUSH1 0x60 PUSH1 0x3 DUP1 SLOAD PUSH2 0x580 SWAP1 PUSH2 0x22BF JUMP JUMPDEST DUP1 PUSH1 0x1F ADD PUSH1 0x20 DUP1 SWAP2 DIV MUL PUSH1 0x20 ADD PUSH1 0x40 MLOAD SWAP1 DUP2 ADD PUSH1 0x40 MSTORE DUP1 SWAP3 SWAP2 SWAP1 DUP2 DUP2 MSTORE PUSH1 0x20 ADD DUP3 DUP1 SLOAD PUSH2 0x5AC SWAP1 PUSH2 0x22BF JUMP JUMPDEST DUP1 ISZERO PUSH2 0x5F9 JUMPI DUP1 PUSH1 0x1F LT PUSH2 0x5CE JUMPI PUSH2 0x100 DUP1 DUP4 SLOAD DIV MUL DUP4 MSTORE SWAP2 PUSH1 0x20 ADD SWAP2 PUSH2 0x5F9 JUMP JUMPDEST DUP3 ADD SWAP2 SWAP1 PUSH1 0x0 MSTORE PUSH1 0x20 PUSH1 0x0 KECCAK256 SWAP1 JUMPDEST DUP2 SLOAD DUP2 MSTORE SWAP1 PUSH1 0x1 ADD SWAP1 PUSH1 0x20 ADD DUP1 DUP4 GT PUSH2 0x5DC JUMPI DUP3 SWAP1 SUB PUSH1 0x1F AND DUP3 ADD SWAP2 JUMPDEST POP POP POP POP POP SWAP1 POP SWAP1 JUMP JUMPDEST PUSH1 0x0 PUSH2 0x60E DUP3 PUSH2 0x118F JUMP JUMPDEST PUSH2 0x644 JUMPI PUSH1 0x40 MLOAD PUSH32 0xCF4700E400000000000000000000000000000000000000000000000000000000 DUP2 MSTORE PUSH1 0x4 ADD PUSH1 0x40 MLOAD DUP1 SWAP2 SUB SWAP1 REVERT JUMPDEST PUSH1 0x7 PUSH1 0x0 DUP4 DUP2 MSTORE PUSH1 0x20 ADD SWAP1 DUP2 MSTORE PUSH1 0x20 ADD PUSH1 0x0 KECCAK256 PUSH1 0x0 ADD PUSH1 0x0 SWAP1 SLOAD SWAP1 PUSH2 0x100 EXP SWAP1 DIV PUSH20 0xFFFFFFFFFFFFFFFFFFFFFFFFFFFFFFFFFFFFFFFF AND SWAP1 POP SWAP2 SWAP1 POP JUMP JUMPDEST PUSH1 0x0 PUSH2 0x68D DUP3 PUSH2 0xCB5 JUMP JUMPDEST SWAP1 POP DUP1 PUSH20 0xFFFFFFFFFFFFFFFFFFFFFFFFFFFFFFFFFFFFFFFF AND PUSH2 0x6AE PUSH2 0x11EE JUMP JUMPDEST PUSH20 0xFFFFFFFFFFFFFFFFFFFFFFFFFFFFFFFFFFFFFFFF AND EQ PUSH2 0x711 JUMPI PUSH2 0x6DA DUP2 PUSH2 0x6D5 PUSH2 0x11EE JUMP JUMPDEST PUSH2 0x1077 JUMP JUMPDEST PUSH2 0x710 JUMPI PUSH1 0x40 MLOAD PUSH32 0xCFB3B94200000000000000000000000000000000000000000000000000000000 DUP2 MSTORE PUSH1 0x4 ADD PUSH1 0x40 MLOAD DUP1 SWAP2 SUB SWAP1 REVERT JUMPDEST JUMPDEST DUP3 PUSH1 0x7 PUSH1 0x0 DUP5 DUP2 MSTORE PUSH1 0x20 ADD SWAP1 DUP2 MSTORE PUSH1 0x20 ADD PUSH1 0x0 KECCAK256 PUSH1 0x0 ADD PUSH1 0x0 PUSH2 0x100 EXP DUP2 SLOAD DUP2 PUSH20 0xFFFFFFFFFFFFFFFFFFFFFFFFFFFFFFFFFFFFFFFF MUL NOT AND SWAP1 DUP4 PUSH20 0xFFFFFFFFFFFFFFFFFFFFFFFFFFFFFFFFFFFFFFFF AND MUL OR SWAP1 SSTORE POP DUP2 DUP4 PUSH20 0xFFFFFFFFFFFFFFFFFFFFFFFFFFFFFFFFFFFFFFFF AND DUP3 PUSH20 0xFFFFFFFFFFFFFFFFFFFFFFFFFFFFFFFFFFFFFFFF AND PUSH32 0x8C5BE1E5EBEC7D5BD14F71427D1E84F3DD0314C0F7B2291E5B200AC8C7C3B925 PUSH1 0x40 MLOAD PUSH1 0x40 MLOAD DUP1 SWAP2 SUB SWAP1 LOG4 POP POP POP JUMP JUMPDEST PUSH1 0x0 PUSH2 0x7D0 PUSH2 0x11F6 JUMP JUMPDEST PUSH1 0x2 SLOAD PUSH1 0x1 SLOAD SUB SUB SWAP1 POP SWAP1 JUMP JUMPDEST PUSH1 0x0 PUSH2 0x7E8 DUP3 PUSH2 0x11FB JUMP JUMPDEST SWAP1 POP DUP4 PUSH20 0xFFFFFFFFFFFFFFFFFFFFFFFFFFFFFFFFFFFFFFFF AND DUP2 PUSH20 0xFFFFFFFFFFFFFFFFFFFFFFFFFFFFFFFFFFFFFFFF AND EQ PUSH2 0x84F JUMPI PUSH1 0x40 MLOAD PUSH32 0xA114810000000000000000000000000000000000000000000000000000000000 DUP2 MSTORE PUSH1 0x4 ADD PUSH1 0x40 MLOAD DUP1 SWAP2 SUB SWAP1 REVERT JUMPDEST PUSH1 0x0 DUP1 PUSH2 0x85B DUP5 PUSH2 0x12C9 JUMP JUMPDEST SWAP2 POP SWAP2 POP PUSH2 0x871 DUP2 DUP8 PUSH2 0x86C PUSH2 0x11EE JUMP JUMPDEST PUSH2 0x12F0 JUMP JUMPDEST PUSH2 0x8BD JUMPI PUSH2 0x886 DUP7 PUSH2 0x881 PUSH2 0x11EE JUMP JUMPDEST PUSH2 0x1077 JUMP JUMPDEST PUSH2 0x8BC JUMPI PUSH1 0x40 MLOAD PUSH32 0x59C896BE00000000000000000000000000000000000000000000000000000000 DUP2 MSTORE PUSH1 0x4 ADD PUSH1 0x40 MLOAD DUP1 SWAP2 SUB SWAP1 REVERT JUMPDEST JUMPDEST PUSH1 0x0 PUSH20 0xFFFFFFFFFFFFFFFFFFFFFFFFFFFFFFFFFFFFFFFF AND DUP6 PUSH20 0xFFFFFFFFFFFFFFFFFFFFFFFFFFFFFFFFFFFFFFFF AND EQ ISZERO PUSH2 0x924 JUMPI PUSH1 0x40 MLOAD PUSH32 0xEA553B3400000000000000000000000000000000000000000000000000000000 DUP2 MSTORE PUSH1 0x4 ADD PUSH1 0x40 MLOAD DUP1 SWAP2 SUB SWAP1 REVERT JUMPDEST PUSH2 0x931 DUP7 DUP7 DUP7 PUSH1 0x1 PUSH2 0x1334 JUMP JUMPDEST DUP1 ISZERO PUSH2 0x93C JUMPI PUSH1 0x0 DUP3 SSTORE JUMPDEST PUSH1 0x6 PUSH1 0x0 DUP8 PUSH20 0xFFFFFFFFFFFFFFFFFFFFFFFFFFFFFFFFFFFFFFFF AND PUSH20 0xFFFFFFFFFFFFFFFFFFFFFFFFFFFFFFFFFFFFFFFF AND DUP2 MSTORE PUSH1 0x20 ADD SWAP1 DUP2 MSTORE PUSH1 0x20 ADD PUSH1 0x0 KECCAK256 PUSH1 0x0 DUP2 SLOAD PUSH1 0x1 SWAP1 SUB SWAP2 SWAP1 POP DUP2 SWAP1 SSTORE POP PUSH1 0x6 PUSH1 0x0 DUP7 PUSH20 0xFFFFFFFFFFFFFFFFFFFFFFFFFFFFFFFFFFFFFFFF AND PUSH20 0xFFFFFFFFFFFFFFFFFFFFFFFFFFFFFFFFFFFFFFFF AND DUP2 MSTORE PUSH1 0x20 ADD SWAP1 DUP2 MSTORE PUSH1 0x20 ADD PUSH1 0x0 KECCAK256 PUSH1 0x0 DUP2 SLOAD PUSH1 0x1 ADD SWAP2 SWAP1 POP DUP2 SWAP1 SSTORE POP PUSH2 0xA0A DUP6 PUSH2 0x9E6 DUP9 DUP9 DUP8 PUSH2 0x133A JUMP JUMPDEST PUSH29 0x200000000000000000000000000000000000000000000000000000000 OR PUSH2 0x1362 JUMP JUMPDEST PUSH1 0x5 PUSH1 0x0 DUP7 DUP2 MSTORE PUSH1 0x20 ADD SWAP1 DUP2 MSTORE PUSH1 0x20 ADD PUSH1 0x0 KECCAK256 DUP2 SWAP1 SSTORE POP PUSH1 0x0 PUSH29 0x200000000000000000000000000000000000000000000000000000000 DUP5 AND EQ ISZERO PUSH2 0xA92 JUMPI PUSH1 0x0 PUSH1 0x1 DUP6 ADD SWAP1 POP PUSH1 0x0 PUSH1 0x5 PUSH1 0x0 DUP4 DUP2 MSTORE PUSH1 0x20 ADD SWAP1 DUP2 MSTORE PUSH1 0x20 ADD PUSH1 0x0 KECCAK256 SLOAD EQ ISZERO PUSH2 0xA90 JUMPI PUSH1 0x1 SLOAD DUP2 EQ PUSH2 0xA8F JUMPI DUP4 PUSH1 0x5 PUSH1 0x0 DUP4 DUP2 MSTORE PUSH1 0x20 ADD SWAP1 DUP2 MSTORE PUSH1 0x20 ADD PUSH1 0x0 KECCAK256 DUP2 SWAP1 SSTORE POP JUMPDEST JUMPDEST POP JUMPDEST DUP4 DUP6 PUSH20 0xFFFFFFFFFFFFFFFFFFFFFFFFFFFFFFFFFFFFFFFF AND DUP8 PUSH20 0xFFFFFFFFFFFFFFFFFFFFFFFFFFFFFFFFFFFFFFFF AND PUSH32 0xDDF252AD1BE2C89B69C2B068FC378DAA952BA7F163C4A11628F55A4DF523B3EF PUSH1 0x40 MLOAD PUSH1 0x40 MLOAD DUP1 SWAP2 SUB SWAP1 LOG4 PUSH2 0xAFA DUP7 DUP7 DUP7 PUSH1 0x1 PUSH2 0x138D JUMP JUMPDEST POP POP POP POP POP POP JUMP JUMPDEST PUSH1 0x64 DUP2 JUMP JUMPDEST PUSH2 0xB0F PUSH2 0x1393 JUMP JUMPDEST PUSH1 0x0 CALLER PUSH20 0xFFFFFFFFFFFFFFFFFFFFFFFFFFFFFFFFFFFFFFFF AND SELFBALANCE PUSH1 0x40 MLOAD PUSH2 0xB35 SWAP1 PUSH2 0x1F41 JUMP JUMPDEST PUSH1 0x0 PUSH1 0x40 MLOAD DUP1 DUP4 SUB DUP2 DUP6 DUP8 GAS CALL SWAP3 POP POP POP RETURNDATASIZE DUP1 PUSH1 0x0 DUP2 EQ PUSH2 0xB72 JUMPI PUSH1 0x40 MLOAD SWAP2 POP PUSH1 0x1F NOT PUSH1 0x3F RETURNDATASIZE ADD AND DUP3 ADD PUSH1 0x40 MSTORE RETURNDATASIZE DUP3 MSTORE RETURNDATASIZE PUSH1 0x0 PUSH1 0x20 DUP5 ADD RETURNDATACOPY PUSH2 0xB77 JUMP JUMPDEST PUSH1 0x60 SWAP2 POP JUMPDEST POP POP SWAP1 POP DUP1 PUSH2 0xBBB JUMPI PUSH1 0x40 MLOAD PUSH32 0x8C379A000000000000000000000000000000000000000000000000000000000 DUP2 MSTORE PUSH1 0x4 ADD PUSH2 0xBB2 SWAP1 PUSH2 0x207A JUMP JUMPDEST PUSH1 0x40 MLOAD DUP1 SWAP2 SUB SWAP1 REVERT JUMPDEST POP JUMP JUMPDEST PUSH1 0x64 DUP2 PUSH2 0xBC9 PUSH2 0x1411 JUMP JUMPDEST PUSH2 0xBD3 SWAP2 SWAP1 PUSH2 0x2159 JUMP JUMPDEST GT ISZERO PUSH2 0xC14 JUMPI PUSH1 0x40 MLOAD PUSH32 0x8C379A000000000000000000000000000000000000000000000000000000000 DUP2 MSTORE PUSH1 0x4 ADD PUSH2 0xC0B SWAP1 PUSH2 0x205A JUMP JUMPDEST PUSH1 0x40 MLOAD DUP1 SWAP2 SUB SWAP1 REVERT JUMPDEST PUSH7 0x2386F26FC10000 DUP2 PUSH2 0xC27 SWAP2 SWAP1 PUSH2 0x21AF JUMP JUMPDEST CALLVALUE LT ISZERO PUSH2 0xC69 JUMPI PUSH1 0x40 MLOAD PUSH32 0x8C379A000000000000000000000000000000000000000000000000000000000 DUP2 MSTORE PUSH1 0x4 ADD PUSH2 0xC60 SWAP1 PUSH2 0x201A JUMP JUMPDEST PUSH1 0x40 MLOAD DUP1 SWAP2 SUB SWAP1 REVERT JUMPDEST PUSH2 0xC73 DUP3 DUP3 PUSH2 0x1424 JUMP JUMPDEST POP POP JUMP JUMPDEST PUSH2 0xC92 DUP4 DUP4 DUP4 PUSH1 0x40 MLOAD DUP1 PUSH1 0x20 ADD PUSH1 0x40 MSTORE DUP1 PUSH1 0x0 DUP2 MSTORE POP PUSH2 0xF65 JUMP JUMPDEST POP POP POP JUMP JUMPDEST PUSH2 0xC9F PUSH2 0x1393 JUMP JUMPDEST DUP2 DUP2 PUSH1 0x9 SWAP2 SWAP1 PUSH2 0xCB0 SWAP3 SWAP2 SWAP1 PUSH2 0x1912 JUMP JUMPDEST POP POP POP JUMP JUMPDEST PUSH1 0x0 PUSH2 0xCC0 DUP3 PUSH2 0x11FB JUMP JUMPDEST SWAP1 POP SWAP2 SWAP1 POP JUMP JUMPDEST PUSH1 0x0 DUP1 PUSH20 0xFFFFFFFFFFFFFFFFFFFFFFFFFFFFFFFFFFFFFFFF AND DUP3 PUSH20 0xFFFFFFFFFFFFFFFFFFFFFFFFFFFFFFFFFFFFFFFF AND EQ ISZERO PUSH2 0xD2F JUMPI PUSH1 0x40 MLOAD PUSH32 0x8F4EB60400000000000000000000000000000000000000000000000000000000 DUP2 MSTORE PUSH1 0x4 ADD PUSH1 0x40 MLOAD DUP1 SWAP2 SUB SWAP1 REVERT JUMPDEST PUSH8 0xFFFFFFFFFFFFFFFF PUSH1 0x6 PUSH1 0x0 DUP5 PUSH20 0xFFFFFFFFFFFFFFFFFFFFFFFFFFFFFFFFFFFFFFFF AND PUSH20 0xFFFFFFFFFFFFFFFFFFFFFFFFFFFFFFFFFFFFFFFF AND DUP2 MSTORE PUSH1 0x20 ADD SWAP1 DUP2 MSTORE PUSH1 0x20 ADD PUSH1 0x0 KECCAK256 SLOAD AND SWAP1 POP SWAP2 SWAP1 POP JUMP JUMPDEST PUSH2 0xD88 PUSH2 0x1393 JUMP JUMPDEST PUSH2 0xD92 PUSH1 0x0 PUSH2 0x15E2 JUMP JUMPDEST JUMP JUMPDEST PUSH7 0x2386F26FC10000 DUP2 JUMP JUMPDEST PUSH1 0x0 DUP1 PUSH1 0x0 SWAP1 SLOAD SWAP1 PUSH2 0x100 EXP SWAP1 DIV PUSH20 0xFFFFFFFFFFFFFFFFFFFFFFFFFFFFFFFFFFFFFFFF AND SWAP1 POP SWAP1 JUMP JUMPDEST PUSH1 0x60 PUSH1 0x4 DUP1 SLOAD PUSH2 0xDD7 SWAP1 PUSH2 0x22BF JUMP JUMPDEST DUP1 PUSH1 0x1F ADD PUSH1 0x20 DUP1 SWAP2 DIV MUL PUSH1 0x20 ADD PUSH1 0x40 MLOAD SWAP1 DUP2 ADD PUSH1 0x40 MSTORE DUP1 SWAP3 SWAP2 SWAP1 DUP2 DUP2 MSTORE PUSH1 0x20 ADD DUP3 DUP1 SLOAD PUSH2 0xE03 SWAP1 PUSH2 0x22BF JUMP JUMPDEST DUP1 ISZERO PUSH2 0xE50 JUMPI DUP1 PUSH1 0x1F LT PUSH2 0xE25 JUMPI PUSH2 0x100 DUP1 DUP4 SLOAD DIV MUL DUP4 MSTORE SWAP2 PUSH1 0x20 ADD SWAP2 PUSH2 0xE50 JUMP JUMPDEST DUP3 ADD SWAP2 SWAP1 PUSH1 0x0 MSTORE PUSH1 0x20 PUSH1 0x0 KECCAK256 SWAP1 JUMPDEST DUP2 SLOAD DUP2 MSTORE SWAP1 PUSH1 0x1 ADD SWAP1 PUSH1 0x20 ADD DUP1 DUP4 GT PUSH2 0xE33 JUMPI DUP3 SWAP1 SUB PUSH1 0x1F AND DUP3 ADD SWAP2 JUMPDEST POP POP POP POP POP SWAP1 POP SWAP1 JUMP JUMPDEST DUP1 PUSH1 0x8 PUSH1 0x0 PUSH2 0xE67 PUSH2 0x11EE JUMP JUMPDEST PUSH20 0xFFFFFFFFFFFFFFFFFFFFFFFFFFFFFFFFFFFFFFFF AND PUSH20 0xFFFFFFFFFFFFFFFFFFFFFFFFFFFFFFFFFFFFFFFF AND DUP2 MSTORE PUSH1 0x20 ADD SWAP1 DUP2 MSTORE PUSH1 0x20 ADD PUSH1 0x0 KECCAK256 PUSH1 0x0 DUP5 PUSH20 0xFFFFFFFFFFFFFFFFFFFFFFFFFFFFFFFFFFFFFFFF AND PUSH20 0xFFFFFFFFFFFFFFFFFFFFFFFFFFFFFFFFFFFFFFFF AND DUP2 MSTORE PUSH1 0x20 ADD SWAP1 DUP2 MSTORE PUSH1 0x20 ADD PUSH1 0x0 KECCAK256 PUSH1 0x0 PUSH2 0x100 EXP DUP2 SLOAD DUP2 PUSH1 0xFF MUL NOT AND SWAP1 DUP4 ISZERO ISZERO MUL OR SWAP1 SSTORE POP DUP2 PUSH20 0xFFFFFFFFFFFFFFFFFFFFFFFFFFFFFFFFFFFFFFFF AND PUSH2 0xF14 PUSH2 0x11EE JUMP JUMPDEST PUSH20 0xFFFFFFFFFFFFFFFFFFFFFFFFFFFFFFFFFFFFFFFF AND PUSH32 0x17307EAB39AB6107E8899845AD3D59BD9653F200F220920489CA2B5937696C31 DUP4 PUSH1 0x40 MLOAD PUSH2 0xF59 SWAP2 SWAP1 PUSH2 0x1FBD JUMP JUMPDEST PUSH1 0x40 MLOAD DUP1 SWAP2 SUB SWAP1 LOG3 POP POP JUMP JUMPDEST PUSH2 0xF70 DUP5 DUP5 DUP5 PUSH2 0x7DD JUMP JUMPDEST PUSH1 0x0 DUP4 PUSH20 0xFFFFFFFFFFFFFFFFFFFFFFFFFFFFFFFFFFFFFFFF AND EXTCODESIZE EQ PUSH2 0xFD2 JUMPI PUSH2 0xF9B DUP5 DUP5 DUP5 DUP5 PUSH2 0x16A6 JUMP JUMPDEST PUSH2 0xFD1 JUMPI PUSH1 0x40 MLOAD PUSH32 0xD1A57ED600000000000000000000000000000000000000000000000000000000 DUP2 MSTORE PUSH1 0x4 ADD PUSH1 0x40 MLOAD DUP1 SWAP2 SUB SWAP1 REVERT JUMPDEST JUMPDEST POP POP POP POP JUMP JUMPDEST PUSH1 0x60 PUSH2 0xFE3 DUP3 PUSH2 0x118F JUMP JUMPDEST PUSH2 0x1019 JUMPI PUSH1 0x40 MLOAD PUSH32 0xA14C4B5000000000000000000000000000000000000000000000000000000000 DUP2 MSTORE PUSH1 0x4 ADD PUSH1 0x40 MLOAD DUP1 SWAP2 SUB SWAP1 REVERT JUMPDEST PUSH1 0x0 PUSH2 0x1023 PUSH2 0x1806 JUMP JUMPDEST SWAP1 POP PUSH1 0x0 DUP2 MLOAD EQ ISZERO PUSH2 0x1044 JUMPI PUSH1 0x40 MLOAD DUP1 PUSH1 0x20 ADD PUSH1 0x40 MSTORE DUP1 PUSH1 0x0 DUP2 MSTORE POP PUSH2 0x106F JUMP JUMPDEST DUP1 PUSH2 0x104E DUP5 PUSH2 0x1898 JUMP JUMPDEST PUSH1 0x40 MLOAD PUSH1 0x20 ADD PUSH2 0x105F SWAP3 SWAP2 SWAP1 PUSH2 0x1F1D JUMP JUMPDEST PUSH1 0x40 MLOAD PUSH1 0x20 DUP2 DUP4 SUB SUB DUP2 MSTORE SWAP1 PUSH1 0x40 MSTORE JUMPDEST SWAP2 POP POP SWAP2 SWAP1 POP JUMP JUMPDEST PUSH1 0x0 PUSH1 0x8 PUSH1 0x0 DUP5 PUSH20 0xFFFFFFFFFFFFFFFFFFFFFFFFFFFFFFFFFFFFFFFF AND PUSH20 0xFFFFFFFFFFFFFFFFFFFFFFFFFFFFFFFFFFFFFFFF AND DUP2 MSTORE PUSH1 0x20 ADD SWAP1 DUP2 MSTORE PUSH1 0x20 ADD PUSH1 0x0 KECCAK256 PUSH1 0x0 DUP4 PUSH20 0xFFFFFFFFFFFFFFFFFFFFFFFFFFFFFFFFFFFFFFFF AND PUSH20 0xFFFFFFFFFFFFFFFFFFFFFFFFFFFFFFFFFFFFFFFF AND DUP2 MSTORE PUSH1 0x20 ADD SWAP1 DUP2 MSTORE PUSH1 0x20 ADD PUSH1 0x0 KECCAK256 PUSH1 0x0 SWAP1 SLOAD SWAP1 PUSH2 0x100 EXP SWAP1 DIV PUSH1 0xFF AND SWAP1 POP SWAP3 SWAP2 POP POP JUMP JUMPDEST PUSH2 0x1113 PUSH2 0x1393 JUMP JUMPDEST PUSH1 0x0 PUSH20 0xFFFFFFFFFFFFFFFFFFFFFFFFFFFFFFFFFFFFFFFF AND DUP2 PUSH20 0xFFFFFFFFFFFFFFFFFFFFFFFFFFFFFFFFFFFFFFFF AND EQ ISZERO PUSH2 0x1183 JUMPI PUSH1 0x40 MLOAD PUSH32 0x8C379A000000000000000000000000000000000000000000000000000000000 DUP2 MSTORE PUSH1 0x4 ADD PUSH2 0x117A SWAP1 PUSH2 0x1FFA JUMP JUMPDEST PUSH1 0x40 MLOAD DUP1 SWAP2 SUB SWAP1 REVERT JUMPDEST PUSH2 0x118C DUP2 PUSH2 0x15E2 JUMP JUMPDEST POP JUMP JUMPDEST PUSH1 0x0 DUP2 PUSH2 0x119A PUSH2 0x11F6 JUMP JUMPDEST GT ISZERO DUP1 ISZERO PUSH2 0x11A9 JUMPI POP PUSH1 0x1 SLOAD DUP3 LT JUMPDEST DUP1 ISZERO PUSH2 0x11E7 JUMPI POP PUSH1 0x0 PUSH29 0x100000000000000000000000000000000000000000000000000000000 PUSH1 0x5 PUSH1 0x0 DUP6 DUP2 MSTORE PUSH1 0x20 ADD SWAP1 DUP2 MSTORE PUSH1 0x20 ADD PUSH1 0x0 KECCAK256 SLOAD AND EQ JUMPDEST SWAP1 POP SWAP2 SWAP1 POP JUMP JUMPDEST PUSH1 0x0 CALLER SWAP1 POP SWAP1 JUMP JUMPDEST PUSH1 0x0 SWAP1 JUMP JUMPDEST PUSH1 0x0 DUP1 DUP3 SWAP1 POP DUP1 PUSH2 0x120A PUSH2 0x11F6 JUMP JUMPDEST GT PUSH2 0x1292 JUMPI PUSH1 0x1 SLOAD DUP2 LT ISZERO PUSH2 0x1291 JUMPI PUSH1 0x0 PUSH1 0x5 PUSH1 0x0 DUP4 DUP2 MSTORE PUSH1 0x20 ADD SWAP1 DUP2 MSTORE PUSH1 0x20 ADD PUSH1 0x0 KECCAK256 SLOAD SWAP1 POP PUSH1 0x0 PUSH29 0x100000000000000000000000000000000000000000000000000000000 DUP3 AND EQ ISZERO PUSH2 0x128F JUMPI JUMPDEST PUSH1 0x0 DUP2 EQ ISZERO PUSH2 0x1285 JUMPI PUSH1 0x5 PUSH1 0x0 DUP4 PUSH1 0x1 SWAP1 SUB SWAP4 POP DUP4 DUP2 MSTORE PUSH1 0x20 ADD SWAP1 DUP2 MSTORE PUSH1 0x20 ADD PUSH1 0x0 KECCAK256 SLOAD SWAP1 POP PUSH2 0x125A JUMP JUMPDEST DUP1 SWAP3 POP POP POP PUSH2 0x12C4 JUMP JUMPDEST POP JUMPDEST JUMPDEST PUSH1 0x40 MLOAD PUSH32 0xDF2D9B4200000000000000000000000000000000000000000000000000000000 DUP2 MSTORE PUSH1 0x4 ADD PUSH1 0x40 MLOAD DUP1 SWAP2 SUB SWAP1 REVERT JUMPDEST SWAP2 SWAP1 POP JUMP JUMPDEST PUSH1 0x0 DUP1 PUSH1 0x0 PUSH1 0x7 PUSH1 0x0 DUP6 DUP2 MSTORE PUSH1 0x20 ADD SWAP1 DUP2 MSTORE PUSH1 0x20 ADD PUSH1 0x0 KECCAK256 SWAP1 POP DUP1 SWAP3 POP DUP3 SLOAD SWAP2 POP POP SWAP2 POP SWAP2 JUMP JUMPDEST PUSH1 0x0 PUSH20 0xFFFFFFFFFFFFFFFFFFFFFFFFFFFFFFFFFFFFFFFF DUP4 AND SWAP3 POP PUSH20 0xFFFFFFFFFFFFFFFFFFFFFFFFFFFFFFFFFFFFFFFF DUP3 AND SWAP2 POP DUP4 DUP3 EQ DUP4 DUP4 EQ OR SWAP1 POP SWAP4 SWAP3 POP POP POP JUMP JUMPDEST POP POP POP POP JUMP JUMPDEST PUSH1 0x0 DUP1 PUSH1 0xE8 DUP4 SWAP1 SHR SWAP1 POP PUSH1 0xE8 PUSH2 0x1351 DUP7 DUP7 DUP5 PUSH2 0x18F1 JUMP JUMPDEST PUSH3 0xFFFFFF AND SWAP1 SHL SWAP2 POP POP SWAP4 SWAP3 POP POP POP JUMP JUMPDEST PUSH1 0x0 PUSH20 0xFFFFFFFFFFFFFFFFFFFFFFFFFFFFFFFFFFFFFFFF DUP4 AND SWAP3 POP DUP2 TIMESTAMP PUSH1 0xA0 SHL OR DUP4 OR SWAP1 POP SWAP3 SWAP2 POP POP JUMP JUMPDEST POP POP POP POP JUMP JUMPDEST PUSH2 0x139B PUSH2 0x18FA JUMP JUMPDEST PUSH20 0xFFFFFFFFFFFFFFFFFFFFFFFFFFFFFFFFFFFFFFFF AND PUSH2 0x13B9 PUSH2 0xD9F JUMP JUMPDEST PUSH20 0xFFFFFFFFFFFFFFFFFFFFFFFFFFFFFFFFFFFFFFFF AND EQ PUSH2 0x140F JUMPI PUSH1 0x40 MLOAD PUSH32 0x8C379A000000000000000000000000000000000000000000000000000000000 DUP2 MSTORE PUSH1 0x4 ADD PUSH2 0x1406 SWAP1 PUSH2 0x203A JUMP JUMPDEST PUSH1 0x40 MLOAD DUP1 SWAP2 SUB SWAP1 REVERT JUMPDEST JUMP JUMPDEST PUSH1 0x0 PUSH2 0x141B PUSH2 0x11F6 JUMP JUMPDEST PUSH1 0x1 SLOAD SUB SWAP1 POP SWAP1 JUMP JUMPDEST PUSH1 0x0 PUSH1 0x1 SLOAD SWAP1 POP PUSH1 0x0 DUP3 EQ ISZERO PUSH2 0x1466 JUMPI PUSH1 0x40 MLOAD PUSH32 0xB562E8DD00000000000000000000000000000000000000000000000000000000 DUP2 MSTORE PUSH1 0x4 ADD PUSH1 0x40 MLOAD DUP1 SWAP2 SUB SWAP1 REVERT JUMPDEST PUSH2 0x1473 PUSH1 0x0 DUP5 DUP4 DUP6 PUSH2 0x1334 JUMP JUMPDEST PUSH1 0x1 PUSH1 0x40 PUSH1 0x1 SWAP1 SHL OR DUP3 MUL PUSH1 0x6 PUSH1 0x0 DUP6 PUSH20 0xFFFFFFFFFFFFFFFFFFFFFFFFFFFFFFFFFFFFFFFF AND PUSH20 0xFFFFFFFFFFFFFFFFFFFFFFFFFFFFFFFFFFFFFFFF AND DUP2 MSTORE PUSH1 0x20 ADD SWAP1 DUP2 MSTORE PUSH1 0x20 ADD PUSH1 0x0 KECCAK256 PUSH1 0x0 DUP3 DUP3 SLOAD ADD SWAP3 POP POP DUP2 SWAP1 SSTORE POP PUSH2 0x14EA DUP4 PUSH2 0x14DB PUSH1 0x0 DUP7 PUSH1 0x0 PUSH2 0x133A JUMP JUMPDEST PUSH2 0x14E4 DUP6 PUSH2 0x1902 JUMP JUMPDEST OR PUSH2 0x1362 JUMP JUMPDEST PUSH1 0x5 PUSH1 0x0 DUP4 DUP2 MSTORE PUSH1 0x20 ADD SWAP1 DUP2 MSTORE PUSH1 0x20 ADD PUSH1 0x0 KECCAK256 DUP2 SWAP1 SSTORE POP PUSH1 0x0 DUP1 DUP4 DUP4 ADD SWAP1 POP PUSH20 0xFFFFFFFFFFFFFFFFFFFFFFFFFFFFFFFFFFFFFFFF DUP6 AND SWAP2 POP DUP3 DUP3 PUSH1 0x0 PUSH32 0xDDF252AD1BE2C89B69C2B068FC378DAA952BA7F163C4A11628F55A4DF523B3EF PUSH1 0x0 DUP1 LOG4 PUSH1 0x1 DUP4 ADD JUMPDEST DUP2 DUP2 EQ PUSH2 0x158B JUMPI DUP1 DUP4 PUSH1 0x0 PUSH32 0xDDF252AD1BE2C89B69C2B068FC378DAA952BA7F163C4A11628F55A4DF523B3EF PUSH1 0x0 DUP1 LOG4 PUSH1 0x1 DUP2 ADD SWAP1 POP PUSH2 0x1550 JUMP JUMPDEST POP PUSH1 0x0 DUP3 EQ ISZERO PUSH2 0x15C7 JUMPI PUSH1 0x40 MLOAD PUSH32 0x2E07630000000000000000000000000000000000000000000000000000000000 DUP2 MSTORE PUSH1 0x4 ADD PUSH1 0x40 MLOAD DUP1 SWAP2 SUB SWAP1 REVERT JUMPDEST DUP1 PUSH1 0x1 DUP2 SWAP1 SSTORE POP POP POP PUSH2 0x15DD PUSH1 0x0 DUP5 DUP4 DUP6 PUSH2 0x138D JUMP JUMPDEST POP POP POP JUMP JUMPDEST PUSH1 0x0 DUP1 PUSH1 0x0 SWAP1 SLOAD SWAP1 PUSH2 0x100 EXP SWAP1 DIV PUSH20 0xFFFFFFFFFFFFFFFFFFFFFFFFFFFFFFFFFFFFFFFF AND SWAP1 POP DUP2 PUSH1 0x0 DUP1 PUSH2 0x100 EXP DUP2 SLOAD DUP2 PUSH20 0xFFFFFFFFFFFFFFFFFFFFFFFFFFFFFFFFFFFFFFFF MUL NOT AND SWAP1 DUP4 PUSH20 0xFFFFFFFFFFFFFFFFFFFFFFFFFFFFFFFFFFFFFFFF AND MUL OR SWAP1 SSTORE POP DUP2 PUSH20 0xFFFFFFFFFFFFFFFFFFFFFFFFFFFFFFFFFFFFFFFF AND DUP2 PUSH20 0xFFFFFFFFFFFFFFFFFFFFFFFFFFFFFFFFFFFFFFFF AND PUSH32 0x8BE0079C531659141344CD1FD0A4F28419497F9722A3DAAFE3B4186F6B6457E0 PUSH1 0x40 MLOAD PUSH1 0x40 MLOAD DUP1 SWAP2 SUB SWAP1 LOG3 POP POP JUMP JUMPDEST PUSH1 0x0 DUP4 PUSH20 0xFFFFFFFFFFFFFFFFFFFFFFFFFFFFFFFFFFFFFFFF AND PUSH4 0x150B7A02 PUSH2 0x16CC PUSH2 0x11EE JUMP JUMPDEST DUP8 DUP7 DUP7 PUSH1 0x40 MLOAD DUP6 PUSH4 0xFFFFFFFF AND PUSH1 0xE0 SHL DUP2 MSTORE PUSH1 0x4 ADD PUSH2 0x16EE SWAP5 SWAP4 SWAP3 SWAP2 SWAP1 PUSH2 0x1F71 JUMP JUMPDEST PUSH1 0x20 PUSH1 0x40 MLOAD DUP1 DUP4 SUB DUP2 PUSH1 0x0 DUP8 DUP1 EXTCODESIZE ISZERO DUP1 ISZERO PUSH2 0x1708 JUMPI PUSH1 0x0 DUP1 REVERT JUMPDEST POP GAS CALL SWAP3 POP POP POP DUP1 ISZERO PUSH2 0x1739 JUMPI POP PUSH1 0x40 MLOAD RETURNDATASIZE PUSH1 0x1F NOT PUSH1 0x1F DUP3 ADD AND DUP3 ADD DUP1 PUSH1 0x40 MSTORE POP DUP2 ADD SWAP1 PUSH2 0x1736 SWAP2 SWAP1 PUSH2 0x1CD4 JUMP JUMPDEST PUSH1 0x1 JUMPDEST PUSH2 0x17B3 JUMPI RETURNDATASIZE DUP1 PUSH1 0x0 DUP2 EQ PUSH2 0x1769 JUMPI PUSH1 0x40 MLOAD SWAP2 POP PUSH1 0x1F NOT PUSH1 0x3F RETURNDATASIZE ADD AND DUP3 ADD PUSH1 0x40 MSTORE RETURNDATASIZE DUP3 MSTORE RETURNDATASIZE PUSH1 0x0 PUSH1 0x20 DUP5 ADD RETURNDATACOPY PUSH2 0x176E JUMP JUMPDEST PUSH1 0x60 SWAP2 POP JUMPDEST POP PUSH1 0x0 DUP2 MLOAD EQ ISZERO PUSH2 0x17AB JUMPI PUSH1 0x40 MLOAD PUSH32 0xD1A57ED600000000000000000000000000000000000000000000000000000000 DUP2 MSTORE PUSH1 0x4 ADD PUSH1 0x40 MLOAD DUP1 SWAP2 SUB SWAP1 REVERT JUMPDEST DUP1 MLOAD DUP2 PUSH1 0x20 ADD REVERT JUMPDEST PUSH4 0x150B7A02 PUSH1 0xE0 SHL PUSH28 0xFFFFFFFFFFFFFFFFFFFFFFFFFFFFFFFFFFFFFFFFFFFFFFFFFFFFFFFF NOT AND DUP2 PUSH28 0xFFFFFFFFFFFFFFFFFFFFFFFFFFFFFFFFFFFFFFFFFFFFFFFFFFFFFFFF NOT AND EQ SWAP2 POP POP SWAP5 SWAP4 POP POP POP POP JUMP JUMPDEST PUSH1 0x60 PUSH1 0x9 DUP1 SLOAD PUSH2 0x1815 SWAP1 PUSH2 0x22BF JUMP JUMPDEST DUP1 PUSH1 0x1F ADD PUSH1 0x20 DUP1 SWAP2 DIV MUL PUSH1 0x20 ADD PUSH1 0x40 MLOAD SWAP1 DUP2 ADD PUSH1 0x40 MSTORE DUP1 SWAP3 SWAP2 SWAP1 DUP2 DUP2 MSTORE PUSH1 0x20 ADD DUP3 DUP1 SLOAD PUSH2 0x1841 SWAP1 PUSH2 0x22BF JUMP JUMPDEST DUP1 ISZERO PUSH2 0x188E JUMPI DUP1 PUSH1 0x1F LT PUSH2 0x1863 JUMPI PUSH2 0x100 DUP1 DUP4 SLOAD DIV MUL DUP4 MSTORE SWAP2 PUSH1 0x20 ADD SWAP2 PUSH2 0x188E JUMP JUMPDEST DUP3 ADD SWAP2 SWAP1 PUSH1 0x0 MSTORE PUSH1 0x20 PUSH1 0x0 KECCAK256 SWAP1 JUMPDEST DUP2 SLOAD DUP2 MSTORE SWAP1 PUSH1 0x1 ADD SWAP1 PUSH1 0x20 ADD DUP1 DUP4 GT PUSH2 0x1871 JUMPI DUP3 SWAP1 SUB PUSH1 0x1F AND DUP3 ADD SWAP2 JUMPDEST POP POP POP POP POP SWAP1 POP SWAP1 JUMP JUMPDEST PUSH1 0x60 PUSH1 0xA0 PUSH1 0x40 MLOAD ADD DUP1 PUSH1 0x40 MSTORE PUSH1 0x20 DUP2 SUB SWAP2 POP PUSH1 0x0 DUP3 MSTORE DUP2 DUP4 JUMPDEST PUSH1 0x1 ISZERO PUSH2 0x18DC JUMPI PUSH1 0x1 DUP5 SUB SWAP4 POP PUSH1 0xA DUP2 MOD PUSH1 0x30 ADD DUP5 MSTORE8 PUSH1 0xA DUP2 DIV SWAP1 POP DUP1 PUSH2 0x18D7 JUMPI PUSH2 0x18DC JUMP JUMPDEST PUSH2 0x18B1 JUMP JUMPDEST POP DUP3 DUP2 SUB PUSH1 0x20 DUP5 SUB SWAP4 POP DUP1 DUP5 MSTORE POP POP POP SWAP2 SWAP1 POP JUMP JUMPDEST PUSH1 0x0 SWAP4 SWAP3 POP POP POP JUMP JUMPDEST PUSH1 0x0 CALLER SWAP1 POP SWAP1 JUMP JUMPDEST PUSH1 0x0 PUSH1 0x1 DUP3 EQ PUSH1 0xE1 SHL SWAP1 POP SWAP2 SWAP1 POP JUMP JUMPDEST DUP3 DUP1 SLOAD PUSH2 0x191E SWAP1 PUSH2 0x22BF JUMP JUMPDEST SWAP1 PUSH1 0x0 MSTORE PUSH1 0x20 PUSH1 0x0 KECCAK256 SWAP1 PUSH1 0x1F ADD PUSH1 0x20 SWAP1 DIV DUP2 ADD SWAP3 DUP3 PUSH2 0x1940 JUMPI PUSH1 0x0 DUP6 SSTORE PUSH2 0x1987 JUMP JUMPDEST DUP3 PUSH1 0x1F LT PUSH2 0x1959 JUMPI DUP1 CALLDATALOAD PUSH1 0xFF NOT AND DUP4 DUP1 ADD OR DUP6 SSTORE PUSH2 0x1987 JUMP JUMPDEST DUP3 DUP1 ADD PUSH1 0x1 ADD DUP6 SSTORE DUP3 ISZERO PUSH2 0x1987 JUMPI SWAP2 DUP3 ADD JUMPDEST DUP3 DUP2 GT ISZERO PUSH2 0x1986 JUMPI DUP3 CALLDATALOAD DUP3 SSTORE SWAP2 PUSH1 0x20 ADD SWAP2 SWAP1 PUSH1 0x1 ADD SWAP1 PUSH2 0x196B JUMP JUMPDEST JUMPDEST POP SWAP1 POP PUSH2 0x1994 SWAP2 SWAP1 PUSH2 0x1998 JUMP JUMPDEST POP SWAP1 JUMP JUMPDEST JUMPDEST DUP1 DUP3 GT ISZERO PUSH2 0x19B1 JUMPI PUSH1 0x0 DUP2 PUSH1 0x0 SWAP1 SSTORE POP PUSH1 0x1 ADD PUSH2 0x1999 JUMP JUMPDEST POP SWAP1 JUMP JUMPDEST PUSH1 0x0 PUSH2 0x19C8 PUSH2 0x19C3 DUP5 PUSH2 0x20DA JUMP JUMPDEST PUSH2 0x20B5 JUMP JUMPDEST SWAP1 POP DUP3 DUP2 MSTORE PUSH1 0x20 DUP2 ADD DUP5 DUP5 DUP5 ADD GT ISZERO PUSH2 0x19E4 JUMPI PUSH2 0x19E3 PUSH2 0x23BE JUMP JUMPDEST JUMPDEST PUSH2 0x19EF DUP5 DUP3 DUP6 PUSH2 0x227D JUMP JUMPDEST POP SWAP4 SWAP3 POP POP POP JUMP JUMPDEST PUSH1 0x0 DUP2 CALLDATALOAD SWAP1 POP PUSH2 0x1A06 DUP2 PUSH2 0x24D4 JUMP JUMPDEST SWAP3 SWAP2 POP POP JUMP JUMPDEST PUSH1 0x0 DUP2 CALLDATALOAD SWAP1 POP PUSH2 0x1A1B DUP2 PUSH2 0x24EB JUMP JUMPDEST SWAP3 SWAP2 POP POP JUMP JUMPDEST PUSH1 0x0 DUP2 CALLDATALOAD SWAP1 POP PUSH2 0x1A30 DUP2 PUSH2 0x2502 JUMP JUMPDEST SWAP3 SWAP2 POP POP JUMP JUMPDEST PUSH1 0x0 DUP2 MLOAD SWAP1 POP PUSH2 0x1A45 DUP2 PUSH2 0x2502 JUMP JUMPDEST SWAP3 SWAP2 POP POP JUMP JUMPDEST PUSH1 0x0 DUP3 PUSH1 0x1F DUP4 ADD SLT PUSH2 0x1A60 JUMPI PUSH2 0x1A5F PUSH2 0x23B4 JUMP JUMPDEST JUMPDEST DUP2 CALLDATALOAD PUSH2 0x1A70 DUP5 DUP3 PUSH1 0x20 DUP7 ADD PUSH2 0x19B5 JUMP JUMPDEST SWAP2 POP POP SWAP3 SWAP2 POP POP JUMP JUMPDEST PUSH1 0x0 DUP1 DUP4 PUSH1 0x1F DUP5 ADD SLT PUSH2 0x1A8F JUMPI PUSH2 0x1A8E PUSH2 0x23B4 JUMP JUMPDEST JUMPDEST DUP3 CALLDATALOAD SWAP1 POP PUSH8 0xFFFFFFFFFFFFFFFF DUP2 GT ISZERO PUSH2 0x1AAC JUMPI PUSH2 0x1AAB PUSH2 0x23AF JUMP JUMPDEST JUMPDEST PUSH1 0x20 DUP4 ADD SWAP2 POP DUP4 PUSH1 0x1 DUP3 MUL DUP4 ADD GT ISZERO PUSH2 0x1AC8 JUMPI PUSH2 0x1AC7 PUSH2 0x23B9 JUMP JUMPDEST JUMPDEST SWAP3 POP SWAP3 SWAP1 POP JUMP JUMPDEST PUSH1 0x0 DUP2 CALLDATALOAD SWAP1 POP PUSH2 0x1ADE DUP2 PUSH2 0x2519 JUMP JUMPDEST SWAP3 SWAP2 POP POP JUMP JUMPDEST PUSH1 0x0 PUSH1 0x20 DUP3 DUP5 SUB SLT ISZERO PUSH2 0x1AFA JUMPI PUSH2 0x1AF9 PUSH2 0x23C8 JUMP JUMPDEST JUMPDEST PUSH1 0x0 PUSH2 0x1B08 DUP5 DUP3 DUP6 ADD PUSH2 0x19F7 JUMP JUMPDEST SWAP2 POP POP SWAP3 SWAP2 POP POP JUMP JUMPDEST PUSH1 0x0 DUP1 PUSH1 0x40 DUP4 DUP6 SUB SLT ISZERO PUSH2 0x1B28 JUMPI PUSH2 0x1B27 PUSH2 0x23C8 JUMP JUMPDEST JUMPDEST PUSH1 0x0 PUSH2 0x1B36 DUP6 DUP3 DUP7 ADD PUSH2 0x19F7 JUMP JUMPDEST SWAP3 POP POP PUSH1 0x20 PUSH2 0x1B47 DUP6 DUP3 DUP7 ADD PUSH2 0x19F7 JUMP JUMPDEST SWAP2 POP POP SWAP3 POP SWAP3 SWAP1 POP JUMP JUMPDEST PUSH1 0x0 DUP1 PUSH1 0x0 PUSH1 0x60 DUP5 DUP7 SUB SLT ISZERO PUSH2 0x1B6A JUMPI PUSH2 0x1B69 PUSH2 0x23C8 JUMP JUMPDEST JUMPDEST PUSH1 0x0 PUSH2 0x1B78 DUP7 DUP3 DUP8 ADD PUSH2 0x19F7 JUMP JUMPDEST SWAP4 POP POP PUSH1 0x20 PUSH2 0x1B89 DUP7 DUP3 DUP8 ADD PUSH2 0x19F7 JUMP JUMPDEST SWAP3 POP POP PUSH1 0x40 PUSH2 0x1B9A DUP7 DUP3 DUP8 ADD PUSH2 0x1ACF JUMP JUMPDEST SWAP2 POP POP SWAP3 POP SWAP3 POP SWAP3 JUMP JUMPDEST PUSH1 0x0 DUP1 PUSH1 0x0 DUP1 PUSH1 0x80 DUP6 DUP8 SUB SLT ISZERO PUSH2 0x1BBE JUMPI PUSH2 0x1BBD PUSH2 0x23C8 JUMP JUMPDEST JUMPDEST PUSH1 0x0 PUSH2 0x1BCC DUP8 DUP3 DUP9 ADD PUSH2 0x19F7 JUMP JUMPDEST SWAP5 POP POP PUSH1 0x20 PUSH2 0x1BDD DUP8 DUP3 DUP9 ADD PUSH2 0x19F7 JUMP JUMPDEST SWAP4 POP POP PUSH1 0x40 PUSH2 0x1BEE DUP8 DUP3 DUP9 ADD PUSH2 0x1ACF JUMP JUMPDEST SWAP3 POP POP PUSH1 0x60 DUP6 ADD CALLDATALOAD PUSH8 0xFFFFFFFFFFFFFFFF DUP2 GT ISZERO PUSH2 0x1C0F JUMPI PUSH2 0x1C0E PUSH2 0x23C3 JUMP JUMPDEST JUMPDEST PUSH2 0x1C1B DUP8 DUP3 DUP9 ADD PUSH2 0x1A4B JUMP JUMPDEST SWAP2 POP POP SWAP3 SWAP6 SWAP2 SWAP5 POP SWAP3 POP JUMP JUMPDEST PUSH1 0x0 DUP1 PUSH1 0x40 DUP4 DUP6 SUB SLT ISZERO PUSH2 0x1C3E JUMPI PUSH2 0x1C3D PUSH2 0x23C8 JUMP JUMPDEST JUMPDEST PUSH1 0x0 PUSH2 0x1C4C DUP6 DUP3 DUP7 ADD PUSH2 0x19F7 JUMP JUMPDEST SWAP3 POP POP PUSH1 0x20 PUSH2 0x1C5D DUP6 DUP3 DUP7 ADD PUSH2 0x1A0C JUMP JUMPDEST SWAP2 POP POP SWAP3 POP SWAP3 SWAP1 POP JUMP JUMPDEST PUSH1 0x0 DUP1 PUSH1 0x40 DUP4 DUP6 SUB SLT ISZERO PUSH2 0x1C7E JUMPI PUSH2 0x1C7D PUSH2 0x23C8 JUMP JUMPDEST JUMPDEST PUSH1 0x0 PUSH2 0x1C8C DUP6 DUP3 DUP7 ADD PUSH2 0x19F7 JUMP JUMPDEST SWAP3 POP POP PUSH1 0x20 PUSH2 0x1C9D DUP6 DUP3 DUP7 ADD PUSH2 0x1ACF JUMP JUMPDEST SWAP2 POP POP SWAP3 POP SWAP3 SWAP1 POP JUMP JUMPDEST PUSH1 0x0 PUSH1 0x20 DUP3 DUP5 SUB SLT ISZERO PUSH2 0x1CBD JUMPI PUSH2 0x1CBC PUSH2 0x23C8 JUMP JUMPDEST JUMPDEST PUSH1 0x0 PUSH2 0x1CCB DUP5 DUP3 DUP6 ADD PUSH2 0x1A21 JUMP JUMPDEST SWAP2 POP POP SWAP3 SWAP2 POP POP JUMP JUMPDEST PUSH1 0x0 PUSH1 0x20 DUP3 DUP5 SUB SLT ISZERO PUSH2 0x1CEA JUMPI PUSH2 0x1CE9 PUSH2 0x23C8 JUMP JUMPDEST JUMPDEST PUSH1 0x0 PUSH2 0x1CF8 DUP5 DUP3 DUP6 ADD PUSH2 0x1A36 JUMP JUMPDEST SWAP2 POP POP SWAP3 SWAP2 POP POP JUMP JUMPDEST PUSH1 0x0 DUP1 PUSH1 0x20 DUP4 DUP6 SUB SLT ISZERO PUSH2 0x1D18 JUMPI PUSH2 0x1D17 PUSH2 0x23C8 JUMP JUMPDEST JUMPDEST PUSH1 0x0 DUP4 ADD CALLDATALOAD PUSH8 0xFFFFFFFFFFFFFFFF DUP2 GT ISZERO PUSH2 0x1D36 JUMPI PUSH2 0x1D35 PUSH2 0x23C3 JUMP JUMPDEST JUMPDEST PUSH2 0x1D42 DUP6 DUP3 DUP7 ADD PUSH2 0x1A79 JUMP JUMPDEST SWAP3 POP SWAP3 POP POP SWAP3 POP SWAP3 SWAP1 POP JUMP JUMPDEST PUSH1 0x0 PUSH1 0x20 DUP3 DUP5 SUB SLT ISZERO PUSH2 0x1D64 JUMPI PUSH2 0x1D63 PUSH2 0x23C8 JUMP JUMPDEST JUMPDEST PUSH1 0x0 PUSH2 0x1D72 DUP5 DUP3 DUP6 ADD PUSH2 0x1ACF JUMP JUMPDEST SWAP2 POP POP SWAP3 SWAP2 POP POP JUMP JUMPDEST PUSH2 0x1D84 DUP2 PUSH2 0x2209 JUMP JUMPDEST DUP3 MSTORE POP POP JUMP JUMPDEST PUSH2 0x1D93 DUP2 PUSH2 0x221B JUMP JUMPDEST DUP3 MSTORE POP POP JUMP JUMPDEST PUSH1 0x0 PUSH2 0x1DA4 DUP3 PUSH2 0x210B JUMP JUMPDEST PUSH2 0x1DAE DUP2 DUP6 PUSH2 0x2121 JUMP JUMPDEST SWAP4 POP PUSH2 0x1DBE DUP2 DUP6 PUSH1 0x20 DUP7 ADD PUSH2 0x228C JUMP JUMPDEST PUSH2 0x1DC7 DUP2 PUSH2 0x23CD JUMP JUMPDEST DUP5 ADD SWAP2 POP POP SWAP3 SWAP2 POP POP JUMP JUMPDEST PUSH1 0x0 PUSH2 0x1DDD DUP3 PUSH2 0x2116 JUMP JUMPDEST PUSH2 0x1DE7 DUP2 DUP6 PUSH2 0x213D JUMP JUMPDEST SWAP4 POP PUSH2 0x1DF7 DUP2 DUP6 PUSH1 0x20 DUP7 ADD PUSH2 0x228C JUMP JUMPDEST PUSH2 0x1E00 DUP2 PUSH2 0x23CD JUMP JUMPDEST DUP5 ADD SWAP2 POP POP SWAP3 SWAP2 POP POP JUMP JUMPDEST PUSH1 0x0 PUSH2 0x1E16 DUP3 PUSH2 0x2116 JUMP JUMPDEST PUSH2 0x1E20 DUP2 DUP6 PUSH2 0x214E JUMP JUMPDEST SWAP4 POP PUSH2 0x1E30 DUP2 DUP6 PUSH1 0x20 DUP7 ADD PUSH2 0x228C JUMP JUMPDEST DUP1 DUP5 ADD SWAP2 POP POP SWAP3 SWAP2 POP POP JUMP JUMPDEST PUSH1 0x0 PUSH2 0x1E49 PUSH1 0x26 DUP4 PUSH2 0x213D JUMP JUMPDEST SWAP2 POP PUSH2 0x1E54 DUP3 PUSH2 0x23DE JUMP JUMPDEST PUSH1 0x40 DUP3 ADD SWAP1 POP SWAP2 SWAP1 POP JUMP JUMPDEST PUSH1 0x0 PUSH2 0x1E6C PUSH1 0x12 DUP4 PUSH2 0x213D JUMP JUMPDEST SWAP2 POP PUSH2 0x1E77 DUP3 PUSH2 0x242D JUMP JUMPDEST PUSH1 0x20 DUP3 ADD SWAP1 POP SWAP2 SWAP1 POP JUMP JUMPDEST PUSH1 0x0 PUSH2 0x1E8F PUSH1 0x20 DUP4 PUSH2 0x213D JUMP JUMPDEST SWAP2 POP PUSH2 0x1E9A DUP3 PUSH2 0x2456 JUMP JUMPDEST PUSH1 0x20 DUP3 ADD SWAP1 POP SWAP2 SWAP1 POP JUMP JUMPDEST PUSH1 0x0 PUSH2 0x1EB2 PUSH1 0xE DUP4 PUSH2 0x213D JUMP JUMPDEST SWAP2 POP PUSH2 0x1EBD DUP3 PUSH2 0x247F JUMP JUMPDEST PUSH1 0x20 DUP3 ADD SWAP1 POP SWAP2 SWAP1 POP JUMP JUMPDEST PUSH1 0x0 PUSH2 0x1ED5 PUSH1 0xF DUP4 PUSH2 0x213D JUMP JUMPDEST SWAP2 POP PUSH2 0x1EE0 DUP3 PUSH2 0x24A8 JUMP JUMPDEST PUSH1 0x20 DUP3 ADD SWAP1 POP SWAP2 SWAP1 POP JUMP JUMPDEST PUSH1 0x0 PUSH2 0x1EF8 PUSH1 0x0 DUP4 PUSH2 0x2132 JUMP JUMPDEST SWAP2 POP PUSH2 0x1F03 DUP3 PUSH2 0x24D1 JUMP JUMPDEST PUSH1 0x0 DUP3 ADD SWAP1 POP SWAP2 SWAP1 POP JUMP JUMPDEST PUSH2 0x1F17 DUP2 PUSH2 0x2273 JUMP JUMPDEST DUP3 MSTORE POP POP JUMP JUMPDEST PUSH1 0x0 PUSH2 0x1F29 DUP3 DUP6 PUSH2 0x1E0B JUMP JUMPDEST SWAP2 POP PUSH2 0x1F35 DUP3 DUP5 PUSH2 0x1E0B JUMP JUMPDEST SWAP2 POP DUP2 SWAP1 POP SWAP4 SWAP3 POP POP POP JUMP JUMPDEST PUSH1 0x0 PUSH2 0x1F4C DUP3 PUSH2 0x1EEB JUMP JUMPDEST SWAP2 POP DUP2 SWAP1 POP SWAP2 SWAP1 POP JUMP JUMPDEST PUSH1 0x0 PUSH1 0x20 DUP3 ADD SWAP1 POP PUSH2 0x1F6B PUSH1 0x0 DUP4 ADD DUP5 PUSH2 0x1D7B JUMP JUMPDEST SWAP3 SWAP2 POP POP JUMP JUMPDEST PUSH1 0x0 PUSH1 0x80 DUP3 ADD SWAP1 POP PUSH2 0x1F86 PUSH1 0x0 DUP4 ADD DUP8 PUSH2 0x1D7B JUMP JUMPDEST PUSH2 0x1F93 PUSH1 0x20 DUP4 ADD DUP7 PUSH2 0x1D7B JUMP JUMPDEST PUSH2 0x1FA0 PUSH1 0x40 DUP4 ADD DUP6 PUSH2 0x1F0E JUMP JUMPDEST DUP2 DUP2 SUB PUSH1 0x60 DUP4 ADD MSTORE PUSH2 0x1FB2 DUP2 DUP5 PUSH2 0x1D99 JUMP JUMPDEST SWAP1 POP SWAP6 SWAP5 POP POP POP POP POP JUMP JUMPDEST PUSH1 0x0 PUSH1 0x20 DUP3 ADD SWAP1 POP PUSH2 0x1FD2 PUSH1 0x0 DUP4 ADD DUP5 PUSH2 0x1D8A JUMP JUMPDEST SWAP3 SWAP2 POP POP JUMP JUMPDEST PUSH1 0x0 PUSH1 0x20 DUP3 ADD SWAP1 POP DUP2 DUP2 SUB PUSH1 0x0 DUP4 ADD MSTORE PUSH2 0x1FF2 DUP2 DUP5 PUSH2 0x1DD2 JUMP JUMPDEST SWAP1 POP SWAP3 SWAP2 POP POP JUMP JUMPDEST PUSH1 0x0 PUSH1 0x20 DUP3 ADD SWAP1 POP DUP2 DUP2 SUB PUSH1 0x0 DUP4 ADD MSTORE PUSH2 0x2013 DUP2 PUSH2 0x1E3C JUMP JUMPDEST SWAP1 POP SWAP2 SWAP1 POP JUMP JUMPDEST PUSH1 0x0 PUSH1 0x20 DUP3 ADD SWAP1 POP DUP2 DUP2 SUB PUSH1 0x0 DUP4 ADD MSTORE PUSH2 0x2033 DUP2 PUSH2 0x1E5F JUMP JUMPDEST SWAP1 POP SWAP2 SWAP1 POP JUMP JUMPDEST PUSH1 0x0 PUSH1 0x20 DUP3 ADD SWAP1 POP DUP2 DUP2 SUB PUSH1 0x0 DUP4 ADD MSTORE PUSH2 0x2053 DUP2 PUSH2 0x1E82 JUMP JUMPDEST SWAP1 POP SWAP2 SWAP1 POP JUMP JUMPDEST PUSH1 0x0 PUSH1 0x20 DUP3 ADD SWAP1 POP DUP2 DUP2 SUB PUSH1 0x0 DUP4 ADD MSTORE PUSH2 0x2073 DUP2 PUSH2 0x1EA5 JUMP JUMPDEST SWAP1 POP SWAP2 SWAP1 POP JUMP JUMPDEST PUSH1 0x0 PUSH1 0x20 DUP3 ADD SWAP1 POP DUP2 DUP2 SUB PUSH1 0x0 DUP4 ADD MSTORE PUSH2 0x2093 DUP2 PUSH2 0x1EC8 JUMP JUMPDEST SWAP1 POP SWAP2 SWAP1 POP JUMP JUMPDEST PUSH1 0x0 PUSH1 0x20 DUP3 ADD SWAP1 POP PUSH2 0x20AF PUSH1 0x0 DUP4 ADD DUP5 PUSH2 0x1F0E JUMP JUMPDEST SWAP3 SWAP2 POP POP JUMP JUMPDEST PUSH1 0x0 PUSH2 0x20BF PUSH2 0x20D0 JUMP JUMPDEST SWAP1 POP PUSH2 0x20CB DUP3 DUP3 PUSH2 0x22F1 JUMP JUMPDEST SWAP2 SWAP1 POP JUMP JUMPDEST PUSH1 0x0 PUSH1 0x40 MLOAD SWAP1 POP SWAP1 JUMP JUMPDEST PUSH1 0x0 PUSH8 0xFFFFFFFFFFFFFFFF DUP3 GT ISZERO PUSH2 0x20F5 JUMPI PUSH2 0x20F4 PUSH2 0x2380 JUMP JUMPDEST JUMPDEST PUSH2 0x20FE DUP3 PUSH2 0x23CD JUMP JUMPDEST SWAP1 POP PUSH1 0x20 DUP2 ADD SWAP1 POP SWAP2 SWAP1 POP JUMP JUMPDEST PUSH1 0x0 DUP2 MLOAD SWAP1 POP SWAP2 SWAP1 POP JUMP JUMPDEST PUSH1 0x0 DUP2 MLOAD SWAP1 POP SWAP2 SWAP1 POP JUMP JUMPDEST PUSH1 0x0 DUP3 DUP3 MSTORE PUSH1 0x20 DUP3 ADD SWAP1 POP SWAP3 SWAP2 POP POP JUMP JUMPDEST PUSH1 0x0 DUP2 SWAP1 POP SWAP3 SWAP2 POP POP JUMP JUMPDEST PUSH1 0x0 DUP3 DUP3 MSTORE PUSH1 0x20 DUP3 ADD SWAP1 POP SWAP3 SWAP2 POP POP JUMP JUMPDEST PUSH1 0x0 DUP2 SWAP1 POP SWAP3 SWAP2 POP POP JUMP JUMPDEST PUSH1 0x0 PUSH2 0x2164 DUP3 PUSH2 0x2273 JUMP JUMPDEST SWAP2 POP PUSH2 0x216F DUP4 PUSH2 0x2273 JUMP JUMPDEST SWAP3 POP DUP3 PUSH32 0xFFFFFFFFFFFFFFFFFFFFFFFFFFFFFFFFFFFFFFFFFFFFFFFFFFFFFFFFFFFFFFFF SUB DUP3 GT ISZERO PUSH2 0x21A4 JUMPI PUSH2 0x21A3 PUSH2 0x2322 JUMP JUMPDEST JUMPDEST DUP3 DUP3 ADD SWAP1 POP SWAP3 SWAP2 POP POP JUMP JUMPDEST PUSH1 0x0 PUSH2 0x21BA DUP3 PUSH2 0x2273 JUMP JUMPDEST SWAP2 POP PUSH2 0x21C5 DUP4 PUSH2 0x2273 JUMP JUMPDEST SWAP3 POP DUP2 PUSH32 0xFFFFFFFFFFFFFFFFFFFFFFFFFFFFFFFFFFFFFFFFFFFFFFFFFFFFFFFFFFFFFFFF DIV DUP4 GT DUP3 ISZERO ISZERO AND ISZERO PUSH2 0x21FE JUMPI PUSH2 0x21FD PUSH2 0x2322 JUMP JUMPDEST JUMPDEST DUP3 DUP3 MUL SWAP1 POP SWAP3 SWAP2 POP POP JUMP JUMPDEST PUSH1 0x0 PUSH2 0x2214 DUP3 PUSH2 0x2253 JUMP JUMPDEST SWAP1 POP SWAP2 SWAP1 POP JUMP JUMPDEST PUSH1 0x0 DUP2 ISZERO ISZERO SWAP1 POP SWAP2 SWAP1 POP JUMP JUMPDEST PUSH1 0x0 PUSH32 0xFFFFFFFF00000000000000000000000000000000000000000000000000000000 DUP3 AND SWAP1 POP SWAP2 SWAP1 POP JUMP JUMPDEST PUSH1 0x0 PUSH20 0xFFFFFFFFFFFFFFFFFFFFFFFFFFFFFFFFFFFFFFFF DUP3 AND SWAP1 POP SWAP2 SWAP1 POP JUMP JUMPDEST PUSH1 0x0 DUP2 SWAP1 POP SWAP2 SWAP1 POP JUMP JUMPDEST DUP3 DUP2 DUP4 CALLDATACOPY PUSH1 0x0 DUP4 DUP4 ADD MSTORE POP POP POP JUMP JUMPDEST PUSH1 0x0 JUMPDEST DUP4 DUP2 LT ISZERO PUSH2 0x22AA JUMPI DUP1 DUP3 ADD MLOAD DUP2 DUP5 ADD MSTORE PUSH1 0x20 DUP2 ADD SWAP1 POP PUSH2 0x228F JUMP JUMPDEST DUP4 DUP2 GT ISZERO PUSH2 0x22B9 JUMPI PUSH1 0x0 DUP5 DUP5 ADD MSTORE JUMPDEST POP POP POP POP JUMP JUMPDEST PUSH1 0x0 PUSH1 0x2 DUP3 DIV SWAP1 POP PUSH1 0x1 DUP3 AND DUP1 PUSH2 0x22D7 JUMPI PUSH1 0x7F DUP3 AND SWAP2 POP JUMPDEST PUSH1 0x20 DUP3 LT DUP2 EQ ISZERO PUSH2 0x22EB JUMPI PUSH2 0x22EA PUSH2 0x2351 JUMP JUMPDEST JUMPDEST POP SWAP2 SWAP1 POP JUMP JUMPDEST PUSH2 0x22FA DUP3 PUSH2 0x23CD JUMP JUMPDEST DUP2 ADD DUP2 DUP2 LT PUSH8 0xFFFFFFFFFFFFFFFF DUP3 GT OR ISZERO PUSH2 0x2319 JUMPI PUSH2 0x2318 PUSH2 0x2380 JUMP JUMPDEST JUMPDEST DUP1 PUSH1 0x40 MSTORE POP POP POP JUMP JUMPDEST PUSH32 0x4E487B7100000000000000000000000000000000000000000000000000000000 PUSH1 0x0 MSTORE PUSH1 0x11 PUSH1 0x4 MSTORE PUSH1 0x24 PUSH1 0x0 REVERT JUMPDEST PUSH32 0x4E487B7100000000000000000000000000000000000000000000000000000000 PUSH1 0x0 MSTORE PUSH1 0x22 PUSH1 0x4 MSTORE PUSH1 0x24 PUSH1 0x0 REVERT JUMPDEST PUSH32 0x4E487B7100000000000000000000000000000000000000000000000000000000 PUSH1 0x0 MSTORE PUSH1 0x41 PUSH1 0x4 MSTORE PUSH1 0x24 PUSH1 0x0 REVERT JUMPDEST PUSH1 0x0 DUP1 REVERT JUMPDEST PUSH1 0x0 DUP1 REVERT JUMPDEST PUSH1 0x0 DUP1 REVERT JUMPDEST PUSH1 0x0 DUP1 REVERT JUMPDEST PUSH1 0x0 DUP1 REVERT JUMPDEST PUSH1 0x0 DUP1 REVERT JUMPDEST PUSH1 0x0 PUSH1 0x1F NOT PUSH1 0x1F DUP4 ADD AND SWAP1 POP SWAP2 SWAP1 POP JUMP JUMPDEST PUSH32 0x4F776E61626C653A206E6577206F776E657220697320746865207A65726F2061 PUSH1 0x0 DUP3 ADD MSTORE PUSH32 0x6464726573730000000000000000000000000000000000000000000000000000 PUSH1 0x20 DUP3 ADD MSTORE POP JUMP JUMPDEST PUSH32 0x496E73756666696369656E742046756E64730000000000000000000000000000 PUSH1 0x0 DUP3 ADD MSTORE POP JUMP JUMPDEST PUSH32 0x4F776E61626C653A2063616C6C6572206973206E6F7420746865206F776E6572 PUSH1 0x0 DUP3 ADD MSTORE POP JUMP JUMPDEST PUSH32 0x4D617820537570706C7920486974000000000000000000000000000000000000 PUSH1 0x0 DUP3 ADD MSTORE POP JUMP JUMPDEST PUSH32 0x5472616E73666572204661696C65640000000000000000000000000000000000 PUSH1 0x0 DUP3 ADD MSTORE POP JUMP JUMPDEST POP JUMP JUMPDEST PUSH2 0x24DD DUP2 PUSH2 0x2209 JUMP JUMPDEST DUP2 EQ PUSH2 0x24E8 JUMPI PUSH1 0x0 DUP1 REVERT JUMPDEST POP JUMP JUMPDEST PUSH2 0x24F4 DUP2 PUSH2 0x221B JUMP JUMPDEST DUP2 EQ PUSH2 0x24FF JUMPI PUSH1 0x0 DUP1 REVERT JUMPDEST POP JUMP JUMPDEST PUSH2 0x250B DUP2 PUSH2 0x2227 JUMP JUMPDEST DUP2 EQ PUSH2 0x2516 JUMPI PUSH1 0x0 DUP1 REVERT JUMPDEST POP JUMP JUMPDEST PUSH2 0x2522 DUP2 PUSH2 0x2273 JUMP JUMPDEST DUP2 EQ PUSH2 0x252D JUMPI PUSH1 0x0 DUP1 REVERT JUMPDEST POP JUMP INVALID LOG2 PUSH5 0x6970667358 0x22 SLT KECCAK256 0xFB ADDRESS SHL 0xE6 SWAP14 0xDD PUSH8 0xF65D0BD3147D6109 0x5E MSTORE 0xF SWAP6 0x21 DUP1 0xF STATICCALL 0xF7 SGT PUSH22 0x773B1832453364736F6C634300080700330000000000 "
				},
				"gasEstimates": {
					"creation": {
						"codeDepositCost": "1914800",
						"executionCost": "infinite",
						"totalCost": "infinite"
					},
					"external": {
						"MAX_SUPPLY()": "374",
						"PRICE_PER_TOKEN()": "418",
						"approve(address,uint256)": "infinite",
						"balanceOf(address)": "2930",
						"getApproved(uint256)": "7381",
						"isApprovedForAll(address,address)": "infinite",
						"mint(address,uint256)": "infinite",
						"name()": "infinite",
						"owner()": "2633",
						"ownerOf(uint256)": "infinite",
						"renounceOwnership()": "30465",
						"safeTransferFrom(address,address,uint256)": "infinite",
						"safeTransferFrom(address,address,uint256,bytes)": "infinite",
						"setApprovalForAll(address,bool)": "infinite",
						"setBaseURI(string)": "infinite",
						"supportsInterface(bytes4)": "745",
						"symbol()": "infinite",
						"tokenURI(uint256)": "infinite",
						"totalSupply()": "4688",
						"transferFrom(address,address,uint256)": "infinite",
						"transferOwnership(address)": "30879",
						"withdraw()": "infinite"
					},
					"internal": {
						"_baseURI()": "infinite"
					}
				},
				"methodIdentifiers": {
					"MAX_SUPPLY()": "32cb6b0c",
					"PRICE_PER_TOKEN()": "833b9499",
					"approve(address,uint256)": "095ea7b3",
					"balanceOf(address)": "70a08231",
					"getApproved(uint256)": "081812fc",
					"isApprovedForAll(address,address)": "e985e9c5",
					"mint(address,uint256)": "40c10f19",
					"name()": "06fdde03",
					"owner()": "8da5cb5b",
					"ownerOf(uint256)": "6352211e",
					"renounceOwnership()": "715018a6",
					"safeTransferFrom(address,address,uint256)": "42842e0e",
					"safeTransferFrom(address,address,uint256,bytes)": "b88d4fde",
					"setApprovalForAll(address,bool)": "a22cb465",
					"setBaseURI(string)": "55f804b3",
					"supportsInterface(bytes4)": "01ffc9a7",
					"symbol()": "95d89b41",
					"tokenURI(uint256)": "c87b56dd",
					"totalSupply()": "18160ddd",
					"transferFrom(address,address,uint256)": "23b872dd",
					"transferOwnership(address)": "f2fde38b",
					"withdraw()": "3ccfd60b"
				}
			},
			"storageLayout": {
				"storage": [
					{
						"astId": 7,
						"contract": "contracts/MudAi.sol:MudAi",
						"label": "_owner",
						"offset": 0,
						"slot": "0",
						"type": "t_address"
					},
					{
						"astId": 226,
						"contract": "contracts/MudAi.sol:MudAi",
						"label": "_currentIndex",
						"offset": 0,
						"slot": "1",
						"type": "t_uint256"
					},
					{
						"astId": 228,
						"contract": "contracts/MudAi.sol:MudAi",
						"label": "_burnCounter",
						"offset": 0,
						"slot": "2",
						"type": "t_uint256"
					},
					{
						"astId": 230,
						"contract": "contracts/MudAi.sol:MudAi",
						"label": "_name",
						"offset": 0,
						"slot": "3",
						"type": "t_string_storage"
					},
					{
						"astId": 232,
						"contract": "contracts/MudAi.sol:MudAi",
						"label": "_symbol",
						"offset": 0,
						"slot": "4",
						"type": "t_string_storage"
					},
					{
						"astId": 236,
						"contract": "contracts/MudAi.sol:MudAi",
						"label": "_packedOwnerships",
						"offset": 0,
						"slot": "5",
						"type": "t_mapping(t_uint256,t_uint256)"
					},
					{
						"astId": 240,
						"contract": "contracts/MudAi.sol:MudAi",
						"label": "_packedAddressData",
						"offset": 0,
						"slot": "6",
						"type": "t_mapping(t_address,t_uint256)"
					},
					{
						"astId": 245,
						"contract": "contracts/MudAi.sol:MudAi",
						"label": "_tokenApprovals",
						"offset": 0,
						"slot": "7",
						"type": "t_mapping(t_uint256,t_struct(TokenApprovalRef)158_storage)"
					},
					{
						"astId": 251,
						"contract": "contracts/MudAi.sol:MudAi",
						"label": "_operatorApprovals",
						"offset": 0,
						"slot": "8",
						"type": "t_mapping(t_address,t_mapping(t_address,t_bool))"
					},
					{
						"astId": 1773,
						"contract": "contracts/MudAi.sol:MudAi",
						"label": "_baseTokenURI",
						"offset": 0,
						"slot": "9",
						"type": "t_string_storage"
					}
				],
				"types": {
					"t_address": {
						"encoding": "inplace",
						"label": "address",
						"numberOfBytes": "20"
					},
					"t_bool": {
						"encoding": "inplace",
						"label": "bool",
						"numberOfBytes": "1"
					},
					"t_mapping(t_address,t_bool)": {
						"encoding": "mapping",
						"key": "t_address",
						"label": "mapping(address => bool)",
						"numberOfBytes": "32",
						"value": "t_bool"
					},
					"t_mapping(t_address,t_mapping(t_address,t_bool))": {
						"encoding": "mapping",
						"key": "t_address",
						"label": "mapping(address => mapping(address => bool))",
						"numberOfBytes": "32",
						"value": "t_mapping(t_address,t_bool)"
					},
					"t_mapping(t_address,t_uint256)": {
						"encoding": "mapping",
						"key": "t_address",
						"label": "mapping(address => uint256)",
						"numberOfBytes": "32",
						"value": "t_uint256"
					},
					"t_mapping(t_uint256,t_struct(TokenApprovalRef)158_storage)": {
						"encoding": "mapping",
						"key": "t_uint256",
						"label": "mapping(uint256 => struct ERC721A.TokenApprovalRef)",
						"numberOfBytes": "32",
						"value": "t_struct(TokenApprovalRef)158_storage"
					},
					"t_mapping(t_uint256,t_uint256)": {
						"encoding": "mapping",
						"key": "t_uint256",
						"label": "mapping(uint256 => uint256)",
						"numberOfBytes": "32",
						"value": "t_uint256"
					},
					"t_string_storage": {
						"encoding": "bytes",
						"label": "string",
						"numberOfBytes": "32"
					},
					"t_struct(TokenApprovalRef)158_storage": {
						"encoding": "inplace",
						"label": "struct ERC721A.TokenApprovalRef",
						"members": [
							{
								"astId": 157,
								"contract": "contracts/MudAi.sol:MudAi",
								"label": "value",
								"offset": 0,
								"slot": "0",
								"type": "t_address"
							}
						],
						"numberOfBytes": "32"
					},
					"t_uint256": {
						"encoding": "inplace",
						"label": "uint256",
						"numberOfBytes": "32"
					}
				}
			},
			"userdoc": {
				"errors": {
					"ApprovalCallerNotOwnerNorApproved()": [
						{
							"notice": "The caller must own the token or be an approved operator."
						}
					],
					"ApprovalQueryForNonexistentToken()": [
						{
							"notice": "The token does not exist."
						}
					],
					"BalanceQueryForZeroAddress()": [
						{
							"notice": "Cannot query the balance for the zero address."
						}
					],
					"MintERC2309QuantityExceedsLimit()": [
						{
							"notice": "The `quantity` minted with ERC2309 exceeds the safety limit."
						}
					],
					"MintToZeroAddress()": [
						{
							"notice": "Cannot mint to the zero address."
						}
					],
					"MintZeroQuantity()": [
						{
							"notice": "The quantity of tokens minted must be more than zero."
						}
					],
					"OwnerQueryForNonexistentToken()": [
						{
							"notice": "The token does not exist."
						}
					],
					"OwnershipNotInitializedForExtraData()": [
						{
							"notice": "The `extraData` cannot be set on an unintialized ownership slot."
						}
					],
					"TransferCallerNotOwnerNorApproved()": [
						{
							"notice": "The caller must own the token or be an approved operator."
						}
					],
					"TransferFromIncorrectOwner()": [
						{
							"notice": "The token must be owned by `from`."
						}
					],
					"TransferToNonERC721ReceiverImplementer()": [
						{
							"notice": "Cannot safely transfer to a contract that does not implement the ERC721Receiver interface."
						}
					],
					"TransferToZeroAddress()": [
						{
							"notice": "Cannot transfer to the zero address."
						}
					],
					"URIQueryForNonexistentToken()": [
						{
							"notice": "The token does not exist."
						}
					]
				},
				"kind": "user",
				"methods": {},
				"version": 1
			}
		}
	}
}