{
	"contracts/MudAi.sol": {
		"MudAi": {
			"abi": [
				{
					"inputs": [
						{
							"internalType": "uint256",
							"name": "_startTime",
							"type": "uint256"
						},
						{
							"internalType": "bool",
							"name": "_paused",
							"type": "bool"
						}
					],
					"stateMutability": "nonpayable",
					"type": "constructor"
				},
				{
					"inputs": [],
					"name": "ApprovalCallerNotOwnerNorApproved",
					"type": "error"
				},
				{
					"inputs": [],
					"name": "ApprovalQueryForNonexistentToken",
					"type": "error"
				},
				{
					"inputs": [],
					"name": "BalanceQueryForZeroAddress",
					"type": "error"
				},
				{
					"inputs": [],
					"name": "MintERC2309QuantityExceedsLimit",
					"type": "error"
				},
				{
					"inputs": [],
					"name": "MintToZeroAddress",
					"type": "error"
				},
				{
					"inputs": [],
					"name": "MintZeroQuantity",
					"type": "error"
				},
				{
					"inputs": [],
					"name": "OwnerQueryForNonexistentToken",
					"type": "error"
				},
				{
					"inputs": [],
					"name": "OwnershipNotInitializedForExtraData",
					"type": "error"
				},
				{
					"inputs": [],
					"name": "TransferCallerNotOwnerNorApproved",
					"type": "error"
				},
				{
					"inputs": [],
					"name": "TransferFromIncorrectOwner",
					"type": "error"
				},
				{
					"inputs": [],
					"name": "TransferToNonERC721ReceiverImplementer",
					"type": "error"
				},
				{
					"inputs": [],
					"name": "TransferToZeroAddress",
					"type": "error"
				},
				{
					"inputs": [],
					"name": "URIQueryForNonexistentToken",
					"type": "error"
				},
				{
					"anonymous": false,
					"inputs": [
						{
							"indexed": true,
							"internalType": "address",
							"name": "owner",
							"type": "address"
						},
						{
							"indexed": true,
							"internalType": "address",
							"name": "approved",
							"type": "address"
						},
						{
							"indexed": true,
							"internalType": "uint256",
							"name": "tokenId",
							"type": "uint256"
						}
					],
					"name": "Approval",
					"type": "event"
				},
				{
					"anonymous": false,
					"inputs": [
						{
							"indexed": true,
							"internalType": "address",
							"name": "owner",
							"type": "address"
						},
						{
							"indexed": true,
							"internalType": "address",
							"name": "operator",
							"type": "address"
						},
						{
							"indexed": false,
							"internalType": "bool",
							"name": "approved",
							"type": "bool"
						}
					],
					"name": "ApprovalForAll",
					"type": "event"
				},
				{
					"anonymous": false,
					"inputs": [
						{
							"indexed": true,
							"internalType": "uint256",
							"name": "fromTokenId",
							"type": "uint256"
						},
						{
							"indexed": false,
							"internalType": "uint256",
							"name": "toTokenId",
							"type": "uint256"
						},
						{
							"indexed": true,
							"internalType": "address",
							"name": "from",
							"type": "address"
						},
						{
							"indexed": true,
							"internalType": "address",
							"name": "to",
							"type": "address"
						}
					],
					"name": "ConsecutiveTransfer",
					"type": "event"
				},
				{
					"anonymous": false,
					"inputs": [
						{
							"indexed": true,
							"internalType": "address",
							"name": "previousOwner",
							"type": "address"
						},
						{
							"indexed": true,
							"internalType": "address",
							"name": "newOwner",
							"type": "address"
						}
					],
					"name": "OwnershipTransferred",
					"type": "event"
				},
				{
					"anonymous": false,
					"inputs": [
						{
							"indexed": true,
							"internalType": "address",
							"name": "from",
							"type": "address"
						},
						{
							"indexed": true,
							"internalType": "address",
							"name": "to",
							"type": "address"
						},
						{
							"indexed": true,
							"internalType": "uint256",
							"name": "tokenId",
							"type": "uint256"
						}
					],
					"name": "Transfer",
					"type": "event"
				},
				{
					"inputs": [],
					"name": "MAX_SUPPLY",
					"outputs": [
						{
							"internalType": "uint256",
							"name": "",
							"type": "uint256"
						}
					],
					"stateMutability": "view",
					"type": "function"
				},
				{
					"inputs": [],
					"name": "PRICE_PER_TOKEN",
					"outputs": [
						{
							"internalType": "uint256",
							"name": "",
							"type": "uint256"
						}
					],
					"stateMutability": "view",
					"type": "function"
				},
				{
					"inputs": [
						{
							"internalType": "address",
							"name": "to",
							"type": "address"
						},
						{
							"internalType": "uint256",
							"name": "tokenId",
							"type": "uint256"
						}
					],
					"name": "approve",
					"outputs": [],
					"stateMutability": "payable",
					"type": "function"
				},
				{
					"inputs": [
						{
							"internalType": "address",
							"name": "owner",
							"type": "address"
						}
					],
					"name": "balanceOf",
					"outputs": [
						{
							"internalType": "uint256",
							"name": "",
							"type": "uint256"
						}
					],
					"stateMutability": "view",
					"type": "function"
				},
				{
					"inputs": [
						{
							"internalType": "uint256",
							"name": "tokenId",
							"type": "uint256"
						}
					],
					"name": "getApproved",
					"outputs": [
						{
							"internalType": "address",
							"name": "",
							"type": "address"
						}
					],
					"stateMutability": "view",
					"type": "function"
				},
				{
					"inputs": [
						{
							"internalType": "address",
							"name": "owner",
							"type": "address"
						},
						{
							"internalType": "address",
							"name": "operator",
							"type": "address"
						}
					],
					"name": "isApprovedForAll",
					"outputs": [
						{
							"internalType": "bool",
							"name": "",
							"type": "bool"
						}
					],
					"stateMutability": "view",
					"type": "function"
				},
				{
					"inputs": [
						{
							"internalType": "address",
							"name": "to",
							"type": "address"
						},
						{
							"internalType": "uint256",
							"name": "quantity",
							"type": "uint256"
						}
					],
					"name": "mint",
					"outputs": [],
					"stateMutability": "payable",
					"type": "function"
				},
				{
					"inputs": [],
					"name": "mintPaused",
					"outputs": [
						{
							"internalType": "bool",
							"name": "",
							"type": "bool"
						}
					],
					"stateMutability": "view",
					"type": "function"
				},
				{
					"inputs": [],
					"name": "name",
					"outputs": [
						{
							"internalType": "string",
							"name": "",
							"type": "string"
						}
					],
					"stateMutability": "view",
					"type": "function"
				},
				{
					"inputs": [],
					"name": "owner",
					"outputs": [
						{
							"internalType": "address",
							"name": "",
							"type": "address"
						}
					],
					"stateMutability": "view",
					"type": "function"
				},
				{
					"inputs": [
						{
							"internalType": "uint256",
							"name": "tokenId",
							"type": "uint256"
						}
					],
					"name": "ownerOf",
					"outputs": [
						{
							"internalType": "address",
							"name": "",
							"type": "address"
						}
					],
					"stateMutability": "view",
					"type": "function"
				},
				{
					"inputs": [
						{
							"internalType": "bool",
							"name": "_paused",
							"type": "bool"
						}
					],
					"name": "pauseMint",
					"outputs": [],
					"stateMutability": "nonpayable",
					"type": "function"
				},
				{
					"inputs": [],
					"name": "renounceOwnership",
					"outputs": [],
					"stateMutability": "nonpayable",
					"type": "function"
				},
				{
					"inputs": [
						{
							"internalType": "address",
							"name": "from",
							"type": "address"
						},
						{
							"internalType": "address",
							"name": "to",
							"type": "address"
						},
						{
							"internalType": "uint256",
							"name": "tokenId",
							"type": "uint256"
						}
					],
					"name": "safeTransferFrom",
					"outputs": [],
					"stateMutability": "payable",
					"type": "function"
				},
				{
					"inputs": [
						{
							"internalType": "address",
							"name": "from",
							"type": "address"
						},
						{
							"internalType": "address",
							"name": "to",
							"type": "address"
						},
						{
							"internalType": "uint256",
							"name": "tokenId",
							"type": "uint256"
						},
						{
							"internalType": "bytes",
							"name": "_data",
							"type": "bytes"
						}
					],
					"name": "safeTransferFrom",
					"outputs": [],
					"stateMutability": "payable",
					"type": "function"
				},
				{
					"inputs": [
						{
							"internalType": "address",
							"name": "operator",
							"type": "address"
						},
						{
							"internalType": "bool",
							"name": "approved",
							"type": "bool"
						}
					],
					"name": "setApprovalForAll",
					"outputs": [],
					"stateMutability": "nonpayable",
					"type": "function"
				},
				{
					"inputs": [
						{
							"internalType": "string",
							"name": "baseURI",
							"type": "string"
						}
					],
					"name": "setBaseURI",
					"outputs": [],
					"stateMutability": "nonpayable",
					"type": "function"
				},
				{
					"inputs": [
						{
							"internalType": "bytes4",
							"name": "interfaceId",
							"type": "bytes4"
						}
					],
					"name": "supportsInterface",
					"outputs": [
						{
							"internalType": "bool",
							"name": "",
							"type": "bool"
						}
					],
					"stateMutability": "view",
					"type": "function"
				},
				{
					"inputs": [],
					"name": "symbol",
					"outputs": [
						{
							"internalType": "string",
							"name": "",
							"type": "string"
						}
					],
					"stateMutability": "view",
					"type": "function"
				},
				{
					"inputs": [
						{
							"internalType": "uint256",
							"name": "tokenId",
							"type": "uint256"
						}
					],
					"name": "tokenURI",
					"outputs": [
						{
							"internalType": "string",
							"name": "",
							"type": "string"
						}
					],
					"stateMutability": "view",
					"type": "function"
				},
				{
					"inputs": [],
					"name": "totalSupply",
					"outputs": [
						{
							"internalType": "uint256",
							"name": "",
							"type": "uint256"
						}
					],
					"stateMutability": "view",
					"type": "function"
				},
				{
					"inputs": [
						{
							"internalType": "address",
							"name": "from",
							"type": "address"
						},
						{
							"internalType": "address",
							"name": "to",
							"type": "address"
						},
						{
							"internalType": "uint256",
							"name": "tokenId",
							"type": "uint256"
						}
					],
					"name": "transferFrom",
					"outputs": [],
					"stateMutability": "payable",
					"type": "function"
				},
				{
					"inputs": [
						{
							"internalType": "address",
							"name": "newOwner",
							"type": "address"
						}
					],
					"name": "transferOwnership",
					"outputs": [],
					"stateMutability": "nonpayable",
					"type": "function"
				},
				{
					"inputs": [],
					"name": "withdraw",
					"outputs": [],
					"stateMutability": "nonpayable",
					"type": "function"
				}
			],
			"devdoc": {
				"kind": "dev",
				"methods": {
					"approve(address,uint256)": {
						"details": "Gives permission to `to` to transfer `tokenId` token to another account. The approval is cleared when the token is transferred. Only a single account can be approved at a time, so approving the zero address clears previous approvals. Requirements: - The caller must own the token or be an approved operator. - `tokenId` must exist. Emits an {Approval} event."
					},
					"balanceOf(address)": {
						"details": "Returns the number of tokens in `owner`'s account."
					},
					"getApproved(uint256)": {
						"details": "Returns the account approved for `tokenId` token. Requirements: - `tokenId` must exist."
					},
					"isApprovedForAll(address,address)": {
						"details": "Returns if the `operator` is allowed to manage all of the assets of `owner`. See {setApprovalForAll}."
					},
					"name()": {
						"details": "Returns the token collection name."
					},
					"owner()": {
						"details": "Returns the address of the current owner."
					},
					"ownerOf(uint256)": {
						"details": "Returns the owner of the `tokenId` token. Requirements: - `tokenId` must exist."
					},
					"renounceOwnership()": {
						"details": "Leaves the contract without owner. It will not be possible to call `onlyOwner` functions anymore. Can only be called by the current owner. NOTE: Renouncing ownership will leave the contract without an owner, thereby removing any functionality that is only available to the owner."
					},
					"safeTransferFrom(address,address,uint256)": {
						"details": "Equivalent to `safeTransferFrom(from, to, tokenId, '')`."
					},
					"safeTransferFrom(address,address,uint256,bytes)": {
						"details": "Safely transfers `tokenId` token from `from` to `to`. Requirements: - `from` cannot be the zero address. - `to` cannot be the zero address. - `tokenId` token must exist and be owned by `from`. - If the caller is not `from`, it must be approved to move this token by either {approve} or {setApprovalForAll}. - If `to` refers to a smart contract, it must implement {IERC721Receiver-onERC721Received}, which is called upon a safe transfer. Emits a {Transfer} event."
					},
					"setApprovalForAll(address,bool)": {
						"details": "Approve or remove `operator` as an operator for the caller. Operators can call {transferFrom} or {safeTransferFrom} for any token owned by the caller. Requirements: - The `operator` cannot be the caller. Emits an {ApprovalForAll} event."
					},
					"supportsInterface(bytes4)": {
						"details": "Returns true if this contract implements the interface defined by `interfaceId`. See the corresponding [EIP section](https://eips.ethereum.org/EIPS/eip-165#how-interfaces-are-identified) to learn more about how these ids are created. This function call must use less than 30000 gas."
					},
					"symbol()": {
						"details": "Returns the token collection symbol."
					},
					"tokenURI(uint256)": {
						"details": "Returns the Uniform Resource Identifier (URI) for `tokenId` token."
					},
					"totalSupply()": {
						"details": "Returns the total number of tokens in existence. Burned tokens will reduce the count. To get the total number of tokens minted, please see {_totalMinted}."
					},
					"transferFrom(address,address,uint256)": {
						"details": "Transfers `tokenId` from `from` to `to`. Requirements: - `from` cannot be the zero address. - `to` cannot be the zero address. - `tokenId` token must be owned by `from`. - If the caller is not `from`, it must be approved to move this token by either {approve} or {setApprovalForAll}. Emits a {Transfer} event."
					},
					"transferOwnership(address)": {
						"details": "Transfers ownership of the contract to a new account (`newOwner`). Can only be called by the current owner."
					}
				},
				"version": 1
			},
			"evm": {
				"assembly": "    /* \"contracts/MudAi.sol\":135:1311  contract MudAi is Ownable, ERC721A {... */\n  mstore(0x40, 0x80)\n    /* \"contracts/MudAi.sol\":345:462  constructor(uint256 _startTime, bool _paused) ERC721A(\"ERC721A Token\", \"721AT\") {... */\n  callvalue\n  dup1\n  iszero\n  tag_1\n  jumpi\n  0x00\n  dup1\n  revert\ntag_1:\n  pop\n  mload(0x40)\n  sub(codesize, bytecodeSize)\n  dup1\n  bytecodeSize\n  dup4\n  codecopy\n  dup2\n  dup2\n  add\n  0x40\n  mstore\n  dup2\n  add\n  swap1\n  tag_2\n  swap2\n  swap1\n  tag_3\n  jump\t// in\ntag_2:\n    /* \"contracts/ERC721A.sol\":4957:5111  constructor(string memory name_, string memory symbol_) {... */\n  mload(0x40)\n  dup1\n  0x40\n  add\n  0x40\n  mstore\n  dup1\n  0x0d\n  dup2\n  mstore\n  0x20\n  add\n  0x4552433732314120546f6b656e00000000000000000000000000000000000000\n  dup2\n  mstore\n  pop\n  mload(0x40)\n  dup1\n  0x40\n  add\n  0x40\n  mstore\n  dup1\n  0x05\n  dup2\n  mstore\n  0x20\n  add\n  0x3732314154000000000000000000000000000000000000000000000000000000\n  dup2\n  mstore\n  pop\n    /* \"@openzeppelin/contracts/access/Ownable.sol\":936:968  _transferOwnership(_msgSender()) */\n  tag_8\n    /* \"@openzeppelin/contracts/access/Ownable.sol\":955:967  _msgSender() */\n  tag_9\n    /* \"@openzeppelin/contracts/access/Ownable.sol\":955:965  _msgSender */\n  shl(0x20, tag_10)\n    /* \"@openzeppelin/contracts/access/Ownable.sol\":955:967  _msgSender() */\n  0x20\n  shr\n  jump\t// in\ntag_9:\n    /* \"@openzeppelin/contracts/access/Ownable.sol\":936:954  _transferOwnership */\n  shl(0x20, tag_11)\n    /* \"@openzeppelin/contracts/access/Ownable.sol\":936:968  _transferOwnership(_msgSender()) */\n  0x20\n  shr\n  jump\t// in\ntag_8:\n    /* \"contracts/ERC721A.sol\":5031:5036  name_ */\n  dup2\n    /* \"contracts/ERC721A.sol\":5023:5028  _name */\n  0x03\n    /* \"contracts/ERC721A.sol\":5023:5036  _name = name_ */\n  swap1\n  dup1\n  mload\n  swap1\n  0x20\n  add\n  swap1\n  tag_13\n  swap3\n  swap2\n  swap1\n  tag_14\n  jump\t// in\ntag_13:\n  pop\n    /* \"contracts/ERC721A.sol\":5056:5063  symbol_ */\n  dup1\n    /* \"contracts/ERC721A.sol\":5046:5053  _symbol */\n  0x04\n    /* \"contracts/ERC721A.sol\":5046:5063  _symbol = symbol_ */\n  swap1\n  dup1\n  mload\n  swap1\n  0x20\n  add\n  swap1\n  tag_15\n  swap3\n  swap2\n  swap1\n  tag_14\n  jump\t// in\ntag_15:\n  pop\n    /* \"contracts/ERC721A.sol\":5089:5104  _startTokenId() */\n  tag_16\n    /* \"contracts/ERC721A.sol\":5089:5102  _startTokenId */\n  shl(0x20, tag_17)\n    /* \"contracts/ERC721A.sol\":5089:5104  _startTokenId() */\n  0x20\n  shr\n  jump\t// in\ntag_16:\n    /* \"contracts/ERC721A.sol\":5073:5086  _currentIndex */\n  0x01\n    /* \"contracts/ERC721A.sol\":5073:5104  _currentIndex = _startTokenId() */\n  dup2\n  swap1\n  sstore\n  pop\n    /* \"contracts/ERC721A.sol\":4957:5111  constructor(string memory name_, string memory symbol_) {... */\n  pop\n  pop\n    /* \"contracts/MudAi.sol\":448:455  _paused */\n  dup1\n    /* \"contracts/MudAi.sol\":435:445  mintPaused */\n  0x09\n  0x00\n    /* \"contracts/MudAi.sol\":435:455  mintPaused = _paused */\n  0x0100\n  exp\n  dup2\n  sload\n  dup2\n  0xff\n  mul\n  not\n  and\n  swap1\n  dup4\n  iszero\n  iszero\n  mul\n  or\n  swap1\n  sstore\n  pop\n    /* \"contracts/MudAi.sol\":345:462  constructor(uint256 _startTime, bool _paused) ERC721A(\"ERC721A Token\", \"721AT\") {... */\n  pop\n  pop\n    /* \"contracts/MudAi.sol\":135:1311  contract MudAi is Ownable, ERC721A {... */\n  jump(tag_19)\n    /* \"@openzeppelin/contracts/utils/Context.sol\":640:736  function _msgSender() internal view virtual returns (address) {... */\ntag_10:\n    /* \"@openzeppelin/contracts/utils/Context.sol\":693:700  address */\n  0x00\n    /* \"@openzeppelin/contracts/utils/Context.sol\":719:729  msg.sender */\n  caller\n    /* \"@openzeppelin/contracts/utils/Context.sol\":712:729  return msg.sender */\n  swap1\n  pop\n    /* \"@openzeppelin/contracts/utils/Context.sol\":640:736  function _msgSender() internal view virtual returns (address) {... */\n  swap1\n  jump\t// out\n    /* \"@openzeppelin/contracts/access/Ownable.sol\":2433:2620  function _transferOwnership(address newOwner) internal virtual {... */\ntag_11:\n    /* \"@openzeppelin/contracts/access/Ownable.sol\":2506:2522  address oldOwner */\n  0x00\n    /* \"@openzeppelin/contracts/access/Ownable.sol\":2525:2531  _owner */\n  dup1\n  0x00\n  swap1\n  sload\n  swap1\n  0x0100\n  exp\n  swap1\n  div\n  0xffffffffffffffffffffffffffffffffffffffff\n  and\n    /* \"@openzeppelin/contracts/access/Ownable.sol\":2506:2531  address oldOwner = _owner */\n  swap1\n  pop\n    /* \"@openzeppelin/contracts/access/Ownable.sol\":2550:2558  newOwner */\n  dup2\n    /* \"@openzeppelin/contracts/access/Ownable.sol\":2541:2547  _owner */\n  0x00\n  dup1\n    /* \"@openzeppelin/contracts/access/Ownable.sol\":2541:2558  _owner = newOwner */\n  0x0100\n  exp\n  dup2\n  sload\n  dup2\n  0xffffffffffffffffffffffffffffffffffffffff\n  mul\n  not\n  and\n  swap1\n  dup4\n  0xffffffffffffffffffffffffffffffffffffffff\n  and\n  mul\n  or\n  swap1\n  sstore\n  pop\n    /* \"@openzeppelin/contracts/access/Ownable.sol\":2604:2612  newOwner */\n  dup2\n    /* \"@openzeppelin/contracts/access/Ownable.sol\":2573:2613  OwnershipTransferred(oldOwner, newOwner) */\n  0xffffffffffffffffffffffffffffffffffffffff\n  and\n    /* \"@openzeppelin/contracts/access/Ownable.sol\":2594:2602  oldOwner */\n  dup2\n    /* \"@openzeppelin/contracts/access/Ownable.sol\":2573:2613  OwnershipTransferred(oldOwner, newOwner) */\n  0xffffffffffffffffffffffffffffffffffffffff\n  and\n  0x8be0079c531659141344cd1fd0a4f28419497f9722a3daafe3b4186f6b6457e0\n  mload(0x40)\n  mload(0x40)\n  dup1\n  swap2\n  sub\n  swap1\n  log3\n    /* \"@openzeppelin/contracts/access/Ownable.sol\":2496:2620  {... */\n  pop\n    /* \"@openzeppelin/contracts/access/Ownable.sol\":2433:2620  function _transferOwnership(address newOwner) internal virtual {... */\n  pop\n  jump\t// out\n    /* \"contracts/ERC721A.sol\":5437:5527  function _startTokenId() internal view virtual returns (uint256) {... */\ntag_17:\n    /* \"contracts/ERC721A.sol\":5493:5500  uint256 */\n  0x00\n    /* \"contracts/ERC721A.sol\":5437:5527  function _startTokenId() internal view virtual returns (uint256) {... */\n  swap1\n  jump\t// out\n    /* \"contracts/MudAi.sol\":135:1311  contract MudAi is Ownable, ERC721A {... */\ntag_14:\n  dup3\n  dup1\n  sload\n  tag_23\n  swap1\n  tag_24\n  jump\t// in\ntag_23:\n  swap1\n  0x00\n  mstore\n  keccak256(0x00, 0x20)\n  swap1\n  0x1f\n  add\n  0x20\n  swap1\n  div\n  dup2\n  add\n  swap3\n  dup3\n  tag_26\n  jumpi\n  0x00\n  dup6\n  sstore\n  jump(tag_25)\ntag_26:\n  dup3\n  0x1f\n  lt\n  tag_27\n  jumpi\n  dup1\n  mload\n  not(0xff)\n  and\n  dup4\n  dup1\n  add\n  or\n  dup6\n  sstore\n  jump(tag_25)\ntag_27:\n  dup3\n  dup1\n  add\n  0x01\n  add\n  dup6\n  sstore\n  dup3\n  iszero\n  tag_25\n  jumpi\n  swap2\n  dup3\n  add\ntag_28:\n  dup3\n  dup2\n  gt\n  iszero\n  tag_29\n  jumpi\n  dup3\n  mload\n  dup3\n  sstore\n  swap2\n  0x20\n  add\n  swap2\n  swap1\n  0x01\n  add\n  swap1\n  jump(tag_28)\ntag_29:\ntag_25:\n  pop\n  swap1\n  pop\n  tag_30\n  swap2\n  swap1\n  tag_31\n  jump\t// in\ntag_30:\n  pop\n  swap1\n  jump\t// out\ntag_31:\ntag_32:\n  dup1\n  dup3\n  gt\n  iszero\n  tag_33\n  jumpi\n  0x00\n  dup2\n  0x00\n  swap1\n  sstore\n  pop\n  0x01\n  add\n  jump(tag_32)\ntag_33:\n  pop\n  swap1\n  jump\t// out\n    /* \"#utility.yul\":7:144   */\ntag_35:\n    /* \"#utility.yul\":61:66   */\n  0x00\n    /* \"#utility.yul\":92:98   */\n  dup2\n    /* \"#utility.yul\":86:99   */\n  mload\n    /* \"#utility.yul\":77:99   */\n  swap1\n  pop\n    /* \"#utility.yul\":108:138   */\n  tag_37\n    /* \"#utility.yul\":132:137   */\n  dup2\n    /* \"#utility.yul\":108:138   */\n  tag_38\n  jump\t// in\ntag_37:\n    /* \"#utility.yul\":7:144   */\n  swap3\n  swap2\n  pop\n  pop\n  jump\t// out\n    /* \"#utility.yul\":150:293   */\ntag_39:\n    /* \"#utility.yul\":207:212   */\n  0x00\n    /* \"#utility.yul\":238:244   */\n  dup2\n    /* \"#utility.yul\":232:245   */\n  mload\n    /* \"#utility.yul\":223:245   */\n  swap1\n  pop\n    /* \"#utility.yul\":254:287   */\n  tag_41\n    /* \"#utility.yul\":281:286   */\n  dup2\n    /* \"#utility.yul\":254:287   */\n  tag_42\n  jump\t// in\ntag_41:\n    /* \"#utility.yul\":150:293   */\n  swap3\n  swap2\n  pop\n  pop\n  jump\t// out\n    /* \"#utility.yul\":299:800   */\ntag_3:\n    /* \"#utility.yul\":375:381   */\n  0x00\n    /* \"#utility.yul\":383:389   */\n  dup1\n    /* \"#utility.yul\":432:434   */\n  0x40\n    /* \"#utility.yul\":420:429   */\n  dup4\n    /* \"#utility.yul\":411:418   */\n  dup6\n    /* \"#utility.yul\":407:430   */\n  sub\n    /* \"#utility.yul\":403:435   */\n  slt\n    /* \"#utility.yul\":400:519   */\n  iszero\n  tag_44\n  jumpi\n    /* \"#utility.yul\":438:517   */\n  tag_45\n  tag_46\n  jump\t// in\ntag_45:\n    /* \"#utility.yul\":400:519   */\ntag_44:\n    /* \"#utility.yul\":558:559   */\n  0x00\n    /* \"#utility.yul\":583:647   */\n  tag_47\n    /* \"#utility.yul\":639:646   */\n  dup6\n    /* \"#utility.yul\":630:636   */\n  dup3\n    /* \"#utility.yul\":619:628   */\n  dup7\n    /* \"#utility.yul\":615:637   */\n  add\n    /* \"#utility.yul\":583:647   */\n  tag_39\n  jump\t// in\ntag_47:\n    /* \"#utility.yul\":573:647   */\n  swap3\n  pop\n    /* \"#utility.yul\":529:657   */\n  pop\n    /* \"#utility.yul\":696:698   */\n  0x20\n    /* \"#utility.yul\":722:783   */\n  tag_48\n    /* \"#utility.yul\":775:782   */\n  dup6\n    /* \"#utility.yul\":766:772   */\n  dup3\n    /* \"#utility.yul\":755:764   */\n  dup7\n    /* \"#utility.yul\":751:773   */\n  add\n    /* \"#utility.yul\":722:783   */\n  tag_35\n  jump\t// in\ntag_48:\n    /* \"#utility.yul\":712:783   */\n  swap2\n  pop\n    /* \"#utility.yul\":667:793   */\n  pop\n    /* \"#utility.yul\":299:800   */\n  swap3\n  pop\n  swap3\n  swap1\n  pop\n  jump\t// out\n    /* \"#utility.yul\":887:977   */\ntag_51:\n    /* \"#utility.yul\":921:928   */\n  0x00\n    /* \"#utility.yul\":964:969   */\n  dup2\n    /* \"#utility.yul\":957:970   */\n  iszero\n    /* \"#utility.yul\":950:971   */\n  iszero\n    /* \"#utility.yul\":939:971   */\n  swap1\n  pop\n    /* \"#utility.yul\":887:977   */\n  swap2\n  swap1\n  pop\n  jump\t// out\n    /* \"#utility.yul\":983:1060   */\ntag_53:\n    /* \"#utility.yul\":1020:1027   */\n  0x00\n    /* \"#utility.yul\":1049:1054   */\n  dup2\n    /* \"#utility.yul\":1038:1054   */\n  swap1\n  pop\n    /* \"#utility.yul\":983:1060   */\n  swap2\n  swap1\n  pop\n  jump\t// out\n    /* \"#utility.yul\":1066:1386   */\ntag_24:\n    /* \"#utility.yul\":1110:1116   */\n  0x00\n    /* \"#utility.yul\":1147:1148   */\n  0x02\n    /* \"#utility.yul\":1141:1145   */\n  dup3\n    /* \"#utility.yul\":1137:1149   */\n  div\n    /* \"#utility.yul\":1127:1149   */\n  swap1\n  pop\n    /* \"#utility.yul\":1194:1195   */\n  0x01\n    /* \"#utility.yul\":1188:1192   */\n  dup3\n    /* \"#utility.yul\":1184:1196   */\n  and\n    /* \"#utility.yul\":1215:1233   */\n  dup1\n    /* \"#utility.yul\":1205:1286   */\n  tag_56\n  jumpi\n    /* \"#utility.yul\":1271:1275   */\n  0x7f\n    /* \"#utility.yul\":1263:1269   */\n  dup3\n    /* \"#utility.yul\":1259:1276   */\n  and\n    /* \"#utility.yul\":1249:1276   */\n  swap2\n  pop\n    /* \"#utility.yul\":1205:1286   */\ntag_56:\n    /* \"#utility.yul\":1333:1335   */\n  0x20\n    /* \"#utility.yul\":1325:1331   */\n  dup3\n    /* \"#utility.yul\":1322:1336   */\n  lt\n    /* \"#utility.yul\":1302:1320   */\n  dup2\n    /* \"#utility.yul\":1299:1337   */\n  eq\n    /* \"#utility.yul\":1296:1380   */\n  iszero\n  tag_57\n  jumpi\n    /* \"#utility.yul\":1352:1370   */\n  tag_58\n  tag_59\n  jump\t// in\ntag_58:\n    /* \"#utility.yul\":1296:1380   */\ntag_57:\n    /* \"#utility.yul\":1117:1386   */\n  pop\n    /* \"#utility.yul\":1066:1386   */\n  swap2\n  swap1\n  pop\n  jump\t// out\n    /* \"#utility.yul\":1392:1572   */\ntag_59:\n    /* \"#utility.yul\":1440:1517   */\n  0x4e487b7100000000000000000000000000000000000000000000000000000000\n    /* \"#utility.yul\":1437:1438   */\n  0x00\n    /* \"#utility.yul\":1430:1518   */\n  mstore\n    /* \"#utility.yul\":1537:1541   */\n  0x22\n    /* \"#utility.yul\":1534:1535   */\n  0x04\n    /* \"#utility.yul\":1527:1542   */\n  mstore\n    /* \"#utility.yul\":1561:1565   */\n  0x24\n    /* \"#utility.yul\":1558:1559   */\n  0x00\n    /* \"#utility.yul\":1551:1566   */\n  revert\n    /* \"#utility.yul\":1701:1818   */\ntag_46:\n    /* \"#utility.yul\":1810:1811   */\n  0x00\n    /* \"#utility.yul\":1807:1808   */\n  dup1\n    /* \"#utility.yul\":1800:1812   */\n  revert\n    /* \"#utility.yul\":1824:1940   */\ntag_38:\n    /* \"#utility.yul\":1894:1915   */\n  tag_65\n    /* \"#utility.yul\":1909:1914   */\n  dup2\n    /* \"#utility.yul\":1894:1915   */\n  tag_51\n  jump\t// in\ntag_65:\n    /* \"#utility.yul\":1887:1892   */\n  dup2\n    /* \"#utility.yul\":1884:1916   */\n  eq\n    /* \"#utility.yul\":1874:1934   */\n  tag_66\n  jumpi\n    /* \"#utility.yul\":1930:1931   */\n  0x00\n    /* \"#utility.yul\":1927:1928   */\n  dup1\n    /* \"#utility.yul\":1920:1932   */\n  revert\n    /* \"#utility.yul\":1874:1934   */\ntag_66:\n    /* \"#utility.yul\":1824:1940   */\n  pop\n  jump\t// out\n    /* \"#utility.yul\":1946:2068   */\ntag_42:\n    /* \"#utility.yul\":2019:2043   */\n  tag_68\n    /* \"#utility.yul\":2037:2042   */\n  dup2\n    /* \"#utility.yul\":2019:2043   */\n  tag_53\n  jump\t// in\ntag_68:\n    /* \"#utility.yul\":2012:2017   */\n  dup2\n    /* \"#utility.yul\":2009:2044   */\n  eq\n    /* \"#utility.yul\":1999:2062   */\n  tag_69\n  jumpi\n    /* \"#utility.yul\":2058:2059   */\n  0x00\n    /* \"#utility.yul\":2055:2056   */\n  dup1\n    /* \"#utility.yul\":2048:2060   */\n  revert\n    /* \"#utility.yul\":1999:2062   */\ntag_69:\n    /* \"#utility.yul\":1946:2068   */\n  pop\n  jump\t// out\n    /* \"contracts/MudAi.sol\":135:1311  contract MudAi is Ownable, ERC721A {... */\ntag_19:\n  dataSize(sub_0)\n  dup1\n  dataOffset(sub_0)\n  0x00\n  codecopy\n  0x00\n  return\nstop\n\nsub_0: assembly {\n        /* \"contracts/MudAi.sol\":135:1311  contract MudAi is Ownable, ERC721A {... */\n      mstore(0x40, 0x80)\n      jumpi(tag_1, lt(calldatasize, 0x04))\n      shr(0xe0, calldataload(0x00))\n      dup1\n      0x70a08231\n      gt\n      tag_26\n      jumpi\n      dup1\n      0xa22cb465\n      gt\n      tag_27\n      jumpi\n      dup1\n      0xa22cb465\n      eq\n      tag_20\n      jumpi\n      dup1\n      0xb88d4fde\n      eq\n      tag_21\n      jumpi\n      dup1\n      0xc87b56dd\n      eq\n      tag_22\n      jumpi\n      dup1\n      0xe985e9c5\n      eq\n      tag_23\n      jumpi\n      dup1\n      0xf2fde38b\n      eq\n      tag_24\n      jumpi\n      dup1\n      0xf30e6e77\n      eq\n      tag_25\n      jumpi\n      jump(tag_1)\n    tag_27:\n      dup1\n      0x70a08231\n      eq\n      tag_14\n      jumpi\n      dup1\n      0x715018a6\n      eq\n      tag_15\n      jumpi\n      dup1\n      0x7e4831d3\n      eq\n      tag_16\n      jumpi\n      dup1\n      0x833b9499\n      eq\n      tag_17\n      jumpi\n      dup1\n      0x8da5cb5b\n      eq\n      tag_18\n      jumpi\n      dup1\n      0x95d89b41\n      eq\n      tag_19\n      jumpi\n      jump(tag_1)\n    tag_26:\n      dup1\n      0x32cb6b0c\n      gt\n      tag_28\n      jumpi\n      dup1\n      0x32cb6b0c\n      eq\n      tag_8\n      jumpi\n      dup1\n      0x3ccfd60b\n      eq\n      tag_9\n      jumpi\n      dup1\n      0x40c10f19\n      eq\n      tag_10\n      jumpi\n      dup1\n      0x42842e0e\n      eq\n      tag_11\n      jumpi\n      dup1\n      0x55f804b3\n      eq\n      tag_12\n      jumpi\n      dup1\n      0x6352211e\n      eq\n      tag_13\n      jumpi\n      jump(tag_1)\n    tag_28:\n      dup1\n      0x01ffc9a7\n      eq\n      tag_2\n      jumpi\n      dup1\n      0x06fdde03\n      eq\n      tag_3\n      jumpi\n      dup1\n      0x081812fc\n      eq\n      tag_4\n      jumpi\n      dup1\n      0x095ea7b3\n      eq\n      tag_5\n      jumpi\n      dup1\n      0x18160ddd\n      eq\n      tag_6\n      jumpi\n      dup1\n      0x23b872dd\n      eq\n      tag_7\n      jumpi\n    tag_1:\n      0x00\n      dup1\n      revert\n        /* \"contracts/ERC721A.sol\":9166:9796  function supportsInterface(bytes4 interfaceId) public view virtual override returns (bool) {... */\n    tag_2:\n      callvalue\n      dup1\n      iszero\n      tag_29\n      jumpi\n      0x00\n      dup1\n      revert\n    tag_29:\n      pop\n      tag_30\n      0x04\n      dup1\n      calldatasize\n      sub\n      dup2\n      add\n      swap1\n      tag_31\n      swap2\n      swap1\n      tag_32\n      jump\t// in\n    tag_31:\n      tag_33\n      jump\t// in\n    tag_30:\n      mload(0x40)\n      tag_34\n      swap2\n      swap1\n      tag_35\n      jump\t// in\n    tag_34:\n      mload(0x40)\n      dup1\n      swap2\n      sub\n      swap1\n      return\n        /* \"contracts/ERC721A.sol\":10050:10148  function name() public view virtual override returns (string memory) {... */\n    tag_3:\n      callvalue\n      dup1\n      iszero\n      tag_36\n      jumpi\n      0x00\n      dup1\n      revert\n    tag_36:\n      pop\n      tag_37\n      tag_38\n      jump\t// in\n    tag_37:\n      mload(0x40)\n      tag_39\n      swap2\n      swap1\n      tag_40\n      jump\t// in\n    tag_39:\n      mload(0x40)\n      dup1\n      swap2\n      sub\n      swap1\n      return\n        /* \"contracts/ERC721A.sol\":16371:16585  function getApproved(uint256 tokenId) public view virtual override returns (address) {... */\n    tag_4:\n      callvalue\n      dup1\n      iszero\n      tag_41\n      jumpi\n      0x00\n      dup1\n      revert\n    tag_41:\n      pop\n      tag_42\n      0x04\n      dup1\n      calldatasize\n      sub\n      dup2\n      add\n      swap1\n      tag_43\n      swap2\n      swap1\n      tag_44\n      jump\t// in\n    tag_43:\n      tag_45\n      jump\t// in\n    tag_42:\n      mload(0x40)\n      tag_46\n      swap2\n      swap1\n      tag_47\n      jump\t// in\n    tag_46:\n      mload(0x40)\n      dup1\n      swap2\n      sub\n      swap1\n      return\n        /* \"contracts/ERC721A.sol\":15823:16221  function approve(address to, uint256 tokenId) public payable virtual override {... */\n    tag_5:\n      tag_48\n      0x04\n      dup1\n      calldatasize\n      sub\n      dup2\n      add\n      swap1\n      tag_49\n      swap2\n      swap1\n      tag_50\n      jump\t// in\n    tag_49:\n      tag_51\n      jump\t// in\n    tag_48:\n      stop\n        /* \"contracts/ERC721A.sol\":5905:6222  function totalSupply() public view virtual override returns (uint256) {... */\n    tag_6:\n      callvalue\n      dup1\n      iszero\n      tag_52\n      jumpi\n      0x00\n      dup1\n      revert\n    tag_52:\n      pop\n      tag_53\n      tag_54\n      jump\t// in\n    tag_53:\n      mload(0x40)\n      tag_55\n      swap2\n      swap1\n      tag_56\n      jump\t// in\n    tag_55:\n      mload(0x40)\n      dup1\n      swap2\n      sub\n      swap1\n      return\n        /* \"contracts/ERC721A.sol\":19914:22678  function transferFrom(... */\n    tag_7:\n      tag_57\n      0x04\n      dup1\n      calldatasize\n      sub\n      dup2\n      add\n      swap1\n      tag_58\n      swap2\n      swap1\n      tag_59\n      jump\t// in\n    tag_58:\n      tag_60\n      jump\t// in\n    tag_57:\n      stop\n        /* \"contracts/MudAi.sol\":177:217  uint256 public constant MAX_SUPPLY = 100 */\n    tag_8:\n      callvalue\n      dup1\n      iszero\n      tag_61\n      jumpi\n      0x00\n      dup1\n      revert\n    tag_61:\n      pop\n      tag_62\n      tag_63\n      jump\t// in\n    tag_62:\n      mload(0x40)\n      tag_64\n      swap2\n      swap1\n      tag_56\n      jump\t// in\n    tag_64:\n      mload(0x40)\n      dup1\n      swap2\n      sub\n      swap1\n      return\n        /* \"contracts/MudAi.sol\":775:944  function withdraw() external onlyOwner {... */\n    tag_9:\n      callvalue\n      dup1\n      iszero\n      tag_65\n      jumpi\n      0x00\n      dup1\n      revert\n    tag_65:\n      pop\n      tag_66\n      tag_67\n      jump\t// in\n    tag_66:\n      stop\n        /* \"contracts/MudAi.sol\":468:769  function mint(address to, uint256 quantity) external payable {... */\n    tag_10:\n      tag_68\n      0x04\n      dup1\n      calldatasize\n      sub\n      dup2\n      add\n      swap1\n      tag_69\n      swap2\n      swap1\n      tag_50\n      jump\t// in\n    tag_69:\n      tag_70\n      jump\t// in\n    tag_68:\n      stop\n        /* \"contracts/ERC721A.sol\":22769:22956  function safeTransferFrom(... */\n    tag_11:\n      tag_71\n      0x04\n      dup1\n      calldatasize\n      sub\n      dup2\n      add\n      swap1\n      tag_72\n      swap2\n      swap1\n      tag_59\n      jump\t// in\n    tag_72:\n      tag_73\n      jump\t// in\n    tag_71:\n      stop\n        /* \"contracts/MudAi.sol\":950:1054  function setBaseURI(string calldata baseURI) external onlyOwner {... */\n    tag_12:\n      callvalue\n      dup1\n      iszero\n      tag_74\n      jumpi\n      0x00\n      dup1\n      revert\n    tag_74:\n      pop\n      tag_75\n      0x04\n      dup1\n      calldatasize\n      sub\n      dup2\n      add\n      swap1\n      tag_76\n      swap2\n      swap1\n      tag_77\n      jump\t// in\n    tag_76:\n      tag_78\n      jump\t// in\n    tag_75:\n      stop\n        /* \"contracts/ERC721A.sol\":11402:11552  function ownerOf(uint256 tokenId) public view virtual override returns (address) {... */\n    tag_13:\n      callvalue\n      dup1\n      iszero\n      tag_79\n      jumpi\n      0x00\n      dup1\n      revert\n    tag_79:\n      pop\n      tag_80\n      0x04\n      dup1\n      calldatasize\n      sub\n      dup2\n      add\n      swap1\n      tag_81\n      swap2\n      swap1\n      tag_44\n      jump\t// in\n    tag_81:\n      tag_82\n      jump\t// in\n    tag_80:\n      mload(0x40)\n      tag_83\n      swap2\n      swap1\n      tag_47\n      jump\t// in\n    tag_83:\n      mload(0x40)\n      dup1\n      swap2\n      sub\n      swap1\n      return\n        /* \"contracts/ERC721A.sol\":7056:7286  function balanceOf(address owner) public view virtual override returns (uint256) {... */\n    tag_14:\n      callvalue\n      dup1\n      iszero\n      tag_84\n      jumpi\n      0x00\n      dup1\n      revert\n    tag_84:\n      pop\n      tag_85\n      0x04\n      dup1\n      calldatasize\n      sub\n      dup2\n      add\n      swap1\n      tag_86\n      swap2\n      swap1\n      tag_87\n      jump\t// in\n    tag_86:\n      tag_88\n      jump\t// in\n    tag_85:\n      mload(0x40)\n      tag_89\n      swap2\n      swap1\n      tag_56\n      jump\t// in\n    tag_89:\n      mload(0x40)\n      dup1\n      swap2\n      sub\n      swap1\n      return\n        /* \"@openzeppelin/contracts/access/Ownable.sol\":1831:1932  function renounceOwnership() public virtual onlyOwner {... */\n    tag_15:\n      callvalue\n      dup1\n      iszero\n      tag_90\n      jumpi\n      0x00\n      dup1\n      revert\n    tag_90:\n      pop\n      tag_91\n      tag_92\n      jump\t// in\n    tag_91:\n      stop\n        /* \"contracts/MudAi.sol\":281:303  bool public mintPaused */\n    tag_16:\n      callvalue\n      dup1\n      iszero\n      tag_93\n      jumpi\n      0x00\n      dup1\n      revert\n    tag_93:\n      pop\n      tag_94\n      tag_95\n      jump\t// in\n    tag_94:\n      mload(0x40)\n      tag_96\n      swap2\n      swap1\n      tag_35\n      jump\t// in\n    tag_96:\n      mload(0x40)\n      dup1\n      swap2\n      sub\n      swap1\n      return\n        /* \"contracts/MudAi.sol\":223:275  uint256 public constant PRICE_PER_TOKEN = 0.01 ether */\n    tag_17:\n      callvalue\n      dup1\n      iszero\n      tag_97\n      jumpi\n      0x00\n      dup1\n      revert\n    tag_97:\n      pop\n      tag_98\n      tag_99\n      jump\t// in\n    tag_98:\n      mload(0x40)\n      tag_100\n      swap2\n      swap1\n      tag_56\n      jump\t// in\n    tag_100:\n      mload(0x40)\n      dup1\n      swap2\n      sub\n      swap1\n      return\n        /* \"@openzeppelin/contracts/access/Ownable.sol\":1201:1286  function owner() public view virtual returns (address) {... */\n    tag_18:\n      callvalue\n      dup1\n      iszero\n      tag_101\n      jumpi\n      0x00\n      dup1\n      revert\n    tag_101:\n      pop\n      tag_102\n      tag_103\n      jump\t// in\n    tag_102:\n      mload(0x40)\n      tag_104\n      swap2\n      swap1\n      tag_47\n      jump\t// in\n    tag_104:\n      mload(0x40)\n      dup1\n      swap2\n      sub\n      swap1\n      return\n        /* \"contracts/ERC721A.sol\":10219:10321  function symbol() public view virtual override returns (string memory) {... */\n    tag_19:\n      callvalue\n      dup1\n      iszero\n      tag_105\n      jumpi\n      0x00\n      dup1\n      revert\n    tag_105:\n      pop\n      tag_106\n      tag_107\n      jump\t// in\n    tag_106:\n      mload(0x40)\n      tag_108\n      swap2\n      swap1\n      tag_40\n      jump\t// in\n    tag_108:\n      mload(0x40)\n      dup1\n      swap2\n      sub\n      swap1\n      return\n        /* \"contracts/ERC721A.sol\":16912:17143  function setApprovalForAll(address operator, bool approved) public virtual override {... */\n    tag_20:\n      callvalue\n      dup1\n      iszero\n      tag_109\n      jumpi\n      0x00\n      dup1\n      revert\n    tag_109:\n      pop\n      tag_110\n      0x04\n      dup1\n      calldatasize\n      sub\n      dup2\n      add\n      swap1\n      tag_111\n      swap2\n      swap1\n      tag_112\n      jump\t// in\n    tag_111:\n      tag_113\n      jump\t// in\n    tag_110:\n      stop\n        /* \"contracts/ERC721A.sol\":23537:23933  function safeTransferFrom(... */\n    tag_21:\n      tag_114\n      0x04\n      dup1\n      calldatasize\n      sub\n      dup2\n      add\n      swap1\n      tag_115\n      swap2\n      swap1\n      tag_116\n      jump\t// in\n    tag_115:\n      tag_117\n      jump\t// in\n    tag_114:\n      stop\n        /* \"contracts/ERC721A.sol\":10422:10735  function tokenURI(uint256 tokenId) public view virtual override returns (string memory) {... */\n    tag_22:\n      callvalue\n      dup1\n      iszero\n      tag_118\n      jumpi\n      0x00\n      dup1\n      revert\n    tag_118:\n      pop\n      tag_119\n      0x04\n      dup1\n      calldatasize\n      sub\n      dup2\n      add\n      swap1\n      tag_120\n      swap2\n      swap1\n      tag_44\n      jump\t// in\n    tag_120:\n      tag_121\n      jump\t// in\n    tag_119:\n      mload(0x40)\n      tag_122\n      swap2\n      swap1\n      tag_40\n      jump\t// in\n    tag_122:\n      mload(0x40)\n      dup1\n      swap2\n      sub\n      swap1\n      return\n        /* \"contracts/ERC721A.sol\":17293:17455  function isApprovedForAll(address owner, address operator) public view virtual override returns (bool) {... */\n    tag_23:\n      callvalue\n      dup1\n      iszero\n      tag_123\n      jumpi\n      0x00\n      dup1\n      revert\n    tag_123:\n      pop\n      tag_124\n      0x04\n      dup1\n      calldatasize\n      sub\n      dup2\n      add\n      swap1\n      tag_125\n      swap2\n      swap1\n      tag_126\n      jump\t// in\n    tag_125:\n      tag_127\n      jump\t// in\n    tag_124:\n      mload(0x40)\n      tag_128\n      swap2\n      swap1\n      tag_35\n      jump\t// in\n    tag_128:\n      mload(0x40)\n      dup1\n      swap2\n      sub\n      swap1\n      return\n        /* \"@openzeppelin/contracts/access/Ownable.sol\":2081:2279  function transferOwnership(address newOwner) public virtual onlyOwner {... */\n    tag_24:\n      callvalue\n      dup1\n      iszero\n      tag_129\n      jumpi\n      0x00\n      dup1\n      revert\n    tag_129:\n      pop\n      tag_130\n      0x04\n      dup1\n      calldatasize\n      sub\n      dup2\n      add\n      swap1\n      tag_131\n      swap2\n      swap1\n      tag_87\n      jump\t// in\n    tag_131:\n      tag_132\n      jump\t// in\n    tag_130:\n      stop\n        /* \"contracts/MudAi.sol\":1170:1309  function pauseMint(bool _paused) external onlyOwner {... */\n    tag_25:\n      callvalue\n      dup1\n      iszero\n      tag_133\n      jumpi\n      0x00\n      dup1\n      revert\n    tag_133:\n      pop\n      tag_134\n      0x04\n      dup1\n      calldatasize\n      sub\n      dup2\n      add\n      swap1\n      tag_135\n      swap2\n      swap1\n      tag_136\n      jump\t// in\n    tag_135:\n      tag_137\n      jump\t// in\n    tag_134:\n      stop\n        /* \"contracts/ERC721A.sol\":9166:9796  function supportsInterface(bytes4 interfaceId) public view virtual override returns (bool) {... */\n    tag_33:\n        /* \"contracts/ERC721A.sol\":9251:9255  bool */\n      0x00\n        /* \"contracts/ERC721A.sol\":9584:9594  0x01ffc9a7 */\n      0x01ffc9a7\n        /* \"contracts/ERC721A.sol\":9569:9594  interfaceId == 0x01ffc9a7 */\n      0xe0\n      shl\n        /* \"contracts/ERC721A.sol\":9569:9580  interfaceId */\n      dup3\n        /* \"contracts/ERC721A.sol\":9569:9594  interfaceId == 0x01ffc9a7 */\n      not(0xffffffffffffffffffffffffffffffffffffffffffffffffffffffff)\n      and\n      eq\n        /* \"contracts/ERC721A.sol\":9569:9670  interfaceId == 0x01ffc9a7 || // ERC165 interface ID for ERC165.... */\n      dup1\n      tag_139\n      jumpi\n      pop\n        /* \"contracts/ERC721A.sol\":9660:9670  0x80ac58cd */\n      0x80ac58cd\n        /* \"contracts/ERC721A.sol\":9645:9670  interfaceId == 0x80ac58cd */\n      0xe0\n      shl\n        /* \"contracts/ERC721A.sol\":9645:9656  interfaceId */\n      dup3\n        /* \"contracts/ERC721A.sol\":9645:9670  interfaceId == 0x80ac58cd */\n      not(0xffffffffffffffffffffffffffffffffffffffffffffffffffffffff)\n      and\n      eq\n        /* \"contracts/ERC721A.sol\":9569:9670  interfaceId == 0x01ffc9a7 || // ERC165 interface ID for ERC165.... */\n    tag_139:\n        /* \"contracts/ERC721A.sol\":9569:9746  interfaceId == 0x01ffc9a7 || // ERC165 interface ID for ERC165.... */\n      dup1\n      tag_140\n      jumpi\n      pop\n        /* \"contracts/ERC721A.sol\":9736:9746  0x5b5e139f */\n      0x5b5e139f\n        /* \"contracts/ERC721A.sol\":9721:9746  interfaceId == 0x5b5e139f */\n      0xe0\n      shl\n        /* \"contracts/ERC721A.sol\":9721:9732  interfaceId */\n      dup3\n        /* \"contracts/ERC721A.sol\":9721:9746  interfaceId == 0x5b5e139f */\n      not(0xffffffffffffffffffffffffffffffffffffffffffffffffffffffff)\n      and\n      eq\n        /* \"contracts/ERC721A.sol\":9569:9746  interfaceId == 0x01ffc9a7 || // ERC165 interface ID for ERC165.... */\n    tag_140:\n        /* \"contracts/ERC721A.sol\":9550:9746  return... */\n      swap1\n      pop\n        /* \"contracts/ERC721A.sol\":9166:9796  function supportsInterface(bytes4 interfaceId) public view virtual override returns (bool) {... */\n      swap2\n      swap1\n      pop\n      jump\t// out\n        /* \"contracts/ERC721A.sol\":10050:10148  function name() public view virtual override returns (string memory) {... */\n    tag_38:\n        /* \"contracts/ERC721A.sol\":10104:10117  string memory */\n      0x60\n        /* \"contracts/ERC721A.sol\":10136:10141  _name */\n      0x03\n        /* \"contracts/ERC721A.sol\":10129:10141  return _name */\n      dup1\n      sload\n      tag_142\n      swap1\n      tag_143\n      jump\t// in\n    tag_142:\n      dup1\n      0x1f\n      add\n      0x20\n      dup1\n      swap2\n      div\n      mul\n      0x20\n      add\n      mload(0x40)\n      swap1\n      dup2\n      add\n      0x40\n      mstore\n      dup1\n      swap3\n      swap2\n      swap1\n      dup2\n      dup2\n      mstore\n      0x20\n      add\n      dup3\n      dup1\n      sload\n      tag_144\n      swap1\n      tag_143\n      jump\t// in\n    tag_144:\n      dup1\n      iszero\n      tag_145\n      jumpi\n      dup1\n      0x1f\n      lt\n      tag_146\n      jumpi\n      0x0100\n      dup1\n      dup4\n      sload\n      div\n      mul\n      dup4\n      mstore\n      swap2\n      0x20\n      add\n      swap2\n      jump(tag_145)\n    tag_146:\n      dup3\n      add\n      swap2\n      swap1\n      0x00\n      mstore\n      keccak256(0x00, 0x20)\n      swap1\n    tag_147:\n      dup2\n      sload\n      dup2\n      mstore\n      swap1\n      0x01\n      add\n      swap1\n      0x20\n      add\n      dup1\n      dup4\n      gt\n      tag_147\n      jumpi\n      dup3\n      swap1\n      sub\n      0x1f\n      and\n      dup3\n      add\n      swap2\n    tag_145:\n      pop\n      pop\n      pop\n      pop\n      pop\n      swap1\n      pop\n        /* \"contracts/ERC721A.sol\":10050:10148  function name() public view virtual override returns (string memory) {... */\n      swap1\n      jump\t// out\n        /* \"contracts/ERC721A.sol\":16371:16585  function getApproved(uint256 tokenId) public view virtual override returns (address) {... */\n    tag_45:\n        /* \"contracts/ERC721A.sol\":16447:16454  address */\n      0x00\n        /* \"contracts/ERC721A.sol\":16471:16487  _exists(tokenId) */\n      tag_149\n        /* \"contracts/ERC721A.sol\":16479:16486  tokenId */\n      dup3\n        /* \"contracts/ERC721A.sol\":16471:16478  _exists */\n      tag_150\n        /* \"contracts/ERC721A.sol\":16471:16487  _exists(tokenId) */\n      jump\t// in\n    tag_149:\n        /* \"contracts/ERC721A.sol\":16466:16530  if (!_exists(tokenId)) revert ApprovalQueryForNonexistentToken() */\n      tag_151\n      jumpi\n        /* \"contracts/ERC721A.sol\":16496:16530  ApprovalQueryForNonexistentToken() */\n      mload(0x40)\n      0xcf4700e400000000000000000000000000000000000000000000000000000000\n      dup2\n      mstore\n      0x04\n      add\n      mload(0x40)\n      dup1\n      swap2\n      sub\n      swap1\n      revert\n        /* \"contracts/ERC721A.sol\":16466:16530  if (!_exists(tokenId)) revert ApprovalQueryForNonexistentToken() */\n    tag_151:\n        /* \"contracts/ERC721A.sol\":16548:16563  _tokenApprovals */\n      0x07\n        /* \"contracts/ERC721A.sol\":16548:16572  _tokenApprovals[tokenId] */\n      0x00\n        /* \"contracts/ERC721A.sol\":16564:16571  tokenId */\n      dup4\n        /* \"contracts/ERC721A.sol\":16548:16572  _tokenApprovals[tokenId] */\n      dup2\n      mstore\n      0x20\n      add\n      swap1\n      dup2\n      mstore\n      0x20\n      add\n      0x00\n      keccak256\n        /* \"contracts/ERC721A.sol\":16548:16578  _tokenApprovals[tokenId].value */\n      0x00\n      add\n      0x00\n      swap1\n      sload\n      swap1\n      0x0100\n      exp\n      swap1\n      div\n      0xffffffffffffffffffffffffffffffffffffffff\n      and\n        /* \"contracts/ERC721A.sol\":16541:16578  return _tokenApprovals[tokenId].value */\n      swap1\n      pop\n        /* \"contracts/ERC721A.sol\":16371:16585  function getApproved(uint256 tokenId) public view virtual override returns (address) {... */\n      swap2\n      swap1\n      pop\n      jump\t// out\n        /* \"contracts/ERC721A.sol\":15823:16221  function approve(address to, uint256 tokenId) public payable virtual override {... */\n    tag_51:\n        /* \"contracts/ERC721A.sol\":15911:15924  address owner */\n      0x00\n        /* \"contracts/ERC721A.sol\":15927:15943  ownerOf(tokenId) */\n      tag_153\n        /* \"contracts/ERC721A.sol\":15935:15942  tokenId */\n      dup3\n        /* \"contracts/ERC721A.sol\":15927:15934  ownerOf */\n      tag_82\n        /* \"contracts/ERC721A.sol\":15927:15943  ownerOf(tokenId) */\n      jump\t// in\n    tag_153:\n        /* \"contracts/ERC721A.sol\":15911:15943  address owner = ownerOf(tokenId) */\n      swap1\n      pop\n        /* \"contracts/ERC721A.sol\":15981:15986  owner */\n      dup1\n        /* \"contracts/ERC721A.sol\":15958:15986  _msgSenderERC721A() != owner */\n      0xffffffffffffffffffffffffffffffffffffffff\n      and\n        /* \"contracts/ERC721A.sol\":15958:15977  _msgSenderERC721A() */\n      tag_154\n        /* \"contracts/ERC721A.sol\":15958:15975  _msgSenderERC721A */\n      tag_155\n        /* \"contracts/ERC721A.sol\":15958:15977  _msgSenderERC721A() */\n      jump\t// in\n    tag_154:\n        /* \"contracts/ERC721A.sol\":15958:15986  _msgSenderERC721A() != owner */\n      0xffffffffffffffffffffffffffffffffffffffff\n      and\n      eq\n        /* \"contracts/ERC721A.sol\":15954:16126  if (_msgSenderERC721A() != owner)... */\n      tag_156\n      jumpi\n        /* \"contracts/ERC721A.sol\":16005:16049  isApprovedForAll(owner, _msgSenderERC721A()) */\n      tag_157\n        /* \"contracts/ERC721A.sol\":16022:16027  owner */\n      dup2\n        /* \"contracts/ERC721A.sol\":16029:16048  _msgSenderERC721A() */\n      tag_158\n        /* \"contracts/ERC721A.sol\":16029:16046  _msgSenderERC721A */\n      tag_155\n        /* \"contracts/ERC721A.sol\":16029:16048  _msgSenderERC721A() */\n      jump\t// in\n    tag_158:\n        /* \"contracts/ERC721A.sol\":16005:16021  isApprovedForAll */\n      tag_127\n        /* \"contracts/ERC721A.sol\":16005:16049  isApprovedForAll(owner, _msgSenderERC721A()) */\n      jump\t// in\n    tag_157:\n        /* \"contracts/ERC721A.sol\":16000:16126  if (!isApprovedForAll(owner, _msgSenderERC721A())) {... */\n      tag_159\n      jumpi\n        /* \"contracts/ERC721A.sol\":16076:16111  ApprovalCallerNotOwnerNorApproved() */\n      mload(0x40)\n      0xcfb3b94200000000000000000000000000000000000000000000000000000000\n      dup2\n      mstore\n      0x04\n      add\n      mload(0x40)\n      dup1\n      swap2\n      sub\n      swap1\n      revert\n        /* \"contracts/ERC721A.sol\":16000:16126  if (!isApprovedForAll(owner, _msgSenderERC721A())) {... */\n    tag_159:\n        /* \"contracts/ERC721A.sol\":15954:16126  if (_msgSenderERC721A() != owner)... */\n    tag_156:\n        /* \"contracts/ERC721A.sol\":16169:16171  to */\n      dup3\n        /* \"contracts/ERC721A.sol\":16136:16151  _tokenApprovals */\n      0x07\n        /* \"contracts/ERC721A.sol\":16136:16160  _tokenApprovals[tokenId] */\n      0x00\n        /* \"contracts/ERC721A.sol\":16152:16159  tokenId */\n      dup5\n        /* \"contracts/ERC721A.sol\":16136:16160  _tokenApprovals[tokenId] */\n      dup2\n      mstore\n      0x20\n      add\n      swap1\n      dup2\n      mstore\n      0x20\n      add\n      0x00\n      keccak256\n        /* \"contracts/ERC721A.sol\":16136:16166  _tokenApprovals[tokenId].value */\n      0x00\n      add\n      0x00\n        /* \"contracts/ERC721A.sol\":16136:16171  _tokenApprovals[tokenId].value = to */\n      0x0100\n      exp\n      dup2\n      sload\n      dup2\n      0xffffffffffffffffffffffffffffffffffffffff\n      mul\n      not\n      and\n      swap1\n      dup4\n      0xffffffffffffffffffffffffffffffffffffffff\n      and\n      mul\n      or\n      swap1\n      sstore\n      pop\n        /* \"contracts/ERC721A.sol\":16206:16213  tokenId */\n      dup2\n        /* \"contracts/ERC721A.sol\":16202:16204  to */\n      dup4\n        /* \"contracts/ERC721A.sol\":16186:16214  Approval(owner, to, tokenId) */\n      0xffffffffffffffffffffffffffffffffffffffff\n      and\n        /* \"contracts/ERC721A.sol\":16195:16200  owner */\n      dup3\n        /* \"contracts/ERC721A.sol\":16186:16214  Approval(owner, to, tokenId) */\n      0xffffffffffffffffffffffffffffffffffffffff\n      and\n      0x8c5be1e5ebec7d5bd14f71427d1e84f3dd0314c0f7b2291e5b200ac8c7c3b925\n      mload(0x40)\n      mload(0x40)\n      dup1\n      swap2\n      sub\n      swap1\n      log4\n        /* \"contracts/ERC721A.sol\":15901:16221  {... */\n      pop\n        /* \"contracts/ERC721A.sol\":15823:16221  function approve(address to, uint256 tokenId) public payable virtual override {... */\n      pop\n      pop\n      jump\t// out\n        /* \"contracts/ERC721A.sol\":5905:6222  function totalSupply() public view virtual override returns (uint256) {... */\n    tag_54:\n        /* \"contracts/ERC721A.sol\":5966:5973  uint256 */\n      0x00\n        /* \"contracts/ERC721A.sol\":6190:6205  _startTokenId() */\n      tag_161\n        /* \"contracts/ERC721A.sol\":6190:6203  _startTokenId */\n      tag_162\n        /* \"contracts/ERC721A.sol\":6190:6205  _startTokenId() */\n      jump\t// in\n    tag_161:\n        /* \"contracts/ERC721A.sol\":6175:6187  _burnCounter */\n      sload(0x02)\n        /* \"contracts/ERC721A.sol\":6159:6172  _currentIndex */\n      sload(0x01)\n        /* \"contracts/ERC721A.sol\":6159:6187  _currentIndex - _burnCounter */\n      sub\n        /* \"contracts/ERC721A.sol\":6159:6205  _currentIndex - _burnCounter - _startTokenId() */\n      sub\n        /* \"contracts/ERC721A.sol\":6152:6205  return _currentIndex - _burnCounter - _startTokenId() */\n      swap1\n      pop\n        /* \"contracts/ERC721A.sol\":5905:6222  function totalSupply() public view virtual override returns (uint256) {... */\n      swap1\n      jump\t// out\n        /* \"contracts/ERC721A.sol\":19914:22678  function transferFrom(... */\n    tag_60:\n        /* \"contracts/ERC721A.sol\":20051:20078  uint256 prevOwnershipPacked */\n      0x00\n        /* \"contracts/ERC721A.sol\":20081:20108  _packedOwnershipOf(tokenId) */\n      tag_164\n        /* \"contracts/ERC721A.sol\":20100:20107  tokenId */\n      dup3\n        /* \"contracts/ERC721A.sol\":20081:20099  _packedOwnershipOf */\n      tag_165\n        /* \"contracts/ERC721A.sol\":20081:20108  _packedOwnershipOf(tokenId) */\n      jump\t// in\n    tag_164:\n        /* \"contracts/ERC721A.sol\":20051:20108  uint256 prevOwnershipPacked = _packedOwnershipOf(tokenId) */\n      swap1\n      pop\n        /* \"contracts/ERC721A.sol\":20164:20168  from */\n      dup4\n        /* \"contracts/ERC721A.sol\":20123:20168  address(uint160(prevOwnershipPacked)) != from */\n      0xffffffffffffffffffffffffffffffffffffffff\n      and\n        /* \"contracts/ERC721A.sol\":20139:20158  prevOwnershipPacked */\n      dup2\n        /* \"contracts/ERC721A.sol\":20123:20168  address(uint160(prevOwnershipPacked)) != from */\n      0xffffffffffffffffffffffffffffffffffffffff\n      and\n      eq\n        /* \"contracts/ERC721A.sol\":20119:20205  if (address(uint160(prevOwnershipPacked)) != from) revert TransferFromIncorrectOwner() */\n      tag_166\n      jumpi\n        /* \"contracts/ERC721A.sol\":20177:20205  TransferFromIncorrectOwner() */\n      mload(0x40)\n      0xa114810000000000000000000000000000000000000000000000000000000000\n      dup2\n      mstore\n      0x04\n      add\n      mload(0x40)\n      dup1\n      swap2\n      sub\n      swap1\n      revert\n        /* \"contracts/ERC721A.sol\":20119:20205  if (address(uint160(prevOwnershipPacked)) != from) revert TransferFromIncorrectOwner() */\n    tag_166:\n        /* \"contracts/ERC721A.sol\":20217:20244  uint256 approvedAddressSlot */\n      0x00\n        /* \"contracts/ERC721A.sol\":20246:20269  address approvedAddress */\n      dup1\n        /* \"contracts/ERC721A.sol\":20273:20308  _getApprovedSlotAndAddress(tokenId) */\n      tag_167\n        /* \"contracts/ERC721A.sol\":20300:20307  tokenId */\n      dup5\n        /* \"contracts/ERC721A.sol\":20273:20299  _getApprovedSlotAndAddress */\n      tag_168\n        /* \"contracts/ERC721A.sol\":20273:20308  _getApprovedSlotAndAddress(tokenId) */\n      jump\t// in\n    tag_167:\n        /* \"contracts/ERC721A.sol\":20216:20308  (uint256 approvedAddressSlot, address approvedAddress) = _getApprovedSlotAndAddress(tokenId) */\n      swap2\n      pop\n      swap2\n      pop\n        /* \"contracts/ERC721A.sol\":20405:20473  _isSenderApprovedOrOwner(approvedAddress, from, _msgSenderERC721A()) */\n      tag_169\n        /* \"contracts/ERC721A.sol\":20430:20445  approvedAddress */\n      dup2\n        /* \"contracts/ERC721A.sol\":20447:20451  from */\n      dup8\n        /* \"contracts/ERC721A.sol\":20453:20472  _msgSenderERC721A() */\n      tag_170\n        /* \"contracts/ERC721A.sol\":20453:20470  _msgSenderERC721A */\n      tag_155\n        /* \"contracts/ERC721A.sol\":20453:20472  _msgSenderERC721A() */\n      jump\t// in\n    tag_170:\n        /* \"contracts/ERC721A.sol\":20405:20429  _isSenderApprovedOrOwner */\n      tag_171\n        /* \"contracts/ERC721A.sol\":20405:20473  _isSenderApprovedOrOwner(approvedAddress, from, _msgSenderERC721A()) */\n      jump\t// in\n    tag_169:\n        /* \"contracts/ERC721A.sol\":20400:20579  if (!_isSenderApprovedOrOwner(approvedAddress, from, _msgSenderERC721A()))... */\n      tag_172\n      jumpi\n        /* \"contracts/ERC721A.sol\":20492:20535  isApprovedForAll(from, _msgSenderERC721A()) */\n      tag_173\n        /* \"contracts/ERC721A.sol\":20509:20513  from */\n      dup7\n        /* \"contracts/ERC721A.sol\":20515:20534  _msgSenderERC721A() */\n      tag_174\n        /* \"contracts/ERC721A.sol\":20515:20532  _msgSenderERC721A */\n      tag_155\n        /* \"contracts/ERC721A.sol\":20515:20534  _msgSenderERC721A() */\n      jump\t// in\n    tag_174:\n        /* \"contracts/ERC721A.sol\":20492:20508  isApprovedForAll */\n      tag_127\n        /* \"contracts/ERC721A.sol\":20492:20535  isApprovedForAll(from, _msgSenderERC721A()) */\n      jump\t// in\n    tag_173:\n        /* \"contracts/ERC721A.sol\":20487:20579  if (!isApprovedForAll(from, _msgSenderERC721A())) revert TransferCallerNotOwnerNorApproved() */\n      tag_175\n      jumpi\n        /* \"contracts/ERC721A.sol\":20544:20579  TransferCallerNotOwnerNorApproved() */\n      mload(0x40)\n      0x59c896be00000000000000000000000000000000000000000000000000000000\n      dup2\n      mstore\n      0x04\n      add\n      mload(0x40)\n      dup1\n      swap2\n      sub\n      swap1\n      revert\n        /* \"contracts/ERC721A.sol\":20487:20579  if (!isApprovedForAll(from, _msgSenderERC721A())) revert TransferCallerNotOwnerNorApproved() */\n    tag_175:\n        /* \"contracts/ERC721A.sol\":20400:20579  if (!_isSenderApprovedOrOwner(approvedAddress, from, _msgSenderERC721A()))... */\n    tag_172:\n        /* \"contracts/ERC721A.sol\":20608:20609  0 */\n      0x00\n        /* \"contracts/ERC721A.sol\":20594:20610  to == address(0) */\n      0xffffffffffffffffffffffffffffffffffffffff\n      and\n        /* \"contracts/ERC721A.sol\":20594:20596  to */\n      dup6\n        /* \"contracts/ERC721A.sol\":20594:20610  to == address(0) */\n      0xffffffffffffffffffffffffffffffffffffffff\n      and\n      eq\n        /* \"contracts/ERC721A.sol\":20590:20642  if (to == address(0)) revert TransferToZeroAddress() */\n      iszero\n      tag_176\n      jumpi\n        /* \"contracts/ERC721A.sol\":20619:20642  TransferToZeroAddress() */\n      mload(0x40)\n      0xea553b3400000000000000000000000000000000000000000000000000000000\n      dup2\n      mstore\n      0x04\n      add\n      mload(0x40)\n      dup1\n      swap2\n      sub\n      swap1\n      revert\n        /* \"contracts/ERC721A.sol\":20590:20642  if (to == address(0)) revert TransferToZeroAddress() */\n    tag_176:\n        /* \"contracts/ERC721A.sol\":20653:20696  _beforeTokenTransfers(from, to, tokenId, 1) */\n      tag_177\n        /* \"contracts/ERC721A.sol\":20675:20679  from */\n      dup7\n        /* \"contracts/ERC721A.sol\":20681:20683  to */\n      dup7\n        /* \"contracts/ERC721A.sol\":20685:20692  tokenId */\n      dup7\n        /* \"contracts/ERC721A.sol\":20694:20695  1 */\n      0x01\n        /* \"contracts/ERC721A.sol\":20653:20674  _beforeTokenTransfers */\n      tag_178\n        /* \"contracts/ERC721A.sol\":20653:20696  _beforeTokenTransfers(from, to, tokenId, 1) */\n      jump\t// in\n    tag_177:\n        /* \"contracts/ERC721A.sol\":20785:20800  approvedAddress */\n      dup1\n        /* \"contracts/ERC721A.sol\":20782:20939  if approvedAddress {... */\n      iszero\n      tag_179\n      jumpi\n        /* \"contracts/ERC721A.sol\":20923:20924  0 */\n      0x00\n        /* \"contracts/ERC721A.sol\":20902:20921  approvedAddressSlot */\n      dup3\n        /* \"contracts/ERC721A.sol\":20895:20925  sstore(approvedAddressSlot, 0) */\n      sstore\n        /* \"contracts/ERC721A.sol\":20782:20939  if approvedAddress {... */\n    tag_179:\n        /* \"contracts/ERC721A.sol\":21311:21329  _packedAddressData */\n      0x06\n        /* \"contracts/ERC721A.sol\":21311:21335  _packedAddressData[from] */\n      0x00\n        /* \"contracts/ERC721A.sol\":21330:21334  from */\n      dup8\n        /* \"contracts/ERC721A.sol\":21311:21335  _packedAddressData[from] */\n      0xffffffffffffffffffffffffffffffffffffffff\n      and\n      0xffffffffffffffffffffffffffffffffffffffff\n      and\n      dup2\n      mstore\n      0x20\n      add\n      swap1\n      dup2\n      mstore\n      0x20\n      add\n      0x00\n      keccak256\n      0x00\n        /* \"contracts/ERC721A.sol\":21309:21335  --_packedAddressData[from] */\n      dup2\n      sload\n      0x01\n      swap1\n      sub\n      swap2\n      swap1\n      pop\n      dup2\n      swap1\n      sstore\n      pop\n        /* \"contracts/ERC721A.sol\":21379:21397  _packedAddressData */\n      0x06\n        /* \"contracts/ERC721A.sol\":21379:21401  _packedAddressData[to] */\n      0x00\n        /* \"contracts/ERC721A.sol\":21398:21400  to */\n      dup7\n        /* \"contracts/ERC721A.sol\":21379:21401  _packedAddressData[to] */\n      0xffffffffffffffffffffffffffffffffffffffff\n      and\n      0xffffffffffffffffffffffffffffffffffffffff\n      and\n      dup2\n      mstore\n      0x20\n      add\n      swap1\n      dup2\n      mstore\n      0x20\n      add\n      0x00\n      keccak256\n      0x00\n        /* \"contracts/ERC721A.sol\":21377:21401  ++_packedAddressData[to] */\n      dup2\n      sload\n      0x01\n      add\n      swap2\n      swap1\n      pop\n      dup2\n      swap1\n      sstore\n      pop\n        /* \"contracts/ERC721A.sol\":21694:21837  _packOwnershipData(... */\n      tag_180\n        /* \"contracts/ERC721A.sol\":21730:21732  to */\n      dup6\n        /* \"contracts/ERC721A.sol\":21778:21823  _nextExtraData(from, to, prevOwnershipPacked) */\n      tag_181\n        /* \"contracts/ERC721A.sol\":21793:21797  from */\n      dup9\n        /* \"contracts/ERC721A.sol\":21799:21801  to */\n      dup9\n        /* \"contracts/ERC721A.sol\":21803:21822  prevOwnershipPacked */\n      dup8\n        /* \"contracts/ERC721A.sol\":21778:21792  _nextExtraData */\n      tag_182\n        /* \"contracts/ERC721A.sol\":21778:21823  _nextExtraData(from, to, prevOwnershipPacked) */\n      jump\t// in\n    tag_181:\n        /* \"contracts/ERC721A.sol\":2403:2411  1 << 225 */\n      0x0200000000000000000000000000000000000000000000000000000000\n        /* \"contracts/ERC721A.sol\":21750:21823  _BITMASK_NEXT_INITIALIZED | _nextExtraData(from, to, prevOwnershipPacked) */\n      or\n        /* \"contracts/ERC721A.sol\":21694:21712  _packOwnershipData */\n      tag_183\n        /* \"contracts/ERC721A.sol\":21694:21837  _packOwnershipData(... */\n      jump\t// in\n    tag_180:\n        /* \"contracts/ERC721A.sol\":21665:21682  _packedOwnerships */\n      0x05\n        /* \"contracts/ERC721A.sol\":21665:21691  _packedOwnerships[tokenId] */\n      0x00\n        /* \"contracts/ERC721A.sol\":21683:21690  tokenId */\n      dup7\n        /* \"contracts/ERC721A.sol\":21665:21691  _packedOwnerships[tokenId] */\n      dup2\n      mstore\n      0x20\n      add\n      swap1\n      dup2\n      mstore\n      0x20\n      add\n      0x00\n      keccak256\n        /* \"contracts/ERC721A.sol\":21665:21837  _packedOwnerships[tokenId] = _packOwnershipData(... */\n      dup2\n      swap1\n      sstore\n      pop\n        /* \"contracts/ERC721A.sol\":22005:22006  0 */\n      0x00\n        /* \"contracts/ERC721A.sol\":2403:2411  1 << 225 */\n      0x0200000000000000000000000000000000000000000000000000000000\n        /* \"contracts/ERC721A.sol\":21954:21973  prevOwnershipPacked */\n      dup5\n        /* \"contracts/ERC721A.sol\":21954:22001  prevOwnershipPacked & _BITMASK_NEXT_INITIALIZED */\n      and\n        /* \"contracts/ERC721A.sol\":21954:22006  prevOwnershipPacked & _BITMASK_NEXT_INITIALIZED == 0 */\n      eq\n        /* \"contracts/ERC721A.sol\":21950:22567  if (prevOwnershipPacked & _BITMASK_NEXT_INITIALIZED == 0) {... */\n      iszero\n      tag_184\n      jumpi\n        /* \"contracts/ERC721A.sol\":22026:22045  uint256 nextTokenId */\n      0x00\n        /* \"contracts/ERC721A.sol\":22058:22059  1 */\n      0x01\n        /* \"contracts/ERC721A.sol\":22048:22055  tokenId */\n      dup6\n        /* \"contracts/ERC721A.sol\":22048:22059  tokenId + 1 */\n      add\n        /* \"contracts/ERC721A.sol\":22026:22059  uint256 nextTokenId = tokenId + 1 */\n      swap1\n      pop\n        /* \"contracts/ERC721A.sol\":22213:22214  0 */\n      0x00\n        /* \"contracts/ERC721A.sol\":22179:22196  _packedOwnerships */\n      0x05\n        /* \"contracts/ERC721A.sol\":22179:22209  _packedOwnerships[nextTokenId] */\n      0x00\n        /* \"contracts/ERC721A.sol\":22197:22208  nextTokenId */\n      dup4\n        /* \"contracts/ERC721A.sol\":22179:22209  _packedOwnerships[nextTokenId] */\n      dup2\n      mstore\n      0x20\n      add\n      swap1\n      dup2\n      mstore\n      0x20\n      add\n      0x00\n      keccak256\n      sload\n        /* \"contracts/ERC721A.sol\":22179:22214  _packedOwnerships[nextTokenId] == 0 */\n      eq\n        /* \"contracts/ERC721A.sol\":22175:22553  if (_packedOwnerships[nextTokenId] == 0) {... */\n      iszero\n      tag_185\n      jumpi\n        /* \"contracts/ERC721A.sol\":22315:22328  _currentIndex */\n      sload(0x01)\n        /* \"contracts/ERC721A.sol\":22300:22311  nextTokenId */\n      dup2\n        /* \"contracts/ERC721A.sol\":22300:22328  nextTokenId != _currentIndex */\n      eq\n        /* \"contracts/ERC721A.sol\":22296:22535  if (nextTokenId != _currentIndex) {... */\n      tag_186\n      jumpi\n        /* \"contracts/ERC721A.sol\":22493:22512  prevOwnershipPacked */\n      dup4\n        /* \"contracts/ERC721A.sol\":22460:22477  _packedOwnerships */\n      0x05\n        /* \"contracts/ERC721A.sol\":22460:22490  _packedOwnerships[nextTokenId] */\n      0x00\n        /* \"contracts/ERC721A.sol\":22478:22489  nextTokenId */\n      dup4\n        /* \"contracts/ERC721A.sol\":22460:22490  _packedOwnerships[nextTokenId] */\n      dup2\n      mstore\n      0x20\n      add\n      swap1\n      dup2\n      mstore\n      0x20\n      add\n      0x00\n      keccak256\n        /* \"contracts/ERC721A.sol\":22460:22512  _packedOwnerships[nextTokenId] = prevOwnershipPacked */\n      dup2\n      swap1\n      sstore\n      pop\n        /* \"contracts/ERC721A.sol\":22296:22535  if (nextTokenId != _currentIndex) {... */\n    tag_186:\n        /* \"contracts/ERC721A.sol\":22175:22553  if (_packedOwnerships[nextTokenId] == 0) {... */\n    tag_185:\n        /* \"contracts/ERC721A.sol\":22008:22567  {... */\n      pop\n        /* \"contracts/ERC721A.sol\":21950:22567  if (prevOwnershipPacked & _BITMASK_NEXT_INITIALIZED == 0) {... */\n    tag_184:\n        /* \"contracts/ERC721A.sol\":22611:22618  tokenId */\n      dup4\n        /* \"contracts/ERC721A.sol\":22607:22609  to */\n      dup6\n        /* \"contracts/ERC721A.sol\":22592:22619  Transfer(from, to, tokenId) */\n      0xffffffffffffffffffffffffffffffffffffffff\n      and\n        /* \"contracts/ERC721A.sol\":22601:22605  from */\n      dup8\n        /* \"contracts/ERC721A.sol\":22592:22619  Transfer(from, to, tokenId) */\n      0xffffffffffffffffffffffffffffffffffffffff\n      and\n      0xddf252ad1be2c89b69c2b068fc378daa952ba7f163c4a11628f55a4df523b3ef\n      mload(0x40)\n      mload(0x40)\n      dup1\n      swap2\n      sub\n      swap1\n      log4\n        /* \"contracts/ERC721A.sol\":22629:22671  _afterTokenTransfers(from, to, tokenId, 1) */\n      tag_187\n        /* \"contracts/ERC721A.sol\":22650:22654  from */\n      dup7\n        /* \"contracts/ERC721A.sol\":22656:22658  to */\n      dup7\n        /* \"contracts/ERC721A.sol\":22660:22667  tokenId */\n      dup7\n        /* \"contracts/ERC721A.sol\":22669:22670  1 */\n      0x01\n        /* \"contracts/ERC721A.sol\":22629:22649  _afterTokenTransfers */\n      tag_188\n        /* \"contracts/ERC721A.sol\":22629:22671  _afterTokenTransfers(from, to, tokenId, 1) */\n      jump\t// in\n    tag_187:\n        /* \"contracts/ERC721A.sol\":20041:22678  {... */\n      pop\n      pop\n      pop\n        /* \"contracts/ERC721A.sol\":19914:22678  function transferFrom(... */\n      pop\n      pop\n      pop\n      jump\t// out\n        /* \"contracts/MudAi.sol\":177:217  uint256 public constant MAX_SUPPLY = 100 */\n    tag_63:\n        /* \"contracts/MudAi.sol\":214:217  100 */\n      0x64\n        /* \"contracts/MudAi.sol\":177:217  uint256 public constant MAX_SUPPLY = 100 */\n      dup2\n      jump\t// out\n        /* \"contracts/MudAi.sol\":775:944  function withdraw() external onlyOwner {... */\n    tag_67:\n        /* \"@openzeppelin/contracts/access/Ownable.sol\":1094:1107  _checkOwner() */\n      tag_190\n        /* \"@openzeppelin/contracts/access/Ownable.sol\":1094:1105  _checkOwner */\n      tag_191\n        /* \"@openzeppelin/contracts/access/Ownable.sol\":1094:1107  _checkOwner() */\n      jump\t// in\n    tag_190:\n        /* \"contracts/MudAi.sol\":825:837  bool success */\n      0x00\n        /* \"contracts/MudAi.sol\":843:853  msg.sender */\n      caller\n        /* \"contracts/MudAi.sol\":843:858  msg.sender.call */\n      0xffffffffffffffffffffffffffffffffffffffff\n      and\n        /* \"contracts/MudAi.sol\":866:887  address(this).balance */\n      selfbalance\n        /* \"contracts/MudAi.sol\":843:892  msg.sender.call{value: address(this).balance}(\"\") */\n      mload(0x40)\n      tag_193\n      swap1\n      tag_194\n      jump\t// in\n    tag_193:\n      0x00\n      mload(0x40)\n      dup1\n      dup4\n      sub\n      dup2\n      dup6\n      dup8\n      gas\n      call\n      swap3\n      pop\n      pop\n      pop\n      returndatasize\n      dup1\n      0x00\n      dup2\n      eq\n      tag_197\n      jumpi\n      mload(0x40)\n      swap2\n      pop\n      and(add(returndatasize, 0x3f), not(0x1f))\n      dup3\n      add\n      0x40\n      mstore\n      returndatasize\n      dup3\n      mstore\n      returndatasize\n      0x00\n      0x20\n      dup5\n      add\n      returndatacopy\n      jump(tag_196)\n    tag_197:\n      0x60\n      swap2\n      pop\n    tag_196:\n      pop\n        /* \"contracts/MudAi.sol\":824:892  (bool success, ) = msg.sender.call{value: address(this).balance}(\"\") */\n      pop\n      swap1\n      pop\n        /* \"contracts/MudAi.sol\":910:917  success */\n      dup1\n        /* \"contracts/MudAi.sol\":902:937  require(success, \"Transfer Failed\") */\n      tag_198\n      jumpi\n      mload(0x40)\n      0x08c379a000000000000000000000000000000000000000000000000000000000\n      dup2\n      mstore\n      0x04\n      add\n      tag_199\n      swap1\n      tag_200\n      jump\t// in\n    tag_199:\n      mload(0x40)\n      dup1\n      swap2\n      sub\n      swap1\n      revert\n    tag_198:\n        /* \"contracts/MudAi.sol\":814:944  {... */\n      pop\n        /* \"contracts/MudAi.sol\":775:944  function withdraw() external onlyOwner {... */\n      jump\t// out\n        /* \"contracts/MudAi.sol\":468:769  function mint(address to, uint256 quantity) external payable {... */\n    tag_70:\n        /* \"contracts/MudAi.sol\":548:558  mintPaused */\n      0x09\n      0x00\n      swap1\n      sload\n      swap1\n      0x0100\n      exp\n      swap1\n      div\n      0xff\n      and\n        /* \"contracts/MudAi.sol\":547:558  !mintPaused */\n      iszero\n        /* \"contracts/MudAi.sol\":539:577  require(!mintPaused, \"Mint is paused\") */\n      tag_202\n      jumpi\n      mload(0x40)\n      0x08c379a000000000000000000000000000000000000000000000000000000000\n      dup2\n      mstore\n      0x04\n      add\n      tag_203\n      swap1\n      tag_204\n      jump\t// in\n    tag_203:\n      mload(0x40)\n      dup1\n      swap2\n      sub\n      swap1\n      revert\n    tag_202:\n        /* \"contracts/MudAi.sol\":214:217  100 */\n      0x64\n        /* \"contracts/MudAi.sol\":612:620  quantity */\n      dup2\n        /* \"contracts/MudAi.sol\":595:609  _totalMinted() */\n      tag_205\n        /* \"contracts/MudAi.sol\":595:607  _totalMinted */\n      tag_206\n        /* \"contracts/MudAi.sol\":595:609  _totalMinted() */\n      jump\t// in\n    tag_205:\n        /* \"contracts/MudAi.sol\":595:620  _totalMinted() + quantity */\n      tag_207\n      swap2\n      swap1\n      tag_208\n      jump\t// in\n    tag_207:\n        /* \"contracts/MudAi.sol\":595:634  _totalMinted() + quantity <= MAX_SUPPLY */\n      gt\n      iszero\n        /* \"contracts/MudAi.sol\":587:653  require(_totalMinted() + quantity <= MAX_SUPPLY, \"Max Supply Hit\") */\n      tag_209\n      jumpi\n      mload(0x40)\n      0x08c379a000000000000000000000000000000000000000000000000000000000\n      dup2\n      mstore\n      0x04\n      add\n      tag_210\n      swap1\n      tag_211\n      jump\t// in\n    tag_210:\n      mload(0x40)\n      dup1\n      swap2\n      sub\n      swap1\n      revert\n    tag_209:\n        /* \"contracts/MudAi.sol\":265:275  0.01 ether */\n      0x2386f26fc10000\n        /* \"contracts/MudAi.sol\":684:692  quantity */\n      dup2\n        /* \"contracts/MudAi.sol\":684:710  quantity * PRICE_PER_TOKEN */\n      tag_212\n      swap2\n      swap1\n      tag_213\n      jump\t// in\n    tag_212:\n        /* \"contracts/MudAi.sol\":671:680  msg.value */\n      callvalue\n        /* \"contracts/MudAi.sol\":671:710  msg.value >= quantity * PRICE_PER_TOKEN */\n      lt\n      iszero\n        /* \"contracts/MudAi.sol\":663:733  require(msg.value >= quantity * PRICE_PER_TOKEN, \"Insufficient Funds\") */\n      tag_214\n      jumpi\n      mload(0x40)\n      0x08c379a000000000000000000000000000000000000000000000000000000000\n      dup2\n      mstore\n      0x04\n      add\n      tag_215\n      swap1\n      tag_216\n      jump\t// in\n    tag_215:\n      mload(0x40)\n      dup1\n      swap2\n      sub\n      swap1\n      revert\n    tag_214:\n        /* \"contracts/MudAi.sol\":743:762  _mint(to, quantity) */\n      tag_217\n        /* \"contracts/MudAi.sol\":749:751  to */\n      dup3\n        /* \"contracts/MudAi.sol\":753:761  quantity */\n      dup3\n        /* \"contracts/MudAi.sol\":743:748  _mint */\n      tag_218\n        /* \"contracts/MudAi.sol\":743:762  _mint(to, quantity) */\n      jump\t// in\n    tag_217:\n        /* \"contracts/MudAi.sol\":468:769  function mint(address to, uint256 quantity) external payable {... */\n      pop\n      pop\n      jump\t// out\n        /* \"contracts/ERC721A.sol\":22769:22956  function safeTransferFrom(... */\n    tag_73:\n        /* \"contracts/ERC721A.sol\":22910:22949  safeTransferFrom(from, to, tokenId, '') */\n      tag_220\n        /* \"contracts/ERC721A.sol\":22927:22931  from */\n      dup4\n        /* \"contracts/ERC721A.sol\":22933:22935  to */\n      dup4\n        /* \"contracts/ERC721A.sol\":22937:22944  tokenId */\n      dup4\n        /* \"contracts/ERC721A.sol\":22910:22949  safeTransferFrom(from, to, tokenId, '') */\n      mload(0x40)\n      dup1\n      0x20\n      add\n      0x40\n      mstore\n      dup1\n      0x00\n      dup2\n      mstore\n      pop\n        /* \"contracts/ERC721A.sol\":22910:22926  safeTransferFrom */\n      tag_117\n        /* \"contracts/ERC721A.sol\":22910:22949  safeTransferFrom(from, to, tokenId, '') */\n      jump\t// in\n    tag_220:\n        /* \"contracts/ERC721A.sol\":22769:22956  function safeTransferFrom(... */\n      pop\n      pop\n      pop\n      jump\t// out\n        /* \"contracts/MudAi.sol\":950:1054  function setBaseURI(string calldata baseURI) external onlyOwner {... */\n    tag_78:\n        /* \"@openzeppelin/contracts/access/Ownable.sol\":1094:1107  _checkOwner() */\n      tag_222\n        /* \"@openzeppelin/contracts/access/Ownable.sol\":1094:1105  _checkOwner */\n      tag_191\n        /* \"@openzeppelin/contracts/access/Ownable.sol\":1094:1107  _checkOwner() */\n      jump\t// in\n    tag_222:\n        /* \"contracts/MudAi.sol\":1040:1047  baseURI */\n      dup2\n      dup2\n        /* \"contracts/MudAi.sol\":1024:1037  _baseTokenURI */\n      0x0a\n        /* \"contracts/MudAi.sol\":1024:1047  _baseTokenURI = baseURI */\n      swap2\n      swap1\n      tag_224\n      swap3\n      swap2\n      swap1\n      tag_225\n      jump\t// in\n    tag_224:\n      pop\n        /* \"contracts/MudAi.sol\":950:1054  function setBaseURI(string calldata baseURI) external onlyOwner {... */\n      pop\n      pop\n      jump\t// out\n        /* \"contracts/ERC721A.sol\":11402:11552  function ownerOf(uint256 tokenId) public view virtual override returns (address) {... */\n    tag_82:\n        /* \"contracts/ERC721A.sol\":11474:11481  address */\n      0x00\n        /* \"contracts/ERC721A.sol\":11516:11543  _packedOwnershipOf(tokenId) */\n      tag_227\n        /* \"contracts/ERC721A.sol\":11535:11542  tokenId */\n      dup3\n        /* \"contracts/ERC721A.sol\":11516:11534  _packedOwnershipOf */\n      tag_165\n        /* \"contracts/ERC721A.sol\":11516:11543  _packedOwnershipOf(tokenId) */\n      jump\t// in\n    tag_227:\n        /* \"contracts/ERC721A.sol\":11493:11545  return address(uint160(_packedOwnershipOf(tokenId))) */\n      swap1\n      pop\n        /* \"contracts/ERC721A.sol\":11402:11552  function ownerOf(uint256 tokenId) public view virtual override returns (address) {... */\n      swap2\n      swap1\n      pop\n      jump\t// out\n        /* \"contracts/ERC721A.sol\":7056:7286  function balanceOf(address owner) public view virtual override returns (uint256) {... */\n    tag_88:\n        /* \"contracts/ERC721A.sol\":7128:7135  uint256 */\n      0x00\n        /* \"contracts/ERC721A.sol\":7168:7169  0 */\n      dup1\n        /* \"contracts/ERC721A.sol\":7151:7170  owner == address(0) */\n      0xffffffffffffffffffffffffffffffffffffffff\n      and\n        /* \"contracts/ERC721A.sol\":7151:7156  owner */\n      dup3\n        /* \"contracts/ERC721A.sol\":7151:7170  owner == address(0) */\n      0xffffffffffffffffffffffffffffffffffffffff\n      and\n      eq\n        /* \"contracts/ERC721A.sol\":7147:7207  if (owner == address(0)) revert BalanceQueryForZeroAddress() */\n      iszero\n      tag_229\n      jumpi\n        /* \"contracts/ERC721A.sol\":7179:7207  BalanceQueryForZeroAddress() */\n      mload(0x40)\n      0x8f4eb60400000000000000000000000000000000000000000000000000000000\n      dup2\n      mstore\n      0x04\n      add\n      mload(0x40)\n      dup1\n      swap2\n      sub\n      swap1\n      revert\n        /* \"contracts/ERC721A.sol\":7147:7207  if (owner == address(0)) revert BalanceQueryForZeroAddress() */\n    tag_229:\n        /* \"contracts/ERC721A.sol\":1371:1384  (1 << 64) - 1 */\n      0xffffffffffffffff\n        /* \"contracts/ERC721A.sol\":7224:7242  _packedAddressData */\n      0x06\n        /* \"contracts/ERC721A.sol\":7224:7249  _packedAddressData[owner] */\n      0x00\n        /* \"contracts/ERC721A.sol\":7243:7248  owner */\n      dup5\n        /* \"contracts/ERC721A.sol\":7224:7249  _packedAddressData[owner] */\n      0xffffffffffffffffffffffffffffffffffffffff\n      and\n      0xffffffffffffffffffffffffffffffffffffffff\n      and\n      dup2\n      mstore\n      0x20\n      add\n      swap1\n      dup2\n      mstore\n      0x20\n      add\n      0x00\n      keccak256\n      sload\n        /* \"contracts/ERC721A.sol\":7224:7279  _packedAddressData[owner] & _BITMASK_ADDRESS_DATA_ENTRY */\n      and\n        /* \"contracts/ERC721A.sol\":7217:7279  return _packedAddressData[owner] & _BITMASK_ADDRESS_DATA_ENTRY */\n      swap1\n      pop\n        /* \"contracts/ERC721A.sol\":7056:7286  function balanceOf(address owner) public view virtual override returns (uint256) {... */\n      swap2\n      swap1\n      pop\n      jump\t// out\n        /* \"@openzeppelin/contracts/access/Ownable.sol\":1831:1932  function renounceOwnership() public virtual onlyOwner {... */\n    tag_92:\n        /* \"@openzeppelin/contracts/access/Ownable.sol\":1094:1107  _checkOwner() */\n      tag_231\n        /* \"@openzeppelin/contracts/access/Ownable.sol\":1094:1105  _checkOwner */\n      tag_191\n        /* \"@openzeppelin/contracts/access/Ownable.sol\":1094:1107  _checkOwner() */\n      jump\t// in\n    tag_231:\n        /* \"@openzeppelin/contracts/access/Ownable.sol\":1895:1925  _transferOwnership(address(0)) */\n      tag_233\n        /* \"@openzeppelin/contracts/access/Ownable.sol\":1922:1923  0 */\n      0x00\n        /* \"@openzeppelin/contracts/access/Ownable.sol\":1895:1913  _transferOwnership */\n      tag_234\n        /* \"@openzeppelin/contracts/access/Ownable.sol\":1895:1925  _transferOwnership(address(0)) */\n      jump\t// in\n    tag_233:\n        /* \"@openzeppelin/contracts/access/Ownable.sol\":1831:1932  function renounceOwnership() public virtual onlyOwner {... */\n      jump\t// out\n        /* \"contracts/MudAi.sol\":281:303  bool public mintPaused */\n    tag_95:\n      0x09\n      0x00\n      swap1\n      sload\n      swap1\n      0x0100\n      exp\n      swap1\n      div\n      0xff\n      and\n      dup2\n      jump\t// out\n        /* \"contracts/MudAi.sol\":223:275  uint256 public constant PRICE_PER_TOKEN = 0.01 ether */\n    tag_99:\n        /* \"contracts/MudAi.sol\":265:275  0.01 ether */\n      0x2386f26fc10000\n        /* \"contracts/MudAi.sol\":223:275  uint256 public constant PRICE_PER_TOKEN = 0.01 ether */\n      dup2\n      jump\t// out\n        /* \"@openzeppelin/contracts/access/Ownable.sol\":1201:1286  function owner() public view virtual returns (address) {... */\n    tag_103:\n        /* \"@openzeppelin/contracts/access/Ownable.sol\":1247:1254  address */\n      0x00\n        /* \"@openzeppelin/contracts/access/Ownable.sol\":1273:1279  _owner */\n      dup1\n      0x00\n      swap1\n      sload\n      swap1\n      0x0100\n      exp\n      swap1\n      div\n      0xffffffffffffffffffffffffffffffffffffffff\n      and\n        /* \"@openzeppelin/contracts/access/Ownable.sol\":1266:1279  return _owner */\n      swap1\n      pop\n        /* \"@openzeppelin/contracts/access/Ownable.sol\":1201:1286  function owner() public view virtual returns (address) {... */\n      swap1\n      jump\t// out\n        /* \"contracts/ERC721A.sol\":10219:10321  function symbol() public view virtual override returns (string memory) {... */\n    tag_107:\n        /* \"contracts/ERC721A.sol\":10275:10288  string memory */\n      0x60\n        /* \"contracts/ERC721A.sol\":10307:10314  _symbol */\n      0x04\n        /* \"contracts/ERC721A.sol\":10300:10314  return _symbol */\n      dup1\n      sload\n      tag_237\n      swap1\n      tag_143\n      jump\t// in\n    tag_237:\n      dup1\n      0x1f\n      add\n      0x20\n      dup1\n      swap2\n      div\n      mul\n      0x20\n      add\n      mload(0x40)\n      swap1\n      dup2\n      add\n      0x40\n      mstore\n      dup1\n      swap3\n      swap2\n      swap1\n      dup2\n      dup2\n      mstore\n      0x20\n      add\n      dup3\n      dup1\n      sload\n      tag_238\n      swap1\n      tag_143\n      jump\t// in\n    tag_238:\n      dup1\n      iszero\n      tag_239\n      jumpi\n      dup1\n      0x1f\n      lt\n      tag_240\n      jumpi\n      0x0100\n      dup1\n      dup4\n      sload\n      div\n      mul\n      dup4\n      mstore\n      swap2\n      0x20\n      add\n      swap2\n      jump(tag_239)\n    tag_240:\n      dup3\n      add\n      swap2\n      swap1\n      0x00\n      mstore\n      keccak256(0x00, 0x20)\n      swap1\n    tag_241:\n      dup2\n      sload\n      dup2\n      mstore\n      swap1\n      0x01\n      add\n      swap1\n      0x20\n      add\n      dup1\n      dup4\n      gt\n      tag_241\n      jumpi\n      dup3\n      swap1\n      sub\n      0x1f\n      and\n      dup3\n      add\n      swap2\n    tag_239:\n      pop\n      pop\n      pop\n      pop\n      pop\n      swap1\n      pop\n        /* \"contracts/ERC721A.sol\":10219:10321  function symbol() public view virtual override returns (string memory) {... */\n      swap1\n      jump\t// out\n        /* \"contracts/ERC721A.sol\":16912:17143  function setApprovalForAll(address operator, bool approved) public virtual override {... */\n    tag_113:\n        /* \"contracts/ERC721A.sol\":17058:17066  approved */\n      dup1\n        /* \"contracts/ERC721A.sol\":17006:17024  _operatorApprovals */\n      0x08\n        /* \"contracts/ERC721A.sol\":17006:17045  _operatorApprovals[_msgSenderERC721A()] */\n      0x00\n        /* \"contracts/ERC721A.sol\":17025:17044  _msgSenderERC721A() */\n      tag_243\n        /* \"contracts/ERC721A.sol\":17025:17042  _msgSenderERC721A */\n      tag_155\n        /* \"contracts/ERC721A.sol\":17025:17044  _msgSenderERC721A() */\n      jump\t// in\n    tag_243:\n        /* \"contracts/ERC721A.sol\":17006:17045  _operatorApprovals[_msgSenderERC721A()] */\n      0xffffffffffffffffffffffffffffffffffffffff\n      and\n      0xffffffffffffffffffffffffffffffffffffffff\n      and\n      dup2\n      mstore\n      0x20\n      add\n      swap1\n      dup2\n      mstore\n      0x20\n      add\n      0x00\n      keccak256\n        /* \"contracts/ERC721A.sol\":17006:17055  _operatorApprovals[_msgSenderERC721A()][operator] */\n      0x00\n        /* \"contracts/ERC721A.sol\":17046:17054  operator */\n      dup5\n        /* \"contracts/ERC721A.sol\":17006:17055  _operatorApprovals[_msgSenderERC721A()][operator] */\n      0xffffffffffffffffffffffffffffffffffffffff\n      and\n      0xffffffffffffffffffffffffffffffffffffffff\n      and\n      dup2\n      mstore\n      0x20\n      add\n      swap1\n      dup2\n      mstore\n      0x20\n      add\n      0x00\n      keccak256\n      0x00\n        /* \"contracts/ERC721A.sol\":17006:17066  _operatorApprovals[_msgSenderERC721A()][operator] = approved */\n      0x0100\n      exp\n      dup2\n      sload\n      dup2\n      0xff\n      mul\n      not\n      and\n      swap1\n      dup4\n      iszero\n      iszero\n      mul\n      or\n      swap1\n      sstore\n      pop\n        /* \"contracts/ERC721A.sol\":17117:17125  operator */\n      dup2\n        /* \"contracts/ERC721A.sol\":17081:17136  ApprovalForAll(_msgSenderERC721A(), operator, approved) */\n      0xffffffffffffffffffffffffffffffffffffffff\n      and\n        /* \"contracts/ERC721A.sol\":17096:17115  _msgSenderERC721A() */\n      tag_244\n        /* \"contracts/ERC721A.sol\":17096:17113  _msgSenderERC721A */\n      tag_155\n        /* \"contracts/ERC721A.sol\":17096:17115  _msgSenderERC721A() */\n      jump\t// in\n    tag_244:\n        /* \"contracts/ERC721A.sol\":17081:17136  ApprovalForAll(_msgSenderERC721A(), operator, approved) */\n      0xffffffffffffffffffffffffffffffffffffffff\n      and\n      0x17307eab39ab6107e8899845ad3d59bd9653f200f220920489ca2b5937696c31\n        /* \"contracts/ERC721A.sol\":17127:17135  approved */\n      dup4\n        /* \"contracts/ERC721A.sol\":17081:17136  ApprovalForAll(_msgSenderERC721A(), operator, approved) */\n      mload(0x40)\n      tag_245\n      swap2\n      swap1\n      tag_35\n      jump\t// in\n    tag_245:\n      mload(0x40)\n      dup1\n      swap2\n      sub\n      swap1\n      log3\n        /* \"contracts/ERC721A.sol\":16912:17143  function setApprovalForAll(address operator, bool approved) public virtual override {... */\n      pop\n      pop\n      jump\t// out\n        /* \"contracts/ERC721A.sol\":23537:23933  function safeTransferFrom(... */\n    tag_117:\n        /* \"contracts/ERC721A.sol\":23706:23737  transferFrom(from, to, tokenId) */\n      tag_247\n        /* \"contracts/ERC721A.sol\":23719:23723  from */\n      dup5\n        /* \"contracts/ERC721A.sol\":23725:23727  to */\n      dup5\n        /* \"contracts/ERC721A.sol\":23729:23736  tokenId */\n      dup5\n        /* \"contracts/ERC721A.sol\":23706:23718  transferFrom */\n      tag_60\n        /* \"contracts/ERC721A.sol\":23706:23737  transferFrom(from, to, tokenId) */\n      jump\t// in\n    tag_247:\n        /* \"contracts/ERC721A.sol\":23769:23770  0 */\n      0x00\n        /* \"contracts/ERC721A.sol\":23751:23753  to */\n      dup4\n        /* \"contracts/ERC721A.sol\":23751:23765  to.code.length */\n      0xffffffffffffffffffffffffffffffffffffffff\n      and\n      extcodesize\n        /* \"contracts/ERC721A.sol\":23751:23770  to.code.length != 0 */\n      eq\n        /* \"contracts/ERC721A.sol\":23747:23927  if (to.code.length != 0)... */\n      tag_248\n      jumpi\n        /* \"contracts/ERC721A.sol\":23789:23845  _checkContractOnERC721Received(from, to, tokenId, _data) */\n      tag_249\n        /* \"contracts/ERC721A.sol\":23820:23824  from */\n      dup5\n        /* \"contracts/ERC721A.sol\":23826:23828  to */\n      dup5\n        /* \"contracts/ERC721A.sol\":23830:23837  tokenId */\n      dup5\n        /* \"contracts/ERC721A.sol\":23839:23844  _data */\n      dup5\n        /* \"contracts/ERC721A.sol\":23789:23819  _checkContractOnERC721Received */\n      tag_250\n        /* \"contracts/ERC721A.sol\":23789:23845  _checkContractOnERC721Received(from, to, tokenId, _data) */\n      jump\t// in\n    tag_249:\n        /* \"contracts/ERC721A.sol\":23784:23927  if (!_checkContractOnERC721Received(from, to, tokenId, _data)) {... */\n      tag_251\n      jumpi\n        /* \"contracts/ERC721A.sol\":23872:23912  TransferToNonERC721ReceiverImplementer() */\n      mload(0x40)\n      0xd1a57ed600000000000000000000000000000000000000000000000000000000\n      dup2\n      mstore\n      0x04\n      add\n      mload(0x40)\n      dup1\n      swap2\n      sub\n      swap1\n      revert\n        /* \"contracts/ERC721A.sol\":23784:23927  if (!_checkContractOnERC721Received(from, to, tokenId, _data)) {... */\n    tag_251:\n        /* \"contracts/ERC721A.sol\":23747:23927  if (to.code.length != 0)... */\n    tag_248:\n        /* \"contracts/ERC721A.sol\":23537:23933  function safeTransferFrom(... */\n      pop\n      pop\n      pop\n      pop\n      jump\t// out\n        /* \"contracts/ERC721A.sol\":10422:10735  function tokenURI(uint256 tokenId) public view virtual override returns (string memory) {... */\n    tag_121:\n        /* \"contracts/ERC721A.sol\":10495:10508  string memory */\n      0x60\n        /* \"contracts/ERC721A.sol\":10525:10541  _exists(tokenId) */\n      tag_253\n        /* \"contracts/ERC721A.sol\":10533:10540  tokenId */\n      dup3\n        /* \"contracts/ERC721A.sol\":10525:10532  _exists */\n      tag_150\n        /* \"contracts/ERC721A.sol\":10525:10541  _exists(tokenId) */\n      jump\t// in\n    tag_253:\n        /* \"contracts/ERC721A.sol\":10520:10579  if (!_exists(tokenId)) revert URIQueryForNonexistentToken() */\n      tag_254\n      jumpi\n        /* \"contracts/ERC721A.sol\":10550:10579  URIQueryForNonexistentToken() */\n      mload(0x40)\n      0xa14c4b5000000000000000000000000000000000000000000000000000000000\n      dup2\n      mstore\n      0x04\n      add\n      mload(0x40)\n      dup1\n      swap2\n      sub\n      swap1\n      revert\n        /* \"contracts/ERC721A.sol\":10520:10579  if (!_exists(tokenId)) revert URIQueryForNonexistentToken() */\n    tag_254:\n        /* \"contracts/ERC721A.sol\":10590:10611  string memory baseURI */\n      0x00\n        /* \"contracts/ERC721A.sol\":10614:10624  _baseURI() */\n      tag_255\n        /* \"contracts/ERC721A.sol\":10614:10622  _baseURI */\n      tag_256\n        /* \"contracts/ERC721A.sol\":10614:10624  _baseURI() */\n      jump\t// in\n    tag_255:\n        /* \"contracts/ERC721A.sol\":10590:10624  string memory baseURI = _baseURI() */\n      swap1\n      pop\n        /* \"contracts/ERC721A.sol\":10666:10667  0 */\n      0x00\n        /* \"contracts/ERC721A.sol\":10647:10654  baseURI */\n      dup2\n        /* \"contracts/ERC721A.sol\":10641:10662  bytes(baseURI).length */\n      mload\n        /* \"contracts/ERC721A.sol\":10641:10667  bytes(baseURI).length != 0 */\n      eq\n      iszero\n        /* \"contracts/ERC721A.sol\":10641:10728  bytes(baseURI).length != 0 ? string(abi.encodePacked(baseURI, _toString(tokenId))) : '' */\n      tag_257\n      jumpi\n      mload(0x40)\n      dup1\n      0x20\n      add\n      0x40\n      mstore\n      dup1\n      0x00\n      dup2\n      mstore\n      pop\n      jump(tag_258)\n    tag_257:\n        /* \"contracts/ERC721A.sol\":10694:10701  baseURI */\n      dup1\n        /* \"contracts/ERC721A.sol\":10703:10721  _toString(tokenId) */\n      tag_259\n        /* \"contracts/ERC721A.sol\":10713:10720  tokenId */\n      dup5\n        /* \"contracts/ERC721A.sol\":10703:10712  _toString */\n      tag_260\n        /* \"contracts/ERC721A.sol\":10703:10721  _toString(tokenId) */\n      jump\t// in\n    tag_259:\n        /* \"contracts/ERC721A.sol\":10677:10722  abi.encodePacked(baseURI, _toString(tokenId)) */\n      add(0x20, mload(0x40))\n      tag_261\n      swap3\n      swap2\n      swap1\n      tag_262\n      jump\t// in\n    tag_261:\n      mload(0x40)\n      0x20\n      dup2\n      dup4\n      sub\n      sub\n      dup2\n      mstore\n      swap1\n      0x40\n      mstore\n        /* \"contracts/ERC721A.sol\":10641:10728  bytes(baseURI).length != 0 ? string(abi.encodePacked(baseURI, _toString(tokenId))) : '' */\n    tag_258:\n        /* \"contracts/ERC721A.sol\":10634:10728  return bytes(baseURI).length != 0 ? string(abi.encodePacked(baseURI, _toString(tokenId))) : '' */\n      swap2\n      pop\n      pop\n        /* \"contracts/ERC721A.sol\":10422:10735  function tokenURI(uint256 tokenId) public view virtual override returns (string memory) {... */\n      swap2\n      swap1\n      pop\n      jump\t// out\n        /* \"contracts/ERC721A.sol\":17293:17455  function isApprovedForAll(address owner, address operator) public view virtual override returns (bool) {... */\n    tag_127:\n        /* \"contracts/ERC721A.sol\":17390:17394  bool */\n      0x00\n        /* \"contracts/ERC721A.sol\":17413:17431  _operatorApprovals */\n      0x08\n        /* \"contracts/ERC721A.sol\":17413:17438  _operatorApprovals[owner] */\n      0x00\n        /* \"contracts/ERC721A.sol\":17432:17437  owner */\n      dup5\n        /* \"contracts/ERC721A.sol\":17413:17438  _operatorApprovals[owner] */\n      0xffffffffffffffffffffffffffffffffffffffff\n      and\n      0xffffffffffffffffffffffffffffffffffffffff\n      and\n      dup2\n      mstore\n      0x20\n      add\n      swap1\n      dup2\n      mstore\n      0x20\n      add\n      0x00\n      keccak256\n        /* \"contracts/ERC721A.sol\":17413:17448  _operatorApprovals[owner][operator] */\n      0x00\n        /* \"contracts/ERC721A.sol\":17439:17447  operator */\n      dup4\n        /* \"contracts/ERC721A.sol\":17413:17448  _operatorApprovals[owner][operator] */\n      0xffffffffffffffffffffffffffffffffffffffff\n      and\n      0xffffffffffffffffffffffffffffffffffffffff\n      and\n      dup2\n      mstore\n      0x20\n      add\n      swap1\n      dup2\n      mstore\n      0x20\n      add\n      0x00\n      keccak256\n      0x00\n      swap1\n      sload\n      swap1\n      0x0100\n      exp\n      swap1\n      div\n      0xff\n      and\n        /* \"contracts/ERC721A.sol\":17406:17448  return _operatorApprovals[owner][operator] */\n      swap1\n      pop\n        /* \"contracts/ERC721A.sol\":17293:17455  function isApprovedForAll(address owner, address operator) public view virtual override returns (bool) {... */\n      swap3\n      swap2\n      pop\n      pop\n      jump\t// out\n        /* \"@openzeppelin/contracts/access/Ownable.sol\":2081:2279  function transferOwnership(address newOwner) public virtual onlyOwner {... */\n    tag_132:\n        /* \"@openzeppelin/contracts/access/Ownable.sol\":1094:1107  _checkOwner() */\n      tag_265\n        /* \"@openzeppelin/contracts/access/Ownable.sol\":1094:1105  _checkOwner */\n      tag_191\n        /* \"@openzeppelin/contracts/access/Ownable.sol\":1094:1107  _checkOwner() */\n      jump\t// in\n    tag_265:\n        /* \"@openzeppelin/contracts/access/Ownable.sol\":2189:2190  0 */\n      0x00\n        /* \"@openzeppelin/contracts/access/Ownable.sol\":2169:2191  newOwner != address(0) */\n      0xffffffffffffffffffffffffffffffffffffffff\n      and\n        /* \"@openzeppelin/contracts/access/Ownable.sol\":2169:2177  newOwner */\n      dup2\n        /* \"@openzeppelin/contracts/access/Ownable.sol\":2169:2191  newOwner != address(0) */\n      0xffffffffffffffffffffffffffffffffffffffff\n      and\n      eq\n      iszero\n        /* \"@openzeppelin/contracts/access/Ownable.sol\":2161:2234  require(newOwner != address(0), \"Ownable: new owner is the zero address\") */\n      tag_267\n      jumpi\n      mload(0x40)\n      0x08c379a000000000000000000000000000000000000000000000000000000000\n      dup2\n      mstore\n      0x04\n      add\n      tag_268\n      swap1\n      tag_269\n      jump\t// in\n    tag_268:\n      mload(0x40)\n      dup1\n      swap2\n      sub\n      swap1\n      revert\n    tag_267:\n        /* \"@openzeppelin/contracts/access/Ownable.sol\":2244:2272  _transferOwnership(newOwner) */\n      tag_270\n        /* \"@openzeppelin/contracts/access/Ownable.sol\":2263:2271  newOwner */\n      dup2\n        /* \"@openzeppelin/contracts/access/Ownable.sol\":2244:2262  _transferOwnership */\n      tag_234\n        /* \"@openzeppelin/contracts/access/Ownable.sol\":2244:2272  _transferOwnership(newOwner) */\n      jump\t// in\n    tag_270:\n        /* \"@openzeppelin/contracts/access/Ownable.sol\":2081:2279  function transferOwnership(address newOwner) public virtual onlyOwner {... */\n      pop\n      jump\t// out\n        /* \"contracts/MudAi.sol\":1170:1309  function pauseMint(bool _paused) external onlyOwner {... */\n    tag_137:\n        /* \"@openzeppelin/contracts/access/Ownable.sol\":1094:1107  _checkOwner() */\n      tag_272\n        /* \"@openzeppelin/contracts/access/Ownable.sol\":1094:1105  _checkOwner */\n      tag_191\n        /* \"@openzeppelin/contracts/access/Ownable.sol\":1094:1107  _checkOwner() */\n      jump\t// in\n    tag_272:\n        /* \"contracts/MudAi.sol\":1241:1251  mintPaused */\n      0x09\n      0x00\n      swap1\n      sload\n      swap1\n      0x0100\n      exp\n      swap1\n      div\n      0xff\n      and\n        /* \"contracts/MudAi.sol\":1240:1251  !mintPaused */\n      iszero\n        /* \"contracts/MudAi.sol\":1232:1272  require(!mintPaused, \"Contract paused.\") */\n      tag_274\n      jumpi\n      mload(0x40)\n      0x08c379a000000000000000000000000000000000000000000000000000000000\n      dup2\n      mstore\n      0x04\n      add\n      tag_275\n      swap1\n      tag_276\n      jump\t// in\n    tag_275:\n      mload(0x40)\n      dup1\n      swap2\n      sub\n      swap1\n      revert\n    tag_274:\n        /* \"contracts/MudAi.sol\":1295:1302  _paused */\n      dup1\n        /* \"contracts/MudAi.sol\":1282:1292  mintPaused */\n      0x09\n      0x00\n        /* \"contracts/MudAi.sol\":1282:1302  mintPaused = _paused */\n      0x0100\n      exp\n      dup2\n      sload\n      dup2\n      0xff\n      mul\n      not\n      and\n      swap1\n      dup4\n      iszero\n      iszero\n      mul\n      or\n      swap1\n      sstore\n      pop\n        /* \"contracts/MudAi.sol\":1170:1309  function pauseMint(bool _paused) external onlyOwner {... */\n      pop\n      jump\t// out\n        /* \"contracts/ERC721A.sol\":17704:17981  function _exists(uint256 tokenId) internal view virtual returns (bool) {... */\n    tag_150:\n        /* \"contracts/ERC721A.sol\":17769:17773  bool */\n      0x00\n        /* \"contracts/ERC721A.sol\":17823:17830  tokenId */\n      dup2\n        /* \"contracts/ERC721A.sol\":17804:17819  _startTokenId() */\n      tag_278\n        /* \"contracts/ERC721A.sol\":17804:17817  _startTokenId */\n      tag_162\n        /* \"contracts/ERC721A.sol\":17804:17819  _startTokenId() */\n      jump\t// in\n    tag_278:\n        /* \"contracts/ERC721A.sol\":17804:17830  _startTokenId() <= tokenId */\n      gt\n      iszero\n        /* \"contracts/ERC721A.sol\":17804:17869  _startTokenId() <= tokenId &&... */\n      dup1\n      iszero\n      tag_279\n      jumpi\n      pop\n        /* \"contracts/ERC721A.sol\":17856:17869  _currentIndex */\n      sload(0x01)\n        /* \"contracts/ERC721A.sol\":17846:17853  tokenId */\n      dup3\n        /* \"contracts/ERC721A.sol\":17846:17869  tokenId < _currentIndex */\n      lt\n        /* \"contracts/ERC721A.sol\":17804:17869  _startTokenId() <= tokenId &&... */\n    tag_279:\n        /* \"contracts/ERC721A.sol\":17804:17955  _startTokenId() <= tokenId &&... */\n      dup1\n      iszero\n      tag_280\n      jumpi\n      pop\n        /* \"contracts/ERC721A.sol\":17954:17955  0 */\n      0x00\n        /* \"contracts/ERC721A.sol\":2129:2137  1 << 224 */\n      0x0100000000000000000000000000000000000000000000000000000000\n        /* \"contracts/ERC721A.sol\":17906:17923  _packedOwnerships */\n      0x05\n        /* \"contracts/ERC721A.sol\":17906:17932  _packedOwnerships[tokenId] */\n      0x00\n        /* \"contracts/ERC721A.sol\":17924:17931  tokenId */\n      dup6\n        /* \"contracts/ERC721A.sol\":17906:17932  _packedOwnerships[tokenId] */\n      dup2\n      mstore\n      0x20\n      add\n      swap1\n      dup2\n      mstore\n      0x20\n      add\n      0x00\n      keccak256\n      sload\n        /* \"contracts/ERC721A.sol\":17906:17950  _packedOwnerships[tokenId] & _BITMASK_BURNED */\n      and\n        /* \"contracts/ERC721A.sol\":17906:17955  _packedOwnerships[tokenId] & _BITMASK_BURNED == 0 */\n      eq\n        /* \"contracts/ERC721A.sol\":17804:17955  _startTokenId() <= tokenId &&... */\n    tag_280:\n        /* \"contracts/ERC721A.sol\":17785:17955  return... */\n      swap1\n      pop\n        /* \"contracts/ERC721A.sol\":17704:17981  function _exists(uint256 tokenId) internal view virtual returns (bool) {... */\n      swap2\n      swap1\n      pop\n      jump\t// out\n        /* \"contracts/ERC721A.sol\":39448:39551  function _msgSenderERC721A() internal view virtual returns (address) {... */\n    tag_155:\n        /* \"contracts/ERC721A.sol\":39508:39515  address */\n      0x00\n        /* \"contracts/ERC721A.sol\":39534:39544  msg.sender */\n      caller\n        /* \"contracts/ERC721A.sol\":39527:39544  return msg.sender */\n      swap1\n      pop\n        /* \"contracts/ERC721A.sol\":39448:39551  function _msgSenderERC721A() internal view virtual returns (address) {... */\n      swap1\n      jump\t// out\n        /* \"contracts/ERC721A.sol\":5437:5527  function _startTokenId() internal view virtual returns (uint256) {... */\n    tag_162:\n        /* \"contracts/ERC721A.sol\":5493:5500  uint256 */\n      0x00\n        /* \"contracts/ERC721A.sol\":5437:5527  function _startTokenId() internal view virtual returns (uint256) {... */\n      swap1\n      jump\t// out\n        /* \"contracts/ERC721A.sol\":12526:13775  function _packedOwnershipOf(uint256 tokenId) private view returns (uint256) {... */\n    tag_165:\n        /* \"contracts/ERC721A.sol\":12593:12600  uint256 */\n      0x00\n        /* \"contracts/ERC721A.sol\":12612:12624  uint256 curr */\n      dup1\n        /* \"contracts/ERC721A.sol\":12627:12634  tokenId */\n      dup3\n        /* \"contracts/ERC721A.sol\":12612:12634  uint256 curr = tokenId */\n      swap1\n      pop\n        /* \"contracts/ERC721A.sol\":12692:12696  curr */\n      dup1\n        /* \"contracts/ERC721A.sol\":12673:12688  _startTokenId() */\n      tag_284\n        /* \"contracts/ERC721A.sol\":12673:12686  _startTokenId */\n      tag_162\n        /* \"contracts/ERC721A.sol\":12673:12688  _startTokenId() */\n      jump\t// in\n    tag_284:\n        /* \"contracts/ERC721A.sol\":12673:12696  _startTokenId() <= curr */\n      gt\n        /* \"contracts/ERC721A.sol\":12669:13711  if (_startTokenId() <= curr)... */\n      tag_285\n      jumpi\n        /* \"contracts/ERC721A.sol\":12725:12738  _currentIndex */\n      sload(0x01)\n        /* \"contracts/ERC721A.sol\":12718:12722  curr */\n      dup2\n        /* \"contracts/ERC721A.sol\":12718:12738  curr < _currentIndex */\n      lt\n        /* \"contracts/ERC721A.sol\":12714:13711  if (curr < _currentIndex) {... */\n      iszero\n      tag_286\n      jumpi\n        /* \"contracts/ERC721A.sol\":12762:12776  uint256 packed */\n      0x00\n        /* \"contracts/ERC721A.sol\":12779:12796  _packedOwnerships */\n      0x05\n        /* \"contracts/ERC721A.sol\":12779:12802  _packedOwnerships[curr] */\n      0x00\n        /* \"contracts/ERC721A.sol\":12797:12801  curr */\n      dup4\n        /* \"contracts/ERC721A.sol\":12779:12802  _packedOwnerships[curr] */\n      dup2\n      mstore\n      0x20\n      add\n      swap1\n      dup2\n      mstore\n      0x20\n      add\n      0x00\n      keccak256\n      sload\n        /* \"contracts/ERC721A.sol\":12762:12802  uint256 packed = _packedOwnerships[curr] */\n      swap1\n      pop\n        /* \"contracts/ERC721A.sol\":12894:12895  0 */\n      0x00\n        /* \"contracts/ERC721A.sol\":2129:2137  1 << 224 */\n      0x0100000000000000000000000000000000000000000000000000000000\n        /* \"contracts/ERC721A.sol\":12866:12872  packed */\n      dup3\n        /* \"contracts/ERC721A.sol\":12866:12890  packed & _BITMASK_BURNED */\n      and\n        /* \"contracts/ERC721A.sol\":12866:12895  packed & _BITMASK_BURNED == 0 */\n      eq\n        /* \"contracts/ERC721A.sol\":12862:13693  if (packed & _BITMASK_BURNED == 0) {... */\n      iszero\n      tag_287\n      jumpi\n        /* \"contracts/ERC721A.sol\":13521:13632  while (packed == 0) {... */\n    tag_288:\n        /* \"contracts/ERC721A.sol\":13538:13539  0 */\n      0x00\n        /* \"contracts/ERC721A.sol\":13528:13534  packed */\n      dup2\n        /* \"contracts/ERC721A.sol\":13528:13539  packed == 0 */\n      eq\n        /* \"contracts/ERC721A.sol\":13521:13632  while (packed == 0) {... */\n      iszero\n      tag_289\n      jumpi\n        /* \"contracts/ERC721A.sol\":13580:13597  _packedOwnerships */\n      0x05\n        /* \"contracts/ERC721A.sol\":13580:13605  _packedOwnerships[--curr] */\n      0x00\n        /* \"contracts/ERC721A.sol\":13598:13604  --curr */\n      dup4\n      0x01\n      swap1\n      sub\n      swap4\n      pop\n      dup4\n        /* \"contracts/ERC721A.sol\":13580:13605  _packedOwnerships[--curr] */\n      dup2\n      mstore\n      0x20\n      add\n      swap1\n      dup2\n      mstore\n      0x20\n      add\n      0x00\n      keccak256\n      sload\n        /* \"contracts/ERC721A.sol\":13571:13605  packed = _packedOwnerships[--curr] */\n      swap1\n      pop\n        /* \"contracts/ERC721A.sol\":13521:13632  while (packed == 0) {... */\n      jump(tag_288)\n    tag_289:\n        /* \"contracts/ERC721A.sol\":13664:13670  packed */\n      dup1\n        /* \"contracts/ERC721A.sol\":13657:13670  return packed */\n      swap3\n      pop\n      pop\n      pop\n      jump(tag_283)\n        /* \"contracts/ERC721A.sol\":12862:13693  if (packed & _BITMASK_BURNED == 0) {... */\n    tag_287:\n        /* \"contracts/ERC721A.sol\":12740:13711  {... */\n      pop\n        /* \"contracts/ERC721A.sol\":12714:13711  if (curr < _currentIndex) {... */\n    tag_286:\n        /* \"contracts/ERC721A.sol\":12669:13711  if (_startTokenId() <= curr)... */\n    tag_285:\n        /* \"contracts/ERC721A.sol\":13737:13768  OwnerQueryForNonexistentToken() */\n      mload(0x40)\n      0xdf2d9b4200000000000000000000000000000000000000000000000000000000\n      dup2\n      mstore\n      0x04\n      add\n      mload(0x40)\n      dup1\n      swap2\n      sub\n      swap1\n      revert\n        /* \"contracts/ERC721A.sol\":12526:13775  function _packedOwnershipOf(uint256 tokenId) private view returns (uint256) {... */\n    tag_283:\n      swap2\n      swap1\n      pop\n      jump\t// out\n        /* \"contracts/ERC721A.sol\":18839:19313  function _getApprovedSlotAndAddress(uint256 tokenId)... */\n    tag_168:\n        /* \"contracts/ERC721A.sol\":18938:18965  uint256 approvedAddressSlot */\n      0x00\n        /* \"contracts/ERC721A.sol\":18967:18990  address approvedAddress */\n      dup1\n        /* \"contracts/ERC721A.sol\":19006:19044  TokenApprovalRef storage tokenApproval */\n      0x00\n        /* \"contracts/ERC721A.sol\":19047:19062  _tokenApprovals */\n      0x07\n        /* \"contracts/ERC721A.sol\":19047:19071  _tokenApprovals[tokenId] */\n      0x00\n        /* \"contracts/ERC721A.sol\":19063:19070  tokenId */\n      dup6\n        /* \"contracts/ERC721A.sol\":19047:19071  _tokenApprovals[tokenId] */\n      dup2\n      mstore\n      0x20\n      add\n      swap1\n      dup2\n      mstore\n      0x20\n      add\n      0x00\n      keccak256\n        /* \"contracts/ERC721A.sol\":19006:19071  TokenApprovalRef storage tokenApproval = _tokenApprovals[tokenId] */\n      swap1\n      pop\n        /* \"contracts/ERC721A.sol\":19221:19239  tokenApproval.slot */\n      dup1\n        /* \"contracts/ERC721A.sol\":19198:19239  approvedAddressSlot := tokenApproval.slot */\n      swap3\n      pop\n        /* \"contracts/ERC721A.sol\":19277:19296  approvedAddressSlot */\n      dup3\n        /* \"contracts/ERC721A.sol\":19271:19297  sload(approvedAddressSlot) */\n      sload\n        /* \"contracts/ERC721A.sol\":19252:19297  approvedAddress := sload(approvedAddressSlot) */\n      swap2\n      pop\n        /* \"contracts/ERC721A.sol\":19184:19307  {... */\n      pop\n        /* \"contracts/ERC721A.sol\":18839:19313  function _getApprovedSlotAndAddress(uint256 tokenId)... */\n      swap2\n      pop\n      swap2\n      jump\t// out\n        /* \"contracts/ERC721A.sol\":18085:18731  function _isSenderApprovedOrOwner(... */\n    tag_171:\n        /* \"contracts/ERC721A.sol\":18230:18241  bool result */\n      0x00\n        /* \"contracts/ERC721A.sol\":18392:18408  _BITMASK_ADDRESS */\n      0xffffffffffffffffffffffffffffffffffffffff\n        /* \"contracts/ERC721A.sol\":18385:18390  owner */\n      dup4\n        /* \"contracts/ERC721A.sol\":18381:18409  and(owner, _BITMASK_ADDRESS) */\n      and\n        /* \"contracts/ERC721A.sol\":18372:18409  owner := and(owner, _BITMASK_ADDRESS) */\n      swap3\n      pop\n        /* \"contracts/ERC721A.sol\":18550:18566  _BITMASK_ADDRESS */\n      0xffffffffffffffffffffffffffffffffffffffff\n        /* \"contracts/ERC721A.sol\":18539:18548  msgSender */\n      dup3\n        /* \"contracts/ERC721A.sol\":18535:18567  and(msgSender, _BITMASK_ADDRESS) */\n      and\n        /* \"contracts/ERC721A.sol\":18522:18567  msgSender := and(msgSender, _BITMASK_ADDRESS) */\n      swap2\n      pop\n        /* \"contracts/ERC721A.sol\":18698:18713  approvedAddress */\n      dup4\n        /* \"contracts/ERC721A.sol\":18687:18696  msgSender */\n      dup3\n        /* \"contracts/ERC721A.sol\":18684:18714  eq(msgSender, approvedAddress) */\n      eq\n        /* \"contracts/ERC721A.sol\":18676:18681  owner */\n      dup4\n        /* \"contracts/ERC721A.sol\":18665:18674  msgSender */\n      dup4\n        /* \"contracts/ERC721A.sol\":18662:18682  eq(msgSender, owner) */\n      eq\n        /* \"contracts/ERC721A.sol\":18659:18715  or(eq(msgSender, owner), eq(msgSender, approvedAddress)) */\n      or\n        /* \"contracts/ERC721A.sol\":18649:18715  result := or(eq(msgSender, owner), eq(msgSender, approvedAddress)) */\n      swap1\n      pop\n        /* \"contracts/ERC721A.sol\":18085:18731  function _isSenderApprovedOrOwner(... */\n      swap4\n      swap3\n      pop\n      pop\n      pop\n      jump\t// out\n        /* \"contracts/ERC721A.sol\":24577:24731  function _beforeTokenTransfers(... */\n    tag_178:\n      pop\n      pop\n      pop\n      pop\n      jump\t// out\n        /* \"contracts/ERC721A.sol\":38775:39079  function _nextExtraData(... */\n    tag_182:\n        /* \"contracts/ERC721A.sol\":38906:38913  uint256 */\n      0x00\n        /* \"contracts/ERC721A.sol\":38925:38941  uint24 extraData */\n      dup1\n        /* \"contracts/ERC721A.sol\":2524:2527  232 */\n      0xe8\n        /* \"contracts/ERC721A.sol\":38951:38970  prevOwnershipPacked */\n      dup4\n        /* \"contracts/ERC721A.sol\":38951:38992  prevOwnershipPacked >> _BITPOS_EXTRA_DATA */\n      swap1\n      shr\n        /* \"contracts/ERC721A.sol\":38925:38993  uint24 extraData = uint24(prevOwnershipPacked >> _BITPOS_EXTRA_DATA) */\n      swap1\n      pop\n        /* \"contracts/ERC721A.sol\":2524:2527  232 */\n      0xe8\n        /* \"contracts/ERC721A.sol\":39018:39049  _extraData(from, to, extraData) */\n      tag_294\n        /* \"contracts/ERC721A.sol\":39029:39033  from */\n      dup7\n        /* \"contracts/ERC721A.sol\":39035:39037  to */\n      dup7\n        /* \"contracts/ERC721A.sol\":39039:39048  extraData */\n      dup5\n        /* \"contracts/ERC721A.sol\":39018:39028  _extraData */\n      tag_295\n        /* \"contracts/ERC721A.sol\":39018:39049  _extraData(from, to, extraData) */\n      jump\t// in\n    tag_294:\n        /* \"contracts/ERC721A.sol\":39010:39050  uint256(_extraData(from, to, extraData)) */\n      0xffffff\n      and\n        /* \"contracts/ERC721A.sol\":39010:39072  uint256(_extraData(from, to, extraData)) << _BITPOS_EXTRA_DATA */\n      swap1\n      shl\n        /* \"contracts/ERC721A.sol\":39003:39072  return uint256(_extraData(from, to, extraData)) << _BITPOS_EXTRA_DATA */\n      swap2\n      pop\n      pop\n        /* \"contracts/ERC721A.sol\":38775:39079  function _nextExtraData(... */\n      swap4\n      swap3\n      pop\n      pop\n      pop\n      jump\t// out\n        /* \"contracts/ERC721A.sol\":14308:14751  function _packOwnershipData(address owner, uint256 flags) private view returns (uint256 result) {... */\n    tag_183:\n        /* \"contracts/ERC721A.sol\":14388:14402  uint256 result */\n      0x00\n        /* \"contracts/ERC721A.sol\":14553:14569  _BITMASK_ADDRESS */\n      0xffffffffffffffffffffffffffffffffffffffff\n        /* \"contracts/ERC721A.sol\":14546:14551  owner */\n      dup4\n        /* \"contracts/ERC721A.sol\":14542:14570  and(owner, _BITMASK_ADDRESS) */\n      and\n        /* \"contracts/ERC721A.sol\":14533:14570  owner := and(owner, _BITMASK_ADDRESS) */\n      swap3\n      pop\n        /* \"contracts/ERC721A.sol\":14728:14733  flags */\n      dup2\n        /* \"contracts/ERC721A.sol\":14714:14725  timestamp() */\n      timestamp\n        /* \"contracts/ERC721A.sol\":14689:14712  _BITPOS_START_TIMESTAMP */\n      0xa0\n        /* \"contracts/ERC721A.sol\":14685:14726  shl(_BITPOS_START_TIMESTAMP, timestamp()) */\n      shl\n        /* \"contracts/ERC721A.sol\":14682:14734  or(shl(_BITPOS_START_TIMESTAMP, timestamp()), flags) */\n      or\n        /* \"contracts/ERC721A.sol\":14675:14680  owner */\n      dup4\n        /* \"contracts/ERC721A.sol\":14672:14735  or(owner, or(shl(_BITPOS_START_TIMESTAMP, timestamp()), flags)) */\n      or\n        /* \"contracts/ERC721A.sol\":14662:14735  result := or(owner, or(shl(_BITPOS_START_TIMESTAMP, timestamp()), flags)) */\n      swap1\n      pop\n        /* \"contracts/ERC721A.sol\":14308:14751  function _packOwnershipData(address owner, uint256 flags) private view returns (uint256 result) {... */\n      swap3\n      swap2\n      pop\n      pop\n      jump\t// out\n        /* \"contracts/ERC721A.sol\":25378:25531  function _afterTokenTransfers(... */\n    tag_188:\n      pop\n      pop\n      pop\n      pop\n      jump\t// out\n        /* \"@openzeppelin/contracts/access/Ownable.sol\":1359:1489  function _checkOwner() internal view virtual {... */\n    tag_191:\n        /* \"@openzeppelin/contracts/access/Ownable.sol\":1433:1445  _msgSender() */\n      tag_299\n        /* \"@openzeppelin/contracts/access/Ownable.sol\":1433:1443  _msgSender */\n      tag_300\n        /* \"@openzeppelin/contracts/access/Ownable.sol\":1433:1445  _msgSender() */\n      jump\t// in\n    tag_299:\n        /* \"@openzeppelin/contracts/access/Ownable.sol\":1422:1445  owner() == _msgSender() */\n      0xffffffffffffffffffffffffffffffffffffffff\n      and\n        /* \"@openzeppelin/contracts/access/Ownable.sol\":1422:1429  owner() */\n      tag_301\n        /* \"@openzeppelin/contracts/access/Ownable.sol\":1422:1427  owner */\n      tag_103\n        /* \"@openzeppelin/contracts/access/Ownable.sol\":1422:1429  owner() */\n      jump\t// in\n    tag_301:\n        /* \"@openzeppelin/contracts/access/Ownable.sol\":1422:1445  owner() == _msgSender() */\n      0xffffffffffffffffffffffffffffffffffffffff\n      and\n      eq\n        /* \"@openzeppelin/contracts/access/Ownable.sol\":1414:1482  require(owner() == _msgSender(), \"Ownable: caller is not the owner\") */\n      tag_302\n      jumpi\n      mload(0x40)\n      0x08c379a000000000000000000000000000000000000000000000000000000000\n      dup2\n      mstore\n      0x04\n      add\n      tag_303\n      swap1\n      tag_304\n      jump\t// in\n    tag_303:\n      mload(0x40)\n      dup1\n      swap2\n      sub\n      swap1\n      revert\n    tag_302:\n        /* \"@openzeppelin/contracts/access/Ownable.sol\":1359:1489  function _checkOwner() internal view virtual {... */\n      jump\t// out\n        /* \"contracts/ERC721A.sol\":6315:6605  function _totalMinted() internal view virtual returns (uint256) {... */\n    tag_206:\n        /* \"contracts/ERC721A.sol\":6370:6377  uint256 */\n      0x00\n        /* \"contracts/ERC721A.sol\":6573:6588  _startTokenId() */\n      tag_306\n        /* \"contracts/ERC721A.sol\":6573:6586  _startTokenId */\n      tag_162\n        /* \"contracts/ERC721A.sol\":6573:6588  _startTokenId() */\n      jump\t// in\n    tag_306:\n        /* \"contracts/ERC721A.sol\":6557:6570  _currentIndex */\n      sload(0x01)\n        /* \"contracts/ERC721A.sol\":6557:6588  _currentIndex - _startTokenId() */\n      sub\n        /* \"contracts/ERC721A.sol\":6550:6588  return _currentIndex - _startTokenId() */\n      swap1\n      pop\n        /* \"contracts/ERC721A.sol\":6315:6605  function _totalMinted() internal view virtual returns (uint256) {... */\n      swap1\n      jump\t// out\n        /* \"contracts/ERC721A.sol\":27102:30004  function _mint(address to, uint256 quantity) internal virtual {... */\n    tag_218:\n        /* \"contracts/ERC721A.sol\":27174:27194  uint256 startTokenId */\n      0x00\n        /* \"contracts/ERC721A.sol\":27197:27210  _currentIndex */\n      sload(0x01)\n        /* \"contracts/ERC721A.sol\":27174:27210  uint256 startTokenId = _currentIndex */\n      swap1\n      pop\n        /* \"contracts/ERC721A.sol\":27236:27237  0 */\n      0x00\n        /* \"contracts/ERC721A.sol\":27224:27232  quantity */\n      dup3\n        /* \"contracts/ERC721A.sol\":27224:27237  quantity == 0 */\n      eq\n        /* \"contracts/ERC721A.sol\":27220:27264  if (quantity == 0) revert MintZeroQuantity() */\n      iszero\n      tag_308\n      jumpi\n        /* \"contracts/ERC721A.sol\":27246:27264  MintZeroQuantity() */\n      mload(0x40)\n      0xb562e8dd00000000000000000000000000000000000000000000000000000000\n      dup2\n      mstore\n      0x04\n      add\n      mload(0x40)\n      dup1\n      swap2\n      sub\n      swap1\n      revert\n        /* \"contracts/ERC721A.sol\":27220:27264  if (quantity == 0) revert MintZeroQuantity() */\n    tag_308:\n        /* \"contracts/ERC721A.sol\":27275:27336  _beforeTokenTransfers(address(0), to, startTokenId, quantity) */\n      tag_309\n        /* \"contracts/ERC721A.sol\":27305:27306  0 */\n      0x00\n        /* \"contracts/ERC721A.sol\":27309:27311  to */\n      dup5\n        /* \"contracts/ERC721A.sol\":27313:27325  startTokenId */\n      dup4\n        /* \"contracts/ERC721A.sol\":27327:27335  quantity */\n      dup6\n        /* \"contracts/ERC721A.sol\":27275:27296  _beforeTokenTransfers */\n      tag_178\n        /* \"contracts/ERC721A.sol\":27275:27336  _beforeTokenTransfers(address(0), to, startTokenId, quantity) */\n      jump\t// in\n    tag_309:\n        /* \"contracts/ERC721A.sol\":27808:27809  1 */\n      0x01\n        /* \"contracts/ERC721A.sol\":1506:1508  64 */\n      0x40\n        /* \"contracts/ERC721A.sol\":27778:27779  1 */\n      0x01\n        /* \"contracts/ERC721A.sol\":27778:27804  1 << _BITPOS_NUMBER_MINTED */\n      swap1\n      shl\n        /* \"contracts/ERC721A.sol\":27777:27809  (1 << _BITPOS_NUMBER_MINTED) | 1 */\n      or\n        /* \"contracts/ERC721A.sol\":27765:27773  quantity */\n      dup3\n        /* \"contracts/ERC721A.sol\":27765:27810  quantity * ((1 << _BITPOS_NUMBER_MINTED) | 1) */\n      mul\n        /* \"contracts/ERC721A.sol\":27739:27757  _packedAddressData */\n      0x06\n        /* \"contracts/ERC721A.sol\":27739:27761  _packedAddressData[to] */\n      0x00\n        /* \"contracts/ERC721A.sol\":27758:27760  to */\n      dup6\n        /* \"contracts/ERC721A.sol\":27739:27761  _packedAddressData[to] */\n      0xffffffffffffffffffffffffffffffffffffffff\n      and\n      0xffffffffffffffffffffffffffffffffffffffff\n      and\n      dup2\n      mstore\n      0x20\n      add\n      swap1\n      dup2\n      mstore\n      0x20\n      add\n      0x00\n      keccak256\n      0x00\n        /* \"contracts/ERC721A.sol\":27739:27810  _packedAddressData[to] += quantity * ((1 << _BITPOS_NUMBER_MINTED) | 1) */\n      dup3\n      dup3\n      sload\n      add\n      swap3\n      pop\n      pop\n      dup2\n      swap1\n      sstore\n      pop\n        /* \"contracts/ERC721A.sol\":28080:28216  _packOwnershipData(... */\n      tag_310\n        /* \"contracts/ERC721A.sol\":28116:28118  to */\n      dup4\n        /* \"contracts/ERC721A.sol\":28169:28202  _nextExtraData(address(0), to, 0) */\n      tag_311\n        /* \"contracts/ERC721A.sol\":28192:28193  0 */\n      0x00\n        /* \"contracts/ERC721A.sol\":28196:28198  to */\n      dup7\n        /* \"contracts/ERC721A.sol\":28200:28201  0 */\n      0x00\n        /* \"contracts/ERC721A.sol\":28169:28183  _nextExtraData */\n      tag_182\n        /* \"contracts/ERC721A.sol\":28169:28202  _nextExtraData(address(0), to, 0) */\n      jump\t// in\n    tag_311:\n        /* \"contracts/ERC721A.sol\":28136:28166  _nextInitializedFlag(quantity) */\n      tag_312\n        /* \"contracts/ERC721A.sol\":28157:28165  quantity */\n      dup6\n        /* \"contracts/ERC721A.sol\":28136:28156  _nextInitializedFlag */\n      tag_313\n        /* \"contracts/ERC721A.sol\":28136:28166  _nextInitializedFlag(quantity) */\n      jump\t// in\n    tag_312:\n        /* \"contracts/ERC721A.sol\":28136:28202  _nextInitializedFlag(quantity) | _nextExtraData(address(0), to, 0) */\n      or\n        /* \"contracts/ERC721A.sol\":28080:28098  _packOwnershipData */\n      tag_183\n        /* \"contracts/ERC721A.sol\":28080:28216  _packOwnershipData(... */\n      jump\t// in\n    tag_310:\n        /* \"contracts/ERC721A.sol\":28046:28063  _packedOwnerships */\n      0x05\n        /* \"contracts/ERC721A.sol\":28046:28077  _packedOwnerships[startTokenId] */\n      0x00\n        /* \"contracts/ERC721A.sol\":28064:28076  startTokenId */\n      dup4\n        /* \"contracts/ERC721A.sol\":28046:28077  _packedOwnerships[startTokenId] */\n      dup2\n      mstore\n      0x20\n      add\n      swap1\n      dup2\n      mstore\n      0x20\n      add\n      0x00\n      keccak256\n        /* \"contracts/ERC721A.sol\":28046:28216  _packedOwnerships[startTokenId] = _packOwnershipData(... */\n      dup2\n      swap1\n      sstore\n      pop\n        /* \"contracts/ERC721A.sol\":28231:28247  uint256 toMasked */\n      0x00\n        /* \"contracts/ERC721A.sol\":28261:28272  uint256 end */\n      dup1\n        /* \"contracts/ERC721A.sol\":28290:28298  quantity */\n      dup4\n        /* \"contracts/ERC721A.sol\":28275:28287  startTokenId */\n      dup4\n        /* \"contracts/ERC721A.sol\":28275:28298  startTokenId + quantity */\n      add\n        /* \"contracts/ERC721A.sol\":28261:28298  uint256 end = startTokenId + quantity */\n      swap1\n      pop\n        /* \"contracts/ERC721A.sol\":28803:28819  _BITMASK_ADDRESS */\n      0xffffffffffffffffffffffffffffffffffffffff\n        /* \"contracts/ERC721A.sol\":28799:28801  to */\n      dup6\n        /* \"contracts/ERC721A.sol\":28795:28820  and(to, _BITMASK_ADDRESS) */\n      and\n        /* \"contracts/ERC721A.sol\":28783:28820  toMasked := and(to, _BITMASK_ADDRESS) */\n      swap2\n      pop\n        /* \"contracts/ERC721A.sol\":29167:29179  startTokenId */\n      dup3\n        /* \"contracts/ERC721A.sol\":29128:29136  toMasked */\n      dup3\n        /* \"contracts/ERC721A.sol\":29088:29089  0 */\n      0x00\n        /* \"contracts/ERC721A.sol\":29027:29052  _TRANSFER_EVENT_SIGNATURE */\n      0xddf252ad1be2c89b69c2b068fc378daa952ba7f163c4a11628f55a4df523b3ef\n        /* \"contracts/ERC721A.sol\":28969:28970  0 */\n      0x00\n        /* \"contracts/ERC721A.sol\":28909:28910  0 */\n      dup1\n        /* \"contracts/ERC721A.sol\":28883:29211  log4(... */\n      log4\n        /* \"contracts/ERC721A.sol\":29531:29532  1 */\n      0x01\n        /* \"contracts/ERC721A.sol\":29517:29529  startTokenId */\n      dup4\n        /* \"contracts/ERC721A.sol\":29513:29533  add(startTokenId, 1) */\n      add\n        /* \"contracts/ERC721A.sol\":29472:29811  for {... */\n    tag_314:\n        /* \"contracts/ERC721A.sol\":29571:29574  end */\n      dup2\n        /* \"contracts/ERC721A.sol\":29562:29569  tokenId */\n      dup2\n        /* \"contracts/ERC721A.sol\":29559:29575  eq(tokenId, end) */\n      eq\n        /* \"contracts/ERC721A.sol\":29472:29811  for {... */\n      tag_316\n      jumpi\n        /* \"contracts/ERC721A.sol\":29785:29792  tokenId */\n      dup1\n        /* \"contracts/ERC721A.sol\":29775:29783  toMasked */\n      dup4\n        /* \"contracts/ERC721A.sol\":29772:29773  0 */\n      0x00\n        /* \"contracts/ERC721A.sol\":29745:29770  _TRANSFER_EVENT_SIGNATURE */\n      0xddf252ad1be2c89b69c2b068fc378daa952ba7f163c4a11628f55a4df523b3ef\n        /* \"contracts/ERC721A.sol\":29742:29743  0 */\n      0x00\n        /* \"contracts/ERC721A.sol\":29739:29740  0 */\n      dup1\n        /* \"contracts/ERC721A.sol\":29734:29793  log4(0, 0, _TRANSFER_EVENT_SIGNATURE, 0, toMasked, tokenId) */\n      log4\n        /* \"contracts/ERC721A.sol\":29623:29624  1 */\n      0x01\n        /* \"contracts/ERC721A.sol\":29614:29621  tokenId */\n      dup2\n        /* \"contracts/ERC721A.sol\":29610:29625  add(tokenId, 1) */\n      add\n        /* \"contracts/ERC721A.sol\":29599:29625  tokenId := add(tokenId, 1) */\n      swap1\n      pop\n        /* \"contracts/ERC721A.sol\":29472:29811  for {... */\n      jump(tag_314)\n    tag_316:\n        /* \"contracts/ERC721A.sol\":29476:29551  {... */\n      pop\n        /* \"contracts/ERC721A.sol\":29854:29855  0 */\n      0x00\n        /* \"contracts/ERC721A.sol\":29842:29850  toMasked */\n      dup3\n        /* \"contracts/ERC721A.sol\":29842:29855  toMasked == 0 */\n      eq\n        /* \"contracts/ERC721A.sol\":29838:29883  if (toMasked == 0) revert MintToZeroAddress() */\n      iszero\n      tag_317\n      jumpi\n        /* \"contracts/ERC721A.sol\":29864:29883  MintToZeroAddress() */\n      mload(0x40)\n      0x2e07630000000000000000000000000000000000000000000000000000000000\n      dup2\n      mstore\n      0x04\n      add\n      mload(0x40)\n      dup1\n      swap2\n      sub\n      swap1\n      revert\n        /* \"contracts/ERC721A.sol\":29838:29883  if (toMasked == 0) revert MintToZeroAddress() */\n    tag_317:\n        /* \"contracts/ERC721A.sol\":29914:29917  end */\n      dup1\n        /* \"contracts/ERC721A.sol\":29898:29911  _currentIndex */\n      0x01\n        /* \"contracts/ERC721A.sol\":29898:29917  _currentIndex = end */\n      dup2\n      swap1\n      sstore\n      pop\n        /* \"contracts/ERC721A.sol\":27519:29928  unchecked {... */\n      pop\n      pop\n        /* \"contracts/ERC721A.sol\":29937:29997  _afterTokenTransfers(address(0), to, startTokenId, quantity) */\n      tag_318\n        /* \"contracts/ERC721A.sol\":29966:29967  0 */\n      0x00\n        /* \"contracts/ERC721A.sol\":29970:29972  to */\n      dup5\n        /* \"contracts/ERC721A.sol\":29974:29986  startTokenId */\n      dup4\n        /* \"contracts/ERC721A.sol\":29988:29996  quantity */\n      dup6\n        /* \"contracts/ERC721A.sol\":29937:29957  _afterTokenTransfers */\n      tag_188\n        /* \"contracts/ERC721A.sol\":29937:29997  _afterTokenTransfers(address(0), to, startTokenId, quantity) */\n      jump\t// in\n    tag_318:\n        /* \"contracts/ERC721A.sol\":27164:30004  {... */\n      pop\n        /* \"contracts/ERC721A.sol\":27102:30004  function _mint(address to, uint256 quantity) internal virtual {... */\n      pop\n      pop\n      jump\t// out\n        /* \"@openzeppelin/contracts/access/Ownable.sol\":2433:2620  function _transferOwnership(address newOwner) internal virtual {... */\n    tag_234:\n        /* \"@openzeppelin/contracts/access/Ownable.sol\":2506:2522  address oldOwner */\n      0x00\n        /* \"@openzeppelin/contracts/access/Ownable.sol\":2525:2531  _owner */\n      dup1\n      0x00\n      swap1\n      sload\n      swap1\n      0x0100\n      exp\n      swap1\n      div\n      0xffffffffffffffffffffffffffffffffffffffff\n      and\n        /* \"@openzeppelin/contracts/access/Ownable.sol\":2506:2531  address oldOwner = _owner */\n      swap1\n      pop\n        /* \"@openzeppelin/contracts/access/Ownable.sol\":2550:2558  newOwner */\n      dup2\n        /* \"@openzeppelin/contracts/access/Ownable.sol\":2541:2547  _owner */\n      0x00\n      dup1\n        /* \"@openzeppelin/contracts/access/Ownable.sol\":2541:2558  _owner = newOwner */\n      0x0100\n      exp\n      dup2\n      sload\n      dup2\n      0xffffffffffffffffffffffffffffffffffffffff\n      mul\n      not\n      and\n      swap1\n      dup4\n      0xffffffffffffffffffffffffffffffffffffffff\n      and\n      mul\n      or\n      swap1\n      sstore\n      pop\n        /* \"@openzeppelin/contracts/access/Ownable.sol\":2604:2612  newOwner */\n      dup2\n        /* \"@openzeppelin/contracts/access/Ownable.sol\":2573:2613  OwnershipTransferred(oldOwner, newOwner) */\n      0xffffffffffffffffffffffffffffffffffffffff\n      and\n        /* \"@openzeppelin/contracts/access/Ownable.sol\":2594:2602  oldOwner */\n      dup2\n        /* \"@openzeppelin/contracts/access/Ownable.sol\":2573:2613  OwnershipTransferred(oldOwner, newOwner) */\n      0xffffffffffffffffffffffffffffffffffffffff\n      and\n      0x8be0079c531659141344cd1fd0a4f28419497f9722a3daafe3b4186f6b6457e0\n      mload(0x40)\n      mload(0x40)\n      dup1\n      swap2\n      sub\n      swap1\n      log3\n        /* \"@openzeppelin/contracts/access/Ownable.sol\":2496:2620  {... */\n      pop\n        /* \"@openzeppelin/contracts/access/Ownable.sol\":2433:2620  function _transferOwnership(address newOwner) internal virtual {... */\n      pop\n      jump\t// out\n        /* \"contracts/ERC721A.sol\":25959:26656  function _checkContractOnERC721Received(... */\n    tag_250:\n        /* \"contracts/ERC721A.sol\":26117:26121  bool */\n      0x00\n        /* \"contracts/ERC721A.sol\":26162:26164  to */\n      dup4\n        /* \"contracts/ERC721A.sol\":26137:26182  ERC721A__IERC721Receiver(to).onERC721Received */\n      0xffffffffffffffffffffffffffffffffffffffff\n      and\n      0x150b7a02\n        /* \"contracts/ERC721A.sol\":26183:26202  _msgSenderERC721A() */\n      tag_321\n        /* \"contracts/ERC721A.sol\":26183:26200  _msgSenderERC721A */\n      tag_155\n        /* \"contracts/ERC721A.sol\":26183:26202  _msgSenderERC721A() */\n      jump\t// in\n    tag_321:\n        /* \"contracts/ERC721A.sol\":26204:26208  from */\n      dup8\n        /* \"contracts/ERC721A.sol\":26210:26217  tokenId */\n      dup7\n        /* \"contracts/ERC721A.sol\":26219:26224  _data */\n      dup7\n        /* \"contracts/ERC721A.sol\":26137:26225  ERC721A__IERC721Receiver(to).onERC721Received(_msgSenderERC721A(), from, tokenId, _data) */\n      mload(0x40)\n      dup6\n      0xffffffff\n      and\n      0xe0\n      shl\n      dup2\n      mstore\n      0x04\n      add\n      tag_322\n      swap5\n      swap4\n      swap3\n      swap2\n      swap1\n      tag_323\n      jump\t// in\n    tag_322:\n      0x20\n      mload(0x40)\n      dup1\n      dup4\n      sub\n      dup2\n      0x00\n      dup8\n      dup1\n      extcodesize\n      iszero\n      dup1\n      iszero\n      tag_324\n      jumpi\n      0x00\n      dup1\n      revert\n    tag_324:\n      pop\n      gas\n      call\n      swap3\n      pop\n      pop\n      pop\n      dup1\n      iszero\n      tag_325\n      jumpi\n      pop\n      mload(0x40)\n      returndatasize\n      not(0x1f)\n      0x1f\n      dup3\n      add\n      and\n      dup3\n      add\n      dup1\n      0x40\n      mstore\n      pop\n      dup2\n      add\n      swap1\n      tag_326\n      swap2\n      swap1\n      tag_327\n      jump\t// in\n    tag_326:\n      0x01\n    tag_325:\n        /* \"contracts/ERC721A.sol\":26133:26650  try ERC721A__IERC721Receiver(to).onERC721Received(_msgSenderERC721A(), from, tokenId, _data) returns (... */\n      tag_328\n      jumpi\n      returndatasize\n      dup1\n      0x00\n      dup2\n      eq\n      tag_333\n      jumpi\n      mload(0x40)\n      swap2\n      pop\n      and(add(returndatasize, 0x3f), not(0x1f))\n      dup3\n      add\n      0x40\n      mstore\n      returndatasize\n      dup3\n      mstore\n      returndatasize\n      0x00\n      0x20\n      dup5\n      add\n      returndatacopy\n      jump(tag_332)\n    tag_333:\n      0x60\n      swap2\n      pop\n    tag_332:\n      pop\n        /* \"contracts/ERC721A.sol\":26432:26433  0 */\n      0x00\n        /* \"contracts/ERC721A.sol\":26415:26421  reason */\n      dup2\n        /* \"contracts/ERC721A.sol\":26415:26428  reason.length */\n      mload\n        /* \"contracts/ERC721A.sol\":26415:26433  reason.length == 0 */\n      eq\n        /* \"contracts/ERC721A.sol\":26411:26640  if (reason.length == 0) {... */\n      iszero\n      tag_334\n      jumpi\n        /* \"contracts/ERC721A.sol\":26460:26500  TransferToNonERC721ReceiverImplementer() */\n      mload(0x40)\n      0xd1a57ed600000000000000000000000000000000000000000000000000000000\n      dup2\n      mstore\n      0x04\n      add\n      mload(0x40)\n      dup1\n      swap2\n      sub\n      swap1\n      revert\n        /* \"contracts/ERC721A.sol\":26411:26640  if (reason.length == 0) {... */\n    tag_334:\n        /* \"contracts/ERC721A.sol\":26600:26606  reason */\n      dup1\n        /* \"contracts/ERC721A.sol\":26594:26607  mload(reason) */\n      mload\n        /* \"contracts/ERC721A.sol\":26585:26591  reason */\n      dup2\n        /* \"contracts/ERC721A.sol\":26581:26583  32 */\n      0x20\n        /* \"contracts/ERC721A.sol\":26577:26592  add(32, reason) */\n      add\n        /* \"contracts/ERC721A.sol\":26570:26608  revert(add(32, reason), mload(reason)) */\n      revert\n        /* \"contracts/ERC721A.sol\":26133:26650  try ERC721A__IERC721Receiver(to).onERC721Received(_msgSenderERC721A(), from, tokenId, _data) returns (... */\n    tag_328:\n        /* \"contracts/ERC721A.sol\":26303:26357  ERC721A__IERC721Receiver(to).onERC721Received.selector */\n      shl(0xe0, 0x150b7a02)\n        /* \"contracts/ERC721A.sol\":26293:26357  retval == ERC721A__IERC721Receiver(to).onERC721Received.selector */\n      not(0xffffffffffffffffffffffffffffffffffffffffffffffffffffffff)\n      and\n        /* \"contracts/ERC721A.sol\":26293:26299  retval */\n      dup2\n        /* \"contracts/ERC721A.sol\":26293:26357  retval == ERC721A__IERC721Receiver(to).onERC721Received.selector */\n      not(0xffffffffffffffffffffffffffffffffffffffffffffffffffffffff)\n      and\n      eq\n        /* \"contracts/ERC721A.sol\":26286:26357  return retval == ERC721A__IERC721Receiver(to).onERC721Received.selector */\n      swap2\n      pop\n      pop\n        /* \"contracts/ERC721A.sol\":25959:26656  function _checkContractOnERC721Received(... */\n      swap5\n      swap4\n      pop\n      pop\n      pop\n      pop\n      jump\t// out\n        /* \"contracts/MudAi.sol\":1060:1164  function _baseURI() internal view override returns (string memory) {... */\n    tag_256:\n        /* \"contracts/MudAi.sol\":1112:1125  string memory */\n      0x60\n        /* \"contracts/MudAi.sol\":1144:1157  _baseTokenURI */\n      0x0a\n        /* \"contracts/MudAi.sol\":1137:1157  return _baseTokenURI */\n      dup1\n      sload\n      tag_338\n      swap1\n      tag_143\n      jump\t// in\n    tag_338:\n      dup1\n      0x1f\n      add\n      0x20\n      dup1\n      swap2\n      div\n      mul\n      0x20\n      add\n      mload(0x40)\n      swap1\n      dup2\n      add\n      0x40\n      mstore\n      dup1\n      swap3\n      swap2\n      swap1\n      dup2\n      dup2\n      mstore\n      0x20\n      add\n      dup3\n      dup1\n      sload\n      tag_339\n      swap1\n      tag_143\n      jump\t// in\n    tag_339:\n      dup1\n      iszero\n      tag_340\n      jumpi\n      dup1\n      0x1f\n      lt\n      tag_341\n      jumpi\n      0x0100\n      dup1\n      dup4\n      sload\n      div\n      mul\n      dup4\n      mstore\n      swap2\n      0x20\n      add\n      swap2\n      jump(tag_340)\n    tag_341:\n      dup3\n      add\n      swap2\n      swap1\n      0x00\n      mstore\n      keccak256(0x00, 0x20)\n      swap1\n    tag_342:\n      dup2\n      sload\n      dup2\n      mstore\n      swap1\n      0x01\n      add\n      swap1\n      0x20\n      add\n      dup1\n      dup4\n      gt\n      tag_342\n      jumpi\n      dup3\n      swap1\n      sub\n      0x1f\n      and\n      dup3\n      add\n      swap2\n    tag_340:\n      pop\n      pop\n      pop\n      pop\n      pop\n      swap1\n      pop\n        /* \"contracts/MudAi.sol\":1060:1164  function _baseURI() internal view override returns (string memory) {... */\n      swap1\n      jump\t// out\n        /* \"contracts/ERC721A.sol\":39648:41356  function _toString(uint256 value) internal pure virtual returns (string memory str) {... */\n    tag_260:\n        /* \"contracts/ERC721A.sol\":39713:39730  string memory str */\n      0x60\n        /* \"contracts/ERC721A.sol\":40141:40145  0xa0 */\n      0xa0\n        /* \"contracts/ERC721A.sol\":40134:40138  0x40 */\n      0x40\n        /* \"contracts/ERC721A.sol\":40128:40139  mload(0x40) */\n      mload\n        /* \"contracts/ERC721A.sol\":40124:40146  add(mload(0x40), 0xa0) */\n      add\n        /* \"contracts/ERC721A.sol\":40231:40232  m */\n      dup1\n        /* \"contracts/ERC721A.sol\":40225:40229  0x40 */\n      0x40\n        /* \"contracts/ERC721A.sol\":40218:40233  mstore(0x40, m) */\n      mstore\n        /* \"contracts/ERC721A.sol\":40304:40308  0x20 */\n      0x20\n        /* \"contracts/ERC721A.sol\":40301:40302  m */\n      dup2\n        /* \"contracts/ERC721A.sol\":40297:40309  sub(m, 0x20) */\n      sub\n        /* \"contracts/ERC721A.sol\":40290:40309  str := sub(m, 0x20) */\n      swap2\n      pop\n        /* \"contracts/ERC721A.sol\":40384:40385  0 */\n      0x00\n        /* \"contracts/ERC721A.sol\":40379:40382  str */\n      dup3\n        /* \"contracts/ERC721A.sol\":40372:40386  mstore(str, 0) */\n      mstore\n        /* \"contracts/ERC721A.sol\":40485:40488  str */\n      dup2\n        /* \"contracts/ERC721A.sol\":40719:40724  value */\n      dup4\n        /* \"contracts/ERC721A.sol\":40701:41120  for { let temp := value } 1 {} {... */\n    tag_344:\n        /* \"contracts/ERC721A.sol\":40727:40728  1 */\n      0x01\n        /* \"contracts/ERC721A.sol\":40701:41120  for { let temp := value } 1 {} {... */\n      iszero\n      tag_346\n      jumpi\n        /* \"contracts/ERC721A.sol\":40766:40767  1 */\n      0x01\n        /* \"contracts/ERC721A.sol\":40761:40764  str */\n      dup5\n        /* \"contracts/ERC721A.sol\":40757:40768  sub(str, 1) */\n      sub\n        /* \"contracts/ERC721A.sol\":40750:40768  str := sub(str, 1) */\n      swap4\n      pop\n        /* \"contracts/ERC721A.sol\":40934:40936  10 */\n      0x0a\n        /* \"contracts/ERC721A.sol\":40928:40932  temp */\n      dup2\n        /* \"contracts/ERC721A.sol\":40924:40937  mod(temp, 10) */\n      mod\n        /* \"contracts/ERC721A.sol\":40920:40922  48 */\n      0x30\n        /* \"contracts/ERC721A.sol\":40916:40938  add(48, mod(temp, 10)) */\n      add\n        /* \"contracts/ERC721A.sol\":40911:40914  str */\n      dup5\n        /* \"contracts/ERC721A.sol\":40903:40939  mstore8(str, add(48, mod(temp, 10))) */\n      mstore8\n        /* \"contracts/ERC721A.sol\":41026:41028  10 */\n      0x0a\n        /* \"contracts/ERC721A.sol\":41020:41024  temp */\n      dup2\n        /* \"contracts/ERC721A.sol\":41016:41029  div(temp, 10) */\n      div\n        /* \"contracts/ERC721A.sol\":41008:41029  temp := div(temp, 10) */\n      swap1\n      pop\n        /* \"contracts/ERC721A.sol\":41091:41095  temp */\n      dup1\n        /* \"contracts/ERC721A.sol\":41081:41106  if iszero(temp) { break } */\n      tag_347\n      jumpi\n        /* \"contracts/ERC721A.sol\":41099:41104  break */\n      jump(tag_346)\n        /* \"contracts/ERC721A.sol\":41081:41106  if iszero(temp) { break } */\n    tag_347:\n        /* \"contracts/ERC721A.sol\":40701:41120  for { let temp := value } 1 {} {... */\n      jump(tag_344)\n    tag_346:\n        /* \"contracts/ERC721A.sol\":40705:40726  { let temp := value } */\n      pop\n        /* \"contracts/ERC721A.sol\":41157:41160  str */\n      dup3\n        /* \"contracts/ERC721A.sol\":41152:41155  end */\n      dup2\n        /* \"contracts/ERC721A.sol\":41148:41161  sub(end, str) */\n      sub\n        /* \"contracts/ERC721A.sol\":41270:41274  0x20 */\n      0x20\n        /* \"contracts/ERC721A.sol\":41265:41268  str */\n      dup5\n        /* \"contracts/ERC721A.sol\":41261:41275  sub(str, 0x20) */\n      sub\n        /* \"contracts/ERC721A.sol\":41254:41275  str := sub(str, 0x20) */\n      swap4\n      pop\n        /* \"contracts/ERC721A.sol\":41333:41339  length */\n      dup1\n        /* \"contracts/ERC721A.sol\":41328:41331  str */\n      dup5\n        /* \"contracts/ERC721A.sol\":41321:41340  mstore(str, length) */\n      mstore\n        /* \"contracts/ERC721A.sol\":39751:41350  {... */\n      pop\n      pop\n      pop\n        /* \"contracts/ERC721A.sol\":39648:41356  function _toString(uint256 value) internal pure virtual returns (string memory str) {... */\n      swap2\n      swap1\n      pop\n      jump\t// out\n        /* \"contracts/ERC721A.sol\":38486:38629  function _extraData(... */\n    tag_295:\n        /* \"contracts/ERC721A.sol\":38619:38625  uint24 */\n      0x00\n        /* \"contracts/ERC721A.sol\":38486:38629  function _extraData(... */\n      swap4\n      swap3\n      pop\n      pop\n      pop\n      jump\t// out\n        /* \"@openzeppelin/contracts/utils/Context.sol\":640:736  function _msgSender() internal view virtual returns (address) {... */\n    tag_300:\n        /* \"@openzeppelin/contracts/utils/Context.sol\":693:700  address */\n      0x00\n        /* \"@openzeppelin/contracts/utils/Context.sol\":719:729  msg.sender */\n      caller\n        /* \"@openzeppelin/contracts/utils/Context.sol\":712:729  return msg.sender */\n      swap1\n      pop\n        /* \"@openzeppelin/contracts/utils/Context.sol\":640:736  function _msgSender() internal view virtual returns (address) {... */\n      swap1\n      jump\t// out\n        /* \"contracts/ERC721A.sol\":14848:15166  function _nextInitializedFlag(uint256 quantity) private pure returns (uint256 result) {... */\n    tag_313:\n        /* \"contracts/ERC721A.sol\":14918:14932  uint256 result */\n      0x00\n        /* \"contracts/ERC721A.sol\":15147:15148  1 */\n      0x01\n        /* \"contracts/ERC721A.sol\":15137:15145  quantity */\n      dup3\n        /* \"contracts/ERC721A.sol\":15134:15149  eq(quantity, 1) */\n      eq\n        /* \"contracts/ERC721A.sol\":15108:15132  _BITPOS_NEXT_INITIALIZED */\n      0xe1\n        /* \"contracts/ERC721A.sol\":15104:15150  shl(_BITPOS_NEXT_INITIALIZED, eq(quantity, 1)) */\n      shl\n        /* \"contracts/ERC721A.sol\":15094:15150  result := shl(_BITPOS_NEXT_INITIALIZED, eq(quantity, 1)) */\n      swap1\n      pop\n        /* \"contracts/ERC721A.sol\":14848:15166  function _nextInitializedFlag(uint256 quantity) private pure returns (uint256 result) {... */\n      swap2\n      swap1\n      pop\n      jump\t// out\n    tag_225:\n      dup3\n      dup1\n      sload\n      tag_351\n      swap1\n      tag_143\n      jump\t// in\n    tag_351:\n      swap1\n      0x00\n      mstore\n      keccak256(0x00, 0x20)\n      swap1\n      0x1f\n      add\n      0x20\n      swap1\n      div\n      dup2\n      add\n      swap3\n      dup3\n      tag_353\n      jumpi\n      0x00\n      dup6\n      sstore\n      jump(tag_352)\n    tag_353:\n      dup3\n      0x1f\n      lt\n      tag_354\n      jumpi\n      dup1\n      calldataload\n      not(0xff)\n      and\n      dup4\n      dup1\n      add\n      or\n      dup6\n      sstore\n      jump(tag_352)\n    tag_354:\n      dup3\n      dup1\n      add\n      0x01\n      add\n      dup6\n      sstore\n      dup3\n      iszero\n      tag_352\n      jumpi\n      swap2\n      dup3\n      add\n    tag_355:\n      dup3\n      dup2\n      gt\n      iszero\n      tag_356\n      jumpi\n      dup3\n      calldataload\n      dup3\n      sstore\n      swap2\n      0x20\n      add\n      swap2\n      swap1\n      0x01\n      add\n      swap1\n      jump(tag_355)\n    tag_356:\n    tag_352:\n      pop\n      swap1\n      pop\n      tag_357\n      swap2\n      swap1\n      tag_358\n      jump\t// in\n    tag_357:\n      pop\n      swap1\n      jump\t// out\n    tag_358:\n    tag_359:\n      dup1\n      dup3\n      gt\n      iszero\n      tag_360\n      jumpi\n      0x00\n      dup2\n      0x00\n      swap1\n      sstore\n      pop\n      0x01\n      add\n      jump(tag_359)\n    tag_360:\n      pop\n      swap1\n      jump\t// out\n        /* \"#utility.yul\":7:417   */\n    tag_362:\n        /* \"#utility.yul\":84:89   */\n      0x00\n        /* \"#utility.yul\":109:174   */\n      tag_364\n        /* \"#utility.yul\":125:173   */\n      tag_365\n        /* \"#utility.yul\":166:172   */\n      dup5\n        /* \"#utility.yul\":125:173   */\n      tag_366\n      jump\t// in\n    tag_365:\n        /* \"#utility.yul\":109:174   */\n      tag_367\n      jump\t// in\n    tag_364:\n        /* \"#utility.yul\":100:174   */\n      swap1\n      pop\n        /* \"#utility.yul\":197:203   */\n      dup3\n        /* \"#utility.yul\":190:195   */\n      dup2\n        /* \"#utility.yul\":183:204   */\n      mstore\n        /* \"#utility.yul\":235:239   */\n      0x20\n        /* \"#utility.yul\":228:233   */\n      dup2\n        /* \"#utility.yul\":224:240   */\n      add\n        /* \"#utility.yul\":273:276   */\n      dup5\n        /* \"#utility.yul\":264:270   */\n      dup5\n        /* \"#utility.yul\":259:262   */\n      dup5\n        /* \"#utility.yul\":255:271   */\n      add\n        /* \"#utility.yul\":252:277   */\n      gt\n        /* \"#utility.yul\":249:361   */\n      iszero\n      tag_368\n      jumpi\n        /* \"#utility.yul\":280:359   */\n      tag_369\n      tag_370\n      jump\t// in\n    tag_369:\n        /* \"#utility.yul\":249:361   */\n    tag_368:\n        /* \"#utility.yul\":370:411   */\n      tag_371\n        /* \"#utility.yul\":404:410   */\n      dup5\n        /* \"#utility.yul\":399:402   */\n      dup3\n        /* \"#utility.yul\":394:397   */\n      dup6\n        /* \"#utility.yul\":370:411   */\n      tag_372\n      jump\t// in\n    tag_371:\n        /* \"#utility.yul\":90:417   */\n      pop\n        /* \"#utility.yul\":7:417   */\n      swap4\n      swap3\n      pop\n      pop\n      pop\n      jump\t// out\n        /* \"#utility.yul\":423:562   */\n    tag_373:\n        /* \"#utility.yul\":469:474   */\n      0x00\n        /* \"#utility.yul\":507:513   */\n      dup2\n        /* \"#utility.yul\":494:514   */\n      calldataload\n        /* \"#utility.yul\":485:514   */\n      swap1\n      pop\n        /* \"#utility.yul\":523:556   */\n      tag_375\n        /* \"#utility.yul\":550:555   */\n      dup2\n        /* \"#utility.yul\":523:556   */\n      tag_376\n      jump\t// in\n    tag_375:\n        /* \"#utility.yul\":423:562   */\n      swap3\n      swap2\n      pop\n      pop\n      jump\t// out\n        /* \"#utility.yul\":568:701   */\n    tag_377:\n        /* \"#utility.yul\":611:616   */\n      0x00\n        /* \"#utility.yul\":649:655   */\n      dup2\n        /* \"#utility.yul\":636:656   */\n      calldataload\n        /* \"#utility.yul\":627:656   */\n      swap1\n      pop\n        /* \"#utility.yul\":665:695   */\n      tag_379\n        /* \"#utility.yul\":689:694   */\n      dup2\n        /* \"#utility.yul\":665:695   */\n      tag_380\n      jump\t// in\n    tag_379:\n        /* \"#utility.yul\":568:701   */\n      swap3\n      swap2\n      pop\n      pop\n      jump\t// out\n        /* \"#utility.yul\":707:844   */\n    tag_381:\n        /* \"#utility.yul\":752:757   */\n      0x00\n        /* \"#utility.yul\":790:796   */\n      dup2\n        /* \"#utility.yul\":777:797   */\n      calldataload\n        /* \"#utility.yul\":768:797   */\n      swap1\n      pop\n        /* \"#utility.yul\":806:838   */\n      tag_383\n        /* \"#utility.yul\":832:837   */\n      dup2\n        /* \"#utility.yul\":806:838   */\n      tag_384\n      jump\t// in\n    tag_383:\n        /* \"#utility.yul\":707:844   */\n      swap3\n      swap2\n      pop\n      pop\n      jump\t// out\n        /* \"#utility.yul\":850:991   */\n    tag_385:\n        /* \"#utility.yul\":906:911   */\n      0x00\n        /* \"#utility.yul\":937:943   */\n      dup2\n        /* \"#utility.yul\":931:944   */\n      mload\n        /* \"#utility.yul\":922:944   */\n      swap1\n      pop\n        /* \"#utility.yul\":953:985   */\n      tag_387\n        /* \"#utility.yul\":979:984   */\n      dup2\n        /* \"#utility.yul\":953:985   */\n      tag_384\n      jump\t// in\n    tag_387:\n        /* \"#utility.yul\":850:991   */\n      swap3\n      swap2\n      pop\n      pop\n      jump\t// out\n        /* \"#utility.yul\":1010:1348   */\n    tag_388:\n        /* \"#utility.yul\":1065:1070   */\n      0x00\n        /* \"#utility.yul\":1114:1117   */\n      dup3\n        /* \"#utility.yul\":1107:1111   */\n      0x1f\n        /* \"#utility.yul\":1099:1105   */\n      dup4\n        /* \"#utility.yul\":1095:1112   */\n      add\n        /* \"#utility.yul\":1091:1118   */\n      slt\n        /* \"#utility.yul\":1081:1203   */\n      tag_390\n      jumpi\n        /* \"#utility.yul\":1122:1201   */\n      tag_391\n      tag_392\n      jump\t// in\n    tag_391:\n        /* \"#utility.yul\":1081:1203   */\n    tag_390:\n        /* \"#utility.yul\":1239:1245   */\n      dup2\n        /* \"#utility.yul\":1226:1246   */\n      calldataload\n        /* \"#utility.yul\":1264:1342   */\n      tag_393\n        /* \"#utility.yul\":1338:1341   */\n      dup5\n        /* \"#utility.yul\":1330:1336   */\n      dup3\n        /* \"#utility.yul\":1323:1327   */\n      0x20\n        /* \"#utility.yul\":1315:1321   */\n      dup7\n        /* \"#utility.yul\":1311:1328   */\n      add\n        /* \"#utility.yul\":1264:1342   */\n      tag_362\n      jump\t// in\n    tag_393:\n        /* \"#utility.yul\":1255:1342   */\n      swap2\n      pop\n        /* \"#utility.yul\":1071:1348   */\n      pop\n        /* \"#utility.yul\":1010:1348   */\n      swap3\n      swap2\n      pop\n      pop\n      jump\t// out\n        /* \"#utility.yul\":1368:1921   */\n    tag_394:\n        /* \"#utility.yul\":1426:1434   */\n      0x00\n        /* \"#utility.yul\":1436:1442   */\n      dup1\n        /* \"#utility.yul\":1486:1489   */\n      dup4\n        /* \"#utility.yul\":1479:1483   */\n      0x1f\n        /* \"#utility.yul\":1471:1477   */\n      dup5\n        /* \"#utility.yul\":1467:1484   */\n      add\n        /* \"#utility.yul\":1463:1490   */\n      slt\n        /* \"#utility.yul\":1453:1575   */\n      tag_396\n      jumpi\n        /* \"#utility.yul\":1494:1573   */\n      tag_397\n      tag_392\n      jump\t// in\n    tag_397:\n        /* \"#utility.yul\":1453:1575   */\n    tag_396:\n        /* \"#utility.yul\":1607:1613   */\n      dup3\n        /* \"#utility.yul\":1594:1614   */\n      calldataload\n        /* \"#utility.yul\":1584:1614   */\n      swap1\n      pop\n        /* \"#utility.yul\":1637:1655   */\n      0xffffffffffffffff\n        /* \"#utility.yul\":1629:1635   */\n      dup2\n        /* \"#utility.yul\":1626:1656   */\n      gt\n        /* \"#utility.yul\":1623:1740   */\n      iszero\n      tag_398\n      jumpi\n        /* \"#utility.yul\":1659:1738   */\n      tag_399\n      tag_400\n      jump\t// in\n    tag_399:\n        /* \"#utility.yul\":1623:1740   */\n    tag_398:\n        /* \"#utility.yul\":1773:1777   */\n      0x20\n        /* \"#utility.yul\":1765:1771   */\n      dup4\n        /* \"#utility.yul\":1761:1778   */\n      add\n        /* \"#utility.yul\":1749:1778   */\n      swap2\n      pop\n        /* \"#utility.yul\":1827:1830   */\n      dup4\n        /* \"#utility.yul\":1819:1823   */\n      0x01\n        /* \"#utility.yul\":1811:1817   */\n      dup3\n        /* \"#utility.yul\":1807:1824   */\n      mul\n        /* \"#utility.yul\":1797:1805   */\n      dup4\n        /* \"#utility.yul\":1793:1825   */\n      add\n        /* \"#utility.yul\":1790:1831   */\n      gt\n        /* \"#utility.yul\":1787:1915   */\n      iszero\n      tag_401\n      jumpi\n        /* \"#utility.yul\":1834:1913   */\n      tag_402\n      tag_403\n      jump\t// in\n    tag_402:\n        /* \"#utility.yul\":1787:1915   */\n    tag_401:\n        /* \"#utility.yul\":1368:1921   */\n      swap3\n      pop\n      swap3\n      swap1\n      pop\n      jump\t// out\n        /* \"#utility.yul\":1927:2066   */\n    tag_404:\n        /* \"#utility.yul\":1973:1978   */\n      0x00\n        /* \"#utility.yul\":2011:2017   */\n      dup2\n        /* \"#utility.yul\":1998:2018   */\n      calldataload\n        /* \"#utility.yul\":1989:2018   */\n      swap1\n      pop\n        /* \"#utility.yul\":2027:2060   */\n      tag_406\n        /* \"#utility.yul\":2054:2059   */\n      dup2\n        /* \"#utility.yul\":2027:2060   */\n      tag_407\n      jump\t// in\n    tag_406:\n        /* \"#utility.yul\":1927:2066   */\n      swap3\n      swap2\n      pop\n      pop\n      jump\t// out\n        /* \"#utility.yul\":2072:2401   */\n    tag_87:\n        /* \"#utility.yul\":2131:2137   */\n      0x00\n        /* \"#utility.yul\":2180:2182   */\n      0x20\n        /* \"#utility.yul\":2168:2177   */\n      dup3\n        /* \"#utility.yul\":2159:2166   */\n      dup5\n        /* \"#utility.yul\":2155:2178   */\n      sub\n        /* \"#utility.yul\":2151:2183   */\n      slt\n        /* \"#utility.yul\":2148:2267   */\n      iszero\n      tag_409\n      jumpi\n        /* \"#utility.yul\":2186:2265   */\n      tag_410\n      tag_411\n      jump\t// in\n    tag_410:\n        /* \"#utility.yul\":2148:2267   */\n    tag_409:\n        /* \"#utility.yul\":2306:2307   */\n      0x00\n        /* \"#utility.yul\":2331:2384   */\n      tag_412\n        /* \"#utility.yul\":2376:2383   */\n      dup5\n        /* \"#utility.yul\":2367:2373   */\n      dup3\n        /* \"#utility.yul\":2356:2365   */\n      dup6\n        /* \"#utility.yul\":2352:2374   */\n      add\n        /* \"#utility.yul\":2331:2384   */\n      tag_373\n      jump\t// in\n    tag_412:\n        /* \"#utility.yul\":2321:2384   */\n      swap2\n      pop\n        /* \"#utility.yul\":2277:2394   */\n      pop\n        /* \"#utility.yul\":2072:2401   */\n      swap3\n      swap2\n      pop\n      pop\n      jump\t// out\n        /* \"#utility.yul\":2407:2881   */\n    tag_126:\n        /* \"#utility.yul\":2475:2481   */\n      0x00\n        /* \"#utility.yul\":2483:2489   */\n      dup1\n        /* \"#utility.yul\":2532:2534   */\n      0x40\n        /* \"#utility.yul\":2520:2529   */\n      dup4\n        /* \"#utility.yul\":2511:2518   */\n      dup6\n        /* \"#utility.yul\":2507:2530   */\n      sub\n        /* \"#utility.yul\":2503:2535   */\n      slt\n        /* \"#utility.yul\":2500:2619   */\n      iszero\n      tag_414\n      jumpi\n        /* \"#utility.yul\":2538:2617   */\n      tag_415\n      tag_411\n      jump\t// in\n    tag_415:\n        /* \"#utility.yul\":2500:2619   */\n    tag_414:\n        /* \"#utility.yul\":2658:2659   */\n      0x00\n        /* \"#utility.yul\":2683:2736   */\n      tag_416\n        /* \"#utility.yul\":2728:2735   */\n      dup6\n        /* \"#utility.yul\":2719:2725   */\n      dup3\n        /* \"#utility.yul\":2708:2717   */\n      dup7\n        /* \"#utility.yul\":2704:2726   */\n      add\n        /* \"#utility.yul\":2683:2736   */\n      tag_373\n      jump\t// in\n    tag_416:\n        /* \"#utility.yul\":2673:2736   */\n      swap3\n      pop\n        /* \"#utility.yul\":2629:2746   */\n      pop\n        /* \"#utility.yul\":2785:2787   */\n      0x20\n        /* \"#utility.yul\":2811:2864   */\n      tag_417\n        /* \"#utility.yul\":2856:2863   */\n      dup6\n        /* \"#utility.yul\":2847:2853   */\n      dup3\n        /* \"#utility.yul\":2836:2845   */\n      dup7\n        /* \"#utility.yul\":2832:2854   */\n      add\n        /* \"#utility.yul\":2811:2864   */\n      tag_373\n      jump\t// in\n    tag_417:\n        /* \"#utility.yul\":2801:2864   */\n      swap2\n      pop\n        /* \"#utility.yul\":2756:2874   */\n      pop\n        /* \"#utility.yul\":2407:2881   */\n      swap3\n      pop\n      swap3\n      swap1\n      pop\n      jump\t// out\n        /* \"#utility.yul\":2887:3506   */\n    tag_59:\n        /* \"#utility.yul\":2964:2970   */\n      0x00\n        /* \"#utility.yul\":2972:2978   */\n      dup1\n        /* \"#utility.yul\":2980:2986   */\n      0x00\n        /* \"#utility.yul\":3029:3031   */\n      0x60\n        /* \"#utility.yul\":3017:3026   */\n      dup5\n        /* \"#utility.yul\":3008:3015   */\n      dup7\n        /* \"#utility.yul\":3004:3027   */\n      sub\n        /* \"#utility.yul\":3000:3032   */\n      slt\n        /* \"#utility.yul\":2997:3116   */\n      iszero\n      tag_419\n      jumpi\n        /* \"#utility.yul\":3035:3114   */\n      tag_420\n      tag_411\n      jump\t// in\n    tag_420:\n        /* \"#utility.yul\":2997:3116   */\n    tag_419:\n        /* \"#utility.yul\":3155:3156   */\n      0x00\n        /* \"#utility.yul\":3180:3233   */\n      tag_421\n        /* \"#utility.yul\":3225:3232   */\n      dup7\n        /* \"#utility.yul\":3216:3222   */\n      dup3\n        /* \"#utility.yul\":3205:3214   */\n      dup8\n        /* \"#utility.yul\":3201:3223   */\n      add\n        /* \"#utility.yul\":3180:3233   */\n      tag_373\n      jump\t// in\n    tag_421:\n        /* \"#utility.yul\":3170:3233   */\n      swap4\n      pop\n        /* \"#utility.yul\":3126:3243   */\n      pop\n        /* \"#utility.yul\":3282:3284   */\n      0x20\n        /* \"#utility.yul\":3308:3361   */\n      tag_422\n        /* \"#utility.yul\":3353:3360   */\n      dup7\n        /* \"#utility.yul\":3344:3350   */\n      dup3\n        /* \"#utility.yul\":3333:3342   */\n      dup8\n        /* \"#utility.yul\":3329:3351   */\n      add\n        /* \"#utility.yul\":3308:3361   */\n      tag_373\n      jump\t// in\n    tag_422:\n        /* \"#utility.yul\":3298:3361   */\n      swap3\n      pop\n        /* \"#utility.yul\":3253:3371   */\n      pop\n        /* \"#utility.yul\":3410:3412   */\n      0x40\n        /* \"#utility.yul\":3436:3489   */\n      tag_423\n        /* \"#utility.yul\":3481:3488   */\n      dup7\n        /* \"#utility.yul\":3472:3478   */\n      dup3\n        /* \"#utility.yul\":3461:3470   */\n      dup8\n        /* \"#utility.yul\":3457:3479   */\n      add\n        /* \"#utility.yul\":3436:3489   */\n      tag_404\n      jump\t// in\n    tag_423:\n        /* \"#utility.yul\":3426:3489   */\n      swap2\n      pop\n        /* \"#utility.yul\":3381:3499   */\n      pop\n        /* \"#utility.yul\":2887:3506   */\n      swap3\n      pop\n      swap3\n      pop\n      swap3\n      jump\t// out\n        /* \"#utility.yul\":3512:4455   */\n    tag_116:\n        /* \"#utility.yul\":3607:3613   */\n      0x00\n        /* \"#utility.yul\":3615:3621   */\n      dup1\n        /* \"#utility.yul\":3623:3629   */\n      0x00\n        /* \"#utility.yul\":3631:3637   */\n      dup1\n        /* \"#utility.yul\":3680:3683   */\n      0x80\n        /* \"#utility.yul\":3668:3677   */\n      dup6\n        /* \"#utility.yul\":3659:3666   */\n      dup8\n        /* \"#utility.yul\":3655:3678   */\n      sub\n        /* \"#utility.yul\":3651:3684   */\n      slt\n        /* \"#utility.yul\":3648:3768   */\n      iszero\n      tag_425\n      jumpi\n        /* \"#utility.yul\":3687:3766   */\n      tag_426\n      tag_411\n      jump\t// in\n    tag_426:\n        /* \"#utility.yul\":3648:3768   */\n    tag_425:\n        /* \"#utility.yul\":3807:3808   */\n      0x00\n        /* \"#utility.yul\":3832:3885   */\n      tag_427\n        /* \"#utility.yul\":3877:3884   */\n      dup8\n        /* \"#utility.yul\":3868:3874   */\n      dup3\n        /* \"#utility.yul\":3857:3866   */\n      dup9\n        /* \"#utility.yul\":3853:3875   */\n      add\n        /* \"#utility.yul\":3832:3885   */\n      tag_373\n      jump\t// in\n    tag_427:\n        /* \"#utility.yul\":3822:3885   */\n      swap5\n      pop\n        /* \"#utility.yul\":3778:3895   */\n      pop\n        /* \"#utility.yul\":3934:3936   */\n      0x20\n        /* \"#utility.yul\":3960:4013   */\n      tag_428\n        /* \"#utility.yul\":4005:4012   */\n      dup8\n        /* \"#utility.yul\":3996:4002   */\n      dup3\n        /* \"#utility.yul\":3985:3994   */\n      dup9\n        /* \"#utility.yul\":3981:4003   */\n      add\n        /* \"#utility.yul\":3960:4013   */\n      tag_373\n      jump\t// in\n    tag_428:\n        /* \"#utility.yul\":3950:4013   */\n      swap4\n      pop\n        /* \"#utility.yul\":3905:4023   */\n      pop\n        /* \"#utility.yul\":4062:4064   */\n      0x40\n        /* \"#utility.yul\":4088:4141   */\n      tag_429\n        /* \"#utility.yul\":4133:4140   */\n      dup8\n        /* \"#utility.yul\":4124:4130   */\n      dup3\n        /* \"#utility.yul\":4113:4122   */\n      dup9\n        /* \"#utility.yul\":4109:4131   */\n      add\n        /* \"#utility.yul\":4088:4141   */\n      tag_404\n      jump\t// in\n    tag_429:\n        /* \"#utility.yul\":4078:4141   */\n      swap3\n      pop\n        /* \"#utility.yul\":4033:4151   */\n      pop\n        /* \"#utility.yul\":4218:4220   */\n      0x60\n        /* \"#utility.yul\":4207:4216   */\n      dup6\n        /* \"#utility.yul\":4203:4221   */\n      add\n        /* \"#utility.yul\":4190:4222   */\n      calldataload\n        /* \"#utility.yul\":4249:4267   */\n      0xffffffffffffffff\n        /* \"#utility.yul\":4241:4247   */\n      dup2\n        /* \"#utility.yul\":4238:4268   */\n      gt\n        /* \"#utility.yul\":4235:4352   */\n      iszero\n      tag_430\n      jumpi\n        /* \"#utility.yul\":4271:4350   */\n      tag_431\n      tag_432\n      jump\t// in\n    tag_431:\n        /* \"#utility.yul\":4235:4352   */\n    tag_430:\n        /* \"#utility.yul\":4376:4438   */\n      tag_433\n        /* \"#utility.yul\":4430:4437   */\n      dup8\n        /* \"#utility.yul\":4421:4427   */\n      dup3\n        /* \"#utility.yul\":4410:4419   */\n      dup9\n        /* \"#utility.yul\":4406:4428   */\n      add\n        /* \"#utility.yul\":4376:4438   */\n      tag_388\n      jump\t// in\n    tag_433:\n        /* \"#utility.yul\":4366:4438   */\n      swap2\n      pop\n        /* \"#utility.yul\":4161:4448   */\n      pop\n        /* \"#utility.yul\":3512:4455   */\n      swap3\n      swap6\n      swap2\n      swap5\n      pop\n      swap3\n      pop\n      jump\t// out\n        /* \"#utility.yul\":4461:4929   */\n    tag_112:\n        /* \"#utility.yul\":4526:4532   */\n      0x00\n        /* \"#utility.yul\":4534:4540   */\n      dup1\n        /* \"#utility.yul\":4583:4585   */\n      0x40\n        /* \"#utility.yul\":4571:4580   */\n      dup4\n        /* \"#utility.yul\":4562:4569   */\n      dup6\n        /* \"#utility.yul\":4558:4581   */\n      sub\n        /* \"#utility.yul\":4554:4586   */\n      slt\n        /* \"#utility.yul\":4551:4670   */\n      iszero\n      tag_435\n      jumpi\n        /* \"#utility.yul\":4589:4668   */\n      tag_436\n      tag_411\n      jump\t// in\n    tag_436:\n        /* \"#utility.yul\":4551:4670   */\n    tag_435:\n        /* \"#utility.yul\":4709:4710   */\n      0x00\n        /* \"#utility.yul\":4734:4787   */\n      tag_437\n        /* \"#utility.yul\":4779:4786   */\n      dup6\n        /* \"#utility.yul\":4770:4776   */\n      dup3\n        /* \"#utility.yul\":4759:4768   */\n      dup7\n        /* \"#utility.yul\":4755:4777   */\n      add\n        /* \"#utility.yul\":4734:4787   */\n      tag_373\n      jump\t// in\n    tag_437:\n        /* \"#utility.yul\":4724:4787   */\n      swap3\n      pop\n        /* \"#utility.yul\":4680:4797   */\n      pop\n        /* \"#utility.yul\":4836:4838   */\n      0x20\n        /* \"#utility.yul\":4862:4912   */\n      tag_438\n        /* \"#utility.yul\":4904:4911   */\n      dup6\n        /* \"#utility.yul\":4895:4901   */\n      dup3\n        /* \"#utility.yul\":4884:4893   */\n      dup7\n        /* \"#utility.yul\":4880:4902   */\n      add\n        /* \"#utility.yul\":4862:4912   */\n      tag_377\n      jump\t// in\n    tag_438:\n        /* \"#utility.yul\":4852:4912   */\n      swap2\n      pop\n        /* \"#utility.yul\":4807:4922   */\n      pop\n        /* \"#utility.yul\":4461:4929   */\n      swap3\n      pop\n      swap3\n      swap1\n      pop\n      jump\t// out\n        /* \"#utility.yul\":4935:5409   */\n    tag_50:\n        /* \"#utility.yul\":5003:5009   */\n      0x00\n        /* \"#utility.yul\":5011:5017   */\n      dup1\n        /* \"#utility.yul\":5060:5062   */\n      0x40\n        /* \"#utility.yul\":5048:5057   */\n      dup4\n        /* \"#utility.yul\":5039:5046   */\n      dup6\n        /* \"#utility.yul\":5035:5058   */\n      sub\n        /* \"#utility.yul\":5031:5063   */\n      slt\n        /* \"#utility.yul\":5028:5147   */\n      iszero\n      tag_440\n      jumpi\n        /* \"#utility.yul\":5066:5145   */\n      tag_441\n      tag_411\n      jump\t// in\n    tag_441:\n        /* \"#utility.yul\":5028:5147   */\n    tag_440:\n        /* \"#utility.yul\":5186:5187   */\n      0x00\n        /* \"#utility.yul\":5211:5264   */\n      tag_442\n        /* \"#utility.yul\":5256:5263   */\n      dup6\n        /* \"#utility.yul\":5247:5253   */\n      dup3\n        /* \"#utility.yul\":5236:5245   */\n      dup7\n        /* \"#utility.yul\":5232:5254   */\n      add\n        /* \"#utility.yul\":5211:5264   */\n      tag_373\n      jump\t// in\n    tag_442:\n        /* \"#utility.yul\":5201:5264   */\n      swap3\n      pop\n        /* \"#utility.yul\":5157:5274   */\n      pop\n        /* \"#utility.yul\":5313:5315   */\n      0x20\n        /* \"#utility.yul\":5339:5392   */\n      tag_443\n        /* \"#utility.yul\":5384:5391   */\n      dup6\n        /* \"#utility.yul\":5375:5381   */\n      dup3\n        /* \"#utility.yul\":5364:5373   */\n      dup7\n        /* \"#utility.yul\":5360:5382   */\n      add\n        /* \"#utility.yul\":5339:5392   */\n      tag_404\n      jump\t// in\n    tag_443:\n        /* \"#utility.yul\":5329:5392   */\n      swap2\n      pop\n        /* \"#utility.yul\":5284:5402   */\n      pop\n        /* \"#utility.yul\":4935:5409   */\n      swap3\n      pop\n      swap3\n      swap1\n      pop\n      jump\t// out\n        /* \"#utility.yul\":5415:5738   */\n    tag_136:\n        /* \"#utility.yul\":5471:5477   */\n      0x00\n        /* \"#utility.yul\":5520:5522   */\n      0x20\n        /* \"#utility.yul\":5508:5517   */\n      dup3\n        /* \"#utility.yul\":5499:5506   */\n      dup5\n        /* \"#utility.yul\":5495:5518   */\n      sub\n        /* \"#utility.yul\":5491:5523   */\n      slt\n        /* \"#utility.yul\":5488:5607   */\n      iszero\n      tag_445\n      jumpi\n        /* \"#utility.yul\":5526:5605   */\n      tag_446\n      tag_411\n      jump\t// in\n    tag_446:\n        /* \"#utility.yul\":5488:5607   */\n    tag_445:\n        /* \"#utility.yul\":5646:5647   */\n      0x00\n        /* \"#utility.yul\":5671:5721   */\n      tag_447\n        /* \"#utility.yul\":5713:5720   */\n      dup5\n        /* \"#utility.yul\":5704:5710   */\n      dup3\n        /* \"#utility.yul\":5693:5702   */\n      dup6\n        /* \"#utility.yul\":5689:5711   */\n      add\n        /* \"#utility.yul\":5671:5721   */\n      tag_377\n      jump\t// in\n    tag_447:\n        /* \"#utility.yul\":5661:5721   */\n      swap2\n      pop\n        /* \"#utility.yul\":5617:5731   */\n      pop\n        /* \"#utility.yul\":5415:5738   */\n      swap3\n      swap2\n      pop\n      pop\n      jump\t// out\n        /* \"#utility.yul\":5744:6071   */\n    tag_32:\n        /* \"#utility.yul\":5802:5808   */\n      0x00\n        /* \"#utility.yul\":5851:5853   */\n      0x20\n        /* \"#utility.yul\":5839:5848   */\n      dup3\n        /* \"#utility.yul\":5830:5837   */\n      dup5\n        /* \"#utility.yul\":5826:5849   */\n      sub\n        /* \"#utility.yul\":5822:5854   */\n      slt\n        /* \"#utility.yul\":5819:5938   */\n      iszero\n      tag_449\n      jumpi\n        /* \"#utility.yul\":5857:5936   */\n      tag_450\n      tag_411\n      jump\t// in\n    tag_450:\n        /* \"#utility.yul\":5819:5938   */\n    tag_449:\n        /* \"#utility.yul\":5977:5978   */\n      0x00\n        /* \"#utility.yul\":6002:6054   */\n      tag_451\n        /* \"#utility.yul\":6046:6053   */\n      dup5\n        /* \"#utility.yul\":6037:6043   */\n      dup3\n        /* \"#utility.yul\":6026:6035   */\n      dup6\n        /* \"#utility.yul\":6022:6044   */\n      add\n        /* \"#utility.yul\":6002:6054   */\n      tag_381\n      jump\t// in\n    tag_451:\n        /* \"#utility.yul\":5992:6054   */\n      swap2\n      pop\n        /* \"#utility.yul\":5948:6064   */\n      pop\n        /* \"#utility.yul\":5744:6071   */\n      swap3\n      swap2\n      pop\n      pop\n      jump\t// out\n        /* \"#utility.yul\":6077:6426   */\n    tag_327:\n        /* \"#utility.yul\":6146:6152   */\n      0x00\n        /* \"#utility.yul\":6195:6197   */\n      0x20\n        /* \"#utility.yul\":6183:6192   */\n      dup3\n        /* \"#utility.yul\":6174:6181   */\n      dup5\n        /* \"#utility.yul\":6170:6193   */\n      sub\n        /* \"#utility.yul\":6166:6198   */\n      slt\n        /* \"#utility.yul\":6163:6282   */\n      iszero\n      tag_453\n      jumpi\n        /* \"#utility.yul\":6201:6280   */\n      tag_454\n      tag_411\n      jump\t// in\n    tag_454:\n        /* \"#utility.yul\":6163:6282   */\n    tag_453:\n        /* \"#utility.yul\":6321:6322   */\n      0x00\n        /* \"#utility.yul\":6346:6409   */\n      tag_455\n        /* \"#utility.yul\":6401:6408   */\n      dup5\n        /* \"#utility.yul\":6392:6398   */\n      dup3\n        /* \"#utility.yul\":6381:6390   */\n      dup6\n        /* \"#utility.yul\":6377:6399   */\n      add\n        /* \"#utility.yul\":6346:6409   */\n      tag_385\n      jump\t// in\n    tag_455:\n        /* \"#utility.yul\":6336:6409   */\n      swap2\n      pop\n        /* \"#utility.yul\":6292:6419   */\n      pop\n        /* \"#utility.yul\":6077:6426   */\n      swap3\n      swap2\n      pop\n      pop\n      jump\t// out\n        /* \"#utility.yul\":6432:6961   */\n    tag_77:\n        /* \"#utility.yul\":6503:6509   */\n      0x00\n        /* \"#utility.yul\":6511:6517   */\n      dup1\n        /* \"#utility.yul\":6560:6562   */\n      0x20\n        /* \"#utility.yul\":6548:6557   */\n      dup4\n        /* \"#utility.yul\":6539:6546   */\n      dup6\n        /* \"#utility.yul\":6535:6558   */\n      sub\n        /* \"#utility.yul\":6531:6563   */\n      slt\n        /* \"#utility.yul\":6528:6647   */\n      iszero\n      tag_457\n      jumpi\n        /* \"#utility.yul\":6566:6645   */\n      tag_458\n      tag_411\n      jump\t// in\n    tag_458:\n        /* \"#utility.yul\":6528:6647   */\n    tag_457:\n        /* \"#utility.yul\":6714:6715   */\n      0x00\n        /* \"#utility.yul\":6703:6712   */\n      dup4\n        /* \"#utility.yul\":6699:6716   */\n      add\n        /* \"#utility.yul\":6686:6717   */\n      calldataload\n        /* \"#utility.yul\":6744:6762   */\n      0xffffffffffffffff\n        /* \"#utility.yul\":6736:6742   */\n      dup2\n        /* \"#utility.yul\":6733:6763   */\n      gt\n        /* \"#utility.yul\":6730:6847   */\n      iszero\n      tag_459\n      jumpi\n        /* \"#utility.yul\":6766:6845   */\n      tag_460\n      tag_432\n      jump\t// in\n    tag_460:\n        /* \"#utility.yul\":6730:6847   */\n    tag_459:\n        /* \"#utility.yul\":6879:6944   */\n      tag_461\n        /* \"#utility.yul\":6936:6943   */\n      dup6\n        /* \"#utility.yul\":6927:6933   */\n      dup3\n        /* \"#utility.yul\":6916:6925   */\n      dup7\n        /* \"#utility.yul\":6912:6934   */\n      add\n        /* \"#utility.yul\":6879:6944   */\n      tag_394\n      jump\t// in\n    tag_461:\n        /* \"#utility.yul\":6861:6944   */\n      swap3\n      pop\n      swap3\n      pop\n        /* \"#utility.yul\":6657:6954   */\n      pop\n        /* \"#utility.yul\":6432:6961   */\n      swap3\n      pop\n      swap3\n      swap1\n      pop\n      jump\t// out\n        /* \"#utility.yul\":6967:7296   */\n    tag_44:\n        /* \"#utility.yul\":7026:7032   */\n      0x00\n        /* \"#utility.yul\":7075:7077   */\n      0x20\n        /* \"#utility.yul\":7063:7072   */\n      dup3\n        /* \"#utility.yul\":7054:7061   */\n      dup5\n        /* \"#utility.yul\":7050:7073   */\n      sub\n        /* \"#utility.yul\":7046:7078   */\n      slt\n        /* \"#utility.yul\":7043:7162   */\n      iszero\n      tag_463\n      jumpi\n        /* \"#utility.yul\":7081:7160   */\n      tag_464\n      tag_411\n      jump\t// in\n    tag_464:\n        /* \"#utility.yul\":7043:7162   */\n    tag_463:\n        /* \"#utility.yul\":7201:7202   */\n      0x00\n        /* \"#utility.yul\":7226:7279   */\n      tag_465\n        /* \"#utility.yul\":7271:7278   */\n      dup5\n        /* \"#utility.yul\":7262:7268   */\n      dup3\n        /* \"#utility.yul\":7251:7260   */\n      dup6\n        /* \"#utility.yul\":7247:7269   */\n      add\n        /* \"#utility.yul\":7226:7279   */\n      tag_404\n      jump\t// in\n    tag_465:\n        /* \"#utility.yul\":7216:7279   */\n      swap2\n      pop\n        /* \"#utility.yul\":7172:7289   */\n      pop\n        /* \"#utility.yul\":6967:7296   */\n      swap3\n      swap2\n      pop\n      pop\n      jump\t// out\n        /* \"#utility.yul\":7302:7420   */\n    tag_466:\n        /* \"#utility.yul\":7389:7413   */\n      tag_468\n        /* \"#utility.yul\":7407:7412   */\n      dup2\n        /* \"#utility.yul\":7389:7413   */\n      tag_469\n      jump\t// in\n    tag_468:\n        /* \"#utility.yul\":7384:7387   */\n      dup3\n        /* \"#utility.yul\":7377:7414   */\n      mstore\n        /* \"#utility.yul\":7302:7420   */\n      pop\n      pop\n      jump\t// out\n        /* \"#utility.yul\":7426:7535   */\n    tag_470:\n        /* \"#utility.yul\":7507:7528   */\n      tag_472\n        /* \"#utility.yul\":7522:7527   */\n      dup2\n        /* \"#utility.yul\":7507:7528   */\n      tag_473\n      jump\t// in\n    tag_472:\n        /* \"#utility.yul\":7502:7505   */\n      dup3\n        /* \"#utility.yul\":7495:7529   */\n      mstore\n        /* \"#utility.yul\":7426:7535   */\n      pop\n      pop\n      jump\t// out\n        /* \"#utility.yul\":7541:7901   */\n    tag_474:\n        /* \"#utility.yul\":7627:7630   */\n      0x00\n        /* \"#utility.yul\":7655:7693   */\n      tag_476\n        /* \"#utility.yul\":7687:7692   */\n      dup3\n        /* \"#utility.yul\":7655:7693   */\n      tag_477\n      jump\t// in\n    tag_476:\n        /* \"#utility.yul\":7709:7779   */\n      tag_478\n        /* \"#utility.yul\":7772:7778   */\n      dup2\n        /* \"#utility.yul\":7767:7770   */\n      dup6\n        /* \"#utility.yul\":7709:7779   */\n      tag_479\n      jump\t// in\n    tag_478:\n        /* \"#utility.yul\":7702:7779   */\n      swap4\n      pop\n        /* \"#utility.yul\":7788:7840   */\n      tag_480\n        /* \"#utility.yul\":7833:7839   */\n      dup2\n        /* \"#utility.yul\":7828:7831   */\n      dup6\n        /* \"#utility.yul\":7821:7825   */\n      0x20\n        /* \"#utility.yul\":7814:7819   */\n      dup7\n        /* \"#utility.yul\":7810:7826   */\n      add\n        /* \"#utility.yul\":7788:7840   */\n      tag_481\n      jump\t// in\n    tag_480:\n        /* \"#utility.yul\":7865:7894   */\n      tag_482\n        /* \"#utility.yul\":7887:7893   */\n      dup2\n        /* \"#utility.yul\":7865:7894   */\n      tag_483\n      jump\t// in\n    tag_482:\n        /* \"#utility.yul\":7860:7863   */\n      dup5\n        /* \"#utility.yul\":7856:7895   */\n      add\n        /* \"#utility.yul\":7849:7895   */\n      swap2\n      pop\n        /* \"#utility.yul\":7631:7901   */\n      pop\n        /* \"#utility.yul\":7541:7901   */\n      swap3\n      swap2\n      pop\n      pop\n      jump\t// out\n        /* \"#utility.yul\":7907:8271   */\n    tag_484:\n        /* \"#utility.yul\":7995:7998   */\n      0x00\n        /* \"#utility.yul\":8023:8062   */\n      tag_486\n        /* \"#utility.yul\":8056:8061   */\n      dup3\n        /* \"#utility.yul\":8023:8062   */\n      tag_487\n      jump\t// in\n    tag_486:\n        /* \"#utility.yul\":8078:8149   */\n      tag_488\n        /* \"#utility.yul\":8142:8148   */\n      dup2\n        /* \"#utility.yul\":8137:8140   */\n      dup6\n        /* \"#utility.yul\":8078:8149   */\n      tag_489\n      jump\t// in\n    tag_488:\n        /* \"#utility.yul\":8071:8149   */\n      swap4\n      pop\n        /* \"#utility.yul\":8158:8210   */\n      tag_490\n        /* \"#utility.yul\":8203:8209   */\n      dup2\n        /* \"#utility.yul\":8198:8201   */\n      dup6\n        /* \"#utility.yul\":8191:8195   */\n      0x20\n        /* \"#utility.yul\":8184:8189   */\n      dup7\n        /* \"#utility.yul\":8180:8196   */\n      add\n        /* \"#utility.yul\":8158:8210   */\n      tag_481\n      jump\t// in\n    tag_490:\n        /* \"#utility.yul\":8235:8264   */\n      tag_491\n        /* \"#utility.yul\":8257:8263   */\n      dup2\n        /* \"#utility.yul\":8235:8264   */\n      tag_483\n      jump\t// in\n    tag_491:\n        /* \"#utility.yul\":8230:8233   */\n      dup5\n        /* \"#utility.yul\":8226:8265   */\n      add\n        /* \"#utility.yul\":8219:8265   */\n      swap2\n      pop\n        /* \"#utility.yul\":7999:8271   */\n      pop\n        /* \"#utility.yul\":7907:8271   */\n      swap3\n      swap2\n      pop\n      pop\n      jump\t// out\n        /* \"#utility.yul\":8277:8654   */\n    tag_492:\n        /* \"#utility.yul\":8383:8386   */\n      0x00\n        /* \"#utility.yul\":8411:8450   */\n      tag_494\n        /* \"#utility.yul\":8444:8449   */\n      dup3\n        /* \"#utility.yul\":8411:8450   */\n      tag_487\n      jump\t// in\n    tag_494:\n        /* \"#utility.yul\":8466:8555   */\n      tag_495\n        /* \"#utility.yul\":8548:8554   */\n      dup2\n        /* \"#utility.yul\":8543:8546   */\n      dup6\n        /* \"#utility.yul\":8466:8555   */\n      tag_496\n      jump\t// in\n    tag_495:\n        /* \"#utility.yul\":8459:8555   */\n      swap4\n      pop\n        /* \"#utility.yul\":8564:8616   */\n      tag_497\n        /* \"#utility.yul\":8609:8615   */\n      dup2\n        /* \"#utility.yul\":8604:8607   */\n      dup6\n        /* \"#utility.yul\":8597:8601   */\n      0x20\n        /* \"#utility.yul\":8590:8595   */\n      dup7\n        /* \"#utility.yul\":8586:8602   */\n      add\n        /* \"#utility.yul\":8564:8616   */\n      tag_481\n      jump\t// in\n    tag_497:\n        /* \"#utility.yul\":8641:8647   */\n      dup1\n        /* \"#utility.yul\":8636:8639   */\n      dup5\n        /* \"#utility.yul\":8632:8648   */\n      add\n        /* \"#utility.yul\":8625:8648   */\n      swap2\n      pop\n        /* \"#utility.yul\":8387:8654   */\n      pop\n        /* \"#utility.yul\":8277:8654   */\n      swap3\n      swap2\n      pop\n      pop\n      jump\t// out\n        /* \"#utility.yul\":8660:9026   */\n    tag_498:\n        /* \"#utility.yul\":8802:8805   */\n      0x00\n        /* \"#utility.yul\":8823:8890   */\n      tag_500\n        /* \"#utility.yul\":8887:8889   */\n      0x26\n        /* \"#utility.yul\":8882:8885   */\n      dup4\n        /* \"#utility.yul\":8823:8890   */\n      tag_489\n      jump\t// in\n    tag_500:\n        /* \"#utility.yul\":8816:8890   */\n      swap2\n      pop\n        /* \"#utility.yul\":8899:8992   */\n      tag_501\n        /* \"#utility.yul\":8988:8991   */\n      dup3\n        /* \"#utility.yul\":8899:8992   */\n      tag_502\n      jump\t// in\n    tag_501:\n        /* \"#utility.yul\":9017:9019   */\n      0x40\n        /* \"#utility.yul\":9012:9015   */\n      dup3\n        /* \"#utility.yul\":9008:9020   */\n      add\n        /* \"#utility.yul\":9001:9020   */\n      swap1\n      pop\n        /* \"#utility.yul\":8660:9026   */\n      swap2\n      swap1\n      pop\n      jump\t// out\n        /* \"#utility.yul\":9032:9398   */\n    tag_503:\n        /* \"#utility.yul\":9174:9177   */\n      0x00\n        /* \"#utility.yul\":9195:9262   */\n      tag_505\n        /* \"#utility.yul\":9259:9261   */\n      0x12\n        /* \"#utility.yul\":9254:9257   */\n      dup4\n        /* \"#utility.yul\":9195:9262   */\n      tag_489\n      jump\t// in\n    tag_505:\n        /* \"#utility.yul\":9188:9262   */\n      swap2\n      pop\n        /* \"#utility.yul\":9271:9364   */\n      tag_506\n        /* \"#utility.yul\":9360:9363   */\n      dup3\n        /* \"#utility.yul\":9271:9364   */\n      tag_507\n      jump\t// in\n    tag_506:\n        /* \"#utility.yul\":9389:9391   */\n      0x20\n        /* \"#utility.yul\":9384:9387   */\n      dup3\n        /* \"#utility.yul\":9380:9392   */\n      add\n        /* \"#utility.yul\":9373:9392   */\n      swap1\n      pop\n        /* \"#utility.yul\":9032:9398   */\n      swap2\n      swap1\n      pop\n      jump\t// out\n        /* \"#utility.yul\":9404:9770   */\n    tag_508:\n        /* \"#utility.yul\":9546:9549   */\n      0x00\n        /* \"#utility.yul\":9567:9634   */\n      tag_510\n        /* \"#utility.yul\":9631:9633   */\n      0x10\n        /* \"#utility.yul\":9626:9629   */\n      dup4\n        /* \"#utility.yul\":9567:9634   */\n      tag_489\n      jump\t// in\n    tag_510:\n        /* \"#utility.yul\":9560:9634   */\n      swap2\n      pop\n        /* \"#utility.yul\":9643:9736   */\n      tag_511\n        /* \"#utility.yul\":9732:9735   */\n      dup3\n        /* \"#utility.yul\":9643:9736   */\n      tag_512\n      jump\t// in\n    tag_511:\n        /* \"#utility.yul\":9761:9763   */\n      0x20\n        /* \"#utility.yul\":9756:9759   */\n      dup3\n        /* \"#utility.yul\":9752:9764   */\n      add\n        /* \"#utility.yul\":9745:9764   */\n      swap1\n      pop\n        /* \"#utility.yul\":9404:9770   */\n      swap2\n      swap1\n      pop\n      jump\t// out\n        /* \"#utility.yul\":9776:10142   */\n    tag_513:\n        /* \"#utility.yul\":9918:9921   */\n      0x00\n        /* \"#utility.yul\":9939:10006   */\n      tag_515\n        /* \"#utility.yul\":10003:10005   */\n      0x20\n        /* \"#utility.yul\":9998:10001   */\n      dup4\n        /* \"#utility.yul\":9939:10006   */\n      tag_489\n      jump\t// in\n    tag_515:\n        /* \"#utility.yul\":9932:10006   */\n      swap2\n      pop\n        /* \"#utility.yul\":10015:10108   */\n      tag_516\n        /* \"#utility.yul\":10104:10107   */\n      dup3\n        /* \"#utility.yul\":10015:10108   */\n      tag_517\n      jump\t// in\n    tag_516:\n        /* \"#utility.yul\":10133:10135   */\n      0x20\n        /* \"#utility.yul\":10128:10131   */\n      dup3\n        /* \"#utility.yul\":10124:10136   */\n      add\n        /* \"#utility.yul\":10117:10136   */\n      swap1\n      pop\n        /* \"#utility.yul\":9776:10142   */\n      swap2\n      swap1\n      pop\n      jump\t// out\n        /* \"#utility.yul\":10148:10514   */\n    tag_518:\n        /* \"#utility.yul\":10290:10293   */\n      0x00\n        /* \"#utility.yul\":10311:10378   */\n      tag_520\n        /* \"#utility.yul\":10375:10377   */\n      0x0e\n        /* \"#utility.yul\":10370:10373   */\n      dup4\n        /* \"#utility.yul\":10311:10378   */\n      tag_489\n      jump\t// in\n    tag_520:\n        /* \"#utility.yul\":10304:10378   */\n      swap2\n      pop\n        /* \"#utility.yul\":10387:10480   */\n      tag_521\n        /* \"#utility.yul\":10476:10479   */\n      dup3\n        /* \"#utility.yul\":10387:10480   */\n      tag_522\n      jump\t// in\n    tag_521:\n        /* \"#utility.yul\":10505:10507   */\n      0x20\n        /* \"#utility.yul\":10500:10503   */\n      dup3\n        /* \"#utility.yul\":10496:10508   */\n      add\n        /* \"#utility.yul\":10489:10508   */\n      swap1\n      pop\n        /* \"#utility.yul\":10148:10514   */\n      swap2\n      swap1\n      pop\n      jump\t// out\n        /* \"#utility.yul\":10520:10886   */\n    tag_523:\n        /* \"#utility.yul\":10662:10665   */\n      0x00\n        /* \"#utility.yul\":10683:10750   */\n      tag_525\n        /* \"#utility.yul\":10747:10749   */\n      0x0f\n        /* \"#utility.yul\":10742:10745   */\n      dup4\n        /* \"#utility.yul\":10683:10750   */\n      tag_489\n      jump\t// in\n    tag_525:\n        /* \"#utility.yul\":10676:10750   */\n      swap2\n      pop\n        /* \"#utility.yul\":10759:10852   */\n      tag_526\n        /* \"#utility.yul\":10848:10851   */\n      dup3\n        /* \"#utility.yul\":10759:10852   */\n      tag_527\n      jump\t// in\n    tag_526:\n        /* \"#utility.yul\":10877:10879   */\n      0x20\n        /* \"#utility.yul\":10872:10875   */\n      dup3\n        /* \"#utility.yul\":10868:10880   */\n      add\n        /* \"#utility.yul\":10861:10880   */\n      swap1\n      pop\n        /* \"#utility.yul\":10520:10886   */\n      swap2\n      swap1\n      pop\n      jump\t// out\n        /* \"#utility.yul\":10892:11290   */\n    tag_528:\n        /* \"#utility.yul\":11051:11054   */\n      0x00\n        /* \"#utility.yul\":11072:11155   */\n      tag_530\n        /* \"#utility.yul\":11153:11154   */\n      0x00\n        /* \"#utility.yul\":11148:11151   */\n      dup4\n        /* \"#utility.yul\":11072:11155   */\n      tag_531\n      jump\t// in\n    tag_530:\n        /* \"#utility.yul\":11065:11155   */\n      swap2\n      pop\n        /* \"#utility.yul\":11164:11257   */\n      tag_532\n        /* \"#utility.yul\":11253:11256   */\n      dup3\n        /* \"#utility.yul\":11164:11257   */\n      tag_533\n      jump\t// in\n    tag_532:\n        /* \"#utility.yul\":11282:11283   */\n      0x00\n        /* \"#utility.yul\":11277:11280   */\n      dup3\n        /* \"#utility.yul\":11273:11284   */\n      add\n        /* \"#utility.yul\":11266:11284   */\n      swap1\n      pop\n        /* \"#utility.yul\":10892:11290   */\n      swap2\n      swap1\n      pop\n      jump\t// out\n        /* \"#utility.yul\":11296:11662   */\n    tag_534:\n        /* \"#utility.yul\":11438:11441   */\n      0x00\n        /* \"#utility.yul\":11459:11526   */\n      tag_536\n        /* \"#utility.yul\":11523:11525   */\n      0x0e\n        /* \"#utility.yul\":11518:11521   */\n      dup4\n        /* \"#utility.yul\":11459:11526   */\n      tag_489\n      jump\t// in\n    tag_536:\n        /* \"#utility.yul\":11452:11526   */\n      swap2\n      pop\n        /* \"#utility.yul\":11535:11628   */\n      tag_537\n        /* \"#utility.yul\":11624:11627   */\n      dup3\n        /* \"#utility.yul\":11535:11628   */\n      tag_538\n      jump\t// in\n    tag_537:\n        /* \"#utility.yul\":11653:11655   */\n      0x20\n        /* \"#utility.yul\":11648:11651   */\n      dup3\n        /* \"#utility.yul\":11644:11656   */\n      add\n        /* \"#utility.yul\":11637:11656   */\n      swap1\n      pop\n        /* \"#utility.yul\":11296:11662   */\n      swap2\n      swap1\n      pop\n      jump\t// out\n        /* \"#utility.yul\":11668:11786   */\n    tag_539:\n        /* \"#utility.yul\":11755:11779   */\n      tag_541\n        /* \"#utility.yul\":11773:11778   */\n      dup2\n        /* \"#utility.yul\":11755:11779   */\n      tag_542\n      jump\t// in\n    tag_541:\n        /* \"#utility.yul\":11750:11753   */\n      dup3\n        /* \"#utility.yul\":11743:11780   */\n      mstore\n        /* \"#utility.yul\":11668:11786   */\n      pop\n      pop\n      jump\t// out\n        /* \"#utility.yul\":11792:12227   */\n    tag_262:\n        /* \"#utility.yul\":11972:11975   */\n      0x00\n        /* \"#utility.yul\":11994:12089   */\n      tag_544\n        /* \"#utility.yul\":12085:12088   */\n      dup3\n        /* \"#utility.yul\":12076:12082   */\n      dup6\n        /* \"#utility.yul\":11994:12089   */\n      tag_492\n      jump\t// in\n    tag_544:\n        /* \"#utility.yul\":11987:12089   */\n      swap2\n      pop\n        /* \"#utility.yul\":12106:12201   */\n      tag_545\n        /* \"#utility.yul\":12197:12200   */\n      dup3\n        /* \"#utility.yul\":12188:12194   */\n      dup5\n        /* \"#utility.yul\":12106:12201   */\n      tag_492\n      jump\t// in\n    tag_545:\n        /* \"#utility.yul\":12099:12201   */\n      swap2\n      pop\n        /* \"#utility.yul\":12218:12221   */\n      dup2\n        /* \"#utility.yul\":12211:12221   */\n      swap1\n      pop\n        /* \"#utility.yul\":11792:12227   */\n      swap4\n      swap3\n      pop\n      pop\n      pop\n      jump\t// out\n        /* \"#utility.yul\":12233:12612   */\n    tag_194:\n        /* \"#utility.yul\":12417:12420   */\n      0x00\n        /* \"#utility.yul\":12439:12586   */\n      tag_547\n        /* \"#utility.yul\":12582:12585   */\n      dup3\n        /* \"#utility.yul\":12439:12586   */\n      tag_528\n      jump\t// in\n    tag_547:\n        /* \"#utility.yul\":12432:12586   */\n      swap2\n      pop\n        /* \"#utility.yul\":12603:12606   */\n      dup2\n        /* \"#utility.yul\":12596:12606   */\n      swap1\n      pop\n        /* \"#utility.yul\":12233:12612   */\n      swap2\n      swap1\n      pop\n      jump\t// out\n        /* \"#utility.yul\":12618:12840   */\n    tag_47:\n        /* \"#utility.yul\":12711:12715   */\n      0x00\n        /* \"#utility.yul\":12749:12751   */\n      0x20\n        /* \"#utility.yul\":12738:12747   */\n      dup3\n        /* \"#utility.yul\":12734:12752   */\n      add\n        /* \"#utility.yul\":12726:12752   */\n      swap1\n      pop\n        /* \"#utility.yul\":12762:12833   */\n      tag_549\n        /* \"#utility.yul\":12830:12831   */\n      0x00\n        /* \"#utility.yul\":12819:12828   */\n      dup4\n        /* \"#utility.yul\":12815:12832   */\n      add\n        /* \"#utility.yul\":12806:12812   */\n      dup5\n        /* \"#utility.yul\":12762:12833   */\n      tag_466\n      jump\t// in\n    tag_549:\n        /* \"#utility.yul\":12618:12840   */\n      swap3\n      swap2\n      pop\n      pop\n      jump\t// out\n        /* \"#utility.yul\":12846:13486   */\n    tag_323:\n        /* \"#utility.yul\":13041:13045   */\n      0x00\n        /* \"#utility.yul\":13079:13082   */\n      0x80\n        /* \"#utility.yul\":13068:13077   */\n      dup3\n        /* \"#utility.yul\":13064:13083   */\n      add\n        /* \"#utility.yul\":13056:13083   */\n      swap1\n      pop\n        /* \"#utility.yul\":13093:13164   */\n      tag_551\n        /* \"#utility.yul\":13161:13162   */\n      0x00\n        /* \"#utility.yul\":13150:13159   */\n      dup4\n        /* \"#utility.yul\":13146:13163   */\n      add\n        /* \"#utility.yul\":13137:13143   */\n      dup8\n        /* \"#utility.yul\":13093:13164   */\n      tag_466\n      jump\t// in\n    tag_551:\n        /* \"#utility.yul\":13174:13246   */\n      tag_552\n        /* \"#utility.yul\":13242:13244   */\n      0x20\n        /* \"#utility.yul\":13231:13240   */\n      dup4\n        /* \"#utility.yul\":13227:13245   */\n      add\n        /* \"#utility.yul\":13218:13224   */\n      dup7\n        /* \"#utility.yul\":13174:13246   */\n      tag_466\n      jump\t// in\n    tag_552:\n        /* \"#utility.yul\":13256:13328   */\n      tag_553\n        /* \"#utility.yul\":13324:13326   */\n      0x40\n        /* \"#utility.yul\":13313:13322   */\n      dup4\n        /* \"#utility.yul\":13309:13327   */\n      add\n        /* \"#utility.yul\":13300:13306   */\n      dup6\n        /* \"#utility.yul\":13256:13328   */\n      tag_539\n      jump\t// in\n    tag_553:\n        /* \"#utility.yul\":13375:13384   */\n      dup2\n        /* \"#utility.yul\":13369:13373   */\n      dup2\n        /* \"#utility.yul\":13365:13385   */\n      sub\n        /* \"#utility.yul\":13360:13362   */\n      0x60\n        /* \"#utility.yul\":13349:13358   */\n      dup4\n        /* \"#utility.yul\":13345:13363   */\n      add\n        /* \"#utility.yul\":13338:13386   */\n      mstore\n        /* \"#utility.yul\":13403:13479   */\n      tag_554\n        /* \"#utility.yul\":13474:13478   */\n      dup2\n        /* \"#utility.yul\":13465:13471   */\n      dup5\n        /* \"#utility.yul\":13403:13479   */\n      tag_474\n      jump\t// in\n    tag_554:\n        /* \"#utility.yul\":13395:13479   */\n      swap1\n      pop\n        /* \"#utility.yul\":12846:13486   */\n      swap6\n      swap5\n      pop\n      pop\n      pop\n      pop\n      pop\n      jump\t// out\n        /* \"#utility.yul\":13492:13702   */\n    tag_35:\n        /* \"#utility.yul\":13579:13583   */\n      0x00\n        /* \"#utility.yul\":13617:13619   */\n      0x20\n        /* \"#utility.yul\":13606:13615   */\n      dup3\n        /* \"#utility.yul\":13602:13620   */\n      add\n        /* \"#utility.yul\":13594:13620   */\n      swap1\n      pop\n        /* \"#utility.yul\":13630:13695   */\n      tag_556\n        /* \"#utility.yul\":13692:13693   */\n      0x00\n        /* \"#utility.yul\":13681:13690   */\n      dup4\n        /* \"#utility.yul\":13677:13694   */\n      add\n        /* \"#utility.yul\":13668:13674   */\n      dup5\n        /* \"#utility.yul\":13630:13695   */\n      tag_470\n      jump\t// in\n    tag_556:\n        /* \"#utility.yul\":13492:13702   */\n      swap3\n      swap2\n      pop\n      pop\n      jump\t// out\n        /* \"#utility.yul\":13708:14021   */\n    tag_40:\n        /* \"#utility.yul\":13821:13825   */\n      0x00\n        /* \"#utility.yul\":13859:13861   */\n      0x20\n        /* \"#utility.yul\":13848:13857   */\n      dup3\n        /* \"#utility.yul\":13844:13862   */\n      add\n        /* \"#utility.yul\":13836:13862   */\n      swap1\n      pop\n        /* \"#utility.yul\":13908:13917   */\n      dup2\n        /* \"#utility.yul\":13902:13906   */\n      dup2\n        /* \"#utility.yul\":13898:13918   */\n      sub\n        /* \"#utility.yul\":13894:13895   */\n      0x00\n        /* \"#utility.yul\":13883:13892   */\n      dup4\n        /* \"#utility.yul\":13879:13896   */\n      add\n        /* \"#utility.yul\":13872:13919   */\n      mstore\n        /* \"#utility.yul\":13936:14014   */\n      tag_558\n        /* \"#utility.yul\":14009:14013   */\n      dup2\n        /* \"#utility.yul\":14000:14006   */\n      dup5\n        /* \"#utility.yul\":13936:14014   */\n      tag_484\n      jump\t// in\n    tag_558:\n        /* \"#utility.yul\":13928:14014   */\n      swap1\n      pop\n        /* \"#utility.yul\":13708:14021   */\n      swap3\n      swap2\n      pop\n      pop\n      jump\t// out\n        /* \"#utility.yul\":14027:14446   */\n    tag_269:\n        /* \"#utility.yul\":14193:14197   */\n      0x00\n        /* \"#utility.yul\":14231:14233   */\n      0x20\n        /* \"#utility.yul\":14220:14229   */\n      dup3\n        /* \"#utility.yul\":14216:14234   */\n      add\n        /* \"#utility.yul\":14208:14234   */\n      swap1\n      pop\n        /* \"#utility.yul\":14280:14289   */\n      dup2\n        /* \"#utility.yul\":14274:14278   */\n      dup2\n        /* \"#utility.yul\":14270:14290   */\n      sub\n        /* \"#utility.yul\":14266:14267   */\n      0x00\n        /* \"#utility.yul\":14255:14264   */\n      dup4\n        /* \"#utility.yul\":14251:14268   */\n      add\n        /* \"#utility.yul\":14244:14291   */\n      mstore\n        /* \"#utility.yul\":14308:14439   */\n      tag_560\n        /* \"#utility.yul\":14434:14438   */\n      dup2\n        /* \"#utility.yul\":14308:14439   */\n      tag_498\n      jump\t// in\n    tag_560:\n        /* \"#utility.yul\":14300:14439   */\n      swap1\n      pop\n        /* \"#utility.yul\":14027:14446   */\n      swap2\n      swap1\n      pop\n      jump\t// out\n        /* \"#utility.yul\":14452:14871   */\n    tag_216:\n        /* \"#utility.yul\":14618:14622   */\n      0x00\n        /* \"#utility.yul\":14656:14658   */\n      0x20\n        /* \"#utility.yul\":14645:14654   */\n      dup3\n        /* \"#utility.yul\":14641:14659   */\n      add\n        /* \"#utility.yul\":14633:14659   */\n      swap1\n      pop\n        /* \"#utility.yul\":14705:14714   */\n      dup2\n        /* \"#utility.yul\":14699:14703   */\n      dup2\n        /* \"#utility.yul\":14695:14715   */\n      sub\n        /* \"#utility.yul\":14691:14692   */\n      0x00\n        /* \"#utility.yul\":14680:14689   */\n      dup4\n        /* \"#utility.yul\":14676:14693   */\n      add\n        /* \"#utility.yul\":14669:14716   */\n      mstore\n        /* \"#utility.yul\":14733:14864   */\n      tag_562\n        /* \"#utility.yul\":14859:14863   */\n      dup2\n        /* \"#utility.yul\":14733:14864   */\n      tag_503\n      jump\t// in\n    tag_562:\n        /* \"#utility.yul\":14725:14864   */\n      swap1\n      pop\n        /* \"#utility.yul\":14452:14871   */\n      swap2\n      swap1\n      pop\n      jump\t// out\n        /* \"#utility.yul\":14877:15296   */\n    tag_276:\n        /* \"#utility.yul\":15043:15047   */\n      0x00\n        /* \"#utility.yul\":15081:15083   */\n      0x20\n        /* \"#utility.yul\":15070:15079   */\n      dup3\n        /* \"#utility.yul\":15066:15084   */\n      add\n        /* \"#utility.yul\":15058:15084   */\n      swap1\n      pop\n        /* \"#utility.yul\":15130:15139   */\n      dup2\n        /* \"#utility.yul\":15124:15128   */\n      dup2\n        /* \"#utility.yul\":15120:15140   */\n      sub\n        /* \"#utility.yul\":15116:15117   */\n      0x00\n        /* \"#utility.yul\":15105:15114   */\n      dup4\n        /* \"#utility.yul\":15101:15118   */\n      add\n        /* \"#utility.yul\":15094:15141   */\n      mstore\n        /* \"#utility.yul\":15158:15289   */\n      tag_564\n        /* \"#utility.yul\":15284:15288   */\n      dup2\n        /* \"#utility.yul\":15158:15289   */\n      tag_508\n      jump\t// in\n    tag_564:\n        /* \"#utility.yul\":15150:15289   */\n      swap1\n      pop\n        /* \"#utility.yul\":14877:15296   */\n      swap2\n      swap1\n      pop\n      jump\t// out\n        /* \"#utility.yul\":15302:15721   */\n    tag_304:\n        /* \"#utility.yul\":15468:15472   */\n      0x00\n        /* \"#utility.yul\":15506:15508   */\n      0x20\n        /* \"#utility.yul\":15495:15504   */\n      dup3\n        /* \"#utility.yul\":15491:15509   */\n      add\n        /* \"#utility.yul\":15483:15509   */\n      swap1\n      pop\n        /* \"#utility.yul\":15555:15564   */\n      dup2\n        /* \"#utility.yul\":15549:15553   */\n      dup2\n        /* \"#utility.yul\":15545:15565   */\n      sub\n        /* \"#utility.yul\":15541:15542   */\n      0x00\n        /* \"#utility.yul\":15530:15539   */\n      dup4\n        /* \"#utility.yul\":15526:15543   */\n      add\n        /* \"#utility.yul\":15519:15566   */\n      mstore\n        /* \"#utility.yul\":15583:15714   */\n      tag_566\n        /* \"#utility.yul\":15709:15713   */\n      dup2\n        /* \"#utility.yul\":15583:15714   */\n      tag_513\n      jump\t// in\n    tag_566:\n        /* \"#utility.yul\":15575:15714   */\n      swap1\n      pop\n        /* \"#utility.yul\":15302:15721   */\n      swap2\n      swap1\n      pop\n      jump\t// out\n        /* \"#utility.yul\":15727:16146   */\n    tag_211:\n        /* \"#utility.yul\":15893:15897   */\n      0x00\n        /* \"#utility.yul\":15931:15933   */\n      0x20\n        /* \"#utility.yul\":15920:15929   */\n      dup3\n        /* \"#utility.yul\":15916:15934   */\n      add\n        /* \"#utility.yul\":15908:15934   */\n      swap1\n      pop\n        /* \"#utility.yul\":15980:15989   */\n      dup2\n        /* \"#utility.yul\":15974:15978   */\n      dup2\n        /* \"#utility.yul\":15970:15990   */\n      sub\n        /* \"#utility.yul\":15966:15967   */\n      0x00\n        /* \"#utility.yul\":15955:15964   */\n      dup4\n        /* \"#utility.yul\":15951:15968   */\n      add\n        /* \"#utility.yul\":15944:15991   */\n      mstore\n        /* \"#utility.yul\":16008:16139   */\n      tag_568\n        /* \"#utility.yul\":16134:16138   */\n      dup2\n        /* \"#utility.yul\":16008:16139   */\n      tag_518\n      jump\t// in\n    tag_568:\n        /* \"#utility.yul\":16000:16139   */\n      swap1\n      pop\n        /* \"#utility.yul\":15727:16146   */\n      swap2\n      swap1\n      pop\n      jump\t// out\n        /* \"#utility.yul\":16152:16571   */\n    tag_200:\n        /* \"#utility.yul\":16318:16322   */\n      0x00\n        /* \"#utility.yul\":16356:16358   */\n      0x20\n        /* \"#utility.yul\":16345:16354   */\n      dup3\n        /* \"#utility.yul\":16341:16359   */\n      add\n        /* \"#utility.yul\":16333:16359   */\n      swap1\n      pop\n        /* \"#utility.yul\":16405:16414   */\n      dup2\n        /* \"#utility.yul\":16399:16403   */\n      dup2\n        /* \"#utility.yul\":16395:16415   */\n      sub\n        /* \"#utility.yul\":16391:16392   */\n      0x00\n        /* \"#utility.yul\":16380:16389   */\n      dup4\n        /* \"#utility.yul\":16376:16393   */\n      add\n        /* \"#utility.yul\":16369:16416   */\n      mstore\n        /* \"#utility.yul\":16433:16564   */\n      tag_570\n        /* \"#utility.yul\":16559:16563   */\n      dup2\n        /* \"#utility.yul\":16433:16564   */\n      tag_523\n      jump\t// in\n    tag_570:\n        /* \"#utility.yul\":16425:16564   */\n      swap1\n      pop\n        /* \"#utility.yul\":16152:16571   */\n      swap2\n      swap1\n      pop\n      jump\t// out\n        /* \"#utility.yul\":16577:16996   */\n    tag_204:\n        /* \"#utility.yul\":16743:16747   */\n      0x00\n        /* \"#utility.yul\":16781:16783   */\n      0x20\n        /* \"#utility.yul\":16770:16779   */\n      dup3\n        /* \"#utility.yul\":16766:16784   */\n      add\n        /* \"#utility.yul\":16758:16784   */\n      swap1\n      pop\n        /* \"#utility.yul\":16830:16839   */\n      dup2\n        /* \"#utility.yul\":16824:16828   */\n      dup2\n        /* \"#utility.yul\":16820:16840   */\n      sub\n        /* \"#utility.yul\":16816:16817   */\n      0x00\n        /* \"#utility.yul\":16805:16814   */\n      dup4\n        /* \"#utility.yul\":16801:16818   */\n      add\n        /* \"#utility.yul\":16794:16841   */\n      mstore\n        /* \"#utility.yul\":16858:16989   */\n      tag_572\n        /* \"#utility.yul\":16984:16988   */\n      dup2\n        /* \"#utility.yul\":16858:16989   */\n      tag_534\n      jump\t// in\n    tag_572:\n        /* \"#utility.yul\":16850:16989   */\n      swap1\n      pop\n        /* \"#utility.yul\":16577:16996   */\n      swap2\n      swap1\n      pop\n      jump\t// out\n        /* \"#utility.yul\":17002:17224   */\n    tag_56:\n        /* \"#utility.yul\":17095:17099   */\n      0x00\n        /* \"#utility.yul\":17133:17135   */\n      0x20\n        /* \"#utility.yul\":17122:17131   */\n      dup3\n        /* \"#utility.yul\":17118:17136   */\n      add\n        /* \"#utility.yul\":17110:17136   */\n      swap1\n      pop\n        /* \"#utility.yul\":17146:17217   */\n      tag_574\n        /* \"#utility.yul\":17214:17215   */\n      0x00\n        /* \"#utility.yul\":17203:17212   */\n      dup4\n        /* \"#utility.yul\":17199:17216   */\n      add\n        /* \"#utility.yul\":17190:17196   */\n      dup5\n        /* \"#utility.yul\":17146:17217   */\n      tag_539\n      jump\t// in\n    tag_574:\n        /* \"#utility.yul\":17002:17224   */\n      swap3\n      swap2\n      pop\n      pop\n      jump\t// out\n        /* \"#utility.yul\":17230:17359   */\n    tag_367:\n        /* \"#utility.yul\":17264:17270   */\n      0x00\n        /* \"#utility.yul\":17291:17311   */\n      tag_576\n      tag_577\n      jump\t// in\n    tag_576:\n        /* \"#utility.yul\":17281:17311   */\n      swap1\n      pop\n        /* \"#utility.yul\":17320:17353   */\n      tag_578\n        /* \"#utility.yul\":17348:17352   */\n      dup3\n        /* \"#utility.yul\":17340:17346   */\n      dup3\n        /* \"#utility.yul\":17320:17353   */\n      tag_579\n      jump\t// in\n    tag_578:\n        /* \"#utility.yul\":17230:17359   */\n      swap2\n      swap1\n      pop\n      jump\t// out\n        /* \"#utility.yul\":17365:17440   */\n    tag_577:\n        /* \"#utility.yul\":17398:17404   */\n      0x00\n        /* \"#utility.yul\":17431:17433   */\n      0x40\n        /* \"#utility.yul\":17425:17434   */\n      mload\n        /* \"#utility.yul\":17415:17434   */\n      swap1\n      pop\n        /* \"#utility.yul\":17365:17440   */\n      swap1\n      jump\t// out\n        /* \"#utility.yul\":17446:17753   */\n    tag_366:\n        /* \"#utility.yul\":17507:17511   */\n      0x00\n        /* \"#utility.yul\":17597:17615   */\n      0xffffffffffffffff\n        /* \"#utility.yul\":17589:17595   */\n      dup3\n        /* \"#utility.yul\":17586:17616   */\n      gt\n        /* \"#utility.yul\":17583:17639   */\n      iszero\n      tag_582\n      jumpi\n        /* \"#utility.yul\":17619:17637   */\n      tag_583\n      tag_584\n      jump\t// in\n    tag_583:\n        /* \"#utility.yul\":17583:17639   */\n    tag_582:\n        /* \"#utility.yul\":17657:17686   */\n      tag_585\n        /* \"#utility.yul\":17679:17685   */\n      dup3\n        /* \"#utility.yul\":17657:17686   */\n      tag_483\n      jump\t// in\n    tag_585:\n        /* \"#utility.yul\":17649:17686   */\n      swap1\n      pop\n        /* \"#utility.yul\":17741:17745   */\n      0x20\n        /* \"#utility.yul\":17735:17739   */\n      dup2\n        /* \"#utility.yul\":17731:17746   */\n      add\n        /* \"#utility.yul\":17723:17746   */\n      swap1\n      pop\n        /* \"#utility.yul\":17446:17753   */\n      swap2\n      swap1\n      pop\n      jump\t// out\n        /* \"#utility.yul\":17759:17857   */\n    tag_477:\n        /* \"#utility.yul\":17810:17816   */\n      0x00\n        /* \"#utility.yul\":17844:17849   */\n      dup2\n        /* \"#utility.yul\":17838:17850   */\n      mload\n        /* \"#utility.yul\":17828:17850   */\n      swap1\n      pop\n        /* \"#utility.yul\":17759:17857   */\n      swap2\n      swap1\n      pop\n      jump\t// out\n        /* \"#utility.yul\":17863:17962   */\n    tag_487:\n        /* \"#utility.yul\":17915:17921   */\n      0x00\n        /* \"#utility.yul\":17949:17954   */\n      dup2\n        /* \"#utility.yul\":17943:17955   */\n      mload\n        /* \"#utility.yul\":17933:17955   */\n      swap1\n      pop\n        /* \"#utility.yul\":17863:17962   */\n      swap2\n      swap1\n      pop\n      jump\t// out\n        /* \"#utility.yul\":17968:18136   */\n    tag_479:\n        /* \"#utility.yul\":18051:18062   */\n      0x00\n        /* \"#utility.yul\":18085:18091   */\n      dup3\n        /* \"#utility.yul\":18080:18083   */\n      dup3\n        /* \"#utility.yul\":18073:18092   */\n      mstore\n        /* \"#utility.yul\":18125:18129   */\n      0x20\n        /* \"#utility.yul\":18120:18123   */\n      dup3\n        /* \"#utility.yul\":18116:18130   */\n      add\n        /* \"#utility.yul\":18101:18130   */\n      swap1\n      pop\n        /* \"#utility.yul\":17968:18136   */\n      swap3\n      swap2\n      pop\n      pop\n      jump\t// out\n        /* \"#utility.yul\":18142:18289   */\n    tag_531:\n        /* \"#utility.yul\":18243:18254   */\n      0x00\n        /* \"#utility.yul\":18280:18283   */\n      dup2\n        /* \"#utility.yul\":18265:18283   */\n      swap1\n      pop\n        /* \"#utility.yul\":18142:18289   */\n      swap3\n      swap2\n      pop\n      pop\n      jump\t// out\n        /* \"#utility.yul\":18295:18464   */\n    tag_489:\n        /* \"#utility.yul\":18379:18390   */\n      0x00\n        /* \"#utility.yul\":18413:18419   */\n      dup3\n        /* \"#utility.yul\":18408:18411   */\n      dup3\n        /* \"#utility.yul\":18401:18420   */\n      mstore\n        /* \"#utility.yul\":18453:18457   */\n      0x20\n        /* \"#utility.yul\":18448:18451   */\n      dup3\n        /* \"#utility.yul\":18444:18458   */\n      add\n        /* \"#utility.yul\":18429:18458   */\n      swap1\n      pop\n        /* \"#utility.yul\":18295:18464   */\n      swap3\n      swap2\n      pop\n      pop\n      jump\t// out\n        /* \"#utility.yul\":18470:18618   */\n    tag_496:\n        /* \"#utility.yul\":18572:18583   */\n      0x00\n        /* \"#utility.yul\":18609:18612   */\n      dup2\n        /* \"#utility.yul\":18594:18612   */\n      swap1\n      pop\n        /* \"#utility.yul\":18470:18618   */\n      swap3\n      swap2\n      pop\n      pop\n      jump\t// out\n        /* \"#utility.yul\":18624:18929   */\n    tag_208:\n        /* \"#utility.yul\":18664:18667   */\n      0x00\n        /* \"#utility.yul\":18683:18703   */\n      tag_593\n        /* \"#utility.yul\":18701:18702   */\n      dup3\n        /* \"#utility.yul\":18683:18703   */\n      tag_542\n      jump\t// in\n    tag_593:\n        /* \"#utility.yul\":18678:18703   */\n      swap2\n      pop\n        /* \"#utility.yul\":18717:18737   */\n      tag_594\n        /* \"#utility.yul\":18735:18736   */\n      dup4\n        /* \"#utility.yul\":18717:18737   */\n      tag_542\n      jump\t// in\n    tag_594:\n        /* \"#utility.yul\":18712:18737   */\n      swap3\n      pop\n        /* \"#utility.yul\":18871:18872   */\n      dup3\n        /* \"#utility.yul\":18803:18869   */\n      0xffffffffffffffffffffffffffffffffffffffffffffffffffffffffffffffff\n        /* \"#utility.yul\":18799:18873   */\n      sub\n        /* \"#utility.yul\":18796:18797   */\n      dup3\n        /* \"#utility.yul\":18793:18874   */\n      gt\n        /* \"#utility.yul\":18790:18897   */\n      iszero\n      tag_595\n      jumpi\n        /* \"#utility.yul\":18877:18895   */\n      tag_596\n      tag_597\n      jump\t// in\n    tag_596:\n        /* \"#utility.yul\":18790:18897   */\n    tag_595:\n        /* \"#utility.yul\":18921:18922   */\n      dup3\n        /* \"#utility.yul\":18918:18919   */\n      dup3\n        /* \"#utility.yul\":18914:18923   */\n      add\n        /* \"#utility.yul\":18907:18923   */\n      swap1\n      pop\n        /* \"#utility.yul\":18624:18929   */\n      swap3\n      swap2\n      pop\n      pop\n      jump\t// out\n        /* \"#utility.yul\":18935:19283   */\n    tag_213:\n        /* \"#utility.yul\":18975:18982   */\n      0x00\n        /* \"#utility.yul\":18998:19018   */\n      tag_599\n        /* \"#utility.yul\":19016:19017   */\n      dup3\n        /* \"#utility.yul\":18998:19018   */\n      tag_542\n      jump\t// in\n    tag_599:\n        /* \"#utility.yul\":18993:19018   */\n      swap2\n      pop\n        /* \"#utility.yul\":19032:19052   */\n      tag_600\n        /* \"#utility.yul\":19050:19051   */\n      dup4\n        /* \"#utility.yul\":19032:19052   */\n      tag_542\n      jump\t// in\n    tag_600:\n        /* \"#utility.yul\":19027:19052   */\n      swap3\n      pop\n        /* \"#utility.yul\":19220:19221   */\n      dup2\n        /* \"#utility.yul\":19152:19218   */\n      0xffffffffffffffffffffffffffffffffffffffffffffffffffffffffffffffff\n        /* \"#utility.yul\":19148:19222   */\n      div\n        /* \"#utility.yul\":19145:19146   */\n      dup4\n        /* \"#utility.yul\":19142:19223   */\n      gt\n        /* \"#utility.yul\":19137:19138   */\n      dup3\n        /* \"#utility.yul\":19130:19139   */\n      iszero\n        /* \"#utility.yul\":19123:19140   */\n      iszero\n        /* \"#utility.yul\":19119:19224   */\n      and\n        /* \"#utility.yul\":19116:19247   */\n      iszero\n      tag_601\n      jumpi\n        /* \"#utility.yul\":19227:19245   */\n      tag_602\n      tag_597\n      jump\t// in\n    tag_602:\n        /* \"#utility.yul\":19116:19247   */\n    tag_601:\n        /* \"#utility.yul\":19275:19276   */\n      dup3\n        /* \"#utility.yul\":19272:19273   */\n      dup3\n        /* \"#utility.yul\":19268:19277   */\n      mul\n        /* \"#utility.yul\":19257:19277   */\n      swap1\n      pop\n        /* \"#utility.yul\":18935:19283   */\n      swap3\n      swap2\n      pop\n      pop\n      jump\t// out\n        /* \"#utility.yul\":19289:19385   */\n    tag_469:\n        /* \"#utility.yul\":19326:19333   */\n      0x00\n        /* \"#utility.yul\":19355:19379   */\n      tag_604\n        /* \"#utility.yul\":19373:19378   */\n      dup3\n        /* \"#utility.yul\":19355:19379   */\n      tag_605\n      jump\t// in\n    tag_604:\n        /* \"#utility.yul\":19344:19379   */\n      swap1\n      pop\n        /* \"#utility.yul\":19289:19385   */\n      swap2\n      swap1\n      pop\n      jump\t// out\n        /* \"#utility.yul\":19391:19481   */\n    tag_473:\n        /* \"#utility.yul\":19425:19432   */\n      0x00\n        /* \"#utility.yul\":19468:19473   */\n      dup2\n        /* \"#utility.yul\":19461:19474   */\n      iszero\n        /* \"#utility.yul\":19454:19475   */\n      iszero\n        /* \"#utility.yul\":19443:19475   */\n      swap1\n      pop\n        /* \"#utility.yul\":19391:19481   */\n      swap2\n      swap1\n      pop\n      jump\t// out\n        /* \"#utility.yul\":19487:19636   */\n    tag_607:\n        /* \"#utility.yul\":19523:19530   */\n      0x00\n        /* \"#utility.yul\":19563:19629   */\n      0xffffffff00000000000000000000000000000000000000000000000000000000\n        /* \"#utility.yul\":19556:19561   */\n      dup3\n        /* \"#utility.yul\":19552:19630   */\n      and\n        /* \"#utility.yul\":19541:19630   */\n      swap1\n      pop\n        /* \"#utility.yul\":19487:19636   */\n      swap2\n      swap1\n      pop\n      jump\t// out\n        /* \"#utility.yul\":19642:19768   */\n    tag_605:\n        /* \"#utility.yul\":19679:19686   */\n      0x00\n        /* \"#utility.yul\":19719:19761   */\n      0xffffffffffffffffffffffffffffffffffffffff\n        /* \"#utility.yul\":19712:19717   */\n      dup3\n        /* \"#utility.yul\":19708:19762   */\n      and\n        /* \"#utility.yul\":19697:19762   */\n      swap1\n      pop\n        /* \"#utility.yul\":19642:19768   */\n      swap2\n      swap1\n      pop\n      jump\t// out\n        /* \"#utility.yul\":19774:19851   */\n    tag_542:\n        /* \"#utility.yul\":19811:19818   */\n      0x00\n        /* \"#utility.yul\":19840:19845   */\n      dup2\n        /* \"#utility.yul\":19829:19845   */\n      swap1\n      pop\n        /* \"#utility.yul\":19774:19851   */\n      swap2\n      swap1\n      pop\n      jump\t// out\n        /* \"#utility.yul\":19857:20011   */\n    tag_372:\n        /* \"#utility.yul\":19941:19947   */\n      dup3\n        /* \"#utility.yul\":19936:19939   */\n      dup2\n        /* \"#utility.yul\":19931:19934   */\n      dup4\n        /* \"#utility.yul\":19918:19948   */\n      calldatacopy\n        /* \"#utility.yul\":20003:20004   */\n      0x00\n        /* \"#utility.yul\":19994:20000   */\n      dup4\n        /* \"#utility.yul\":19989:19992   */\n      dup4\n        /* \"#utility.yul\":19985:20001   */\n      add\n        /* \"#utility.yul\":19978:20005   */\n      mstore\n        /* \"#utility.yul\":19857:20011   */\n      pop\n      pop\n      pop\n      jump\t// out\n        /* \"#utility.yul\":20017:20324   */\n    tag_481:\n        /* \"#utility.yul\":20085:20086   */\n      0x00\n        /* \"#utility.yul\":20095:20208   */\n    tag_613:\n        /* \"#utility.yul\":20109:20115   */\n      dup4\n        /* \"#utility.yul\":20106:20107   */\n      dup2\n        /* \"#utility.yul\":20103:20116   */\n      lt\n        /* \"#utility.yul\":20095:20208   */\n      iszero\n      tag_615\n      jumpi\n        /* \"#utility.yul\":20194:20195   */\n      dup1\n        /* \"#utility.yul\":20189:20192   */\n      dup3\n        /* \"#utility.yul\":20185:20196   */\n      add\n        /* \"#utility.yul\":20179:20197   */\n      mload\n        /* \"#utility.yul\":20175:20176   */\n      dup2\n        /* \"#utility.yul\":20170:20173   */\n      dup5\n        /* \"#utility.yul\":20166:20177   */\n      add\n        /* \"#utility.yul\":20159:20198   */\n      mstore\n        /* \"#utility.yul\":20131:20133   */\n      0x20\n        /* \"#utility.yul\":20128:20129   */\n      dup2\n        /* \"#utility.yul\":20124:20134   */\n      add\n        /* \"#utility.yul\":20119:20134   */\n      swap1\n      pop\n        /* \"#utility.yul\":20095:20208   */\n      jump(tag_613)\n    tag_615:\n        /* \"#utility.yul\":20226:20232   */\n      dup4\n        /* \"#utility.yul\":20223:20224   */\n      dup2\n        /* \"#utility.yul\":20220:20233   */\n      gt\n        /* \"#utility.yul\":20217:20318   */\n      iszero\n      tag_616\n      jumpi\n        /* \"#utility.yul\":20306:20307   */\n      0x00\n        /* \"#utility.yul\":20297:20303   */\n      dup5\n        /* \"#utility.yul\":20292:20295   */\n      dup5\n        /* \"#utility.yul\":20288:20304   */\n      add\n        /* \"#utility.yul\":20281:20308   */\n      mstore\n        /* \"#utility.yul\":20217:20318   */\n    tag_616:\n        /* \"#utility.yul\":20066:20324   */\n      pop\n        /* \"#utility.yul\":20017:20324   */\n      pop\n      pop\n      pop\n      jump\t// out\n        /* \"#utility.yul\":20330:20650   */\n    tag_143:\n        /* \"#utility.yul\":20374:20380   */\n      0x00\n        /* \"#utility.yul\":20411:20412   */\n      0x02\n        /* \"#utility.yul\":20405:20409   */\n      dup3\n        /* \"#utility.yul\":20401:20413   */\n      div\n        /* \"#utility.yul\":20391:20413   */\n      swap1\n      pop\n        /* \"#utility.yul\":20458:20459   */\n      0x01\n        /* \"#utility.yul\":20452:20456   */\n      dup3\n        /* \"#utility.yul\":20448:20460   */\n      and\n        /* \"#utility.yul\":20479:20497   */\n      dup1\n        /* \"#utility.yul\":20469:20550   */\n      tag_618\n      jumpi\n        /* \"#utility.yul\":20535:20539   */\n      0x7f\n        /* \"#utility.yul\":20527:20533   */\n      dup3\n        /* \"#utility.yul\":20523:20540   */\n      and\n        /* \"#utility.yul\":20513:20540   */\n      swap2\n      pop\n        /* \"#utility.yul\":20469:20550   */\n    tag_618:\n        /* \"#utility.yul\":20597:20599   */\n      0x20\n        /* \"#utility.yul\":20589:20595   */\n      dup3\n        /* \"#utility.yul\":20586:20600   */\n      lt\n        /* \"#utility.yul\":20566:20584   */\n      dup2\n        /* \"#utility.yul\":20563:20601   */\n      eq\n        /* \"#utility.yul\":20560:20644   */\n      iszero\n      tag_619\n      jumpi\n        /* \"#utility.yul\":20616:20634   */\n      tag_620\n      tag_621\n      jump\t// in\n    tag_620:\n        /* \"#utility.yul\":20560:20644   */\n    tag_619:\n        /* \"#utility.yul\":20381:20650   */\n      pop\n        /* \"#utility.yul\":20330:20650   */\n      swap2\n      swap1\n      pop\n      jump\t// out\n        /* \"#utility.yul\":20656:20937   */\n    tag_579:\n        /* \"#utility.yul\":20739:20766   */\n      tag_623\n        /* \"#utility.yul\":20761:20765   */\n      dup3\n        /* \"#utility.yul\":20739:20766   */\n      tag_483\n      jump\t// in\n    tag_623:\n        /* \"#utility.yul\":20731:20737   */\n      dup2\n        /* \"#utility.yul\":20727:20767   */\n      add\n        /* \"#utility.yul\":20869:20875   */\n      dup2\n        /* \"#utility.yul\":20857:20867   */\n      dup2\n        /* \"#utility.yul\":20854:20876   */\n      lt\n        /* \"#utility.yul\":20833:20851   */\n      0xffffffffffffffff\n        /* \"#utility.yul\":20821:20831   */\n      dup3\n        /* \"#utility.yul\":20818:20852   */\n      gt\n        /* \"#utility.yul\":20815:20877   */\n      or\n        /* \"#utility.yul\":20812:20900   */\n      iszero\n      tag_624\n      jumpi\n        /* \"#utility.yul\":20880:20898   */\n      tag_625\n      tag_584\n      jump\t// in\n    tag_625:\n        /* \"#utility.yul\":20812:20900   */\n    tag_624:\n        /* \"#utility.yul\":20920:20930   */\n      dup1\n        /* \"#utility.yul\":20916:20918   */\n      0x40\n        /* \"#utility.yul\":20909:20931   */\n      mstore\n        /* \"#utility.yul\":20699:20937   */\n      pop\n        /* \"#utility.yul\":20656:20937   */\n      pop\n      pop\n      jump\t// out\n        /* \"#utility.yul\":20943:21123   */\n    tag_597:\n        /* \"#utility.yul\":20991:21068   */\n      0x4e487b7100000000000000000000000000000000000000000000000000000000\n        /* \"#utility.yul\":20988:20989   */\n      0x00\n        /* \"#utility.yul\":20981:21069   */\n      mstore\n        /* \"#utility.yul\":21088:21092   */\n      0x11\n        /* \"#utility.yul\":21085:21086   */\n      0x04\n        /* \"#utility.yul\":21078:21093   */\n      mstore\n        /* \"#utility.yul\":21112:21116   */\n      0x24\n        /* \"#utility.yul\":21109:21110   */\n      0x00\n        /* \"#utility.yul\":21102:21117   */\n      revert\n        /* \"#utility.yul\":21129:21309   */\n    tag_621:\n        /* \"#utility.yul\":21177:21254   */\n      0x4e487b7100000000000000000000000000000000000000000000000000000000\n        /* \"#utility.yul\":21174:21175   */\n      0x00\n        /* \"#utility.yul\":21167:21255   */\n      mstore\n        /* \"#utility.yul\":21274:21278   */\n      0x22\n        /* \"#utility.yul\":21271:21272   */\n      0x04\n        /* \"#utility.yul\":21264:21279   */\n      mstore\n        /* \"#utility.yul\":21298:21302   */\n      0x24\n        /* \"#utility.yul\":21295:21296   */\n      0x00\n        /* \"#utility.yul\":21288:21303   */\n      revert\n        /* \"#utility.yul\":21315:21495   */\n    tag_584:\n        /* \"#utility.yul\":21363:21440   */\n      0x4e487b7100000000000000000000000000000000000000000000000000000000\n        /* \"#utility.yul\":21360:21361   */\n      0x00\n        /* \"#utility.yul\":21353:21441   */\n      mstore\n        /* \"#utility.yul\":21460:21464   */\n      0x41\n        /* \"#utility.yul\":21457:21458   */\n      0x04\n        /* \"#utility.yul\":21450:21465   */\n      mstore\n        /* \"#utility.yul\":21484:21488   */\n      0x24\n        /* \"#utility.yul\":21481:21482   */\n      0x00\n        /* \"#utility.yul\":21474:21489   */\n      revert\n        /* \"#utility.yul\":21501:21618   */\n    tag_400:\n        /* \"#utility.yul\":21610:21611   */\n      0x00\n        /* \"#utility.yul\":21607:21608   */\n      dup1\n        /* \"#utility.yul\":21600:21612   */\n      revert\n        /* \"#utility.yul\":21624:21741   */\n    tag_392:\n        /* \"#utility.yul\":21733:21734   */\n      0x00\n        /* \"#utility.yul\":21730:21731   */\n      dup1\n        /* \"#utility.yul\":21723:21735   */\n      revert\n        /* \"#utility.yul\":21747:21864   */\n    tag_403:\n        /* \"#utility.yul\":21856:21857   */\n      0x00\n        /* \"#utility.yul\":21853:21854   */\n      dup1\n        /* \"#utility.yul\":21846:21858   */\n      revert\n        /* \"#utility.yul\":21870:21987   */\n    tag_370:\n        /* \"#utility.yul\":21979:21980   */\n      0x00\n        /* \"#utility.yul\":21976:21977   */\n      dup1\n        /* \"#utility.yul\":21969:21981   */\n      revert\n        /* \"#utility.yul\":21993:22110   */\n    tag_432:\n        /* \"#utility.yul\":22102:22103   */\n      0x00\n        /* \"#utility.yul\":22099:22100   */\n      dup1\n        /* \"#utility.yul\":22092:22104   */\n      revert\n        /* \"#utility.yul\":22116:22233   */\n    tag_411:\n        /* \"#utility.yul\":22225:22226   */\n      0x00\n        /* \"#utility.yul\":22222:22223   */\n      dup1\n        /* \"#utility.yul\":22215:22227   */\n      revert\n        /* \"#utility.yul\":22239:22341   */\n    tag_483:\n        /* \"#utility.yul\":22280:22286   */\n      0x00\n        /* \"#utility.yul\":22331:22333   */\n      0x1f\n        /* \"#utility.yul\":22327:22334   */\n      not\n        /* \"#utility.yul\":22322:22324   */\n      0x1f\n        /* \"#utility.yul\":22315:22320   */\n      dup4\n        /* \"#utility.yul\":22311:22325   */\n      add\n        /* \"#utility.yul\":22307:22335   */\n      and\n        /* \"#utility.yul\":22297:22335   */\n      swap1\n      pop\n        /* \"#utility.yul\":22239:22341   */\n      swap2\n      swap1\n      pop\n      jump\t// out\n        /* \"#utility.yul\":22347:22572   */\n    tag_502:\n        /* \"#utility.yul\":22487:22521   */\n      0x4f776e61626c653a206e6577206f776e657220697320746865207a65726f2061\n        /* \"#utility.yul\":22483:22484   */\n      0x00\n        /* \"#utility.yul\":22475:22481   */\n      dup3\n        /* \"#utility.yul\":22471:22485   */\n      add\n        /* \"#utility.yul\":22464:22522   */\n      mstore\n        /* \"#utility.yul\":22556:22564   */\n      0x6464726573730000000000000000000000000000000000000000000000000000\n        /* \"#utility.yul\":22551:22553   */\n      0x20\n        /* \"#utility.yul\":22543:22549   */\n      dup3\n        /* \"#utility.yul\":22539:22554   */\n      add\n        /* \"#utility.yul\":22532:22565   */\n      mstore\n        /* \"#utility.yul\":22347:22572   */\n      pop\n      jump\t// out\n        /* \"#utility.yul\":22578:22746   */\n    tag_507:\n        /* \"#utility.yul\":22718:22738   */\n      0x496e73756666696369656e742046756e64730000000000000000000000000000\n        /* \"#utility.yul\":22714:22715   */\n      0x00\n        /* \"#utility.yul\":22706:22712   */\n      dup3\n        /* \"#utility.yul\":22702:22716   */\n      add\n        /* \"#utility.yul\":22695:22739   */\n      mstore\n        /* \"#utility.yul\":22578:22746   */\n      pop\n      jump\t// out\n        /* \"#utility.yul\":22752:22918   */\n    tag_512:\n        /* \"#utility.yul\":22892:22910   */\n      0x436f6e7472616374207061757365642e00000000000000000000000000000000\n        /* \"#utility.yul\":22888:22889   */\n      0x00\n        /* \"#utility.yul\":22880:22886   */\n      dup3\n        /* \"#utility.yul\":22876:22890   */\n      add\n        /* \"#utility.yul\":22869:22911   */\n      mstore\n        /* \"#utility.yul\":22752:22918   */\n      pop\n      jump\t// out\n        /* \"#utility.yul\":22924:23106   */\n    tag_517:\n        /* \"#utility.yul\":23064:23098   */\n      0x4f776e61626c653a2063616c6c6572206973206e6f7420746865206f776e6572\n        /* \"#utility.yul\":23060:23061   */\n      0x00\n        /* \"#utility.yul\":23052:23058   */\n      dup3\n        /* \"#utility.yul\":23048:23062   */\n      add\n        /* \"#utility.yul\":23041:23099   */\n      mstore\n        /* \"#utility.yul\":22924:23106   */\n      pop\n      jump\t// out\n        /* \"#utility.yul\":23112:23276   */\n    tag_522:\n        /* \"#utility.yul\":23252:23268   */\n      0x4d617820537570706c7920486974000000000000000000000000000000000000\n        /* \"#utility.yul\":23248:23249   */\n      0x00\n        /* \"#utility.yul\":23240:23246   */\n      dup3\n        /* \"#utility.yul\":23236:23250   */\n      add\n        /* \"#utility.yul\":23229:23269   */\n      mstore\n        /* \"#utility.yul\":23112:23276   */\n      pop\n      jump\t// out\n        /* \"#utility.yul\":23282:23447   */\n    tag_527:\n        /* \"#utility.yul\":23422:23439   */\n      0x5472616e73666572204661696c65640000000000000000000000000000000000\n        /* \"#utility.yul\":23418:23419   */\n      0x00\n        /* \"#utility.yul\":23410:23416   */\n      dup3\n        /* \"#utility.yul\":23406:23420   */\n      add\n        /* \"#utility.yul\":23399:23440   */\n      mstore\n        /* \"#utility.yul\":23282:23447   */\n      pop\n      jump\t// out\n        /* \"#utility.yul\":23453:23567   */\n    tag_533:\n      pop\n      jump\t// out\n        /* \"#utility.yul\":23573:23737   */\n    tag_538:\n        /* \"#utility.yul\":23713:23729   */\n      0x4d696e7420697320706175736564000000000000000000000000000000000000\n        /* \"#utility.yul\":23709:23710   */\n      0x00\n        /* \"#utility.yul\":23701:23707   */\n      dup3\n        /* \"#utility.yul\":23697:23711   */\n      add\n        /* \"#utility.yul\":23690:23730   */\n      mstore\n        /* \"#utility.yul\":23573:23737   */\n      pop\n      jump\t// out\n        /* \"#utility.yul\":23743:23865   */\n    tag_376:\n        /* \"#utility.yul\":23816:23840   */\n      tag_645\n        /* \"#utility.yul\":23834:23839   */\n      dup2\n        /* \"#utility.yul\":23816:23840   */\n      tag_469\n      jump\t// in\n    tag_645:\n        /* \"#utility.yul\":23809:23814   */\n      dup2\n        /* \"#utility.yul\":23806:23841   */\n      eq\n        /* \"#utility.yul\":23796:23859   */\n      tag_646\n      jumpi\n        /* \"#utility.yul\":23855:23856   */\n      0x00\n        /* \"#utility.yul\":23852:23853   */\n      dup1\n        /* \"#utility.yul\":23845:23857   */\n      revert\n        /* \"#utility.yul\":23796:23859   */\n    tag_646:\n        /* \"#utility.yul\":23743:23865   */\n      pop\n      jump\t// out\n        /* \"#utility.yul\":23871:23987   */\n    tag_380:\n        /* \"#utility.yul\":23941:23962   */\n      tag_648\n        /* \"#utility.yul\":23956:23961   */\n      dup2\n        /* \"#utility.yul\":23941:23962   */\n      tag_473\n      jump\t// in\n    tag_648:\n        /* \"#utility.yul\":23934:23939   */\n      dup2\n        /* \"#utility.yul\":23931:23963   */\n      eq\n        /* \"#utility.yul\":23921:23981   */\n      tag_649\n      jumpi\n        /* \"#utility.yul\":23977:23978   */\n      0x00\n        /* \"#utility.yul\":23974:23975   */\n      dup1\n        /* \"#utility.yul\":23967:23979   */\n      revert\n        /* \"#utility.yul\":23921:23981   */\n    tag_649:\n        /* \"#utility.yul\":23871:23987   */\n      pop\n      jump\t// out\n        /* \"#utility.yul\":23993:24113   */\n    tag_384:\n        /* \"#utility.yul\":24065:24088   */\n      tag_651\n        /* \"#utility.yul\":24082:24087   */\n      dup2\n        /* \"#utility.yul\":24065:24088   */\n      tag_607\n      jump\t// in\n    tag_651:\n        /* \"#utility.yul\":24058:24063   */\n      dup2\n        /* \"#utility.yul\":24055:24089   */\n      eq\n        /* \"#utility.yul\":24045:24107   */\n      tag_652\n      jumpi\n        /* \"#utility.yul\":24103:24104   */\n      0x00\n        /* \"#utility.yul\":24100:24101   */\n      dup1\n        /* \"#utility.yul\":24093:24105   */\n      revert\n        /* \"#utility.yul\":24045:24107   */\n    tag_652:\n        /* \"#utility.yul\":23993:24113   */\n      pop\n      jump\t// out\n        /* \"#utility.yul\":24119:24241   */\n    tag_407:\n        /* \"#utility.yul\":24192:24216   */\n      tag_654\n        /* \"#utility.yul\":24210:24215   */\n      dup2\n        /* \"#utility.yul\":24192:24216   */\n      tag_542\n      jump\t// in\n    tag_654:\n        /* \"#utility.yul\":24185:24190   */\n      dup2\n        /* \"#utility.yul\":24182:24217   */\n      eq\n        /* \"#utility.yul\":24172:24235   */\n      tag_655\n      jumpi\n        /* \"#utility.yul\":24231:24232   */\n      0x00\n        /* \"#utility.yul\":24228:24229   */\n      dup1\n        /* \"#utility.yul\":24221:24233   */\n      revert\n        /* \"#utility.yul\":24172:24235   */\n    tag_655:\n        /* \"#utility.yul\":24119:24241   */\n      pop\n      jump\t// out\n\n    auxdata: 0xa2646970667358221220678cf8aba97fc92313bba558104f8e5d5573177b61745fa2b0c78c787d93994e64736f6c63430008070033\n}\n",
				"bytecode": {
					"linkReferences": {},
					"object": "60806040523480156200001157600080fd5b5060405162002b9638038062002b968339818101604052810190620000379190620002de565b6040518060400160405280600d81526020017f4552433732314120546f6b656e000000000000000000000000000000000000008152506040518060400160405280600581526020017f3732314154000000000000000000000000000000000000000000000000000000815250620000c3620000b76200012f60201b60201c565b6200013760201b60201c565b8160039080519060200190620000db92919062000200565b508060049080519060200190620000f492919062000200565b5062000105620001fb60201b60201c565b600181905550505080600960006101000a81548160ff0219169083151502179055505050620003d9565b600033905090565b60008060009054906101000a900473ffffffffffffffffffffffffffffffffffffffff169050816000806101000a81548173ffffffffffffffffffffffffffffffffffffffff021916908373ffffffffffffffffffffffffffffffffffffffff1602179055508173ffffffffffffffffffffffffffffffffffffffff168173ffffffffffffffffffffffffffffffffffffffff167f8be0079c531659141344cd1fd0a4f28419497f9722a3daafe3b4186f6b6457e060405160405180910390a35050565b600090565b8280546200020e906200033b565b90600052602060002090601f0160209004810192826200023257600085556200027e565b82601f106200024d57805160ff19168380011785556200027e565b828001600101855582156200027e579182015b828111156200027d57825182559160200191906001019062000260565b5b5090506200028d919062000291565b5090565b5b80821115620002ac57600081600090555060010162000292565b5090565b600081519050620002c181620003a5565b92915050565b600081519050620002d881620003bf565b92915050565b60008060408385031215620002f857620002f7620003a0565b5b60006200030885828601620002c7565b92505060206200031b85828601620002b0565b9150509250929050565b60008115159050919050565b6000819050919050565b600060028204905060018216806200035457607f821691505b602082108114156200036b576200036a62000371565b5b50919050565b7f4e487b7100000000000000000000000000000000000000000000000000000000600052602260045260246000fd5b600080fd5b620003b08162000325565b8114620003bc57600080fd5b50565b620003ca8162000331565b8114620003d657600080fd5b50565b6127ad80620003e96000396000f3fe60806040526004361061014b5760003560e01c806370a08231116100b6578063a22cb4651161006f578063a22cb46514610438578063b88d4fde14610461578063c87b56dd1461047d578063e985e9c5146104ba578063f2fde38b146104f7578063f30e6e77146105205761014b565b806370a0823114610338578063715018a6146103755780637e4831d31461038c578063833b9499146103b75780638da5cb5b146103e257806395d89b411461040d5761014b565b806332cb6b0c1161010857806332cb6b0c146102585780633ccfd60b1461028357806340c10f191461029a57806342842e0e146102b657806355f804b3146102d25780636352211e146102fb5761014b565b806301ffc9a71461015057806306fdde031461018d578063081812fc146101b8578063095ea7b3146101f557806318160ddd1461021157806323b872dd1461023c575b600080fd5b34801561015c57600080fd5b5061017760048036038101906101729190611e16565b610549565b6040516101849190612172565b60405180910390f35b34801561019957600080fd5b506101a26105db565b6040516101af919061218d565b60405180910390f35b3480156101c457600080fd5b506101df60048036038101906101da9190611ebd565b61066d565b6040516101ec919061210b565b60405180910390f35b61020f600480360381019061020a9190611da9565b6106ec565b005b34801561021d57600080fd5b50610226610830565b604051610233919061228f565b60405180910390f35b61025660048036038101906102519190611c93565b610847565b005b34801561026457600080fd5b5061026d610b6c565b60405161027a919061228f565b60405180910390f35b34801561028f57600080fd5b50610298610b71565b005b6102b460048036038101906102af9190611da9565b610c28565b005b6102d060048036038101906102cb9190611c93565b610d31565b005b3480156102de57600080fd5b506102f960048036038101906102f49190611e70565b610d51565b005b34801561030757600080fd5b50610322600480360381019061031d9190611ebd565b610d6f565b60405161032f919061210b565b60405180910390f35b34801561034457600080fd5b5061035f600480360381019061035a9190611c26565b610d81565b60405161036c919061228f565b60405180910390f35b34801561038157600080fd5b5061038a610e3a565b005b34801561039857600080fd5b506103a1610e4e565b6040516103ae9190612172565b60405180910390f35b3480156103c357600080fd5b506103cc610e61565b6040516103d9919061228f565b60405180910390f35b3480156103ee57600080fd5b506103f7610e6c565b604051610404919061210b565b60405180910390f35b34801561041957600080fd5b50610422610e95565b60405161042f919061218d565b60405180910390f35b34801561044457600080fd5b5061045f600480360381019061045a9190611d69565b610f27565b005b61047b60048036038101906104769190611ce6565b611032565b005b34801561048957600080fd5b506104a4600480360381019061049f9190611ebd565b6110a5565b6040516104b1919061218d565b60405180910390f35b3480156104c657600080fd5b506104e160048036038101906104dc9190611c53565b611144565b6040516104ee9190612172565b60405180910390f35b34801561050357600080fd5b5061051e60048036038101906105199190611c26565b6111d8565b005b34801561052c57600080fd5b5061054760048036038101906105429190611de9565b61125c565b005b60006301ffc9a760e01b827bffffffffffffffffffffffffffffffffffffffffffffffffffffffff191614806105a457506380ac58cd60e01b827bffffffffffffffffffffffffffffffffffffffffffffffffffffffff1916145b806105d45750635b5e139f60e01b827bffffffffffffffffffffffffffffffffffffffffffffffffffffffff1916145b9050919050565b6060600380546105ea906124b4565b80601f0160208091040260200160405190810160405280929190818152602001828054610616906124b4565b80156106635780601f1061063857610100808354040283529160200191610663565b820191906000526020600020905b81548152906001019060200180831161064657829003601f168201915b5050505050905090565b6000610678826112d1565b6106ae576040517fcf4700e400000000000000000000000000000000000000000000000000000000815260040160405180910390fd5b6007600083815260200190815260200160002060000160009054906101000a900473ffffffffffffffffffffffffffffffffffffffff169050919050565b60006106f782610d6f565b90508073ffffffffffffffffffffffffffffffffffffffff16610718611330565b73ffffffffffffffffffffffffffffffffffffffff161461077b576107448161073f611330565b611144565b61077a576040517fcfb3b94200000000000000000000000000000000000000000000000000000000815260040160405180910390fd5b5b826007600084815260200190815260200160002060000160006101000a81548173ffffffffffffffffffffffffffffffffffffffff021916908373ffffffffffffffffffffffffffffffffffffffff160217905550818373ffffffffffffffffffffffffffffffffffffffff168273ffffffffffffffffffffffffffffffffffffffff167f8c5be1e5ebec7d5bd14f71427d1e84f3dd0314c0f7b2291e5b200ac8c7c3b92560405160405180910390a4505050565b600061083a611338565b6002546001540303905090565b60006108528261133d565b90508373ffffffffffffffffffffffffffffffffffffffff168173ffffffffffffffffffffffffffffffffffffffff16146108b9576040517fa114810000000000000000000000000000000000000000000000000000000000815260040160405180910390fd5b6000806108c58461140b565b915091506108db81876108d6611330565b611432565b610927576108f0866108eb611330565b611144565b610926576040517f59c896be00000000000000000000000000000000000000000000000000000000815260040160405180910390fd5b5b600073ffffffffffffffffffffffffffffffffffffffff168573ffffffffffffffffffffffffffffffffffffffff16141561098e576040517fea553b3400000000000000000000000000000000000000000000000000000000815260040160405180910390fd5b61099b8686866001611476565b80156109a657600082555b600660008773ffffffffffffffffffffffffffffffffffffffff1673ffffffffffffffffffffffffffffffffffffffff168152602001908152602001600020600081546001900391905081905550600660008673ffffffffffffffffffffffffffffffffffffffff1673ffffffffffffffffffffffffffffffffffffffff1681526020019081526020016000206000815460010191905081905550610a7485610a5088888761147c565b7c0200000000000000000000000000000000000000000000000000000000176114a4565b600560008681526020019081526020016000208190555060007c020000000000000000000000000000000000000000000000000000000084161415610afc576000600185019050600060056000838152602001908152602001600020541415610afa576001548114610af9578360056000838152602001908152602001600020819055505b5b505b838573ffffffffffffffffffffffffffffffffffffffff168773ffffffffffffffffffffffffffffffffffffffff167fddf252ad1be2c89b69c2b068fc378daa952ba7f163c4a11628f55a4df523b3ef60405160405180910390a4610b6486868660016114cf565b505050505050565b606481565b610b796114d5565b60003373ffffffffffffffffffffffffffffffffffffffff1647604051610b9f906120f6565b60006040518083038185875af1925050503d8060008114610bdc576040519150601f19603f3d011682016040523d82523d6000602084013e610be1565b606091505b5050905080610c25576040517f08c379a0000000000000000000000000000000000000000000000000000000008152600401610c1c9061224f565b60405180910390fd5b50565b600960009054906101000a900460ff1615610c78576040517f08c379a0000000000000000000000000000000000000000000000000000000008152600401610c6f9061226f565b60405180910390fd5b606481610c83611553565b610c8d919061234e565b1115610cce576040517f08c379a0000000000000000000000000000000000000000000000000000000008152600401610cc59061222f565b60405180910390fd5b662386f26fc1000081610ce191906123a4565b341015610d23576040517f08c379a0000000000000000000000000000000000000000000000000000000008152600401610d1a906121cf565b60405180910390fd5b610d2d8282611566565b5050565b610d4c83838360405180602001604052806000815250611032565b505050565b610d596114d5565b8181600a9190610d6a929190611a54565b505050565b6000610d7a8261133d565b9050919050565b60008073ffffffffffffffffffffffffffffffffffffffff168273ffffffffffffffffffffffffffffffffffffffff161415610de9576040517f8f4eb60400000000000000000000000000000000000000000000000000000000815260040160405180910390fd5b67ffffffffffffffff600660008473ffffffffffffffffffffffffffffffffffffffff1673ffffffffffffffffffffffffffffffffffffffff16815260200190815260200160002054169050919050565b610e426114d5565b610e4c6000611724565b565b600960009054906101000a900460ff1681565b662386f26fc1000081565b60008060009054906101000a900473ffffffffffffffffffffffffffffffffffffffff16905090565b606060048054610ea4906124b4565b80601f0160208091040260200160405190810160405280929190818152602001828054610ed0906124b4565b8015610f1d5780601f10610ef257610100808354040283529160200191610f1d565b820191906000526020600020905b815481529060010190602001808311610f0057829003601f168201915b5050505050905090565b8060086000610f34611330565b73ffffffffffffffffffffffffffffffffffffffff1673ffffffffffffffffffffffffffffffffffffffff16815260200190815260200160002060008473ffffffffffffffffffffffffffffffffffffffff1673ffffffffffffffffffffffffffffffffffffffff16815260200190815260200160002060006101000a81548160ff0219169083151502179055508173ffffffffffffffffffffffffffffffffffffffff16610fe1611330565b73ffffffffffffffffffffffffffffffffffffffff167f17307eab39ab6107e8899845ad3d59bd9653f200f220920489ca2b5937696c31836040516110269190612172565b60405180910390a35050565b61103d848484610847565b60008373ffffffffffffffffffffffffffffffffffffffff163b1461109f57611068848484846117e8565b61109e576040517fd1a57ed600000000000000000000000000000000000000000000000000000000815260040160405180910390fd5b5b50505050565b60606110b0826112d1565b6110e6576040517fa14c4b5000000000000000000000000000000000000000000000000000000000815260040160405180910390fd5b60006110f0611948565b9050600081511415611111576040518060200160405280600081525061113c565b8061111b846119da565b60405160200161112c9291906120d2565b6040516020818303038152906040525b915050919050565b6000600860008473ffffffffffffffffffffffffffffffffffffffff1673ffffffffffffffffffffffffffffffffffffffff16815260200190815260200160002060008373ffffffffffffffffffffffffffffffffffffffff1673ffffffffffffffffffffffffffffffffffffffff16815260200190815260200160002060009054906101000a900460ff16905092915050565b6111e06114d5565b600073ffffffffffffffffffffffffffffffffffffffff168173ffffffffffffffffffffffffffffffffffffffff161415611250576040517f08c379a0000000000000000000000000000000000000000000000000000000008152600401611247906121af565b60405180910390fd5b61125981611724565b50565b6112646114d5565b600960009054906101000a900460ff16156112b4576040517f08c379a00000000000000000000000000000000000000000000000000000000081526004016112ab906121ef565b60405180910390fd5b80600960006101000a81548160ff02191690831515021790555050565b6000816112dc611338565b111580156112eb575060015482105b8015611329575060007c0100000000000000000000000000000000000000000000000000000000600560008581526020019081526020016000205416145b9050919050565b600033905090565b600090565b6000808290508061134c611338565b116113d4576001548110156113d35760006005600083815260200190815260200160002054905060007c0100000000000000000000000000000000000000000000000000000000821614156113d1575b60008114156113c757600560008360019003935083815260200190815260200160002054905061139c565b8092505050611406565b505b5b6040517fdf2d9b4200000000000000000000000000000000000000000000000000000000815260040160405180910390fd5b919050565b60008060006007600085815260200190815260200160002090508092508254915050915091565b600073ffffffffffffffffffffffffffffffffffffffff8316925073ffffffffffffffffffffffffffffffffffffffff821691508382148383141790509392505050565b50505050565b60008060e883901c905060e8611493868684611a33565b62ffffff16901b9150509392505050565b600073ffffffffffffffffffffffffffffffffffffffff83169250814260a01b178317905092915050565b50505050565b6114dd611a3c565b73ffffffffffffffffffffffffffffffffffffffff166114fb610e6c565b73ffffffffffffffffffffffffffffffffffffffff1614611551576040517f08c379a00000000000000000000000000000000000000000000000000000000081526004016115489061220f565b60405180910390fd5b565b600061155d611338565b60015403905090565b6000600154905060008214156115a8576040517fb562e8dd00000000000000000000000000000000000000000000000000000000815260040160405180910390fd5b6115b56000848385611476565b600160406001901b178202600660008573ffffffffffffffffffffffffffffffffffffffff1673ffffffffffffffffffffffffffffffffffffffff1681526020019081526020016000206000828254019250508190555061162c8361161d600086600061147c565b61162685611a44565b176114a4565b6005600083815260200190815260200160002081905550600080838301905073ffffffffffffffffffffffffffffffffffffffff85169150828260007fddf252ad1be2c89b69c2b068fc378daa952ba7f163c4a11628f55a4df523b3ef600080a4600183015b8181146116cd57808360007fddf252ad1be2c89b69c2b068fc378daa952ba7f163c4a11628f55a4df523b3ef600080a4600181019050611692565b506000821415611709576040517f2e07630000000000000000000000000000000000000000000000000000000000815260040160405180910390fd5b80600181905550505061171f60008483856114cf565b505050565b60008060009054906101000a900473ffffffffffffffffffffffffffffffffffffffff169050816000806101000a81548173ffffffffffffffffffffffffffffffffffffffff021916908373ffffffffffffffffffffffffffffffffffffffff1602179055508173ffffffffffffffffffffffffffffffffffffffff168173ffffffffffffffffffffffffffffffffffffffff167f8be0079c531659141344cd1fd0a4f28419497f9722a3daafe3b4186f6b6457e060405160405180910390a35050565b60008373ffffffffffffffffffffffffffffffffffffffff1663150b7a0261180e611330565b8786866040518563ffffffff1660e01b81526004016118309493929190612126565b602060405180830381600087803b15801561184a57600080fd5b505af192505050801561187b57506040513d601f19601f820116820180604052508101906118789190611e43565b60015b6118f5573d80600081146118ab576040519150601f19603f3d011682016040523d82523d6000602084013e6118b0565b606091505b506000815114156118ed576040517fd1a57ed600000000000000000000000000000000000000000000000000000000815260040160405180910390fd5b805181602001fd5b63150b7a0260e01b7bffffffffffffffffffffffffffffffffffffffffffffffffffffffff1916817bffffffffffffffffffffffffffffffffffffffffffffffffffffffff191614915050949350505050565b6060600a8054611957906124b4565b80601f0160208091040260200160405190810160405280929190818152602001828054611983906124b4565b80156119d05780601f106119a5576101008083540402835291602001916119d0565b820191906000526020600020905b8154815290600101906020018083116119b357829003601f168201915b5050505050905090565b606060a060405101806040526020810391506000825281835b600115611a1e57600184039350600a81066030018453600a8104905080611a1957611a1e565b6119f3565b50828103602084039350808452505050919050565b60009392505050565b600033905090565b60006001821460e11b9050919050565b828054611a60906124b4565b90600052602060002090601f016020900481019282611a825760008555611ac9565b82601f10611a9b57803560ff1916838001178555611ac9565b82800160010185558215611ac9579182015b82811115611ac8578235825591602001919060010190611aad565b5b509050611ad69190611ada565b5090565b5b80821115611af3576000816000905550600101611adb565b5090565b6000611b0a611b05846122cf565b6122aa565b905082815260208101848484011115611b2657611b256125b3565b5b611b31848285612472565b509392505050565b600081359050611b488161271b565b92915050565b600081359050611b5d81612732565b92915050565b600081359050611b7281612749565b92915050565b600081519050611b8781612749565b92915050565b600082601f830112611ba257611ba16125a9565b5b8135611bb2848260208601611af7565b91505092915050565b60008083601f840112611bd157611bd06125a9565b5b8235905067ffffffffffffffff811115611bee57611bed6125a4565b5b602083019150836001820283011115611c0a57611c096125ae565b5b9250929050565b600081359050611c2081612760565b92915050565b600060208284031215611c3c57611c3b6125bd565b5b6000611c4a84828501611b39565b91505092915050565b60008060408385031215611c6a57611c696125bd565b5b6000611c7885828601611b39565b9250506020611c8985828601611b39565b9150509250929050565b600080600060608486031215611cac57611cab6125bd565b5b6000611cba86828701611b39565b9350506020611ccb86828701611b39565b9250506040611cdc86828701611c11565b9150509250925092565b60008060008060808587031215611d0057611cff6125bd565b5b6000611d0e87828801611b39565b9450506020611d1f87828801611b39565b9350506040611d3087828801611c11565b925050606085013567ffffffffffffffff811115611d5157611d506125b8565b5b611d5d87828801611b8d565b91505092959194509250565b60008060408385031215611d8057611d7f6125bd565b5b6000611d8e85828601611b39565b9250506020611d9f85828601611b4e565b9150509250929050565b60008060408385031215611dc057611dbf6125bd565b5b6000611dce85828601611b39565b9250506020611ddf85828601611c11565b9150509250929050565b600060208284031215611dff57611dfe6125bd565b5b6000611e0d84828501611b4e565b91505092915050565b600060208284031215611e2c57611e2b6125bd565b5b6000611e3a84828501611b63565b91505092915050565b600060208284031215611e5957611e586125bd565b5b6000611e6784828501611b78565b91505092915050565b60008060208385031215611e8757611e866125bd565b5b600083013567ffffffffffffffff811115611ea557611ea46125b8565b5b611eb185828601611bbb565b92509250509250929050565b600060208284031215611ed357611ed26125bd565b5b6000611ee184828501611c11565b91505092915050565b611ef3816123fe565b82525050565b611f0281612410565b82525050565b6000611f1382612300565b611f1d8185612316565b9350611f2d818560208601612481565b611f36816125c2565b840191505092915050565b6000611f4c8261230b565b611f568185612332565b9350611f66818560208601612481565b611f6f816125c2565b840191505092915050565b6000611f858261230b565b611f8f8185612343565b9350611f9f818560208601612481565b80840191505092915050565b6000611fb8602683612332565b9150611fc3826125d3565b604082019050919050565b6000611fdb601283612332565b9150611fe682612622565b602082019050919050565b6000611ffe601083612332565b91506120098261264b565b602082019050919050565b6000612021602083612332565b915061202c82612674565b602082019050919050565b6000612044600e83612332565b915061204f8261269d565b602082019050919050565b6000612067600f83612332565b9150612072826126c6565b602082019050919050565b600061208a600083612327565b9150612095826126ef565b600082019050919050565b60006120ad600e83612332565b91506120b8826126f2565b602082019050919050565b6120cc81612468565b82525050565b60006120de8285611f7a565b91506120ea8284611f7a565b91508190509392505050565b60006121018261207d565b9150819050919050565b60006020820190506121206000830184611eea565b92915050565b600060808201905061213b6000830187611eea565b6121486020830186611eea565b61215560408301856120c3565b81810360608301526121678184611f08565b905095945050505050565b60006020820190506121876000830184611ef9565b92915050565b600060208201905081810360008301526121a78184611f41565b905092915050565b600060208201905081810360008301526121c881611fab565b9050919050565b600060208201905081810360008301526121e881611fce565b9050919050565b6000602082019050818103600083015261220881611ff1565b9050919050565b6000602082019050818103600083015261222881612014565b9050919050565b6000602082019050818103600083015261224881612037565b9050919050565b600060208201905081810360008301526122688161205a565b9050919050565b60006020820190508181036000830152612288816120a0565b9050919050565b60006020820190506122a460008301846120c3565b92915050565b60006122b46122c5565b90506122c082826124e6565b919050565b6000604051905090565b600067ffffffffffffffff8211156122ea576122e9612575565b5b6122f3826125c2565b9050602081019050919050565b600081519050919050565b600081519050919050565b600082825260208201905092915050565b600081905092915050565b600082825260208201905092915050565b600081905092915050565b600061235982612468565b915061236483612468565b9250827fffffffffffffffffffffffffffffffffffffffffffffffffffffffffffffffff0382111561239957612398612517565b5b828201905092915050565b60006123af82612468565b91506123ba83612468565b9250817fffffffffffffffffffffffffffffffffffffffffffffffffffffffffffffffff04831182151516156123f3576123f2612517565b5b828202905092915050565b600061240982612448565b9050919050565b60008115159050919050565b60007fffffffff0000000000000000000000000000000000000000000000000000000082169050919050565b600073ffffffffffffffffffffffffffffffffffffffff82169050919050565b6000819050919050565b82818337600083830152505050565b60005b8381101561249f578082015181840152602081019050612484565b838111156124ae576000848401525b50505050565b600060028204905060018216806124cc57607f821691505b602082108114156124e0576124df612546565b5b50919050565b6124ef826125c2565b810181811067ffffffffffffffff8211171561250e5761250d612575565b5b80604052505050565b7f4e487b7100000000000000000000000000000000000000000000000000000000600052601160045260246000fd5b7f4e487b7100000000000000000000000000000000000000000000000000000000600052602260045260246000fd5b7f4e487b7100000000000000000000000000000000000000000000000000000000600052604160045260246000fd5b600080fd5b600080fd5b600080fd5b600080fd5b600080fd5b600080fd5b6000601f19601f8301169050919050565b7f4f776e61626c653a206e6577206f776e657220697320746865207a65726f206160008201527f6464726573730000000000000000000000000000000000000000000000000000602082015250565b7f496e73756666696369656e742046756e64730000000000000000000000000000600082015250565b7f436f6e7472616374207061757365642e00000000000000000000000000000000600082015250565b7f4f776e61626c653a2063616c6c6572206973206e6f7420746865206f776e6572600082015250565b7f4d617820537570706c7920486974000000000000000000000000000000000000600082015250565b7f5472616e73666572204661696c65640000000000000000000000000000000000600082015250565b50565b7f4d696e7420697320706175736564000000000000000000000000000000000000600082015250565b612724816123fe565b811461272f57600080fd5b50565b61273b81612410565b811461274657600080fd5b50565b6127528161241c565b811461275d57600080fd5b50565b61276981612468565b811461277457600080fd5b5056fea2646970667358221220678cf8aba97fc92313bba558104f8e5d5573177b61745fa2b0c78c787d93994e64736f6c63430008070033",
					"opcodes": "PUSH1 0x80 PUSH1 0x40 MSTORE CALLVALUE DUP1 ISZERO PUSH3 0x11 JUMPI PUSH1 0x0 DUP1 REVERT JUMPDEST POP PUSH1 0x40 MLOAD PUSH3 0x2B96 CODESIZE SUB DUP1 PUSH3 0x2B96 DUP4 CODECOPY DUP2 DUP2 ADD PUSH1 0x40 MSTORE DUP2 ADD SWAP1 PUSH3 0x37 SWAP2 SWAP1 PUSH3 0x2DE JUMP JUMPDEST PUSH1 0x40 MLOAD DUP1 PUSH1 0x40 ADD PUSH1 0x40 MSTORE DUP1 PUSH1 0xD DUP2 MSTORE PUSH1 0x20 ADD PUSH32 0x4552433732314120546F6B656E00000000000000000000000000000000000000 DUP2 MSTORE POP PUSH1 0x40 MLOAD DUP1 PUSH1 0x40 ADD PUSH1 0x40 MSTORE DUP1 PUSH1 0x5 DUP2 MSTORE PUSH1 0x20 ADD PUSH32 0x3732314154000000000000000000000000000000000000000000000000000000 DUP2 MSTORE POP PUSH3 0xC3 PUSH3 0xB7 PUSH3 0x12F PUSH1 0x20 SHL PUSH1 0x20 SHR JUMP JUMPDEST PUSH3 0x137 PUSH1 0x20 SHL PUSH1 0x20 SHR JUMP JUMPDEST DUP2 PUSH1 0x3 SWAP1 DUP1 MLOAD SWAP1 PUSH1 0x20 ADD SWAP1 PUSH3 0xDB SWAP3 SWAP2 SWAP1 PUSH3 0x200 JUMP JUMPDEST POP DUP1 PUSH1 0x4 SWAP1 DUP1 MLOAD SWAP1 PUSH1 0x20 ADD SWAP1 PUSH3 0xF4 SWAP3 SWAP2 SWAP1 PUSH3 0x200 JUMP JUMPDEST POP PUSH3 0x105 PUSH3 0x1FB PUSH1 0x20 SHL PUSH1 0x20 SHR JUMP JUMPDEST PUSH1 0x1 DUP2 SWAP1 SSTORE POP POP POP DUP1 PUSH1 0x9 PUSH1 0x0 PUSH2 0x100 EXP DUP2 SLOAD DUP2 PUSH1 0xFF MUL NOT AND SWAP1 DUP4 ISZERO ISZERO MUL OR SWAP1 SSTORE POP POP POP PUSH3 0x3D9 JUMP JUMPDEST PUSH1 0x0 CALLER SWAP1 POP SWAP1 JUMP JUMPDEST PUSH1 0x0 DUP1 PUSH1 0x0 SWAP1 SLOAD SWAP1 PUSH2 0x100 EXP SWAP1 DIV PUSH20 0xFFFFFFFFFFFFFFFFFFFFFFFFFFFFFFFFFFFFFFFF AND SWAP1 POP DUP2 PUSH1 0x0 DUP1 PUSH2 0x100 EXP DUP2 SLOAD DUP2 PUSH20 0xFFFFFFFFFFFFFFFFFFFFFFFFFFFFFFFFFFFFFFFF MUL NOT AND SWAP1 DUP4 PUSH20 0xFFFFFFFFFFFFFFFFFFFFFFFFFFFFFFFFFFFFFFFF AND MUL OR SWAP1 SSTORE POP DUP2 PUSH20 0xFFFFFFFFFFFFFFFFFFFFFFFFFFFFFFFFFFFFFFFF AND DUP2 PUSH20 0xFFFFFFFFFFFFFFFFFFFFFFFFFFFFFFFFFFFFFFFF AND PUSH32 0x8BE0079C531659141344CD1FD0A4F28419497F9722A3DAAFE3B4186F6B6457E0 PUSH1 0x40 MLOAD PUSH1 0x40 MLOAD DUP1 SWAP2 SUB SWAP1 LOG3 POP POP JUMP JUMPDEST PUSH1 0x0 SWAP1 JUMP JUMPDEST DUP3 DUP1 SLOAD PUSH3 0x20E SWAP1 PUSH3 0x33B JUMP JUMPDEST SWAP1 PUSH1 0x0 MSTORE PUSH1 0x20 PUSH1 0x0 KECCAK256 SWAP1 PUSH1 0x1F ADD PUSH1 0x20 SWAP1 DIV DUP2 ADD SWAP3 DUP3 PUSH3 0x232 JUMPI PUSH1 0x0 DUP6 SSTORE PUSH3 0x27E JUMP JUMPDEST DUP3 PUSH1 0x1F LT PUSH3 0x24D JUMPI DUP1 MLOAD PUSH1 0xFF NOT AND DUP4 DUP1 ADD OR DUP6 SSTORE PUSH3 0x27E JUMP JUMPDEST DUP3 DUP1 ADD PUSH1 0x1 ADD DUP6 SSTORE DUP3 ISZERO PUSH3 0x27E JUMPI SWAP2 DUP3 ADD JUMPDEST DUP3 DUP2 GT ISZERO PUSH3 0x27D JUMPI DUP3 MLOAD DUP3 SSTORE SWAP2 PUSH1 0x20 ADD SWAP2 SWAP1 PUSH1 0x1 ADD SWAP1 PUSH3 0x260 JUMP JUMPDEST JUMPDEST POP SWAP1 POP PUSH3 0x28D SWAP2 SWAP1 PUSH3 0x291 JUMP JUMPDEST POP SWAP1 JUMP JUMPDEST JUMPDEST DUP1 DUP3 GT ISZERO PUSH3 0x2AC JUMPI PUSH1 0x0 DUP2 PUSH1 0x0 SWAP1 SSTORE POP PUSH1 0x1 ADD PUSH3 0x292 JUMP JUMPDEST POP SWAP1 JUMP JUMPDEST PUSH1 0x0 DUP2 MLOAD SWAP1 POP PUSH3 0x2C1 DUP2 PUSH3 0x3A5 JUMP JUMPDEST SWAP3 SWAP2 POP POP JUMP JUMPDEST PUSH1 0x0 DUP2 MLOAD SWAP1 POP PUSH3 0x2D8 DUP2 PUSH3 0x3BF JUMP JUMPDEST SWAP3 SWAP2 POP POP JUMP JUMPDEST PUSH1 0x0 DUP1 PUSH1 0x40 DUP4 DUP6 SUB SLT ISZERO PUSH3 0x2F8 JUMPI PUSH3 0x2F7 PUSH3 0x3A0 JUMP JUMPDEST JUMPDEST PUSH1 0x0 PUSH3 0x308 DUP6 DUP3 DUP7 ADD PUSH3 0x2C7 JUMP JUMPDEST SWAP3 POP POP PUSH1 0x20 PUSH3 0x31B DUP6 DUP3 DUP7 ADD PUSH3 0x2B0 JUMP JUMPDEST SWAP2 POP POP SWAP3 POP SWAP3 SWAP1 POP JUMP JUMPDEST PUSH1 0x0 DUP2 ISZERO ISZERO SWAP1 POP SWAP2 SWAP1 POP JUMP JUMPDEST PUSH1 0x0 DUP2 SWAP1 POP SWAP2 SWAP1 POP JUMP JUMPDEST PUSH1 0x0 PUSH1 0x2 DUP3 DIV SWAP1 POP PUSH1 0x1 DUP3 AND DUP1 PUSH3 0x354 JUMPI PUSH1 0x7F DUP3 AND SWAP2 POP JUMPDEST PUSH1 0x20 DUP3 LT DUP2 EQ ISZERO PUSH3 0x36B JUMPI PUSH3 0x36A PUSH3 0x371 JUMP JUMPDEST JUMPDEST POP SWAP2 SWAP1 POP JUMP JUMPDEST PUSH32 0x4E487B7100000000000000000000000000000000000000000000000000000000 PUSH1 0x0 MSTORE PUSH1 0x22 PUSH1 0x4 MSTORE PUSH1 0x24 PUSH1 0x0 REVERT JUMPDEST PUSH1 0x0 DUP1 REVERT JUMPDEST PUSH3 0x3B0 DUP2 PUSH3 0x325 JUMP JUMPDEST DUP2 EQ PUSH3 0x3BC JUMPI PUSH1 0x0 DUP1 REVERT JUMPDEST POP JUMP JUMPDEST PUSH3 0x3CA DUP2 PUSH3 0x331 JUMP JUMPDEST DUP2 EQ PUSH3 0x3D6 JUMPI PUSH1 0x0 DUP1 REVERT JUMPDEST POP JUMP JUMPDEST PUSH2 0x27AD DUP1 PUSH3 0x3E9 PUSH1 0x0 CODECOPY PUSH1 0x0 RETURN INVALID PUSH1 0x80 PUSH1 0x40 MSTORE PUSH1 0x4 CALLDATASIZE LT PUSH2 0x14B JUMPI PUSH1 0x0 CALLDATALOAD PUSH1 0xE0 SHR DUP1 PUSH4 0x70A08231 GT PUSH2 0xB6 JUMPI DUP1 PUSH4 0xA22CB465 GT PUSH2 0x6F JUMPI DUP1 PUSH4 0xA22CB465 EQ PUSH2 0x438 JUMPI DUP1 PUSH4 0xB88D4FDE EQ PUSH2 0x461 JUMPI DUP1 PUSH4 0xC87B56DD EQ PUSH2 0x47D JUMPI DUP1 PUSH4 0xE985E9C5 EQ PUSH2 0x4BA JUMPI DUP1 PUSH4 0xF2FDE38B EQ PUSH2 0x4F7 JUMPI DUP1 PUSH4 0xF30E6E77 EQ PUSH2 0x520 JUMPI PUSH2 0x14B JUMP JUMPDEST DUP1 PUSH4 0x70A08231 EQ PUSH2 0x338 JUMPI DUP1 PUSH4 0x715018A6 EQ PUSH2 0x375 JUMPI DUP1 PUSH4 0x7E4831D3 EQ PUSH2 0x38C JUMPI DUP1 PUSH4 0x833B9499 EQ PUSH2 0x3B7 JUMPI DUP1 PUSH4 0x8DA5CB5B EQ PUSH2 0x3E2 JUMPI DUP1 PUSH4 0x95D89B41 EQ PUSH2 0x40D JUMPI PUSH2 0x14B JUMP JUMPDEST DUP1 PUSH4 0x32CB6B0C GT PUSH2 0x108 JUMPI DUP1 PUSH4 0x32CB6B0C EQ PUSH2 0x258 JUMPI DUP1 PUSH4 0x3CCFD60B EQ PUSH2 0x283 JUMPI DUP1 PUSH4 0x40C10F19 EQ PUSH2 0x29A JUMPI DUP1 PUSH4 0x42842E0E EQ PUSH2 0x2B6 JUMPI DUP1 PUSH4 0x55F804B3 EQ PUSH2 0x2D2 JUMPI DUP1 PUSH4 0x6352211E EQ PUSH2 0x2FB JUMPI PUSH2 0x14B JUMP JUMPDEST DUP1 PUSH4 0x1FFC9A7 EQ PUSH2 0x150 JUMPI DUP1 PUSH4 0x6FDDE03 EQ PUSH2 0x18D JUMPI DUP1 PUSH4 0x81812FC EQ PUSH2 0x1B8 JUMPI DUP1 PUSH4 0x95EA7B3 EQ PUSH2 0x1F5 JUMPI DUP1 PUSH4 0x18160DDD EQ PUSH2 0x211 JUMPI DUP1 PUSH4 0x23B872DD EQ PUSH2 0x23C JUMPI JUMPDEST PUSH1 0x0 DUP1 REVERT JUMPDEST CALLVALUE DUP1 ISZERO PUSH2 0x15C JUMPI PUSH1 0x0 DUP1 REVERT JUMPDEST POP PUSH2 0x177 PUSH1 0x4 DUP1 CALLDATASIZE SUB DUP2 ADD SWAP1 PUSH2 0x172 SWAP2 SWAP1 PUSH2 0x1E16 JUMP JUMPDEST PUSH2 0x549 JUMP JUMPDEST PUSH1 0x40 MLOAD PUSH2 0x184 SWAP2 SWAP1 PUSH2 0x2172 JUMP JUMPDEST PUSH1 0x40 MLOAD DUP1 SWAP2 SUB SWAP1 RETURN JUMPDEST CALLVALUE DUP1 ISZERO PUSH2 0x199 JUMPI PUSH1 0x0 DUP1 REVERT JUMPDEST POP PUSH2 0x1A2 PUSH2 0x5DB JUMP JUMPDEST PUSH1 0x40 MLOAD PUSH2 0x1AF SWAP2 SWAP1 PUSH2 0x218D JUMP JUMPDEST PUSH1 0x40 MLOAD DUP1 SWAP2 SUB SWAP1 RETURN JUMPDEST CALLVALUE DUP1 ISZERO PUSH2 0x1C4 JUMPI PUSH1 0x0 DUP1 REVERT JUMPDEST POP PUSH2 0x1DF PUSH1 0x4 DUP1 CALLDATASIZE SUB DUP2 ADD SWAP1 PUSH2 0x1DA SWAP2 SWAP1 PUSH2 0x1EBD JUMP JUMPDEST PUSH2 0x66D JUMP JUMPDEST PUSH1 0x40 MLOAD PUSH2 0x1EC SWAP2 SWAP1 PUSH2 0x210B JUMP JUMPDEST PUSH1 0x40 MLOAD DUP1 SWAP2 SUB SWAP1 RETURN JUMPDEST PUSH2 0x20F PUSH1 0x4 DUP1 CALLDATASIZE SUB DUP2 ADD SWAP1 PUSH2 0x20A SWAP2 SWAP1 PUSH2 0x1DA9 JUMP JUMPDEST PUSH2 0x6EC JUMP JUMPDEST STOP JUMPDEST CALLVALUE DUP1 ISZERO PUSH2 0x21D JUMPI PUSH1 0x0 DUP1 REVERT JUMPDEST POP PUSH2 0x226 PUSH2 0x830 JUMP JUMPDEST PUSH1 0x40 MLOAD PUSH2 0x233 SWAP2 SWAP1 PUSH2 0x228F JUMP JUMPDEST PUSH1 0x40 MLOAD DUP1 SWAP2 SUB SWAP1 RETURN JUMPDEST PUSH2 0x256 PUSH1 0x4 DUP1 CALLDATASIZE SUB DUP2 ADD SWAP1 PUSH2 0x251 SWAP2 SWAP1 PUSH2 0x1C93 JUMP JUMPDEST PUSH2 0x847 JUMP JUMPDEST STOP JUMPDEST CALLVALUE DUP1 ISZERO PUSH2 0x264 JUMPI PUSH1 0x0 DUP1 REVERT JUMPDEST POP PUSH2 0x26D PUSH2 0xB6C JUMP JUMPDEST PUSH1 0x40 MLOAD PUSH2 0x27A SWAP2 SWAP1 PUSH2 0x228F JUMP JUMPDEST PUSH1 0x40 MLOAD DUP1 SWAP2 SUB SWAP1 RETURN JUMPDEST CALLVALUE DUP1 ISZERO PUSH2 0x28F JUMPI PUSH1 0x0 DUP1 REVERT JUMPDEST POP PUSH2 0x298 PUSH2 0xB71 JUMP JUMPDEST STOP JUMPDEST PUSH2 0x2B4 PUSH1 0x4 DUP1 CALLDATASIZE SUB DUP2 ADD SWAP1 PUSH2 0x2AF SWAP2 SWAP1 PUSH2 0x1DA9 JUMP JUMPDEST PUSH2 0xC28 JUMP JUMPDEST STOP JUMPDEST PUSH2 0x2D0 PUSH1 0x4 DUP1 CALLDATASIZE SUB DUP2 ADD SWAP1 PUSH2 0x2CB SWAP2 SWAP1 PUSH2 0x1C93 JUMP JUMPDEST PUSH2 0xD31 JUMP JUMPDEST STOP JUMPDEST CALLVALUE DUP1 ISZERO PUSH2 0x2DE JUMPI PUSH1 0x0 DUP1 REVERT JUMPDEST POP PUSH2 0x2F9 PUSH1 0x4 DUP1 CALLDATASIZE SUB DUP2 ADD SWAP1 PUSH2 0x2F4 SWAP2 SWAP1 PUSH2 0x1E70 JUMP JUMPDEST PUSH2 0xD51 JUMP JUMPDEST STOP JUMPDEST CALLVALUE DUP1 ISZERO PUSH2 0x307 JUMPI PUSH1 0x0 DUP1 REVERT JUMPDEST POP PUSH2 0x322 PUSH1 0x4 DUP1 CALLDATASIZE SUB DUP2 ADD SWAP1 PUSH2 0x31D SWAP2 SWAP1 PUSH2 0x1EBD JUMP JUMPDEST PUSH2 0xD6F JUMP JUMPDEST PUSH1 0x40 MLOAD PUSH2 0x32F SWAP2 SWAP1 PUSH2 0x210B JUMP JUMPDEST PUSH1 0x40 MLOAD DUP1 SWAP2 SUB SWAP1 RETURN JUMPDEST CALLVALUE DUP1 ISZERO PUSH2 0x344 JUMPI PUSH1 0x0 DUP1 REVERT JUMPDEST POP PUSH2 0x35F PUSH1 0x4 DUP1 CALLDATASIZE SUB DUP2 ADD SWAP1 PUSH2 0x35A SWAP2 SWAP1 PUSH2 0x1C26 JUMP JUMPDEST PUSH2 0xD81 JUMP JUMPDEST PUSH1 0x40 MLOAD PUSH2 0x36C SWAP2 SWAP1 PUSH2 0x228F JUMP JUMPDEST PUSH1 0x40 MLOAD DUP1 SWAP2 SUB SWAP1 RETURN JUMPDEST CALLVALUE DUP1 ISZERO PUSH2 0x381 JUMPI PUSH1 0x0 DUP1 REVERT JUMPDEST POP PUSH2 0x38A PUSH2 0xE3A JUMP JUMPDEST STOP JUMPDEST CALLVALUE DUP1 ISZERO PUSH2 0x398 JUMPI PUSH1 0x0 DUP1 REVERT JUMPDEST POP PUSH2 0x3A1 PUSH2 0xE4E JUMP JUMPDEST PUSH1 0x40 MLOAD PUSH2 0x3AE SWAP2 SWAP1 PUSH2 0x2172 JUMP JUMPDEST PUSH1 0x40 MLOAD DUP1 SWAP2 SUB SWAP1 RETURN JUMPDEST CALLVALUE DUP1 ISZERO PUSH2 0x3C3 JUMPI PUSH1 0x0 DUP1 REVERT JUMPDEST POP PUSH2 0x3CC PUSH2 0xE61 JUMP JUMPDEST PUSH1 0x40 MLOAD PUSH2 0x3D9 SWAP2 SWAP1 PUSH2 0x228F JUMP JUMPDEST PUSH1 0x40 MLOAD DUP1 SWAP2 SUB SWAP1 RETURN JUMPDEST CALLVALUE DUP1 ISZERO PUSH2 0x3EE JUMPI PUSH1 0x0 DUP1 REVERT JUMPDEST POP PUSH2 0x3F7 PUSH2 0xE6C JUMP JUMPDEST PUSH1 0x40 MLOAD PUSH2 0x404 SWAP2 SWAP1 PUSH2 0x210B JUMP JUMPDEST PUSH1 0x40 MLOAD DUP1 SWAP2 SUB SWAP1 RETURN JUMPDEST CALLVALUE DUP1 ISZERO PUSH2 0x419 JUMPI PUSH1 0x0 DUP1 REVERT JUMPDEST POP PUSH2 0x422 PUSH2 0xE95 JUMP JUMPDEST PUSH1 0x40 MLOAD PUSH2 0x42F SWAP2 SWAP1 PUSH2 0x218D JUMP JUMPDEST PUSH1 0x40 MLOAD DUP1 SWAP2 SUB SWAP1 RETURN JUMPDEST CALLVALUE DUP1 ISZERO PUSH2 0x444 JUMPI PUSH1 0x0 DUP1 REVERT JUMPDEST POP PUSH2 0x45F PUSH1 0x4 DUP1 CALLDATASIZE SUB DUP2 ADD SWAP1 PUSH2 0x45A SWAP2 SWAP1 PUSH2 0x1D69 JUMP JUMPDEST PUSH2 0xF27 JUMP JUMPDEST STOP JUMPDEST PUSH2 0x47B PUSH1 0x4 DUP1 CALLDATASIZE SUB DUP2 ADD SWAP1 PUSH2 0x476 SWAP2 SWAP1 PUSH2 0x1CE6 JUMP JUMPDEST PUSH2 0x1032 JUMP JUMPDEST STOP JUMPDEST CALLVALUE DUP1 ISZERO PUSH2 0x489 JUMPI PUSH1 0x0 DUP1 REVERT JUMPDEST POP PUSH2 0x4A4 PUSH1 0x4 DUP1 CALLDATASIZE SUB DUP2 ADD SWAP1 PUSH2 0x49F SWAP2 SWAP1 PUSH2 0x1EBD JUMP JUMPDEST PUSH2 0x10A5 JUMP JUMPDEST PUSH1 0x40 MLOAD PUSH2 0x4B1 SWAP2 SWAP1 PUSH2 0x218D JUMP JUMPDEST PUSH1 0x40 MLOAD DUP1 SWAP2 SUB SWAP1 RETURN JUMPDEST CALLVALUE DUP1 ISZERO PUSH2 0x4C6 JUMPI PUSH1 0x0 DUP1 REVERT JUMPDEST POP PUSH2 0x4E1 PUSH1 0x4 DUP1 CALLDATASIZE SUB DUP2 ADD SWAP1 PUSH2 0x4DC SWAP2 SWAP1 PUSH2 0x1C53 JUMP JUMPDEST PUSH2 0x1144 JUMP JUMPDEST PUSH1 0x40 MLOAD PUSH2 0x4EE SWAP2 SWAP1 PUSH2 0x2172 JUMP JUMPDEST PUSH1 0x40 MLOAD DUP1 SWAP2 SUB SWAP1 RETURN JUMPDEST CALLVALUE DUP1 ISZERO PUSH2 0x503 JUMPI PUSH1 0x0 DUP1 REVERT JUMPDEST POP PUSH2 0x51E PUSH1 0x4 DUP1 CALLDATASIZE SUB DUP2 ADD SWAP1 PUSH2 0x519 SWAP2 SWAP1 PUSH2 0x1C26 JUMP JUMPDEST PUSH2 0x11D8 JUMP JUMPDEST STOP JUMPDEST CALLVALUE DUP1 ISZERO PUSH2 0x52C JUMPI PUSH1 0x0 DUP1 REVERT JUMPDEST POP PUSH2 0x547 PUSH1 0x4 DUP1 CALLDATASIZE SUB DUP2 ADD SWAP1 PUSH2 0x542 SWAP2 SWAP1 PUSH2 0x1DE9 JUMP JUMPDEST PUSH2 0x125C JUMP JUMPDEST STOP JUMPDEST PUSH1 0x0 PUSH4 0x1FFC9A7 PUSH1 0xE0 SHL DUP3 PUSH28 0xFFFFFFFFFFFFFFFFFFFFFFFFFFFFFFFFFFFFFFFFFFFFFFFFFFFFFFFF NOT AND EQ DUP1 PUSH2 0x5A4 JUMPI POP PUSH4 0x80AC58CD PUSH1 0xE0 SHL DUP3 PUSH28 0xFFFFFFFFFFFFFFFFFFFFFFFFFFFFFFFFFFFFFFFFFFFFFFFFFFFFFFFF NOT AND EQ JUMPDEST DUP1 PUSH2 0x5D4 JUMPI POP PUSH4 0x5B5E139F PUSH1 0xE0 SHL DUP3 PUSH28 0xFFFFFFFFFFFFFFFFFFFFFFFFFFFFFFFFFFFFFFFFFFFFFFFFFFFFFFFF NOT AND EQ JUMPDEST SWAP1 POP SWAP2 SWAP1 POP JUMP JUMPDEST PUSH1 0x60 PUSH1 0x3 DUP1 SLOAD PUSH2 0x5EA SWAP1 PUSH2 0x24B4 JUMP JUMPDEST DUP1 PUSH1 0x1F ADD PUSH1 0x20 DUP1 SWAP2 DIV MUL PUSH1 0x20 ADD PUSH1 0x40 MLOAD SWAP1 DUP2 ADD PUSH1 0x40 MSTORE DUP1 SWAP3 SWAP2 SWAP1 DUP2 DUP2 MSTORE PUSH1 0x20 ADD DUP3 DUP1 SLOAD PUSH2 0x616 SWAP1 PUSH2 0x24B4 JUMP JUMPDEST DUP1 ISZERO PUSH2 0x663 JUMPI DUP1 PUSH1 0x1F LT PUSH2 0x638 JUMPI PUSH2 0x100 DUP1 DUP4 SLOAD DIV MUL DUP4 MSTORE SWAP2 PUSH1 0x20 ADD SWAP2 PUSH2 0x663 JUMP JUMPDEST DUP3 ADD SWAP2 SWAP1 PUSH1 0x0 MSTORE PUSH1 0x20 PUSH1 0x0 KECCAK256 SWAP1 JUMPDEST DUP2 SLOAD DUP2 MSTORE SWAP1 PUSH1 0x1 ADD SWAP1 PUSH1 0x20 ADD DUP1 DUP4 GT PUSH2 0x646 JUMPI DUP3 SWAP1 SUB PUSH1 0x1F AND DUP3 ADD SWAP2 JUMPDEST POP POP POP POP POP SWAP1 POP SWAP1 JUMP JUMPDEST PUSH1 0x0 PUSH2 0x678 DUP3 PUSH2 0x12D1 JUMP JUMPDEST PUSH2 0x6AE JUMPI PUSH1 0x40 MLOAD PUSH32 0xCF4700E400000000000000000000000000000000000000000000000000000000 DUP2 MSTORE PUSH1 0x4 ADD PUSH1 0x40 MLOAD DUP1 SWAP2 SUB SWAP1 REVERT JUMPDEST PUSH1 0x7 PUSH1 0x0 DUP4 DUP2 MSTORE PUSH1 0x20 ADD SWAP1 DUP2 MSTORE PUSH1 0x20 ADD PUSH1 0x0 KECCAK256 PUSH1 0x0 ADD PUSH1 0x0 SWAP1 SLOAD SWAP1 PUSH2 0x100 EXP SWAP1 DIV PUSH20 0xFFFFFFFFFFFFFFFFFFFFFFFFFFFFFFFFFFFFFFFF AND SWAP1 POP SWAP2 SWAP1 POP JUMP JUMPDEST PUSH1 0x0 PUSH2 0x6F7 DUP3 PUSH2 0xD6F JUMP JUMPDEST SWAP1 POP DUP1 PUSH20 0xFFFFFFFFFFFFFFFFFFFFFFFFFFFFFFFFFFFFFFFF AND PUSH2 0x718 PUSH2 0x1330 JUMP JUMPDEST PUSH20 0xFFFFFFFFFFFFFFFFFFFFFFFFFFFFFFFFFFFFFFFF AND EQ PUSH2 0x77B JUMPI PUSH2 0x744 DUP2 PUSH2 0x73F PUSH2 0x1330 JUMP JUMPDEST PUSH2 0x1144 JUMP JUMPDEST PUSH2 0x77A JUMPI PUSH1 0x40 MLOAD PUSH32 0xCFB3B94200000000000000000000000000000000000000000000000000000000 DUP2 MSTORE PUSH1 0x4 ADD PUSH1 0x40 MLOAD DUP1 SWAP2 SUB SWAP1 REVERT JUMPDEST JUMPDEST DUP3 PUSH1 0x7 PUSH1 0x0 DUP5 DUP2 MSTORE PUSH1 0x20 ADD SWAP1 DUP2 MSTORE PUSH1 0x20 ADD PUSH1 0x0 KECCAK256 PUSH1 0x0 ADD PUSH1 0x0 PUSH2 0x100 EXP DUP2 SLOAD DUP2 PUSH20 0xFFFFFFFFFFFFFFFFFFFFFFFFFFFFFFFFFFFFFFFF MUL NOT AND SWAP1 DUP4 PUSH20 0xFFFFFFFFFFFFFFFFFFFFFFFFFFFFFFFFFFFFFFFF AND MUL OR SWAP1 SSTORE POP DUP2 DUP4 PUSH20 0xFFFFFFFFFFFFFFFFFFFFFFFFFFFFFFFFFFFFFFFF AND DUP3 PUSH20 0xFFFFFFFFFFFFFFFFFFFFFFFFFFFFFFFFFFFFFFFF AND PUSH32 0x8C5BE1E5EBEC7D5BD14F71427D1E84F3DD0314C0F7B2291E5B200AC8C7C3B925 PUSH1 0x40 MLOAD PUSH1 0x40 MLOAD DUP1 SWAP2 SUB SWAP1 LOG4 POP POP POP JUMP JUMPDEST PUSH1 0x0 PUSH2 0x83A PUSH2 0x1338 JUMP JUMPDEST PUSH1 0x2 SLOAD PUSH1 0x1 SLOAD SUB SUB SWAP1 POP SWAP1 JUMP JUMPDEST PUSH1 0x0 PUSH2 0x852 DUP3 PUSH2 0x133D JUMP JUMPDEST SWAP1 POP DUP4 PUSH20 0xFFFFFFFFFFFFFFFFFFFFFFFFFFFFFFFFFFFFFFFF AND DUP2 PUSH20 0xFFFFFFFFFFFFFFFFFFFFFFFFFFFFFFFFFFFFFFFF AND EQ PUSH2 0x8B9 JUMPI PUSH1 0x40 MLOAD PUSH32 0xA114810000000000000000000000000000000000000000000000000000000000 DUP2 MSTORE PUSH1 0x4 ADD PUSH1 0x40 MLOAD DUP1 SWAP2 SUB SWAP1 REVERT JUMPDEST PUSH1 0x0 DUP1 PUSH2 0x8C5 DUP5 PUSH2 0x140B JUMP JUMPDEST SWAP2 POP SWAP2 POP PUSH2 0x8DB DUP2 DUP8 PUSH2 0x8D6 PUSH2 0x1330 JUMP JUMPDEST PUSH2 0x1432 JUMP JUMPDEST PUSH2 0x927 JUMPI PUSH2 0x8F0 DUP7 PUSH2 0x8EB PUSH2 0x1330 JUMP JUMPDEST PUSH2 0x1144 JUMP JUMPDEST PUSH2 0x926 JUMPI PUSH1 0x40 MLOAD PUSH32 0x59C896BE00000000000000000000000000000000000000000000000000000000 DUP2 MSTORE PUSH1 0x4 ADD PUSH1 0x40 MLOAD DUP1 SWAP2 SUB SWAP1 REVERT JUMPDEST JUMPDEST PUSH1 0x0 PUSH20 0xFFFFFFFFFFFFFFFFFFFFFFFFFFFFFFFFFFFFFFFF AND DUP6 PUSH20 0xFFFFFFFFFFFFFFFFFFFFFFFFFFFFFFFFFFFFFFFF AND EQ ISZERO PUSH2 0x98E JUMPI PUSH1 0x40 MLOAD PUSH32 0xEA553B3400000000000000000000000000000000000000000000000000000000 DUP2 MSTORE PUSH1 0x4 ADD PUSH1 0x40 MLOAD DUP1 SWAP2 SUB SWAP1 REVERT JUMPDEST PUSH2 0x99B DUP7 DUP7 DUP7 PUSH1 0x1 PUSH2 0x1476 JUMP JUMPDEST DUP1 ISZERO PUSH2 0x9A6 JUMPI PUSH1 0x0 DUP3 SSTORE JUMPDEST PUSH1 0x6 PUSH1 0x0 DUP8 PUSH20 0xFFFFFFFFFFFFFFFFFFFFFFFFFFFFFFFFFFFFFFFF AND PUSH20 0xFFFFFFFFFFFFFFFFFFFFFFFFFFFFFFFFFFFFFFFF AND DUP2 MSTORE PUSH1 0x20 ADD SWAP1 DUP2 MSTORE PUSH1 0x20 ADD PUSH1 0x0 KECCAK256 PUSH1 0x0 DUP2 SLOAD PUSH1 0x1 SWAP1 SUB SWAP2 SWAP1 POP DUP2 SWAP1 SSTORE POP PUSH1 0x6 PUSH1 0x0 DUP7 PUSH20 0xFFFFFFFFFFFFFFFFFFFFFFFFFFFFFFFFFFFFFFFF AND PUSH20 0xFFFFFFFFFFFFFFFFFFFFFFFFFFFFFFFFFFFFFFFF AND DUP2 MSTORE PUSH1 0x20 ADD SWAP1 DUP2 MSTORE PUSH1 0x20 ADD PUSH1 0x0 KECCAK256 PUSH1 0x0 DUP2 SLOAD PUSH1 0x1 ADD SWAP2 SWAP1 POP DUP2 SWAP1 SSTORE POP PUSH2 0xA74 DUP6 PUSH2 0xA50 DUP9 DUP9 DUP8 PUSH2 0x147C JUMP JUMPDEST PUSH29 0x200000000000000000000000000000000000000000000000000000000 OR PUSH2 0x14A4 JUMP JUMPDEST PUSH1 0x5 PUSH1 0x0 DUP7 DUP2 MSTORE PUSH1 0x20 ADD SWAP1 DUP2 MSTORE PUSH1 0x20 ADD PUSH1 0x0 KECCAK256 DUP2 SWAP1 SSTORE POP PUSH1 0x0 PUSH29 0x200000000000000000000000000000000000000000000000000000000 DUP5 AND EQ ISZERO PUSH2 0xAFC JUMPI PUSH1 0x0 PUSH1 0x1 DUP6 ADD SWAP1 POP PUSH1 0x0 PUSH1 0x5 PUSH1 0x0 DUP4 DUP2 MSTORE PUSH1 0x20 ADD SWAP1 DUP2 MSTORE PUSH1 0x20 ADD PUSH1 0x0 KECCAK256 SLOAD EQ ISZERO PUSH2 0xAFA JUMPI PUSH1 0x1 SLOAD DUP2 EQ PUSH2 0xAF9 JUMPI DUP4 PUSH1 0x5 PUSH1 0x0 DUP4 DUP2 MSTORE PUSH1 0x20 ADD SWAP1 DUP2 MSTORE PUSH1 0x20 ADD PUSH1 0x0 KECCAK256 DUP2 SWAP1 SSTORE POP JUMPDEST JUMPDEST POP JUMPDEST DUP4 DUP6 PUSH20 0xFFFFFFFFFFFFFFFFFFFFFFFFFFFFFFFFFFFFFFFF AND DUP8 PUSH20 0xFFFFFFFFFFFFFFFFFFFFFFFFFFFFFFFFFFFFFFFF AND PUSH32 0xDDF252AD1BE2C89B69C2B068FC378DAA952BA7F163C4A11628F55A4DF523B3EF PUSH1 0x40 MLOAD PUSH1 0x40 MLOAD DUP1 SWAP2 SUB SWAP1 LOG4 PUSH2 0xB64 DUP7 DUP7 DUP7 PUSH1 0x1 PUSH2 0x14CF JUMP JUMPDEST POP POP POP POP POP POP JUMP JUMPDEST PUSH1 0x64 DUP2 JUMP JUMPDEST PUSH2 0xB79 PUSH2 0x14D5 JUMP JUMPDEST PUSH1 0x0 CALLER PUSH20 0xFFFFFFFFFFFFFFFFFFFFFFFFFFFFFFFFFFFFFFFF AND SELFBALANCE PUSH1 0x40 MLOAD PUSH2 0xB9F SWAP1 PUSH2 0x20F6 JUMP JUMPDEST PUSH1 0x0 PUSH1 0x40 MLOAD DUP1 DUP4 SUB DUP2 DUP6 DUP8 GAS CALL SWAP3 POP POP POP RETURNDATASIZE DUP1 PUSH1 0x0 DUP2 EQ PUSH2 0xBDC JUMPI PUSH1 0x40 MLOAD SWAP2 POP PUSH1 0x1F NOT PUSH1 0x3F RETURNDATASIZE ADD AND DUP3 ADD PUSH1 0x40 MSTORE RETURNDATASIZE DUP3 MSTORE RETURNDATASIZE PUSH1 0x0 PUSH1 0x20 DUP5 ADD RETURNDATACOPY PUSH2 0xBE1 JUMP JUMPDEST PUSH1 0x60 SWAP2 POP JUMPDEST POP POP SWAP1 POP DUP1 PUSH2 0xC25 JUMPI PUSH1 0x40 MLOAD PUSH32 0x8C379A000000000000000000000000000000000000000000000000000000000 DUP2 MSTORE PUSH1 0x4 ADD PUSH2 0xC1C SWAP1 PUSH2 0x224F JUMP JUMPDEST PUSH1 0x40 MLOAD DUP1 SWAP2 SUB SWAP1 REVERT JUMPDEST POP JUMP JUMPDEST PUSH1 0x9 PUSH1 0x0 SWAP1 SLOAD SWAP1 PUSH2 0x100 EXP SWAP1 DIV PUSH1 0xFF AND ISZERO PUSH2 0xC78 JUMPI PUSH1 0x40 MLOAD PUSH32 0x8C379A000000000000000000000000000000000000000000000000000000000 DUP2 MSTORE PUSH1 0x4 ADD PUSH2 0xC6F SWAP1 PUSH2 0x226F JUMP JUMPDEST PUSH1 0x40 MLOAD DUP1 SWAP2 SUB SWAP1 REVERT JUMPDEST PUSH1 0x64 DUP2 PUSH2 0xC83 PUSH2 0x1553 JUMP JUMPDEST PUSH2 0xC8D SWAP2 SWAP1 PUSH2 0x234E JUMP JUMPDEST GT ISZERO PUSH2 0xCCE JUMPI PUSH1 0x40 MLOAD PUSH32 0x8C379A000000000000000000000000000000000000000000000000000000000 DUP2 MSTORE PUSH1 0x4 ADD PUSH2 0xCC5 SWAP1 PUSH2 0x222F JUMP JUMPDEST PUSH1 0x40 MLOAD DUP1 SWAP2 SUB SWAP1 REVERT JUMPDEST PUSH7 0x2386F26FC10000 DUP2 PUSH2 0xCE1 SWAP2 SWAP1 PUSH2 0x23A4 JUMP JUMPDEST CALLVALUE LT ISZERO PUSH2 0xD23 JUMPI PUSH1 0x40 MLOAD PUSH32 0x8C379A000000000000000000000000000000000000000000000000000000000 DUP2 MSTORE PUSH1 0x4 ADD PUSH2 0xD1A SWAP1 PUSH2 0x21CF JUMP JUMPDEST PUSH1 0x40 MLOAD DUP1 SWAP2 SUB SWAP1 REVERT JUMPDEST PUSH2 0xD2D DUP3 DUP3 PUSH2 0x1566 JUMP JUMPDEST POP POP JUMP JUMPDEST PUSH2 0xD4C DUP4 DUP4 DUP4 PUSH1 0x40 MLOAD DUP1 PUSH1 0x20 ADD PUSH1 0x40 MSTORE DUP1 PUSH1 0x0 DUP2 MSTORE POP PUSH2 0x1032 JUMP JUMPDEST POP POP POP JUMP JUMPDEST PUSH2 0xD59 PUSH2 0x14D5 JUMP JUMPDEST DUP2 DUP2 PUSH1 0xA SWAP2 SWAP1 PUSH2 0xD6A SWAP3 SWAP2 SWAP1 PUSH2 0x1A54 JUMP JUMPDEST POP POP POP JUMP JUMPDEST PUSH1 0x0 PUSH2 0xD7A DUP3 PUSH2 0x133D JUMP JUMPDEST SWAP1 POP SWAP2 SWAP1 POP JUMP JUMPDEST PUSH1 0x0 DUP1 PUSH20 0xFFFFFFFFFFFFFFFFFFFFFFFFFFFFFFFFFFFFFFFF AND DUP3 PUSH20 0xFFFFFFFFFFFFFFFFFFFFFFFFFFFFFFFFFFFFFFFF AND EQ ISZERO PUSH2 0xDE9 JUMPI PUSH1 0x40 MLOAD PUSH32 0x8F4EB60400000000000000000000000000000000000000000000000000000000 DUP2 MSTORE PUSH1 0x4 ADD PUSH1 0x40 MLOAD DUP1 SWAP2 SUB SWAP1 REVERT JUMPDEST PUSH8 0xFFFFFFFFFFFFFFFF PUSH1 0x6 PUSH1 0x0 DUP5 PUSH20 0xFFFFFFFFFFFFFFFFFFFFFFFFFFFFFFFFFFFFFFFF AND PUSH20 0xFFFFFFFFFFFFFFFFFFFFFFFFFFFFFFFFFFFFFFFF AND DUP2 MSTORE PUSH1 0x20 ADD SWAP1 DUP2 MSTORE PUSH1 0x20 ADD PUSH1 0x0 KECCAK256 SLOAD AND SWAP1 POP SWAP2 SWAP1 POP JUMP JUMPDEST PUSH2 0xE42 PUSH2 0x14D5 JUMP JUMPDEST PUSH2 0xE4C PUSH1 0x0 PUSH2 0x1724 JUMP JUMPDEST JUMP JUMPDEST PUSH1 0x9 PUSH1 0x0 SWAP1 SLOAD SWAP1 PUSH2 0x100 EXP SWAP1 DIV PUSH1 0xFF AND DUP2 JUMP JUMPDEST PUSH7 0x2386F26FC10000 DUP2 JUMP JUMPDEST PUSH1 0x0 DUP1 PUSH1 0x0 SWAP1 SLOAD SWAP1 PUSH2 0x100 EXP SWAP1 DIV PUSH20 0xFFFFFFFFFFFFFFFFFFFFFFFFFFFFFFFFFFFFFFFF AND SWAP1 POP SWAP1 JUMP JUMPDEST PUSH1 0x60 PUSH1 0x4 DUP1 SLOAD PUSH2 0xEA4 SWAP1 PUSH2 0x24B4 JUMP JUMPDEST DUP1 PUSH1 0x1F ADD PUSH1 0x20 DUP1 SWAP2 DIV MUL PUSH1 0x20 ADD PUSH1 0x40 MLOAD SWAP1 DUP2 ADD PUSH1 0x40 MSTORE DUP1 SWAP3 SWAP2 SWAP1 DUP2 DUP2 MSTORE PUSH1 0x20 ADD DUP3 DUP1 SLOAD PUSH2 0xED0 SWAP1 PUSH2 0x24B4 JUMP JUMPDEST DUP1 ISZERO PUSH2 0xF1D JUMPI DUP1 PUSH1 0x1F LT PUSH2 0xEF2 JUMPI PUSH2 0x100 DUP1 DUP4 SLOAD DIV MUL DUP4 MSTORE SWAP2 PUSH1 0x20 ADD SWAP2 PUSH2 0xF1D JUMP JUMPDEST DUP3 ADD SWAP2 SWAP1 PUSH1 0x0 MSTORE PUSH1 0x20 PUSH1 0x0 KECCAK256 SWAP1 JUMPDEST DUP2 SLOAD DUP2 MSTORE SWAP1 PUSH1 0x1 ADD SWAP1 PUSH1 0x20 ADD DUP1 DUP4 GT PUSH2 0xF00 JUMPI DUP3 SWAP1 SUB PUSH1 0x1F AND DUP3 ADD SWAP2 JUMPDEST POP POP POP POP POP SWAP1 POP SWAP1 JUMP JUMPDEST DUP1 PUSH1 0x8 PUSH1 0x0 PUSH2 0xF34 PUSH2 0x1330 JUMP JUMPDEST PUSH20 0xFFFFFFFFFFFFFFFFFFFFFFFFFFFFFFFFFFFFFFFF AND PUSH20 0xFFFFFFFFFFFFFFFFFFFFFFFFFFFFFFFFFFFFFFFF AND DUP2 MSTORE PUSH1 0x20 ADD SWAP1 DUP2 MSTORE PUSH1 0x20 ADD PUSH1 0x0 KECCAK256 PUSH1 0x0 DUP5 PUSH20 0xFFFFFFFFFFFFFFFFFFFFFFFFFFFFFFFFFFFFFFFF AND PUSH20 0xFFFFFFFFFFFFFFFFFFFFFFFFFFFFFFFFFFFFFFFF AND DUP2 MSTORE PUSH1 0x20 ADD SWAP1 DUP2 MSTORE PUSH1 0x20 ADD PUSH1 0x0 KECCAK256 PUSH1 0x0 PUSH2 0x100 EXP DUP2 SLOAD DUP2 PUSH1 0xFF MUL NOT AND SWAP1 DUP4 ISZERO ISZERO MUL OR SWAP1 SSTORE POP DUP2 PUSH20 0xFFFFFFFFFFFFFFFFFFFFFFFFFFFFFFFFFFFFFFFF AND PUSH2 0xFE1 PUSH2 0x1330 JUMP JUMPDEST PUSH20 0xFFFFFFFFFFFFFFFFFFFFFFFFFFFFFFFFFFFFFFFF AND PUSH32 0x17307EAB39AB6107E8899845AD3D59BD9653F200F220920489CA2B5937696C31 DUP4 PUSH1 0x40 MLOAD PUSH2 0x1026 SWAP2 SWAP1 PUSH2 0x2172 JUMP JUMPDEST PUSH1 0x40 MLOAD DUP1 SWAP2 SUB SWAP1 LOG3 POP POP JUMP JUMPDEST PUSH2 0x103D DUP5 DUP5 DUP5 PUSH2 0x847 JUMP JUMPDEST PUSH1 0x0 DUP4 PUSH20 0xFFFFFFFFFFFFFFFFFFFFFFFFFFFFFFFFFFFFFFFF AND EXTCODESIZE EQ PUSH2 0x109F JUMPI PUSH2 0x1068 DUP5 DUP5 DUP5 DUP5 PUSH2 0x17E8 JUMP JUMPDEST PUSH2 0x109E JUMPI PUSH1 0x40 MLOAD PUSH32 0xD1A57ED600000000000000000000000000000000000000000000000000000000 DUP2 MSTORE PUSH1 0x4 ADD PUSH1 0x40 MLOAD DUP1 SWAP2 SUB SWAP1 REVERT JUMPDEST JUMPDEST POP POP POP POP JUMP JUMPDEST PUSH1 0x60 PUSH2 0x10B0 DUP3 PUSH2 0x12D1 JUMP JUMPDEST PUSH2 0x10E6 JUMPI PUSH1 0x40 MLOAD PUSH32 0xA14C4B5000000000000000000000000000000000000000000000000000000000 DUP2 MSTORE PUSH1 0x4 ADD PUSH1 0x40 MLOAD DUP1 SWAP2 SUB SWAP1 REVERT JUMPDEST PUSH1 0x0 PUSH2 0x10F0 PUSH2 0x1948 JUMP JUMPDEST SWAP1 POP PUSH1 0x0 DUP2 MLOAD EQ ISZERO PUSH2 0x1111 JUMPI PUSH1 0x40 MLOAD DUP1 PUSH1 0x20 ADD PUSH1 0x40 MSTORE DUP1 PUSH1 0x0 DUP2 MSTORE POP PUSH2 0x113C JUMP JUMPDEST DUP1 PUSH2 0x111B DUP5 PUSH2 0x19DA JUMP JUMPDEST PUSH1 0x40 MLOAD PUSH1 0x20 ADD PUSH2 0x112C SWAP3 SWAP2 SWAP1 PUSH2 0x20D2 JUMP JUMPDEST PUSH1 0x40 MLOAD PUSH1 0x20 DUP2 DUP4 SUB SUB DUP2 MSTORE SWAP1 PUSH1 0x40 MSTORE JUMPDEST SWAP2 POP POP SWAP2 SWAP1 POP JUMP JUMPDEST PUSH1 0x0 PUSH1 0x8 PUSH1 0x0 DUP5 PUSH20 0xFFFFFFFFFFFFFFFFFFFFFFFFFFFFFFFFFFFFFFFF AND PUSH20 0xFFFFFFFFFFFFFFFFFFFFFFFFFFFFFFFFFFFFFFFF AND DUP2 MSTORE PUSH1 0x20 ADD SWAP1 DUP2 MSTORE PUSH1 0x20 ADD PUSH1 0x0 KECCAK256 PUSH1 0x0 DUP4 PUSH20 0xFFFFFFFFFFFFFFFFFFFFFFFFFFFFFFFFFFFFFFFF AND PUSH20 0xFFFFFFFFFFFFFFFFFFFFFFFFFFFFFFFFFFFFFFFF AND DUP2 MSTORE PUSH1 0x20 ADD SWAP1 DUP2 MSTORE PUSH1 0x20 ADD PUSH1 0x0 KECCAK256 PUSH1 0x0 SWAP1 SLOAD SWAP1 PUSH2 0x100 EXP SWAP1 DIV PUSH1 0xFF AND SWAP1 POP SWAP3 SWAP2 POP POP JUMP JUMPDEST PUSH2 0x11E0 PUSH2 0x14D5 JUMP JUMPDEST PUSH1 0x0 PUSH20 0xFFFFFFFFFFFFFFFFFFFFFFFFFFFFFFFFFFFFFFFF AND DUP2 PUSH20 0xFFFFFFFFFFFFFFFFFFFFFFFFFFFFFFFFFFFFFFFF AND EQ ISZERO PUSH2 0x1250 JUMPI PUSH1 0x40 MLOAD PUSH32 0x8C379A000000000000000000000000000000000000000000000000000000000 DUP2 MSTORE PUSH1 0x4 ADD PUSH2 0x1247 SWAP1 PUSH2 0x21AF JUMP JUMPDEST PUSH1 0x40 MLOAD DUP1 SWAP2 SUB SWAP1 REVERT JUMPDEST PUSH2 0x1259 DUP2 PUSH2 0x1724 JUMP JUMPDEST POP JUMP JUMPDEST PUSH2 0x1264 PUSH2 0x14D5 JUMP JUMPDEST PUSH1 0x9 PUSH1 0x0 SWAP1 SLOAD SWAP1 PUSH2 0x100 EXP SWAP1 DIV PUSH1 0xFF AND ISZERO PUSH2 0x12B4 JUMPI PUSH1 0x40 MLOAD PUSH32 0x8C379A000000000000000000000000000000000000000000000000000000000 DUP2 MSTORE PUSH1 0x4 ADD PUSH2 0x12AB SWAP1 PUSH2 0x21EF JUMP JUMPDEST PUSH1 0x40 MLOAD DUP1 SWAP2 SUB SWAP1 REVERT JUMPDEST DUP1 PUSH1 0x9 PUSH1 0x0 PUSH2 0x100 EXP DUP2 SLOAD DUP2 PUSH1 0xFF MUL NOT AND SWAP1 DUP4 ISZERO ISZERO MUL OR SWAP1 SSTORE POP POP JUMP JUMPDEST PUSH1 0x0 DUP2 PUSH2 0x12DC PUSH2 0x1338 JUMP JUMPDEST GT ISZERO DUP1 ISZERO PUSH2 0x12EB JUMPI POP PUSH1 0x1 SLOAD DUP3 LT JUMPDEST DUP1 ISZERO PUSH2 0x1329 JUMPI POP PUSH1 0x0 PUSH29 0x100000000000000000000000000000000000000000000000000000000 PUSH1 0x5 PUSH1 0x0 DUP6 DUP2 MSTORE PUSH1 0x20 ADD SWAP1 DUP2 MSTORE PUSH1 0x20 ADD PUSH1 0x0 KECCAK256 SLOAD AND EQ JUMPDEST SWAP1 POP SWAP2 SWAP1 POP JUMP JUMPDEST PUSH1 0x0 CALLER SWAP1 POP SWAP1 JUMP JUMPDEST PUSH1 0x0 SWAP1 JUMP JUMPDEST PUSH1 0x0 DUP1 DUP3 SWAP1 POP DUP1 PUSH2 0x134C PUSH2 0x1338 JUMP JUMPDEST GT PUSH2 0x13D4 JUMPI PUSH1 0x1 SLOAD DUP2 LT ISZERO PUSH2 0x13D3 JUMPI PUSH1 0x0 PUSH1 0x5 PUSH1 0x0 DUP4 DUP2 MSTORE PUSH1 0x20 ADD SWAP1 DUP2 MSTORE PUSH1 0x20 ADD PUSH1 0x0 KECCAK256 SLOAD SWAP1 POP PUSH1 0x0 PUSH29 0x100000000000000000000000000000000000000000000000000000000 DUP3 AND EQ ISZERO PUSH2 0x13D1 JUMPI JUMPDEST PUSH1 0x0 DUP2 EQ ISZERO PUSH2 0x13C7 JUMPI PUSH1 0x5 PUSH1 0x0 DUP4 PUSH1 0x1 SWAP1 SUB SWAP4 POP DUP4 DUP2 MSTORE PUSH1 0x20 ADD SWAP1 DUP2 MSTORE PUSH1 0x20 ADD PUSH1 0x0 KECCAK256 SLOAD SWAP1 POP PUSH2 0x139C JUMP JUMPDEST DUP1 SWAP3 POP POP POP PUSH2 0x1406 JUMP JUMPDEST POP JUMPDEST JUMPDEST PUSH1 0x40 MLOAD PUSH32 0xDF2D9B4200000000000000000000000000000000000000000000000000000000 DUP2 MSTORE PUSH1 0x4 ADD PUSH1 0x40 MLOAD DUP1 SWAP2 SUB SWAP1 REVERT JUMPDEST SWAP2 SWAP1 POP JUMP JUMPDEST PUSH1 0x0 DUP1 PUSH1 0x0 PUSH1 0x7 PUSH1 0x0 DUP6 DUP2 MSTORE PUSH1 0x20 ADD SWAP1 DUP2 MSTORE PUSH1 0x20 ADD PUSH1 0x0 KECCAK256 SWAP1 POP DUP1 SWAP3 POP DUP3 SLOAD SWAP2 POP POP SWAP2 POP SWAP2 JUMP JUMPDEST PUSH1 0x0 PUSH20 0xFFFFFFFFFFFFFFFFFFFFFFFFFFFFFFFFFFFFFFFF DUP4 AND SWAP3 POP PUSH20 0xFFFFFFFFFFFFFFFFFFFFFFFFFFFFFFFFFFFFFFFF DUP3 AND SWAP2 POP DUP4 DUP3 EQ DUP4 DUP4 EQ OR SWAP1 POP SWAP4 SWAP3 POP POP POP JUMP JUMPDEST POP POP POP POP JUMP JUMPDEST PUSH1 0x0 DUP1 PUSH1 0xE8 DUP4 SWAP1 SHR SWAP1 POP PUSH1 0xE8 PUSH2 0x1493 DUP7 DUP7 DUP5 PUSH2 0x1A33 JUMP JUMPDEST PUSH3 0xFFFFFF AND SWAP1 SHL SWAP2 POP POP SWAP4 SWAP3 POP POP POP JUMP JUMPDEST PUSH1 0x0 PUSH20 0xFFFFFFFFFFFFFFFFFFFFFFFFFFFFFFFFFFFFFFFF DUP4 AND SWAP3 POP DUP2 TIMESTAMP PUSH1 0xA0 SHL OR DUP4 OR SWAP1 POP SWAP3 SWAP2 POP POP JUMP JUMPDEST POP POP POP POP JUMP JUMPDEST PUSH2 0x14DD PUSH2 0x1A3C JUMP JUMPDEST PUSH20 0xFFFFFFFFFFFFFFFFFFFFFFFFFFFFFFFFFFFFFFFF AND PUSH2 0x14FB PUSH2 0xE6C JUMP JUMPDEST PUSH20 0xFFFFFFFFFFFFFFFFFFFFFFFFFFFFFFFFFFFFFFFF AND EQ PUSH2 0x1551 JUMPI PUSH1 0x40 MLOAD PUSH32 0x8C379A000000000000000000000000000000000000000000000000000000000 DUP2 MSTORE PUSH1 0x4 ADD PUSH2 0x1548 SWAP1 PUSH2 0x220F JUMP JUMPDEST PUSH1 0x40 MLOAD DUP1 SWAP2 SUB SWAP1 REVERT JUMPDEST JUMP JUMPDEST PUSH1 0x0 PUSH2 0x155D PUSH2 0x1338 JUMP JUMPDEST PUSH1 0x1 SLOAD SUB SWAP1 POP SWAP1 JUMP JUMPDEST PUSH1 0x0 PUSH1 0x1 SLOAD SWAP1 POP PUSH1 0x0 DUP3 EQ ISZERO PUSH2 0x15A8 JUMPI PUSH1 0x40 MLOAD PUSH32 0xB562E8DD00000000000000000000000000000000000000000000000000000000 DUP2 MSTORE PUSH1 0x4 ADD PUSH1 0x40 MLOAD DUP1 SWAP2 SUB SWAP1 REVERT JUMPDEST PUSH2 0x15B5 PUSH1 0x0 DUP5 DUP4 DUP6 PUSH2 0x1476 JUMP JUMPDEST PUSH1 0x1 PUSH1 0x40 PUSH1 0x1 SWAP1 SHL OR DUP3 MUL PUSH1 0x6 PUSH1 0x0 DUP6 PUSH20 0xFFFFFFFFFFFFFFFFFFFFFFFFFFFFFFFFFFFFFFFF AND PUSH20 0xFFFFFFFFFFFFFFFFFFFFFFFFFFFFFFFFFFFFFFFF AND DUP2 MSTORE PUSH1 0x20 ADD SWAP1 DUP2 MSTORE PUSH1 0x20 ADD PUSH1 0x0 KECCAK256 PUSH1 0x0 DUP3 DUP3 SLOAD ADD SWAP3 POP POP DUP2 SWAP1 SSTORE POP PUSH2 0x162C DUP4 PUSH2 0x161D PUSH1 0x0 DUP7 PUSH1 0x0 PUSH2 0x147C JUMP JUMPDEST PUSH2 0x1626 DUP6 PUSH2 0x1A44 JUMP JUMPDEST OR PUSH2 0x14A4 JUMP JUMPDEST PUSH1 0x5 PUSH1 0x0 DUP4 DUP2 MSTORE PUSH1 0x20 ADD SWAP1 DUP2 MSTORE PUSH1 0x20 ADD PUSH1 0x0 KECCAK256 DUP2 SWAP1 SSTORE POP PUSH1 0x0 DUP1 DUP4 DUP4 ADD SWAP1 POP PUSH20 0xFFFFFFFFFFFFFFFFFFFFFFFFFFFFFFFFFFFFFFFF DUP6 AND SWAP2 POP DUP3 DUP3 PUSH1 0x0 PUSH32 0xDDF252AD1BE2C89B69C2B068FC378DAA952BA7F163C4A11628F55A4DF523B3EF PUSH1 0x0 DUP1 LOG4 PUSH1 0x1 DUP4 ADD JUMPDEST DUP2 DUP2 EQ PUSH2 0x16CD JUMPI DUP1 DUP4 PUSH1 0x0 PUSH32 0xDDF252AD1BE2C89B69C2B068FC378DAA952BA7F163C4A11628F55A4DF523B3EF PUSH1 0x0 DUP1 LOG4 PUSH1 0x1 DUP2 ADD SWAP1 POP PUSH2 0x1692 JUMP JUMPDEST POP PUSH1 0x0 DUP3 EQ ISZERO PUSH2 0x1709 JUMPI PUSH1 0x40 MLOAD PUSH32 0x2E07630000000000000000000000000000000000000000000000000000000000 DUP2 MSTORE PUSH1 0x4 ADD PUSH1 0x40 MLOAD DUP1 SWAP2 SUB SWAP1 REVERT JUMPDEST DUP1 PUSH1 0x1 DUP2 SWAP1 SSTORE POP POP POP PUSH2 0x171F PUSH1 0x0 DUP5 DUP4 DUP6 PUSH2 0x14CF JUMP JUMPDEST POP POP POP JUMP JUMPDEST PUSH1 0x0 DUP1 PUSH1 0x0 SWAP1 SLOAD SWAP1 PUSH2 0x100 EXP SWAP1 DIV PUSH20 0xFFFFFFFFFFFFFFFFFFFFFFFFFFFFFFFFFFFFFFFF AND SWAP1 POP DUP2 PUSH1 0x0 DUP1 PUSH2 0x100 EXP DUP2 SLOAD DUP2 PUSH20 0xFFFFFFFFFFFFFFFFFFFFFFFFFFFFFFFFFFFFFFFF MUL NOT AND SWAP1 DUP4 PUSH20 0xFFFFFFFFFFFFFFFFFFFFFFFFFFFFFFFFFFFFFFFF AND MUL OR SWAP1 SSTORE POP DUP2 PUSH20 0xFFFFFFFFFFFFFFFFFFFFFFFFFFFFFFFFFFFFFFFF AND DUP2 PUSH20 0xFFFFFFFFFFFFFFFFFFFFFFFFFFFFFFFFFFFFFFFF AND PUSH32 0x8BE0079C531659141344CD1FD0A4F28419497F9722A3DAAFE3B4186F6B6457E0 PUSH1 0x40 MLOAD PUSH1 0x40 MLOAD DUP1 SWAP2 SUB SWAP1 LOG3 POP POP JUMP JUMPDEST PUSH1 0x0 DUP4 PUSH20 0xFFFFFFFFFFFFFFFFFFFFFFFFFFFFFFFFFFFFFFFF AND PUSH4 0x150B7A02 PUSH2 0x180E PUSH2 0x1330 JUMP JUMPDEST DUP8 DUP7 DUP7 PUSH1 0x40 MLOAD DUP6 PUSH4 0xFFFFFFFF AND PUSH1 0xE0 SHL DUP2 MSTORE PUSH1 0x4 ADD PUSH2 0x1830 SWAP5 SWAP4 SWAP3 SWAP2 SWAP1 PUSH2 0x2126 JUMP JUMPDEST PUSH1 0x20 PUSH1 0x40 MLOAD DUP1 DUP4 SUB DUP2 PUSH1 0x0 DUP8 DUP1 EXTCODESIZE ISZERO DUP1 ISZERO PUSH2 0x184A JUMPI PUSH1 0x0 DUP1 REVERT JUMPDEST POP GAS CALL SWAP3 POP POP POP DUP1 ISZERO PUSH2 0x187B JUMPI POP PUSH1 0x40 MLOAD RETURNDATASIZE PUSH1 0x1F NOT PUSH1 0x1F DUP3 ADD AND DUP3 ADD DUP1 PUSH1 0x40 MSTORE POP DUP2 ADD SWAP1 PUSH2 0x1878 SWAP2 SWAP1 PUSH2 0x1E43 JUMP JUMPDEST PUSH1 0x1 JUMPDEST PUSH2 0x18F5 JUMPI RETURNDATASIZE DUP1 PUSH1 0x0 DUP2 EQ PUSH2 0x18AB JUMPI PUSH1 0x40 MLOAD SWAP2 POP PUSH1 0x1F NOT PUSH1 0x3F RETURNDATASIZE ADD AND DUP3 ADD PUSH1 0x40 MSTORE RETURNDATASIZE DUP3 MSTORE RETURNDATASIZE PUSH1 0x0 PUSH1 0x20 DUP5 ADD RETURNDATACOPY PUSH2 0x18B0 JUMP JUMPDEST PUSH1 0x60 SWAP2 POP JUMPDEST POP PUSH1 0x0 DUP2 MLOAD EQ ISZERO PUSH2 0x18ED JUMPI PUSH1 0x40 MLOAD PUSH32 0xD1A57ED600000000000000000000000000000000000000000000000000000000 DUP2 MSTORE PUSH1 0x4 ADD PUSH1 0x40 MLOAD DUP1 SWAP2 SUB SWAP1 REVERT JUMPDEST DUP1 MLOAD DUP2 PUSH1 0x20 ADD REVERT JUMPDEST PUSH4 0x150B7A02 PUSH1 0xE0 SHL PUSH28 0xFFFFFFFFFFFFFFFFFFFFFFFFFFFFFFFFFFFFFFFFFFFFFFFFFFFFFFFF NOT AND DUP2 PUSH28 0xFFFFFFFFFFFFFFFFFFFFFFFFFFFFFFFFFFFFFFFFFFFFFFFFFFFFFFFF NOT AND EQ SWAP2 POP POP SWAP5 SWAP4 POP POP POP POP JUMP JUMPDEST PUSH1 0x60 PUSH1 0xA DUP1 SLOAD PUSH2 0x1957 SWAP1 PUSH2 0x24B4 JUMP JUMPDEST DUP1 PUSH1 0x1F ADD PUSH1 0x20 DUP1 SWAP2 DIV MUL PUSH1 0x20 ADD PUSH1 0x40 MLOAD SWAP1 DUP2 ADD PUSH1 0x40 MSTORE DUP1 SWAP3 SWAP2 SWAP1 DUP2 DUP2 MSTORE PUSH1 0x20 ADD DUP3 DUP1 SLOAD PUSH2 0x1983 SWAP1 PUSH2 0x24B4 JUMP JUMPDEST DUP1 ISZERO PUSH2 0x19D0 JUMPI DUP1 PUSH1 0x1F LT PUSH2 0x19A5 JUMPI PUSH2 0x100 DUP1 DUP4 SLOAD DIV MUL DUP4 MSTORE SWAP2 PUSH1 0x20 ADD SWAP2 PUSH2 0x19D0 JUMP JUMPDEST DUP3 ADD SWAP2 SWAP1 PUSH1 0x0 MSTORE PUSH1 0x20 PUSH1 0x0 KECCAK256 SWAP1 JUMPDEST DUP2 SLOAD DUP2 MSTORE SWAP1 PUSH1 0x1 ADD SWAP1 PUSH1 0x20 ADD DUP1 DUP4 GT PUSH2 0x19B3 JUMPI DUP3 SWAP1 SUB PUSH1 0x1F AND DUP3 ADD SWAP2 JUMPDEST POP POP POP POP POP SWAP1 POP SWAP1 JUMP JUMPDEST PUSH1 0x60 PUSH1 0xA0 PUSH1 0x40 MLOAD ADD DUP1 PUSH1 0x40 MSTORE PUSH1 0x20 DUP2 SUB SWAP2 POP PUSH1 0x0 DUP3 MSTORE DUP2 DUP4 JUMPDEST PUSH1 0x1 ISZERO PUSH2 0x1A1E JUMPI PUSH1 0x1 DUP5 SUB SWAP4 POP PUSH1 0xA DUP2 MOD PUSH1 0x30 ADD DUP5 MSTORE8 PUSH1 0xA DUP2 DIV SWAP1 POP DUP1 PUSH2 0x1A19 JUMPI PUSH2 0x1A1E JUMP JUMPDEST PUSH2 0x19F3 JUMP JUMPDEST POP DUP3 DUP2 SUB PUSH1 0x20 DUP5 SUB SWAP4 POP DUP1 DUP5 MSTORE POP POP POP SWAP2 SWAP1 POP JUMP JUMPDEST PUSH1 0x0 SWAP4 SWAP3 POP POP POP JUMP JUMPDEST PUSH1 0x0 CALLER SWAP1 POP SWAP1 JUMP JUMPDEST PUSH1 0x0 PUSH1 0x1 DUP3 EQ PUSH1 0xE1 SHL SWAP1 POP SWAP2 SWAP1 POP JUMP JUMPDEST DUP3 DUP1 SLOAD PUSH2 0x1A60 SWAP1 PUSH2 0x24B4 JUMP JUMPDEST SWAP1 PUSH1 0x0 MSTORE PUSH1 0x20 PUSH1 0x0 KECCAK256 SWAP1 PUSH1 0x1F ADD PUSH1 0x20 SWAP1 DIV DUP2 ADD SWAP3 DUP3 PUSH2 0x1A82 JUMPI PUSH1 0x0 DUP6 SSTORE PUSH2 0x1AC9 JUMP JUMPDEST DUP3 PUSH1 0x1F LT PUSH2 0x1A9B JUMPI DUP1 CALLDATALOAD PUSH1 0xFF NOT AND DUP4 DUP1 ADD OR DUP6 SSTORE PUSH2 0x1AC9 JUMP JUMPDEST DUP3 DUP1 ADD PUSH1 0x1 ADD DUP6 SSTORE DUP3 ISZERO PUSH2 0x1AC9 JUMPI SWAP2 DUP3 ADD JUMPDEST DUP3 DUP2 GT ISZERO PUSH2 0x1AC8 JUMPI DUP3 CALLDATALOAD DUP3 SSTORE SWAP2 PUSH1 0x20 ADD SWAP2 SWAP1 PUSH1 0x1 ADD SWAP1 PUSH2 0x1AAD JUMP JUMPDEST JUMPDEST POP SWAP1 POP PUSH2 0x1AD6 SWAP2 SWAP1 PUSH2 0x1ADA JUMP JUMPDEST POP SWAP1 JUMP JUMPDEST JUMPDEST DUP1 DUP3 GT ISZERO PUSH2 0x1AF3 JUMPI PUSH1 0x0 DUP2 PUSH1 0x0 SWAP1 SSTORE POP PUSH1 0x1 ADD PUSH2 0x1ADB JUMP JUMPDEST POP SWAP1 JUMP JUMPDEST PUSH1 0x0 PUSH2 0x1B0A PUSH2 0x1B05 DUP5 PUSH2 0x22CF JUMP JUMPDEST PUSH2 0x22AA JUMP JUMPDEST SWAP1 POP DUP3 DUP2 MSTORE PUSH1 0x20 DUP2 ADD DUP5 DUP5 DUP5 ADD GT ISZERO PUSH2 0x1B26 JUMPI PUSH2 0x1B25 PUSH2 0x25B3 JUMP JUMPDEST JUMPDEST PUSH2 0x1B31 DUP5 DUP3 DUP6 PUSH2 0x2472 JUMP JUMPDEST POP SWAP4 SWAP3 POP POP POP JUMP JUMPDEST PUSH1 0x0 DUP2 CALLDATALOAD SWAP1 POP PUSH2 0x1B48 DUP2 PUSH2 0x271B JUMP JUMPDEST SWAP3 SWAP2 POP POP JUMP JUMPDEST PUSH1 0x0 DUP2 CALLDATALOAD SWAP1 POP PUSH2 0x1B5D DUP2 PUSH2 0x2732 JUMP JUMPDEST SWAP3 SWAP2 POP POP JUMP JUMPDEST PUSH1 0x0 DUP2 CALLDATALOAD SWAP1 POP PUSH2 0x1B72 DUP2 PUSH2 0x2749 JUMP JUMPDEST SWAP3 SWAP2 POP POP JUMP JUMPDEST PUSH1 0x0 DUP2 MLOAD SWAP1 POP PUSH2 0x1B87 DUP2 PUSH2 0x2749 JUMP JUMPDEST SWAP3 SWAP2 POP POP JUMP JUMPDEST PUSH1 0x0 DUP3 PUSH1 0x1F DUP4 ADD SLT PUSH2 0x1BA2 JUMPI PUSH2 0x1BA1 PUSH2 0x25A9 JUMP JUMPDEST JUMPDEST DUP2 CALLDATALOAD PUSH2 0x1BB2 DUP5 DUP3 PUSH1 0x20 DUP7 ADD PUSH2 0x1AF7 JUMP JUMPDEST SWAP2 POP POP SWAP3 SWAP2 POP POP JUMP JUMPDEST PUSH1 0x0 DUP1 DUP4 PUSH1 0x1F DUP5 ADD SLT PUSH2 0x1BD1 JUMPI PUSH2 0x1BD0 PUSH2 0x25A9 JUMP JUMPDEST JUMPDEST DUP3 CALLDATALOAD SWAP1 POP PUSH8 0xFFFFFFFFFFFFFFFF DUP2 GT ISZERO PUSH2 0x1BEE JUMPI PUSH2 0x1BED PUSH2 0x25A4 JUMP JUMPDEST JUMPDEST PUSH1 0x20 DUP4 ADD SWAP2 POP DUP4 PUSH1 0x1 DUP3 MUL DUP4 ADD GT ISZERO PUSH2 0x1C0A JUMPI PUSH2 0x1C09 PUSH2 0x25AE JUMP JUMPDEST JUMPDEST SWAP3 POP SWAP3 SWAP1 POP JUMP JUMPDEST PUSH1 0x0 DUP2 CALLDATALOAD SWAP1 POP PUSH2 0x1C20 DUP2 PUSH2 0x2760 JUMP JUMPDEST SWAP3 SWAP2 POP POP JUMP JUMPDEST PUSH1 0x0 PUSH1 0x20 DUP3 DUP5 SUB SLT ISZERO PUSH2 0x1C3C JUMPI PUSH2 0x1C3B PUSH2 0x25BD JUMP JUMPDEST JUMPDEST PUSH1 0x0 PUSH2 0x1C4A DUP5 DUP3 DUP6 ADD PUSH2 0x1B39 JUMP JUMPDEST SWAP2 POP POP SWAP3 SWAP2 POP POP JUMP JUMPDEST PUSH1 0x0 DUP1 PUSH1 0x40 DUP4 DUP6 SUB SLT ISZERO PUSH2 0x1C6A JUMPI PUSH2 0x1C69 PUSH2 0x25BD JUMP JUMPDEST JUMPDEST PUSH1 0x0 PUSH2 0x1C78 DUP6 DUP3 DUP7 ADD PUSH2 0x1B39 JUMP JUMPDEST SWAP3 POP POP PUSH1 0x20 PUSH2 0x1C89 DUP6 DUP3 DUP7 ADD PUSH2 0x1B39 JUMP JUMPDEST SWAP2 POP POP SWAP3 POP SWAP3 SWAP1 POP JUMP JUMPDEST PUSH1 0x0 DUP1 PUSH1 0x0 PUSH1 0x60 DUP5 DUP7 SUB SLT ISZERO PUSH2 0x1CAC JUMPI PUSH2 0x1CAB PUSH2 0x25BD JUMP JUMPDEST JUMPDEST PUSH1 0x0 PUSH2 0x1CBA DUP7 DUP3 DUP8 ADD PUSH2 0x1B39 JUMP JUMPDEST SWAP4 POP POP PUSH1 0x20 PUSH2 0x1CCB DUP7 DUP3 DUP8 ADD PUSH2 0x1B39 JUMP JUMPDEST SWAP3 POP POP PUSH1 0x40 PUSH2 0x1CDC DUP7 DUP3 DUP8 ADD PUSH2 0x1C11 JUMP JUMPDEST SWAP2 POP POP SWAP3 POP SWAP3 POP SWAP3 JUMP JUMPDEST PUSH1 0x0 DUP1 PUSH1 0x0 DUP1 PUSH1 0x80 DUP6 DUP8 SUB SLT ISZERO PUSH2 0x1D00 JUMPI PUSH2 0x1CFF PUSH2 0x25BD JUMP JUMPDEST JUMPDEST PUSH1 0x0 PUSH2 0x1D0E DUP8 DUP3 DUP9 ADD PUSH2 0x1B39 JUMP JUMPDEST SWAP5 POP POP PUSH1 0x20 PUSH2 0x1D1F DUP8 DUP3 DUP9 ADD PUSH2 0x1B39 JUMP JUMPDEST SWAP4 POP POP PUSH1 0x40 PUSH2 0x1D30 DUP8 DUP3 DUP9 ADD PUSH2 0x1C11 JUMP JUMPDEST SWAP3 POP POP PUSH1 0x60 DUP6 ADD CALLDATALOAD PUSH8 0xFFFFFFFFFFFFFFFF DUP2 GT ISZERO PUSH2 0x1D51 JUMPI PUSH2 0x1D50 PUSH2 0x25B8 JUMP JUMPDEST JUMPDEST PUSH2 0x1D5D DUP8 DUP3 DUP9 ADD PUSH2 0x1B8D JUMP JUMPDEST SWAP2 POP POP SWAP3 SWAP6 SWAP2 SWAP5 POP SWAP3 POP JUMP JUMPDEST PUSH1 0x0 DUP1 PUSH1 0x40 DUP4 DUP6 SUB SLT ISZERO PUSH2 0x1D80 JUMPI PUSH2 0x1D7F PUSH2 0x25BD JUMP JUMPDEST JUMPDEST PUSH1 0x0 PUSH2 0x1D8E DUP6 DUP3 DUP7 ADD PUSH2 0x1B39 JUMP JUMPDEST SWAP3 POP POP PUSH1 0x20 PUSH2 0x1D9F DUP6 DUP3 DUP7 ADD PUSH2 0x1B4E JUMP JUMPDEST SWAP2 POP POP SWAP3 POP SWAP3 SWAP1 POP JUMP JUMPDEST PUSH1 0x0 DUP1 PUSH1 0x40 DUP4 DUP6 SUB SLT ISZERO PUSH2 0x1DC0 JUMPI PUSH2 0x1DBF PUSH2 0x25BD JUMP JUMPDEST JUMPDEST PUSH1 0x0 PUSH2 0x1DCE DUP6 DUP3 DUP7 ADD PUSH2 0x1B39 JUMP JUMPDEST SWAP3 POP POP PUSH1 0x20 PUSH2 0x1DDF DUP6 DUP3 DUP7 ADD PUSH2 0x1C11 JUMP JUMPDEST SWAP2 POP POP SWAP3 POP SWAP3 SWAP1 POP JUMP JUMPDEST PUSH1 0x0 PUSH1 0x20 DUP3 DUP5 SUB SLT ISZERO PUSH2 0x1DFF JUMPI PUSH2 0x1DFE PUSH2 0x25BD JUMP JUMPDEST JUMPDEST PUSH1 0x0 PUSH2 0x1E0D DUP5 DUP3 DUP6 ADD PUSH2 0x1B4E JUMP JUMPDEST SWAP2 POP POP SWAP3 SWAP2 POP POP JUMP JUMPDEST PUSH1 0x0 PUSH1 0x20 DUP3 DUP5 SUB SLT ISZERO PUSH2 0x1E2C JUMPI PUSH2 0x1E2B PUSH2 0x25BD JUMP JUMPDEST JUMPDEST PUSH1 0x0 PUSH2 0x1E3A DUP5 DUP3 DUP6 ADD PUSH2 0x1B63 JUMP JUMPDEST SWAP2 POP POP SWAP3 SWAP2 POP POP JUMP JUMPDEST PUSH1 0x0 PUSH1 0x20 DUP3 DUP5 SUB SLT ISZERO PUSH2 0x1E59 JUMPI PUSH2 0x1E58 PUSH2 0x25BD JUMP JUMPDEST JUMPDEST PUSH1 0x0 PUSH2 0x1E67 DUP5 DUP3 DUP6 ADD PUSH2 0x1B78 JUMP JUMPDEST SWAP2 POP POP SWAP3 SWAP2 POP POP JUMP JUMPDEST PUSH1 0x0 DUP1 PUSH1 0x20 DUP4 DUP6 SUB SLT ISZERO PUSH2 0x1E87 JUMPI PUSH2 0x1E86 PUSH2 0x25BD JUMP JUMPDEST JUMPDEST PUSH1 0x0 DUP4 ADD CALLDATALOAD PUSH8 0xFFFFFFFFFFFFFFFF DUP2 GT ISZERO PUSH2 0x1EA5 JUMPI PUSH2 0x1EA4 PUSH2 0x25B8 JUMP JUMPDEST JUMPDEST PUSH2 0x1EB1 DUP6 DUP3 DUP7 ADD PUSH2 0x1BBB JUMP JUMPDEST SWAP3 POP SWAP3 POP POP SWAP3 POP SWAP3 SWAP1 POP JUMP JUMPDEST PUSH1 0x0 PUSH1 0x20 DUP3 DUP5 SUB SLT ISZERO PUSH2 0x1ED3 JUMPI PUSH2 0x1ED2 PUSH2 0x25BD JUMP JUMPDEST JUMPDEST PUSH1 0x0 PUSH2 0x1EE1 DUP5 DUP3 DUP6 ADD PUSH2 0x1C11 JUMP JUMPDEST SWAP2 POP POP SWAP3 SWAP2 POP POP JUMP JUMPDEST PUSH2 0x1EF3 DUP2 PUSH2 0x23FE JUMP JUMPDEST DUP3 MSTORE POP POP JUMP JUMPDEST PUSH2 0x1F02 DUP2 PUSH2 0x2410 JUMP JUMPDEST DUP3 MSTORE POP POP JUMP JUMPDEST PUSH1 0x0 PUSH2 0x1F13 DUP3 PUSH2 0x2300 JUMP JUMPDEST PUSH2 0x1F1D DUP2 DUP6 PUSH2 0x2316 JUMP JUMPDEST SWAP4 POP PUSH2 0x1F2D DUP2 DUP6 PUSH1 0x20 DUP7 ADD PUSH2 0x2481 JUMP JUMPDEST PUSH2 0x1F36 DUP2 PUSH2 0x25C2 JUMP JUMPDEST DUP5 ADD SWAP2 POP POP SWAP3 SWAP2 POP POP JUMP JUMPDEST PUSH1 0x0 PUSH2 0x1F4C DUP3 PUSH2 0x230B JUMP JUMPDEST PUSH2 0x1F56 DUP2 DUP6 PUSH2 0x2332 JUMP JUMPDEST SWAP4 POP PUSH2 0x1F66 DUP2 DUP6 PUSH1 0x20 DUP7 ADD PUSH2 0x2481 JUMP JUMPDEST PUSH2 0x1F6F DUP2 PUSH2 0x25C2 JUMP JUMPDEST DUP5 ADD SWAP2 POP POP SWAP3 SWAP2 POP POP JUMP JUMPDEST PUSH1 0x0 PUSH2 0x1F85 DUP3 PUSH2 0x230B JUMP JUMPDEST PUSH2 0x1F8F DUP2 DUP6 PUSH2 0x2343 JUMP JUMPDEST SWAP4 POP PUSH2 0x1F9F DUP2 DUP6 PUSH1 0x20 DUP7 ADD PUSH2 0x2481 JUMP JUMPDEST DUP1 DUP5 ADD SWAP2 POP POP SWAP3 SWAP2 POP POP JUMP JUMPDEST PUSH1 0x0 PUSH2 0x1FB8 PUSH1 0x26 DUP4 PUSH2 0x2332 JUMP JUMPDEST SWAP2 POP PUSH2 0x1FC3 DUP3 PUSH2 0x25D3 JUMP JUMPDEST PUSH1 0x40 DUP3 ADD SWAP1 POP SWAP2 SWAP1 POP JUMP JUMPDEST PUSH1 0x0 PUSH2 0x1FDB PUSH1 0x12 DUP4 PUSH2 0x2332 JUMP JUMPDEST SWAP2 POP PUSH2 0x1FE6 DUP3 PUSH2 0x2622 JUMP JUMPDEST PUSH1 0x20 DUP3 ADD SWAP1 POP SWAP2 SWAP1 POP JUMP JUMPDEST PUSH1 0x0 PUSH2 0x1FFE PUSH1 0x10 DUP4 PUSH2 0x2332 JUMP JUMPDEST SWAP2 POP PUSH2 0x2009 DUP3 PUSH2 0x264B JUMP JUMPDEST PUSH1 0x20 DUP3 ADD SWAP1 POP SWAP2 SWAP1 POP JUMP JUMPDEST PUSH1 0x0 PUSH2 0x2021 PUSH1 0x20 DUP4 PUSH2 0x2332 JUMP JUMPDEST SWAP2 POP PUSH2 0x202C DUP3 PUSH2 0x2674 JUMP JUMPDEST PUSH1 0x20 DUP3 ADD SWAP1 POP SWAP2 SWAP1 POP JUMP JUMPDEST PUSH1 0x0 PUSH2 0x2044 PUSH1 0xE DUP4 PUSH2 0x2332 JUMP JUMPDEST SWAP2 POP PUSH2 0x204F DUP3 PUSH2 0x269D JUMP JUMPDEST PUSH1 0x20 DUP3 ADD SWAP1 POP SWAP2 SWAP1 POP JUMP JUMPDEST PUSH1 0x0 PUSH2 0x2067 PUSH1 0xF DUP4 PUSH2 0x2332 JUMP JUMPDEST SWAP2 POP PUSH2 0x2072 DUP3 PUSH2 0x26C6 JUMP JUMPDEST PUSH1 0x20 DUP3 ADD SWAP1 POP SWAP2 SWAP1 POP JUMP JUMPDEST PUSH1 0x0 PUSH2 0x208A PUSH1 0x0 DUP4 PUSH2 0x2327 JUMP JUMPDEST SWAP2 POP PUSH2 0x2095 DUP3 PUSH2 0x26EF JUMP JUMPDEST PUSH1 0x0 DUP3 ADD SWAP1 POP SWAP2 SWAP1 POP JUMP JUMPDEST PUSH1 0x0 PUSH2 0x20AD PUSH1 0xE DUP4 PUSH2 0x2332 JUMP JUMPDEST SWAP2 POP PUSH2 0x20B8 DUP3 PUSH2 0x26F2 JUMP JUMPDEST PUSH1 0x20 DUP3 ADD SWAP1 POP SWAP2 SWAP1 POP JUMP JUMPDEST PUSH2 0x20CC DUP2 PUSH2 0x2468 JUMP JUMPDEST DUP3 MSTORE POP POP JUMP JUMPDEST PUSH1 0x0 PUSH2 0x20DE DUP3 DUP6 PUSH2 0x1F7A JUMP JUMPDEST SWAP2 POP PUSH2 0x20EA DUP3 DUP5 PUSH2 0x1F7A JUMP JUMPDEST SWAP2 POP DUP2 SWAP1 POP SWAP4 SWAP3 POP POP POP JUMP JUMPDEST PUSH1 0x0 PUSH2 0x2101 DUP3 PUSH2 0x207D JUMP JUMPDEST SWAP2 POP DUP2 SWAP1 POP SWAP2 SWAP1 POP JUMP JUMPDEST PUSH1 0x0 PUSH1 0x20 DUP3 ADD SWAP1 POP PUSH2 0x2120 PUSH1 0x0 DUP4 ADD DUP5 PUSH2 0x1EEA JUMP JUMPDEST SWAP3 SWAP2 POP POP JUMP JUMPDEST PUSH1 0x0 PUSH1 0x80 DUP3 ADD SWAP1 POP PUSH2 0x213B PUSH1 0x0 DUP4 ADD DUP8 PUSH2 0x1EEA JUMP JUMPDEST PUSH2 0x2148 PUSH1 0x20 DUP4 ADD DUP7 PUSH2 0x1EEA JUMP JUMPDEST PUSH2 0x2155 PUSH1 0x40 DUP4 ADD DUP6 PUSH2 0x20C3 JUMP JUMPDEST DUP2 DUP2 SUB PUSH1 0x60 DUP4 ADD MSTORE PUSH2 0x2167 DUP2 DUP5 PUSH2 0x1F08 JUMP JUMPDEST SWAP1 POP SWAP6 SWAP5 POP POP POP POP POP JUMP JUMPDEST PUSH1 0x0 PUSH1 0x20 DUP3 ADD SWAP1 POP PUSH2 0x2187 PUSH1 0x0 DUP4 ADD DUP5 PUSH2 0x1EF9 JUMP JUMPDEST SWAP3 SWAP2 POP POP JUMP JUMPDEST PUSH1 0x0 PUSH1 0x20 DUP3 ADD SWAP1 POP DUP2 DUP2 SUB PUSH1 0x0 DUP4 ADD MSTORE PUSH2 0x21A7 DUP2 DUP5 PUSH2 0x1F41 JUMP JUMPDEST SWAP1 POP SWAP3 SWAP2 POP POP JUMP JUMPDEST PUSH1 0x0 PUSH1 0x20 DUP3 ADD SWAP1 POP DUP2 DUP2 SUB PUSH1 0x0 DUP4 ADD MSTORE PUSH2 0x21C8 DUP2 PUSH2 0x1FAB JUMP JUMPDEST SWAP1 POP SWAP2 SWAP1 POP JUMP JUMPDEST PUSH1 0x0 PUSH1 0x20 DUP3 ADD SWAP1 POP DUP2 DUP2 SUB PUSH1 0x0 DUP4 ADD MSTORE PUSH2 0x21E8 DUP2 PUSH2 0x1FCE JUMP JUMPDEST SWAP1 POP SWAP2 SWAP1 POP JUMP JUMPDEST PUSH1 0x0 PUSH1 0x20 DUP3 ADD SWAP1 POP DUP2 DUP2 SUB PUSH1 0x0 DUP4 ADD MSTORE PUSH2 0x2208 DUP2 PUSH2 0x1FF1 JUMP JUMPDEST SWAP1 POP SWAP2 SWAP1 POP JUMP JUMPDEST PUSH1 0x0 PUSH1 0x20 DUP3 ADD SWAP1 POP DUP2 DUP2 SUB PUSH1 0x0 DUP4 ADD MSTORE PUSH2 0x2228 DUP2 PUSH2 0x2014 JUMP JUMPDEST SWAP1 POP SWAP2 SWAP1 POP JUMP JUMPDEST PUSH1 0x0 PUSH1 0x20 DUP3 ADD SWAP1 POP DUP2 DUP2 SUB PUSH1 0x0 DUP4 ADD MSTORE PUSH2 0x2248 DUP2 PUSH2 0x2037 JUMP JUMPDEST SWAP1 POP SWAP2 SWAP1 POP JUMP JUMPDEST PUSH1 0x0 PUSH1 0x20 DUP3 ADD SWAP1 POP DUP2 DUP2 SUB PUSH1 0x0 DUP4 ADD MSTORE PUSH2 0x2268 DUP2 PUSH2 0x205A JUMP JUMPDEST SWAP1 POP SWAP2 SWAP1 POP JUMP JUMPDEST PUSH1 0x0 PUSH1 0x20 DUP3 ADD SWAP1 POP DUP2 DUP2 SUB PUSH1 0x0 DUP4 ADD MSTORE PUSH2 0x2288 DUP2 PUSH2 0x20A0 JUMP JUMPDEST SWAP1 POP SWAP2 SWAP1 POP JUMP JUMPDEST PUSH1 0x0 PUSH1 0x20 DUP3 ADD SWAP1 POP PUSH2 0x22A4 PUSH1 0x0 DUP4 ADD DUP5 PUSH2 0x20C3 JUMP JUMPDEST SWAP3 SWAP2 POP POP JUMP JUMPDEST PUSH1 0x0 PUSH2 0x22B4 PUSH2 0x22C5 JUMP JUMPDEST SWAP1 POP PUSH2 0x22C0 DUP3 DUP3 PUSH2 0x24E6 JUMP JUMPDEST SWAP2 SWAP1 POP JUMP JUMPDEST PUSH1 0x0 PUSH1 0x40 MLOAD SWAP1 POP SWAP1 JUMP JUMPDEST PUSH1 0x0 PUSH8 0xFFFFFFFFFFFFFFFF DUP3 GT ISZERO PUSH2 0x22EA JUMPI PUSH2 0x22E9 PUSH2 0x2575 JUMP JUMPDEST JUMPDEST PUSH2 0x22F3 DUP3 PUSH2 0x25C2 JUMP JUMPDEST SWAP1 POP PUSH1 0x20 DUP2 ADD SWAP1 POP SWAP2 SWAP1 POP JUMP JUMPDEST PUSH1 0x0 DUP2 MLOAD SWAP1 POP SWAP2 SWAP1 POP JUMP JUMPDEST PUSH1 0x0 DUP2 MLOAD SWAP1 POP SWAP2 SWAP1 POP JUMP JUMPDEST PUSH1 0x0 DUP3 DUP3 MSTORE PUSH1 0x20 DUP3 ADD SWAP1 POP SWAP3 SWAP2 POP POP JUMP JUMPDEST PUSH1 0x0 DUP2 SWAP1 POP SWAP3 SWAP2 POP POP JUMP JUMPDEST PUSH1 0x0 DUP3 DUP3 MSTORE PUSH1 0x20 DUP3 ADD SWAP1 POP SWAP3 SWAP2 POP POP JUMP JUMPDEST PUSH1 0x0 DUP2 SWAP1 POP SWAP3 SWAP2 POP POP JUMP JUMPDEST PUSH1 0x0 PUSH2 0x2359 DUP3 PUSH2 0x2468 JUMP JUMPDEST SWAP2 POP PUSH2 0x2364 DUP4 PUSH2 0x2468 JUMP JUMPDEST SWAP3 POP DUP3 PUSH32 0xFFFFFFFFFFFFFFFFFFFFFFFFFFFFFFFFFFFFFFFFFFFFFFFFFFFFFFFFFFFFFFFF SUB DUP3 GT ISZERO PUSH2 0x2399 JUMPI PUSH2 0x2398 PUSH2 0x2517 JUMP JUMPDEST JUMPDEST DUP3 DUP3 ADD SWAP1 POP SWAP3 SWAP2 POP POP JUMP JUMPDEST PUSH1 0x0 PUSH2 0x23AF DUP3 PUSH2 0x2468 JUMP JUMPDEST SWAP2 POP PUSH2 0x23BA DUP4 PUSH2 0x2468 JUMP JUMPDEST SWAP3 POP DUP2 PUSH32 0xFFFFFFFFFFFFFFFFFFFFFFFFFFFFFFFFFFFFFFFFFFFFFFFFFFFFFFFFFFFFFFFF DIV DUP4 GT DUP3 ISZERO ISZERO AND ISZERO PUSH2 0x23F3 JUMPI PUSH2 0x23F2 PUSH2 0x2517 JUMP JUMPDEST JUMPDEST DUP3 DUP3 MUL SWAP1 POP SWAP3 SWAP2 POP POP JUMP JUMPDEST PUSH1 0x0 PUSH2 0x2409 DUP3 PUSH2 0x2448 JUMP JUMPDEST SWAP1 POP SWAP2 SWAP1 POP JUMP JUMPDEST PUSH1 0x0 DUP2 ISZERO ISZERO SWAP1 POP SWAP2 SWAP1 POP JUMP JUMPDEST PUSH1 0x0 PUSH32 0xFFFFFFFF00000000000000000000000000000000000000000000000000000000 DUP3 AND SWAP1 POP SWAP2 SWAP1 POP JUMP JUMPDEST PUSH1 0x0 PUSH20 0xFFFFFFFFFFFFFFFFFFFFFFFFFFFFFFFFFFFFFFFF DUP3 AND SWAP1 POP SWAP2 SWAP1 POP JUMP JUMPDEST PUSH1 0x0 DUP2 SWAP1 POP SWAP2 SWAP1 POP JUMP JUMPDEST DUP3 DUP2 DUP4 CALLDATACOPY PUSH1 0x0 DUP4 DUP4 ADD MSTORE POP POP POP JUMP JUMPDEST PUSH1 0x0 JUMPDEST DUP4 DUP2 LT ISZERO PUSH2 0x249F JUMPI DUP1 DUP3 ADD MLOAD DUP2 DUP5 ADD MSTORE PUSH1 0x20 DUP2 ADD SWAP1 POP PUSH2 0x2484 JUMP JUMPDEST DUP4 DUP2 GT ISZERO PUSH2 0x24AE JUMPI PUSH1 0x0 DUP5 DUP5 ADD MSTORE JUMPDEST POP POP POP POP JUMP JUMPDEST PUSH1 0x0 PUSH1 0x2 DUP3 DIV SWAP1 POP PUSH1 0x1 DUP3 AND DUP1 PUSH2 0x24CC JUMPI PUSH1 0x7F DUP3 AND SWAP2 POP JUMPDEST PUSH1 0x20 DUP3 LT DUP2 EQ ISZERO PUSH2 0x24E0 JUMPI PUSH2 0x24DF PUSH2 0x2546 JUMP JUMPDEST JUMPDEST POP SWAP2 SWAP1 POP JUMP JUMPDEST PUSH2 0x24EF DUP3 PUSH2 0x25C2 JUMP JUMPDEST DUP2 ADD DUP2 DUP2 LT PUSH8 0xFFFFFFFFFFFFFFFF DUP3 GT OR ISZERO PUSH2 0x250E JUMPI PUSH2 0x250D PUSH2 0x2575 JUMP JUMPDEST JUMPDEST DUP1 PUSH1 0x40 MSTORE POP POP POP JUMP JUMPDEST PUSH32 0x4E487B7100000000000000000000000000000000000000000000000000000000 PUSH1 0x0 MSTORE PUSH1 0x11 PUSH1 0x4 MSTORE PUSH1 0x24 PUSH1 0x0 REVERT JUMPDEST PUSH32 0x4E487B7100000000000000000000000000000000000000000000000000000000 PUSH1 0x0 MSTORE PUSH1 0x22 PUSH1 0x4 MSTORE PUSH1 0x24 PUSH1 0x0 REVERT JUMPDEST PUSH32 0x4E487B7100000000000000000000000000000000000000000000000000000000 PUSH1 0x0 MSTORE PUSH1 0x41 PUSH1 0x4 MSTORE PUSH1 0x24 PUSH1 0x0 REVERT JUMPDEST PUSH1 0x0 DUP1 REVERT JUMPDEST PUSH1 0x0 DUP1 REVERT JUMPDEST PUSH1 0x0 DUP1 REVERT JUMPDEST PUSH1 0x0 DUP1 REVERT JUMPDEST PUSH1 0x0 DUP1 REVERT JUMPDEST PUSH1 0x0 DUP1 REVERT JUMPDEST PUSH1 0x0 PUSH1 0x1F NOT PUSH1 0x1F DUP4 ADD AND SWAP1 POP SWAP2 SWAP1 POP JUMP JUMPDEST PUSH32 0x4F776E61626C653A206E6577206F776E657220697320746865207A65726F2061 PUSH1 0x0 DUP3 ADD MSTORE PUSH32 0x6464726573730000000000000000000000000000000000000000000000000000 PUSH1 0x20 DUP3 ADD MSTORE POP JUMP JUMPDEST PUSH32 0x496E73756666696369656E742046756E64730000000000000000000000000000 PUSH1 0x0 DUP3 ADD MSTORE POP JUMP JUMPDEST PUSH32 0x436F6E7472616374207061757365642E00000000000000000000000000000000 PUSH1 0x0 DUP3 ADD MSTORE POP JUMP JUMPDEST PUSH32 0x4F776E61626C653A2063616C6C6572206973206E6F7420746865206F776E6572 PUSH1 0x0 DUP3 ADD MSTORE POP JUMP JUMPDEST PUSH32 0x4D617820537570706C7920486974000000000000000000000000000000000000 PUSH1 0x0 DUP3 ADD MSTORE POP JUMP JUMPDEST PUSH32 0x5472616E73666572204661696C65640000000000000000000000000000000000 PUSH1 0x0 DUP3 ADD MSTORE POP JUMP JUMPDEST POP JUMP JUMPDEST PUSH32 0x4D696E7420697320706175736564000000000000000000000000000000000000 PUSH1 0x0 DUP3 ADD MSTORE POP JUMP JUMPDEST PUSH2 0x2724 DUP2 PUSH2 0x23FE JUMP JUMPDEST DUP2 EQ PUSH2 0x272F JUMPI PUSH1 0x0 DUP1 REVERT JUMPDEST POP JUMP JUMPDEST PUSH2 0x273B DUP2 PUSH2 0x2410 JUMP JUMPDEST DUP2 EQ PUSH2 0x2746 JUMPI PUSH1 0x0 DUP1 REVERT JUMPDEST POP JUMP JUMPDEST PUSH2 0x2752 DUP2 PUSH2 0x241C JUMP JUMPDEST DUP2 EQ PUSH2 0x275D JUMPI PUSH1 0x0 DUP1 REVERT JUMPDEST POP JUMP JUMPDEST PUSH2 0x2769 DUP2 PUSH2 0x2468 JUMP JUMPDEST DUP2 EQ PUSH2 0x2774 JUMPI PUSH1 0x0 DUP1 REVERT JUMPDEST POP JUMP INVALID LOG2 PUSH5 0x6970667358 0x22 SLT KECCAK256 PUSH8 0x8CF8ABA97FC92313 0xBB 0xA5 PC LT 0x4F DUP15 0x5D SSTORE PUSH20 0x177B61745FA2B0C78C787D93994E64736F6C6343 STOP ADDMOD SMOD STOP CALLER "
				},
				"gasEstimates": {
					"creation": {
						"codeDepositCost": "2031400",
						"executionCost": "infinite",
						"totalCost": "infinite"
					},
					"external": {
						"MAX_SUPPLY()": "352",
						"PRICE_PER_TOKEN()": "418",
						"approve(address,uint256)": "infinite",
						"balanceOf(address)": "2908",
						"getApproved(uint256)": "7381",
						"isApprovedForAll(address,address)": "infinite",
						"mint(address,uint256)": "infinite",
						"mintPaused()": "2538",
						"name()": "infinite",
						"owner()": "2633",
						"ownerOf(uint256)": "infinite",
						"pauseMint(bool)": "29231",
						"renounceOwnership()": "30443",
						"safeTransferFrom(address,address,uint256)": "infinite",
						"safeTransferFrom(address,address,uint256,bytes)": "infinite",
						"setApprovalForAll(address,bool)": "infinite",
						"setBaseURI(string)": "infinite",
						"supportsInterface(bytes4)": "745",
						"symbol()": "infinite",
						"tokenURI(uint256)": "infinite",
						"totalSupply()": "4688",
						"transferFrom(address,address,uint256)": "infinite",
						"transferOwnership(address)": "30857",
						"withdraw()": "infinite"
					},
					"internal": {
						"_baseURI()": "infinite"
					}
				},
				"methodIdentifiers": {
					"MAX_SUPPLY()": "32cb6b0c",
					"PRICE_PER_TOKEN()": "833b9499",
					"approve(address,uint256)": "095ea7b3",
					"balanceOf(address)": "70a08231",
					"getApproved(uint256)": "081812fc",
					"isApprovedForAll(address,address)": "e985e9c5",
					"mint(address,uint256)": "40c10f19",
					"mintPaused()": "7e4831d3",
					"name()": "06fdde03",
					"owner()": "8da5cb5b",
					"ownerOf(uint256)": "6352211e",
					"pauseMint(bool)": "f30e6e77",
					"renounceOwnership()": "715018a6",
					"safeTransferFrom(address,address,uint256)": "42842e0e",
					"safeTransferFrom(address,address,uint256,bytes)": "b88d4fde",
					"setApprovalForAll(address,bool)": "a22cb465",
					"setBaseURI(string)": "55f804b3",
					"supportsInterface(bytes4)": "01ffc9a7",
					"symbol()": "95d89b41",
					"tokenURI(uint256)": "c87b56dd",
					"totalSupply()": "18160ddd",
					"transferFrom(address,address,uint256)": "23b872dd",
					"transferOwnership(address)": "f2fde38b",
					"withdraw()": "3ccfd60b"
				}
			},
			"storageLayout": {
				"storage": [
					{
						"astId": 7,
						"contract": "contracts/MudAi.sol:MudAi",
						"label": "_owner",
						"offset": 0,
						"slot": "0",
						"type": "t_address"
					},
					{
						"astId": 226,
						"contract": "contracts/MudAi.sol:MudAi",
						"label": "_currentIndex",
						"offset": 0,
						"slot": "1",
						"type": "t_uint256"
					},
					{
						"astId": 228,
						"contract": "contracts/MudAi.sol:MudAi",
						"label": "_burnCounter",
						"offset": 0,
						"slot": "2",
						"type": "t_uint256"
					},
					{
						"astId": 230,
						"contract": "contracts/MudAi.sol:MudAi",
						"label": "_name",
						"offset": 0,
						"slot": "3",
						"type": "t_string_storage"
					},
					{
						"astId": 232,
						"contract": "contracts/MudAi.sol:MudAi",
						"label": "_symbol",
						"offset": 0,
						"slot": "4",
						"type": "t_string_storage"
					},
					{
						"astId": 236,
						"contract": "contracts/MudAi.sol:MudAi",
						"label": "_packedOwnerships",
						"offset": 0,
						"slot": "5",
						"type": "t_mapping(t_uint256,t_uint256)"
					},
					{
						"astId": 240,
						"contract": "contracts/MudAi.sol:MudAi",
						"label": "_packedAddressData",
						"offset": 0,
						"slot": "6",
						"type": "t_mapping(t_address,t_uint256)"
					},
					{
						"astId": 245,
						"contract": "contracts/MudAi.sol:MudAi",
						"label": "_tokenApprovals",
						"offset": 0,
						"slot": "7",
						"type": "t_mapping(t_uint256,t_struct(TokenApprovalRef)158_storage)"
					},
					{
						"astId": 251,
						"contract": "contracts/MudAi.sol:MudAi",
						"label": "_operatorApprovals",
						"offset": 0,
						"slot": "8",
						"type": "t_mapping(t_address,t_mapping(t_address,t_bool))"
					},
					{
						"astId": 1773,
						"contract": "contracts/MudAi.sol:MudAi",
						"label": "mintPaused",
						"offset": 0,
						"slot": "9",
						"type": "t_bool"
					},
					{
						"astId": 1775,
						"contract": "contracts/MudAi.sol:MudAi",
						"label": "_baseTokenURI",
						"offset": 0,
						"slot": "10",
						"type": "t_string_storage"
					}
				],
				"types": {
					"t_address": {
						"encoding": "inplace",
						"label": "address",
						"numberOfBytes": "20"
					},
					"t_bool": {
						"encoding": "inplace",
						"label": "bool",
						"numberOfBytes": "1"
					},
					"t_mapping(t_address,t_bool)": {
						"encoding": "mapping",
						"key": "t_address",
						"label": "mapping(address => bool)",
						"numberOfBytes": "32",
						"value": "t_bool"
					},
					"t_mapping(t_address,t_mapping(t_address,t_bool))": {
						"encoding": "mapping",
						"key": "t_address",
						"label": "mapping(address => mapping(address => bool))",
						"numberOfBytes": "32",
						"value": "t_mapping(t_address,t_bool)"
					},
					"t_mapping(t_address,t_uint256)": {
						"encoding": "mapping",
						"key": "t_address",
						"label": "mapping(address => uint256)",
						"numberOfBytes": "32",
						"value": "t_uint256"
					},
					"t_mapping(t_uint256,t_struct(TokenApprovalRef)158_storage)": {
						"encoding": "mapping",
						"key": "t_uint256",
						"label": "mapping(uint256 => struct ERC721A.TokenApprovalRef)",
						"numberOfBytes": "32",
						"value": "t_struct(TokenApprovalRef)158_storage"
					},
					"t_mapping(t_uint256,t_uint256)": {
						"encoding": "mapping",
						"key": "t_uint256",
						"label": "mapping(uint256 => uint256)",
						"numberOfBytes": "32",
						"value": "t_uint256"
					},
					"t_string_storage": {
						"encoding": "bytes",
						"label": "string",
						"numberOfBytes": "32"
					},
					"t_struct(TokenApprovalRef)158_storage": {
						"encoding": "inplace",
						"label": "struct ERC721A.TokenApprovalRef",
						"members": [
							{
								"astId": 157,
								"contract": "contracts/MudAi.sol:MudAi",
								"label": "value",
								"offset": 0,
								"slot": "0",
								"type": "t_address"
							}
						],
						"numberOfBytes": "32"
					},
					"t_uint256": {
						"encoding": "inplace",
						"label": "uint256",
						"numberOfBytes": "32"
					}
				}
			},
			"userdoc": {
				"errors": {
					"ApprovalCallerNotOwnerNorApproved()": [
						{
							"notice": "The caller must own the token or be an approved operator."
						}
					],
					"ApprovalQueryForNonexistentToken()": [
						{
							"notice": "The token does not exist."
						}
					],
					"BalanceQueryForZeroAddress()": [
						{
							"notice": "Cannot query the balance for the zero address."
						}
					],
					"MintERC2309QuantityExceedsLimit()": [
						{
							"notice": "The `quantity` minted with ERC2309 exceeds the safety limit."
						}
					],
					"MintToZeroAddress()": [
						{
							"notice": "Cannot mint to the zero address."
						}
					],
					"MintZeroQuantity()": [
						{
							"notice": "The quantity of tokens minted must be more than zero."
						}
					],
					"OwnerQueryForNonexistentToken()": [
						{
							"notice": "The token does not exist."
						}
					],
					"OwnershipNotInitializedForExtraData()": [
						{
							"notice": "The `extraData` cannot be set on an unintialized ownership slot."
						}
					],
					"TransferCallerNotOwnerNorApproved()": [
						{
							"notice": "The caller must own the token or be an approved operator."
						}
					],
					"TransferFromIncorrectOwner()": [
						{
							"notice": "The token must be owned by `from`."
						}
					],
					"TransferToNonERC721ReceiverImplementer()": [
						{
							"notice": "Cannot safely transfer to a contract that does not implement the ERC721Receiver interface."
						}
					],
					"TransferToZeroAddress()": [
						{
							"notice": "Cannot transfer to the zero address."
						}
					],
					"URIQueryForNonexistentToken()": [
						{
							"notice": "The token does not exist."
						}
					]
				},
				"kind": "user",
				"methods": {},
				"version": 1
			}
		}
	}
}