{
	"contracts/MudAi.sol": {
		"MudAi": {
			"abi": [
				{
					"inputs": [
						{
							"internalType": "uint256",
							"name": "_startTime",
							"type": "uint256"
						},
						{
							"internalType": "bool",
							"name": "_paused",
							"type": "bool"
						}
					],
					"stateMutability": "nonpayable",
					"type": "constructor"
				},
				{
					"inputs": [],
					"name": "ApprovalCallerNotOwnerNorApproved",
					"type": "error"
				},
				{
					"inputs": [],
					"name": "ApprovalQueryForNonexistentToken",
					"type": "error"
				},
				{
					"inputs": [],
					"name": "BalanceQueryForZeroAddress",
					"type": "error"
				},
				{
					"inputs": [],
					"name": "MintERC2309QuantityExceedsLimit",
					"type": "error"
				},
				{
					"inputs": [],
					"name": "MintToZeroAddress",
					"type": "error"
				},
				{
					"inputs": [],
					"name": "MintZeroQuantity",
					"type": "error"
				},
				{
					"inputs": [],
					"name": "OwnerQueryForNonexistentToken",
					"type": "error"
				},
				{
					"inputs": [],
					"name": "OwnershipNotInitializedForExtraData",
					"type": "error"
				},
				{
					"inputs": [],
					"name": "TransferCallerNotOwnerNorApproved",
					"type": "error"
				},
				{
					"inputs": [],
					"name": "TransferFromIncorrectOwner",
					"type": "error"
				},
				{
					"inputs": [],
					"name": "TransferToNonERC721ReceiverImplementer",
					"type": "error"
				},
				{
					"inputs": [],
					"name": "TransferToZeroAddress",
					"type": "error"
				},
				{
					"inputs": [],
					"name": "URIQueryForNonexistentToken",
					"type": "error"
				},
				{
					"anonymous": false,
					"inputs": [
						{
							"indexed": true,
							"internalType": "address",
							"name": "owner",
							"type": "address"
						},
						{
							"indexed": true,
							"internalType": "address",
							"name": "approved",
							"type": "address"
						},
						{
							"indexed": true,
							"internalType": "uint256",
							"name": "tokenId",
							"type": "uint256"
						}
					],
					"name": "Approval",
					"type": "event"
				},
				{
					"anonymous": false,
					"inputs": [
						{
							"indexed": true,
							"internalType": "address",
							"name": "owner",
							"type": "address"
						},
						{
							"indexed": true,
							"internalType": "address",
							"name": "operator",
							"type": "address"
						},
						{
							"indexed": false,
							"internalType": "bool",
							"name": "approved",
							"type": "bool"
						}
					],
					"name": "ApprovalForAll",
					"type": "event"
				},
				{
					"anonymous": false,
					"inputs": [
						{
							"indexed": true,
							"internalType": "uint256",
							"name": "fromTokenId",
							"type": "uint256"
						},
						{
							"indexed": false,
							"internalType": "uint256",
							"name": "toTokenId",
							"type": "uint256"
						},
						{
							"indexed": true,
							"internalType": "address",
							"name": "from",
							"type": "address"
						},
						{
							"indexed": true,
							"internalType": "address",
							"name": "to",
							"type": "address"
						}
					],
					"name": "ConsecutiveTransfer",
					"type": "event"
				},
				{
					"anonymous": false,
					"inputs": [
						{
							"indexed": true,
							"internalType": "address",
							"name": "previousOwner",
							"type": "address"
						},
						{
							"indexed": true,
							"internalType": "address",
							"name": "newOwner",
							"type": "address"
						}
					],
					"name": "OwnershipTransferred",
					"type": "event"
				},
				{
					"anonymous": false,
					"inputs": [
						{
							"indexed": true,
							"internalType": "address",
							"name": "from",
							"type": "address"
						},
						{
							"indexed": true,
							"internalType": "address",
							"name": "to",
							"type": "address"
						},
						{
							"indexed": true,
							"internalType": "uint256",
							"name": "tokenId",
							"type": "uint256"
						}
					],
					"name": "Transfer",
					"type": "event"
				},
				{
					"inputs": [],
					"name": "MAX_SUPPLY",
					"outputs": [
						{
							"internalType": "uint256",
							"name": "",
							"type": "uint256"
						}
					],
					"stateMutability": "view",
					"type": "function"
				},
				{
					"inputs": [],
					"name": "PRICE_PER_TOKEN",
					"outputs": [
						{
							"internalType": "uint256",
							"name": "",
							"type": "uint256"
						}
					],
					"stateMutability": "view",
					"type": "function"
				},
				{
					"inputs": [],
					"name": "START_TIME",
					"outputs": [
						{
							"internalType": "uint256",
							"name": "",
							"type": "uint256"
						}
					],
					"stateMutability": "view",
					"type": "function"
				},
				{
					"inputs": [
						{
							"internalType": "address",
							"name": "to",
							"type": "address"
						},
						{
							"internalType": "uint256",
							"name": "tokenId",
							"type": "uint256"
						}
					],
					"name": "approve",
					"outputs": [],
					"stateMutability": "payable",
					"type": "function"
				},
				{
					"inputs": [
						{
							"internalType": "address",
							"name": "owner",
							"type": "address"
						}
					],
					"name": "balanceOf",
					"outputs": [
						{
							"internalType": "uint256",
							"name": "",
							"type": "uint256"
						}
					],
					"stateMutability": "view",
					"type": "function"
				},
				{
					"inputs": [
						{
							"internalType": "uint256",
							"name": "tokenId",
							"type": "uint256"
						}
					],
					"name": "getApproved",
					"outputs": [
						{
							"internalType": "address",
							"name": "",
							"type": "address"
						}
					],
					"stateMutability": "view",
					"type": "function"
				},
				{
					"inputs": [
						{
							"internalType": "address",
							"name": "owner",
							"type": "address"
						},
						{
							"internalType": "address",
							"name": "operator",
							"type": "address"
						}
					],
					"name": "isApprovedForAll",
					"outputs": [
						{
							"internalType": "bool",
							"name": "",
							"type": "bool"
						}
					],
					"stateMutability": "view",
					"type": "function"
				},
				{
					"inputs": [
						{
							"internalType": "address",
							"name": "to",
							"type": "address"
						},
						{
							"internalType": "uint256",
							"name": "quantity",
							"type": "uint256"
						}
					],
					"name": "mint",
					"outputs": [],
					"stateMutability": "payable",
					"type": "function"
				},
				{
					"inputs": [],
					"name": "mintPaused",
					"outputs": [
						{
							"internalType": "bool",
							"name": "",
							"type": "bool"
						}
					],
					"stateMutability": "view",
					"type": "function"
				},
				{
					"inputs": [],
					"name": "name",
					"outputs": [
						{
							"internalType": "string",
							"name": "",
							"type": "string"
						}
					],
					"stateMutability": "view",
					"type": "function"
				},
				{
					"inputs": [],
					"name": "owner",
					"outputs": [
						{
							"internalType": "address",
							"name": "",
							"type": "address"
						}
					],
					"stateMutability": "view",
					"type": "function"
				},
				{
					"inputs": [
						{
							"internalType": "uint256",
							"name": "tokenId",
							"type": "uint256"
						}
					],
					"name": "ownerOf",
					"outputs": [
						{
							"internalType": "address",
							"name": "",
							"type": "address"
						}
					],
					"stateMutability": "view",
					"type": "function"
				},
				{
					"inputs": [
						{
							"internalType": "bool",
							"name": "_paused",
							"type": "bool"
						}
					],
					"name": "pauseMint",
					"outputs": [],
					"stateMutability": "nonpayable",
					"type": "function"
				},
				{
					"inputs": [],
					"name": "renounceOwnership",
					"outputs": [],
					"stateMutability": "nonpayable",
					"type": "function"
				},
				{
					"inputs": [
						{
							"internalType": "address",
							"name": "from",
							"type": "address"
						},
						{
							"internalType": "address",
							"name": "to",
							"type": "address"
						},
						{
							"internalType": "uint256",
							"name": "tokenId",
							"type": "uint256"
						}
					],
					"name": "safeTransferFrom",
					"outputs": [],
					"stateMutability": "payable",
					"type": "function"
				},
				{
					"inputs": [
						{
							"internalType": "address",
							"name": "from",
							"type": "address"
						},
						{
							"internalType": "address",
							"name": "to",
							"type": "address"
						},
						{
							"internalType": "uint256",
							"name": "tokenId",
							"type": "uint256"
						},
						{
							"internalType": "bytes",
							"name": "_data",
							"type": "bytes"
						}
					],
					"name": "safeTransferFrom",
					"outputs": [],
					"stateMutability": "payable",
					"type": "function"
				},
				{
					"inputs": [
						{
							"internalType": "address",
							"name": "operator",
							"type": "address"
						},
						{
							"internalType": "bool",
							"name": "approved",
							"type": "bool"
						}
					],
					"name": "setApprovalForAll",
					"outputs": [],
					"stateMutability": "nonpayable",
					"type": "function"
				},
				{
					"inputs": [
						{
							"internalType": "string",
							"name": "baseURI",
							"type": "string"
						}
					],
					"name": "setBaseURI",
					"outputs": [],
					"stateMutability": "nonpayable",
					"type": "function"
				},
				{
					"inputs": [
						{
							"internalType": "bytes4",
							"name": "interfaceId",
							"type": "bytes4"
						}
					],
					"name": "supportsInterface",
					"outputs": [
						{
							"internalType": "bool",
							"name": "",
							"type": "bool"
						}
					],
					"stateMutability": "view",
					"type": "function"
				},
				{
					"inputs": [],
					"name": "symbol",
					"outputs": [
						{
							"internalType": "string",
							"name": "",
							"type": "string"
						}
					],
					"stateMutability": "view",
					"type": "function"
				},
				{
					"inputs": [
						{
							"internalType": "uint256",
							"name": "tokenId",
							"type": "uint256"
						}
					],
					"name": "tokenURI",
					"outputs": [
						{
							"internalType": "string",
							"name": "",
							"type": "string"
						}
					],
					"stateMutability": "view",
					"type": "function"
				},
				{
					"inputs": [],
					"name": "totalSupply",
					"outputs": [
						{
							"internalType": "uint256",
							"name": "",
							"type": "uint256"
						}
					],
					"stateMutability": "view",
					"type": "function"
				},
				{
					"inputs": [
						{
							"internalType": "address",
							"name": "from",
							"type": "address"
						},
						{
							"internalType": "address",
							"name": "to",
							"type": "address"
						},
						{
							"internalType": "uint256",
							"name": "tokenId",
							"type": "uint256"
						}
					],
					"name": "transferFrom",
					"outputs": [],
					"stateMutability": "payable",
					"type": "function"
				},
				{
					"inputs": [
						{
							"internalType": "address",
							"name": "newOwner",
							"type": "address"
						}
					],
					"name": "transferOwnership",
					"outputs": [],
					"stateMutability": "nonpayable",
					"type": "function"
				},
				{
					"inputs": [],
					"name": "withdraw",
					"outputs": [],
					"stateMutability": "nonpayable",
					"type": "function"
				}
			],
			"devdoc": {
				"kind": "dev",
				"methods": {
					"approve(address,uint256)": {
						"details": "Gives permission to `to` to transfer `tokenId` token to another account. The approval is cleared when the token is transferred. Only a single account can be approved at a time, so approving the zero address clears previous approvals. Requirements: - The caller must own the token or be an approved operator. - `tokenId` must exist. Emits an {Approval} event."
					},
					"balanceOf(address)": {
						"details": "Returns the number of tokens in `owner`'s account."
					},
					"getApproved(uint256)": {
						"details": "Returns the account approved for `tokenId` token. Requirements: - `tokenId` must exist."
					},
					"isApprovedForAll(address,address)": {
						"details": "Returns if the `operator` is allowed to manage all of the assets of `owner`. See {setApprovalForAll}."
					},
					"name()": {
						"details": "Returns the token collection name."
					},
					"owner()": {
						"details": "Returns the address of the current owner."
					},
					"ownerOf(uint256)": {
						"details": "Returns the owner of the `tokenId` token. Requirements: - `tokenId` must exist."
					},
					"renounceOwnership()": {
						"details": "Leaves the contract without owner. It will not be possible to call `onlyOwner` functions anymore. Can only be called by the current owner. NOTE: Renouncing ownership will leave the contract without an owner, thereby removing any functionality that is only available to the owner."
					},
					"safeTransferFrom(address,address,uint256)": {
						"details": "Equivalent to `safeTransferFrom(from, to, tokenId, '')`."
					},
					"safeTransferFrom(address,address,uint256,bytes)": {
						"details": "Safely transfers `tokenId` token from `from` to `to`. Requirements: - `from` cannot be the zero address. - `to` cannot be the zero address. - `tokenId` token must exist and be owned by `from`. - If the caller is not `from`, it must be approved to move this token by either {approve} or {setApprovalForAll}. - If `to` refers to a smart contract, it must implement {IERC721Receiver-onERC721Received}, which is called upon a safe transfer. Emits a {Transfer} event."
					},
					"setApprovalForAll(address,bool)": {
						"details": "Approve or remove `operator` as an operator for the caller. Operators can call {transferFrom} or {safeTransferFrom} for any token owned by the caller. Requirements: - The `operator` cannot be the caller. Emits an {ApprovalForAll} event."
					},
					"supportsInterface(bytes4)": {
						"details": "Returns true if this contract implements the interface defined by `interfaceId`. See the corresponding [EIP section](https://eips.ethereum.org/EIPS/eip-165#how-interfaces-are-identified) to learn more about how these ids are created. This function call must use less than 30000 gas."
					},
					"symbol()": {
						"details": "Returns the token collection symbol."
					},
					"tokenURI(uint256)": {
						"details": "Returns the Uniform Resource Identifier (URI) for `tokenId` token."
					},
					"totalSupply()": {
						"details": "Returns the total number of tokens in existence. Burned tokens will reduce the count. To get the total number of tokens minted, please see {_totalMinted}."
					},
					"transferFrom(address,address,uint256)": {
						"details": "Transfers `tokenId` from `from` to `to`. Requirements: - `from` cannot be the zero address. - `to` cannot be the zero address. - `tokenId` token must be owned by `from`. - If the caller is not `from`, it must be approved to move this token by either {approve} or {setApprovalForAll}. Emits a {Transfer} event."
					},
					"transferOwnership(address)": {
						"details": "Transfers ownership of the contract to a new account (`newOwner`). Can only be called by the current owner."
					}
				},
				"version": 1
			},
			"evm": {
				"assembly": "    /* \"contracts/MudAi.sol\":135:1453  contract MudAi is Ownable, ERC721A {... */\n  mstore(0x40, 0xa0)\n    /* \"contracts/MudAi.sol\":386:536  constructor(uint256 _startTime, bool _paused) ERC721A(\"ERC721A Token\", \"721AT\") {... */\n  callvalue\n  dup1\n  iszero\n  tag_1\n  jumpi\n  0x00\n  dup1\n  revert\ntag_1:\n  pop\n  mload(0x40)\n  sub(codesize, bytecodeSize)\n  dup1\n  bytecodeSize\n  dup4\n  codecopy\n  dup2\n  dup2\n  add\n  0x40\n  mstore\n  dup2\n  add\n  swap1\n  tag_2\n  swap2\n  swap1\n  tag_3\n  jump\t// in\ntag_2:\n    /* \"contracts/ERC721A.sol\":4957:5111  constructor(string memory name_, string memory symbol_) {... */\n  mload(0x40)\n  dup1\n  0x40\n  add\n  0x40\n  mstore\n  dup1\n  0x0d\n  dup2\n  mstore\n  0x20\n  add\n  0x4552433732314120546f6b656e00000000000000000000000000000000000000\n  dup2\n  mstore\n  pop\n  mload(0x40)\n  dup1\n  0x40\n  add\n  0x40\n  mstore\n  dup1\n  0x05\n  dup2\n  mstore\n  0x20\n  add\n  0x3732314154000000000000000000000000000000000000000000000000000000\n  dup2\n  mstore\n  pop\n    /* \"@openzeppelin/contracts/access/Ownable.sol\":936:968  _transferOwnership(_msgSender()) */\n  tag_8\n    /* \"@openzeppelin/contracts/access/Ownable.sol\":955:967  _msgSender() */\n  tag_9\n    /* \"@openzeppelin/contracts/access/Ownable.sol\":955:965  _msgSender */\n  shl(0x20, tag_10)\n    /* \"@openzeppelin/contracts/access/Ownable.sol\":955:967  _msgSender() */\n  0x20\n  shr\n  jump\t// in\ntag_9:\n    /* \"@openzeppelin/contracts/access/Ownable.sol\":936:954  _transferOwnership */\n  shl(0x20, tag_11)\n    /* \"@openzeppelin/contracts/access/Ownable.sol\":936:968  _transferOwnership(_msgSender()) */\n  0x20\n  shr\n  jump\t// in\ntag_8:\n    /* \"contracts/ERC721A.sol\":5031:5036  name_ */\n  dup2\n    /* \"contracts/ERC721A.sol\":5023:5028  _name */\n  0x03\n    /* \"contracts/ERC721A.sol\":5023:5036  _name = name_ */\n  swap1\n  dup1\n  mload\n  swap1\n  0x20\n  add\n  swap1\n  tag_13\n  swap3\n  swap2\n  swap1\n  tag_14\n  jump\t// in\ntag_13:\n  pop\n    /* \"contracts/ERC721A.sol\":5056:5063  symbol_ */\n  dup1\n    /* \"contracts/ERC721A.sol\":5046:5053  _symbol */\n  0x04\n    /* \"contracts/ERC721A.sol\":5046:5063  _symbol = symbol_ */\n  swap1\n  dup1\n  mload\n  swap1\n  0x20\n  add\n  swap1\n  tag_15\n  swap3\n  swap2\n  swap1\n  tag_14\n  jump\t// in\ntag_15:\n  pop\n    /* \"contracts/ERC721A.sol\":5089:5104  _startTokenId() */\n  tag_16\n    /* \"contracts/ERC721A.sol\":5089:5102  _startTokenId */\n  shl(0x20, tag_17)\n    /* \"contracts/ERC721A.sol\":5089:5104  _startTokenId() */\n  0x20\n  shr\n  jump\t// in\ntag_16:\n    /* \"contracts/ERC721A.sol\":5073:5086  _currentIndex */\n  0x01\n    /* \"contracts/ERC721A.sol\":5073:5104  _currentIndex = _startTokenId() */\n  dup2\n  swap1\n  sstore\n  pop\n    /* \"contracts/ERC721A.sol\":4957:5111  constructor(string memory name_, string memory symbol_) {... */\n  pop\n  pop\n    /* \"contracts/MudAi.sol\":489:499  _startTime */\n  dup2\n    /* \"contracts/MudAi.sol\":476:499  START_TIME = _startTime */\n  0x80\n  dup2\n  dup2\n  mstore\n  pop\n  pop\n    /* \"contracts/MudAi.sol\":522:529  _paused */\n  dup1\n    /* \"contracts/MudAi.sol\":509:519  mintPaused */\n  0x09\n  0x00\n    /* \"contracts/MudAi.sol\":509:529  mintPaused = _paused */\n  0x0100\n  exp\n  dup2\n  sload\n  dup2\n  0xff\n  mul\n  not\n  and\n  swap1\n  dup4\n  iszero\n  iszero\n  mul\n  or\n  swap1\n  sstore\n  pop\n    /* \"contracts/MudAi.sol\":386:536  constructor(uint256 _startTime, bool _paused) ERC721A(\"ERC721A Token\", \"721AT\") {... */\n  pop\n  pop\n    /* \"contracts/MudAi.sol\":135:1453  contract MudAi is Ownable, ERC721A {... */\n  jump(tag_19)\n    /* \"@openzeppelin/contracts/utils/Context.sol\":640:736  function _msgSender() internal view virtual returns (address) {... */\ntag_10:\n    /* \"@openzeppelin/contracts/utils/Context.sol\":693:700  address */\n  0x00\n    /* \"@openzeppelin/contracts/utils/Context.sol\":719:729  msg.sender */\n  caller\n    /* \"@openzeppelin/contracts/utils/Context.sol\":712:729  return msg.sender */\n  swap1\n  pop\n    /* \"@openzeppelin/contracts/utils/Context.sol\":640:736  function _msgSender() internal view virtual returns (address) {... */\n  swap1\n  jump\t// out\n    /* \"@openzeppelin/contracts/access/Ownable.sol\":2433:2620  function _transferOwnership(address newOwner) internal virtual {... */\ntag_11:\n    /* \"@openzeppelin/contracts/access/Ownable.sol\":2506:2522  address oldOwner */\n  0x00\n    /* \"@openzeppelin/contracts/access/Ownable.sol\":2525:2531  _owner */\n  dup1\n  0x00\n  swap1\n  sload\n  swap1\n  0x0100\n  exp\n  swap1\n  div\n  0xffffffffffffffffffffffffffffffffffffffff\n  and\n    /* \"@openzeppelin/contracts/access/Ownable.sol\":2506:2531  address oldOwner = _owner */\n  swap1\n  pop\n    /* \"@openzeppelin/contracts/access/Ownable.sol\":2550:2558  newOwner */\n  dup2\n    /* \"@openzeppelin/contracts/access/Ownable.sol\":2541:2547  _owner */\n  0x00\n  dup1\n    /* \"@openzeppelin/contracts/access/Ownable.sol\":2541:2558  _owner = newOwner */\n  0x0100\n  exp\n  dup2\n  sload\n  dup2\n  0xffffffffffffffffffffffffffffffffffffffff\n  mul\n  not\n  and\n  swap1\n  dup4\n  0xffffffffffffffffffffffffffffffffffffffff\n  and\n  mul\n  or\n  swap1\n  sstore\n  pop\n    /* \"@openzeppelin/contracts/access/Ownable.sol\":2604:2612  newOwner */\n  dup2\n    /* \"@openzeppelin/contracts/access/Ownable.sol\":2573:2613  OwnershipTransferred(oldOwner, newOwner) */\n  0xffffffffffffffffffffffffffffffffffffffff\n  and\n    /* \"@openzeppelin/contracts/access/Ownable.sol\":2594:2602  oldOwner */\n  dup2\n    /* \"@openzeppelin/contracts/access/Ownable.sol\":2573:2613  OwnershipTransferred(oldOwner, newOwner) */\n  0xffffffffffffffffffffffffffffffffffffffff\n  and\n  0x8be0079c531659141344cd1fd0a4f28419497f9722a3daafe3b4186f6b6457e0\n  mload(0x40)\n  mload(0x40)\n  dup1\n  swap2\n  sub\n  swap1\n  log3\n    /* \"@openzeppelin/contracts/access/Ownable.sol\":2496:2620  {... */\n  pop\n    /* \"@openzeppelin/contracts/access/Ownable.sol\":2433:2620  function _transferOwnership(address newOwner) internal virtual {... */\n  pop\n  jump\t// out\n    /* \"contracts/ERC721A.sol\":5437:5527  function _startTokenId() internal view virtual returns (uint256) {... */\ntag_17:\n    /* \"contracts/ERC721A.sol\":5493:5500  uint256 */\n  0x00\n    /* \"contracts/ERC721A.sol\":5437:5527  function _startTokenId() internal view virtual returns (uint256) {... */\n  swap1\n  jump\t// out\n    /* \"contracts/MudAi.sol\":135:1453  contract MudAi is Ownable, ERC721A {... */\ntag_14:\n  dup3\n  dup1\n  sload\n  tag_23\n  swap1\n  tag_24\n  jump\t// in\ntag_23:\n  swap1\n  0x00\n  mstore\n  keccak256(0x00, 0x20)\n  swap1\n  0x1f\n  add\n  0x20\n  swap1\n  div\n  dup2\n  add\n  swap3\n  dup3\n  tag_26\n  jumpi\n  0x00\n  dup6\n  sstore\n  jump(tag_25)\ntag_26:\n  dup3\n  0x1f\n  lt\n  tag_27\n  jumpi\n  dup1\n  mload\n  not(0xff)\n  and\n  dup4\n  dup1\n  add\n  or\n  dup6\n  sstore\n  jump(tag_25)\ntag_27:\n  dup3\n  dup1\n  add\n  0x01\n  add\n  dup6\n  sstore\n  dup3\n  iszero\n  tag_25\n  jumpi\n  swap2\n  dup3\n  add\ntag_28:\n  dup3\n  dup2\n  gt\n  iszero\n  tag_29\n  jumpi\n  dup3\n  mload\n  dup3\n  sstore\n  swap2\n  0x20\n  add\n  swap2\n  swap1\n  0x01\n  add\n  swap1\n  jump(tag_28)\ntag_29:\ntag_25:\n  pop\n  swap1\n  pop\n  tag_30\n  swap2\n  swap1\n  tag_31\n  jump\t// in\ntag_30:\n  pop\n  swap1\n  jump\t// out\ntag_31:\ntag_32:\n  dup1\n  dup3\n  gt\n  iszero\n  tag_33\n  jumpi\n  0x00\n  dup2\n  0x00\n  swap1\n  sstore\n  pop\n  0x01\n  add\n  jump(tag_32)\ntag_33:\n  pop\n  swap1\n  jump\t// out\n    /* \"#utility.yul\":7:144   */\ntag_35:\n    /* \"#utility.yul\":61:66   */\n  0x00\n    /* \"#utility.yul\":92:98   */\n  dup2\n    /* \"#utility.yul\":86:99   */\n  mload\n    /* \"#utility.yul\":77:99   */\n  swap1\n  pop\n    /* \"#utility.yul\":108:138   */\n  tag_37\n    /* \"#utility.yul\":132:137   */\n  dup2\n    /* \"#utility.yul\":108:138   */\n  tag_38\n  jump\t// in\ntag_37:\n    /* \"#utility.yul\":7:144   */\n  swap3\n  swap2\n  pop\n  pop\n  jump\t// out\n    /* \"#utility.yul\":150:293   */\ntag_39:\n    /* \"#utility.yul\":207:212   */\n  0x00\n    /* \"#utility.yul\":238:244   */\n  dup2\n    /* \"#utility.yul\":232:245   */\n  mload\n    /* \"#utility.yul\":223:245   */\n  swap1\n  pop\n    /* \"#utility.yul\":254:287   */\n  tag_41\n    /* \"#utility.yul\":281:286   */\n  dup2\n    /* \"#utility.yul\":254:287   */\n  tag_42\n  jump\t// in\ntag_41:\n    /* \"#utility.yul\":150:293   */\n  swap3\n  swap2\n  pop\n  pop\n  jump\t// out\n    /* \"#utility.yul\":299:800   */\ntag_3:\n    /* \"#utility.yul\":375:381   */\n  0x00\n    /* \"#utility.yul\":383:389   */\n  dup1\n    /* \"#utility.yul\":432:434   */\n  0x40\n    /* \"#utility.yul\":420:429   */\n  dup4\n    /* \"#utility.yul\":411:418   */\n  dup6\n    /* \"#utility.yul\":407:430   */\n  sub\n    /* \"#utility.yul\":403:435   */\n  slt\n    /* \"#utility.yul\":400:519   */\n  iszero\n  tag_44\n  jumpi\n    /* \"#utility.yul\":438:517   */\n  tag_45\n  tag_46\n  jump\t// in\ntag_45:\n    /* \"#utility.yul\":400:519   */\ntag_44:\n    /* \"#utility.yul\":558:559   */\n  0x00\n    /* \"#utility.yul\":583:647   */\n  tag_47\n    /* \"#utility.yul\":639:646   */\n  dup6\n    /* \"#utility.yul\":630:636   */\n  dup3\n    /* \"#utility.yul\":619:628   */\n  dup7\n    /* \"#utility.yul\":615:637   */\n  add\n    /* \"#utility.yul\":583:647   */\n  tag_39\n  jump\t// in\ntag_47:\n    /* \"#utility.yul\":573:647   */\n  swap3\n  pop\n    /* \"#utility.yul\":529:657   */\n  pop\n    /* \"#utility.yul\":696:698   */\n  0x20\n    /* \"#utility.yul\":722:783   */\n  tag_48\n    /* \"#utility.yul\":775:782   */\n  dup6\n    /* \"#utility.yul\":766:772   */\n  dup3\n    /* \"#utility.yul\":755:764   */\n  dup7\n    /* \"#utility.yul\":751:773   */\n  add\n    /* \"#utility.yul\":722:783   */\n  tag_35\n  jump\t// in\ntag_48:\n    /* \"#utility.yul\":712:783   */\n  swap2\n  pop\n    /* \"#utility.yul\":667:793   */\n  pop\n    /* \"#utility.yul\":299:800   */\n  swap3\n  pop\n  swap3\n  swap1\n  pop\n  jump\t// out\n    /* \"#utility.yul\":887:977   */\ntag_51:\n    /* \"#utility.yul\":921:928   */\n  0x00\n    /* \"#utility.yul\":964:969   */\n  dup2\n    /* \"#utility.yul\":957:970   */\n  iszero\n    /* \"#utility.yul\":950:971   */\n  iszero\n    /* \"#utility.yul\":939:971   */\n  swap1\n  pop\n    /* \"#utility.yul\":887:977   */\n  swap2\n  swap1\n  pop\n  jump\t// out\n    /* \"#utility.yul\":983:1060   */\ntag_53:\n    /* \"#utility.yul\":1020:1027   */\n  0x00\n    /* \"#utility.yul\":1049:1054   */\n  dup2\n    /* \"#utility.yul\":1038:1054   */\n  swap1\n  pop\n    /* \"#utility.yul\":983:1060   */\n  swap2\n  swap1\n  pop\n  jump\t// out\n    /* \"#utility.yul\":1066:1386   */\ntag_24:\n    /* \"#utility.yul\":1110:1116   */\n  0x00\n    /* \"#utility.yul\":1147:1148   */\n  0x02\n    /* \"#utility.yul\":1141:1145   */\n  dup3\n    /* \"#utility.yul\":1137:1149   */\n  div\n    /* \"#utility.yul\":1127:1149   */\n  swap1\n  pop\n    /* \"#utility.yul\":1194:1195   */\n  0x01\n    /* \"#utility.yul\":1188:1192   */\n  dup3\n    /* \"#utility.yul\":1184:1196   */\n  and\n    /* \"#utility.yul\":1215:1233   */\n  dup1\n    /* \"#utility.yul\":1205:1286   */\n  tag_56\n  jumpi\n    /* \"#utility.yul\":1271:1275   */\n  0x7f\n    /* \"#utility.yul\":1263:1269   */\n  dup3\n    /* \"#utility.yul\":1259:1276   */\n  and\n    /* \"#utility.yul\":1249:1276   */\n  swap2\n  pop\n    /* \"#utility.yul\":1205:1286   */\ntag_56:\n    /* \"#utility.yul\":1333:1335   */\n  0x20\n    /* \"#utility.yul\":1325:1331   */\n  dup3\n    /* \"#utility.yul\":1322:1336   */\n  lt\n    /* \"#utility.yul\":1302:1320   */\n  dup2\n    /* \"#utility.yul\":1299:1337   */\n  eq\n    /* \"#utility.yul\":1296:1380   */\n  iszero\n  tag_57\n  jumpi\n    /* \"#utility.yul\":1352:1370   */\n  tag_58\n  tag_59\n  jump\t// in\ntag_58:\n    /* \"#utility.yul\":1296:1380   */\ntag_57:\n    /* \"#utility.yul\":1117:1386   */\n  pop\n    /* \"#utility.yul\":1066:1386   */\n  swap2\n  swap1\n  pop\n  jump\t// out\n    /* \"#utility.yul\":1392:1572   */\ntag_59:\n    /* \"#utility.yul\":1440:1517   */\n  0x4e487b7100000000000000000000000000000000000000000000000000000000\n    /* \"#utility.yul\":1437:1438   */\n  0x00\n    /* \"#utility.yul\":1430:1518   */\n  mstore\n    /* \"#utility.yul\":1537:1541   */\n  0x22\n    /* \"#utility.yul\":1534:1535   */\n  0x04\n    /* \"#utility.yul\":1527:1542   */\n  mstore\n    /* \"#utility.yul\":1561:1565   */\n  0x24\n    /* \"#utility.yul\":1558:1559   */\n  0x00\n    /* \"#utility.yul\":1551:1566   */\n  revert\n    /* \"#utility.yul\":1701:1818   */\ntag_46:\n    /* \"#utility.yul\":1810:1811   */\n  0x00\n    /* \"#utility.yul\":1807:1808   */\n  dup1\n    /* \"#utility.yul\":1800:1812   */\n  revert\n    /* \"#utility.yul\":1824:1940   */\ntag_38:\n    /* \"#utility.yul\":1894:1915   */\n  tag_65\n    /* \"#utility.yul\":1909:1914   */\n  dup2\n    /* \"#utility.yul\":1894:1915   */\n  tag_51\n  jump\t// in\ntag_65:\n    /* \"#utility.yul\":1887:1892   */\n  dup2\n    /* \"#utility.yul\":1884:1916   */\n  eq\n    /* \"#utility.yul\":1874:1934   */\n  tag_66\n  jumpi\n    /* \"#utility.yul\":1930:1931   */\n  0x00\n    /* \"#utility.yul\":1927:1928   */\n  dup1\n    /* \"#utility.yul\":1920:1932   */\n  revert\n    /* \"#utility.yul\":1874:1934   */\ntag_66:\n    /* \"#utility.yul\":1824:1940   */\n  pop\n  jump\t// out\n    /* \"#utility.yul\":1946:2068   */\ntag_42:\n    /* \"#utility.yul\":2019:2043   */\n  tag_68\n    /* \"#utility.yul\":2037:2042   */\n  dup2\n    /* \"#utility.yul\":2019:2043   */\n  tag_53\n  jump\t// in\ntag_68:\n    /* \"#utility.yul\":2012:2017   */\n  dup2\n    /* \"#utility.yul\":2009:2044   */\n  eq\n    /* \"#utility.yul\":1999:2062   */\n  tag_69\n  jumpi\n    /* \"#utility.yul\":2058:2059   */\n  0x00\n    /* \"#utility.yul\":2055:2056   */\n  dup1\n    /* \"#utility.yul\":2048:2060   */\n  revert\n    /* \"#utility.yul\":1999:2062   */\ntag_69:\n    /* \"#utility.yul\":1946:2068   */\n  pop\n  jump\t// out\n    /* \"contracts/MudAi.sol\":135:1453  contract MudAi is Ownable, ERC721A {... */\ntag_19:\n  mload(0x80)\n  codecopy(0x00, dataOffset(sub_0), dataSize(sub_0))\n  0x00\n  assignImmutable(\"0x69a5fd07033cf89fd5e0ce34a4dd484970a9cb6a405d950435d3b8bfccde6515\")\n  return(0x00, dataSize(sub_0))\nstop\n\nsub_0: assembly {\n        /* \"contracts/MudAi.sol\":135:1453  contract MudAi is Ownable, ERC721A {... */\n      mstore(0x40, 0x80)\n      jumpi(tag_1, lt(calldatasize, 0x04))\n      shr(0xe0, calldataload(0x00))\n      dup1\n      0x70a08231\n      gt\n      tag_27\n      jumpi\n      dup1\n      0xa22cb465\n      gt\n      tag_28\n      jumpi\n      dup1\n      0xddaa26ad\n      gt\n      tag_29\n      jumpi\n      dup1\n      0xddaa26ad\n      eq\n      tag_23\n      jumpi\n      dup1\n      0xe985e9c5\n      eq\n      tag_24\n      jumpi\n      dup1\n      0xf2fde38b\n      eq\n      tag_25\n      jumpi\n      dup1\n      0xf30e6e77\n      eq\n      tag_26\n      jumpi\n      jump(tag_1)\n    tag_29:\n      dup1\n      0xa22cb465\n      eq\n      tag_20\n      jumpi\n      dup1\n      0xb88d4fde\n      eq\n      tag_21\n      jumpi\n      dup1\n      0xc87b56dd\n      eq\n      tag_22\n      jumpi\n      jump(tag_1)\n    tag_28:\n      dup1\n      0x70a08231\n      eq\n      tag_14\n      jumpi\n      dup1\n      0x715018a6\n      eq\n      tag_15\n      jumpi\n      dup1\n      0x7e4831d3\n      eq\n      tag_16\n      jumpi\n      dup1\n      0x833b9499\n      eq\n      tag_17\n      jumpi\n      dup1\n      0x8da5cb5b\n      eq\n      tag_18\n      jumpi\n      dup1\n      0x95d89b41\n      eq\n      tag_19\n      jumpi\n      jump(tag_1)\n    tag_27:\n      dup1\n      0x32cb6b0c\n      gt\n      tag_30\n      jumpi\n      dup1\n      0x32cb6b0c\n      eq\n      tag_8\n      jumpi\n      dup1\n      0x3ccfd60b\n      eq\n      tag_9\n      jumpi\n      dup1\n      0x40c10f19\n      eq\n      tag_10\n      jumpi\n      dup1\n      0x42842e0e\n      eq\n      tag_11\n      jumpi\n      dup1\n      0x55f804b3\n      eq\n      tag_12\n      jumpi\n      dup1\n      0x6352211e\n      eq\n      tag_13\n      jumpi\n      jump(tag_1)\n    tag_30:\n      dup1\n      0x01ffc9a7\n      eq\n      tag_2\n      jumpi\n      dup1\n      0x06fdde03\n      eq\n      tag_3\n      jumpi\n      dup1\n      0x081812fc\n      eq\n      tag_4\n      jumpi\n      dup1\n      0x095ea7b3\n      eq\n      tag_5\n      jumpi\n      dup1\n      0x18160ddd\n      eq\n      tag_6\n      jumpi\n      dup1\n      0x23b872dd\n      eq\n      tag_7\n      jumpi\n    tag_1:\n      0x00\n      dup1\n      revert\n        /* \"contracts/ERC721A.sol\":9166:9796  function supportsInterface(bytes4 interfaceId) public view virtual override returns (bool) {... */\n    tag_2:\n      callvalue\n      dup1\n      iszero\n      tag_31\n      jumpi\n      0x00\n      dup1\n      revert\n    tag_31:\n      pop\n      tag_32\n      0x04\n      dup1\n      calldatasize\n      sub\n      dup2\n      add\n      swap1\n      tag_33\n      swap2\n      swap1\n      tag_34\n      jump\t// in\n    tag_33:\n      tag_35\n      jump\t// in\n    tag_32:\n      mload(0x40)\n      tag_36\n      swap2\n      swap1\n      tag_37\n      jump\t// in\n    tag_36:\n      mload(0x40)\n      dup1\n      swap2\n      sub\n      swap1\n      return\n        /* \"contracts/ERC721A.sol\":10050:10148  function name() public view virtual override returns (string memory) {... */\n    tag_3:\n      callvalue\n      dup1\n      iszero\n      tag_38\n      jumpi\n      0x00\n      dup1\n      revert\n    tag_38:\n      pop\n      tag_39\n      tag_40\n      jump\t// in\n    tag_39:\n      mload(0x40)\n      tag_41\n      swap2\n      swap1\n      tag_42\n      jump\t// in\n    tag_41:\n      mload(0x40)\n      dup1\n      swap2\n      sub\n      swap1\n      return\n        /* \"contracts/ERC721A.sol\":16371:16585  function getApproved(uint256 tokenId) public view virtual override returns (address) {... */\n    tag_4:\n      callvalue\n      dup1\n      iszero\n      tag_43\n      jumpi\n      0x00\n      dup1\n      revert\n    tag_43:\n      pop\n      tag_44\n      0x04\n      dup1\n      calldatasize\n      sub\n      dup2\n      add\n      swap1\n      tag_45\n      swap2\n      swap1\n      tag_46\n      jump\t// in\n    tag_45:\n      tag_47\n      jump\t// in\n    tag_44:\n      mload(0x40)\n      tag_48\n      swap2\n      swap1\n      tag_49\n      jump\t// in\n    tag_48:\n      mload(0x40)\n      dup1\n      swap2\n      sub\n      swap1\n      return\n        /* \"contracts/ERC721A.sol\":15823:16221  function approve(address to, uint256 tokenId) public payable virtual override {... */\n    tag_5:\n      tag_50\n      0x04\n      dup1\n      calldatasize\n      sub\n      dup2\n      add\n      swap1\n      tag_51\n      swap2\n      swap1\n      tag_52\n      jump\t// in\n    tag_51:\n      tag_53\n      jump\t// in\n    tag_50:\n      stop\n        /* \"contracts/ERC721A.sol\":5905:6222  function totalSupply() public view virtual override returns (uint256) {... */\n    tag_6:\n      callvalue\n      dup1\n      iszero\n      tag_54\n      jumpi\n      0x00\n      dup1\n      revert\n    tag_54:\n      pop\n      tag_55\n      tag_56\n      jump\t// in\n    tag_55:\n      mload(0x40)\n      tag_57\n      swap2\n      swap1\n      tag_58\n      jump\t// in\n    tag_57:\n      mload(0x40)\n      dup1\n      swap2\n      sub\n      swap1\n      return\n        /* \"contracts/ERC721A.sol\":19914:22678  function transferFrom(... */\n    tag_7:\n      tag_59\n      0x04\n      dup1\n      calldatasize\n      sub\n      dup2\n      add\n      swap1\n      tag_60\n      swap2\n      swap1\n      tag_61\n      jump\t// in\n    tag_60:\n      tag_62\n      jump\t// in\n    tag_59:\n      stop\n        /* \"contracts/MudAi.sol\":177:217  uint256 public constant MAX_SUPPLY = 100 */\n    tag_8:\n      callvalue\n      dup1\n      iszero\n      tag_63\n      jumpi\n      0x00\n      dup1\n      revert\n    tag_63:\n      pop\n      tag_64\n      tag_65\n      jump\t// in\n    tag_64:\n      mload(0x40)\n      tag_66\n      swap2\n      swap1\n      tag_58\n      jump\t// in\n    tag_66:\n      mload(0x40)\n      dup1\n      swap2\n      sub\n      swap1\n      return\n        /* \"contracts/MudAi.sol\":917:1086  function withdraw() external onlyOwner {... */\n    tag_9:\n      callvalue\n      dup1\n      iszero\n      tag_67\n      jumpi\n      0x00\n      dup1\n      revert\n    tag_67:\n      pop\n      tag_68\n      tag_69\n      jump\t// in\n    tag_68:\n      stop\n        /* \"contracts/MudAi.sol\":542:911  function mint(address to, uint256 quantity) external payable {... */\n    tag_10:\n      tag_70\n      0x04\n      dup1\n      calldatasize\n      sub\n      dup2\n      add\n      swap1\n      tag_71\n      swap2\n      swap1\n      tag_52\n      jump\t// in\n    tag_71:\n      tag_72\n      jump\t// in\n    tag_70:\n      stop\n        /* \"contracts/ERC721A.sol\":22769:22956  function safeTransferFrom(... */\n    tag_11:\n      tag_73\n      0x04\n      dup1\n      calldatasize\n      sub\n      dup2\n      add\n      swap1\n      tag_74\n      swap2\n      swap1\n      tag_61\n      jump\t// in\n    tag_74:\n      tag_75\n      jump\t// in\n    tag_73:\n      stop\n        /* \"contracts/MudAi.sol\":1092:1196  function setBaseURI(string calldata baseURI) external onlyOwner {... */\n    tag_12:\n      callvalue\n      dup1\n      iszero\n      tag_76\n      jumpi\n      0x00\n      dup1\n      revert\n    tag_76:\n      pop\n      tag_77\n      0x04\n      dup1\n      calldatasize\n      sub\n      dup2\n      add\n      swap1\n      tag_78\n      swap2\n      swap1\n      tag_79\n      jump\t// in\n    tag_78:\n      tag_80\n      jump\t// in\n    tag_77:\n      stop\n        /* \"contracts/ERC721A.sol\":11402:11552  function ownerOf(uint256 tokenId) public view virtual override returns (address) {... */\n    tag_13:\n      callvalue\n      dup1\n      iszero\n      tag_81\n      jumpi\n      0x00\n      dup1\n      revert\n    tag_81:\n      pop\n      tag_82\n      0x04\n      dup1\n      calldatasize\n      sub\n      dup2\n      add\n      swap1\n      tag_83\n      swap2\n      swap1\n      tag_46\n      jump\t// in\n    tag_83:\n      tag_84\n      jump\t// in\n    tag_82:\n      mload(0x40)\n      tag_85\n      swap2\n      swap1\n      tag_49\n      jump\t// in\n    tag_85:\n      mload(0x40)\n      dup1\n      swap2\n      sub\n      swap1\n      return\n        /* \"contracts/ERC721A.sol\":7056:7286  function balanceOf(address owner) public view virtual override returns (uint256) {... */\n    tag_14:\n      callvalue\n      dup1\n      iszero\n      tag_86\n      jumpi\n      0x00\n      dup1\n      revert\n    tag_86:\n      pop\n      tag_87\n      0x04\n      dup1\n      calldatasize\n      sub\n      dup2\n      add\n      swap1\n      tag_88\n      swap2\n      swap1\n      tag_89\n      jump\t// in\n    tag_88:\n      tag_90\n      jump\t// in\n    tag_87:\n      mload(0x40)\n      tag_91\n      swap2\n      swap1\n      tag_58\n      jump\t// in\n    tag_91:\n      mload(0x40)\n      dup1\n      swap2\n      sub\n      swap1\n      return\n        /* \"@openzeppelin/contracts/access/Ownable.sol\":1831:1932  function renounceOwnership() public virtual onlyOwner {... */\n    tag_15:\n      callvalue\n      dup1\n      iszero\n      tag_92\n      jumpi\n      0x00\n      dup1\n      revert\n    tag_92:\n      pop\n      tag_93\n      tag_94\n      jump\t// in\n    tag_93:\n      stop\n        /* \"contracts/MudAi.sol\":322:344  bool public mintPaused */\n    tag_16:\n      callvalue\n      dup1\n      iszero\n      tag_95\n      jumpi\n      0x00\n      dup1\n      revert\n    tag_95:\n      pop\n      tag_96\n      tag_97\n      jump\t// in\n    tag_96:\n      mload(0x40)\n      tag_98\n      swap2\n      swap1\n      tag_37\n      jump\t// in\n    tag_98:\n      mload(0x40)\n      dup1\n      swap2\n      sub\n      swap1\n      return\n        /* \"contracts/MudAi.sol\":223:275  uint256 public constant PRICE_PER_TOKEN = 0.01 ether */\n    tag_17:\n      callvalue\n      dup1\n      iszero\n      tag_99\n      jumpi\n      0x00\n      dup1\n      revert\n    tag_99:\n      pop\n      tag_100\n      tag_101\n      jump\t// in\n    tag_100:\n      mload(0x40)\n      tag_102\n      swap2\n      swap1\n      tag_58\n      jump\t// in\n    tag_102:\n      mload(0x40)\n      dup1\n      swap2\n      sub\n      swap1\n      return\n        /* \"@openzeppelin/contracts/access/Ownable.sol\":1201:1286  function owner() public view virtual returns (address) {... */\n    tag_18:\n      callvalue\n      dup1\n      iszero\n      tag_103\n      jumpi\n      0x00\n      dup1\n      revert\n    tag_103:\n      pop\n      tag_104\n      tag_105\n      jump\t// in\n    tag_104:\n      mload(0x40)\n      tag_106\n      swap2\n      swap1\n      tag_49\n      jump\t// in\n    tag_106:\n      mload(0x40)\n      dup1\n      swap2\n      sub\n      swap1\n      return\n        /* \"contracts/ERC721A.sol\":10219:10321  function symbol() public view virtual override returns (string memory) {... */\n    tag_19:\n      callvalue\n      dup1\n      iszero\n      tag_107\n      jumpi\n      0x00\n      dup1\n      revert\n    tag_107:\n      pop\n      tag_108\n      tag_109\n      jump\t// in\n    tag_108:\n      mload(0x40)\n      tag_110\n      swap2\n      swap1\n      tag_42\n      jump\t// in\n    tag_110:\n      mload(0x40)\n      dup1\n      swap2\n      sub\n      swap1\n      return\n        /* \"contracts/ERC721A.sol\":16912:17143  function setApprovalForAll(address operator, bool approved) public virtual override {... */\n    tag_20:\n      callvalue\n      dup1\n      iszero\n      tag_111\n      jumpi\n      0x00\n      dup1\n      revert\n    tag_111:\n      pop\n      tag_112\n      0x04\n      dup1\n      calldatasize\n      sub\n      dup2\n      add\n      swap1\n      tag_113\n      swap2\n      swap1\n      tag_114\n      jump\t// in\n    tag_113:\n      tag_115\n      jump\t// in\n    tag_112:\n      stop\n        /* \"contracts/ERC721A.sol\":23537:23933  function safeTransferFrom(... */\n    tag_21:\n      tag_116\n      0x04\n      dup1\n      calldatasize\n      sub\n      dup2\n      add\n      swap1\n      tag_117\n      swap2\n      swap1\n      tag_118\n      jump\t// in\n    tag_117:\n      tag_119\n      jump\t// in\n    tag_116:\n      stop\n        /* \"contracts/ERC721A.sol\":10422:10735  function tokenURI(uint256 tokenId) public view virtual override returns (string memory) {... */\n    tag_22:\n      callvalue\n      dup1\n      iszero\n      tag_120\n      jumpi\n      0x00\n      dup1\n      revert\n    tag_120:\n      pop\n      tag_121\n      0x04\n      dup1\n      calldatasize\n      sub\n      dup2\n      add\n      swap1\n      tag_122\n      swap2\n      swap1\n      tag_46\n      jump\t// in\n    tag_122:\n      tag_123\n      jump\t// in\n    tag_121:\n      mload(0x40)\n      tag_124\n      swap2\n      swap1\n      tag_42\n      jump\t// in\n    tag_124:\n      mload(0x40)\n      dup1\n      swap2\n      sub\n      swap1\n      return\n        /* \"contracts/MudAi.sol\":281:316  uint256 public immutable START_TIME */\n    tag_23:\n      callvalue\n      dup1\n      iszero\n      tag_125\n      jumpi\n      0x00\n      dup1\n      revert\n    tag_125:\n      pop\n      tag_126\n      tag_127\n      jump\t// in\n    tag_126:\n      mload(0x40)\n      tag_128\n      swap2\n      swap1\n      tag_58\n      jump\t// in\n    tag_128:\n      mload(0x40)\n      dup1\n      swap2\n      sub\n      swap1\n      return\n        /* \"contracts/ERC721A.sol\":17293:17455  function isApprovedForAll(address owner, address operator) public view virtual override returns (bool) {... */\n    tag_24:\n      callvalue\n      dup1\n      iszero\n      tag_129\n      jumpi\n      0x00\n      dup1\n      revert\n    tag_129:\n      pop\n      tag_130\n      0x04\n      dup1\n      calldatasize\n      sub\n      dup2\n      add\n      swap1\n      tag_131\n      swap2\n      swap1\n      tag_132\n      jump\t// in\n    tag_131:\n      tag_133\n      jump\t// in\n    tag_130:\n      mload(0x40)\n      tag_134\n      swap2\n      swap1\n      tag_37\n      jump\t// in\n    tag_134:\n      mload(0x40)\n      dup1\n      swap2\n      sub\n      swap1\n      return\n        /* \"@openzeppelin/contracts/access/Ownable.sol\":2081:2279  function transferOwnership(address newOwner) public virtual onlyOwner {... */\n    tag_25:\n      callvalue\n      dup1\n      iszero\n      tag_135\n      jumpi\n      0x00\n      dup1\n      revert\n    tag_135:\n      pop\n      tag_136\n      0x04\n      dup1\n      calldatasize\n      sub\n      dup2\n      add\n      swap1\n      tag_137\n      swap2\n      swap1\n      tag_89\n      jump\t// in\n    tag_137:\n      tag_138\n      jump\t// in\n    tag_136:\n      stop\n        /* \"contracts/MudAi.sol\":1312:1451  function pauseMint(bool _paused) external onlyOwner {... */\n    tag_26:\n      callvalue\n      dup1\n      iszero\n      tag_139\n      jumpi\n      0x00\n      dup1\n      revert\n    tag_139:\n      pop\n      tag_140\n      0x04\n      dup1\n      calldatasize\n      sub\n      dup2\n      add\n      swap1\n      tag_141\n      swap2\n      swap1\n      tag_142\n      jump\t// in\n    tag_141:\n      tag_143\n      jump\t// in\n    tag_140:\n      stop\n        /* \"contracts/ERC721A.sol\":9166:9796  function supportsInterface(bytes4 interfaceId) public view virtual override returns (bool) {... */\n    tag_35:\n        /* \"contracts/ERC721A.sol\":9251:9255  bool */\n      0x00\n        /* \"contracts/ERC721A.sol\":9584:9594  0x01ffc9a7 */\n      0x01ffc9a7\n        /* \"contracts/ERC721A.sol\":9569:9594  interfaceId == 0x01ffc9a7 */\n      0xe0\n      shl\n        /* \"contracts/ERC721A.sol\":9569:9580  interfaceId */\n      dup3\n        /* \"contracts/ERC721A.sol\":9569:9594  interfaceId == 0x01ffc9a7 */\n      not(0xffffffffffffffffffffffffffffffffffffffffffffffffffffffff)\n      and\n      eq\n        /* \"contracts/ERC721A.sol\":9569:9670  interfaceId == 0x01ffc9a7 || // ERC165 interface ID for ERC165.... */\n      dup1\n      tag_145\n      jumpi\n      pop\n        /* \"contracts/ERC721A.sol\":9660:9670  0x80ac58cd */\n      0x80ac58cd\n        /* \"contracts/ERC721A.sol\":9645:9670  interfaceId == 0x80ac58cd */\n      0xe0\n      shl\n        /* \"contracts/ERC721A.sol\":9645:9656  interfaceId */\n      dup3\n        /* \"contracts/ERC721A.sol\":9645:9670  interfaceId == 0x80ac58cd */\n      not(0xffffffffffffffffffffffffffffffffffffffffffffffffffffffff)\n      and\n      eq\n        /* \"contracts/ERC721A.sol\":9569:9670  interfaceId == 0x01ffc9a7 || // ERC165 interface ID for ERC165.... */\n    tag_145:\n        /* \"contracts/ERC721A.sol\":9569:9746  interfaceId == 0x01ffc9a7 || // ERC165 interface ID for ERC165.... */\n      dup1\n      tag_146\n      jumpi\n      pop\n        /* \"contracts/ERC721A.sol\":9736:9746  0x5b5e139f */\n      0x5b5e139f\n        /* \"contracts/ERC721A.sol\":9721:9746  interfaceId == 0x5b5e139f */\n      0xe0\n      shl\n        /* \"contracts/ERC721A.sol\":9721:9732  interfaceId */\n      dup3\n        /* \"contracts/ERC721A.sol\":9721:9746  interfaceId == 0x5b5e139f */\n      not(0xffffffffffffffffffffffffffffffffffffffffffffffffffffffff)\n      and\n      eq\n        /* \"contracts/ERC721A.sol\":9569:9746  interfaceId == 0x01ffc9a7 || // ERC165 interface ID for ERC165.... */\n    tag_146:\n        /* \"contracts/ERC721A.sol\":9550:9746  return... */\n      swap1\n      pop\n        /* \"contracts/ERC721A.sol\":9166:9796  function supportsInterface(bytes4 interfaceId) public view virtual override returns (bool) {... */\n      swap2\n      swap1\n      pop\n      jump\t// out\n        /* \"contracts/ERC721A.sol\":10050:10148  function name() public view virtual override returns (string memory) {... */\n    tag_40:\n        /* \"contracts/ERC721A.sol\":10104:10117  string memory */\n      0x60\n        /* \"contracts/ERC721A.sol\":10136:10141  _name */\n      0x03\n        /* \"contracts/ERC721A.sol\":10129:10141  return _name */\n      dup1\n      sload\n      tag_148\n      swap1\n      tag_149\n      jump\t// in\n    tag_148:\n      dup1\n      0x1f\n      add\n      0x20\n      dup1\n      swap2\n      div\n      mul\n      0x20\n      add\n      mload(0x40)\n      swap1\n      dup2\n      add\n      0x40\n      mstore\n      dup1\n      swap3\n      swap2\n      swap1\n      dup2\n      dup2\n      mstore\n      0x20\n      add\n      dup3\n      dup1\n      sload\n      tag_150\n      swap1\n      tag_149\n      jump\t// in\n    tag_150:\n      dup1\n      iszero\n      tag_151\n      jumpi\n      dup1\n      0x1f\n      lt\n      tag_152\n      jumpi\n      0x0100\n      dup1\n      dup4\n      sload\n      div\n      mul\n      dup4\n      mstore\n      swap2\n      0x20\n      add\n      swap2\n      jump(tag_151)\n    tag_152:\n      dup3\n      add\n      swap2\n      swap1\n      0x00\n      mstore\n      keccak256(0x00, 0x20)\n      swap1\n    tag_153:\n      dup2\n      sload\n      dup2\n      mstore\n      swap1\n      0x01\n      add\n      swap1\n      0x20\n      add\n      dup1\n      dup4\n      gt\n      tag_153\n      jumpi\n      dup3\n      swap1\n      sub\n      0x1f\n      and\n      dup3\n      add\n      swap2\n    tag_151:\n      pop\n      pop\n      pop\n      pop\n      pop\n      swap1\n      pop\n        /* \"contracts/ERC721A.sol\":10050:10148  function name() public view virtual override returns (string memory) {... */\n      swap1\n      jump\t// out\n        /* \"contracts/ERC721A.sol\":16371:16585  function getApproved(uint256 tokenId) public view virtual override returns (address) {... */\n    tag_47:\n        /* \"contracts/ERC721A.sol\":16447:16454  address */\n      0x00\n        /* \"contracts/ERC721A.sol\":16471:16487  _exists(tokenId) */\n      tag_155\n        /* \"contracts/ERC721A.sol\":16479:16486  tokenId */\n      dup3\n        /* \"contracts/ERC721A.sol\":16471:16478  _exists */\n      tag_156\n        /* \"contracts/ERC721A.sol\":16471:16487  _exists(tokenId) */\n      jump\t// in\n    tag_155:\n        /* \"contracts/ERC721A.sol\":16466:16530  if (!_exists(tokenId)) revert ApprovalQueryForNonexistentToken() */\n      tag_157\n      jumpi\n        /* \"contracts/ERC721A.sol\":16496:16530  ApprovalQueryForNonexistentToken() */\n      mload(0x40)\n      0xcf4700e400000000000000000000000000000000000000000000000000000000\n      dup2\n      mstore\n      0x04\n      add\n      mload(0x40)\n      dup1\n      swap2\n      sub\n      swap1\n      revert\n        /* \"contracts/ERC721A.sol\":16466:16530  if (!_exists(tokenId)) revert ApprovalQueryForNonexistentToken() */\n    tag_157:\n        /* \"contracts/ERC721A.sol\":16548:16563  _tokenApprovals */\n      0x07\n        /* \"contracts/ERC721A.sol\":16548:16572  _tokenApprovals[tokenId] */\n      0x00\n        /* \"contracts/ERC721A.sol\":16564:16571  tokenId */\n      dup4\n        /* \"contracts/ERC721A.sol\":16548:16572  _tokenApprovals[tokenId] */\n      dup2\n      mstore\n      0x20\n      add\n      swap1\n      dup2\n      mstore\n      0x20\n      add\n      0x00\n      keccak256\n        /* \"contracts/ERC721A.sol\":16548:16578  _tokenApprovals[tokenId].value */\n      0x00\n      add\n      0x00\n      swap1\n      sload\n      swap1\n      0x0100\n      exp\n      swap1\n      div\n      0xffffffffffffffffffffffffffffffffffffffff\n      and\n        /* \"contracts/ERC721A.sol\":16541:16578  return _tokenApprovals[tokenId].value */\n      swap1\n      pop\n        /* \"contracts/ERC721A.sol\":16371:16585  function getApproved(uint256 tokenId) public view virtual override returns (address) {... */\n      swap2\n      swap1\n      pop\n      jump\t// out\n        /* \"contracts/ERC721A.sol\":15823:16221  function approve(address to, uint256 tokenId) public payable virtual override {... */\n    tag_53:\n        /* \"contracts/ERC721A.sol\":15911:15924  address owner */\n      0x00\n        /* \"contracts/ERC721A.sol\":15927:15943  ownerOf(tokenId) */\n      tag_159\n        /* \"contracts/ERC721A.sol\":15935:15942  tokenId */\n      dup3\n        /* \"contracts/ERC721A.sol\":15927:15934  ownerOf */\n      tag_84\n        /* \"contracts/ERC721A.sol\":15927:15943  ownerOf(tokenId) */\n      jump\t// in\n    tag_159:\n        /* \"contracts/ERC721A.sol\":15911:15943  address owner = ownerOf(tokenId) */\n      swap1\n      pop\n        /* \"contracts/ERC721A.sol\":15981:15986  owner */\n      dup1\n        /* \"contracts/ERC721A.sol\":15958:15986  _msgSenderERC721A() != owner */\n      0xffffffffffffffffffffffffffffffffffffffff\n      and\n        /* \"contracts/ERC721A.sol\":15958:15977  _msgSenderERC721A() */\n      tag_160\n        /* \"contracts/ERC721A.sol\":15958:15975  _msgSenderERC721A */\n      tag_161\n        /* \"contracts/ERC721A.sol\":15958:15977  _msgSenderERC721A() */\n      jump\t// in\n    tag_160:\n        /* \"contracts/ERC721A.sol\":15958:15986  _msgSenderERC721A() != owner */\n      0xffffffffffffffffffffffffffffffffffffffff\n      and\n      eq\n        /* \"contracts/ERC721A.sol\":15954:16126  if (_msgSenderERC721A() != owner)... */\n      tag_162\n      jumpi\n        /* \"contracts/ERC721A.sol\":16005:16049  isApprovedForAll(owner, _msgSenderERC721A()) */\n      tag_163\n        /* \"contracts/ERC721A.sol\":16022:16027  owner */\n      dup2\n        /* \"contracts/ERC721A.sol\":16029:16048  _msgSenderERC721A() */\n      tag_164\n        /* \"contracts/ERC721A.sol\":16029:16046  _msgSenderERC721A */\n      tag_161\n        /* \"contracts/ERC721A.sol\":16029:16048  _msgSenderERC721A() */\n      jump\t// in\n    tag_164:\n        /* \"contracts/ERC721A.sol\":16005:16021  isApprovedForAll */\n      tag_133\n        /* \"contracts/ERC721A.sol\":16005:16049  isApprovedForAll(owner, _msgSenderERC721A()) */\n      jump\t// in\n    tag_163:\n        /* \"contracts/ERC721A.sol\":16000:16126  if (!isApprovedForAll(owner, _msgSenderERC721A())) {... */\n      tag_165\n      jumpi\n        /* \"contracts/ERC721A.sol\":16076:16111  ApprovalCallerNotOwnerNorApproved() */\n      mload(0x40)\n      0xcfb3b94200000000000000000000000000000000000000000000000000000000\n      dup2\n      mstore\n      0x04\n      add\n      mload(0x40)\n      dup1\n      swap2\n      sub\n      swap1\n      revert\n        /* \"contracts/ERC721A.sol\":16000:16126  if (!isApprovedForAll(owner, _msgSenderERC721A())) {... */\n    tag_165:\n        /* \"contracts/ERC721A.sol\":15954:16126  if (_msgSenderERC721A() != owner)... */\n    tag_162:\n        /* \"contracts/ERC721A.sol\":16169:16171  to */\n      dup3\n        /* \"contracts/ERC721A.sol\":16136:16151  _tokenApprovals */\n      0x07\n        /* \"contracts/ERC721A.sol\":16136:16160  _tokenApprovals[tokenId] */\n      0x00\n        /* \"contracts/ERC721A.sol\":16152:16159  tokenId */\n      dup5\n        /* \"contracts/ERC721A.sol\":16136:16160  _tokenApprovals[tokenId] */\n      dup2\n      mstore\n      0x20\n      add\n      swap1\n      dup2\n      mstore\n      0x20\n      add\n      0x00\n      keccak256\n        /* \"contracts/ERC721A.sol\":16136:16166  _tokenApprovals[tokenId].value */\n      0x00\n      add\n      0x00\n        /* \"contracts/ERC721A.sol\":16136:16171  _tokenApprovals[tokenId].value = to */\n      0x0100\n      exp\n      dup2\n      sload\n      dup2\n      0xffffffffffffffffffffffffffffffffffffffff\n      mul\n      not\n      and\n      swap1\n      dup4\n      0xffffffffffffffffffffffffffffffffffffffff\n      and\n      mul\n      or\n      swap1\n      sstore\n      pop\n        /* \"contracts/ERC721A.sol\":16206:16213  tokenId */\n      dup2\n        /* \"contracts/ERC721A.sol\":16202:16204  to */\n      dup4\n        /* \"contracts/ERC721A.sol\":16186:16214  Approval(owner, to, tokenId) */\n      0xffffffffffffffffffffffffffffffffffffffff\n      and\n        /* \"contracts/ERC721A.sol\":16195:16200  owner */\n      dup3\n        /* \"contracts/ERC721A.sol\":16186:16214  Approval(owner, to, tokenId) */\n      0xffffffffffffffffffffffffffffffffffffffff\n      and\n      0x8c5be1e5ebec7d5bd14f71427d1e84f3dd0314c0f7b2291e5b200ac8c7c3b925\n      mload(0x40)\n      mload(0x40)\n      dup1\n      swap2\n      sub\n      swap1\n      log4\n        /* \"contracts/ERC721A.sol\":15901:16221  {... */\n      pop\n        /* \"contracts/ERC721A.sol\":15823:16221  function approve(address to, uint256 tokenId) public payable virtual override {... */\n      pop\n      pop\n      jump\t// out\n        /* \"contracts/ERC721A.sol\":5905:6222  function totalSupply() public view virtual override returns (uint256) {... */\n    tag_56:\n        /* \"contracts/ERC721A.sol\":5966:5973  uint256 */\n      0x00\n        /* \"contracts/ERC721A.sol\":6190:6205  _startTokenId() */\n      tag_167\n        /* \"contracts/ERC721A.sol\":6190:6203  _startTokenId */\n      tag_168\n        /* \"contracts/ERC721A.sol\":6190:6205  _startTokenId() */\n      jump\t// in\n    tag_167:\n        /* \"contracts/ERC721A.sol\":6175:6187  _burnCounter */\n      sload(0x02)\n        /* \"contracts/ERC721A.sol\":6159:6172  _currentIndex */\n      sload(0x01)\n        /* \"contracts/ERC721A.sol\":6159:6187  _currentIndex - _burnCounter */\n      sub\n        /* \"contracts/ERC721A.sol\":6159:6205  _currentIndex - _burnCounter - _startTokenId() */\n      sub\n        /* \"contracts/ERC721A.sol\":6152:6205  return _currentIndex - _burnCounter - _startTokenId() */\n      swap1\n      pop\n        /* \"contracts/ERC721A.sol\":5905:6222  function totalSupply() public view virtual override returns (uint256) {... */\n      swap1\n      jump\t// out\n        /* \"contracts/ERC721A.sol\":19914:22678  function transferFrom(... */\n    tag_62:\n        /* \"contracts/ERC721A.sol\":20051:20078  uint256 prevOwnershipPacked */\n      0x00\n        /* \"contracts/ERC721A.sol\":20081:20108  _packedOwnershipOf(tokenId) */\n      tag_170\n        /* \"contracts/ERC721A.sol\":20100:20107  tokenId */\n      dup3\n        /* \"contracts/ERC721A.sol\":20081:20099  _packedOwnershipOf */\n      tag_171\n        /* \"contracts/ERC721A.sol\":20081:20108  _packedOwnershipOf(tokenId) */\n      jump\t// in\n    tag_170:\n        /* \"contracts/ERC721A.sol\":20051:20108  uint256 prevOwnershipPacked = _packedOwnershipOf(tokenId) */\n      swap1\n      pop\n        /* \"contracts/ERC721A.sol\":20164:20168  from */\n      dup4\n        /* \"contracts/ERC721A.sol\":20123:20168  address(uint160(prevOwnershipPacked)) != from */\n      0xffffffffffffffffffffffffffffffffffffffff\n      and\n        /* \"contracts/ERC721A.sol\":20139:20158  prevOwnershipPacked */\n      dup2\n        /* \"contracts/ERC721A.sol\":20123:20168  address(uint160(prevOwnershipPacked)) != from */\n      0xffffffffffffffffffffffffffffffffffffffff\n      and\n      eq\n        /* \"contracts/ERC721A.sol\":20119:20205  if (address(uint160(prevOwnershipPacked)) != from) revert TransferFromIncorrectOwner() */\n      tag_172\n      jumpi\n        /* \"contracts/ERC721A.sol\":20177:20205  TransferFromIncorrectOwner() */\n      mload(0x40)\n      0xa114810000000000000000000000000000000000000000000000000000000000\n      dup2\n      mstore\n      0x04\n      add\n      mload(0x40)\n      dup1\n      swap2\n      sub\n      swap1\n      revert\n        /* \"contracts/ERC721A.sol\":20119:20205  if (address(uint160(prevOwnershipPacked)) != from) revert TransferFromIncorrectOwner() */\n    tag_172:\n        /* \"contracts/ERC721A.sol\":20217:20244  uint256 approvedAddressSlot */\n      0x00\n        /* \"contracts/ERC721A.sol\":20246:20269  address approvedAddress */\n      dup1\n        /* \"contracts/ERC721A.sol\":20273:20308  _getApprovedSlotAndAddress(tokenId) */\n      tag_173\n        /* \"contracts/ERC721A.sol\":20300:20307  tokenId */\n      dup5\n        /* \"contracts/ERC721A.sol\":20273:20299  _getApprovedSlotAndAddress */\n      tag_174\n        /* \"contracts/ERC721A.sol\":20273:20308  _getApprovedSlotAndAddress(tokenId) */\n      jump\t// in\n    tag_173:\n        /* \"contracts/ERC721A.sol\":20216:20308  (uint256 approvedAddressSlot, address approvedAddress) = _getApprovedSlotAndAddress(tokenId) */\n      swap2\n      pop\n      swap2\n      pop\n        /* \"contracts/ERC721A.sol\":20405:20473  _isSenderApprovedOrOwner(approvedAddress, from, _msgSenderERC721A()) */\n      tag_175\n        /* \"contracts/ERC721A.sol\":20430:20445  approvedAddress */\n      dup2\n        /* \"contracts/ERC721A.sol\":20447:20451  from */\n      dup8\n        /* \"contracts/ERC721A.sol\":20453:20472  _msgSenderERC721A() */\n      tag_176\n        /* \"contracts/ERC721A.sol\":20453:20470  _msgSenderERC721A */\n      tag_161\n        /* \"contracts/ERC721A.sol\":20453:20472  _msgSenderERC721A() */\n      jump\t// in\n    tag_176:\n        /* \"contracts/ERC721A.sol\":20405:20429  _isSenderApprovedOrOwner */\n      tag_177\n        /* \"contracts/ERC721A.sol\":20405:20473  _isSenderApprovedOrOwner(approvedAddress, from, _msgSenderERC721A()) */\n      jump\t// in\n    tag_175:\n        /* \"contracts/ERC721A.sol\":20400:20579  if (!_isSenderApprovedOrOwner(approvedAddress, from, _msgSenderERC721A()))... */\n      tag_178\n      jumpi\n        /* \"contracts/ERC721A.sol\":20492:20535  isApprovedForAll(from, _msgSenderERC721A()) */\n      tag_179\n        /* \"contracts/ERC721A.sol\":20509:20513  from */\n      dup7\n        /* \"contracts/ERC721A.sol\":20515:20534  _msgSenderERC721A() */\n      tag_180\n        /* \"contracts/ERC721A.sol\":20515:20532  _msgSenderERC721A */\n      tag_161\n        /* \"contracts/ERC721A.sol\":20515:20534  _msgSenderERC721A() */\n      jump\t// in\n    tag_180:\n        /* \"contracts/ERC721A.sol\":20492:20508  isApprovedForAll */\n      tag_133\n        /* \"contracts/ERC721A.sol\":20492:20535  isApprovedForAll(from, _msgSenderERC721A()) */\n      jump\t// in\n    tag_179:\n        /* \"contracts/ERC721A.sol\":20487:20579  if (!isApprovedForAll(from, _msgSenderERC721A())) revert TransferCallerNotOwnerNorApproved() */\n      tag_181\n      jumpi\n        /* \"contracts/ERC721A.sol\":20544:20579  TransferCallerNotOwnerNorApproved() */\n      mload(0x40)\n      0x59c896be00000000000000000000000000000000000000000000000000000000\n      dup2\n      mstore\n      0x04\n      add\n      mload(0x40)\n      dup1\n      swap2\n      sub\n      swap1\n      revert\n        /* \"contracts/ERC721A.sol\":20487:20579  if (!isApprovedForAll(from, _msgSenderERC721A())) revert TransferCallerNotOwnerNorApproved() */\n    tag_181:\n        /* \"contracts/ERC721A.sol\":20400:20579  if (!_isSenderApprovedOrOwner(approvedAddress, from, _msgSenderERC721A()))... */\n    tag_178:\n        /* \"contracts/ERC721A.sol\":20608:20609  0 */\n      0x00\n        /* \"contracts/ERC721A.sol\":20594:20610  to == address(0) */\n      0xffffffffffffffffffffffffffffffffffffffff\n      and\n        /* \"contracts/ERC721A.sol\":20594:20596  to */\n      dup6\n        /* \"contracts/ERC721A.sol\":20594:20610  to == address(0) */\n      0xffffffffffffffffffffffffffffffffffffffff\n      and\n      eq\n        /* \"contracts/ERC721A.sol\":20590:20642  if (to == address(0)) revert TransferToZeroAddress() */\n      iszero\n      tag_182\n      jumpi\n        /* \"contracts/ERC721A.sol\":20619:20642  TransferToZeroAddress() */\n      mload(0x40)\n      0xea553b3400000000000000000000000000000000000000000000000000000000\n      dup2\n      mstore\n      0x04\n      add\n      mload(0x40)\n      dup1\n      swap2\n      sub\n      swap1\n      revert\n        /* \"contracts/ERC721A.sol\":20590:20642  if (to == address(0)) revert TransferToZeroAddress() */\n    tag_182:\n        /* \"contracts/ERC721A.sol\":20653:20696  _beforeTokenTransfers(from, to, tokenId, 1) */\n      tag_183\n        /* \"contracts/ERC721A.sol\":20675:20679  from */\n      dup7\n        /* \"contracts/ERC721A.sol\":20681:20683  to */\n      dup7\n        /* \"contracts/ERC721A.sol\":20685:20692  tokenId */\n      dup7\n        /* \"contracts/ERC721A.sol\":20694:20695  1 */\n      0x01\n        /* \"contracts/ERC721A.sol\":20653:20674  _beforeTokenTransfers */\n      tag_184\n        /* \"contracts/ERC721A.sol\":20653:20696  _beforeTokenTransfers(from, to, tokenId, 1) */\n      jump\t// in\n    tag_183:\n        /* \"contracts/ERC721A.sol\":20785:20800  approvedAddress */\n      dup1\n        /* \"contracts/ERC721A.sol\":20782:20939  if approvedAddress {... */\n      iszero\n      tag_185\n      jumpi\n        /* \"contracts/ERC721A.sol\":20923:20924  0 */\n      0x00\n        /* \"contracts/ERC721A.sol\":20902:20921  approvedAddressSlot */\n      dup3\n        /* \"contracts/ERC721A.sol\":20895:20925  sstore(approvedAddressSlot, 0) */\n      sstore\n        /* \"contracts/ERC721A.sol\":20782:20939  if approvedAddress {... */\n    tag_185:\n        /* \"contracts/ERC721A.sol\":21311:21329  _packedAddressData */\n      0x06\n        /* \"contracts/ERC721A.sol\":21311:21335  _packedAddressData[from] */\n      0x00\n        /* \"contracts/ERC721A.sol\":21330:21334  from */\n      dup8\n        /* \"contracts/ERC721A.sol\":21311:21335  _packedAddressData[from] */\n      0xffffffffffffffffffffffffffffffffffffffff\n      and\n      0xffffffffffffffffffffffffffffffffffffffff\n      and\n      dup2\n      mstore\n      0x20\n      add\n      swap1\n      dup2\n      mstore\n      0x20\n      add\n      0x00\n      keccak256\n      0x00\n        /* \"contracts/ERC721A.sol\":21309:21335  --_packedAddressData[from] */\n      dup2\n      sload\n      0x01\n      swap1\n      sub\n      swap2\n      swap1\n      pop\n      dup2\n      swap1\n      sstore\n      pop\n        /* \"contracts/ERC721A.sol\":21379:21397  _packedAddressData */\n      0x06\n        /* \"contracts/ERC721A.sol\":21379:21401  _packedAddressData[to] */\n      0x00\n        /* \"contracts/ERC721A.sol\":21398:21400  to */\n      dup7\n        /* \"contracts/ERC721A.sol\":21379:21401  _packedAddressData[to] */\n      0xffffffffffffffffffffffffffffffffffffffff\n      and\n      0xffffffffffffffffffffffffffffffffffffffff\n      and\n      dup2\n      mstore\n      0x20\n      add\n      swap1\n      dup2\n      mstore\n      0x20\n      add\n      0x00\n      keccak256\n      0x00\n        /* \"contracts/ERC721A.sol\":21377:21401  ++_packedAddressData[to] */\n      dup2\n      sload\n      0x01\n      add\n      swap2\n      swap1\n      pop\n      dup2\n      swap1\n      sstore\n      pop\n        /* \"contracts/ERC721A.sol\":21694:21837  _packOwnershipData(... */\n      tag_186\n        /* \"contracts/ERC721A.sol\":21730:21732  to */\n      dup6\n        /* \"contracts/ERC721A.sol\":21778:21823  _nextExtraData(from, to, prevOwnershipPacked) */\n      tag_187\n        /* \"contracts/ERC721A.sol\":21793:21797  from */\n      dup9\n        /* \"contracts/ERC721A.sol\":21799:21801  to */\n      dup9\n        /* \"contracts/ERC721A.sol\":21803:21822  prevOwnershipPacked */\n      dup8\n        /* \"contracts/ERC721A.sol\":21778:21792  _nextExtraData */\n      tag_188\n        /* \"contracts/ERC721A.sol\":21778:21823  _nextExtraData(from, to, prevOwnershipPacked) */\n      jump\t// in\n    tag_187:\n        /* \"contracts/ERC721A.sol\":2403:2411  1 << 225 */\n      0x0200000000000000000000000000000000000000000000000000000000\n        /* \"contracts/ERC721A.sol\":21750:21823  _BITMASK_NEXT_INITIALIZED | _nextExtraData(from, to, prevOwnershipPacked) */\n      or\n        /* \"contracts/ERC721A.sol\":21694:21712  _packOwnershipData */\n      tag_189\n        /* \"contracts/ERC721A.sol\":21694:21837  _packOwnershipData(... */\n      jump\t// in\n    tag_186:\n        /* \"contracts/ERC721A.sol\":21665:21682  _packedOwnerships */\n      0x05\n        /* \"contracts/ERC721A.sol\":21665:21691  _packedOwnerships[tokenId] */\n      0x00\n        /* \"contracts/ERC721A.sol\":21683:21690  tokenId */\n      dup7\n        /* \"contracts/ERC721A.sol\":21665:21691  _packedOwnerships[tokenId] */\n      dup2\n      mstore\n      0x20\n      add\n      swap1\n      dup2\n      mstore\n      0x20\n      add\n      0x00\n      keccak256\n        /* \"contracts/ERC721A.sol\":21665:21837  _packedOwnerships[tokenId] = _packOwnershipData(... */\n      dup2\n      swap1\n      sstore\n      pop\n        /* \"contracts/ERC721A.sol\":22005:22006  0 */\n      0x00\n        /* \"contracts/ERC721A.sol\":2403:2411  1 << 225 */\n      0x0200000000000000000000000000000000000000000000000000000000\n        /* \"contracts/ERC721A.sol\":21954:21973  prevOwnershipPacked */\n      dup5\n        /* \"contracts/ERC721A.sol\":21954:22001  prevOwnershipPacked & _BITMASK_NEXT_INITIALIZED */\n      and\n        /* \"contracts/ERC721A.sol\":21954:22006  prevOwnershipPacked & _BITMASK_NEXT_INITIALIZED == 0 */\n      eq\n        /* \"contracts/ERC721A.sol\":21950:22567  if (prevOwnershipPacked & _BITMASK_NEXT_INITIALIZED == 0) {... */\n      iszero\n      tag_190\n      jumpi\n        /* \"contracts/ERC721A.sol\":22026:22045  uint256 nextTokenId */\n      0x00\n        /* \"contracts/ERC721A.sol\":22058:22059  1 */\n      0x01\n        /* \"contracts/ERC721A.sol\":22048:22055  tokenId */\n      dup6\n        /* \"contracts/ERC721A.sol\":22048:22059  tokenId + 1 */\n      add\n        /* \"contracts/ERC721A.sol\":22026:22059  uint256 nextTokenId = tokenId + 1 */\n      swap1\n      pop\n        /* \"contracts/ERC721A.sol\":22213:22214  0 */\n      0x00\n        /* \"contracts/ERC721A.sol\":22179:22196  _packedOwnerships */\n      0x05\n        /* \"contracts/ERC721A.sol\":22179:22209  _packedOwnerships[nextTokenId] */\n      0x00\n        /* \"contracts/ERC721A.sol\":22197:22208  nextTokenId */\n      dup4\n        /* \"contracts/ERC721A.sol\":22179:22209  _packedOwnerships[nextTokenId] */\n      dup2\n      mstore\n      0x20\n      add\n      swap1\n      dup2\n      mstore\n      0x20\n      add\n      0x00\n      keccak256\n      sload\n        /* \"contracts/ERC721A.sol\":22179:22214  _packedOwnerships[nextTokenId] == 0 */\n      eq\n        /* \"contracts/ERC721A.sol\":22175:22553  if (_packedOwnerships[nextTokenId] == 0) {... */\n      iszero\n      tag_191\n      jumpi\n        /* \"contracts/ERC721A.sol\":22315:22328  _currentIndex */\n      sload(0x01)\n        /* \"contracts/ERC721A.sol\":22300:22311  nextTokenId */\n      dup2\n        /* \"contracts/ERC721A.sol\":22300:22328  nextTokenId != _currentIndex */\n      eq\n        /* \"contracts/ERC721A.sol\":22296:22535  if (nextTokenId != _currentIndex) {... */\n      tag_192\n      jumpi\n        /* \"contracts/ERC721A.sol\":22493:22512  prevOwnershipPacked */\n      dup4\n        /* \"contracts/ERC721A.sol\":22460:22477  _packedOwnerships */\n      0x05\n        /* \"contracts/ERC721A.sol\":22460:22490  _packedOwnerships[nextTokenId] */\n      0x00\n        /* \"contracts/ERC721A.sol\":22478:22489  nextTokenId */\n      dup4\n        /* \"contracts/ERC721A.sol\":22460:22490  _packedOwnerships[nextTokenId] */\n      dup2\n      mstore\n      0x20\n      add\n      swap1\n      dup2\n      mstore\n      0x20\n      add\n      0x00\n      keccak256\n        /* \"contracts/ERC721A.sol\":22460:22512  _packedOwnerships[nextTokenId] = prevOwnershipPacked */\n      dup2\n      swap1\n      sstore\n      pop\n        /* \"contracts/ERC721A.sol\":22296:22535  if (nextTokenId != _currentIndex) {... */\n    tag_192:\n        /* \"contracts/ERC721A.sol\":22175:22553  if (_packedOwnerships[nextTokenId] == 0) {... */\n    tag_191:\n        /* \"contracts/ERC721A.sol\":22008:22567  {... */\n      pop\n        /* \"contracts/ERC721A.sol\":21950:22567  if (prevOwnershipPacked & _BITMASK_NEXT_INITIALIZED == 0) {... */\n    tag_190:\n        /* \"contracts/ERC721A.sol\":22611:22618  tokenId */\n      dup4\n        /* \"contracts/ERC721A.sol\":22607:22609  to */\n      dup6\n        /* \"contracts/ERC721A.sol\":22592:22619  Transfer(from, to, tokenId) */\n      0xffffffffffffffffffffffffffffffffffffffff\n      and\n        /* \"contracts/ERC721A.sol\":22601:22605  from */\n      dup8\n        /* \"contracts/ERC721A.sol\":22592:22619  Transfer(from, to, tokenId) */\n      0xffffffffffffffffffffffffffffffffffffffff\n      and\n      0xddf252ad1be2c89b69c2b068fc378daa952ba7f163c4a11628f55a4df523b3ef\n      mload(0x40)\n      mload(0x40)\n      dup1\n      swap2\n      sub\n      swap1\n      log4\n        /* \"contracts/ERC721A.sol\":22629:22671  _afterTokenTransfers(from, to, tokenId, 1) */\n      tag_193\n        /* \"contracts/ERC721A.sol\":22650:22654  from */\n      dup7\n        /* \"contracts/ERC721A.sol\":22656:22658  to */\n      dup7\n        /* \"contracts/ERC721A.sol\":22660:22667  tokenId */\n      dup7\n        /* \"contracts/ERC721A.sol\":22669:22670  1 */\n      0x01\n        /* \"contracts/ERC721A.sol\":22629:22649  _afterTokenTransfers */\n      tag_194\n        /* \"contracts/ERC721A.sol\":22629:22671  _afterTokenTransfers(from, to, tokenId, 1) */\n      jump\t// in\n    tag_193:\n        /* \"contracts/ERC721A.sol\":20041:22678  {... */\n      pop\n      pop\n      pop\n        /* \"contracts/ERC721A.sol\":19914:22678  function transferFrom(... */\n      pop\n      pop\n      pop\n      jump\t// out\n        /* \"contracts/MudAi.sol\":177:217  uint256 public constant MAX_SUPPLY = 100 */\n    tag_65:\n        /* \"contracts/MudAi.sol\":214:217  100 */\n      0x64\n        /* \"contracts/MudAi.sol\":177:217  uint256 public constant MAX_SUPPLY = 100 */\n      dup2\n      jump\t// out\n        /* \"contracts/MudAi.sol\":917:1086  function withdraw() external onlyOwner {... */\n    tag_69:\n        /* \"@openzeppelin/contracts/access/Ownable.sol\":1094:1107  _checkOwner() */\n      tag_196\n        /* \"@openzeppelin/contracts/access/Ownable.sol\":1094:1105  _checkOwner */\n      tag_197\n        /* \"@openzeppelin/contracts/access/Ownable.sol\":1094:1107  _checkOwner() */\n      jump\t// in\n    tag_196:\n        /* \"contracts/MudAi.sol\":967:979  bool success */\n      0x00\n        /* \"contracts/MudAi.sol\":985:995  msg.sender */\n      caller\n        /* \"contracts/MudAi.sol\":985:1000  msg.sender.call */\n      0xffffffffffffffffffffffffffffffffffffffff\n      and\n        /* \"contracts/MudAi.sol\":1008:1029  address(this).balance */\n      selfbalance\n        /* \"contracts/MudAi.sol\":985:1034  msg.sender.call{value: address(this).balance}(\"\") */\n      mload(0x40)\n      tag_199\n      swap1\n      tag_200\n      jump\t// in\n    tag_199:\n      0x00\n      mload(0x40)\n      dup1\n      dup4\n      sub\n      dup2\n      dup6\n      dup8\n      gas\n      call\n      swap3\n      pop\n      pop\n      pop\n      returndatasize\n      dup1\n      0x00\n      dup2\n      eq\n      tag_203\n      jumpi\n      mload(0x40)\n      swap2\n      pop\n      and(add(returndatasize, 0x3f), not(0x1f))\n      dup3\n      add\n      0x40\n      mstore\n      returndatasize\n      dup3\n      mstore\n      returndatasize\n      0x00\n      0x20\n      dup5\n      add\n      returndatacopy\n      jump(tag_202)\n    tag_203:\n      0x60\n      swap2\n      pop\n    tag_202:\n      pop\n        /* \"contracts/MudAi.sol\":966:1034  (bool success, ) = msg.sender.call{value: address(this).balance}(\"\") */\n      pop\n      swap1\n      pop\n        /* \"contracts/MudAi.sol\":1052:1059  success */\n      dup1\n        /* \"contracts/MudAi.sol\":1044:1079  require(success, \"Transfer Failed\") */\n      tag_204\n      jumpi\n      mload(0x40)\n      0x08c379a000000000000000000000000000000000000000000000000000000000\n      dup2\n      mstore\n      0x04\n      add\n      tag_205\n      swap1\n      tag_206\n      jump\t// in\n    tag_205:\n      mload(0x40)\n      dup1\n      swap2\n      sub\n      swap1\n      revert\n    tag_204:\n        /* \"contracts/MudAi.sol\":956:1086  {... */\n      pop\n        /* \"contracts/MudAi.sol\":917:1086  function withdraw() external onlyOwner {... */\n      jump\t// out\n        /* \"contracts/MudAi.sol\":542:911  function mint(address to, uint256 quantity) external payable {... */\n    tag_72:\n        /* \"contracts/MudAi.sol\":622:632  mintPaused */\n      0x09\n      0x00\n      swap1\n      sload\n      swap1\n      0x0100\n      exp\n      swap1\n      div\n      0xff\n      and\n        /* \"contracts/MudAi.sol\":621:632  !mintPaused */\n      iszero\n        /* \"contracts/MudAi.sol\":613:651  require(!mintPaused, \"Mint is paused\") */\n      tag_208\n      jumpi\n      mload(0x40)\n      0x08c379a000000000000000000000000000000000000000000000000000000000\n      dup2\n      mstore\n      0x04\n      add\n      tag_209\n      swap1\n      tag_210\n      jump\t// in\n    tag_209:\n      mload(0x40)\n      dup1\n      swap2\n      sub\n      swap1\n      revert\n    tag_208:\n        /* \"contracts/MudAi.sol\":688:698  START_TIME */\n      immutable(\"0x69a5fd07033cf89fd5e0ce34a4dd484970a9cb6a405d950435d3b8bfccde6515\")\n        /* \"contracts/MudAi.sol\":669:684  block.timestamp */\n      timestamp\n        /* \"contracts/MudAi.sol\":669:698  block.timestamp >= START_TIME */\n      lt\n      iszero\n        /* \"contracts/MudAi.sol\":661:719  require(block.timestamp >= START_TIME, \"Sale not started\") */\n      tag_211\n      jumpi\n      mload(0x40)\n      0x08c379a000000000000000000000000000000000000000000000000000000000\n      dup2\n      mstore\n      0x04\n      add\n      tag_212\n      swap1\n      tag_213\n      jump\t// in\n    tag_212:\n      mload(0x40)\n      dup1\n      swap2\n      sub\n      swap1\n      revert\n    tag_211:\n        /* \"contracts/MudAi.sol\":214:217  100 */\n      0x64\n        /* \"contracts/MudAi.sol\":754:762  quantity */\n      dup2\n        /* \"contracts/MudAi.sol\":737:751  _totalMinted() */\n      tag_214\n        /* \"contracts/MudAi.sol\":737:749  _totalMinted */\n      tag_215\n        /* \"contracts/MudAi.sol\":737:751  _totalMinted() */\n      jump\t// in\n    tag_214:\n        /* \"contracts/MudAi.sol\":737:762  _totalMinted() + quantity */\n      tag_216\n      swap2\n      swap1\n      tag_217\n      jump\t// in\n    tag_216:\n        /* \"contracts/MudAi.sol\":737:776  _totalMinted() + quantity <= MAX_SUPPLY */\n      gt\n      iszero\n        /* \"contracts/MudAi.sol\":729:795  require(_totalMinted() + quantity <= MAX_SUPPLY, \"Max Supply Hit\") */\n      tag_218\n      jumpi\n      mload(0x40)\n      0x08c379a000000000000000000000000000000000000000000000000000000000\n      dup2\n      mstore\n      0x04\n      add\n      tag_219\n      swap1\n      tag_220\n      jump\t// in\n    tag_219:\n      mload(0x40)\n      dup1\n      swap2\n      sub\n      swap1\n      revert\n    tag_218:\n        /* \"contracts/MudAi.sol\":265:275  0.01 ether */\n      0x2386f26fc10000\n        /* \"contracts/MudAi.sol\":826:834  quantity */\n      dup2\n        /* \"contracts/MudAi.sol\":826:852  quantity * PRICE_PER_TOKEN */\n      tag_221\n      swap2\n      swap1\n      tag_222\n      jump\t// in\n    tag_221:\n        /* \"contracts/MudAi.sol\":813:822  msg.value */\n      callvalue\n        /* \"contracts/MudAi.sol\":813:852  msg.value >= quantity * PRICE_PER_TOKEN */\n      lt\n      iszero\n        /* \"contracts/MudAi.sol\":805:875  require(msg.value >= quantity * PRICE_PER_TOKEN, \"Insufficient Funds\") */\n      tag_223\n      jumpi\n      mload(0x40)\n      0x08c379a000000000000000000000000000000000000000000000000000000000\n      dup2\n      mstore\n      0x04\n      add\n      tag_224\n      swap1\n      tag_225\n      jump\t// in\n    tag_224:\n      mload(0x40)\n      dup1\n      swap2\n      sub\n      swap1\n      revert\n    tag_223:\n        /* \"contracts/MudAi.sol\":885:904  _mint(to, quantity) */\n      tag_226\n        /* \"contracts/MudAi.sol\":891:893  to */\n      dup3\n        /* \"contracts/MudAi.sol\":895:903  quantity */\n      dup3\n        /* \"contracts/MudAi.sol\":885:890  _mint */\n      tag_227\n        /* \"contracts/MudAi.sol\":885:904  _mint(to, quantity) */\n      jump\t// in\n    tag_226:\n        /* \"contracts/MudAi.sol\":542:911  function mint(address to, uint256 quantity) external payable {... */\n      pop\n      pop\n      jump\t// out\n        /* \"contracts/ERC721A.sol\":22769:22956  function safeTransferFrom(... */\n    tag_75:\n        /* \"contracts/ERC721A.sol\":22910:22949  safeTransferFrom(from, to, tokenId, '') */\n      tag_229\n        /* \"contracts/ERC721A.sol\":22927:22931  from */\n      dup4\n        /* \"contracts/ERC721A.sol\":22933:22935  to */\n      dup4\n        /* \"contracts/ERC721A.sol\":22937:22944  tokenId */\n      dup4\n        /* \"contracts/ERC721A.sol\":22910:22949  safeTransferFrom(from, to, tokenId, '') */\n      mload(0x40)\n      dup1\n      0x20\n      add\n      0x40\n      mstore\n      dup1\n      0x00\n      dup2\n      mstore\n      pop\n        /* \"contracts/ERC721A.sol\":22910:22926  safeTransferFrom */\n      tag_119\n        /* \"contracts/ERC721A.sol\":22910:22949  safeTransferFrom(from, to, tokenId, '') */\n      jump\t// in\n    tag_229:\n        /* \"contracts/ERC721A.sol\":22769:22956  function safeTransferFrom(... */\n      pop\n      pop\n      pop\n      jump\t// out\n        /* \"contracts/MudAi.sol\":1092:1196  function setBaseURI(string calldata baseURI) external onlyOwner {... */\n    tag_80:\n        /* \"@openzeppelin/contracts/access/Ownable.sol\":1094:1107  _checkOwner() */\n      tag_231\n        /* \"@openzeppelin/contracts/access/Ownable.sol\":1094:1105  _checkOwner */\n      tag_197\n        /* \"@openzeppelin/contracts/access/Ownable.sol\":1094:1107  _checkOwner() */\n      jump\t// in\n    tag_231:\n        /* \"contracts/MudAi.sol\":1182:1189  baseURI */\n      dup2\n      dup2\n        /* \"contracts/MudAi.sol\":1166:1179  _baseTokenURI */\n      0x0a\n        /* \"contracts/MudAi.sol\":1166:1189  _baseTokenURI = baseURI */\n      swap2\n      swap1\n      tag_233\n      swap3\n      swap2\n      swap1\n      tag_234\n      jump\t// in\n    tag_233:\n      pop\n        /* \"contracts/MudAi.sol\":1092:1196  function setBaseURI(string calldata baseURI) external onlyOwner {... */\n      pop\n      pop\n      jump\t// out\n        /* \"contracts/ERC721A.sol\":11402:11552  function ownerOf(uint256 tokenId) public view virtual override returns (address) {... */\n    tag_84:\n        /* \"contracts/ERC721A.sol\":11474:11481  address */\n      0x00\n        /* \"contracts/ERC721A.sol\":11516:11543  _packedOwnershipOf(tokenId) */\n      tag_236\n        /* \"contracts/ERC721A.sol\":11535:11542  tokenId */\n      dup3\n        /* \"contracts/ERC721A.sol\":11516:11534  _packedOwnershipOf */\n      tag_171\n        /* \"contracts/ERC721A.sol\":11516:11543  _packedOwnershipOf(tokenId) */\n      jump\t// in\n    tag_236:\n        /* \"contracts/ERC721A.sol\":11493:11545  return address(uint160(_packedOwnershipOf(tokenId))) */\n      swap1\n      pop\n        /* \"contracts/ERC721A.sol\":11402:11552  function ownerOf(uint256 tokenId) public view virtual override returns (address) {... */\n      swap2\n      swap1\n      pop\n      jump\t// out\n        /* \"contracts/ERC721A.sol\":7056:7286  function balanceOf(address owner) public view virtual override returns (uint256) {... */\n    tag_90:\n        /* \"contracts/ERC721A.sol\":7128:7135  uint256 */\n      0x00\n        /* \"contracts/ERC721A.sol\":7168:7169  0 */\n      dup1\n        /* \"contracts/ERC721A.sol\":7151:7170  owner == address(0) */\n      0xffffffffffffffffffffffffffffffffffffffff\n      and\n        /* \"contracts/ERC721A.sol\":7151:7156  owner */\n      dup3\n        /* \"contracts/ERC721A.sol\":7151:7170  owner == address(0) */\n      0xffffffffffffffffffffffffffffffffffffffff\n      and\n      eq\n        /* \"contracts/ERC721A.sol\":7147:7207  if (owner == address(0)) revert BalanceQueryForZeroAddress() */\n      iszero\n      tag_238\n      jumpi\n        /* \"contracts/ERC721A.sol\":7179:7207  BalanceQueryForZeroAddress() */\n      mload(0x40)\n      0x8f4eb60400000000000000000000000000000000000000000000000000000000\n      dup2\n      mstore\n      0x04\n      add\n      mload(0x40)\n      dup1\n      swap2\n      sub\n      swap1\n      revert\n        /* \"contracts/ERC721A.sol\":7147:7207  if (owner == address(0)) revert BalanceQueryForZeroAddress() */\n    tag_238:\n        /* \"contracts/ERC721A.sol\":1371:1384  (1 << 64) - 1 */\n      0xffffffffffffffff\n        /* \"contracts/ERC721A.sol\":7224:7242  _packedAddressData */\n      0x06\n        /* \"contracts/ERC721A.sol\":7224:7249  _packedAddressData[owner] */\n      0x00\n        /* \"contracts/ERC721A.sol\":7243:7248  owner */\n      dup5\n        /* \"contracts/ERC721A.sol\":7224:7249  _packedAddressData[owner] */\n      0xffffffffffffffffffffffffffffffffffffffff\n      and\n      0xffffffffffffffffffffffffffffffffffffffff\n      and\n      dup2\n      mstore\n      0x20\n      add\n      swap1\n      dup2\n      mstore\n      0x20\n      add\n      0x00\n      keccak256\n      sload\n        /* \"contracts/ERC721A.sol\":7224:7279  _packedAddressData[owner] & _BITMASK_ADDRESS_DATA_ENTRY */\n      and\n        /* \"contracts/ERC721A.sol\":7217:7279  return _packedAddressData[owner] & _BITMASK_ADDRESS_DATA_ENTRY */\n      swap1\n      pop\n        /* \"contracts/ERC721A.sol\":7056:7286  function balanceOf(address owner) public view virtual override returns (uint256) {... */\n      swap2\n      swap1\n      pop\n      jump\t// out\n        /* \"@openzeppelin/contracts/access/Ownable.sol\":1831:1932  function renounceOwnership() public virtual onlyOwner {... */\n    tag_94:\n        /* \"@openzeppelin/contracts/access/Ownable.sol\":1094:1107  _checkOwner() */\n      tag_240\n        /* \"@openzeppelin/contracts/access/Ownable.sol\":1094:1105  _checkOwner */\n      tag_197\n        /* \"@openzeppelin/contracts/access/Ownable.sol\":1094:1107  _checkOwner() */\n      jump\t// in\n    tag_240:\n        /* \"@openzeppelin/contracts/access/Ownable.sol\":1895:1925  _transferOwnership(address(0)) */\n      tag_242\n        /* \"@openzeppelin/contracts/access/Ownable.sol\":1922:1923  0 */\n      0x00\n        /* \"@openzeppelin/contracts/access/Ownable.sol\":1895:1913  _transferOwnership */\n      tag_243\n        /* \"@openzeppelin/contracts/access/Ownable.sol\":1895:1925  _transferOwnership(address(0)) */\n      jump\t// in\n    tag_242:\n        /* \"@openzeppelin/contracts/access/Ownable.sol\":1831:1932  function renounceOwnership() public virtual onlyOwner {... */\n      jump\t// out\n        /* \"contracts/MudAi.sol\":322:344  bool public mintPaused */\n    tag_97:\n      0x09\n      0x00\n      swap1\n      sload\n      swap1\n      0x0100\n      exp\n      swap1\n      div\n      0xff\n      and\n      dup2\n      jump\t// out\n        /* \"contracts/MudAi.sol\":223:275  uint256 public constant PRICE_PER_TOKEN = 0.01 ether */\n    tag_101:\n        /* \"contracts/MudAi.sol\":265:275  0.01 ether */\n      0x2386f26fc10000\n        /* \"contracts/MudAi.sol\":223:275  uint256 public constant PRICE_PER_TOKEN = 0.01 ether */\n      dup2\n      jump\t// out\n        /* \"@openzeppelin/contracts/access/Ownable.sol\":1201:1286  function owner() public view virtual returns (address) {... */\n    tag_105:\n        /* \"@openzeppelin/contracts/access/Ownable.sol\":1247:1254  address */\n      0x00\n        /* \"@openzeppelin/contracts/access/Ownable.sol\":1273:1279  _owner */\n      dup1\n      0x00\n      swap1\n      sload\n      swap1\n      0x0100\n      exp\n      swap1\n      div\n      0xffffffffffffffffffffffffffffffffffffffff\n      and\n        /* \"@openzeppelin/contracts/access/Ownable.sol\":1266:1279  return _owner */\n      swap1\n      pop\n        /* \"@openzeppelin/contracts/access/Ownable.sol\":1201:1286  function owner() public view virtual returns (address) {... */\n      swap1\n      jump\t// out\n        /* \"contracts/ERC721A.sol\":10219:10321  function symbol() public view virtual override returns (string memory) {... */\n    tag_109:\n        /* \"contracts/ERC721A.sol\":10275:10288  string memory */\n      0x60\n        /* \"contracts/ERC721A.sol\":10307:10314  _symbol */\n      0x04\n        /* \"contracts/ERC721A.sol\":10300:10314  return _symbol */\n      dup1\n      sload\n      tag_246\n      swap1\n      tag_149\n      jump\t// in\n    tag_246:\n      dup1\n      0x1f\n      add\n      0x20\n      dup1\n      swap2\n      div\n      mul\n      0x20\n      add\n      mload(0x40)\n      swap1\n      dup2\n      add\n      0x40\n      mstore\n      dup1\n      swap3\n      swap2\n      swap1\n      dup2\n      dup2\n      mstore\n      0x20\n      add\n      dup3\n      dup1\n      sload\n      tag_247\n      swap1\n      tag_149\n      jump\t// in\n    tag_247:\n      dup1\n      iszero\n      tag_248\n      jumpi\n      dup1\n      0x1f\n      lt\n      tag_249\n      jumpi\n      0x0100\n      dup1\n      dup4\n      sload\n      div\n      mul\n      dup4\n      mstore\n      swap2\n      0x20\n      add\n      swap2\n      jump(tag_248)\n    tag_249:\n      dup3\n      add\n      swap2\n      swap1\n      0x00\n      mstore\n      keccak256(0x00, 0x20)\n      swap1\n    tag_250:\n      dup2\n      sload\n      dup2\n      mstore\n      swap1\n      0x01\n      add\n      swap1\n      0x20\n      add\n      dup1\n      dup4\n      gt\n      tag_250\n      jumpi\n      dup3\n      swap1\n      sub\n      0x1f\n      and\n      dup3\n      add\n      swap2\n    tag_248:\n      pop\n      pop\n      pop\n      pop\n      pop\n      swap1\n      pop\n        /* \"contracts/ERC721A.sol\":10219:10321  function symbol() public view virtual override returns (string memory) {... */\n      swap1\n      jump\t// out\n        /* \"contracts/ERC721A.sol\":16912:17143  function setApprovalForAll(address operator, bool approved) public virtual override {... */\n    tag_115:\n        /* \"contracts/ERC721A.sol\":17058:17066  approved */\n      dup1\n        /* \"contracts/ERC721A.sol\":17006:17024  _operatorApprovals */\n      0x08\n        /* \"contracts/ERC721A.sol\":17006:17045  _operatorApprovals[_msgSenderERC721A()] */\n      0x00\n        /* \"contracts/ERC721A.sol\":17025:17044  _msgSenderERC721A() */\n      tag_252\n        /* \"contracts/ERC721A.sol\":17025:17042  _msgSenderERC721A */\n      tag_161\n        /* \"contracts/ERC721A.sol\":17025:17044  _msgSenderERC721A() */\n      jump\t// in\n    tag_252:\n        /* \"contracts/ERC721A.sol\":17006:17045  _operatorApprovals[_msgSenderERC721A()] */\n      0xffffffffffffffffffffffffffffffffffffffff\n      and\n      0xffffffffffffffffffffffffffffffffffffffff\n      and\n      dup2\n      mstore\n      0x20\n      add\n      swap1\n      dup2\n      mstore\n      0x20\n      add\n      0x00\n      keccak256\n        /* \"contracts/ERC721A.sol\":17006:17055  _operatorApprovals[_msgSenderERC721A()][operator] */\n      0x00\n        /* \"contracts/ERC721A.sol\":17046:17054  operator */\n      dup5\n        /* \"contracts/ERC721A.sol\":17006:17055  _operatorApprovals[_msgSenderERC721A()][operator] */\n      0xffffffffffffffffffffffffffffffffffffffff\n      and\n      0xffffffffffffffffffffffffffffffffffffffff\n      and\n      dup2\n      mstore\n      0x20\n      add\n      swap1\n      dup2\n      mstore\n      0x20\n      add\n      0x00\n      keccak256\n      0x00\n        /* \"contracts/ERC721A.sol\":17006:17066  _operatorApprovals[_msgSenderERC721A()][operator] = approved */\n      0x0100\n      exp\n      dup2\n      sload\n      dup2\n      0xff\n      mul\n      not\n      and\n      swap1\n      dup4\n      iszero\n      iszero\n      mul\n      or\n      swap1\n      sstore\n      pop\n        /* \"contracts/ERC721A.sol\":17117:17125  operator */\n      dup2\n        /* \"contracts/ERC721A.sol\":17081:17136  ApprovalForAll(_msgSenderERC721A(), operator, approved) */\n      0xffffffffffffffffffffffffffffffffffffffff\n      and\n        /* \"contracts/ERC721A.sol\":17096:17115  _msgSenderERC721A() */\n      tag_253\n        /* \"contracts/ERC721A.sol\":17096:17113  _msgSenderERC721A */\n      tag_161\n        /* \"contracts/ERC721A.sol\":17096:17115  _msgSenderERC721A() */\n      jump\t// in\n    tag_253:\n        /* \"contracts/ERC721A.sol\":17081:17136  ApprovalForAll(_msgSenderERC721A(), operator, approved) */\n      0xffffffffffffffffffffffffffffffffffffffff\n      and\n      0x17307eab39ab6107e8899845ad3d59bd9653f200f220920489ca2b5937696c31\n        /* \"contracts/ERC721A.sol\":17127:17135  approved */\n      dup4\n        /* \"contracts/ERC721A.sol\":17081:17136  ApprovalForAll(_msgSenderERC721A(), operator, approved) */\n      mload(0x40)\n      tag_254\n      swap2\n      swap1\n      tag_37\n      jump\t// in\n    tag_254:\n      mload(0x40)\n      dup1\n      swap2\n      sub\n      swap1\n      log3\n        /* \"contracts/ERC721A.sol\":16912:17143  function setApprovalForAll(address operator, bool approved) public virtual override {... */\n      pop\n      pop\n      jump\t// out\n        /* \"contracts/ERC721A.sol\":23537:23933  function safeTransferFrom(... */\n    tag_119:\n        /* \"contracts/ERC721A.sol\":23706:23737  transferFrom(from, to, tokenId) */\n      tag_256\n        /* \"contracts/ERC721A.sol\":23719:23723  from */\n      dup5\n        /* \"contracts/ERC721A.sol\":23725:23727  to */\n      dup5\n        /* \"contracts/ERC721A.sol\":23729:23736  tokenId */\n      dup5\n        /* \"contracts/ERC721A.sol\":23706:23718  transferFrom */\n      tag_62\n        /* \"contracts/ERC721A.sol\":23706:23737  transferFrom(from, to, tokenId) */\n      jump\t// in\n    tag_256:\n        /* \"contracts/ERC721A.sol\":23769:23770  0 */\n      0x00\n        /* \"contracts/ERC721A.sol\":23751:23753  to */\n      dup4\n        /* \"contracts/ERC721A.sol\":23751:23765  to.code.length */\n      0xffffffffffffffffffffffffffffffffffffffff\n      and\n      extcodesize\n        /* \"contracts/ERC721A.sol\":23751:23770  to.code.length != 0 */\n      eq\n        /* \"contracts/ERC721A.sol\":23747:23927  if (to.code.length != 0)... */\n      tag_257\n      jumpi\n        /* \"contracts/ERC721A.sol\":23789:23845  _checkContractOnERC721Received(from, to, tokenId, _data) */\n      tag_258\n        /* \"contracts/ERC721A.sol\":23820:23824  from */\n      dup5\n        /* \"contracts/ERC721A.sol\":23826:23828  to */\n      dup5\n        /* \"contracts/ERC721A.sol\":23830:23837  tokenId */\n      dup5\n        /* \"contracts/ERC721A.sol\":23839:23844  _data */\n      dup5\n        /* \"contracts/ERC721A.sol\":23789:23819  _checkContractOnERC721Received */\n      tag_259\n        /* \"contracts/ERC721A.sol\":23789:23845  _checkContractOnERC721Received(from, to, tokenId, _data) */\n      jump\t// in\n    tag_258:\n        /* \"contracts/ERC721A.sol\":23784:23927  if (!_checkContractOnERC721Received(from, to, tokenId, _data)) {... */\n      tag_260\n      jumpi\n        /* \"contracts/ERC721A.sol\":23872:23912  TransferToNonERC721ReceiverImplementer() */\n      mload(0x40)\n      0xd1a57ed600000000000000000000000000000000000000000000000000000000\n      dup2\n      mstore\n      0x04\n      add\n      mload(0x40)\n      dup1\n      swap2\n      sub\n      swap1\n      revert\n        /* \"contracts/ERC721A.sol\":23784:23927  if (!_checkContractOnERC721Received(from, to, tokenId, _data)) {... */\n    tag_260:\n        /* \"contracts/ERC721A.sol\":23747:23927  if (to.code.length != 0)... */\n    tag_257:\n        /* \"contracts/ERC721A.sol\":23537:23933  function safeTransferFrom(... */\n      pop\n      pop\n      pop\n      pop\n      jump\t// out\n        /* \"contracts/ERC721A.sol\":10422:10735  function tokenURI(uint256 tokenId) public view virtual override returns (string memory) {... */\n    tag_123:\n        /* \"contracts/ERC721A.sol\":10495:10508  string memory */\n      0x60\n        /* \"contracts/ERC721A.sol\":10525:10541  _exists(tokenId) */\n      tag_262\n        /* \"contracts/ERC721A.sol\":10533:10540  tokenId */\n      dup3\n        /* \"contracts/ERC721A.sol\":10525:10532  _exists */\n      tag_156\n        /* \"contracts/ERC721A.sol\":10525:10541  _exists(tokenId) */\n      jump\t// in\n    tag_262:\n        /* \"contracts/ERC721A.sol\":10520:10579  if (!_exists(tokenId)) revert URIQueryForNonexistentToken() */\n      tag_263\n      jumpi\n        /* \"contracts/ERC721A.sol\":10550:10579  URIQueryForNonexistentToken() */\n      mload(0x40)\n      0xa14c4b5000000000000000000000000000000000000000000000000000000000\n      dup2\n      mstore\n      0x04\n      add\n      mload(0x40)\n      dup1\n      swap2\n      sub\n      swap1\n      revert\n        /* \"contracts/ERC721A.sol\":10520:10579  if (!_exists(tokenId)) revert URIQueryForNonexistentToken() */\n    tag_263:\n        /* \"contracts/ERC721A.sol\":10590:10611  string memory baseURI */\n      0x00\n        /* \"contracts/ERC721A.sol\":10614:10624  _baseURI() */\n      tag_264\n        /* \"contracts/ERC721A.sol\":10614:10622  _baseURI */\n      tag_265\n        /* \"contracts/ERC721A.sol\":10614:10624  _baseURI() */\n      jump\t// in\n    tag_264:\n        /* \"contracts/ERC721A.sol\":10590:10624  string memory baseURI = _baseURI() */\n      swap1\n      pop\n        /* \"contracts/ERC721A.sol\":10666:10667  0 */\n      0x00\n        /* \"contracts/ERC721A.sol\":10647:10654  baseURI */\n      dup2\n        /* \"contracts/ERC721A.sol\":10641:10662  bytes(baseURI).length */\n      mload\n        /* \"contracts/ERC721A.sol\":10641:10667  bytes(baseURI).length != 0 */\n      eq\n      iszero\n        /* \"contracts/ERC721A.sol\":10641:10728  bytes(baseURI).length != 0 ? string(abi.encodePacked(baseURI, _toString(tokenId))) : '' */\n      tag_266\n      jumpi\n      mload(0x40)\n      dup1\n      0x20\n      add\n      0x40\n      mstore\n      dup1\n      0x00\n      dup2\n      mstore\n      pop\n      jump(tag_267)\n    tag_266:\n        /* \"contracts/ERC721A.sol\":10694:10701  baseURI */\n      dup1\n        /* \"contracts/ERC721A.sol\":10703:10721  _toString(tokenId) */\n      tag_268\n        /* \"contracts/ERC721A.sol\":10713:10720  tokenId */\n      dup5\n        /* \"contracts/ERC721A.sol\":10703:10712  _toString */\n      tag_269\n        /* \"contracts/ERC721A.sol\":10703:10721  _toString(tokenId) */\n      jump\t// in\n    tag_268:\n        /* \"contracts/ERC721A.sol\":10677:10722  abi.encodePacked(baseURI, _toString(tokenId)) */\n      add(0x20, mload(0x40))\n      tag_270\n      swap3\n      swap2\n      swap1\n      tag_271\n      jump\t// in\n    tag_270:\n      mload(0x40)\n      0x20\n      dup2\n      dup4\n      sub\n      sub\n      dup2\n      mstore\n      swap1\n      0x40\n      mstore\n        /* \"contracts/ERC721A.sol\":10641:10728  bytes(baseURI).length != 0 ? string(abi.encodePacked(baseURI, _toString(tokenId))) : '' */\n    tag_267:\n        /* \"contracts/ERC721A.sol\":10634:10728  return bytes(baseURI).length != 0 ? string(abi.encodePacked(baseURI, _toString(tokenId))) : '' */\n      swap2\n      pop\n      pop\n        /* \"contracts/ERC721A.sol\":10422:10735  function tokenURI(uint256 tokenId) public view virtual override returns (string memory) {... */\n      swap2\n      swap1\n      pop\n      jump\t// out\n        /* \"contracts/MudAi.sol\":281:316  uint256 public immutable START_TIME */\n    tag_127:\n      immutable(\"0x69a5fd07033cf89fd5e0ce34a4dd484970a9cb6a405d950435d3b8bfccde6515\")\n      dup2\n      jump\t// out\n        /* \"contracts/ERC721A.sol\":17293:17455  function isApprovedForAll(address owner, address operator) public view virtual override returns (bool) {... */\n    tag_133:\n        /* \"contracts/ERC721A.sol\":17390:17394  bool */\n      0x00\n        /* \"contracts/ERC721A.sol\":17413:17431  _operatorApprovals */\n      0x08\n        /* \"contracts/ERC721A.sol\":17413:17438  _operatorApprovals[owner] */\n      0x00\n        /* \"contracts/ERC721A.sol\":17432:17437  owner */\n      dup5\n        /* \"contracts/ERC721A.sol\":17413:17438  _operatorApprovals[owner] */\n      0xffffffffffffffffffffffffffffffffffffffff\n      and\n      0xffffffffffffffffffffffffffffffffffffffff\n      and\n      dup2\n      mstore\n      0x20\n      add\n      swap1\n      dup2\n      mstore\n      0x20\n      add\n      0x00\n      keccak256\n        /* \"contracts/ERC721A.sol\":17413:17448  _operatorApprovals[owner][operator] */\n      0x00\n        /* \"contracts/ERC721A.sol\":17439:17447  operator */\n      dup4\n        /* \"contracts/ERC721A.sol\":17413:17448  _operatorApprovals[owner][operator] */\n      0xffffffffffffffffffffffffffffffffffffffff\n      and\n      0xffffffffffffffffffffffffffffffffffffffff\n      and\n      dup2\n      mstore\n      0x20\n      add\n      swap1\n      dup2\n      mstore\n      0x20\n      add\n      0x00\n      keccak256\n      0x00\n      swap1\n      sload\n      swap1\n      0x0100\n      exp\n      swap1\n      div\n      0xff\n      and\n        /* \"contracts/ERC721A.sol\":17406:17448  return _operatorApprovals[owner][operator] */\n      swap1\n      pop\n        /* \"contracts/ERC721A.sol\":17293:17455  function isApprovedForAll(address owner, address operator) public view virtual override returns (bool) {... */\n      swap3\n      swap2\n      pop\n      pop\n      jump\t// out\n        /* \"@openzeppelin/contracts/access/Ownable.sol\":2081:2279  function transferOwnership(address newOwner) public virtual onlyOwner {... */\n    tag_138:\n        /* \"@openzeppelin/contracts/access/Ownable.sol\":1094:1107  _checkOwner() */\n      tag_274\n        /* \"@openzeppelin/contracts/access/Ownable.sol\":1094:1105  _checkOwner */\n      tag_197\n        /* \"@openzeppelin/contracts/access/Ownable.sol\":1094:1107  _checkOwner() */\n      jump\t// in\n    tag_274:\n        /* \"@openzeppelin/contracts/access/Ownable.sol\":2189:2190  0 */\n      0x00\n        /* \"@openzeppelin/contracts/access/Ownable.sol\":2169:2191  newOwner != address(0) */\n      0xffffffffffffffffffffffffffffffffffffffff\n      and\n        /* \"@openzeppelin/contracts/access/Ownable.sol\":2169:2177  newOwner */\n      dup2\n        /* \"@openzeppelin/contracts/access/Ownable.sol\":2169:2191  newOwner != address(0) */\n      0xffffffffffffffffffffffffffffffffffffffff\n      and\n      eq\n      iszero\n        /* \"@openzeppelin/contracts/access/Ownable.sol\":2161:2234  require(newOwner != address(0), \"Ownable: new owner is the zero address\") */\n      tag_276\n      jumpi\n      mload(0x40)\n      0x08c379a000000000000000000000000000000000000000000000000000000000\n      dup2\n      mstore\n      0x04\n      add\n      tag_277\n      swap1\n      tag_278\n      jump\t// in\n    tag_277:\n      mload(0x40)\n      dup1\n      swap2\n      sub\n      swap1\n      revert\n    tag_276:\n        /* \"@openzeppelin/contracts/access/Ownable.sol\":2244:2272  _transferOwnership(newOwner) */\n      tag_279\n        /* \"@openzeppelin/contracts/access/Ownable.sol\":2263:2271  newOwner */\n      dup2\n        /* \"@openzeppelin/contracts/access/Ownable.sol\":2244:2262  _transferOwnership */\n      tag_243\n        /* \"@openzeppelin/contracts/access/Ownable.sol\":2244:2272  _transferOwnership(newOwner) */\n      jump\t// in\n    tag_279:\n        /* \"@openzeppelin/contracts/access/Ownable.sol\":2081:2279  function transferOwnership(address newOwner) public virtual onlyOwner {... */\n      pop\n      jump\t// out\n        /* \"contracts/MudAi.sol\":1312:1451  function pauseMint(bool _paused) external onlyOwner {... */\n    tag_143:\n        /* \"@openzeppelin/contracts/access/Ownable.sol\":1094:1107  _checkOwner() */\n      tag_281\n        /* \"@openzeppelin/contracts/access/Ownable.sol\":1094:1105  _checkOwner */\n      tag_197\n        /* \"@openzeppelin/contracts/access/Ownable.sol\":1094:1107  _checkOwner() */\n      jump\t// in\n    tag_281:\n        /* \"contracts/MudAi.sol\":1383:1393  mintPaused */\n      0x09\n      0x00\n      swap1\n      sload\n      swap1\n      0x0100\n      exp\n      swap1\n      div\n      0xff\n      and\n        /* \"contracts/MudAi.sol\":1382:1393  !mintPaused */\n      iszero\n        /* \"contracts/MudAi.sol\":1374:1414  require(!mintPaused, \"Contract paused.\") */\n      tag_283\n      jumpi\n      mload(0x40)\n      0x08c379a000000000000000000000000000000000000000000000000000000000\n      dup2\n      mstore\n      0x04\n      add\n      tag_284\n      swap1\n      tag_285\n      jump\t// in\n    tag_284:\n      mload(0x40)\n      dup1\n      swap2\n      sub\n      swap1\n      revert\n    tag_283:\n        /* \"contracts/MudAi.sol\":1437:1444  _paused */\n      dup1\n        /* \"contracts/MudAi.sol\":1424:1434  mintPaused */\n      0x09\n      0x00\n        /* \"contracts/MudAi.sol\":1424:1444  mintPaused = _paused */\n      0x0100\n      exp\n      dup2\n      sload\n      dup2\n      0xff\n      mul\n      not\n      and\n      swap1\n      dup4\n      iszero\n      iszero\n      mul\n      or\n      swap1\n      sstore\n      pop\n        /* \"contracts/MudAi.sol\":1312:1451  function pauseMint(bool _paused) external onlyOwner {... */\n      pop\n      jump\t// out\n        /* \"contracts/ERC721A.sol\":17704:17981  function _exists(uint256 tokenId) internal view virtual returns (bool) {... */\n    tag_156:\n        /* \"contracts/ERC721A.sol\":17769:17773  bool */\n      0x00\n        /* \"contracts/ERC721A.sol\":17823:17830  tokenId */\n      dup2\n        /* \"contracts/ERC721A.sol\":17804:17819  _startTokenId() */\n      tag_287\n        /* \"contracts/ERC721A.sol\":17804:17817  _startTokenId */\n      tag_168\n        /* \"contracts/ERC721A.sol\":17804:17819  _startTokenId() */\n      jump\t// in\n    tag_287:\n        /* \"contracts/ERC721A.sol\":17804:17830  _startTokenId() <= tokenId */\n      gt\n      iszero\n        /* \"contracts/ERC721A.sol\":17804:17869  _startTokenId() <= tokenId &&... */\n      dup1\n      iszero\n      tag_288\n      jumpi\n      pop\n        /* \"contracts/ERC721A.sol\":17856:17869  _currentIndex */\n      sload(0x01)\n        /* \"contracts/ERC721A.sol\":17846:17853  tokenId */\n      dup3\n        /* \"contracts/ERC721A.sol\":17846:17869  tokenId < _currentIndex */\n      lt\n        /* \"contracts/ERC721A.sol\":17804:17869  _startTokenId() <= tokenId &&... */\n    tag_288:\n        /* \"contracts/ERC721A.sol\":17804:17955  _startTokenId() <= tokenId &&... */\n      dup1\n      iszero\n      tag_289\n      jumpi\n      pop\n        /* \"contracts/ERC721A.sol\":17954:17955  0 */\n      0x00\n        /* \"contracts/ERC721A.sol\":2129:2137  1 << 224 */\n      0x0100000000000000000000000000000000000000000000000000000000\n        /* \"contracts/ERC721A.sol\":17906:17923  _packedOwnerships */\n      0x05\n        /* \"contracts/ERC721A.sol\":17906:17932  _packedOwnerships[tokenId] */\n      0x00\n        /* \"contracts/ERC721A.sol\":17924:17931  tokenId */\n      dup6\n        /* \"contracts/ERC721A.sol\":17906:17932  _packedOwnerships[tokenId] */\n      dup2\n      mstore\n      0x20\n      add\n      swap1\n      dup2\n      mstore\n      0x20\n      add\n      0x00\n      keccak256\n      sload\n        /* \"contracts/ERC721A.sol\":17906:17950  _packedOwnerships[tokenId] & _BITMASK_BURNED */\n      and\n        /* \"contracts/ERC721A.sol\":17906:17955  _packedOwnerships[tokenId] & _BITMASK_BURNED == 0 */\n      eq\n        /* \"contracts/ERC721A.sol\":17804:17955  _startTokenId() <= tokenId &&... */\n    tag_289:\n        /* \"contracts/ERC721A.sol\":17785:17955  return... */\n      swap1\n      pop\n        /* \"contracts/ERC721A.sol\":17704:17981  function _exists(uint256 tokenId) internal view virtual returns (bool) {... */\n      swap2\n      swap1\n      pop\n      jump\t// out\n        /* \"contracts/ERC721A.sol\":39448:39551  function _msgSenderERC721A() internal view virtual returns (address) {... */\n    tag_161:\n        /* \"contracts/ERC721A.sol\":39508:39515  address */\n      0x00\n        /* \"contracts/ERC721A.sol\":39534:39544  msg.sender */\n      caller\n        /* \"contracts/ERC721A.sol\":39527:39544  return msg.sender */\n      swap1\n      pop\n        /* \"contracts/ERC721A.sol\":39448:39551  function _msgSenderERC721A() internal view virtual returns (address) {... */\n      swap1\n      jump\t// out\n        /* \"contracts/ERC721A.sol\":5437:5527  function _startTokenId() internal view virtual returns (uint256) {... */\n    tag_168:\n        /* \"contracts/ERC721A.sol\":5493:5500  uint256 */\n      0x00\n        /* \"contracts/ERC721A.sol\":5437:5527  function _startTokenId() internal view virtual returns (uint256) {... */\n      swap1\n      jump\t// out\n        /* \"contracts/ERC721A.sol\":12526:13775  function _packedOwnershipOf(uint256 tokenId) private view returns (uint256) {... */\n    tag_171:\n        /* \"contracts/ERC721A.sol\":12593:12600  uint256 */\n      0x00\n        /* \"contracts/ERC721A.sol\":12612:12624  uint256 curr */\n      dup1\n        /* \"contracts/ERC721A.sol\":12627:12634  tokenId */\n      dup3\n        /* \"contracts/ERC721A.sol\":12612:12634  uint256 curr = tokenId */\n      swap1\n      pop\n        /* \"contracts/ERC721A.sol\":12692:12696  curr */\n      dup1\n        /* \"contracts/ERC721A.sol\":12673:12688  _startTokenId() */\n      tag_293\n        /* \"contracts/ERC721A.sol\":12673:12686  _startTokenId */\n      tag_168\n        /* \"contracts/ERC721A.sol\":12673:12688  _startTokenId() */\n      jump\t// in\n    tag_293:\n        /* \"contracts/ERC721A.sol\":12673:12696  _startTokenId() <= curr */\n      gt\n        /* \"contracts/ERC721A.sol\":12669:13711  if (_startTokenId() <= curr)... */\n      tag_294\n      jumpi\n        /* \"contracts/ERC721A.sol\":12725:12738  _currentIndex */\n      sload(0x01)\n        /* \"contracts/ERC721A.sol\":12718:12722  curr */\n      dup2\n        /* \"contracts/ERC721A.sol\":12718:12738  curr < _currentIndex */\n      lt\n        /* \"contracts/ERC721A.sol\":12714:13711  if (curr < _currentIndex) {... */\n      iszero\n      tag_295\n      jumpi\n        /* \"contracts/ERC721A.sol\":12762:12776  uint256 packed */\n      0x00\n        /* \"contracts/ERC721A.sol\":12779:12796  _packedOwnerships */\n      0x05\n        /* \"contracts/ERC721A.sol\":12779:12802  _packedOwnerships[curr] */\n      0x00\n        /* \"contracts/ERC721A.sol\":12797:12801  curr */\n      dup4\n        /* \"contracts/ERC721A.sol\":12779:12802  _packedOwnerships[curr] */\n      dup2\n      mstore\n      0x20\n      add\n      swap1\n      dup2\n      mstore\n      0x20\n      add\n      0x00\n      keccak256\n      sload\n        /* \"contracts/ERC721A.sol\":12762:12802  uint256 packed = _packedOwnerships[curr] */\n      swap1\n      pop\n        /* \"contracts/ERC721A.sol\":12894:12895  0 */\n      0x00\n        /* \"contracts/ERC721A.sol\":2129:2137  1 << 224 */\n      0x0100000000000000000000000000000000000000000000000000000000\n        /* \"contracts/ERC721A.sol\":12866:12872  packed */\n      dup3\n        /* \"contracts/ERC721A.sol\":12866:12890  packed & _BITMASK_BURNED */\n      and\n        /* \"contracts/ERC721A.sol\":12866:12895  packed & _BITMASK_BURNED == 0 */\n      eq\n        /* \"contracts/ERC721A.sol\":12862:13693  if (packed & _BITMASK_BURNED == 0) {... */\n      iszero\n      tag_296\n      jumpi\n        /* \"contracts/ERC721A.sol\":13521:13632  while (packed == 0) {... */\n    tag_297:\n        /* \"contracts/ERC721A.sol\":13538:13539  0 */\n      0x00\n        /* \"contracts/ERC721A.sol\":13528:13534  packed */\n      dup2\n        /* \"contracts/ERC721A.sol\":13528:13539  packed == 0 */\n      eq\n        /* \"contracts/ERC721A.sol\":13521:13632  while (packed == 0) {... */\n      iszero\n      tag_298\n      jumpi\n        /* \"contracts/ERC721A.sol\":13580:13597  _packedOwnerships */\n      0x05\n        /* \"contracts/ERC721A.sol\":13580:13605  _packedOwnerships[--curr] */\n      0x00\n        /* \"contracts/ERC721A.sol\":13598:13604  --curr */\n      dup4\n      0x01\n      swap1\n      sub\n      swap4\n      pop\n      dup4\n        /* \"contracts/ERC721A.sol\":13580:13605  _packedOwnerships[--curr] */\n      dup2\n      mstore\n      0x20\n      add\n      swap1\n      dup2\n      mstore\n      0x20\n      add\n      0x00\n      keccak256\n      sload\n        /* \"contracts/ERC721A.sol\":13571:13605  packed = _packedOwnerships[--curr] */\n      swap1\n      pop\n        /* \"contracts/ERC721A.sol\":13521:13632  while (packed == 0) {... */\n      jump(tag_297)\n    tag_298:\n        /* \"contracts/ERC721A.sol\":13664:13670  packed */\n      dup1\n        /* \"contracts/ERC721A.sol\":13657:13670  return packed */\n      swap3\n      pop\n      pop\n      pop\n      jump(tag_292)\n        /* \"contracts/ERC721A.sol\":12862:13693  if (packed & _BITMASK_BURNED == 0) {... */\n    tag_296:\n        /* \"contracts/ERC721A.sol\":12740:13711  {... */\n      pop\n        /* \"contracts/ERC721A.sol\":12714:13711  if (curr < _currentIndex) {... */\n    tag_295:\n        /* \"contracts/ERC721A.sol\":12669:13711  if (_startTokenId() <= curr)... */\n    tag_294:\n        /* \"contracts/ERC721A.sol\":13737:13768  OwnerQueryForNonexistentToken() */\n      mload(0x40)\n      0xdf2d9b4200000000000000000000000000000000000000000000000000000000\n      dup2\n      mstore\n      0x04\n      add\n      mload(0x40)\n      dup1\n      swap2\n      sub\n      swap1\n      revert\n        /* \"contracts/ERC721A.sol\":12526:13775  function _packedOwnershipOf(uint256 tokenId) private view returns (uint256) {... */\n    tag_292:\n      swap2\n      swap1\n      pop\n      jump\t// out\n        /* \"contracts/ERC721A.sol\":18839:19313  function _getApprovedSlotAndAddress(uint256 tokenId)... */\n    tag_174:\n        /* \"contracts/ERC721A.sol\":18938:18965  uint256 approvedAddressSlot */\n      0x00\n        /* \"contracts/ERC721A.sol\":18967:18990  address approvedAddress */\n      dup1\n        /* \"contracts/ERC721A.sol\":19006:19044  TokenApprovalRef storage tokenApproval */\n      0x00\n        /* \"contracts/ERC721A.sol\":19047:19062  _tokenApprovals */\n      0x07\n        /* \"contracts/ERC721A.sol\":19047:19071  _tokenApprovals[tokenId] */\n      0x00\n        /* \"contracts/ERC721A.sol\":19063:19070  tokenId */\n      dup6\n        /* \"contracts/ERC721A.sol\":19047:19071  _tokenApprovals[tokenId] */\n      dup2\n      mstore\n      0x20\n      add\n      swap1\n      dup2\n      mstore\n      0x20\n      add\n      0x00\n      keccak256\n        /* \"contracts/ERC721A.sol\":19006:19071  TokenApprovalRef storage tokenApproval = _tokenApprovals[tokenId] */\n      swap1\n      pop\n        /* \"contracts/ERC721A.sol\":19221:19239  tokenApproval.slot */\n      dup1\n        /* \"contracts/ERC721A.sol\":19198:19239  approvedAddressSlot := tokenApproval.slot */\n      swap3\n      pop\n        /* \"contracts/ERC721A.sol\":19277:19296  approvedAddressSlot */\n      dup3\n        /* \"contracts/ERC721A.sol\":19271:19297  sload(approvedAddressSlot) */\n      sload\n        /* \"contracts/ERC721A.sol\":19252:19297  approvedAddress := sload(approvedAddressSlot) */\n      swap2\n      pop\n        /* \"contracts/ERC721A.sol\":19184:19307  {... */\n      pop\n        /* \"contracts/ERC721A.sol\":18839:19313  function _getApprovedSlotAndAddress(uint256 tokenId)... */\n      swap2\n      pop\n      swap2\n      jump\t// out\n        /* \"contracts/ERC721A.sol\":18085:18731  function _isSenderApprovedOrOwner(... */\n    tag_177:\n        /* \"contracts/ERC721A.sol\":18230:18241  bool result */\n      0x00\n        /* \"contracts/ERC721A.sol\":18392:18408  _BITMASK_ADDRESS */\n      0xffffffffffffffffffffffffffffffffffffffff\n        /* \"contracts/ERC721A.sol\":18385:18390  owner */\n      dup4\n        /* \"contracts/ERC721A.sol\":18381:18409  and(owner, _BITMASK_ADDRESS) */\n      and\n        /* \"contracts/ERC721A.sol\":18372:18409  owner := and(owner, _BITMASK_ADDRESS) */\n      swap3\n      pop\n        /* \"contracts/ERC721A.sol\":18550:18566  _BITMASK_ADDRESS */\n      0xffffffffffffffffffffffffffffffffffffffff\n        /* \"contracts/ERC721A.sol\":18539:18548  msgSender */\n      dup3\n        /* \"contracts/ERC721A.sol\":18535:18567  and(msgSender, _BITMASK_ADDRESS) */\n      and\n        /* \"contracts/ERC721A.sol\":18522:18567  msgSender := and(msgSender, _BITMASK_ADDRESS) */\n      swap2\n      pop\n        /* \"contracts/ERC721A.sol\":18698:18713  approvedAddress */\n      dup4\n        /* \"contracts/ERC721A.sol\":18687:18696  msgSender */\n      dup3\n        /* \"contracts/ERC721A.sol\":18684:18714  eq(msgSender, approvedAddress) */\n      eq\n        /* \"contracts/ERC721A.sol\":18676:18681  owner */\n      dup4\n        /* \"contracts/ERC721A.sol\":18665:18674  msgSender */\n      dup4\n        /* \"contracts/ERC721A.sol\":18662:18682  eq(msgSender, owner) */\n      eq\n        /* \"contracts/ERC721A.sol\":18659:18715  or(eq(msgSender, owner), eq(msgSender, approvedAddress)) */\n      or\n        /* \"contracts/ERC721A.sol\":18649:18715  result := or(eq(msgSender, owner), eq(msgSender, approvedAddress)) */\n      swap1\n      pop\n        /* \"contracts/ERC721A.sol\":18085:18731  function _isSenderApprovedOrOwner(... */\n      swap4\n      swap3\n      pop\n      pop\n      pop\n      jump\t// out\n        /* \"contracts/ERC721A.sol\":24577:24731  function _beforeTokenTransfers(... */\n    tag_184:\n      pop\n      pop\n      pop\n      pop\n      jump\t// out\n        /* \"contracts/ERC721A.sol\":38775:39079  function _nextExtraData(... */\n    tag_188:\n        /* \"contracts/ERC721A.sol\":38906:38913  uint256 */\n      0x00\n        /* \"contracts/ERC721A.sol\":38925:38941  uint24 extraData */\n      dup1\n        /* \"contracts/ERC721A.sol\":2524:2527  232 */\n      0xe8\n        /* \"contracts/ERC721A.sol\":38951:38970  prevOwnershipPacked */\n      dup4\n        /* \"contracts/ERC721A.sol\":38951:38992  prevOwnershipPacked >> _BITPOS_EXTRA_DATA */\n      swap1\n      shr\n        /* \"contracts/ERC721A.sol\":38925:38993  uint24 extraData = uint24(prevOwnershipPacked >> _BITPOS_EXTRA_DATA) */\n      swap1\n      pop\n        /* \"contracts/ERC721A.sol\":2524:2527  232 */\n      0xe8\n        /* \"contracts/ERC721A.sol\":39018:39049  _extraData(from, to, extraData) */\n      tag_303\n        /* \"contracts/ERC721A.sol\":39029:39033  from */\n      dup7\n        /* \"contracts/ERC721A.sol\":39035:39037  to */\n      dup7\n        /* \"contracts/ERC721A.sol\":39039:39048  extraData */\n      dup5\n        /* \"contracts/ERC721A.sol\":39018:39028  _extraData */\n      tag_304\n        /* \"contracts/ERC721A.sol\":39018:39049  _extraData(from, to, extraData) */\n      jump\t// in\n    tag_303:\n        /* \"contracts/ERC721A.sol\":39010:39050  uint256(_extraData(from, to, extraData)) */\n      0xffffff\n      and\n        /* \"contracts/ERC721A.sol\":39010:39072  uint256(_extraData(from, to, extraData)) << _BITPOS_EXTRA_DATA */\n      swap1\n      shl\n        /* \"contracts/ERC721A.sol\":39003:39072  return uint256(_extraData(from, to, extraData)) << _BITPOS_EXTRA_DATA */\n      swap2\n      pop\n      pop\n        /* \"contracts/ERC721A.sol\":38775:39079  function _nextExtraData(... */\n      swap4\n      swap3\n      pop\n      pop\n      pop\n      jump\t// out\n        /* \"contracts/ERC721A.sol\":14308:14751  function _packOwnershipData(address owner, uint256 flags) private view returns (uint256 result) {... */\n    tag_189:\n        /* \"contracts/ERC721A.sol\":14388:14402  uint256 result */\n      0x00\n        /* \"contracts/ERC721A.sol\":14553:14569  _BITMASK_ADDRESS */\n      0xffffffffffffffffffffffffffffffffffffffff\n        /* \"contracts/ERC721A.sol\":14546:14551  owner */\n      dup4\n        /* \"contracts/ERC721A.sol\":14542:14570  and(owner, _BITMASK_ADDRESS) */\n      and\n        /* \"contracts/ERC721A.sol\":14533:14570  owner := and(owner, _BITMASK_ADDRESS) */\n      swap3\n      pop\n        /* \"contracts/ERC721A.sol\":14728:14733  flags */\n      dup2\n        /* \"contracts/ERC721A.sol\":14714:14725  timestamp() */\n      timestamp\n        /* \"contracts/ERC721A.sol\":14689:14712  _BITPOS_START_TIMESTAMP */\n      0xa0\n        /* \"contracts/ERC721A.sol\":14685:14726  shl(_BITPOS_START_TIMESTAMP, timestamp()) */\n      shl\n        /* \"contracts/ERC721A.sol\":14682:14734  or(shl(_BITPOS_START_TIMESTAMP, timestamp()), flags) */\n      or\n        /* \"contracts/ERC721A.sol\":14675:14680  owner */\n      dup4\n        /* \"contracts/ERC721A.sol\":14672:14735  or(owner, or(shl(_BITPOS_START_TIMESTAMP, timestamp()), flags)) */\n      or\n        /* \"contracts/ERC721A.sol\":14662:14735  result := or(owner, or(shl(_BITPOS_START_TIMESTAMP, timestamp()), flags)) */\n      swap1\n      pop\n        /* \"contracts/ERC721A.sol\":14308:14751  function _packOwnershipData(address owner, uint256 flags) private view returns (uint256 result) {... */\n      swap3\n      swap2\n      pop\n      pop\n      jump\t// out\n        /* \"contracts/ERC721A.sol\":25378:25531  function _afterTokenTransfers(... */\n    tag_194:\n      pop\n      pop\n      pop\n      pop\n      jump\t// out\n        /* \"@openzeppelin/contracts/access/Ownable.sol\":1359:1489  function _checkOwner() internal view virtual {... */\n    tag_197:\n        /* \"@openzeppelin/contracts/access/Ownable.sol\":1433:1445  _msgSender() */\n      tag_308\n        /* \"@openzeppelin/contracts/access/Ownable.sol\":1433:1443  _msgSender */\n      tag_309\n        /* \"@openzeppelin/contracts/access/Ownable.sol\":1433:1445  _msgSender() */\n      jump\t// in\n    tag_308:\n        /* \"@openzeppelin/contracts/access/Ownable.sol\":1422:1445  owner() == _msgSender() */\n      0xffffffffffffffffffffffffffffffffffffffff\n      and\n        /* \"@openzeppelin/contracts/access/Ownable.sol\":1422:1429  owner() */\n      tag_310\n        /* \"@openzeppelin/contracts/access/Ownable.sol\":1422:1427  owner */\n      tag_105\n        /* \"@openzeppelin/contracts/access/Ownable.sol\":1422:1429  owner() */\n      jump\t// in\n    tag_310:\n        /* \"@openzeppelin/contracts/access/Ownable.sol\":1422:1445  owner() == _msgSender() */\n      0xffffffffffffffffffffffffffffffffffffffff\n      and\n      eq\n        /* \"@openzeppelin/contracts/access/Ownable.sol\":1414:1482  require(owner() == _msgSender(), \"Ownable: caller is not the owner\") */\n      tag_311\n      jumpi\n      mload(0x40)\n      0x08c379a000000000000000000000000000000000000000000000000000000000\n      dup2\n      mstore\n      0x04\n      add\n      tag_312\n      swap1\n      tag_313\n      jump\t// in\n    tag_312:\n      mload(0x40)\n      dup1\n      swap2\n      sub\n      swap1\n      revert\n    tag_311:\n        /* \"@openzeppelin/contracts/access/Ownable.sol\":1359:1489  function _checkOwner() internal view virtual {... */\n      jump\t// out\n        /* \"contracts/ERC721A.sol\":6315:6605  function _totalMinted() internal view virtual returns (uint256) {... */\n    tag_215:\n        /* \"contracts/ERC721A.sol\":6370:6377  uint256 */\n      0x00\n        /* \"contracts/ERC721A.sol\":6573:6588  _startTokenId() */\n      tag_315\n        /* \"contracts/ERC721A.sol\":6573:6586  _startTokenId */\n      tag_168\n        /* \"contracts/ERC721A.sol\":6573:6588  _startTokenId() */\n      jump\t// in\n    tag_315:\n        /* \"contracts/ERC721A.sol\":6557:6570  _currentIndex */\n      sload(0x01)\n        /* \"contracts/ERC721A.sol\":6557:6588  _currentIndex - _startTokenId() */\n      sub\n        /* \"contracts/ERC721A.sol\":6550:6588  return _currentIndex - _startTokenId() */\n      swap1\n      pop\n        /* \"contracts/ERC721A.sol\":6315:6605  function _totalMinted() internal view virtual returns (uint256) {... */\n      swap1\n      jump\t// out\n        /* \"contracts/ERC721A.sol\":27102:30004  function _mint(address to, uint256 quantity) internal virtual {... */\n    tag_227:\n        /* \"contracts/ERC721A.sol\":27174:27194  uint256 startTokenId */\n      0x00\n        /* \"contracts/ERC721A.sol\":27197:27210  _currentIndex */\n      sload(0x01)\n        /* \"contracts/ERC721A.sol\":27174:27210  uint256 startTokenId = _currentIndex */\n      swap1\n      pop\n        /* \"contracts/ERC721A.sol\":27236:27237  0 */\n      0x00\n        /* \"contracts/ERC721A.sol\":27224:27232  quantity */\n      dup3\n        /* \"contracts/ERC721A.sol\":27224:27237  quantity == 0 */\n      eq\n        /* \"contracts/ERC721A.sol\":27220:27264  if (quantity == 0) revert MintZeroQuantity() */\n      iszero\n      tag_317\n      jumpi\n        /* \"contracts/ERC721A.sol\":27246:27264  MintZeroQuantity() */\n      mload(0x40)\n      0xb562e8dd00000000000000000000000000000000000000000000000000000000\n      dup2\n      mstore\n      0x04\n      add\n      mload(0x40)\n      dup1\n      swap2\n      sub\n      swap1\n      revert\n        /* \"contracts/ERC721A.sol\":27220:27264  if (quantity == 0) revert MintZeroQuantity() */\n    tag_317:\n        /* \"contracts/ERC721A.sol\":27275:27336  _beforeTokenTransfers(address(0), to, startTokenId, quantity) */\n      tag_318\n        /* \"contracts/ERC721A.sol\":27305:27306  0 */\n      0x00\n        /* \"contracts/ERC721A.sol\":27309:27311  to */\n      dup5\n        /* \"contracts/ERC721A.sol\":27313:27325  startTokenId */\n      dup4\n        /* \"contracts/ERC721A.sol\":27327:27335  quantity */\n      dup6\n        /* \"contracts/ERC721A.sol\":27275:27296  _beforeTokenTransfers */\n      tag_184\n        /* \"contracts/ERC721A.sol\":27275:27336  _beforeTokenTransfers(address(0), to, startTokenId, quantity) */\n      jump\t// in\n    tag_318:\n        /* \"contracts/ERC721A.sol\":27808:27809  1 */\n      0x01\n        /* \"contracts/ERC721A.sol\":1506:1508  64 */\n      0x40\n        /* \"contracts/ERC721A.sol\":27778:27779  1 */\n      0x01\n        /* \"contracts/ERC721A.sol\":27778:27804  1 << _BITPOS_NUMBER_MINTED */\n      swap1\n      shl\n        /* \"contracts/ERC721A.sol\":27777:27809  (1 << _BITPOS_NUMBER_MINTED) | 1 */\n      or\n        /* \"contracts/ERC721A.sol\":27765:27773  quantity */\n      dup3\n        /* \"contracts/ERC721A.sol\":27765:27810  quantity * ((1 << _BITPOS_NUMBER_MINTED) | 1) */\n      mul\n        /* \"contracts/ERC721A.sol\":27739:27757  _packedAddressData */\n      0x06\n        /* \"contracts/ERC721A.sol\":27739:27761  _packedAddressData[to] */\n      0x00\n        /* \"contracts/ERC721A.sol\":27758:27760  to */\n      dup6\n        /* \"contracts/ERC721A.sol\":27739:27761  _packedAddressData[to] */\n      0xffffffffffffffffffffffffffffffffffffffff\n      and\n      0xffffffffffffffffffffffffffffffffffffffff\n      and\n      dup2\n      mstore\n      0x20\n      add\n      swap1\n      dup2\n      mstore\n      0x20\n      add\n      0x00\n      keccak256\n      0x00\n        /* \"contracts/ERC721A.sol\":27739:27810  _packedAddressData[to] += quantity * ((1 << _BITPOS_NUMBER_MINTED) | 1) */\n      dup3\n      dup3\n      sload\n      add\n      swap3\n      pop\n      pop\n      dup2\n      swap1\n      sstore\n      pop\n        /* \"contracts/ERC721A.sol\":28080:28216  _packOwnershipData(... */\n      tag_319\n        /* \"contracts/ERC721A.sol\":28116:28118  to */\n      dup4\n        /* \"contracts/ERC721A.sol\":28169:28202  _nextExtraData(address(0), to, 0) */\n      tag_320\n        /* \"contracts/ERC721A.sol\":28192:28193  0 */\n      0x00\n        /* \"contracts/ERC721A.sol\":28196:28198  to */\n      dup7\n        /* \"contracts/ERC721A.sol\":28200:28201  0 */\n      0x00\n        /* \"contracts/ERC721A.sol\":28169:28183  _nextExtraData */\n      tag_188\n        /* \"contracts/ERC721A.sol\":28169:28202  _nextExtraData(address(0), to, 0) */\n      jump\t// in\n    tag_320:\n        /* \"contracts/ERC721A.sol\":28136:28166  _nextInitializedFlag(quantity) */\n      tag_321\n        /* \"contracts/ERC721A.sol\":28157:28165  quantity */\n      dup6\n        /* \"contracts/ERC721A.sol\":28136:28156  _nextInitializedFlag */\n      tag_322\n        /* \"contracts/ERC721A.sol\":28136:28166  _nextInitializedFlag(quantity) */\n      jump\t// in\n    tag_321:\n        /* \"contracts/ERC721A.sol\":28136:28202  _nextInitializedFlag(quantity) | _nextExtraData(address(0), to, 0) */\n      or\n        /* \"contracts/ERC721A.sol\":28080:28098  _packOwnershipData */\n      tag_189\n        /* \"contracts/ERC721A.sol\":28080:28216  _packOwnershipData(... */\n      jump\t// in\n    tag_319:\n        /* \"contracts/ERC721A.sol\":28046:28063  _packedOwnerships */\n      0x05\n        /* \"contracts/ERC721A.sol\":28046:28077  _packedOwnerships[startTokenId] */\n      0x00\n        /* \"contracts/ERC721A.sol\":28064:28076  startTokenId */\n      dup4\n        /* \"contracts/ERC721A.sol\":28046:28077  _packedOwnerships[startTokenId] */\n      dup2\n      mstore\n      0x20\n      add\n      swap1\n      dup2\n      mstore\n      0x20\n      add\n      0x00\n      keccak256\n        /* \"contracts/ERC721A.sol\":28046:28216  _packedOwnerships[startTokenId] = _packOwnershipData(... */\n      dup2\n      swap1\n      sstore\n      pop\n        /* \"contracts/ERC721A.sol\":28231:28247  uint256 toMasked */\n      0x00\n        /* \"contracts/ERC721A.sol\":28261:28272  uint256 end */\n      dup1\n        /* \"contracts/ERC721A.sol\":28290:28298  quantity */\n      dup4\n        /* \"contracts/ERC721A.sol\":28275:28287  startTokenId */\n      dup4\n        /* \"contracts/ERC721A.sol\":28275:28298  startTokenId + quantity */\n      add\n        /* \"contracts/ERC721A.sol\":28261:28298  uint256 end = startTokenId + quantity */\n      swap1\n      pop\n        /* \"contracts/ERC721A.sol\":28803:28819  _BITMASK_ADDRESS */\n      0xffffffffffffffffffffffffffffffffffffffff\n        /* \"contracts/ERC721A.sol\":28799:28801  to */\n      dup6\n        /* \"contracts/ERC721A.sol\":28795:28820  and(to, _BITMASK_ADDRESS) */\n      and\n        /* \"contracts/ERC721A.sol\":28783:28820  toMasked := and(to, _BITMASK_ADDRESS) */\n      swap2\n      pop\n        /* \"contracts/ERC721A.sol\":29167:29179  startTokenId */\n      dup3\n        /* \"contracts/ERC721A.sol\":29128:29136  toMasked */\n      dup3\n        /* \"contracts/ERC721A.sol\":29088:29089  0 */\n      0x00\n        /* \"contracts/ERC721A.sol\":29027:29052  _TRANSFER_EVENT_SIGNATURE */\n      0xddf252ad1be2c89b69c2b068fc378daa952ba7f163c4a11628f55a4df523b3ef\n        /* \"contracts/ERC721A.sol\":28969:28970  0 */\n      0x00\n        /* \"contracts/ERC721A.sol\":28909:28910  0 */\n      dup1\n        /* \"contracts/ERC721A.sol\":28883:29211  log4(... */\n      log4\n        /* \"contracts/ERC721A.sol\":29531:29532  1 */\n      0x01\n        /* \"contracts/ERC721A.sol\":29517:29529  startTokenId */\n      dup4\n        /* \"contracts/ERC721A.sol\":29513:29533  add(startTokenId, 1) */\n      add\n        /* \"contracts/ERC721A.sol\":29472:29811  for {... */\n    tag_323:\n        /* \"contracts/ERC721A.sol\":29571:29574  end */\n      dup2\n        /* \"contracts/ERC721A.sol\":29562:29569  tokenId */\n      dup2\n        /* \"contracts/ERC721A.sol\":29559:29575  eq(tokenId, end) */\n      eq\n        /* \"contracts/ERC721A.sol\":29472:29811  for {... */\n      tag_325\n      jumpi\n        /* \"contracts/ERC721A.sol\":29785:29792  tokenId */\n      dup1\n        /* \"contracts/ERC721A.sol\":29775:29783  toMasked */\n      dup4\n        /* \"contracts/ERC721A.sol\":29772:29773  0 */\n      0x00\n        /* \"contracts/ERC721A.sol\":29745:29770  _TRANSFER_EVENT_SIGNATURE */\n      0xddf252ad1be2c89b69c2b068fc378daa952ba7f163c4a11628f55a4df523b3ef\n        /* \"contracts/ERC721A.sol\":29742:29743  0 */\n      0x00\n        /* \"contracts/ERC721A.sol\":29739:29740  0 */\n      dup1\n        /* \"contracts/ERC721A.sol\":29734:29793  log4(0, 0, _TRANSFER_EVENT_SIGNATURE, 0, toMasked, tokenId) */\n      log4\n        /* \"contracts/ERC721A.sol\":29623:29624  1 */\n      0x01\n        /* \"contracts/ERC721A.sol\":29614:29621  tokenId */\n      dup2\n        /* \"contracts/ERC721A.sol\":29610:29625  add(tokenId, 1) */\n      add\n        /* \"contracts/ERC721A.sol\":29599:29625  tokenId := add(tokenId, 1) */\n      swap1\n      pop\n        /* \"contracts/ERC721A.sol\":29472:29811  for {... */\n      jump(tag_323)\n    tag_325:\n        /* \"contracts/ERC721A.sol\":29476:29551  {... */\n      pop\n        /* \"contracts/ERC721A.sol\":29854:29855  0 */\n      0x00\n        /* \"contracts/ERC721A.sol\":29842:29850  toMasked */\n      dup3\n        /* \"contracts/ERC721A.sol\":29842:29855  toMasked == 0 */\n      eq\n        /* \"contracts/ERC721A.sol\":29838:29883  if (toMasked == 0) revert MintToZeroAddress() */\n      iszero\n      tag_326\n      jumpi\n        /* \"contracts/ERC721A.sol\":29864:29883  MintToZeroAddress() */\n      mload(0x40)\n      0x2e07630000000000000000000000000000000000000000000000000000000000\n      dup2\n      mstore\n      0x04\n      add\n      mload(0x40)\n      dup1\n      swap2\n      sub\n      swap1\n      revert\n        /* \"contracts/ERC721A.sol\":29838:29883  if (toMasked == 0) revert MintToZeroAddress() */\n    tag_326:\n        /* \"contracts/ERC721A.sol\":29914:29917  end */\n      dup1\n        /* \"contracts/ERC721A.sol\":29898:29911  _currentIndex */\n      0x01\n        /* \"contracts/ERC721A.sol\":29898:29917  _currentIndex = end */\n      dup2\n      swap1\n      sstore\n      pop\n        /* \"contracts/ERC721A.sol\":27519:29928  unchecked {... */\n      pop\n      pop\n        /* \"contracts/ERC721A.sol\":29937:29997  _afterTokenTransfers(address(0), to, startTokenId, quantity) */\n      tag_327\n        /* \"contracts/ERC721A.sol\":29966:29967  0 */\n      0x00\n        /* \"contracts/ERC721A.sol\":29970:29972  to */\n      dup5\n        /* \"contracts/ERC721A.sol\":29974:29986  startTokenId */\n      dup4\n        /* \"contracts/ERC721A.sol\":29988:29996  quantity */\n      dup6\n        /* \"contracts/ERC721A.sol\":29937:29957  _afterTokenTransfers */\n      tag_194\n        /* \"contracts/ERC721A.sol\":29937:29997  _afterTokenTransfers(address(0), to, startTokenId, quantity) */\n      jump\t// in\n    tag_327:\n        /* \"contracts/ERC721A.sol\":27164:30004  {... */\n      pop\n        /* \"contracts/ERC721A.sol\":27102:30004  function _mint(address to, uint256 quantity) internal virtual {... */\n      pop\n      pop\n      jump\t// out\n        /* \"@openzeppelin/contracts/access/Ownable.sol\":2433:2620  function _transferOwnership(address newOwner) internal virtual {... */\n    tag_243:\n        /* \"@openzeppelin/contracts/access/Ownable.sol\":2506:2522  address oldOwner */\n      0x00\n        /* \"@openzeppelin/contracts/access/Ownable.sol\":2525:2531  _owner */\n      dup1\n      0x00\n      swap1\n      sload\n      swap1\n      0x0100\n      exp\n      swap1\n      div\n      0xffffffffffffffffffffffffffffffffffffffff\n      and\n        /* \"@openzeppelin/contracts/access/Ownable.sol\":2506:2531  address oldOwner = _owner */\n      swap1\n      pop\n        /* \"@openzeppelin/contracts/access/Ownable.sol\":2550:2558  newOwner */\n      dup2\n        /* \"@openzeppelin/contracts/access/Ownable.sol\":2541:2547  _owner */\n      0x00\n      dup1\n        /* \"@openzeppelin/contracts/access/Ownable.sol\":2541:2558  _owner = newOwner */\n      0x0100\n      exp\n      dup2\n      sload\n      dup2\n      0xffffffffffffffffffffffffffffffffffffffff\n      mul\n      not\n      and\n      swap1\n      dup4\n      0xffffffffffffffffffffffffffffffffffffffff\n      and\n      mul\n      or\n      swap1\n      sstore\n      pop\n        /* \"@openzeppelin/contracts/access/Ownable.sol\":2604:2612  newOwner */\n      dup2\n        /* \"@openzeppelin/contracts/access/Ownable.sol\":2573:2613  OwnershipTransferred(oldOwner, newOwner) */\n      0xffffffffffffffffffffffffffffffffffffffff\n      and\n        /* \"@openzeppelin/contracts/access/Ownable.sol\":2594:2602  oldOwner */\n      dup2\n        /* \"@openzeppelin/contracts/access/Ownable.sol\":2573:2613  OwnershipTransferred(oldOwner, newOwner) */\n      0xffffffffffffffffffffffffffffffffffffffff\n      and\n      0x8be0079c531659141344cd1fd0a4f28419497f9722a3daafe3b4186f6b6457e0\n      mload(0x40)\n      mload(0x40)\n      dup1\n      swap2\n      sub\n      swap1\n      log3\n        /* \"@openzeppelin/contracts/access/Ownable.sol\":2496:2620  {... */\n      pop\n        /* \"@openzeppelin/contracts/access/Ownable.sol\":2433:2620  function _transferOwnership(address newOwner) internal virtual {... */\n      pop\n      jump\t// out\n        /* \"contracts/ERC721A.sol\":25959:26656  function _checkContractOnERC721Received(... */\n    tag_259:\n        /* \"contracts/ERC721A.sol\":26117:26121  bool */\n      0x00\n        /* \"contracts/ERC721A.sol\":26162:26164  to */\n      dup4\n        /* \"contracts/ERC721A.sol\":26137:26182  ERC721A__IERC721Receiver(to).onERC721Received */\n      0xffffffffffffffffffffffffffffffffffffffff\n      and\n      0x150b7a02\n        /* \"contracts/ERC721A.sol\":26183:26202  _msgSenderERC721A() */\n      tag_330\n        /* \"contracts/ERC721A.sol\":26183:26200  _msgSenderERC721A */\n      tag_161\n        /* \"contracts/ERC721A.sol\":26183:26202  _msgSenderERC721A() */\n      jump\t// in\n    tag_330:\n        /* \"contracts/ERC721A.sol\":26204:26208  from */\n      dup8\n        /* \"contracts/ERC721A.sol\":26210:26217  tokenId */\n      dup7\n        /* \"contracts/ERC721A.sol\":26219:26224  _data */\n      dup7\n        /* \"contracts/ERC721A.sol\":26137:26225  ERC721A__IERC721Receiver(to).onERC721Received(_msgSenderERC721A(), from, tokenId, _data) */\n      mload(0x40)\n      dup6\n      0xffffffff\n      and\n      0xe0\n      shl\n      dup2\n      mstore\n      0x04\n      add\n      tag_331\n      swap5\n      swap4\n      swap3\n      swap2\n      swap1\n      tag_332\n      jump\t// in\n    tag_331:\n      0x20\n      mload(0x40)\n      dup1\n      dup4\n      sub\n      dup2\n      0x00\n      dup8\n      dup1\n      extcodesize\n      iszero\n      dup1\n      iszero\n      tag_333\n      jumpi\n      0x00\n      dup1\n      revert\n    tag_333:\n      pop\n      gas\n      call\n      swap3\n      pop\n      pop\n      pop\n      dup1\n      iszero\n      tag_334\n      jumpi\n      pop\n      mload(0x40)\n      returndatasize\n      not(0x1f)\n      0x1f\n      dup3\n      add\n      and\n      dup3\n      add\n      dup1\n      0x40\n      mstore\n      pop\n      dup2\n      add\n      swap1\n      tag_335\n      swap2\n      swap1\n      tag_336\n      jump\t// in\n    tag_335:\n      0x01\n    tag_334:\n        /* \"contracts/ERC721A.sol\":26133:26650  try ERC721A__IERC721Receiver(to).onERC721Received(_msgSenderERC721A(), from, tokenId, _data) returns (... */\n      tag_337\n      jumpi\n      returndatasize\n      dup1\n      0x00\n      dup2\n      eq\n      tag_342\n      jumpi\n      mload(0x40)\n      swap2\n      pop\n      and(add(returndatasize, 0x3f), not(0x1f))\n      dup3\n      add\n      0x40\n      mstore\n      returndatasize\n      dup3\n      mstore\n      returndatasize\n      0x00\n      0x20\n      dup5\n      add\n      returndatacopy\n      jump(tag_341)\n    tag_342:\n      0x60\n      swap2\n      pop\n    tag_341:\n      pop\n        /* \"contracts/ERC721A.sol\":26432:26433  0 */\n      0x00\n        /* \"contracts/ERC721A.sol\":26415:26421  reason */\n      dup2\n        /* \"contracts/ERC721A.sol\":26415:26428  reason.length */\n      mload\n        /* \"contracts/ERC721A.sol\":26415:26433  reason.length == 0 */\n      eq\n        /* \"contracts/ERC721A.sol\":26411:26640  if (reason.length == 0) {... */\n      iszero\n      tag_343\n      jumpi\n        /* \"contracts/ERC721A.sol\":26460:26500  TransferToNonERC721ReceiverImplementer() */\n      mload(0x40)\n      0xd1a57ed600000000000000000000000000000000000000000000000000000000\n      dup2\n      mstore\n      0x04\n      add\n      mload(0x40)\n      dup1\n      swap2\n      sub\n      swap1\n      revert\n        /* \"contracts/ERC721A.sol\":26411:26640  if (reason.length == 0) {... */\n    tag_343:\n        /* \"contracts/ERC721A.sol\":26600:26606  reason */\n      dup1\n        /* \"contracts/ERC721A.sol\":26594:26607  mload(reason) */\n      mload\n        /* \"contracts/ERC721A.sol\":26585:26591  reason */\n      dup2\n        /* \"contracts/ERC721A.sol\":26581:26583  32 */\n      0x20\n        /* \"contracts/ERC721A.sol\":26577:26592  add(32, reason) */\n      add\n        /* \"contracts/ERC721A.sol\":26570:26608  revert(add(32, reason), mload(reason)) */\n      revert\n        /* \"contracts/ERC721A.sol\":26133:26650  try ERC721A__IERC721Receiver(to).onERC721Received(_msgSenderERC721A(), from, tokenId, _data) returns (... */\n    tag_337:\n        /* \"contracts/ERC721A.sol\":26303:26357  ERC721A__IERC721Receiver(to).onERC721Received.selector */\n      shl(0xe0, 0x150b7a02)\n        /* \"contracts/ERC721A.sol\":26293:26357  retval == ERC721A__IERC721Receiver(to).onERC721Received.selector */\n      not(0xffffffffffffffffffffffffffffffffffffffffffffffffffffffff)\n      and\n        /* \"contracts/ERC721A.sol\":26293:26299  retval */\n      dup2\n        /* \"contracts/ERC721A.sol\":26293:26357  retval == ERC721A__IERC721Receiver(to).onERC721Received.selector */\n      not(0xffffffffffffffffffffffffffffffffffffffffffffffffffffffff)\n      and\n      eq\n        /* \"contracts/ERC721A.sol\":26286:26357  return retval == ERC721A__IERC721Receiver(to).onERC721Received.selector */\n      swap2\n      pop\n      pop\n        /* \"contracts/ERC721A.sol\":25959:26656  function _checkContractOnERC721Received(... */\n      swap5\n      swap4\n      pop\n      pop\n      pop\n      pop\n      jump\t// out\n        /* \"contracts/MudAi.sol\":1202:1306  function _baseURI() internal view override returns (string memory) {... */\n    tag_265:\n        /* \"contracts/MudAi.sol\":1254:1267  string memory */\n      0x60\n        /* \"contracts/MudAi.sol\":1286:1299  _baseTokenURI */\n      0x0a\n        /* \"contracts/MudAi.sol\":1279:1299  return _baseTokenURI */\n      dup1\n      sload\n      tag_347\n      swap1\n      tag_149\n      jump\t// in\n    tag_347:\n      dup1\n      0x1f\n      add\n      0x20\n      dup1\n      swap2\n      div\n      mul\n      0x20\n      add\n      mload(0x40)\n      swap1\n      dup2\n      add\n      0x40\n      mstore\n      dup1\n      swap3\n      swap2\n      swap1\n      dup2\n      dup2\n      mstore\n      0x20\n      add\n      dup3\n      dup1\n      sload\n      tag_348\n      swap1\n      tag_149\n      jump\t// in\n    tag_348:\n      dup1\n      iszero\n      tag_349\n      jumpi\n      dup1\n      0x1f\n      lt\n      tag_350\n      jumpi\n      0x0100\n      dup1\n      dup4\n      sload\n      div\n      mul\n      dup4\n      mstore\n      swap2\n      0x20\n      add\n      swap2\n      jump(tag_349)\n    tag_350:\n      dup3\n      add\n      swap2\n      swap1\n      0x00\n      mstore\n      keccak256(0x00, 0x20)\n      swap1\n    tag_351:\n      dup2\n      sload\n      dup2\n      mstore\n      swap1\n      0x01\n      add\n      swap1\n      0x20\n      add\n      dup1\n      dup4\n      gt\n      tag_351\n      jumpi\n      dup3\n      swap1\n      sub\n      0x1f\n      and\n      dup3\n      add\n      swap2\n    tag_349:\n      pop\n      pop\n      pop\n      pop\n      pop\n      swap1\n      pop\n        /* \"contracts/MudAi.sol\":1202:1306  function _baseURI() internal view override returns (string memory) {... */\n      swap1\n      jump\t// out\n        /* \"contracts/ERC721A.sol\":39648:41356  function _toString(uint256 value) internal pure virtual returns (string memory str) {... */\n    tag_269:\n        /* \"contracts/ERC721A.sol\":39713:39730  string memory str */\n      0x60\n        /* \"contracts/ERC721A.sol\":40141:40145  0xa0 */\n      0xa0\n        /* \"contracts/ERC721A.sol\":40134:40138  0x40 */\n      0x40\n        /* \"contracts/ERC721A.sol\":40128:40139  mload(0x40) */\n      mload\n        /* \"contracts/ERC721A.sol\":40124:40146  add(mload(0x40), 0xa0) */\n      add\n        /* \"contracts/ERC721A.sol\":40231:40232  m */\n      dup1\n        /* \"contracts/ERC721A.sol\":40225:40229  0x40 */\n      0x40\n        /* \"contracts/ERC721A.sol\":40218:40233  mstore(0x40, m) */\n      mstore\n        /* \"contracts/ERC721A.sol\":40304:40308  0x20 */\n      0x20\n        /* \"contracts/ERC721A.sol\":40301:40302  m */\n      dup2\n        /* \"contracts/ERC721A.sol\":40297:40309  sub(m, 0x20) */\n      sub\n        /* \"contracts/ERC721A.sol\":40290:40309  str := sub(m, 0x20) */\n      swap2\n      pop\n        /* \"contracts/ERC721A.sol\":40384:40385  0 */\n      0x00\n        /* \"contracts/ERC721A.sol\":40379:40382  str */\n      dup3\n        /* \"contracts/ERC721A.sol\":40372:40386  mstore(str, 0) */\n      mstore\n        /* \"contracts/ERC721A.sol\":40485:40488  str */\n      dup2\n        /* \"contracts/ERC721A.sol\":40719:40724  value */\n      dup4\n        /* \"contracts/ERC721A.sol\":40701:41120  for { let temp := value } 1 {} {... */\n    tag_353:\n        /* \"contracts/ERC721A.sol\":40727:40728  1 */\n      0x01\n        /* \"contracts/ERC721A.sol\":40701:41120  for { let temp := value } 1 {} {... */\n      iszero\n      tag_355\n      jumpi\n        /* \"contracts/ERC721A.sol\":40766:40767  1 */\n      0x01\n        /* \"contracts/ERC721A.sol\":40761:40764  str */\n      dup5\n        /* \"contracts/ERC721A.sol\":40757:40768  sub(str, 1) */\n      sub\n        /* \"contracts/ERC721A.sol\":40750:40768  str := sub(str, 1) */\n      swap4\n      pop\n        /* \"contracts/ERC721A.sol\":40934:40936  10 */\n      0x0a\n        /* \"contracts/ERC721A.sol\":40928:40932  temp */\n      dup2\n        /* \"contracts/ERC721A.sol\":40924:40937  mod(temp, 10) */\n      mod\n        /* \"contracts/ERC721A.sol\":40920:40922  48 */\n      0x30\n        /* \"contracts/ERC721A.sol\":40916:40938  add(48, mod(temp, 10)) */\n      add\n        /* \"contracts/ERC721A.sol\":40911:40914  str */\n      dup5\n        /* \"contracts/ERC721A.sol\":40903:40939  mstore8(str, add(48, mod(temp, 10))) */\n      mstore8\n        /* \"contracts/ERC721A.sol\":41026:41028  10 */\n      0x0a\n        /* \"contracts/ERC721A.sol\":41020:41024  temp */\n      dup2\n        /* \"contracts/ERC721A.sol\":41016:41029  div(temp, 10) */\n      div\n        /* \"contracts/ERC721A.sol\":41008:41029  temp := div(temp, 10) */\n      swap1\n      pop\n        /* \"contracts/ERC721A.sol\":41091:41095  temp */\n      dup1\n        /* \"contracts/ERC721A.sol\":41081:41106  if iszero(temp) { break } */\n      tag_356\n      jumpi\n        /* \"contracts/ERC721A.sol\":41099:41104  break */\n      jump(tag_355)\n        /* \"contracts/ERC721A.sol\":41081:41106  if iszero(temp) { break } */\n    tag_356:\n        /* \"contracts/ERC721A.sol\":40701:41120  for { let temp := value } 1 {} {... */\n      jump(tag_353)\n    tag_355:\n        /* \"contracts/ERC721A.sol\":40705:40726  { let temp := value } */\n      pop\n        /* \"contracts/ERC721A.sol\":41157:41160  str */\n      dup3\n        /* \"contracts/ERC721A.sol\":41152:41155  end */\n      dup2\n        /* \"contracts/ERC721A.sol\":41148:41161  sub(end, str) */\n      sub\n        /* \"contracts/ERC721A.sol\":41270:41274  0x20 */\n      0x20\n        /* \"contracts/ERC721A.sol\":41265:41268  str */\n      dup5\n        /* \"contracts/ERC721A.sol\":41261:41275  sub(str, 0x20) */\n      sub\n        /* \"contracts/ERC721A.sol\":41254:41275  str := sub(str, 0x20) */\n      swap4\n      pop\n        /* \"contracts/ERC721A.sol\":41333:41339  length */\n      dup1\n        /* \"contracts/ERC721A.sol\":41328:41331  str */\n      dup5\n        /* \"contracts/ERC721A.sol\":41321:41340  mstore(str, length) */\n      mstore\n        /* \"contracts/ERC721A.sol\":39751:41350  {... */\n      pop\n      pop\n      pop\n        /* \"contracts/ERC721A.sol\":39648:41356  function _toString(uint256 value) internal pure virtual returns (string memory str) {... */\n      swap2\n      swap1\n      pop\n      jump\t// out\n        /* \"contracts/ERC721A.sol\":38486:38629  function _extraData(... */\n    tag_304:\n        /* \"contracts/ERC721A.sol\":38619:38625  uint24 */\n      0x00\n        /* \"contracts/ERC721A.sol\":38486:38629  function _extraData(... */\n      swap4\n      swap3\n      pop\n      pop\n      pop\n      jump\t// out\n        /* \"@openzeppelin/contracts/utils/Context.sol\":640:736  function _msgSender() internal view virtual returns (address) {... */\n    tag_309:\n        /* \"@openzeppelin/contracts/utils/Context.sol\":693:700  address */\n      0x00\n        /* \"@openzeppelin/contracts/utils/Context.sol\":719:729  msg.sender */\n      caller\n        /* \"@openzeppelin/contracts/utils/Context.sol\":712:729  return msg.sender */\n      swap1\n      pop\n        /* \"@openzeppelin/contracts/utils/Context.sol\":640:736  function _msgSender() internal view virtual returns (address) {... */\n      swap1\n      jump\t// out\n        /* \"contracts/ERC721A.sol\":14848:15166  function _nextInitializedFlag(uint256 quantity) private pure returns (uint256 result) {... */\n    tag_322:\n        /* \"contracts/ERC721A.sol\":14918:14932  uint256 result */\n      0x00\n        /* \"contracts/ERC721A.sol\":15147:15148  1 */\n      0x01\n        /* \"contracts/ERC721A.sol\":15137:15145  quantity */\n      dup3\n        /* \"contracts/ERC721A.sol\":15134:15149  eq(quantity, 1) */\n      eq\n        /* \"contracts/ERC721A.sol\":15108:15132  _BITPOS_NEXT_INITIALIZED */\n      0xe1\n        /* \"contracts/ERC721A.sol\":15104:15150  shl(_BITPOS_NEXT_INITIALIZED, eq(quantity, 1)) */\n      shl\n        /* \"contracts/ERC721A.sol\":15094:15150  result := shl(_BITPOS_NEXT_INITIALIZED, eq(quantity, 1)) */\n      swap1\n      pop\n        /* \"contracts/ERC721A.sol\":14848:15166  function _nextInitializedFlag(uint256 quantity) private pure returns (uint256 result) {... */\n      swap2\n      swap1\n      pop\n      jump\t// out\n    tag_234:\n      dup3\n      dup1\n      sload\n      tag_360\n      swap1\n      tag_149\n      jump\t// in\n    tag_360:\n      swap1\n      0x00\n      mstore\n      keccak256(0x00, 0x20)\n      swap1\n      0x1f\n      add\n      0x20\n      swap1\n      div\n      dup2\n      add\n      swap3\n      dup3\n      tag_362\n      jumpi\n      0x00\n      dup6\n      sstore\n      jump(tag_361)\n    tag_362:\n      dup3\n      0x1f\n      lt\n      tag_363\n      jumpi\n      dup1\n      calldataload\n      not(0xff)\n      and\n      dup4\n      dup1\n      add\n      or\n      dup6\n      sstore\n      jump(tag_361)\n    tag_363:\n      dup3\n      dup1\n      add\n      0x01\n      add\n      dup6\n      sstore\n      dup3\n      iszero\n      tag_361\n      jumpi\n      swap2\n      dup3\n      add\n    tag_364:\n      dup3\n      dup2\n      gt\n      iszero\n      tag_365\n      jumpi\n      dup3\n      calldataload\n      dup3\n      sstore\n      swap2\n      0x20\n      add\n      swap2\n      swap1\n      0x01\n      add\n      swap1\n      jump(tag_364)\n    tag_365:\n    tag_361:\n      pop\n      swap1\n      pop\n      tag_366\n      swap2\n      swap1\n      tag_367\n      jump\t// in\n    tag_366:\n      pop\n      swap1\n      jump\t// out\n    tag_367:\n    tag_368:\n      dup1\n      dup3\n      gt\n      iszero\n      tag_369\n      jumpi\n      0x00\n      dup2\n      0x00\n      swap1\n      sstore\n      pop\n      0x01\n      add\n      jump(tag_368)\n    tag_369:\n      pop\n      swap1\n      jump\t// out\n        /* \"#utility.yul\":7:417   */\n    tag_371:\n        /* \"#utility.yul\":84:89   */\n      0x00\n        /* \"#utility.yul\":109:174   */\n      tag_373\n        /* \"#utility.yul\":125:173   */\n      tag_374\n        /* \"#utility.yul\":166:172   */\n      dup5\n        /* \"#utility.yul\":125:173   */\n      tag_375\n      jump\t// in\n    tag_374:\n        /* \"#utility.yul\":109:174   */\n      tag_376\n      jump\t// in\n    tag_373:\n        /* \"#utility.yul\":100:174   */\n      swap1\n      pop\n        /* \"#utility.yul\":197:203   */\n      dup3\n        /* \"#utility.yul\":190:195   */\n      dup2\n        /* \"#utility.yul\":183:204   */\n      mstore\n        /* \"#utility.yul\":235:239   */\n      0x20\n        /* \"#utility.yul\":228:233   */\n      dup2\n        /* \"#utility.yul\":224:240   */\n      add\n        /* \"#utility.yul\":273:276   */\n      dup5\n        /* \"#utility.yul\":264:270   */\n      dup5\n        /* \"#utility.yul\":259:262   */\n      dup5\n        /* \"#utility.yul\":255:271   */\n      add\n        /* \"#utility.yul\":252:277   */\n      gt\n        /* \"#utility.yul\":249:361   */\n      iszero\n      tag_377\n      jumpi\n        /* \"#utility.yul\":280:359   */\n      tag_378\n      tag_379\n      jump\t// in\n    tag_378:\n        /* \"#utility.yul\":249:361   */\n    tag_377:\n        /* \"#utility.yul\":370:411   */\n      tag_380\n        /* \"#utility.yul\":404:410   */\n      dup5\n        /* \"#utility.yul\":399:402   */\n      dup3\n        /* \"#utility.yul\":394:397   */\n      dup6\n        /* \"#utility.yul\":370:411   */\n      tag_381\n      jump\t// in\n    tag_380:\n        /* \"#utility.yul\":90:417   */\n      pop\n        /* \"#utility.yul\":7:417   */\n      swap4\n      swap3\n      pop\n      pop\n      pop\n      jump\t// out\n        /* \"#utility.yul\":423:562   */\n    tag_382:\n        /* \"#utility.yul\":469:474   */\n      0x00\n        /* \"#utility.yul\":507:513   */\n      dup2\n        /* \"#utility.yul\":494:514   */\n      calldataload\n        /* \"#utility.yul\":485:514   */\n      swap1\n      pop\n        /* \"#utility.yul\":523:556   */\n      tag_384\n        /* \"#utility.yul\":550:555   */\n      dup2\n        /* \"#utility.yul\":523:556   */\n      tag_385\n      jump\t// in\n    tag_384:\n        /* \"#utility.yul\":423:562   */\n      swap3\n      swap2\n      pop\n      pop\n      jump\t// out\n        /* \"#utility.yul\":568:701   */\n    tag_386:\n        /* \"#utility.yul\":611:616   */\n      0x00\n        /* \"#utility.yul\":649:655   */\n      dup2\n        /* \"#utility.yul\":636:656   */\n      calldataload\n        /* \"#utility.yul\":627:656   */\n      swap1\n      pop\n        /* \"#utility.yul\":665:695   */\n      tag_388\n        /* \"#utility.yul\":689:694   */\n      dup2\n        /* \"#utility.yul\":665:695   */\n      tag_389\n      jump\t// in\n    tag_388:\n        /* \"#utility.yul\":568:701   */\n      swap3\n      swap2\n      pop\n      pop\n      jump\t// out\n        /* \"#utility.yul\":707:844   */\n    tag_390:\n        /* \"#utility.yul\":752:757   */\n      0x00\n        /* \"#utility.yul\":790:796   */\n      dup2\n        /* \"#utility.yul\":777:797   */\n      calldataload\n        /* \"#utility.yul\":768:797   */\n      swap1\n      pop\n        /* \"#utility.yul\":806:838   */\n      tag_392\n        /* \"#utility.yul\":832:837   */\n      dup2\n        /* \"#utility.yul\":806:838   */\n      tag_393\n      jump\t// in\n    tag_392:\n        /* \"#utility.yul\":707:844   */\n      swap3\n      swap2\n      pop\n      pop\n      jump\t// out\n        /* \"#utility.yul\":850:991   */\n    tag_394:\n        /* \"#utility.yul\":906:911   */\n      0x00\n        /* \"#utility.yul\":937:943   */\n      dup2\n        /* \"#utility.yul\":931:944   */\n      mload\n        /* \"#utility.yul\":922:944   */\n      swap1\n      pop\n        /* \"#utility.yul\":953:985   */\n      tag_396\n        /* \"#utility.yul\":979:984   */\n      dup2\n        /* \"#utility.yul\":953:985   */\n      tag_393\n      jump\t// in\n    tag_396:\n        /* \"#utility.yul\":850:991   */\n      swap3\n      swap2\n      pop\n      pop\n      jump\t// out\n        /* \"#utility.yul\":1010:1348   */\n    tag_397:\n        /* \"#utility.yul\":1065:1070   */\n      0x00\n        /* \"#utility.yul\":1114:1117   */\n      dup3\n        /* \"#utility.yul\":1107:1111   */\n      0x1f\n        /* \"#utility.yul\":1099:1105   */\n      dup4\n        /* \"#utility.yul\":1095:1112   */\n      add\n        /* \"#utility.yul\":1091:1118   */\n      slt\n        /* \"#utility.yul\":1081:1203   */\n      tag_399\n      jumpi\n        /* \"#utility.yul\":1122:1201   */\n      tag_400\n      tag_401\n      jump\t// in\n    tag_400:\n        /* \"#utility.yul\":1081:1203   */\n    tag_399:\n        /* \"#utility.yul\":1239:1245   */\n      dup2\n        /* \"#utility.yul\":1226:1246   */\n      calldataload\n        /* \"#utility.yul\":1264:1342   */\n      tag_402\n        /* \"#utility.yul\":1338:1341   */\n      dup5\n        /* \"#utility.yul\":1330:1336   */\n      dup3\n        /* \"#utility.yul\":1323:1327   */\n      0x20\n        /* \"#utility.yul\":1315:1321   */\n      dup7\n        /* \"#utility.yul\":1311:1328   */\n      add\n        /* \"#utility.yul\":1264:1342   */\n      tag_371\n      jump\t// in\n    tag_402:\n        /* \"#utility.yul\":1255:1342   */\n      swap2\n      pop\n        /* \"#utility.yul\":1071:1348   */\n      pop\n        /* \"#utility.yul\":1010:1348   */\n      swap3\n      swap2\n      pop\n      pop\n      jump\t// out\n        /* \"#utility.yul\":1368:1921   */\n    tag_403:\n        /* \"#utility.yul\":1426:1434   */\n      0x00\n        /* \"#utility.yul\":1436:1442   */\n      dup1\n        /* \"#utility.yul\":1486:1489   */\n      dup4\n        /* \"#utility.yul\":1479:1483   */\n      0x1f\n        /* \"#utility.yul\":1471:1477   */\n      dup5\n        /* \"#utility.yul\":1467:1484   */\n      add\n        /* \"#utility.yul\":1463:1490   */\n      slt\n        /* \"#utility.yul\":1453:1575   */\n      tag_405\n      jumpi\n        /* \"#utility.yul\":1494:1573   */\n      tag_406\n      tag_401\n      jump\t// in\n    tag_406:\n        /* \"#utility.yul\":1453:1575   */\n    tag_405:\n        /* \"#utility.yul\":1607:1613   */\n      dup3\n        /* \"#utility.yul\":1594:1614   */\n      calldataload\n        /* \"#utility.yul\":1584:1614   */\n      swap1\n      pop\n        /* \"#utility.yul\":1637:1655   */\n      0xffffffffffffffff\n        /* \"#utility.yul\":1629:1635   */\n      dup2\n        /* \"#utility.yul\":1626:1656   */\n      gt\n        /* \"#utility.yul\":1623:1740   */\n      iszero\n      tag_407\n      jumpi\n        /* \"#utility.yul\":1659:1738   */\n      tag_408\n      tag_409\n      jump\t// in\n    tag_408:\n        /* \"#utility.yul\":1623:1740   */\n    tag_407:\n        /* \"#utility.yul\":1773:1777   */\n      0x20\n        /* \"#utility.yul\":1765:1771   */\n      dup4\n        /* \"#utility.yul\":1761:1778   */\n      add\n        /* \"#utility.yul\":1749:1778   */\n      swap2\n      pop\n        /* \"#utility.yul\":1827:1830   */\n      dup4\n        /* \"#utility.yul\":1819:1823   */\n      0x01\n        /* \"#utility.yul\":1811:1817   */\n      dup3\n        /* \"#utility.yul\":1807:1824   */\n      mul\n        /* \"#utility.yul\":1797:1805   */\n      dup4\n        /* \"#utility.yul\":1793:1825   */\n      add\n        /* \"#utility.yul\":1790:1831   */\n      gt\n        /* \"#utility.yul\":1787:1915   */\n      iszero\n      tag_410\n      jumpi\n        /* \"#utility.yul\":1834:1913   */\n      tag_411\n      tag_412\n      jump\t// in\n    tag_411:\n        /* \"#utility.yul\":1787:1915   */\n    tag_410:\n        /* \"#utility.yul\":1368:1921   */\n      swap3\n      pop\n      swap3\n      swap1\n      pop\n      jump\t// out\n        /* \"#utility.yul\":1927:2066   */\n    tag_413:\n        /* \"#utility.yul\":1973:1978   */\n      0x00\n        /* \"#utility.yul\":2011:2017   */\n      dup2\n        /* \"#utility.yul\":1998:2018   */\n      calldataload\n        /* \"#utility.yul\":1989:2018   */\n      swap1\n      pop\n        /* \"#utility.yul\":2027:2060   */\n      tag_415\n        /* \"#utility.yul\":2054:2059   */\n      dup2\n        /* \"#utility.yul\":2027:2060   */\n      tag_416\n      jump\t// in\n    tag_415:\n        /* \"#utility.yul\":1927:2066   */\n      swap3\n      swap2\n      pop\n      pop\n      jump\t// out\n        /* \"#utility.yul\":2072:2401   */\n    tag_89:\n        /* \"#utility.yul\":2131:2137   */\n      0x00\n        /* \"#utility.yul\":2180:2182   */\n      0x20\n        /* \"#utility.yul\":2168:2177   */\n      dup3\n        /* \"#utility.yul\":2159:2166   */\n      dup5\n        /* \"#utility.yul\":2155:2178   */\n      sub\n        /* \"#utility.yul\":2151:2183   */\n      slt\n        /* \"#utility.yul\":2148:2267   */\n      iszero\n      tag_418\n      jumpi\n        /* \"#utility.yul\":2186:2265   */\n      tag_419\n      tag_420\n      jump\t// in\n    tag_419:\n        /* \"#utility.yul\":2148:2267   */\n    tag_418:\n        /* \"#utility.yul\":2306:2307   */\n      0x00\n        /* \"#utility.yul\":2331:2384   */\n      tag_421\n        /* \"#utility.yul\":2376:2383   */\n      dup5\n        /* \"#utility.yul\":2367:2373   */\n      dup3\n        /* \"#utility.yul\":2356:2365   */\n      dup6\n        /* \"#utility.yul\":2352:2374   */\n      add\n        /* \"#utility.yul\":2331:2384   */\n      tag_382\n      jump\t// in\n    tag_421:\n        /* \"#utility.yul\":2321:2384   */\n      swap2\n      pop\n        /* \"#utility.yul\":2277:2394   */\n      pop\n        /* \"#utility.yul\":2072:2401   */\n      swap3\n      swap2\n      pop\n      pop\n      jump\t// out\n        /* \"#utility.yul\":2407:2881   */\n    tag_132:\n        /* \"#utility.yul\":2475:2481   */\n      0x00\n        /* \"#utility.yul\":2483:2489   */\n      dup1\n        /* \"#utility.yul\":2532:2534   */\n      0x40\n        /* \"#utility.yul\":2520:2529   */\n      dup4\n        /* \"#utility.yul\":2511:2518   */\n      dup6\n        /* \"#utility.yul\":2507:2530   */\n      sub\n        /* \"#utility.yul\":2503:2535   */\n      slt\n        /* \"#utility.yul\":2500:2619   */\n      iszero\n      tag_423\n      jumpi\n        /* \"#utility.yul\":2538:2617   */\n      tag_424\n      tag_420\n      jump\t// in\n    tag_424:\n        /* \"#utility.yul\":2500:2619   */\n    tag_423:\n        /* \"#utility.yul\":2658:2659   */\n      0x00\n        /* \"#utility.yul\":2683:2736   */\n      tag_425\n        /* \"#utility.yul\":2728:2735   */\n      dup6\n        /* \"#utility.yul\":2719:2725   */\n      dup3\n        /* \"#utility.yul\":2708:2717   */\n      dup7\n        /* \"#utility.yul\":2704:2726   */\n      add\n        /* \"#utility.yul\":2683:2736   */\n      tag_382\n      jump\t// in\n    tag_425:\n        /* \"#utility.yul\":2673:2736   */\n      swap3\n      pop\n        /* \"#utility.yul\":2629:2746   */\n      pop\n        /* \"#utility.yul\":2785:2787   */\n      0x20\n        /* \"#utility.yul\":2811:2864   */\n      tag_426\n        /* \"#utility.yul\":2856:2863   */\n      dup6\n        /* \"#utility.yul\":2847:2853   */\n      dup3\n        /* \"#utility.yul\":2836:2845   */\n      dup7\n        /* \"#utility.yul\":2832:2854   */\n      add\n        /* \"#utility.yul\":2811:2864   */\n      tag_382\n      jump\t// in\n    tag_426:\n        /* \"#utility.yul\":2801:2864   */\n      swap2\n      pop\n        /* \"#utility.yul\":2756:2874   */\n      pop\n        /* \"#utility.yul\":2407:2881   */\n      swap3\n      pop\n      swap3\n      swap1\n      pop\n      jump\t// out\n        /* \"#utility.yul\":2887:3506   */\n    tag_61:\n        /* \"#utility.yul\":2964:2970   */\n      0x00\n        /* \"#utility.yul\":2972:2978   */\n      dup1\n        /* \"#utility.yul\":2980:2986   */\n      0x00\n        /* \"#utility.yul\":3029:3031   */\n      0x60\n        /* \"#utility.yul\":3017:3026   */\n      dup5\n        /* \"#utility.yul\":3008:3015   */\n      dup7\n        /* \"#utility.yul\":3004:3027   */\n      sub\n        /* \"#utility.yul\":3000:3032   */\n      slt\n        /* \"#utility.yul\":2997:3116   */\n      iszero\n      tag_428\n      jumpi\n        /* \"#utility.yul\":3035:3114   */\n      tag_429\n      tag_420\n      jump\t// in\n    tag_429:\n        /* \"#utility.yul\":2997:3116   */\n    tag_428:\n        /* \"#utility.yul\":3155:3156   */\n      0x00\n        /* \"#utility.yul\":3180:3233   */\n      tag_430\n        /* \"#utility.yul\":3225:3232   */\n      dup7\n        /* \"#utility.yul\":3216:3222   */\n      dup3\n        /* \"#utility.yul\":3205:3214   */\n      dup8\n        /* \"#utility.yul\":3201:3223   */\n      add\n        /* \"#utility.yul\":3180:3233   */\n      tag_382\n      jump\t// in\n    tag_430:\n        /* \"#utility.yul\":3170:3233   */\n      swap4\n      pop\n        /* \"#utility.yul\":3126:3243   */\n      pop\n        /* \"#utility.yul\":3282:3284   */\n      0x20\n        /* \"#utility.yul\":3308:3361   */\n      tag_431\n        /* \"#utility.yul\":3353:3360   */\n      dup7\n        /* \"#utility.yul\":3344:3350   */\n      dup3\n        /* \"#utility.yul\":3333:3342   */\n      dup8\n        /* \"#utility.yul\":3329:3351   */\n      add\n        /* \"#utility.yul\":3308:3361   */\n      tag_382\n      jump\t// in\n    tag_431:\n        /* \"#utility.yul\":3298:3361   */\n      swap3\n      pop\n        /* \"#utility.yul\":3253:3371   */\n      pop\n        /* \"#utility.yul\":3410:3412   */\n      0x40\n        /* \"#utility.yul\":3436:3489   */\n      tag_432\n        /* \"#utility.yul\":3481:3488   */\n      dup7\n        /* \"#utility.yul\":3472:3478   */\n      dup3\n        /* \"#utility.yul\":3461:3470   */\n      dup8\n        /* \"#utility.yul\":3457:3479   */\n      add\n        /* \"#utility.yul\":3436:3489   */\n      tag_413\n      jump\t// in\n    tag_432:\n        /* \"#utility.yul\":3426:3489   */\n      swap2\n      pop\n        /* \"#utility.yul\":3381:3499   */\n      pop\n        /* \"#utility.yul\":2887:3506   */\n      swap3\n      pop\n      swap3\n      pop\n      swap3\n      jump\t// out\n        /* \"#utility.yul\":3512:4455   */\n    tag_118:\n        /* \"#utility.yul\":3607:3613   */\n      0x00\n        /* \"#utility.yul\":3615:3621   */\n      dup1\n        /* \"#utility.yul\":3623:3629   */\n      0x00\n        /* \"#utility.yul\":3631:3637   */\n      dup1\n        /* \"#utility.yul\":3680:3683   */\n      0x80\n        /* \"#utility.yul\":3668:3677   */\n      dup6\n        /* \"#utility.yul\":3659:3666   */\n      dup8\n        /* \"#utility.yul\":3655:3678   */\n      sub\n        /* \"#utility.yul\":3651:3684   */\n      slt\n        /* \"#utility.yul\":3648:3768   */\n      iszero\n      tag_434\n      jumpi\n        /* \"#utility.yul\":3687:3766   */\n      tag_435\n      tag_420\n      jump\t// in\n    tag_435:\n        /* \"#utility.yul\":3648:3768   */\n    tag_434:\n        /* \"#utility.yul\":3807:3808   */\n      0x00\n        /* \"#utility.yul\":3832:3885   */\n      tag_436\n        /* \"#utility.yul\":3877:3884   */\n      dup8\n        /* \"#utility.yul\":3868:3874   */\n      dup3\n        /* \"#utility.yul\":3857:3866   */\n      dup9\n        /* \"#utility.yul\":3853:3875   */\n      add\n        /* \"#utility.yul\":3832:3885   */\n      tag_382\n      jump\t// in\n    tag_436:\n        /* \"#utility.yul\":3822:3885   */\n      swap5\n      pop\n        /* \"#utility.yul\":3778:3895   */\n      pop\n        /* \"#utility.yul\":3934:3936   */\n      0x20\n        /* \"#utility.yul\":3960:4013   */\n      tag_437\n        /* \"#utility.yul\":4005:4012   */\n      dup8\n        /* \"#utility.yul\":3996:4002   */\n      dup3\n        /* \"#utility.yul\":3985:3994   */\n      dup9\n        /* \"#utility.yul\":3981:4003   */\n      add\n        /* \"#utility.yul\":3960:4013   */\n      tag_382\n      jump\t// in\n    tag_437:\n        /* \"#utility.yul\":3950:4013   */\n      swap4\n      pop\n        /* \"#utility.yul\":3905:4023   */\n      pop\n        /* \"#utility.yul\":4062:4064   */\n      0x40\n        /* \"#utility.yul\":4088:4141   */\n      tag_438\n        /* \"#utility.yul\":4133:4140   */\n      dup8\n        /* \"#utility.yul\":4124:4130   */\n      dup3\n        /* \"#utility.yul\":4113:4122   */\n      dup9\n        /* \"#utility.yul\":4109:4131   */\n      add\n        /* \"#utility.yul\":4088:4141   */\n      tag_413\n      jump\t// in\n    tag_438:\n        /* \"#utility.yul\":4078:4141   */\n      swap3\n      pop\n        /* \"#utility.yul\":4033:4151   */\n      pop\n        /* \"#utility.yul\":4218:4220   */\n      0x60\n        /* \"#utility.yul\":4207:4216   */\n      dup6\n        /* \"#utility.yul\":4203:4221   */\n      add\n        /* \"#utility.yul\":4190:4222   */\n      calldataload\n        /* \"#utility.yul\":4249:4267   */\n      0xffffffffffffffff\n        /* \"#utility.yul\":4241:4247   */\n      dup2\n        /* \"#utility.yul\":4238:4268   */\n      gt\n        /* \"#utility.yul\":4235:4352   */\n      iszero\n      tag_439\n      jumpi\n        /* \"#utility.yul\":4271:4350   */\n      tag_440\n      tag_441\n      jump\t// in\n    tag_440:\n        /* \"#utility.yul\":4235:4352   */\n    tag_439:\n        /* \"#utility.yul\":4376:4438   */\n      tag_442\n        /* \"#utility.yul\":4430:4437   */\n      dup8\n        /* \"#utility.yul\":4421:4427   */\n      dup3\n        /* \"#utility.yul\":4410:4419   */\n      dup9\n        /* \"#utility.yul\":4406:4428   */\n      add\n        /* \"#utility.yul\":4376:4438   */\n      tag_397\n      jump\t// in\n    tag_442:\n        /* \"#utility.yul\":4366:4438   */\n      swap2\n      pop\n        /* \"#utility.yul\":4161:4448   */\n      pop\n        /* \"#utility.yul\":3512:4455   */\n      swap3\n      swap6\n      swap2\n      swap5\n      pop\n      swap3\n      pop\n      jump\t// out\n        /* \"#utility.yul\":4461:4929   */\n    tag_114:\n        /* \"#utility.yul\":4526:4532   */\n      0x00\n        /* \"#utility.yul\":4534:4540   */\n      dup1\n        /* \"#utility.yul\":4583:4585   */\n      0x40\n        /* \"#utility.yul\":4571:4580   */\n      dup4\n        /* \"#utility.yul\":4562:4569   */\n      dup6\n        /* \"#utility.yul\":4558:4581   */\n      sub\n        /* \"#utility.yul\":4554:4586   */\n      slt\n        /* \"#utility.yul\":4551:4670   */\n      iszero\n      tag_444\n      jumpi\n        /* \"#utility.yul\":4589:4668   */\n      tag_445\n      tag_420\n      jump\t// in\n    tag_445:\n        /* \"#utility.yul\":4551:4670   */\n    tag_444:\n        /* \"#utility.yul\":4709:4710   */\n      0x00\n        /* \"#utility.yul\":4734:4787   */\n      tag_446\n        /* \"#utility.yul\":4779:4786   */\n      dup6\n        /* \"#utility.yul\":4770:4776   */\n      dup3\n        /* \"#utility.yul\":4759:4768   */\n      dup7\n        /* \"#utility.yul\":4755:4777   */\n      add\n        /* \"#utility.yul\":4734:4787   */\n      tag_382\n      jump\t// in\n    tag_446:\n        /* \"#utility.yul\":4724:4787   */\n      swap3\n      pop\n        /* \"#utility.yul\":4680:4797   */\n      pop\n        /* \"#utility.yul\":4836:4838   */\n      0x20\n        /* \"#utility.yul\":4862:4912   */\n      tag_447\n        /* \"#utility.yul\":4904:4911   */\n      dup6\n        /* \"#utility.yul\":4895:4901   */\n      dup3\n        /* \"#utility.yul\":4884:4893   */\n      dup7\n        /* \"#utility.yul\":4880:4902   */\n      add\n        /* \"#utility.yul\":4862:4912   */\n      tag_386\n      jump\t// in\n    tag_447:\n        /* \"#utility.yul\":4852:4912   */\n      swap2\n      pop\n        /* \"#utility.yul\":4807:4922   */\n      pop\n        /* \"#utility.yul\":4461:4929   */\n      swap3\n      pop\n      swap3\n      swap1\n      pop\n      jump\t// out\n        /* \"#utility.yul\":4935:5409   */\n    tag_52:\n        /* \"#utility.yul\":5003:5009   */\n      0x00\n        /* \"#utility.yul\":5011:5017   */\n      dup1\n        /* \"#utility.yul\":5060:5062   */\n      0x40\n        /* \"#utility.yul\":5048:5057   */\n      dup4\n        /* \"#utility.yul\":5039:5046   */\n      dup6\n        /* \"#utility.yul\":5035:5058   */\n      sub\n        /* \"#utility.yul\":5031:5063   */\n      slt\n        /* \"#utility.yul\":5028:5147   */\n      iszero\n      tag_449\n      jumpi\n        /* \"#utility.yul\":5066:5145   */\n      tag_450\n      tag_420\n      jump\t// in\n    tag_450:\n        /* \"#utility.yul\":5028:5147   */\n    tag_449:\n        /* \"#utility.yul\":5186:5187   */\n      0x00\n        /* \"#utility.yul\":5211:5264   */\n      tag_451\n        /* \"#utility.yul\":5256:5263   */\n      dup6\n        /* \"#utility.yul\":5247:5253   */\n      dup3\n        /* \"#utility.yul\":5236:5245   */\n      dup7\n        /* \"#utility.yul\":5232:5254   */\n      add\n        /* \"#utility.yul\":5211:5264   */\n      tag_382\n      jump\t// in\n    tag_451:\n        /* \"#utility.yul\":5201:5264   */\n      swap3\n      pop\n        /* \"#utility.yul\":5157:5274   */\n      pop\n        /* \"#utility.yul\":5313:5315   */\n      0x20\n        /* \"#utility.yul\":5339:5392   */\n      tag_452\n        /* \"#utility.yul\":5384:5391   */\n      dup6\n        /* \"#utility.yul\":5375:5381   */\n      dup3\n        /* \"#utility.yul\":5364:5373   */\n      dup7\n        /* \"#utility.yul\":5360:5382   */\n      add\n        /* \"#utility.yul\":5339:5392   */\n      tag_413\n      jump\t// in\n    tag_452:\n        /* \"#utility.yul\":5329:5392   */\n      swap2\n      pop\n        /* \"#utility.yul\":5284:5402   */\n      pop\n        /* \"#utility.yul\":4935:5409   */\n      swap3\n      pop\n      swap3\n      swap1\n      pop\n      jump\t// out\n        /* \"#utility.yul\":5415:5738   */\n    tag_142:\n        /* \"#utility.yul\":5471:5477   */\n      0x00\n        /* \"#utility.yul\":5520:5522   */\n      0x20\n        /* \"#utility.yul\":5508:5517   */\n      dup3\n        /* \"#utility.yul\":5499:5506   */\n      dup5\n        /* \"#utility.yul\":5495:5518   */\n      sub\n        /* \"#utility.yul\":5491:5523   */\n      slt\n        /* \"#utility.yul\":5488:5607   */\n      iszero\n      tag_454\n      jumpi\n        /* \"#utility.yul\":5526:5605   */\n      tag_455\n      tag_420\n      jump\t// in\n    tag_455:\n        /* \"#utility.yul\":5488:5607   */\n    tag_454:\n        /* \"#utility.yul\":5646:5647   */\n      0x00\n        /* \"#utility.yul\":5671:5721   */\n      tag_456\n        /* \"#utility.yul\":5713:5720   */\n      dup5\n        /* \"#utility.yul\":5704:5710   */\n      dup3\n        /* \"#utility.yul\":5693:5702   */\n      dup6\n        /* \"#utility.yul\":5689:5711   */\n      add\n        /* \"#utility.yul\":5671:5721   */\n      tag_386\n      jump\t// in\n    tag_456:\n        /* \"#utility.yul\":5661:5721   */\n      swap2\n      pop\n        /* \"#utility.yul\":5617:5731   */\n      pop\n        /* \"#utility.yul\":5415:5738   */\n      swap3\n      swap2\n      pop\n      pop\n      jump\t// out\n        /* \"#utility.yul\":5744:6071   */\n    tag_34:\n        /* \"#utility.yul\":5802:5808   */\n      0x00\n        /* \"#utility.yul\":5851:5853   */\n      0x20\n        /* \"#utility.yul\":5839:5848   */\n      dup3\n        /* \"#utility.yul\":5830:5837   */\n      dup5\n        /* \"#utility.yul\":5826:5849   */\n      sub\n        /* \"#utility.yul\":5822:5854   */\n      slt\n        /* \"#utility.yul\":5819:5938   */\n      iszero\n      tag_458\n      jumpi\n        /* \"#utility.yul\":5857:5936   */\n      tag_459\n      tag_420\n      jump\t// in\n    tag_459:\n        /* \"#utility.yul\":5819:5938   */\n    tag_458:\n        /* \"#utility.yul\":5977:5978   */\n      0x00\n        /* \"#utility.yul\":6002:6054   */\n      tag_460\n        /* \"#utility.yul\":6046:6053   */\n      dup5\n        /* \"#utility.yul\":6037:6043   */\n      dup3\n        /* \"#utility.yul\":6026:6035   */\n      dup6\n        /* \"#utility.yul\":6022:6044   */\n      add\n        /* \"#utility.yul\":6002:6054   */\n      tag_390\n      jump\t// in\n    tag_460:\n        /* \"#utility.yul\":5992:6054   */\n      swap2\n      pop\n        /* \"#utility.yul\":5948:6064   */\n      pop\n        /* \"#utility.yul\":5744:6071   */\n      swap3\n      swap2\n      pop\n      pop\n      jump\t// out\n        /* \"#utility.yul\":6077:6426   */\n    tag_336:\n        /* \"#utility.yul\":6146:6152   */\n      0x00\n        /* \"#utility.yul\":6195:6197   */\n      0x20\n        /* \"#utility.yul\":6183:6192   */\n      dup3\n        /* \"#utility.yul\":6174:6181   */\n      dup5\n        /* \"#utility.yul\":6170:6193   */\n      sub\n        /* \"#utility.yul\":6166:6198   */\n      slt\n        /* \"#utility.yul\":6163:6282   */\n      iszero\n      tag_462\n      jumpi\n        /* \"#utility.yul\":6201:6280   */\n      tag_463\n      tag_420\n      jump\t// in\n    tag_463:\n        /* \"#utility.yul\":6163:6282   */\n    tag_462:\n        /* \"#utility.yul\":6321:6322   */\n      0x00\n        /* \"#utility.yul\":6346:6409   */\n      tag_464\n        /* \"#utility.yul\":6401:6408   */\n      dup5\n        /* \"#utility.yul\":6392:6398   */\n      dup3\n        /* \"#utility.yul\":6381:6390   */\n      dup6\n        /* \"#utility.yul\":6377:6399   */\n      add\n        /* \"#utility.yul\":6346:6409   */\n      tag_394\n      jump\t// in\n    tag_464:\n        /* \"#utility.yul\":6336:6409   */\n      swap2\n      pop\n        /* \"#utility.yul\":6292:6419   */\n      pop\n        /* \"#utility.yul\":6077:6426   */\n      swap3\n      swap2\n      pop\n      pop\n      jump\t// out\n        /* \"#utility.yul\":6432:6961   */\n    tag_79:\n        /* \"#utility.yul\":6503:6509   */\n      0x00\n        /* \"#utility.yul\":6511:6517   */\n      dup1\n        /* \"#utility.yul\":6560:6562   */\n      0x20\n        /* \"#utility.yul\":6548:6557   */\n      dup4\n        /* \"#utility.yul\":6539:6546   */\n      dup6\n        /* \"#utility.yul\":6535:6558   */\n      sub\n        /* \"#utility.yul\":6531:6563   */\n      slt\n        /* \"#utility.yul\":6528:6647   */\n      iszero\n      tag_466\n      jumpi\n        /* \"#utility.yul\":6566:6645   */\n      tag_467\n      tag_420\n      jump\t// in\n    tag_467:\n        /* \"#utility.yul\":6528:6647   */\n    tag_466:\n        /* \"#utility.yul\":6714:6715   */\n      0x00\n        /* \"#utility.yul\":6703:6712   */\n      dup4\n        /* \"#utility.yul\":6699:6716   */\n      add\n        /* \"#utility.yul\":6686:6717   */\n      calldataload\n        /* \"#utility.yul\":6744:6762   */\n      0xffffffffffffffff\n        /* \"#utility.yul\":6736:6742   */\n      dup2\n        /* \"#utility.yul\":6733:6763   */\n      gt\n        /* \"#utility.yul\":6730:6847   */\n      iszero\n      tag_468\n      jumpi\n        /* \"#utility.yul\":6766:6845   */\n      tag_469\n      tag_441\n      jump\t// in\n    tag_469:\n        /* \"#utility.yul\":6730:6847   */\n    tag_468:\n        /* \"#utility.yul\":6879:6944   */\n      tag_470\n        /* \"#utility.yul\":6936:6943   */\n      dup6\n        /* \"#utility.yul\":6927:6933   */\n      dup3\n        /* \"#utility.yul\":6916:6925   */\n      dup7\n        /* \"#utility.yul\":6912:6934   */\n      add\n        /* \"#utility.yul\":6879:6944   */\n      tag_403\n      jump\t// in\n    tag_470:\n        /* \"#utility.yul\":6861:6944   */\n      swap3\n      pop\n      swap3\n      pop\n        /* \"#utility.yul\":6657:6954   */\n      pop\n        /* \"#utility.yul\":6432:6961   */\n      swap3\n      pop\n      swap3\n      swap1\n      pop\n      jump\t// out\n        /* \"#utility.yul\":6967:7296   */\n    tag_46:\n        /* \"#utility.yul\":7026:7032   */\n      0x00\n        /* \"#utility.yul\":7075:7077   */\n      0x20\n        /* \"#utility.yul\":7063:7072   */\n      dup3\n        /* \"#utility.yul\":7054:7061   */\n      dup5\n        /* \"#utility.yul\":7050:7073   */\n      sub\n        /* \"#utility.yul\":7046:7078   */\n      slt\n        /* \"#utility.yul\":7043:7162   */\n      iszero\n      tag_472\n      jumpi\n        /* \"#utility.yul\":7081:7160   */\n      tag_473\n      tag_420\n      jump\t// in\n    tag_473:\n        /* \"#utility.yul\":7043:7162   */\n    tag_472:\n        /* \"#utility.yul\":7201:7202   */\n      0x00\n        /* \"#utility.yul\":7226:7279   */\n      tag_474\n        /* \"#utility.yul\":7271:7278   */\n      dup5\n        /* \"#utility.yul\":7262:7268   */\n      dup3\n        /* \"#utility.yul\":7251:7260   */\n      dup6\n        /* \"#utility.yul\":7247:7269   */\n      add\n        /* \"#utility.yul\":7226:7279   */\n      tag_413\n      jump\t// in\n    tag_474:\n        /* \"#utility.yul\":7216:7279   */\n      swap2\n      pop\n        /* \"#utility.yul\":7172:7289   */\n      pop\n        /* \"#utility.yul\":6967:7296   */\n      swap3\n      swap2\n      pop\n      pop\n      jump\t// out\n        /* \"#utility.yul\":7302:7420   */\n    tag_475:\n        /* \"#utility.yul\":7389:7413   */\n      tag_477\n        /* \"#utility.yul\":7407:7412   */\n      dup2\n        /* \"#utility.yul\":7389:7413   */\n      tag_478\n      jump\t// in\n    tag_477:\n        /* \"#utility.yul\":7384:7387   */\n      dup3\n        /* \"#utility.yul\":7377:7414   */\n      mstore\n        /* \"#utility.yul\":7302:7420   */\n      pop\n      pop\n      jump\t// out\n        /* \"#utility.yul\":7426:7535   */\n    tag_479:\n        /* \"#utility.yul\":7507:7528   */\n      tag_481\n        /* \"#utility.yul\":7522:7527   */\n      dup2\n        /* \"#utility.yul\":7507:7528   */\n      tag_482\n      jump\t// in\n    tag_481:\n        /* \"#utility.yul\":7502:7505   */\n      dup3\n        /* \"#utility.yul\":7495:7529   */\n      mstore\n        /* \"#utility.yul\":7426:7535   */\n      pop\n      pop\n      jump\t// out\n        /* \"#utility.yul\":7541:7901   */\n    tag_483:\n        /* \"#utility.yul\":7627:7630   */\n      0x00\n        /* \"#utility.yul\":7655:7693   */\n      tag_485\n        /* \"#utility.yul\":7687:7692   */\n      dup3\n        /* \"#utility.yul\":7655:7693   */\n      tag_486\n      jump\t// in\n    tag_485:\n        /* \"#utility.yul\":7709:7779   */\n      tag_487\n        /* \"#utility.yul\":7772:7778   */\n      dup2\n        /* \"#utility.yul\":7767:7770   */\n      dup6\n        /* \"#utility.yul\":7709:7779   */\n      tag_488\n      jump\t// in\n    tag_487:\n        /* \"#utility.yul\":7702:7779   */\n      swap4\n      pop\n        /* \"#utility.yul\":7788:7840   */\n      tag_489\n        /* \"#utility.yul\":7833:7839   */\n      dup2\n        /* \"#utility.yul\":7828:7831   */\n      dup6\n        /* \"#utility.yul\":7821:7825   */\n      0x20\n        /* \"#utility.yul\":7814:7819   */\n      dup7\n        /* \"#utility.yul\":7810:7826   */\n      add\n        /* \"#utility.yul\":7788:7840   */\n      tag_490\n      jump\t// in\n    tag_489:\n        /* \"#utility.yul\":7865:7894   */\n      tag_491\n        /* \"#utility.yul\":7887:7893   */\n      dup2\n        /* \"#utility.yul\":7865:7894   */\n      tag_492\n      jump\t// in\n    tag_491:\n        /* \"#utility.yul\":7860:7863   */\n      dup5\n        /* \"#utility.yul\":7856:7895   */\n      add\n        /* \"#utility.yul\":7849:7895   */\n      swap2\n      pop\n        /* \"#utility.yul\":7631:7901   */\n      pop\n        /* \"#utility.yul\":7541:7901   */\n      swap3\n      swap2\n      pop\n      pop\n      jump\t// out\n        /* \"#utility.yul\":7907:8271   */\n    tag_493:\n        /* \"#utility.yul\":7995:7998   */\n      0x00\n        /* \"#utility.yul\":8023:8062   */\n      tag_495\n        /* \"#utility.yul\":8056:8061   */\n      dup3\n        /* \"#utility.yul\":8023:8062   */\n      tag_496\n      jump\t// in\n    tag_495:\n        /* \"#utility.yul\":8078:8149   */\n      tag_497\n        /* \"#utility.yul\":8142:8148   */\n      dup2\n        /* \"#utility.yul\":8137:8140   */\n      dup6\n        /* \"#utility.yul\":8078:8149   */\n      tag_498\n      jump\t// in\n    tag_497:\n        /* \"#utility.yul\":8071:8149   */\n      swap4\n      pop\n        /* \"#utility.yul\":8158:8210   */\n      tag_499\n        /* \"#utility.yul\":8203:8209   */\n      dup2\n        /* \"#utility.yul\":8198:8201   */\n      dup6\n        /* \"#utility.yul\":8191:8195   */\n      0x20\n        /* \"#utility.yul\":8184:8189   */\n      dup7\n        /* \"#utility.yul\":8180:8196   */\n      add\n        /* \"#utility.yul\":8158:8210   */\n      tag_490\n      jump\t// in\n    tag_499:\n        /* \"#utility.yul\":8235:8264   */\n      tag_500\n        /* \"#utility.yul\":8257:8263   */\n      dup2\n        /* \"#utility.yul\":8235:8264   */\n      tag_492\n      jump\t// in\n    tag_500:\n        /* \"#utility.yul\":8230:8233   */\n      dup5\n        /* \"#utility.yul\":8226:8265   */\n      add\n        /* \"#utility.yul\":8219:8265   */\n      swap2\n      pop\n        /* \"#utility.yul\":7999:8271   */\n      pop\n        /* \"#utility.yul\":7907:8271   */\n      swap3\n      swap2\n      pop\n      pop\n      jump\t// out\n        /* \"#utility.yul\":8277:8654   */\n    tag_501:\n        /* \"#utility.yul\":8383:8386   */\n      0x00\n        /* \"#utility.yul\":8411:8450   */\n      tag_503\n        /* \"#utility.yul\":8444:8449   */\n      dup3\n        /* \"#utility.yul\":8411:8450   */\n      tag_496\n      jump\t// in\n    tag_503:\n        /* \"#utility.yul\":8466:8555   */\n      tag_504\n        /* \"#utility.yul\":8548:8554   */\n      dup2\n        /* \"#utility.yul\":8543:8546   */\n      dup6\n        /* \"#utility.yul\":8466:8555   */\n      tag_505\n      jump\t// in\n    tag_504:\n        /* \"#utility.yul\":8459:8555   */\n      swap4\n      pop\n        /* \"#utility.yul\":8564:8616   */\n      tag_506\n        /* \"#utility.yul\":8609:8615   */\n      dup2\n        /* \"#utility.yul\":8604:8607   */\n      dup6\n        /* \"#utility.yul\":8597:8601   */\n      0x20\n        /* \"#utility.yul\":8590:8595   */\n      dup7\n        /* \"#utility.yul\":8586:8602   */\n      add\n        /* \"#utility.yul\":8564:8616   */\n      tag_490\n      jump\t// in\n    tag_506:\n        /* \"#utility.yul\":8641:8647   */\n      dup1\n        /* \"#utility.yul\":8636:8639   */\n      dup5\n        /* \"#utility.yul\":8632:8648   */\n      add\n        /* \"#utility.yul\":8625:8648   */\n      swap2\n      pop\n        /* \"#utility.yul\":8387:8654   */\n      pop\n        /* \"#utility.yul\":8277:8654   */\n      swap3\n      swap2\n      pop\n      pop\n      jump\t// out\n        /* \"#utility.yul\":8660:9026   */\n    tag_507:\n        /* \"#utility.yul\":8802:8805   */\n      0x00\n        /* \"#utility.yul\":8823:8890   */\n      tag_509\n        /* \"#utility.yul\":8887:8889   */\n      0x26\n        /* \"#utility.yul\":8882:8885   */\n      dup4\n        /* \"#utility.yul\":8823:8890   */\n      tag_498\n      jump\t// in\n    tag_509:\n        /* \"#utility.yul\":8816:8890   */\n      swap2\n      pop\n        /* \"#utility.yul\":8899:8992   */\n      tag_510\n        /* \"#utility.yul\":8988:8991   */\n      dup3\n        /* \"#utility.yul\":8899:8992   */\n      tag_511\n      jump\t// in\n    tag_510:\n        /* \"#utility.yul\":9017:9019   */\n      0x40\n        /* \"#utility.yul\":9012:9015   */\n      dup3\n        /* \"#utility.yul\":9008:9020   */\n      add\n        /* \"#utility.yul\":9001:9020   */\n      swap1\n      pop\n        /* \"#utility.yul\":8660:9026   */\n      swap2\n      swap1\n      pop\n      jump\t// out\n        /* \"#utility.yul\":9032:9398   */\n    tag_512:\n        /* \"#utility.yul\":9174:9177   */\n      0x00\n        /* \"#utility.yul\":9195:9262   */\n      tag_514\n        /* \"#utility.yul\":9259:9261   */\n      0x12\n        /* \"#utility.yul\":9254:9257   */\n      dup4\n        /* \"#utility.yul\":9195:9262   */\n      tag_498\n      jump\t// in\n    tag_514:\n        /* \"#utility.yul\":9188:9262   */\n      swap2\n      pop\n        /* \"#utility.yul\":9271:9364   */\n      tag_515\n        /* \"#utility.yul\":9360:9363   */\n      dup3\n        /* \"#utility.yul\":9271:9364   */\n      tag_516\n      jump\t// in\n    tag_515:\n        /* \"#utility.yul\":9389:9391   */\n      0x20\n        /* \"#utility.yul\":9384:9387   */\n      dup3\n        /* \"#utility.yul\":9380:9392   */\n      add\n        /* \"#utility.yul\":9373:9392   */\n      swap1\n      pop\n        /* \"#utility.yul\":9032:9398   */\n      swap2\n      swap1\n      pop\n      jump\t// out\n        /* \"#utility.yul\":9404:9770   */\n    tag_517:\n        /* \"#utility.yul\":9546:9549   */\n      0x00\n        /* \"#utility.yul\":9567:9634   */\n      tag_519\n        /* \"#utility.yul\":9631:9633   */\n      0x10\n        /* \"#utility.yul\":9626:9629   */\n      dup4\n        /* \"#utility.yul\":9567:9634   */\n      tag_498\n      jump\t// in\n    tag_519:\n        /* \"#utility.yul\":9560:9634   */\n      swap2\n      pop\n        /* \"#utility.yul\":9643:9736   */\n      tag_520\n        /* \"#utility.yul\":9732:9735   */\n      dup3\n        /* \"#utility.yul\":9643:9736   */\n      tag_521\n      jump\t// in\n    tag_520:\n        /* \"#utility.yul\":9761:9763   */\n      0x20\n        /* \"#utility.yul\":9756:9759   */\n      dup3\n        /* \"#utility.yul\":9752:9764   */\n      add\n        /* \"#utility.yul\":9745:9764   */\n      swap1\n      pop\n        /* \"#utility.yul\":9404:9770   */\n      swap2\n      swap1\n      pop\n      jump\t// out\n        /* \"#utility.yul\":9776:10142   */\n    tag_522:\n        /* \"#utility.yul\":9918:9921   */\n      0x00\n        /* \"#utility.yul\":9939:10006   */\n      tag_524\n        /* \"#utility.yul\":10003:10005   */\n      0x10\n        /* \"#utility.yul\":9998:10001   */\n      dup4\n        /* \"#utility.yul\":9939:10006   */\n      tag_498\n      jump\t// in\n    tag_524:\n        /* \"#utility.yul\":9932:10006   */\n      swap2\n      pop\n        /* \"#utility.yul\":10015:10108   */\n      tag_525\n        /* \"#utility.yul\":10104:10107   */\n      dup3\n        /* \"#utility.yul\":10015:10108   */\n      tag_526\n      jump\t// in\n    tag_525:\n        /* \"#utility.yul\":10133:10135   */\n      0x20\n        /* \"#utility.yul\":10128:10131   */\n      dup3\n        /* \"#utility.yul\":10124:10136   */\n      add\n        /* \"#utility.yul\":10117:10136   */\n      swap1\n      pop\n        /* \"#utility.yul\":9776:10142   */\n      swap2\n      swap1\n      pop\n      jump\t// out\n        /* \"#utility.yul\":10148:10514   */\n    tag_527:\n        /* \"#utility.yul\":10290:10293   */\n      0x00\n        /* \"#utility.yul\":10311:10378   */\n      tag_529\n        /* \"#utility.yul\":10375:10377   */\n      0x20\n        /* \"#utility.yul\":10370:10373   */\n      dup4\n        /* \"#utility.yul\":10311:10378   */\n      tag_498\n      jump\t// in\n    tag_529:\n        /* \"#utility.yul\":10304:10378   */\n      swap2\n      pop\n        /* \"#utility.yul\":10387:10480   */\n      tag_530\n        /* \"#utility.yul\":10476:10479   */\n      dup3\n        /* \"#utility.yul\":10387:10480   */\n      tag_531\n      jump\t// in\n    tag_530:\n        /* \"#utility.yul\":10505:10507   */\n      0x20\n        /* \"#utility.yul\":10500:10503   */\n      dup3\n        /* \"#utility.yul\":10496:10508   */\n      add\n        /* \"#utility.yul\":10489:10508   */\n      swap1\n      pop\n        /* \"#utility.yul\":10148:10514   */\n      swap2\n      swap1\n      pop\n      jump\t// out\n        /* \"#utility.yul\":10520:10886   */\n    tag_532:\n        /* \"#utility.yul\":10662:10665   */\n      0x00\n        /* \"#utility.yul\":10683:10750   */\n      tag_534\n        /* \"#utility.yul\":10747:10749   */\n      0x0e\n        /* \"#utility.yul\":10742:10745   */\n      dup4\n        /* \"#utility.yul\":10683:10750   */\n      tag_498\n      jump\t// in\n    tag_534:\n        /* \"#utility.yul\":10676:10750   */\n      swap2\n      pop\n        /* \"#utility.yul\":10759:10852   */\n      tag_535\n        /* \"#utility.yul\":10848:10851   */\n      dup3\n        /* \"#utility.yul\":10759:10852   */\n      tag_536\n      jump\t// in\n    tag_535:\n        /* \"#utility.yul\":10877:10879   */\n      0x20\n        /* \"#utility.yul\":10872:10875   */\n      dup3\n        /* \"#utility.yul\":10868:10880   */\n      add\n        /* \"#utility.yul\":10861:10880   */\n      swap1\n      pop\n        /* \"#utility.yul\":10520:10886   */\n      swap2\n      swap1\n      pop\n      jump\t// out\n        /* \"#utility.yul\":10892:11258   */\n    tag_537:\n        /* \"#utility.yul\":11034:11037   */\n      0x00\n        /* \"#utility.yul\":11055:11122   */\n      tag_539\n        /* \"#utility.yul\":11119:11121   */\n      0x0f\n        /* \"#utility.yul\":11114:11117   */\n      dup4\n        /* \"#utility.yul\":11055:11122   */\n      tag_498\n      jump\t// in\n    tag_539:\n        /* \"#utility.yul\":11048:11122   */\n      swap2\n      pop\n        /* \"#utility.yul\":11131:11224   */\n      tag_540\n        /* \"#utility.yul\":11220:11223   */\n      dup3\n        /* \"#utility.yul\":11131:11224   */\n      tag_541\n      jump\t// in\n    tag_540:\n        /* \"#utility.yul\":11249:11251   */\n      0x20\n        /* \"#utility.yul\":11244:11247   */\n      dup3\n        /* \"#utility.yul\":11240:11252   */\n      add\n        /* \"#utility.yul\":11233:11252   */\n      swap1\n      pop\n        /* \"#utility.yul\":10892:11258   */\n      swap2\n      swap1\n      pop\n      jump\t// out\n        /* \"#utility.yul\":11264:11662   */\n    tag_542:\n        /* \"#utility.yul\":11423:11426   */\n      0x00\n        /* \"#utility.yul\":11444:11527   */\n      tag_544\n        /* \"#utility.yul\":11525:11526   */\n      0x00\n        /* \"#utility.yul\":11520:11523   */\n      dup4\n        /* \"#utility.yul\":11444:11527   */\n      tag_545\n      jump\t// in\n    tag_544:\n        /* \"#utility.yul\":11437:11527   */\n      swap2\n      pop\n        /* \"#utility.yul\":11536:11629   */\n      tag_546\n        /* \"#utility.yul\":11625:11628   */\n      dup3\n        /* \"#utility.yul\":11536:11629   */\n      tag_547\n      jump\t// in\n    tag_546:\n        /* \"#utility.yul\":11654:11655   */\n      0x00\n        /* \"#utility.yul\":11649:11652   */\n      dup3\n        /* \"#utility.yul\":11645:11656   */\n      add\n        /* \"#utility.yul\":11638:11656   */\n      swap1\n      pop\n        /* \"#utility.yul\":11264:11662   */\n      swap2\n      swap1\n      pop\n      jump\t// out\n        /* \"#utility.yul\":11668:12034   */\n    tag_548:\n        /* \"#utility.yul\":11810:11813   */\n      0x00\n        /* \"#utility.yul\":11831:11898   */\n      tag_550\n        /* \"#utility.yul\":11895:11897   */\n      0x0e\n        /* \"#utility.yul\":11890:11893   */\n      dup4\n        /* \"#utility.yul\":11831:11898   */\n      tag_498\n      jump\t// in\n    tag_550:\n        /* \"#utility.yul\":11824:11898   */\n      swap2\n      pop\n        /* \"#utility.yul\":11907:12000   */\n      tag_551\n        /* \"#utility.yul\":11996:11999   */\n      dup3\n        /* \"#utility.yul\":11907:12000   */\n      tag_552\n      jump\t// in\n    tag_551:\n        /* \"#utility.yul\":12025:12027   */\n      0x20\n        /* \"#utility.yul\":12020:12023   */\n      dup3\n        /* \"#utility.yul\":12016:12028   */\n      add\n        /* \"#utility.yul\":12009:12028   */\n      swap1\n      pop\n        /* \"#utility.yul\":11668:12034   */\n      swap2\n      swap1\n      pop\n      jump\t// out\n        /* \"#utility.yul\":12040:12158   */\n    tag_553:\n        /* \"#utility.yul\":12127:12151   */\n      tag_555\n        /* \"#utility.yul\":12145:12150   */\n      dup2\n        /* \"#utility.yul\":12127:12151   */\n      tag_556\n      jump\t// in\n    tag_555:\n        /* \"#utility.yul\":12122:12125   */\n      dup3\n        /* \"#utility.yul\":12115:12152   */\n      mstore\n        /* \"#utility.yul\":12040:12158   */\n      pop\n      pop\n      jump\t// out\n        /* \"#utility.yul\":12164:12599   */\n    tag_271:\n        /* \"#utility.yul\":12344:12347   */\n      0x00\n        /* \"#utility.yul\":12366:12461   */\n      tag_558\n        /* \"#utility.yul\":12457:12460   */\n      dup3\n        /* \"#utility.yul\":12448:12454   */\n      dup6\n        /* \"#utility.yul\":12366:12461   */\n      tag_501\n      jump\t// in\n    tag_558:\n        /* \"#utility.yul\":12359:12461   */\n      swap2\n      pop\n        /* \"#utility.yul\":12478:12573   */\n      tag_559\n        /* \"#utility.yul\":12569:12572   */\n      dup3\n        /* \"#utility.yul\":12560:12566   */\n      dup5\n        /* \"#utility.yul\":12478:12573   */\n      tag_501\n      jump\t// in\n    tag_559:\n        /* \"#utility.yul\":12471:12573   */\n      swap2\n      pop\n        /* \"#utility.yul\":12590:12593   */\n      dup2\n        /* \"#utility.yul\":12583:12593   */\n      swap1\n      pop\n        /* \"#utility.yul\":12164:12599   */\n      swap4\n      swap3\n      pop\n      pop\n      pop\n      jump\t// out\n        /* \"#utility.yul\":12605:12984   */\n    tag_200:\n        /* \"#utility.yul\":12789:12792   */\n      0x00\n        /* \"#utility.yul\":12811:12958   */\n      tag_561\n        /* \"#utility.yul\":12954:12957   */\n      dup3\n        /* \"#utility.yul\":12811:12958   */\n      tag_542\n      jump\t// in\n    tag_561:\n        /* \"#utility.yul\":12804:12958   */\n      swap2\n      pop\n        /* \"#utility.yul\":12975:12978   */\n      dup2\n        /* \"#utility.yul\":12968:12978   */\n      swap1\n      pop\n        /* \"#utility.yul\":12605:12984   */\n      swap2\n      swap1\n      pop\n      jump\t// out\n        /* \"#utility.yul\":12990:13212   */\n    tag_49:\n        /* \"#utility.yul\":13083:13087   */\n      0x00\n        /* \"#utility.yul\":13121:13123   */\n      0x20\n        /* \"#utility.yul\":13110:13119   */\n      dup3\n        /* \"#utility.yul\":13106:13124   */\n      add\n        /* \"#utility.yul\":13098:13124   */\n      swap1\n      pop\n        /* \"#utility.yul\":13134:13205   */\n      tag_563\n        /* \"#utility.yul\":13202:13203   */\n      0x00\n        /* \"#utility.yul\":13191:13200   */\n      dup4\n        /* \"#utility.yul\":13187:13204   */\n      add\n        /* \"#utility.yul\":13178:13184   */\n      dup5\n        /* \"#utility.yul\":13134:13205   */\n      tag_475\n      jump\t// in\n    tag_563:\n        /* \"#utility.yul\":12990:13212   */\n      swap3\n      swap2\n      pop\n      pop\n      jump\t// out\n        /* \"#utility.yul\":13218:13858   */\n    tag_332:\n        /* \"#utility.yul\":13413:13417   */\n      0x00\n        /* \"#utility.yul\":13451:13454   */\n      0x80\n        /* \"#utility.yul\":13440:13449   */\n      dup3\n        /* \"#utility.yul\":13436:13455   */\n      add\n        /* \"#utility.yul\":13428:13455   */\n      swap1\n      pop\n        /* \"#utility.yul\":13465:13536   */\n      tag_565\n        /* \"#utility.yul\":13533:13534   */\n      0x00\n        /* \"#utility.yul\":13522:13531   */\n      dup4\n        /* \"#utility.yul\":13518:13535   */\n      add\n        /* \"#utility.yul\":13509:13515   */\n      dup8\n        /* \"#utility.yul\":13465:13536   */\n      tag_475\n      jump\t// in\n    tag_565:\n        /* \"#utility.yul\":13546:13618   */\n      tag_566\n        /* \"#utility.yul\":13614:13616   */\n      0x20\n        /* \"#utility.yul\":13603:13612   */\n      dup4\n        /* \"#utility.yul\":13599:13617   */\n      add\n        /* \"#utility.yul\":13590:13596   */\n      dup7\n        /* \"#utility.yul\":13546:13618   */\n      tag_475\n      jump\t// in\n    tag_566:\n        /* \"#utility.yul\":13628:13700   */\n      tag_567\n        /* \"#utility.yul\":13696:13698   */\n      0x40\n        /* \"#utility.yul\":13685:13694   */\n      dup4\n        /* \"#utility.yul\":13681:13699   */\n      add\n        /* \"#utility.yul\":13672:13678   */\n      dup6\n        /* \"#utility.yul\":13628:13700   */\n      tag_553\n      jump\t// in\n    tag_567:\n        /* \"#utility.yul\":13747:13756   */\n      dup2\n        /* \"#utility.yul\":13741:13745   */\n      dup2\n        /* \"#utility.yul\":13737:13757   */\n      sub\n        /* \"#utility.yul\":13732:13734   */\n      0x60\n        /* \"#utility.yul\":13721:13730   */\n      dup4\n        /* \"#utility.yul\":13717:13735   */\n      add\n        /* \"#utility.yul\":13710:13758   */\n      mstore\n        /* \"#utility.yul\":13775:13851   */\n      tag_568\n        /* \"#utility.yul\":13846:13850   */\n      dup2\n        /* \"#utility.yul\":13837:13843   */\n      dup5\n        /* \"#utility.yul\":13775:13851   */\n      tag_483\n      jump\t// in\n    tag_568:\n        /* \"#utility.yul\":13767:13851   */\n      swap1\n      pop\n        /* \"#utility.yul\":13218:13858   */\n      swap6\n      swap5\n      pop\n      pop\n      pop\n      pop\n      pop\n      jump\t// out\n        /* \"#utility.yul\":13864:14074   */\n    tag_37:\n        /* \"#utility.yul\":13951:13955   */\n      0x00\n        /* \"#utility.yul\":13989:13991   */\n      0x20\n        /* \"#utility.yul\":13978:13987   */\n      dup3\n        /* \"#utility.yul\":13974:13992   */\n      add\n        /* \"#utility.yul\":13966:13992   */\n      swap1\n      pop\n        /* \"#utility.yul\":14002:14067   */\n      tag_570\n        /* \"#utility.yul\":14064:14065   */\n      0x00\n        /* \"#utility.yul\":14053:14062   */\n      dup4\n        /* \"#utility.yul\":14049:14066   */\n      add\n        /* \"#utility.yul\":14040:14046   */\n      dup5\n        /* \"#utility.yul\":14002:14067   */\n      tag_479\n      jump\t// in\n    tag_570:\n        /* \"#utility.yul\":13864:14074   */\n      swap3\n      swap2\n      pop\n      pop\n      jump\t// out\n        /* \"#utility.yul\":14080:14393   */\n    tag_42:\n        /* \"#utility.yul\":14193:14197   */\n      0x00\n        /* \"#utility.yul\":14231:14233   */\n      0x20\n        /* \"#utility.yul\":14220:14229   */\n      dup3\n        /* \"#utility.yul\":14216:14234   */\n      add\n        /* \"#utility.yul\":14208:14234   */\n      swap1\n      pop\n        /* \"#utility.yul\":14280:14289   */\n      dup2\n        /* \"#utility.yul\":14274:14278   */\n      dup2\n        /* \"#utility.yul\":14270:14290   */\n      sub\n        /* \"#utility.yul\":14266:14267   */\n      0x00\n        /* \"#utility.yul\":14255:14264   */\n      dup4\n        /* \"#utility.yul\":14251:14268   */\n      add\n        /* \"#utility.yul\":14244:14291   */\n      mstore\n        /* \"#utility.yul\":14308:14386   */\n      tag_572\n        /* \"#utility.yul\":14381:14385   */\n      dup2\n        /* \"#utility.yul\":14372:14378   */\n      dup5\n        /* \"#utility.yul\":14308:14386   */\n      tag_493\n      jump\t// in\n    tag_572:\n        /* \"#utility.yul\":14300:14386   */\n      swap1\n      pop\n        /* \"#utility.yul\":14080:14393   */\n      swap3\n      swap2\n      pop\n      pop\n      jump\t// out\n        /* \"#utility.yul\":14399:14818   */\n    tag_278:\n        /* \"#utility.yul\":14565:14569   */\n      0x00\n        /* \"#utility.yul\":14603:14605   */\n      0x20\n        /* \"#utility.yul\":14592:14601   */\n      dup3\n        /* \"#utility.yul\":14588:14606   */\n      add\n        /* \"#utility.yul\":14580:14606   */\n      swap1\n      pop\n        /* \"#utility.yul\":14652:14661   */\n      dup2\n        /* \"#utility.yul\":14646:14650   */\n      dup2\n        /* \"#utility.yul\":14642:14662   */\n      sub\n        /* \"#utility.yul\":14638:14639   */\n      0x00\n        /* \"#utility.yul\":14627:14636   */\n      dup4\n        /* \"#utility.yul\":14623:14640   */\n      add\n        /* \"#utility.yul\":14616:14663   */\n      mstore\n        /* \"#utility.yul\":14680:14811   */\n      tag_574\n        /* \"#utility.yul\":14806:14810   */\n      dup2\n        /* \"#utility.yul\":14680:14811   */\n      tag_507\n      jump\t// in\n    tag_574:\n        /* \"#utility.yul\":14672:14811   */\n      swap1\n      pop\n        /* \"#utility.yul\":14399:14818   */\n      swap2\n      swap1\n      pop\n      jump\t// out\n        /* \"#utility.yul\":14824:15243   */\n    tag_225:\n        /* \"#utility.yul\":14990:14994   */\n      0x00\n        /* \"#utility.yul\":15028:15030   */\n      0x20\n        /* \"#utility.yul\":15017:15026   */\n      dup3\n        /* \"#utility.yul\":15013:15031   */\n      add\n        /* \"#utility.yul\":15005:15031   */\n      swap1\n      pop\n        /* \"#utility.yul\":15077:15086   */\n      dup2\n        /* \"#utility.yul\":15071:15075   */\n      dup2\n        /* \"#utility.yul\":15067:15087   */\n      sub\n        /* \"#utility.yul\":15063:15064   */\n      0x00\n        /* \"#utility.yul\":15052:15061   */\n      dup4\n        /* \"#utility.yul\":15048:15065   */\n      add\n        /* \"#utility.yul\":15041:15088   */\n      mstore\n        /* \"#utility.yul\":15105:15236   */\n      tag_576\n        /* \"#utility.yul\":15231:15235   */\n      dup2\n        /* \"#utility.yul\":15105:15236   */\n      tag_512\n      jump\t// in\n    tag_576:\n        /* \"#utility.yul\":15097:15236   */\n      swap1\n      pop\n        /* \"#utility.yul\":14824:15243   */\n      swap2\n      swap1\n      pop\n      jump\t// out\n        /* \"#utility.yul\":15249:15668   */\n    tag_285:\n        /* \"#utility.yul\":15415:15419   */\n      0x00\n        /* \"#utility.yul\":15453:15455   */\n      0x20\n        /* \"#utility.yul\":15442:15451   */\n      dup3\n        /* \"#utility.yul\":15438:15456   */\n      add\n        /* \"#utility.yul\":15430:15456   */\n      swap1\n      pop\n        /* \"#utility.yul\":15502:15511   */\n      dup2\n        /* \"#utility.yul\":15496:15500   */\n      dup2\n        /* \"#utility.yul\":15492:15512   */\n      sub\n        /* \"#utility.yul\":15488:15489   */\n      0x00\n        /* \"#utility.yul\":15477:15486   */\n      dup4\n        /* \"#utility.yul\":15473:15490   */\n      add\n        /* \"#utility.yul\":15466:15513   */\n      mstore\n        /* \"#utility.yul\":15530:15661   */\n      tag_578\n        /* \"#utility.yul\":15656:15660   */\n      dup2\n        /* \"#utility.yul\":15530:15661   */\n      tag_517\n      jump\t// in\n    tag_578:\n        /* \"#utility.yul\":15522:15661   */\n      swap1\n      pop\n        /* \"#utility.yul\":15249:15668   */\n      swap2\n      swap1\n      pop\n      jump\t// out\n        /* \"#utility.yul\":15674:16093   */\n    tag_213:\n        /* \"#utility.yul\":15840:15844   */\n      0x00\n        /* \"#utility.yul\":15878:15880   */\n      0x20\n        /* \"#utility.yul\":15867:15876   */\n      dup3\n        /* \"#utility.yul\":15863:15881   */\n      add\n        /* \"#utility.yul\":15855:15881   */\n      swap1\n      pop\n        /* \"#utility.yul\":15927:15936   */\n      dup2\n        /* \"#utility.yul\":15921:15925   */\n      dup2\n        /* \"#utility.yul\":15917:15937   */\n      sub\n        /* \"#utility.yul\":15913:15914   */\n      0x00\n        /* \"#utility.yul\":15902:15911   */\n      dup4\n        /* \"#utility.yul\":15898:15915   */\n      add\n        /* \"#utility.yul\":15891:15938   */\n      mstore\n        /* \"#utility.yul\":15955:16086   */\n      tag_580\n        /* \"#utility.yul\":16081:16085   */\n      dup2\n        /* \"#utility.yul\":15955:16086   */\n      tag_522\n      jump\t// in\n    tag_580:\n        /* \"#utility.yul\":15947:16086   */\n      swap1\n      pop\n        /* \"#utility.yul\":15674:16093   */\n      swap2\n      swap1\n      pop\n      jump\t// out\n        /* \"#utility.yul\":16099:16518   */\n    tag_313:\n        /* \"#utility.yul\":16265:16269   */\n      0x00\n        /* \"#utility.yul\":16303:16305   */\n      0x20\n        /* \"#utility.yul\":16292:16301   */\n      dup3\n        /* \"#utility.yul\":16288:16306   */\n      add\n        /* \"#utility.yul\":16280:16306   */\n      swap1\n      pop\n        /* \"#utility.yul\":16352:16361   */\n      dup2\n        /* \"#utility.yul\":16346:16350   */\n      dup2\n        /* \"#utility.yul\":16342:16362   */\n      sub\n        /* \"#utility.yul\":16338:16339   */\n      0x00\n        /* \"#utility.yul\":16327:16336   */\n      dup4\n        /* \"#utility.yul\":16323:16340   */\n      add\n        /* \"#utility.yul\":16316:16363   */\n      mstore\n        /* \"#utility.yul\":16380:16511   */\n      tag_582\n        /* \"#utility.yul\":16506:16510   */\n      dup2\n        /* \"#utility.yul\":16380:16511   */\n      tag_527\n      jump\t// in\n    tag_582:\n        /* \"#utility.yul\":16372:16511   */\n      swap1\n      pop\n        /* \"#utility.yul\":16099:16518   */\n      swap2\n      swap1\n      pop\n      jump\t// out\n        /* \"#utility.yul\":16524:16943   */\n    tag_220:\n        /* \"#utility.yul\":16690:16694   */\n      0x00\n        /* \"#utility.yul\":16728:16730   */\n      0x20\n        /* \"#utility.yul\":16717:16726   */\n      dup3\n        /* \"#utility.yul\":16713:16731   */\n      add\n        /* \"#utility.yul\":16705:16731   */\n      swap1\n      pop\n        /* \"#utility.yul\":16777:16786   */\n      dup2\n        /* \"#utility.yul\":16771:16775   */\n      dup2\n        /* \"#utility.yul\":16767:16787   */\n      sub\n        /* \"#utility.yul\":16763:16764   */\n      0x00\n        /* \"#utility.yul\":16752:16761   */\n      dup4\n        /* \"#utility.yul\":16748:16765   */\n      add\n        /* \"#utility.yul\":16741:16788   */\n      mstore\n        /* \"#utility.yul\":16805:16936   */\n      tag_584\n        /* \"#utility.yul\":16931:16935   */\n      dup2\n        /* \"#utility.yul\":16805:16936   */\n      tag_532\n      jump\t// in\n    tag_584:\n        /* \"#utility.yul\":16797:16936   */\n      swap1\n      pop\n        /* \"#utility.yul\":16524:16943   */\n      swap2\n      swap1\n      pop\n      jump\t// out\n        /* \"#utility.yul\":16949:17368   */\n    tag_206:\n        /* \"#utility.yul\":17115:17119   */\n      0x00\n        /* \"#utility.yul\":17153:17155   */\n      0x20\n        /* \"#utility.yul\":17142:17151   */\n      dup3\n        /* \"#utility.yul\":17138:17156   */\n      add\n        /* \"#utility.yul\":17130:17156   */\n      swap1\n      pop\n        /* \"#utility.yul\":17202:17211   */\n      dup2\n        /* \"#utility.yul\":17196:17200   */\n      dup2\n        /* \"#utility.yul\":17192:17212   */\n      sub\n        /* \"#utility.yul\":17188:17189   */\n      0x00\n        /* \"#utility.yul\":17177:17186   */\n      dup4\n        /* \"#utility.yul\":17173:17190   */\n      add\n        /* \"#utility.yul\":17166:17213   */\n      mstore\n        /* \"#utility.yul\":17230:17361   */\n      tag_586\n        /* \"#utility.yul\":17356:17360   */\n      dup2\n        /* \"#utility.yul\":17230:17361   */\n      tag_537\n      jump\t// in\n    tag_586:\n        /* \"#utility.yul\":17222:17361   */\n      swap1\n      pop\n        /* \"#utility.yul\":16949:17368   */\n      swap2\n      swap1\n      pop\n      jump\t// out\n        /* \"#utility.yul\":17374:17793   */\n    tag_210:\n        /* \"#utility.yul\":17540:17544   */\n      0x00\n        /* \"#utility.yul\":17578:17580   */\n      0x20\n        /* \"#utility.yul\":17567:17576   */\n      dup3\n        /* \"#utility.yul\":17563:17581   */\n      add\n        /* \"#utility.yul\":17555:17581   */\n      swap1\n      pop\n        /* \"#utility.yul\":17627:17636   */\n      dup2\n        /* \"#utility.yul\":17621:17625   */\n      dup2\n        /* \"#utility.yul\":17617:17637   */\n      sub\n        /* \"#utility.yul\":17613:17614   */\n      0x00\n        /* \"#utility.yul\":17602:17611   */\n      dup4\n        /* \"#utility.yul\":17598:17615   */\n      add\n        /* \"#utility.yul\":17591:17638   */\n      mstore\n        /* \"#utility.yul\":17655:17786   */\n      tag_588\n        /* \"#utility.yul\":17781:17785   */\n      dup2\n        /* \"#utility.yul\":17655:17786   */\n      tag_548\n      jump\t// in\n    tag_588:\n        /* \"#utility.yul\":17647:17786   */\n      swap1\n      pop\n        /* \"#utility.yul\":17374:17793   */\n      swap2\n      swap1\n      pop\n      jump\t// out\n        /* \"#utility.yul\":17799:18021   */\n    tag_58:\n        /* \"#utility.yul\":17892:17896   */\n      0x00\n        /* \"#utility.yul\":17930:17932   */\n      0x20\n        /* \"#utility.yul\":17919:17928   */\n      dup3\n        /* \"#utility.yul\":17915:17933   */\n      add\n        /* \"#utility.yul\":17907:17933   */\n      swap1\n      pop\n        /* \"#utility.yul\":17943:18014   */\n      tag_590\n        /* \"#utility.yul\":18011:18012   */\n      0x00\n        /* \"#utility.yul\":18000:18009   */\n      dup4\n        /* \"#utility.yul\":17996:18013   */\n      add\n        /* \"#utility.yul\":17987:17993   */\n      dup5\n        /* \"#utility.yul\":17943:18014   */\n      tag_553\n      jump\t// in\n    tag_590:\n        /* \"#utility.yul\":17799:18021   */\n      swap3\n      swap2\n      pop\n      pop\n      jump\t// out\n        /* \"#utility.yul\":18027:18156   */\n    tag_376:\n        /* \"#utility.yul\":18061:18067   */\n      0x00\n        /* \"#utility.yul\":18088:18108   */\n      tag_592\n      tag_593\n      jump\t// in\n    tag_592:\n        /* \"#utility.yul\":18078:18108   */\n      swap1\n      pop\n        /* \"#utility.yul\":18117:18150   */\n      tag_594\n        /* \"#utility.yul\":18145:18149   */\n      dup3\n        /* \"#utility.yul\":18137:18143   */\n      dup3\n        /* \"#utility.yul\":18117:18150   */\n      tag_595\n      jump\t// in\n    tag_594:\n        /* \"#utility.yul\":18027:18156   */\n      swap2\n      swap1\n      pop\n      jump\t// out\n        /* \"#utility.yul\":18162:18237   */\n    tag_593:\n        /* \"#utility.yul\":18195:18201   */\n      0x00\n        /* \"#utility.yul\":18228:18230   */\n      0x40\n        /* \"#utility.yul\":18222:18231   */\n      mload\n        /* \"#utility.yul\":18212:18231   */\n      swap1\n      pop\n        /* \"#utility.yul\":18162:18237   */\n      swap1\n      jump\t// out\n        /* \"#utility.yul\":18243:18550   */\n    tag_375:\n        /* \"#utility.yul\":18304:18308   */\n      0x00\n        /* \"#utility.yul\":18394:18412   */\n      0xffffffffffffffff\n        /* \"#utility.yul\":18386:18392   */\n      dup3\n        /* \"#utility.yul\":18383:18413   */\n      gt\n        /* \"#utility.yul\":18380:18436   */\n      iszero\n      tag_598\n      jumpi\n        /* \"#utility.yul\":18416:18434   */\n      tag_599\n      tag_600\n      jump\t// in\n    tag_599:\n        /* \"#utility.yul\":18380:18436   */\n    tag_598:\n        /* \"#utility.yul\":18454:18483   */\n      tag_601\n        /* \"#utility.yul\":18476:18482   */\n      dup3\n        /* \"#utility.yul\":18454:18483   */\n      tag_492\n      jump\t// in\n    tag_601:\n        /* \"#utility.yul\":18446:18483   */\n      swap1\n      pop\n        /* \"#utility.yul\":18538:18542   */\n      0x20\n        /* \"#utility.yul\":18532:18536   */\n      dup2\n        /* \"#utility.yul\":18528:18543   */\n      add\n        /* \"#utility.yul\":18520:18543   */\n      swap1\n      pop\n        /* \"#utility.yul\":18243:18550   */\n      swap2\n      swap1\n      pop\n      jump\t// out\n        /* \"#utility.yul\":18556:18654   */\n    tag_486:\n        /* \"#utility.yul\":18607:18613   */\n      0x00\n        /* \"#utility.yul\":18641:18646   */\n      dup2\n        /* \"#utility.yul\":18635:18647   */\n      mload\n        /* \"#utility.yul\":18625:18647   */\n      swap1\n      pop\n        /* \"#utility.yul\":18556:18654   */\n      swap2\n      swap1\n      pop\n      jump\t// out\n        /* \"#utility.yul\":18660:18759   */\n    tag_496:\n        /* \"#utility.yul\":18712:18718   */\n      0x00\n        /* \"#utility.yul\":18746:18751   */\n      dup2\n        /* \"#utility.yul\":18740:18752   */\n      mload\n        /* \"#utility.yul\":18730:18752   */\n      swap1\n      pop\n        /* \"#utility.yul\":18660:18759   */\n      swap2\n      swap1\n      pop\n      jump\t// out\n        /* \"#utility.yul\":18765:18933   */\n    tag_488:\n        /* \"#utility.yul\":18848:18859   */\n      0x00\n        /* \"#utility.yul\":18882:18888   */\n      dup3\n        /* \"#utility.yul\":18877:18880   */\n      dup3\n        /* \"#utility.yul\":18870:18889   */\n      mstore\n        /* \"#utility.yul\":18922:18926   */\n      0x20\n        /* \"#utility.yul\":18917:18920   */\n      dup3\n        /* \"#utility.yul\":18913:18927   */\n      add\n        /* \"#utility.yul\":18898:18927   */\n      swap1\n      pop\n        /* \"#utility.yul\":18765:18933   */\n      swap3\n      swap2\n      pop\n      pop\n      jump\t// out\n        /* \"#utility.yul\":18939:19086   */\n    tag_545:\n        /* \"#utility.yul\":19040:19051   */\n      0x00\n        /* \"#utility.yul\":19077:19080   */\n      dup2\n        /* \"#utility.yul\":19062:19080   */\n      swap1\n      pop\n        /* \"#utility.yul\":18939:19086   */\n      swap3\n      swap2\n      pop\n      pop\n      jump\t// out\n        /* \"#utility.yul\":19092:19261   */\n    tag_498:\n        /* \"#utility.yul\":19176:19187   */\n      0x00\n        /* \"#utility.yul\":19210:19216   */\n      dup3\n        /* \"#utility.yul\":19205:19208   */\n      dup3\n        /* \"#utility.yul\":19198:19217   */\n      mstore\n        /* \"#utility.yul\":19250:19254   */\n      0x20\n        /* \"#utility.yul\":19245:19248   */\n      dup3\n        /* \"#utility.yul\":19241:19255   */\n      add\n        /* \"#utility.yul\":19226:19255   */\n      swap1\n      pop\n        /* \"#utility.yul\":19092:19261   */\n      swap3\n      swap2\n      pop\n      pop\n      jump\t// out\n        /* \"#utility.yul\":19267:19415   */\n    tag_505:\n        /* \"#utility.yul\":19369:19380   */\n      0x00\n        /* \"#utility.yul\":19406:19409   */\n      dup2\n        /* \"#utility.yul\":19391:19409   */\n      swap1\n      pop\n        /* \"#utility.yul\":19267:19415   */\n      swap3\n      swap2\n      pop\n      pop\n      jump\t// out\n        /* \"#utility.yul\":19421:19726   */\n    tag_217:\n        /* \"#utility.yul\":19461:19464   */\n      0x00\n        /* \"#utility.yul\":19480:19500   */\n      tag_609\n        /* \"#utility.yul\":19498:19499   */\n      dup3\n        /* \"#utility.yul\":19480:19500   */\n      tag_556\n      jump\t// in\n    tag_609:\n        /* \"#utility.yul\":19475:19500   */\n      swap2\n      pop\n        /* \"#utility.yul\":19514:19534   */\n      tag_610\n        /* \"#utility.yul\":19532:19533   */\n      dup4\n        /* \"#utility.yul\":19514:19534   */\n      tag_556\n      jump\t// in\n    tag_610:\n        /* \"#utility.yul\":19509:19534   */\n      swap3\n      pop\n        /* \"#utility.yul\":19668:19669   */\n      dup3\n        /* \"#utility.yul\":19600:19666   */\n      0xffffffffffffffffffffffffffffffffffffffffffffffffffffffffffffffff\n        /* \"#utility.yul\":19596:19670   */\n      sub\n        /* \"#utility.yul\":19593:19594   */\n      dup3\n        /* \"#utility.yul\":19590:19671   */\n      gt\n        /* \"#utility.yul\":19587:19694   */\n      iszero\n      tag_611\n      jumpi\n        /* \"#utility.yul\":19674:19692   */\n      tag_612\n      tag_613\n      jump\t// in\n    tag_612:\n        /* \"#utility.yul\":19587:19694   */\n    tag_611:\n        /* \"#utility.yul\":19718:19719   */\n      dup3\n        /* \"#utility.yul\":19715:19716   */\n      dup3\n        /* \"#utility.yul\":19711:19720   */\n      add\n        /* \"#utility.yul\":19704:19720   */\n      swap1\n      pop\n        /* \"#utility.yul\":19421:19726   */\n      swap3\n      swap2\n      pop\n      pop\n      jump\t// out\n        /* \"#utility.yul\":19732:20080   */\n    tag_222:\n        /* \"#utility.yul\":19772:19779   */\n      0x00\n        /* \"#utility.yul\":19795:19815   */\n      tag_615\n        /* \"#utility.yul\":19813:19814   */\n      dup3\n        /* \"#utility.yul\":19795:19815   */\n      tag_556\n      jump\t// in\n    tag_615:\n        /* \"#utility.yul\":19790:19815   */\n      swap2\n      pop\n        /* \"#utility.yul\":19829:19849   */\n      tag_616\n        /* \"#utility.yul\":19847:19848   */\n      dup4\n        /* \"#utility.yul\":19829:19849   */\n      tag_556\n      jump\t// in\n    tag_616:\n        /* \"#utility.yul\":19824:19849   */\n      swap3\n      pop\n        /* \"#utility.yul\":20017:20018   */\n      dup2\n        /* \"#utility.yul\":19949:20015   */\n      0xffffffffffffffffffffffffffffffffffffffffffffffffffffffffffffffff\n        /* \"#utility.yul\":19945:20019   */\n      div\n        /* \"#utility.yul\":19942:19943   */\n      dup4\n        /* \"#utility.yul\":19939:20020   */\n      gt\n        /* \"#utility.yul\":19934:19935   */\n      dup3\n        /* \"#utility.yul\":19927:19936   */\n      iszero\n        /* \"#utility.yul\":19920:19937   */\n      iszero\n        /* \"#utility.yul\":19916:20021   */\n      and\n        /* \"#utility.yul\":19913:20044   */\n      iszero\n      tag_617\n      jumpi\n        /* \"#utility.yul\":20024:20042   */\n      tag_618\n      tag_613\n      jump\t// in\n    tag_618:\n        /* \"#utility.yul\":19913:20044   */\n    tag_617:\n        /* \"#utility.yul\":20072:20073   */\n      dup3\n        /* \"#utility.yul\":20069:20070   */\n      dup3\n        /* \"#utility.yul\":20065:20074   */\n      mul\n        /* \"#utility.yul\":20054:20074   */\n      swap1\n      pop\n        /* \"#utility.yul\":19732:20080   */\n      swap3\n      swap2\n      pop\n      pop\n      jump\t// out\n        /* \"#utility.yul\":20086:20182   */\n    tag_478:\n        /* \"#utility.yul\":20123:20130   */\n      0x00\n        /* \"#utility.yul\":20152:20176   */\n      tag_620\n        /* \"#utility.yul\":20170:20175   */\n      dup3\n        /* \"#utility.yul\":20152:20176   */\n      tag_621\n      jump\t// in\n    tag_620:\n        /* \"#utility.yul\":20141:20176   */\n      swap1\n      pop\n        /* \"#utility.yul\":20086:20182   */\n      swap2\n      swap1\n      pop\n      jump\t// out\n        /* \"#utility.yul\":20188:20278   */\n    tag_482:\n        /* \"#utility.yul\":20222:20229   */\n      0x00\n        /* \"#utility.yul\":20265:20270   */\n      dup2\n        /* \"#utility.yul\":20258:20271   */\n      iszero\n        /* \"#utility.yul\":20251:20272   */\n      iszero\n        /* \"#utility.yul\":20240:20272   */\n      swap1\n      pop\n        /* \"#utility.yul\":20188:20278   */\n      swap2\n      swap1\n      pop\n      jump\t// out\n        /* \"#utility.yul\":20284:20433   */\n    tag_623:\n        /* \"#utility.yul\":20320:20327   */\n      0x00\n        /* \"#utility.yul\":20360:20426   */\n      0xffffffff00000000000000000000000000000000000000000000000000000000\n        /* \"#utility.yul\":20353:20358   */\n      dup3\n        /* \"#utility.yul\":20349:20427   */\n      and\n        /* \"#utility.yul\":20338:20427   */\n      swap1\n      pop\n        /* \"#utility.yul\":20284:20433   */\n      swap2\n      swap1\n      pop\n      jump\t// out\n        /* \"#utility.yul\":20439:20565   */\n    tag_621:\n        /* \"#utility.yul\":20476:20483   */\n      0x00\n        /* \"#utility.yul\":20516:20558   */\n      0xffffffffffffffffffffffffffffffffffffffff\n        /* \"#utility.yul\":20509:20514   */\n      dup3\n        /* \"#utility.yul\":20505:20559   */\n      and\n        /* \"#utility.yul\":20494:20559   */\n      swap1\n      pop\n        /* \"#utility.yul\":20439:20565   */\n      swap2\n      swap1\n      pop\n      jump\t// out\n        /* \"#utility.yul\":20571:20648   */\n    tag_556:\n        /* \"#utility.yul\":20608:20615   */\n      0x00\n        /* \"#utility.yul\":20637:20642   */\n      dup2\n        /* \"#utility.yul\":20626:20642   */\n      swap1\n      pop\n        /* \"#utility.yul\":20571:20648   */\n      swap2\n      swap1\n      pop\n      jump\t// out\n        /* \"#utility.yul\":20654:20808   */\n    tag_381:\n        /* \"#utility.yul\":20738:20744   */\n      dup3\n        /* \"#utility.yul\":20733:20736   */\n      dup2\n        /* \"#utility.yul\":20728:20731   */\n      dup4\n        /* \"#utility.yul\":20715:20745   */\n      calldatacopy\n        /* \"#utility.yul\":20800:20801   */\n      0x00\n        /* \"#utility.yul\":20791:20797   */\n      dup4\n        /* \"#utility.yul\":20786:20789   */\n      dup4\n        /* \"#utility.yul\":20782:20798   */\n      add\n        /* \"#utility.yul\":20775:20802   */\n      mstore\n        /* \"#utility.yul\":20654:20808   */\n      pop\n      pop\n      pop\n      jump\t// out\n        /* \"#utility.yul\":20814:21121   */\n    tag_490:\n        /* \"#utility.yul\":20882:20883   */\n      0x00\n        /* \"#utility.yul\":20892:21005   */\n    tag_629:\n        /* \"#utility.yul\":20906:20912   */\n      dup4\n        /* \"#utility.yul\":20903:20904   */\n      dup2\n        /* \"#utility.yul\":20900:20913   */\n      lt\n        /* \"#utility.yul\":20892:21005   */\n      iszero\n      tag_631\n      jumpi\n        /* \"#utility.yul\":20991:20992   */\n      dup1\n        /* \"#utility.yul\":20986:20989   */\n      dup3\n        /* \"#utility.yul\":20982:20993   */\n      add\n        /* \"#utility.yul\":20976:20994   */\n      mload\n        /* \"#utility.yul\":20972:20973   */\n      dup2\n        /* \"#utility.yul\":20967:20970   */\n      dup5\n        /* \"#utility.yul\":20963:20974   */\n      add\n        /* \"#utility.yul\":20956:20995   */\n      mstore\n        /* \"#utility.yul\":20928:20930   */\n      0x20\n        /* \"#utility.yul\":20925:20926   */\n      dup2\n        /* \"#utility.yul\":20921:20931   */\n      add\n        /* \"#utility.yul\":20916:20931   */\n      swap1\n      pop\n        /* \"#utility.yul\":20892:21005   */\n      jump(tag_629)\n    tag_631:\n        /* \"#utility.yul\":21023:21029   */\n      dup4\n        /* \"#utility.yul\":21020:21021   */\n      dup2\n        /* \"#utility.yul\":21017:21030   */\n      gt\n        /* \"#utility.yul\":21014:21115   */\n      iszero\n      tag_632\n      jumpi\n        /* \"#utility.yul\":21103:21104   */\n      0x00\n        /* \"#utility.yul\":21094:21100   */\n      dup5\n        /* \"#utility.yul\":21089:21092   */\n      dup5\n        /* \"#utility.yul\":21085:21101   */\n      add\n        /* \"#utility.yul\":21078:21105   */\n      mstore\n        /* \"#utility.yul\":21014:21115   */\n    tag_632:\n        /* \"#utility.yul\":20863:21121   */\n      pop\n        /* \"#utility.yul\":20814:21121   */\n      pop\n      pop\n      pop\n      jump\t// out\n        /* \"#utility.yul\":21127:21447   */\n    tag_149:\n        /* \"#utility.yul\":21171:21177   */\n      0x00\n        /* \"#utility.yul\":21208:21209   */\n      0x02\n        /* \"#utility.yul\":21202:21206   */\n      dup3\n        /* \"#utility.yul\":21198:21210   */\n      div\n        /* \"#utility.yul\":21188:21210   */\n      swap1\n      pop\n        /* \"#utility.yul\":21255:21256   */\n      0x01\n        /* \"#utility.yul\":21249:21253   */\n      dup3\n        /* \"#utility.yul\":21245:21257   */\n      and\n        /* \"#utility.yul\":21276:21294   */\n      dup1\n        /* \"#utility.yul\":21266:21347   */\n      tag_634\n      jumpi\n        /* \"#utility.yul\":21332:21336   */\n      0x7f\n        /* \"#utility.yul\":21324:21330   */\n      dup3\n        /* \"#utility.yul\":21320:21337   */\n      and\n        /* \"#utility.yul\":21310:21337   */\n      swap2\n      pop\n        /* \"#utility.yul\":21266:21347   */\n    tag_634:\n        /* \"#utility.yul\":21394:21396   */\n      0x20\n        /* \"#utility.yul\":21386:21392   */\n      dup3\n        /* \"#utility.yul\":21383:21397   */\n      lt\n        /* \"#utility.yul\":21363:21381   */\n      dup2\n        /* \"#utility.yul\":21360:21398   */\n      eq\n        /* \"#utility.yul\":21357:21441   */\n      iszero\n      tag_635\n      jumpi\n        /* \"#utility.yul\":21413:21431   */\n      tag_636\n      tag_637\n      jump\t// in\n    tag_636:\n        /* \"#utility.yul\":21357:21441   */\n    tag_635:\n        /* \"#utility.yul\":21178:21447   */\n      pop\n        /* \"#utility.yul\":21127:21447   */\n      swap2\n      swap1\n      pop\n      jump\t// out\n        /* \"#utility.yul\":21453:21734   */\n    tag_595:\n        /* \"#utility.yul\":21536:21563   */\n      tag_639\n        /* \"#utility.yul\":21558:21562   */\n      dup3\n        /* \"#utility.yul\":21536:21563   */\n      tag_492\n      jump\t// in\n    tag_639:\n        /* \"#utility.yul\":21528:21534   */\n      dup2\n        /* \"#utility.yul\":21524:21564   */\n      add\n        /* \"#utility.yul\":21666:21672   */\n      dup2\n        /* \"#utility.yul\":21654:21664   */\n      dup2\n        /* \"#utility.yul\":21651:21673   */\n      lt\n        /* \"#utility.yul\":21630:21648   */\n      0xffffffffffffffff\n        /* \"#utility.yul\":21618:21628   */\n      dup3\n        /* \"#utility.yul\":21615:21649   */\n      gt\n        /* \"#utility.yul\":21612:21674   */\n      or\n        /* \"#utility.yul\":21609:21697   */\n      iszero\n      tag_640\n      jumpi\n        /* \"#utility.yul\":21677:21695   */\n      tag_641\n      tag_600\n      jump\t// in\n    tag_641:\n        /* \"#utility.yul\":21609:21697   */\n    tag_640:\n        /* \"#utility.yul\":21717:21727   */\n      dup1\n        /* \"#utility.yul\":21713:21715   */\n      0x40\n        /* \"#utility.yul\":21706:21728   */\n      mstore\n        /* \"#utility.yul\":21496:21734   */\n      pop\n        /* \"#utility.yul\":21453:21734   */\n      pop\n      pop\n      jump\t// out\n        /* \"#utility.yul\":21740:21920   */\n    tag_613:\n        /* \"#utility.yul\":21788:21865   */\n      0x4e487b7100000000000000000000000000000000000000000000000000000000\n        /* \"#utility.yul\":21785:21786   */\n      0x00\n        /* \"#utility.yul\":21778:21866   */\n      mstore\n        /* \"#utility.yul\":21885:21889   */\n      0x11\n        /* \"#utility.yul\":21882:21883   */\n      0x04\n        /* \"#utility.yul\":21875:21890   */\n      mstore\n        /* \"#utility.yul\":21909:21913   */\n      0x24\n        /* \"#utility.yul\":21906:21907   */\n      0x00\n        /* \"#utility.yul\":21899:21914   */\n      revert\n        /* \"#utility.yul\":21926:22106   */\n    tag_637:\n        /* \"#utility.yul\":21974:22051   */\n      0x4e487b7100000000000000000000000000000000000000000000000000000000\n        /* \"#utility.yul\":21971:21972   */\n      0x00\n        /* \"#utility.yul\":21964:22052   */\n      mstore\n        /* \"#utility.yul\":22071:22075   */\n      0x22\n        /* \"#utility.yul\":22068:22069   */\n      0x04\n        /* \"#utility.yul\":22061:22076   */\n      mstore\n        /* \"#utility.yul\":22095:22099   */\n      0x24\n        /* \"#utility.yul\":22092:22093   */\n      0x00\n        /* \"#utility.yul\":22085:22100   */\n      revert\n        /* \"#utility.yul\":22112:22292   */\n    tag_600:\n        /* \"#utility.yul\":22160:22237   */\n      0x4e487b7100000000000000000000000000000000000000000000000000000000\n        /* \"#utility.yul\":22157:22158   */\n      0x00\n        /* \"#utility.yul\":22150:22238   */\n      mstore\n        /* \"#utility.yul\":22257:22261   */\n      0x41\n        /* \"#utility.yul\":22254:22255   */\n      0x04\n        /* \"#utility.yul\":22247:22262   */\n      mstore\n        /* \"#utility.yul\":22281:22285   */\n      0x24\n        /* \"#utility.yul\":22278:22279   */\n      0x00\n        /* \"#utility.yul\":22271:22286   */\n      revert\n        /* \"#utility.yul\":22298:22415   */\n    tag_409:\n        /* \"#utility.yul\":22407:22408   */\n      0x00\n        /* \"#utility.yul\":22404:22405   */\n      dup1\n        /* \"#utility.yul\":22397:22409   */\n      revert\n        /* \"#utility.yul\":22421:22538   */\n    tag_401:\n        /* \"#utility.yul\":22530:22531   */\n      0x00\n        /* \"#utility.yul\":22527:22528   */\n      dup1\n        /* \"#utility.yul\":22520:22532   */\n      revert\n        /* \"#utility.yul\":22544:22661   */\n    tag_412:\n        /* \"#utility.yul\":22653:22654   */\n      0x00\n        /* \"#utility.yul\":22650:22651   */\n      dup1\n        /* \"#utility.yul\":22643:22655   */\n      revert\n        /* \"#utility.yul\":22667:22784   */\n    tag_379:\n        /* \"#utility.yul\":22776:22777   */\n      0x00\n        /* \"#utility.yul\":22773:22774   */\n      dup1\n        /* \"#utility.yul\":22766:22778   */\n      revert\n        /* \"#utility.yul\":22790:22907   */\n    tag_441:\n        /* \"#utility.yul\":22899:22900   */\n      0x00\n        /* \"#utility.yul\":22896:22897   */\n      dup1\n        /* \"#utility.yul\":22889:22901   */\n      revert\n        /* \"#utility.yul\":22913:23030   */\n    tag_420:\n        /* \"#utility.yul\":23022:23023   */\n      0x00\n        /* \"#utility.yul\":23019:23020   */\n      dup1\n        /* \"#utility.yul\":23012:23024   */\n      revert\n        /* \"#utility.yul\":23036:23138   */\n    tag_492:\n        /* \"#utility.yul\":23077:23083   */\n      0x00\n        /* \"#utility.yul\":23128:23130   */\n      0x1f\n        /* \"#utility.yul\":23124:23131   */\n      not\n        /* \"#utility.yul\":23119:23121   */\n      0x1f\n        /* \"#utility.yul\":23112:23117   */\n      dup4\n        /* \"#utility.yul\":23108:23122   */\n      add\n        /* \"#utility.yul\":23104:23132   */\n      and\n        /* \"#utility.yul\":23094:23132   */\n      swap1\n      pop\n        /* \"#utility.yul\":23036:23138   */\n      swap2\n      swap1\n      pop\n      jump\t// out\n        /* \"#utility.yul\":23144:23369   */\n    tag_511:\n        /* \"#utility.yul\":23284:23318   */\n      0x4f776e61626c653a206e6577206f776e657220697320746865207a65726f2061\n        /* \"#utility.yul\":23280:23281   */\n      0x00\n        /* \"#utility.yul\":23272:23278   */\n      dup3\n        /* \"#utility.yul\":23268:23282   */\n      add\n        /* \"#utility.yul\":23261:23319   */\n      mstore\n        /* \"#utility.yul\":23353:23361   */\n      0x6464726573730000000000000000000000000000000000000000000000000000\n        /* \"#utility.yul\":23348:23350   */\n      0x20\n        /* \"#utility.yul\":23340:23346   */\n      dup3\n        /* \"#utility.yul\":23336:23351   */\n      add\n        /* \"#utility.yul\":23329:23362   */\n      mstore\n        /* \"#utility.yul\":23144:23369   */\n      pop\n      jump\t// out\n        /* \"#utility.yul\":23375:23543   */\n    tag_516:\n        /* \"#utility.yul\":23515:23535   */\n      0x496e73756666696369656e742046756e64730000000000000000000000000000\n        /* \"#utility.yul\":23511:23512   */\n      0x00\n        /* \"#utility.yul\":23503:23509   */\n      dup3\n        /* \"#utility.yul\":23499:23513   */\n      add\n        /* \"#utility.yul\":23492:23536   */\n      mstore\n        /* \"#utility.yul\":23375:23543   */\n      pop\n      jump\t// out\n        /* \"#utility.yul\":23549:23715   */\n    tag_521:\n        /* \"#utility.yul\":23689:23707   */\n      0x436f6e7472616374207061757365642e00000000000000000000000000000000\n        /* \"#utility.yul\":23685:23686   */\n      0x00\n        /* \"#utility.yul\":23677:23683   */\n      dup3\n        /* \"#utility.yul\":23673:23687   */\n      add\n        /* \"#utility.yul\":23666:23708   */\n      mstore\n        /* \"#utility.yul\":23549:23715   */\n      pop\n      jump\t// out\n        /* \"#utility.yul\":23721:23887   */\n    tag_526:\n        /* \"#utility.yul\":23861:23879   */\n      0x53616c65206e6f74207374617274656400000000000000000000000000000000\n        /* \"#utility.yul\":23857:23858   */\n      0x00\n        /* \"#utility.yul\":23849:23855   */\n      dup3\n        /* \"#utility.yul\":23845:23859   */\n      add\n        /* \"#utility.yul\":23838:23880   */\n      mstore\n        /* \"#utility.yul\":23721:23887   */\n      pop\n      jump\t// out\n        /* \"#utility.yul\":23893:24075   */\n    tag_531:\n        /* \"#utility.yul\":24033:24067   */\n      0x4f776e61626c653a2063616c6c6572206973206e6f7420746865206f776e6572\n        /* \"#utility.yul\":24029:24030   */\n      0x00\n        /* \"#utility.yul\":24021:24027   */\n      dup3\n        /* \"#utility.yul\":24017:24031   */\n      add\n        /* \"#utility.yul\":24010:24068   */\n      mstore\n        /* \"#utility.yul\":23893:24075   */\n      pop\n      jump\t// out\n        /* \"#utility.yul\":24081:24245   */\n    tag_536:\n        /* \"#utility.yul\":24221:24237   */\n      0x4d617820537570706c7920486974000000000000000000000000000000000000\n        /* \"#utility.yul\":24217:24218   */\n      0x00\n        /* \"#utility.yul\":24209:24215   */\n      dup3\n        /* \"#utility.yul\":24205:24219   */\n      add\n        /* \"#utility.yul\":24198:24238   */\n      mstore\n        /* \"#utility.yul\":24081:24245   */\n      pop\n      jump\t// out\n        /* \"#utility.yul\":24251:24416   */\n    tag_541:\n        /* \"#utility.yul\":24391:24408   */\n      0x5472616e73666572204661696c65640000000000000000000000000000000000\n        /* \"#utility.yul\":24387:24388   */\n      0x00\n        /* \"#utility.yul\":24379:24385   */\n      dup3\n        /* \"#utility.yul\":24375:24389   */\n      add\n        /* \"#utility.yul\":24368:24409   */\n      mstore\n        /* \"#utility.yul\":24251:24416   */\n      pop\n      jump\t// out\n        /* \"#utility.yul\":24422:24536   */\n    tag_547:\n      pop\n      jump\t// out\n        /* \"#utility.yul\":24542:24706   */\n    tag_552:\n        /* \"#utility.yul\":24682:24698   */\n      0x4d696e7420697320706175736564000000000000000000000000000000000000\n        /* \"#utility.yul\":24678:24679   */\n      0x00\n        /* \"#utility.yul\":24670:24676   */\n      dup3\n        /* \"#utility.yul\":24666:24680   */\n      add\n        /* \"#utility.yul\":24659:24699   */\n      mstore\n        /* \"#utility.yul\":24542:24706   */\n      pop\n      jump\t// out\n        /* \"#utility.yul\":24712:24834   */\n    tag_385:\n        /* \"#utility.yul\":24785:24809   */\n      tag_662\n        /* \"#utility.yul\":24803:24808   */\n      dup2\n        /* \"#utility.yul\":24785:24809   */\n      tag_478\n      jump\t// in\n    tag_662:\n        /* \"#utility.yul\":24778:24783   */\n      dup2\n        /* \"#utility.yul\":24775:24810   */\n      eq\n        /* \"#utility.yul\":24765:24828   */\n      tag_663\n      jumpi\n        /* \"#utility.yul\":24824:24825   */\n      0x00\n        /* \"#utility.yul\":24821:24822   */\n      dup1\n        /* \"#utility.yul\":24814:24826   */\n      revert\n        /* \"#utility.yul\":24765:24828   */\n    tag_663:\n        /* \"#utility.yul\":24712:24834   */\n      pop\n      jump\t// out\n        /* \"#utility.yul\":24840:24956   */\n    tag_389:\n        /* \"#utility.yul\":24910:24931   */\n      tag_665\n        /* \"#utility.yul\":24925:24930   */\n      dup2\n        /* \"#utility.yul\":24910:24931   */\n      tag_482\n      jump\t// in\n    tag_665:\n        /* \"#utility.yul\":24903:24908   */\n      dup2\n        /* \"#utility.yul\":24900:24932   */\n      eq\n        /* \"#utility.yul\":24890:24950   */\n      tag_666\n      jumpi\n        /* \"#utility.yul\":24946:24947   */\n      0x00\n        /* \"#utility.yul\":24943:24944   */\n      dup1\n        /* \"#utility.yul\":24936:24948   */\n      revert\n        /* \"#utility.yul\":24890:24950   */\n    tag_666:\n        /* \"#utility.yul\":24840:24956   */\n      pop\n      jump\t// out\n        /* \"#utility.yul\":24962:25082   */\n    tag_393:\n        /* \"#utility.yul\":25034:25057   */\n      tag_668\n        /* \"#utility.yul\":25051:25056   */\n      dup2\n        /* \"#utility.yul\":25034:25057   */\n      tag_623\n      jump\t// in\n    tag_668:\n        /* \"#utility.yul\":25027:25032   */\n      dup2\n        /* \"#utility.yul\":25024:25058   */\n      eq\n        /* \"#utility.yul\":25014:25076   */\n      tag_669\n      jumpi\n        /* \"#utility.yul\":25072:25073   */\n      0x00\n        /* \"#utility.yul\":25069:25070   */\n      dup1\n        /* \"#utility.yul\":25062:25074   */\n      revert\n        /* \"#utility.yul\":25014:25076   */\n    tag_669:\n        /* \"#utility.yul\":24962:25082   */\n      pop\n      jump\t// out\n        /* \"#utility.yul\":25088:25210   */\n    tag_416:\n        /* \"#utility.yul\":25161:25185   */\n      tag_671\n        /* \"#utility.yul\":25179:25184   */\n      dup2\n        /* \"#utility.yul\":25161:25185   */\n      tag_556\n      jump\t// in\n    tag_671:\n        /* \"#utility.yul\":25154:25159   */\n      dup2\n        /* \"#utility.yul\":25151:25186   */\n      eq\n        /* \"#utility.yul\":25141:25204   */\n      tag_672\n      jumpi\n        /* \"#utility.yul\":25200:25201   */\n      0x00\n        /* \"#utility.yul\":25197:25198   */\n      dup1\n        /* \"#utility.yul\":25190:25202   */\n      revert\n        /* \"#utility.yul\":25141:25204   */\n    tag_672:\n        /* \"#utility.yul\":25088:25210   */\n      pop\n      jump\t// out\n\n    auxdata: 0xa2646970667358221220de03995e6c8cac36f90477e3449ba2ba127ac47b33c6f0171b9c29e20988987364736f6c63430008070033\n}\n",
				"bytecode": {
					"linkReferences": {},
					"object": "60a06040523480156200001157600080fd5b5060405162002cea38038062002cea8339818101604052810190620000379190620002e6565b6040518060400160405280600d81526020017f4552433732314120546f6b656e000000000000000000000000000000000000008152506040518060400160405280600581526020017f3732314154000000000000000000000000000000000000000000000000000000815250620000c3620000b76200013760201b60201c565b6200013f60201b60201c565b8160039080519060200190620000db92919062000208565b508060049080519060200190620000f492919062000208565b50620001056200020360201b60201c565b6001819055505050816080818152505080600960006101000a81548160ff0219169083151502179055505050620003e1565b600033905090565b60008060009054906101000a900473ffffffffffffffffffffffffffffffffffffffff169050816000806101000a81548173ffffffffffffffffffffffffffffffffffffffff021916908373ffffffffffffffffffffffffffffffffffffffff1602179055508173ffffffffffffffffffffffffffffffffffffffff168173ffffffffffffffffffffffffffffffffffffffff167f8be0079c531659141344cd1fd0a4f28419497f9722a3daafe3b4186f6b6457e060405160405180910390a35050565b600090565b828054620002169062000343565b90600052602060002090601f0160209004810192826200023a576000855562000286565b82601f106200025557805160ff191683800117855562000286565b8280016001018555821562000286579182015b828111156200028557825182559160200191906001019062000268565b5b50905062000295919062000299565b5090565b5b80821115620002b45760008160009055506001016200029a565b5090565b600081519050620002c981620003ad565b92915050565b600081519050620002e081620003c7565b92915050565b600080604083850312156200030057620002ff620003a8565b5b60006200031085828601620002cf565b92505060206200032385828601620002b8565b9150509250929050565b60008115159050919050565b6000819050919050565b600060028204905060018216806200035c57607f821691505b6020821081141562000373576200037262000379565b5b50919050565b7f4e487b7100000000000000000000000000000000000000000000000000000000600052602260045260246000fd5b600080fd5b620003b8816200032d565b8114620003c457600080fd5b50565b620003d28162000339565b8114620003de57600080fd5b50565b6080516128e66200040460003960008181610cc001526111ef01526128e66000f3fe6080604052600436106101665760003560e01c806370a08231116100d1578063a22cb4651161008a578063ddaa26ad11610064578063ddaa26ad146104d5578063e985e9c514610500578063f2fde38b1461053d578063f30e6e771461056657610166565b8063a22cb46514610453578063b88d4fde1461047c578063c87b56dd1461049857610166565b806370a0823114610353578063715018a6146103905780637e4831d3146103a7578063833b9499146103d25780638da5cb5b146103fd57806395d89b411461042857610166565b806332cb6b0c1161012357806332cb6b0c146102735780633ccfd60b1461029e57806340c10f19146102b557806342842e0e146102d157806355f804b3146102ed5780636352211e1461031657610166565b806301ffc9a71461016b57806306fdde03146101a8578063081812fc146101d3578063095ea7b31461021057806318160ddd1461022c57806323b872dd14610257575b600080fd5b34801561017757600080fd5b50610192600480360381019061018d9190611ee3565b61058f565b60405161019f9190612262565b60405180910390f35b3480156101b457600080fd5b506101bd610621565b6040516101ca919061227d565b60405180910390f35b3480156101df57600080fd5b506101fa60048036038101906101f59190611f8a565b6106b3565b60405161020791906121fb565b60405180910390f35b61022a60048036038101906102259190611e76565b610732565b005b34801561023857600080fd5b50610241610876565b60405161024e919061239f565b60405180910390f35b610271600480360381019061026c9190611d60565b61088d565b005b34801561027f57600080fd5b50610288610bb2565b604051610295919061239f565b60405180910390f35b3480156102aa57600080fd5b506102b3610bb7565b005b6102cf60048036038101906102ca9190611e76565b610c6e565b005b6102eb60048036038101906102e69190611d60565b610dda565b005b3480156102f957600080fd5b50610314600480360381019061030f9190611f3d565b610dfa565b005b34801561032257600080fd5b5061033d60048036038101906103389190611f8a565b610e18565b60405161034a91906121fb565b60405180910390f35b34801561035f57600080fd5b5061037a60048036038101906103759190611cf3565b610e2a565b604051610387919061239f565b60405180910390f35b34801561039c57600080fd5b506103a5610ee3565b005b3480156103b357600080fd5b506103bc610ef7565b6040516103c99190612262565b60405180910390f35b3480156103de57600080fd5b506103e7610f0a565b6040516103f4919061239f565b60405180910390f35b34801561040957600080fd5b50610412610f15565b60405161041f91906121fb565b60405180910390f35b34801561043457600080fd5b5061043d610f3e565b60405161044a919061227d565b60405180910390f35b34801561045f57600080fd5b5061047a60048036038101906104759190611e36565b610fd0565b005b61049660048036038101906104919190611db3565b6110db565b005b3480156104a457600080fd5b506104bf60048036038101906104ba9190611f8a565b61114e565b6040516104cc919061227d565b60405180910390f35b3480156104e157600080fd5b506104ea6111ed565b6040516104f7919061239f565b60405180910390f35b34801561050c57600080fd5b5061052760048036038101906105229190611d20565b611211565b6040516105349190612262565b60405180910390f35b34801561054957600080fd5b50610564600480360381019061055f9190611cf3565b6112a5565b005b34801561057257600080fd5b5061058d60048036038101906105889190611eb6565b611329565b005b60006301ffc9a760e01b827bffffffffffffffffffffffffffffffffffffffffffffffffffffffff191614806105ea57506380ac58cd60e01b827bffffffffffffffffffffffffffffffffffffffffffffffffffffffff1916145b8061061a5750635b5e139f60e01b827bffffffffffffffffffffffffffffffffffffffffffffffffffffffff1916145b9050919050565b606060038054610630906125c4565b80601f016020809104026020016040519081016040528092919081815260200182805461065c906125c4565b80156106a95780601f1061067e576101008083540402835291602001916106a9565b820191906000526020600020905b81548152906001019060200180831161068c57829003601f168201915b5050505050905090565b60006106be8261139e565b6106f4576040517fcf4700e400000000000000000000000000000000000000000000000000000000815260040160405180910390fd5b6007600083815260200190815260200160002060000160009054906101000a900473ffffffffffffffffffffffffffffffffffffffff169050919050565b600061073d82610e18565b90508073ffffffffffffffffffffffffffffffffffffffff1661075e6113fd565b73ffffffffffffffffffffffffffffffffffffffff16146107c15761078a816107856113fd565b611211565b6107c0576040517fcfb3b94200000000000000000000000000000000000000000000000000000000815260040160405180910390fd5b5b826007600084815260200190815260200160002060000160006101000a81548173ffffffffffffffffffffffffffffffffffffffff021916908373ffffffffffffffffffffffffffffffffffffffff160217905550818373ffffffffffffffffffffffffffffffffffffffff168273ffffffffffffffffffffffffffffffffffffffff167f8c5be1e5ebec7d5bd14f71427d1e84f3dd0314c0f7b2291e5b200ac8c7c3b92560405160405180910390a4505050565b6000610880611405565b6002546001540303905090565b60006108988261140a565b90508373ffffffffffffffffffffffffffffffffffffffff168173ffffffffffffffffffffffffffffffffffffffff16146108ff576040517fa114810000000000000000000000000000000000000000000000000000000000815260040160405180910390fd5b60008061090b846114d8565b91509150610921818761091c6113fd565b6114ff565b61096d57610936866109316113fd565b611211565b61096c576040517f59c896be00000000000000000000000000000000000000000000000000000000815260040160405180910390fd5b5b600073ffffffffffffffffffffffffffffffffffffffff168573ffffffffffffffffffffffffffffffffffffffff1614156109d4576040517fea553b3400000000000000000000000000000000000000000000000000000000815260040160405180910390fd5b6109e18686866001611543565b80156109ec57600082555b600660008773ffffffffffffffffffffffffffffffffffffffff1673ffffffffffffffffffffffffffffffffffffffff168152602001908152602001600020600081546001900391905081905550600660008673ffffffffffffffffffffffffffffffffffffffff1673ffffffffffffffffffffffffffffffffffffffff1681526020019081526020016000206000815460010191905081905550610aba85610a96888887611549565b7c020000000000000000000000000000000000000000000000000000000017611571565b600560008681526020019081526020016000208190555060007c020000000000000000000000000000000000000000000000000000000084161415610b42576000600185019050600060056000838152602001908152602001600020541415610b40576001548114610b3f578360056000838152602001908152602001600020819055505b5b505b838573ffffffffffffffffffffffffffffffffffffffff168773ffffffffffffffffffffffffffffffffffffffff167fddf252ad1be2c89b69c2b068fc378daa952ba7f163c4a11628f55a4df523b3ef60405160405180910390a4610baa868686600161159c565b505050505050565b606481565b610bbf6115a2565b60003373ffffffffffffffffffffffffffffffffffffffff1647604051610be5906121e6565b60006040518083038185875af1925050503d8060008114610c22576040519150601f19603f3d011682016040523d82523d6000602084013e610c27565b606091505b5050905080610c6b576040517f08c379a0000000000000000000000000000000000000000000000000000000008152600401610c629061235f565b60405180910390fd5b50565b600960009054906101000a900460ff1615610cbe576040517f08c379a0000000000000000000000000000000000000000000000000000000008152600401610cb59061237f565b60405180910390fd5b7f0000000000000000000000000000000000000000000000000000000000000000421015610d21576040517f08c379a0000000000000000000000000000000000000000000000000000000008152600401610d18906122ff565b60405180910390fd5b606481610d2c611620565b610d36919061245e565b1115610d77576040517f08c379a0000000000000000000000000000000000000000000000000000000008152600401610d6e9061233f565b60405180910390fd5b662386f26fc1000081610d8a91906124b4565b341015610dcc576040517f08c379a0000000000000000000000000000000000000000000000000000000008152600401610dc3906122bf565b60405180910390fd5b610dd68282611633565b5050565b610df5838383604051806020016040528060008152506110db565b505050565b610e026115a2565b8181600a9190610e13929190611b21565b505050565b6000610e238261140a565b9050919050565b60008073ffffffffffffffffffffffffffffffffffffffff168273ffffffffffffffffffffffffffffffffffffffff161415610e92576040517f8f4eb60400000000000000000000000000000000000000000000000000000000815260040160405180910390fd5b67ffffffffffffffff600660008473ffffffffffffffffffffffffffffffffffffffff1673ffffffffffffffffffffffffffffffffffffffff16815260200190815260200160002054169050919050565b610eeb6115a2565b610ef560006117f1565b565b600960009054906101000a900460ff1681565b662386f26fc1000081565b60008060009054906101000a900473ffffffffffffffffffffffffffffffffffffffff16905090565b606060048054610f4d906125c4565b80601f0160208091040260200160405190810160405280929190818152602001828054610f79906125c4565b8015610fc65780601f10610f9b57610100808354040283529160200191610fc6565b820191906000526020600020905b815481529060010190602001808311610fa957829003601f168201915b5050505050905090565b8060086000610fdd6113fd565b73ffffffffffffffffffffffffffffffffffffffff1673ffffffffffffffffffffffffffffffffffffffff16815260200190815260200160002060008473ffffffffffffffffffffffffffffffffffffffff1673ffffffffffffffffffffffffffffffffffffffff16815260200190815260200160002060006101000a81548160ff0219169083151502179055508173ffffffffffffffffffffffffffffffffffffffff1661108a6113fd565b73ffffffffffffffffffffffffffffffffffffffff167f17307eab39ab6107e8899845ad3d59bd9653f200f220920489ca2b5937696c31836040516110cf9190612262565b60405180910390a35050565b6110e684848461088d565b60008373ffffffffffffffffffffffffffffffffffffffff163b1461114857611111848484846118b5565b611147576040517fd1a57ed600000000000000000000000000000000000000000000000000000000815260040160405180910390fd5b5b50505050565b60606111598261139e565b61118f576040517fa14c4b5000000000000000000000000000000000000000000000000000000000815260040160405180910390fd5b6000611199611a15565b90506000815114156111ba57604051806020016040528060008152506111e5565b806111c484611aa7565b6040516020016111d59291906121c2565b6040516020818303038152906040525b915050919050565b7f000000000000000000000000000000000000000000000000000000000000000081565b6000600860008473ffffffffffffffffffffffffffffffffffffffff1673ffffffffffffffffffffffffffffffffffffffff16815260200190815260200160002060008373ffffffffffffffffffffffffffffffffffffffff1673ffffffffffffffffffffffffffffffffffffffff16815260200190815260200160002060009054906101000a900460ff16905092915050565b6112ad6115a2565b600073ffffffffffffffffffffffffffffffffffffffff168173ffffffffffffffffffffffffffffffffffffffff16141561131d576040517f08c379a00000000000000000000000000000000000000000000000000000000081526004016113149061229f565b60405180910390fd5b611326816117f1565b50565b6113316115a2565b600960009054906101000a900460ff1615611381576040517f08c379a0000000000000000000000000000000000000000000000000000000008152600401611378906122df565b60405180910390fd5b80600960006101000a81548160ff02191690831515021790555050565b6000816113a9611405565b111580156113b8575060015482105b80156113f6575060007c0100000000000000000000000000000000000000000000000000000000600560008581526020019081526020016000205416145b9050919050565b600033905090565b600090565b60008082905080611419611405565b116114a1576001548110156114a05760006005600083815260200190815260200160002054905060007c01000000000000000000000000000000000000000000000000000000008216141561149e575b6000811415611494576005600083600190039350838152602001908152602001600020549050611469565b80925050506114d3565b505b5b6040517fdf2d9b4200000000000000000000000000000000000000000000000000000000815260040160405180910390fd5b919050565b60008060006007600085815260200190815260200160002090508092508254915050915091565b600073ffffffffffffffffffffffffffffffffffffffff8316925073ffffffffffffffffffffffffffffffffffffffff821691508382148383141790509392505050565b50505050565b60008060e883901c905060e8611560868684611b00565b62ffffff16901b9150509392505050565b600073ffffffffffffffffffffffffffffffffffffffff83169250814260a01b178317905092915050565b50505050565b6115aa611b09565b73ffffffffffffffffffffffffffffffffffffffff166115c8610f15565b73ffffffffffffffffffffffffffffffffffffffff161461161e576040517f08c379a00000000000000000000000000000000000000000000000000000000081526004016116159061231f565b60405180910390fd5b565b600061162a611405565b60015403905090565b600060015490506000821415611675576040517fb562e8dd00000000000000000000000000000000000000000000000000000000815260040160405180910390fd5b6116826000848385611543565b600160406001901b178202600660008573ffffffffffffffffffffffffffffffffffffffff1673ffffffffffffffffffffffffffffffffffffffff168152602001908152602001600020600082825401925050819055506116f9836116ea6000866000611549565b6116f385611b11565b17611571565b6005600083815260200190815260200160002081905550600080838301905073ffffffffffffffffffffffffffffffffffffffff85169150828260007fddf252ad1be2c89b69c2b068fc378daa952ba7f163c4a11628f55a4df523b3ef600080a4600183015b81811461179a57808360007fddf252ad1be2c89b69c2b068fc378daa952ba7f163c4a11628f55a4df523b3ef600080a460018101905061175f565b5060008214156117d6576040517f2e07630000000000000000000000000000000000000000000000000000000000815260040160405180910390fd5b8060018190555050506117ec600084838561159c565b505050565b60008060009054906101000a900473ffffffffffffffffffffffffffffffffffffffff169050816000806101000a81548173ffffffffffffffffffffffffffffffffffffffff021916908373ffffffffffffffffffffffffffffffffffffffff1602179055508173ffffffffffffffffffffffffffffffffffffffff168173ffffffffffffffffffffffffffffffffffffffff167f8be0079c531659141344cd1fd0a4f28419497f9722a3daafe3b4186f6b6457e060405160405180910390a35050565b60008373ffffffffffffffffffffffffffffffffffffffff1663150b7a026118db6113fd565b8786866040518563ffffffff1660e01b81526004016118fd9493929190612216565b602060405180830381600087803b15801561191757600080fd5b505af192505050801561194857506040513d601f19601f820116820180604052508101906119459190611f10565b60015b6119c2573d8060008114611978576040519150601f19603f3d011682016040523d82523d6000602084013e61197d565b606091505b506000815114156119ba576040517fd1a57ed600000000000000000000000000000000000000000000000000000000815260040160405180910390fd5b805181602001fd5b63150b7a0260e01b7bffffffffffffffffffffffffffffffffffffffffffffffffffffffff1916817bffffffffffffffffffffffffffffffffffffffffffffffffffffffff191614915050949350505050565b6060600a8054611a24906125c4565b80601f0160208091040260200160405190810160405280929190818152602001828054611a50906125c4565b8015611a9d5780601f10611a7257610100808354040283529160200191611a9d565b820191906000526020600020905b815481529060010190602001808311611a8057829003601f168201915b5050505050905090565b606060a060405101806040526020810391506000825281835b600115611aeb57600184039350600a81066030018453600a8104905080611ae657611aeb565b611ac0565b50828103602084039350808452505050919050565b60009392505050565b600033905090565b60006001821460e11b9050919050565b828054611b2d906125c4565b90600052602060002090601f016020900481019282611b4f5760008555611b96565b82601f10611b6857803560ff1916838001178555611b96565b82800160010185558215611b96579182015b82811115611b95578235825591602001919060010190611b7a565b5b509050611ba39190611ba7565b5090565b5b80821115611bc0576000816000905550600101611ba8565b5090565b6000611bd7611bd2846123df565b6123ba565b905082815260208101848484011115611bf357611bf26126c3565b5b611bfe848285612582565b509392505050565b600081359050611c1581612854565b92915050565b600081359050611c2a8161286b565b92915050565b600081359050611c3f81612882565b92915050565b600081519050611c5481612882565b92915050565b600082601f830112611c6f57611c6e6126b9565b5b8135611c7f848260208601611bc4565b91505092915050565b60008083601f840112611c9e57611c9d6126b9565b5b8235905067ffffffffffffffff811115611cbb57611cba6126b4565b5b602083019150836001820283011115611cd757611cd66126be565b5b9250929050565b600081359050611ced81612899565b92915050565b600060208284031215611d0957611d086126cd565b5b6000611d1784828501611c06565b91505092915050565b60008060408385031215611d3757611d366126cd565b5b6000611d4585828601611c06565b9250506020611d5685828601611c06565b9150509250929050565b600080600060608486031215611d7957611d786126cd565b5b6000611d8786828701611c06565b9350506020611d9886828701611c06565b9250506040611da986828701611cde565b9150509250925092565b60008060008060808587031215611dcd57611dcc6126cd565b5b6000611ddb87828801611c06565b9450506020611dec87828801611c06565b9350506040611dfd87828801611cde565b925050606085013567ffffffffffffffff811115611e1e57611e1d6126c8565b5b611e2a87828801611c5a565b91505092959194509250565b60008060408385031215611e4d57611e4c6126cd565b5b6000611e5b85828601611c06565b9250506020611e6c85828601611c1b565b9150509250929050565b60008060408385031215611e8d57611e8c6126cd565b5b6000611e9b85828601611c06565b9250506020611eac85828601611cde565b9150509250929050565b600060208284031215611ecc57611ecb6126cd565b5b6000611eda84828501611c1b565b91505092915050565b600060208284031215611ef957611ef86126cd565b5b6000611f0784828501611c30565b91505092915050565b600060208284031215611f2657611f256126cd565b5b6000611f3484828501611c45565b91505092915050565b60008060208385031215611f5457611f536126cd565b5b600083013567ffffffffffffffff811115611f7257611f716126c8565b5b611f7e85828601611c88565b92509250509250929050565b600060208284031215611fa057611f9f6126cd565b5b6000611fae84828501611cde565b91505092915050565b611fc08161250e565b82525050565b611fcf81612520565b82525050565b6000611fe082612410565b611fea8185612426565b9350611ffa818560208601612591565b612003816126d2565b840191505092915050565b60006120198261241b565b6120238185612442565b9350612033818560208601612591565b61203c816126d2565b840191505092915050565b60006120528261241b565b61205c8185612453565b935061206c818560208601612591565b80840191505092915050565b6000612085602683612442565b9150612090826126e3565b604082019050919050565b60006120a8601283612442565b91506120b382612732565b602082019050919050565b60006120cb601083612442565b91506120d68261275b565b602082019050919050565b60006120ee601083612442565b91506120f982612784565b602082019050919050565b6000612111602083612442565b915061211c826127ad565b602082019050919050565b6000612134600e83612442565b915061213f826127d6565b602082019050919050565b6000612157600f83612442565b9150612162826127ff565b602082019050919050565b600061217a600083612437565b915061218582612828565b600082019050919050565b600061219d600e83612442565b91506121a88261282b565b602082019050919050565b6121bc81612578565b82525050565b60006121ce8285612047565b91506121da8284612047565b91508190509392505050565b60006121f18261216d565b9150819050919050565b60006020820190506122106000830184611fb7565b92915050565b600060808201905061222b6000830187611fb7565b6122386020830186611fb7565b61224560408301856121b3565b81810360608301526122578184611fd5565b905095945050505050565b60006020820190506122776000830184611fc6565b92915050565b60006020820190508181036000830152612297818461200e565b905092915050565b600060208201905081810360008301526122b881612078565b9050919050565b600060208201905081810360008301526122d88161209b565b9050919050565b600060208201905081810360008301526122f8816120be565b9050919050565b60006020820190508181036000830152612318816120e1565b9050919050565b6000602082019050818103600083015261233881612104565b9050919050565b6000602082019050818103600083015261235881612127565b9050919050565b600060208201905081810360008301526123788161214a565b9050919050565b6000602082019050818103600083015261239881612190565b9050919050565b60006020820190506123b460008301846121b3565b92915050565b60006123c46123d5565b90506123d082826125f6565b919050565b6000604051905090565b600067ffffffffffffffff8211156123fa576123f9612685565b5b612403826126d2565b9050602081019050919050565b600081519050919050565b600081519050919050565b600082825260208201905092915050565b600081905092915050565b600082825260208201905092915050565b600081905092915050565b600061246982612578565b915061247483612578565b9250827fffffffffffffffffffffffffffffffffffffffffffffffffffffffffffffffff038211156124a9576124a8612627565b5b828201905092915050565b60006124bf82612578565b91506124ca83612578565b9250817fffffffffffffffffffffffffffffffffffffffffffffffffffffffffffffffff048311821515161561250357612502612627565b5b828202905092915050565b600061251982612558565b9050919050565b60008115159050919050565b60007fffffffff0000000000000000000000000000000000000000000000000000000082169050919050565b600073ffffffffffffffffffffffffffffffffffffffff82169050919050565b6000819050919050565b82818337600083830152505050565b60005b838110156125af578082015181840152602081019050612594565b838111156125be576000848401525b50505050565b600060028204905060018216806125dc57607f821691505b602082108114156125f0576125ef612656565b5b50919050565b6125ff826126d2565b810181811067ffffffffffffffff8211171561261e5761261d612685565b5b80604052505050565b7f4e487b7100000000000000000000000000000000000000000000000000000000600052601160045260246000fd5b7f4e487b7100000000000000000000000000000000000000000000000000000000600052602260045260246000fd5b7f4e487b7100000000000000000000000000000000000000000000000000000000600052604160045260246000fd5b600080fd5b600080fd5b600080fd5b600080fd5b600080fd5b600080fd5b6000601f19601f8301169050919050565b7f4f776e61626c653a206e6577206f776e657220697320746865207a65726f206160008201527f6464726573730000000000000000000000000000000000000000000000000000602082015250565b7f496e73756666696369656e742046756e64730000000000000000000000000000600082015250565b7f436f6e7472616374207061757365642e00000000000000000000000000000000600082015250565b7f53616c65206e6f74207374617274656400000000000000000000000000000000600082015250565b7f4f776e61626c653a2063616c6c6572206973206e6f7420746865206f776e6572600082015250565b7f4d617820537570706c7920486974000000000000000000000000000000000000600082015250565b7f5472616e73666572204661696c65640000000000000000000000000000000000600082015250565b50565b7f4d696e7420697320706175736564000000000000000000000000000000000000600082015250565b61285d8161250e565b811461286857600080fd5b50565b61287481612520565b811461287f57600080fd5b50565b61288b8161252c565b811461289657600080fd5b50565b6128a281612578565b81146128ad57600080fd5b5056fea2646970667358221220de03995e6c8cac36f90477e3449ba2ba127ac47b33c6f0171b9c29e20988987364736f6c63430008070033",
					"opcodes": "PUSH1 0xA0 PUSH1 0x40 MSTORE CALLVALUE DUP1 ISZERO PUSH3 0x11 JUMPI PUSH1 0x0 DUP1 REVERT JUMPDEST POP PUSH1 0x40 MLOAD PUSH3 0x2CEA CODESIZE SUB DUP1 PUSH3 0x2CEA DUP4 CODECOPY DUP2 DUP2 ADD PUSH1 0x40 MSTORE DUP2 ADD SWAP1 PUSH3 0x37 SWAP2 SWAP1 PUSH3 0x2E6 JUMP JUMPDEST PUSH1 0x40 MLOAD DUP1 PUSH1 0x40 ADD PUSH1 0x40 MSTORE DUP1 PUSH1 0xD DUP2 MSTORE PUSH1 0x20 ADD PUSH32 0x4552433732314120546F6B656E00000000000000000000000000000000000000 DUP2 MSTORE POP PUSH1 0x40 MLOAD DUP1 PUSH1 0x40 ADD PUSH1 0x40 MSTORE DUP1 PUSH1 0x5 DUP2 MSTORE PUSH1 0x20 ADD PUSH32 0x3732314154000000000000000000000000000000000000000000000000000000 DUP2 MSTORE POP PUSH3 0xC3 PUSH3 0xB7 PUSH3 0x137 PUSH1 0x20 SHL PUSH1 0x20 SHR JUMP JUMPDEST PUSH3 0x13F PUSH1 0x20 SHL PUSH1 0x20 SHR JUMP JUMPDEST DUP2 PUSH1 0x3 SWAP1 DUP1 MLOAD SWAP1 PUSH1 0x20 ADD SWAP1 PUSH3 0xDB SWAP3 SWAP2 SWAP1 PUSH3 0x208 JUMP JUMPDEST POP DUP1 PUSH1 0x4 SWAP1 DUP1 MLOAD SWAP1 PUSH1 0x20 ADD SWAP1 PUSH3 0xF4 SWAP3 SWAP2 SWAP1 PUSH3 0x208 JUMP JUMPDEST POP PUSH3 0x105 PUSH3 0x203 PUSH1 0x20 SHL PUSH1 0x20 SHR JUMP JUMPDEST PUSH1 0x1 DUP2 SWAP1 SSTORE POP POP POP DUP2 PUSH1 0x80 DUP2 DUP2 MSTORE POP POP DUP1 PUSH1 0x9 PUSH1 0x0 PUSH2 0x100 EXP DUP2 SLOAD DUP2 PUSH1 0xFF MUL NOT AND SWAP1 DUP4 ISZERO ISZERO MUL OR SWAP1 SSTORE POP POP POP PUSH3 0x3E1 JUMP JUMPDEST PUSH1 0x0 CALLER SWAP1 POP SWAP1 JUMP JUMPDEST PUSH1 0x0 DUP1 PUSH1 0x0 SWAP1 SLOAD SWAP1 PUSH2 0x100 EXP SWAP1 DIV PUSH20 0xFFFFFFFFFFFFFFFFFFFFFFFFFFFFFFFFFFFFFFFF AND SWAP1 POP DUP2 PUSH1 0x0 DUP1 PUSH2 0x100 EXP DUP2 SLOAD DUP2 PUSH20 0xFFFFFFFFFFFFFFFFFFFFFFFFFFFFFFFFFFFFFFFF MUL NOT AND SWAP1 DUP4 PUSH20 0xFFFFFFFFFFFFFFFFFFFFFFFFFFFFFFFFFFFFFFFF AND MUL OR SWAP1 SSTORE POP DUP2 PUSH20 0xFFFFFFFFFFFFFFFFFFFFFFFFFFFFFFFFFFFFFFFF AND DUP2 PUSH20 0xFFFFFFFFFFFFFFFFFFFFFFFFFFFFFFFFFFFFFFFF AND PUSH32 0x8BE0079C531659141344CD1FD0A4F28419497F9722A3DAAFE3B4186F6B6457E0 PUSH1 0x40 MLOAD PUSH1 0x40 MLOAD DUP1 SWAP2 SUB SWAP1 LOG3 POP POP JUMP JUMPDEST PUSH1 0x0 SWAP1 JUMP JUMPDEST DUP3 DUP1 SLOAD PUSH3 0x216 SWAP1 PUSH3 0x343 JUMP JUMPDEST SWAP1 PUSH1 0x0 MSTORE PUSH1 0x20 PUSH1 0x0 KECCAK256 SWAP1 PUSH1 0x1F ADD PUSH1 0x20 SWAP1 DIV DUP2 ADD SWAP3 DUP3 PUSH3 0x23A JUMPI PUSH1 0x0 DUP6 SSTORE PUSH3 0x286 JUMP JUMPDEST DUP3 PUSH1 0x1F LT PUSH3 0x255 JUMPI DUP1 MLOAD PUSH1 0xFF NOT AND DUP4 DUP1 ADD OR DUP6 SSTORE PUSH3 0x286 JUMP JUMPDEST DUP3 DUP1 ADD PUSH1 0x1 ADD DUP6 SSTORE DUP3 ISZERO PUSH3 0x286 JUMPI SWAP2 DUP3 ADD JUMPDEST DUP3 DUP2 GT ISZERO PUSH3 0x285 JUMPI DUP3 MLOAD DUP3 SSTORE SWAP2 PUSH1 0x20 ADD SWAP2 SWAP1 PUSH1 0x1 ADD SWAP1 PUSH3 0x268 JUMP JUMPDEST JUMPDEST POP SWAP1 POP PUSH3 0x295 SWAP2 SWAP1 PUSH3 0x299 JUMP JUMPDEST POP SWAP1 JUMP JUMPDEST JUMPDEST DUP1 DUP3 GT ISZERO PUSH3 0x2B4 JUMPI PUSH1 0x0 DUP2 PUSH1 0x0 SWAP1 SSTORE POP PUSH1 0x1 ADD PUSH3 0x29A JUMP JUMPDEST POP SWAP1 JUMP JUMPDEST PUSH1 0x0 DUP2 MLOAD SWAP1 POP PUSH3 0x2C9 DUP2 PUSH3 0x3AD JUMP JUMPDEST SWAP3 SWAP2 POP POP JUMP JUMPDEST PUSH1 0x0 DUP2 MLOAD SWAP1 POP PUSH3 0x2E0 DUP2 PUSH3 0x3C7 JUMP JUMPDEST SWAP3 SWAP2 POP POP JUMP JUMPDEST PUSH1 0x0 DUP1 PUSH1 0x40 DUP4 DUP6 SUB SLT ISZERO PUSH3 0x300 JUMPI PUSH3 0x2FF PUSH3 0x3A8 JUMP JUMPDEST JUMPDEST PUSH1 0x0 PUSH3 0x310 DUP6 DUP3 DUP7 ADD PUSH3 0x2CF JUMP JUMPDEST SWAP3 POP POP PUSH1 0x20 PUSH3 0x323 DUP6 DUP3 DUP7 ADD PUSH3 0x2B8 JUMP JUMPDEST SWAP2 POP POP SWAP3 POP SWAP3 SWAP1 POP JUMP JUMPDEST PUSH1 0x0 DUP2 ISZERO ISZERO SWAP1 POP SWAP2 SWAP1 POP JUMP JUMPDEST PUSH1 0x0 DUP2 SWAP1 POP SWAP2 SWAP1 POP JUMP JUMPDEST PUSH1 0x0 PUSH1 0x2 DUP3 DIV SWAP1 POP PUSH1 0x1 DUP3 AND DUP1 PUSH3 0x35C JUMPI PUSH1 0x7F DUP3 AND SWAP2 POP JUMPDEST PUSH1 0x20 DUP3 LT DUP2 EQ ISZERO PUSH3 0x373 JUMPI PUSH3 0x372 PUSH3 0x379 JUMP JUMPDEST JUMPDEST POP SWAP2 SWAP1 POP JUMP JUMPDEST PUSH32 0x4E487B7100000000000000000000000000000000000000000000000000000000 PUSH1 0x0 MSTORE PUSH1 0x22 PUSH1 0x4 MSTORE PUSH1 0x24 PUSH1 0x0 REVERT JUMPDEST PUSH1 0x0 DUP1 REVERT JUMPDEST PUSH3 0x3B8 DUP2 PUSH3 0x32D JUMP JUMPDEST DUP2 EQ PUSH3 0x3C4 JUMPI PUSH1 0x0 DUP1 REVERT JUMPDEST POP JUMP JUMPDEST PUSH3 0x3D2 DUP2 PUSH3 0x339 JUMP JUMPDEST DUP2 EQ PUSH3 0x3DE JUMPI PUSH1 0x0 DUP1 REVERT JUMPDEST POP JUMP JUMPDEST PUSH1 0x80 MLOAD PUSH2 0x28E6 PUSH3 0x404 PUSH1 0x0 CODECOPY PUSH1 0x0 DUP2 DUP2 PUSH2 0xCC0 ADD MSTORE PUSH2 0x11EF ADD MSTORE PUSH2 0x28E6 PUSH1 0x0 RETURN INVALID PUSH1 0x80 PUSH1 0x40 MSTORE PUSH1 0x4 CALLDATASIZE LT PUSH2 0x166 JUMPI PUSH1 0x0 CALLDATALOAD PUSH1 0xE0 SHR DUP1 PUSH4 0x70A08231 GT PUSH2 0xD1 JUMPI DUP1 PUSH4 0xA22CB465 GT PUSH2 0x8A JUMPI DUP1 PUSH4 0xDDAA26AD GT PUSH2 0x64 JUMPI DUP1 PUSH4 0xDDAA26AD EQ PUSH2 0x4D5 JUMPI DUP1 PUSH4 0xE985E9C5 EQ PUSH2 0x500 JUMPI DUP1 PUSH4 0xF2FDE38B EQ PUSH2 0x53D JUMPI DUP1 PUSH4 0xF30E6E77 EQ PUSH2 0x566 JUMPI PUSH2 0x166 JUMP JUMPDEST DUP1 PUSH4 0xA22CB465 EQ PUSH2 0x453 JUMPI DUP1 PUSH4 0xB88D4FDE EQ PUSH2 0x47C JUMPI DUP1 PUSH4 0xC87B56DD EQ PUSH2 0x498 JUMPI PUSH2 0x166 JUMP JUMPDEST DUP1 PUSH4 0x70A08231 EQ PUSH2 0x353 JUMPI DUP1 PUSH4 0x715018A6 EQ PUSH2 0x390 JUMPI DUP1 PUSH4 0x7E4831D3 EQ PUSH2 0x3A7 JUMPI DUP1 PUSH4 0x833B9499 EQ PUSH2 0x3D2 JUMPI DUP1 PUSH4 0x8DA5CB5B EQ PUSH2 0x3FD JUMPI DUP1 PUSH4 0x95D89B41 EQ PUSH2 0x428 JUMPI PUSH2 0x166 JUMP JUMPDEST DUP1 PUSH4 0x32CB6B0C GT PUSH2 0x123 JUMPI DUP1 PUSH4 0x32CB6B0C EQ PUSH2 0x273 JUMPI DUP1 PUSH4 0x3CCFD60B EQ PUSH2 0x29E JUMPI DUP1 PUSH4 0x40C10F19 EQ PUSH2 0x2B5 JUMPI DUP1 PUSH4 0x42842E0E EQ PUSH2 0x2D1 JUMPI DUP1 PUSH4 0x55F804B3 EQ PUSH2 0x2ED JUMPI DUP1 PUSH4 0x6352211E EQ PUSH2 0x316 JUMPI PUSH2 0x166 JUMP JUMPDEST DUP1 PUSH4 0x1FFC9A7 EQ PUSH2 0x16B JUMPI DUP1 PUSH4 0x6FDDE03 EQ PUSH2 0x1A8 JUMPI DUP1 PUSH4 0x81812FC EQ PUSH2 0x1D3 JUMPI DUP1 PUSH4 0x95EA7B3 EQ PUSH2 0x210 JUMPI DUP1 PUSH4 0x18160DDD EQ PUSH2 0x22C JUMPI DUP1 PUSH4 0x23B872DD EQ PUSH2 0x257 JUMPI JUMPDEST PUSH1 0x0 DUP1 REVERT JUMPDEST CALLVALUE DUP1 ISZERO PUSH2 0x177 JUMPI PUSH1 0x0 DUP1 REVERT JUMPDEST POP PUSH2 0x192 PUSH1 0x4 DUP1 CALLDATASIZE SUB DUP2 ADD SWAP1 PUSH2 0x18D SWAP2 SWAP1 PUSH2 0x1EE3 JUMP JUMPDEST PUSH2 0x58F JUMP JUMPDEST PUSH1 0x40 MLOAD PUSH2 0x19F SWAP2 SWAP1 PUSH2 0x2262 JUMP JUMPDEST PUSH1 0x40 MLOAD DUP1 SWAP2 SUB SWAP1 RETURN JUMPDEST CALLVALUE DUP1 ISZERO PUSH2 0x1B4 JUMPI PUSH1 0x0 DUP1 REVERT JUMPDEST POP PUSH2 0x1BD PUSH2 0x621 JUMP JUMPDEST PUSH1 0x40 MLOAD PUSH2 0x1CA SWAP2 SWAP1 PUSH2 0x227D JUMP JUMPDEST PUSH1 0x40 MLOAD DUP1 SWAP2 SUB SWAP1 RETURN JUMPDEST CALLVALUE DUP1 ISZERO PUSH2 0x1DF JUMPI PUSH1 0x0 DUP1 REVERT JUMPDEST POP PUSH2 0x1FA PUSH1 0x4 DUP1 CALLDATASIZE SUB DUP2 ADD SWAP1 PUSH2 0x1F5 SWAP2 SWAP1 PUSH2 0x1F8A JUMP JUMPDEST PUSH2 0x6B3 JUMP JUMPDEST PUSH1 0x40 MLOAD PUSH2 0x207 SWAP2 SWAP1 PUSH2 0x21FB JUMP JUMPDEST PUSH1 0x40 MLOAD DUP1 SWAP2 SUB SWAP1 RETURN JUMPDEST PUSH2 0x22A PUSH1 0x4 DUP1 CALLDATASIZE SUB DUP2 ADD SWAP1 PUSH2 0x225 SWAP2 SWAP1 PUSH2 0x1E76 JUMP JUMPDEST PUSH2 0x732 JUMP JUMPDEST STOP JUMPDEST CALLVALUE DUP1 ISZERO PUSH2 0x238 JUMPI PUSH1 0x0 DUP1 REVERT JUMPDEST POP PUSH2 0x241 PUSH2 0x876 JUMP JUMPDEST PUSH1 0x40 MLOAD PUSH2 0x24E SWAP2 SWAP1 PUSH2 0x239F JUMP JUMPDEST PUSH1 0x40 MLOAD DUP1 SWAP2 SUB SWAP1 RETURN JUMPDEST PUSH2 0x271 PUSH1 0x4 DUP1 CALLDATASIZE SUB DUP2 ADD SWAP1 PUSH2 0x26C SWAP2 SWAP1 PUSH2 0x1D60 JUMP JUMPDEST PUSH2 0x88D JUMP JUMPDEST STOP JUMPDEST CALLVALUE DUP1 ISZERO PUSH2 0x27F JUMPI PUSH1 0x0 DUP1 REVERT JUMPDEST POP PUSH2 0x288 PUSH2 0xBB2 JUMP JUMPDEST PUSH1 0x40 MLOAD PUSH2 0x295 SWAP2 SWAP1 PUSH2 0x239F JUMP JUMPDEST PUSH1 0x40 MLOAD DUP1 SWAP2 SUB SWAP1 RETURN JUMPDEST CALLVALUE DUP1 ISZERO PUSH2 0x2AA JUMPI PUSH1 0x0 DUP1 REVERT JUMPDEST POP PUSH2 0x2B3 PUSH2 0xBB7 JUMP JUMPDEST STOP JUMPDEST PUSH2 0x2CF PUSH1 0x4 DUP1 CALLDATASIZE SUB DUP2 ADD SWAP1 PUSH2 0x2CA SWAP2 SWAP1 PUSH2 0x1E76 JUMP JUMPDEST PUSH2 0xC6E JUMP JUMPDEST STOP JUMPDEST PUSH2 0x2EB PUSH1 0x4 DUP1 CALLDATASIZE SUB DUP2 ADD SWAP1 PUSH2 0x2E6 SWAP2 SWAP1 PUSH2 0x1D60 JUMP JUMPDEST PUSH2 0xDDA JUMP JUMPDEST STOP JUMPDEST CALLVALUE DUP1 ISZERO PUSH2 0x2F9 JUMPI PUSH1 0x0 DUP1 REVERT JUMPDEST POP PUSH2 0x314 PUSH1 0x4 DUP1 CALLDATASIZE SUB DUP2 ADD SWAP1 PUSH2 0x30F SWAP2 SWAP1 PUSH2 0x1F3D JUMP JUMPDEST PUSH2 0xDFA JUMP JUMPDEST STOP JUMPDEST CALLVALUE DUP1 ISZERO PUSH2 0x322 JUMPI PUSH1 0x0 DUP1 REVERT JUMPDEST POP PUSH2 0x33D PUSH1 0x4 DUP1 CALLDATASIZE SUB DUP2 ADD SWAP1 PUSH2 0x338 SWAP2 SWAP1 PUSH2 0x1F8A JUMP JUMPDEST PUSH2 0xE18 JUMP JUMPDEST PUSH1 0x40 MLOAD PUSH2 0x34A SWAP2 SWAP1 PUSH2 0x21FB JUMP JUMPDEST PUSH1 0x40 MLOAD DUP1 SWAP2 SUB SWAP1 RETURN JUMPDEST CALLVALUE DUP1 ISZERO PUSH2 0x35F JUMPI PUSH1 0x0 DUP1 REVERT JUMPDEST POP PUSH2 0x37A PUSH1 0x4 DUP1 CALLDATASIZE SUB DUP2 ADD SWAP1 PUSH2 0x375 SWAP2 SWAP1 PUSH2 0x1CF3 JUMP JUMPDEST PUSH2 0xE2A JUMP JUMPDEST PUSH1 0x40 MLOAD PUSH2 0x387 SWAP2 SWAP1 PUSH2 0x239F JUMP JUMPDEST PUSH1 0x40 MLOAD DUP1 SWAP2 SUB SWAP1 RETURN JUMPDEST CALLVALUE DUP1 ISZERO PUSH2 0x39C JUMPI PUSH1 0x0 DUP1 REVERT JUMPDEST POP PUSH2 0x3A5 PUSH2 0xEE3 JUMP JUMPDEST STOP JUMPDEST CALLVALUE DUP1 ISZERO PUSH2 0x3B3 JUMPI PUSH1 0x0 DUP1 REVERT JUMPDEST POP PUSH2 0x3BC PUSH2 0xEF7 JUMP JUMPDEST PUSH1 0x40 MLOAD PUSH2 0x3C9 SWAP2 SWAP1 PUSH2 0x2262 JUMP JUMPDEST PUSH1 0x40 MLOAD DUP1 SWAP2 SUB SWAP1 RETURN JUMPDEST CALLVALUE DUP1 ISZERO PUSH2 0x3DE JUMPI PUSH1 0x0 DUP1 REVERT JUMPDEST POP PUSH2 0x3E7 PUSH2 0xF0A JUMP JUMPDEST PUSH1 0x40 MLOAD PUSH2 0x3F4 SWAP2 SWAP1 PUSH2 0x239F JUMP JUMPDEST PUSH1 0x40 MLOAD DUP1 SWAP2 SUB SWAP1 RETURN JUMPDEST CALLVALUE DUP1 ISZERO PUSH2 0x409 JUMPI PUSH1 0x0 DUP1 REVERT JUMPDEST POP PUSH2 0x412 PUSH2 0xF15 JUMP JUMPDEST PUSH1 0x40 MLOAD PUSH2 0x41F SWAP2 SWAP1 PUSH2 0x21FB JUMP JUMPDEST PUSH1 0x40 MLOAD DUP1 SWAP2 SUB SWAP1 RETURN JUMPDEST CALLVALUE DUP1 ISZERO PUSH2 0x434 JUMPI PUSH1 0x0 DUP1 REVERT JUMPDEST POP PUSH2 0x43D PUSH2 0xF3E JUMP JUMPDEST PUSH1 0x40 MLOAD PUSH2 0x44A SWAP2 SWAP1 PUSH2 0x227D JUMP JUMPDEST PUSH1 0x40 MLOAD DUP1 SWAP2 SUB SWAP1 RETURN JUMPDEST CALLVALUE DUP1 ISZERO PUSH2 0x45F JUMPI PUSH1 0x0 DUP1 REVERT JUMPDEST POP PUSH2 0x47A PUSH1 0x4 DUP1 CALLDATASIZE SUB DUP2 ADD SWAP1 PUSH2 0x475 SWAP2 SWAP1 PUSH2 0x1E36 JUMP JUMPDEST PUSH2 0xFD0 JUMP JUMPDEST STOP JUMPDEST PUSH2 0x496 PUSH1 0x4 DUP1 CALLDATASIZE SUB DUP2 ADD SWAP1 PUSH2 0x491 SWAP2 SWAP1 PUSH2 0x1DB3 JUMP JUMPDEST PUSH2 0x10DB JUMP JUMPDEST STOP JUMPDEST CALLVALUE DUP1 ISZERO PUSH2 0x4A4 JUMPI PUSH1 0x0 DUP1 REVERT JUMPDEST POP PUSH2 0x4BF PUSH1 0x4 DUP1 CALLDATASIZE SUB DUP2 ADD SWAP1 PUSH2 0x4BA SWAP2 SWAP1 PUSH2 0x1F8A JUMP JUMPDEST PUSH2 0x114E JUMP JUMPDEST PUSH1 0x40 MLOAD PUSH2 0x4CC SWAP2 SWAP1 PUSH2 0x227D JUMP JUMPDEST PUSH1 0x40 MLOAD DUP1 SWAP2 SUB SWAP1 RETURN JUMPDEST CALLVALUE DUP1 ISZERO PUSH2 0x4E1 JUMPI PUSH1 0x0 DUP1 REVERT JUMPDEST POP PUSH2 0x4EA PUSH2 0x11ED JUMP JUMPDEST PUSH1 0x40 MLOAD PUSH2 0x4F7 SWAP2 SWAP1 PUSH2 0x239F JUMP JUMPDEST PUSH1 0x40 MLOAD DUP1 SWAP2 SUB SWAP1 RETURN JUMPDEST CALLVALUE DUP1 ISZERO PUSH2 0x50C JUMPI PUSH1 0x0 DUP1 REVERT JUMPDEST POP PUSH2 0x527 PUSH1 0x4 DUP1 CALLDATASIZE SUB DUP2 ADD SWAP1 PUSH2 0x522 SWAP2 SWAP1 PUSH2 0x1D20 JUMP JUMPDEST PUSH2 0x1211 JUMP JUMPDEST PUSH1 0x40 MLOAD PUSH2 0x534 SWAP2 SWAP1 PUSH2 0x2262 JUMP JUMPDEST PUSH1 0x40 MLOAD DUP1 SWAP2 SUB SWAP1 RETURN JUMPDEST CALLVALUE DUP1 ISZERO PUSH2 0x549 JUMPI PUSH1 0x0 DUP1 REVERT JUMPDEST POP PUSH2 0x564 PUSH1 0x4 DUP1 CALLDATASIZE SUB DUP2 ADD SWAP1 PUSH2 0x55F SWAP2 SWAP1 PUSH2 0x1CF3 JUMP JUMPDEST PUSH2 0x12A5 JUMP JUMPDEST STOP JUMPDEST CALLVALUE DUP1 ISZERO PUSH2 0x572 JUMPI PUSH1 0x0 DUP1 REVERT JUMPDEST POP PUSH2 0x58D PUSH1 0x4 DUP1 CALLDATASIZE SUB DUP2 ADD SWAP1 PUSH2 0x588 SWAP2 SWAP1 PUSH2 0x1EB6 JUMP JUMPDEST PUSH2 0x1329 JUMP JUMPDEST STOP JUMPDEST PUSH1 0x0 PUSH4 0x1FFC9A7 PUSH1 0xE0 SHL DUP3 PUSH28 0xFFFFFFFFFFFFFFFFFFFFFFFFFFFFFFFFFFFFFFFFFFFFFFFFFFFFFFFF NOT AND EQ DUP1 PUSH2 0x5EA JUMPI POP PUSH4 0x80AC58CD PUSH1 0xE0 SHL DUP3 PUSH28 0xFFFFFFFFFFFFFFFFFFFFFFFFFFFFFFFFFFFFFFFFFFFFFFFFFFFFFFFF NOT AND EQ JUMPDEST DUP1 PUSH2 0x61A JUMPI POP PUSH4 0x5B5E139F PUSH1 0xE0 SHL DUP3 PUSH28 0xFFFFFFFFFFFFFFFFFFFFFFFFFFFFFFFFFFFFFFFFFFFFFFFFFFFFFFFF NOT AND EQ JUMPDEST SWAP1 POP SWAP2 SWAP1 POP JUMP JUMPDEST PUSH1 0x60 PUSH1 0x3 DUP1 SLOAD PUSH2 0x630 SWAP1 PUSH2 0x25C4 JUMP JUMPDEST DUP1 PUSH1 0x1F ADD PUSH1 0x20 DUP1 SWAP2 DIV MUL PUSH1 0x20 ADD PUSH1 0x40 MLOAD SWAP1 DUP2 ADD PUSH1 0x40 MSTORE DUP1 SWAP3 SWAP2 SWAP1 DUP2 DUP2 MSTORE PUSH1 0x20 ADD DUP3 DUP1 SLOAD PUSH2 0x65C SWAP1 PUSH2 0x25C4 JUMP JUMPDEST DUP1 ISZERO PUSH2 0x6A9 JUMPI DUP1 PUSH1 0x1F LT PUSH2 0x67E JUMPI PUSH2 0x100 DUP1 DUP4 SLOAD DIV MUL DUP4 MSTORE SWAP2 PUSH1 0x20 ADD SWAP2 PUSH2 0x6A9 JUMP JUMPDEST DUP3 ADD SWAP2 SWAP1 PUSH1 0x0 MSTORE PUSH1 0x20 PUSH1 0x0 KECCAK256 SWAP1 JUMPDEST DUP2 SLOAD DUP2 MSTORE SWAP1 PUSH1 0x1 ADD SWAP1 PUSH1 0x20 ADD DUP1 DUP4 GT PUSH2 0x68C JUMPI DUP3 SWAP1 SUB PUSH1 0x1F AND DUP3 ADD SWAP2 JUMPDEST POP POP POP POP POP SWAP1 POP SWAP1 JUMP JUMPDEST PUSH1 0x0 PUSH2 0x6BE DUP3 PUSH2 0x139E JUMP JUMPDEST PUSH2 0x6F4 JUMPI PUSH1 0x40 MLOAD PUSH32 0xCF4700E400000000000000000000000000000000000000000000000000000000 DUP2 MSTORE PUSH1 0x4 ADD PUSH1 0x40 MLOAD DUP1 SWAP2 SUB SWAP1 REVERT JUMPDEST PUSH1 0x7 PUSH1 0x0 DUP4 DUP2 MSTORE PUSH1 0x20 ADD SWAP1 DUP2 MSTORE PUSH1 0x20 ADD PUSH1 0x0 KECCAK256 PUSH1 0x0 ADD PUSH1 0x0 SWAP1 SLOAD SWAP1 PUSH2 0x100 EXP SWAP1 DIV PUSH20 0xFFFFFFFFFFFFFFFFFFFFFFFFFFFFFFFFFFFFFFFF AND SWAP1 POP SWAP2 SWAP1 POP JUMP JUMPDEST PUSH1 0x0 PUSH2 0x73D DUP3 PUSH2 0xE18 JUMP JUMPDEST SWAP1 POP DUP1 PUSH20 0xFFFFFFFFFFFFFFFFFFFFFFFFFFFFFFFFFFFFFFFF AND PUSH2 0x75E PUSH2 0x13FD JUMP JUMPDEST PUSH20 0xFFFFFFFFFFFFFFFFFFFFFFFFFFFFFFFFFFFFFFFF AND EQ PUSH2 0x7C1 JUMPI PUSH2 0x78A DUP2 PUSH2 0x785 PUSH2 0x13FD JUMP JUMPDEST PUSH2 0x1211 JUMP JUMPDEST PUSH2 0x7C0 JUMPI PUSH1 0x40 MLOAD PUSH32 0xCFB3B94200000000000000000000000000000000000000000000000000000000 DUP2 MSTORE PUSH1 0x4 ADD PUSH1 0x40 MLOAD DUP1 SWAP2 SUB SWAP1 REVERT JUMPDEST JUMPDEST DUP3 PUSH1 0x7 PUSH1 0x0 DUP5 DUP2 MSTORE PUSH1 0x20 ADD SWAP1 DUP2 MSTORE PUSH1 0x20 ADD PUSH1 0x0 KECCAK256 PUSH1 0x0 ADD PUSH1 0x0 PUSH2 0x100 EXP DUP2 SLOAD DUP2 PUSH20 0xFFFFFFFFFFFFFFFFFFFFFFFFFFFFFFFFFFFFFFFF MUL NOT AND SWAP1 DUP4 PUSH20 0xFFFFFFFFFFFFFFFFFFFFFFFFFFFFFFFFFFFFFFFF AND MUL OR SWAP1 SSTORE POP DUP2 DUP4 PUSH20 0xFFFFFFFFFFFFFFFFFFFFFFFFFFFFFFFFFFFFFFFF AND DUP3 PUSH20 0xFFFFFFFFFFFFFFFFFFFFFFFFFFFFFFFFFFFFFFFF AND PUSH32 0x8C5BE1E5EBEC7D5BD14F71427D1E84F3DD0314C0F7B2291E5B200AC8C7C3B925 PUSH1 0x40 MLOAD PUSH1 0x40 MLOAD DUP1 SWAP2 SUB SWAP1 LOG4 POP POP POP JUMP JUMPDEST PUSH1 0x0 PUSH2 0x880 PUSH2 0x1405 JUMP JUMPDEST PUSH1 0x2 SLOAD PUSH1 0x1 SLOAD SUB SUB SWAP1 POP SWAP1 JUMP JUMPDEST PUSH1 0x0 PUSH2 0x898 DUP3 PUSH2 0x140A JUMP JUMPDEST SWAP1 POP DUP4 PUSH20 0xFFFFFFFFFFFFFFFFFFFFFFFFFFFFFFFFFFFFFFFF AND DUP2 PUSH20 0xFFFFFFFFFFFFFFFFFFFFFFFFFFFFFFFFFFFFFFFF AND EQ PUSH2 0x8FF JUMPI PUSH1 0x40 MLOAD PUSH32 0xA114810000000000000000000000000000000000000000000000000000000000 DUP2 MSTORE PUSH1 0x4 ADD PUSH1 0x40 MLOAD DUP1 SWAP2 SUB SWAP1 REVERT JUMPDEST PUSH1 0x0 DUP1 PUSH2 0x90B DUP5 PUSH2 0x14D8 JUMP JUMPDEST SWAP2 POP SWAP2 POP PUSH2 0x921 DUP2 DUP8 PUSH2 0x91C PUSH2 0x13FD JUMP JUMPDEST PUSH2 0x14FF JUMP JUMPDEST PUSH2 0x96D JUMPI PUSH2 0x936 DUP7 PUSH2 0x931 PUSH2 0x13FD JUMP JUMPDEST PUSH2 0x1211 JUMP JUMPDEST PUSH2 0x96C JUMPI PUSH1 0x40 MLOAD PUSH32 0x59C896BE00000000000000000000000000000000000000000000000000000000 DUP2 MSTORE PUSH1 0x4 ADD PUSH1 0x40 MLOAD DUP1 SWAP2 SUB SWAP1 REVERT JUMPDEST JUMPDEST PUSH1 0x0 PUSH20 0xFFFFFFFFFFFFFFFFFFFFFFFFFFFFFFFFFFFFFFFF AND DUP6 PUSH20 0xFFFFFFFFFFFFFFFFFFFFFFFFFFFFFFFFFFFFFFFF AND EQ ISZERO PUSH2 0x9D4 JUMPI PUSH1 0x40 MLOAD PUSH32 0xEA553B3400000000000000000000000000000000000000000000000000000000 DUP2 MSTORE PUSH1 0x4 ADD PUSH1 0x40 MLOAD DUP1 SWAP2 SUB SWAP1 REVERT JUMPDEST PUSH2 0x9E1 DUP7 DUP7 DUP7 PUSH1 0x1 PUSH2 0x1543 JUMP JUMPDEST DUP1 ISZERO PUSH2 0x9EC JUMPI PUSH1 0x0 DUP3 SSTORE JUMPDEST PUSH1 0x6 PUSH1 0x0 DUP8 PUSH20 0xFFFFFFFFFFFFFFFFFFFFFFFFFFFFFFFFFFFFFFFF AND PUSH20 0xFFFFFFFFFFFFFFFFFFFFFFFFFFFFFFFFFFFFFFFF AND DUP2 MSTORE PUSH1 0x20 ADD SWAP1 DUP2 MSTORE PUSH1 0x20 ADD PUSH1 0x0 KECCAK256 PUSH1 0x0 DUP2 SLOAD PUSH1 0x1 SWAP1 SUB SWAP2 SWAP1 POP DUP2 SWAP1 SSTORE POP PUSH1 0x6 PUSH1 0x0 DUP7 PUSH20 0xFFFFFFFFFFFFFFFFFFFFFFFFFFFFFFFFFFFFFFFF AND PUSH20 0xFFFFFFFFFFFFFFFFFFFFFFFFFFFFFFFFFFFFFFFF AND DUP2 MSTORE PUSH1 0x20 ADD SWAP1 DUP2 MSTORE PUSH1 0x20 ADD PUSH1 0x0 KECCAK256 PUSH1 0x0 DUP2 SLOAD PUSH1 0x1 ADD SWAP2 SWAP1 POP DUP2 SWAP1 SSTORE POP PUSH2 0xABA DUP6 PUSH2 0xA96 DUP9 DUP9 DUP8 PUSH2 0x1549 JUMP JUMPDEST PUSH29 0x200000000000000000000000000000000000000000000000000000000 OR PUSH2 0x1571 JUMP JUMPDEST PUSH1 0x5 PUSH1 0x0 DUP7 DUP2 MSTORE PUSH1 0x20 ADD SWAP1 DUP2 MSTORE PUSH1 0x20 ADD PUSH1 0x0 KECCAK256 DUP2 SWAP1 SSTORE POP PUSH1 0x0 PUSH29 0x200000000000000000000000000000000000000000000000000000000 DUP5 AND EQ ISZERO PUSH2 0xB42 JUMPI PUSH1 0x0 PUSH1 0x1 DUP6 ADD SWAP1 POP PUSH1 0x0 PUSH1 0x5 PUSH1 0x0 DUP4 DUP2 MSTORE PUSH1 0x20 ADD SWAP1 DUP2 MSTORE PUSH1 0x20 ADD PUSH1 0x0 KECCAK256 SLOAD EQ ISZERO PUSH2 0xB40 JUMPI PUSH1 0x1 SLOAD DUP2 EQ PUSH2 0xB3F JUMPI DUP4 PUSH1 0x5 PUSH1 0x0 DUP4 DUP2 MSTORE PUSH1 0x20 ADD SWAP1 DUP2 MSTORE PUSH1 0x20 ADD PUSH1 0x0 KECCAK256 DUP2 SWAP1 SSTORE POP JUMPDEST JUMPDEST POP JUMPDEST DUP4 DUP6 PUSH20 0xFFFFFFFFFFFFFFFFFFFFFFFFFFFFFFFFFFFFFFFF AND DUP8 PUSH20 0xFFFFFFFFFFFFFFFFFFFFFFFFFFFFFFFFFFFFFFFF AND PUSH32 0xDDF252AD1BE2C89B69C2B068FC378DAA952BA7F163C4A11628F55A4DF523B3EF PUSH1 0x40 MLOAD PUSH1 0x40 MLOAD DUP1 SWAP2 SUB SWAP1 LOG4 PUSH2 0xBAA DUP7 DUP7 DUP7 PUSH1 0x1 PUSH2 0x159C JUMP JUMPDEST POP POP POP POP POP POP JUMP JUMPDEST PUSH1 0x64 DUP2 JUMP JUMPDEST PUSH2 0xBBF PUSH2 0x15A2 JUMP JUMPDEST PUSH1 0x0 CALLER PUSH20 0xFFFFFFFFFFFFFFFFFFFFFFFFFFFFFFFFFFFFFFFF AND SELFBALANCE PUSH1 0x40 MLOAD PUSH2 0xBE5 SWAP1 PUSH2 0x21E6 JUMP JUMPDEST PUSH1 0x0 PUSH1 0x40 MLOAD DUP1 DUP4 SUB DUP2 DUP6 DUP8 GAS CALL SWAP3 POP POP POP RETURNDATASIZE DUP1 PUSH1 0x0 DUP2 EQ PUSH2 0xC22 JUMPI PUSH1 0x40 MLOAD SWAP2 POP PUSH1 0x1F NOT PUSH1 0x3F RETURNDATASIZE ADD AND DUP3 ADD PUSH1 0x40 MSTORE RETURNDATASIZE DUP3 MSTORE RETURNDATASIZE PUSH1 0x0 PUSH1 0x20 DUP5 ADD RETURNDATACOPY PUSH2 0xC27 JUMP JUMPDEST PUSH1 0x60 SWAP2 POP JUMPDEST POP POP SWAP1 POP DUP1 PUSH2 0xC6B JUMPI PUSH1 0x40 MLOAD PUSH32 0x8C379A000000000000000000000000000000000000000000000000000000000 DUP2 MSTORE PUSH1 0x4 ADD PUSH2 0xC62 SWAP1 PUSH2 0x235F JUMP JUMPDEST PUSH1 0x40 MLOAD DUP1 SWAP2 SUB SWAP1 REVERT JUMPDEST POP JUMP JUMPDEST PUSH1 0x9 PUSH1 0x0 SWAP1 SLOAD SWAP1 PUSH2 0x100 EXP SWAP1 DIV PUSH1 0xFF AND ISZERO PUSH2 0xCBE JUMPI PUSH1 0x40 MLOAD PUSH32 0x8C379A000000000000000000000000000000000000000000000000000000000 DUP2 MSTORE PUSH1 0x4 ADD PUSH2 0xCB5 SWAP1 PUSH2 0x237F JUMP JUMPDEST PUSH1 0x40 MLOAD DUP1 SWAP2 SUB SWAP1 REVERT JUMPDEST PUSH32 0x0 TIMESTAMP LT ISZERO PUSH2 0xD21 JUMPI PUSH1 0x40 MLOAD PUSH32 0x8C379A000000000000000000000000000000000000000000000000000000000 DUP2 MSTORE PUSH1 0x4 ADD PUSH2 0xD18 SWAP1 PUSH2 0x22FF JUMP JUMPDEST PUSH1 0x40 MLOAD DUP1 SWAP2 SUB SWAP1 REVERT JUMPDEST PUSH1 0x64 DUP2 PUSH2 0xD2C PUSH2 0x1620 JUMP JUMPDEST PUSH2 0xD36 SWAP2 SWAP1 PUSH2 0x245E JUMP JUMPDEST GT ISZERO PUSH2 0xD77 JUMPI PUSH1 0x40 MLOAD PUSH32 0x8C379A000000000000000000000000000000000000000000000000000000000 DUP2 MSTORE PUSH1 0x4 ADD PUSH2 0xD6E SWAP1 PUSH2 0x233F JUMP JUMPDEST PUSH1 0x40 MLOAD DUP1 SWAP2 SUB SWAP1 REVERT JUMPDEST PUSH7 0x2386F26FC10000 DUP2 PUSH2 0xD8A SWAP2 SWAP1 PUSH2 0x24B4 JUMP JUMPDEST CALLVALUE LT ISZERO PUSH2 0xDCC JUMPI PUSH1 0x40 MLOAD PUSH32 0x8C379A000000000000000000000000000000000000000000000000000000000 DUP2 MSTORE PUSH1 0x4 ADD PUSH2 0xDC3 SWAP1 PUSH2 0x22BF JUMP JUMPDEST PUSH1 0x40 MLOAD DUP1 SWAP2 SUB SWAP1 REVERT JUMPDEST PUSH2 0xDD6 DUP3 DUP3 PUSH2 0x1633 JUMP JUMPDEST POP POP JUMP JUMPDEST PUSH2 0xDF5 DUP4 DUP4 DUP4 PUSH1 0x40 MLOAD DUP1 PUSH1 0x20 ADD PUSH1 0x40 MSTORE DUP1 PUSH1 0x0 DUP2 MSTORE POP PUSH2 0x10DB JUMP JUMPDEST POP POP POP JUMP JUMPDEST PUSH2 0xE02 PUSH2 0x15A2 JUMP JUMPDEST DUP2 DUP2 PUSH1 0xA SWAP2 SWAP1 PUSH2 0xE13 SWAP3 SWAP2 SWAP1 PUSH2 0x1B21 JUMP JUMPDEST POP POP POP JUMP JUMPDEST PUSH1 0x0 PUSH2 0xE23 DUP3 PUSH2 0x140A JUMP JUMPDEST SWAP1 POP SWAP2 SWAP1 POP JUMP JUMPDEST PUSH1 0x0 DUP1 PUSH20 0xFFFFFFFFFFFFFFFFFFFFFFFFFFFFFFFFFFFFFFFF AND DUP3 PUSH20 0xFFFFFFFFFFFFFFFFFFFFFFFFFFFFFFFFFFFFFFFF AND EQ ISZERO PUSH2 0xE92 JUMPI PUSH1 0x40 MLOAD PUSH32 0x8F4EB60400000000000000000000000000000000000000000000000000000000 DUP2 MSTORE PUSH1 0x4 ADD PUSH1 0x40 MLOAD DUP1 SWAP2 SUB SWAP1 REVERT JUMPDEST PUSH8 0xFFFFFFFFFFFFFFFF PUSH1 0x6 PUSH1 0x0 DUP5 PUSH20 0xFFFFFFFFFFFFFFFFFFFFFFFFFFFFFFFFFFFFFFFF AND PUSH20 0xFFFFFFFFFFFFFFFFFFFFFFFFFFFFFFFFFFFFFFFF AND DUP2 MSTORE PUSH1 0x20 ADD SWAP1 DUP2 MSTORE PUSH1 0x20 ADD PUSH1 0x0 KECCAK256 SLOAD AND SWAP1 POP SWAP2 SWAP1 POP JUMP JUMPDEST PUSH2 0xEEB PUSH2 0x15A2 JUMP JUMPDEST PUSH2 0xEF5 PUSH1 0x0 PUSH2 0x17F1 JUMP JUMPDEST JUMP JUMPDEST PUSH1 0x9 PUSH1 0x0 SWAP1 SLOAD SWAP1 PUSH2 0x100 EXP SWAP1 DIV PUSH1 0xFF AND DUP2 JUMP JUMPDEST PUSH7 0x2386F26FC10000 DUP2 JUMP JUMPDEST PUSH1 0x0 DUP1 PUSH1 0x0 SWAP1 SLOAD SWAP1 PUSH2 0x100 EXP SWAP1 DIV PUSH20 0xFFFFFFFFFFFFFFFFFFFFFFFFFFFFFFFFFFFFFFFF AND SWAP1 POP SWAP1 JUMP JUMPDEST PUSH1 0x60 PUSH1 0x4 DUP1 SLOAD PUSH2 0xF4D SWAP1 PUSH2 0x25C4 JUMP JUMPDEST DUP1 PUSH1 0x1F ADD PUSH1 0x20 DUP1 SWAP2 DIV MUL PUSH1 0x20 ADD PUSH1 0x40 MLOAD SWAP1 DUP2 ADD PUSH1 0x40 MSTORE DUP1 SWAP3 SWAP2 SWAP1 DUP2 DUP2 MSTORE PUSH1 0x20 ADD DUP3 DUP1 SLOAD PUSH2 0xF79 SWAP1 PUSH2 0x25C4 JUMP JUMPDEST DUP1 ISZERO PUSH2 0xFC6 JUMPI DUP1 PUSH1 0x1F LT PUSH2 0xF9B JUMPI PUSH2 0x100 DUP1 DUP4 SLOAD DIV MUL DUP4 MSTORE SWAP2 PUSH1 0x20 ADD SWAP2 PUSH2 0xFC6 JUMP JUMPDEST DUP3 ADD SWAP2 SWAP1 PUSH1 0x0 MSTORE PUSH1 0x20 PUSH1 0x0 KECCAK256 SWAP1 JUMPDEST DUP2 SLOAD DUP2 MSTORE SWAP1 PUSH1 0x1 ADD SWAP1 PUSH1 0x20 ADD DUP1 DUP4 GT PUSH2 0xFA9 JUMPI DUP3 SWAP1 SUB PUSH1 0x1F AND DUP3 ADD SWAP2 JUMPDEST POP POP POP POP POP SWAP1 POP SWAP1 JUMP JUMPDEST DUP1 PUSH1 0x8 PUSH1 0x0 PUSH2 0xFDD PUSH2 0x13FD JUMP JUMPDEST PUSH20 0xFFFFFFFFFFFFFFFFFFFFFFFFFFFFFFFFFFFFFFFF AND PUSH20 0xFFFFFFFFFFFFFFFFFFFFFFFFFFFFFFFFFFFFFFFF AND DUP2 MSTORE PUSH1 0x20 ADD SWAP1 DUP2 MSTORE PUSH1 0x20 ADD PUSH1 0x0 KECCAK256 PUSH1 0x0 DUP5 PUSH20 0xFFFFFFFFFFFFFFFFFFFFFFFFFFFFFFFFFFFFFFFF AND PUSH20 0xFFFFFFFFFFFFFFFFFFFFFFFFFFFFFFFFFFFFFFFF AND DUP2 MSTORE PUSH1 0x20 ADD SWAP1 DUP2 MSTORE PUSH1 0x20 ADD PUSH1 0x0 KECCAK256 PUSH1 0x0 PUSH2 0x100 EXP DUP2 SLOAD DUP2 PUSH1 0xFF MUL NOT AND SWAP1 DUP4 ISZERO ISZERO MUL OR SWAP1 SSTORE POP DUP2 PUSH20 0xFFFFFFFFFFFFFFFFFFFFFFFFFFFFFFFFFFFFFFFF AND PUSH2 0x108A PUSH2 0x13FD JUMP JUMPDEST PUSH20 0xFFFFFFFFFFFFFFFFFFFFFFFFFFFFFFFFFFFFFFFF AND PUSH32 0x17307EAB39AB6107E8899845AD3D59BD9653F200F220920489CA2B5937696C31 DUP4 PUSH1 0x40 MLOAD PUSH2 0x10CF SWAP2 SWAP1 PUSH2 0x2262 JUMP JUMPDEST PUSH1 0x40 MLOAD DUP1 SWAP2 SUB SWAP1 LOG3 POP POP JUMP JUMPDEST PUSH2 0x10E6 DUP5 DUP5 DUP5 PUSH2 0x88D JUMP JUMPDEST PUSH1 0x0 DUP4 PUSH20 0xFFFFFFFFFFFFFFFFFFFFFFFFFFFFFFFFFFFFFFFF AND EXTCODESIZE EQ PUSH2 0x1148 JUMPI PUSH2 0x1111 DUP5 DUP5 DUP5 DUP5 PUSH2 0x18B5 JUMP JUMPDEST PUSH2 0x1147 JUMPI PUSH1 0x40 MLOAD PUSH32 0xD1A57ED600000000000000000000000000000000000000000000000000000000 DUP2 MSTORE PUSH1 0x4 ADD PUSH1 0x40 MLOAD DUP1 SWAP2 SUB SWAP1 REVERT JUMPDEST JUMPDEST POP POP POP POP JUMP JUMPDEST PUSH1 0x60 PUSH2 0x1159 DUP3 PUSH2 0x139E JUMP JUMPDEST PUSH2 0x118F JUMPI PUSH1 0x40 MLOAD PUSH32 0xA14C4B5000000000000000000000000000000000000000000000000000000000 DUP2 MSTORE PUSH1 0x4 ADD PUSH1 0x40 MLOAD DUP1 SWAP2 SUB SWAP1 REVERT JUMPDEST PUSH1 0x0 PUSH2 0x1199 PUSH2 0x1A15 JUMP JUMPDEST SWAP1 POP PUSH1 0x0 DUP2 MLOAD EQ ISZERO PUSH2 0x11BA JUMPI PUSH1 0x40 MLOAD DUP1 PUSH1 0x20 ADD PUSH1 0x40 MSTORE DUP1 PUSH1 0x0 DUP2 MSTORE POP PUSH2 0x11E5 JUMP JUMPDEST DUP1 PUSH2 0x11C4 DUP5 PUSH2 0x1AA7 JUMP JUMPDEST PUSH1 0x40 MLOAD PUSH1 0x20 ADD PUSH2 0x11D5 SWAP3 SWAP2 SWAP1 PUSH2 0x21C2 JUMP JUMPDEST PUSH1 0x40 MLOAD PUSH1 0x20 DUP2 DUP4 SUB SUB DUP2 MSTORE SWAP1 PUSH1 0x40 MSTORE JUMPDEST SWAP2 POP POP SWAP2 SWAP1 POP JUMP JUMPDEST PUSH32 0x0 DUP2 JUMP JUMPDEST PUSH1 0x0 PUSH1 0x8 PUSH1 0x0 DUP5 PUSH20 0xFFFFFFFFFFFFFFFFFFFFFFFFFFFFFFFFFFFFFFFF AND PUSH20 0xFFFFFFFFFFFFFFFFFFFFFFFFFFFFFFFFFFFFFFFF AND DUP2 MSTORE PUSH1 0x20 ADD SWAP1 DUP2 MSTORE PUSH1 0x20 ADD PUSH1 0x0 KECCAK256 PUSH1 0x0 DUP4 PUSH20 0xFFFFFFFFFFFFFFFFFFFFFFFFFFFFFFFFFFFFFFFF AND PUSH20 0xFFFFFFFFFFFFFFFFFFFFFFFFFFFFFFFFFFFFFFFF AND DUP2 MSTORE PUSH1 0x20 ADD SWAP1 DUP2 MSTORE PUSH1 0x20 ADD PUSH1 0x0 KECCAK256 PUSH1 0x0 SWAP1 SLOAD SWAP1 PUSH2 0x100 EXP SWAP1 DIV PUSH1 0xFF AND SWAP1 POP SWAP3 SWAP2 POP POP JUMP JUMPDEST PUSH2 0x12AD PUSH2 0x15A2 JUMP JUMPDEST PUSH1 0x0 PUSH20 0xFFFFFFFFFFFFFFFFFFFFFFFFFFFFFFFFFFFFFFFF AND DUP2 PUSH20 0xFFFFFFFFFFFFFFFFFFFFFFFFFFFFFFFFFFFFFFFF AND EQ ISZERO PUSH2 0x131D JUMPI PUSH1 0x40 MLOAD PUSH32 0x8C379A000000000000000000000000000000000000000000000000000000000 DUP2 MSTORE PUSH1 0x4 ADD PUSH2 0x1314 SWAP1 PUSH2 0x229F JUMP JUMPDEST PUSH1 0x40 MLOAD DUP1 SWAP2 SUB SWAP1 REVERT JUMPDEST PUSH2 0x1326 DUP2 PUSH2 0x17F1 JUMP JUMPDEST POP JUMP JUMPDEST PUSH2 0x1331 PUSH2 0x15A2 JUMP JUMPDEST PUSH1 0x9 PUSH1 0x0 SWAP1 SLOAD SWAP1 PUSH2 0x100 EXP SWAP1 DIV PUSH1 0xFF AND ISZERO PUSH2 0x1381 JUMPI PUSH1 0x40 MLOAD PUSH32 0x8C379A000000000000000000000000000000000000000000000000000000000 DUP2 MSTORE PUSH1 0x4 ADD PUSH2 0x1378 SWAP1 PUSH2 0x22DF JUMP JUMPDEST PUSH1 0x40 MLOAD DUP1 SWAP2 SUB SWAP1 REVERT JUMPDEST DUP1 PUSH1 0x9 PUSH1 0x0 PUSH2 0x100 EXP DUP2 SLOAD DUP2 PUSH1 0xFF MUL NOT AND SWAP1 DUP4 ISZERO ISZERO MUL OR SWAP1 SSTORE POP POP JUMP JUMPDEST PUSH1 0x0 DUP2 PUSH2 0x13A9 PUSH2 0x1405 JUMP JUMPDEST GT ISZERO DUP1 ISZERO PUSH2 0x13B8 JUMPI POP PUSH1 0x1 SLOAD DUP3 LT JUMPDEST DUP1 ISZERO PUSH2 0x13F6 JUMPI POP PUSH1 0x0 PUSH29 0x100000000000000000000000000000000000000000000000000000000 PUSH1 0x5 PUSH1 0x0 DUP6 DUP2 MSTORE PUSH1 0x20 ADD SWAP1 DUP2 MSTORE PUSH1 0x20 ADD PUSH1 0x0 KECCAK256 SLOAD AND EQ JUMPDEST SWAP1 POP SWAP2 SWAP1 POP JUMP JUMPDEST PUSH1 0x0 CALLER SWAP1 POP SWAP1 JUMP JUMPDEST PUSH1 0x0 SWAP1 JUMP JUMPDEST PUSH1 0x0 DUP1 DUP3 SWAP1 POP DUP1 PUSH2 0x1419 PUSH2 0x1405 JUMP JUMPDEST GT PUSH2 0x14A1 JUMPI PUSH1 0x1 SLOAD DUP2 LT ISZERO PUSH2 0x14A0 JUMPI PUSH1 0x0 PUSH1 0x5 PUSH1 0x0 DUP4 DUP2 MSTORE PUSH1 0x20 ADD SWAP1 DUP2 MSTORE PUSH1 0x20 ADD PUSH1 0x0 KECCAK256 SLOAD SWAP1 POP PUSH1 0x0 PUSH29 0x100000000000000000000000000000000000000000000000000000000 DUP3 AND EQ ISZERO PUSH2 0x149E JUMPI JUMPDEST PUSH1 0x0 DUP2 EQ ISZERO PUSH2 0x1494 JUMPI PUSH1 0x5 PUSH1 0x0 DUP4 PUSH1 0x1 SWAP1 SUB SWAP4 POP DUP4 DUP2 MSTORE PUSH1 0x20 ADD SWAP1 DUP2 MSTORE PUSH1 0x20 ADD PUSH1 0x0 KECCAK256 SLOAD SWAP1 POP PUSH2 0x1469 JUMP JUMPDEST DUP1 SWAP3 POP POP POP PUSH2 0x14D3 JUMP JUMPDEST POP JUMPDEST JUMPDEST PUSH1 0x40 MLOAD PUSH32 0xDF2D9B4200000000000000000000000000000000000000000000000000000000 DUP2 MSTORE PUSH1 0x4 ADD PUSH1 0x40 MLOAD DUP1 SWAP2 SUB SWAP1 REVERT JUMPDEST SWAP2 SWAP1 POP JUMP JUMPDEST PUSH1 0x0 DUP1 PUSH1 0x0 PUSH1 0x7 PUSH1 0x0 DUP6 DUP2 MSTORE PUSH1 0x20 ADD SWAP1 DUP2 MSTORE PUSH1 0x20 ADD PUSH1 0x0 KECCAK256 SWAP1 POP DUP1 SWAP3 POP DUP3 SLOAD SWAP2 POP POP SWAP2 POP SWAP2 JUMP JUMPDEST PUSH1 0x0 PUSH20 0xFFFFFFFFFFFFFFFFFFFFFFFFFFFFFFFFFFFFFFFF DUP4 AND SWAP3 POP PUSH20 0xFFFFFFFFFFFFFFFFFFFFFFFFFFFFFFFFFFFFFFFF DUP3 AND SWAP2 POP DUP4 DUP3 EQ DUP4 DUP4 EQ OR SWAP1 POP SWAP4 SWAP3 POP POP POP JUMP JUMPDEST POP POP POP POP JUMP JUMPDEST PUSH1 0x0 DUP1 PUSH1 0xE8 DUP4 SWAP1 SHR SWAP1 POP PUSH1 0xE8 PUSH2 0x1560 DUP7 DUP7 DUP5 PUSH2 0x1B00 JUMP JUMPDEST PUSH3 0xFFFFFF AND SWAP1 SHL SWAP2 POP POP SWAP4 SWAP3 POP POP POP JUMP JUMPDEST PUSH1 0x0 PUSH20 0xFFFFFFFFFFFFFFFFFFFFFFFFFFFFFFFFFFFFFFFF DUP4 AND SWAP3 POP DUP2 TIMESTAMP PUSH1 0xA0 SHL OR DUP4 OR SWAP1 POP SWAP3 SWAP2 POP POP JUMP JUMPDEST POP POP POP POP JUMP JUMPDEST PUSH2 0x15AA PUSH2 0x1B09 JUMP JUMPDEST PUSH20 0xFFFFFFFFFFFFFFFFFFFFFFFFFFFFFFFFFFFFFFFF AND PUSH2 0x15C8 PUSH2 0xF15 JUMP JUMPDEST PUSH20 0xFFFFFFFFFFFFFFFFFFFFFFFFFFFFFFFFFFFFFFFF AND EQ PUSH2 0x161E JUMPI PUSH1 0x40 MLOAD PUSH32 0x8C379A000000000000000000000000000000000000000000000000000000000 DUP2 MSTORE PUSH1 0x4 ADD PUSH2 0x1615 SWAP1 PUSH2 0x231F JUMP JUMPDEST PUSH1 0x40 MLOAD DUP1 SWAP2 SUB SWAP1 REVERT JUMPDEST JUMP JUMPDEST PUSH1 0x0 PUSH2 0x162A PUSH2 0x1405 JUMP JUMPDEST PUSH1 0x1 SLOAD SUB SWAP1 POP SWAP1 JUMP JUMPDEST PUSH1 0x0 PUSH1 0x1 SLOAD SWAP1 POP PUSH1 0x0 DUP3 EQ ISZERO PUSH2 0x1675 JUMPI PUSH1 0x40 MLOAD PUSH32 0xB562E8DD00000000000000000000000000000000000000000000000000000000 DUP2 MSTORE PUSH1 0x4 ADD PUSH1 0x40 MLOAD DUP1 SWAP2 SUB SWAP1 REVERT JUMPDEST PUSH2 0x1682 PUSH1 0x0 DUP5 DUP4 DUP6 PUSH2 0x1543 JUMP JUMPDEST PUSH1 0x1 PUSH1 0x40 PUSH1 0x1 SWAP1 SHL OR DUP3 MUL PUSH1 0x6 PUSH1 0x0 DUP6 PUSH20 0xFFFFFFFFFFFFFFFFFFFFFFFFFFFFFFFFFFFFFFFF AND PUSH20 0xFFFFFFFFFFFFFFFFFFFFFFFFFFFFFFFFFFFFFFFF AND DUP2 MSTORE PUSH1 0x20 ADD SWAP1 DUP2 MSTORE PUSH1 0x20 ADD PUSH1 0x0 KECCAK256 PUSH1 0x0 DUP3 DUP3 SLOAD ADD SWAP3 POP POP DUP2 SWAP1 SSTORE POP PUSH2 0x16F9 DUP4 PUSH2 0x16EA PUSH1 0x0 DUP7 PUSH1 0x0 PUSH2 0x1549 JUMP JUMPDEST PUSH2 0x16F3 DUP6 PUSH2 0x1B11 JUMP JUMPDEST OR PUSH2 0x1571 JUMP JUMPDEST PUSH1 0x5 PUSH1 0x0 DUP4 DUP2 MSTORE PUSH1 0x20 ADD SWAP1 DUP2 MSTORE PUSH1 0x20 ADD PUSH1 0x0 KECCAK256 DUP2 SWAP1 SSTORE POP PUSH1 0x0 DUP1 DUP4 DUP4 ADD SWAP1 POP PUSH20 0xFFFFFFFFFFFFFFFFFFFFFFFFFFFFFFFFFFFFFFFF DUP6 AND SWAP2 POP DUP3 DUP3 PUSH1 0x0 PUSH32 0xDDF252AD1BE2C89B69C2B068FC378DAA952BA7F163C4A11628F55A4DF523B3EF PUSH1 0x0 DUP1 LOG4 PUSH1 0x1 DUP4 ADD JUMPDEST DUP2 DUP2 EQ PUSH2 0x179A JUMPI DUP1 DUP4 PUSH1 0x0 PUSH32 0xDDF252AD1BE2C89B69C2B068FC378DAA952BA7F163C4A11628F55A4DF523B3EF PUSH1 0x0 DUP1 LOG4 PUSH1 0x1 DUP2 ADD SWAP1 POP PUSH2 0x175F JUMP JUMPDEST POP PUSH1 0x0 DUP3 EQ ISZERO PUSH2 0x17D6 JUMPI PUSH1 0x40 MLOAD PUSH32 0x2E07630000000000000000000000000000000000000000000000000000000000 DUP2 MSTORE PUSH1 0x4 ADD PUSH1 0x40 MLOAD DUP1 SWAP2 SUB SWAP1 REVERT JUMPDEST DUP1 PUSH1 0x1 DUP2 SWAP1 SSTORE POP POP POP PUSH2 0x17EC PUSH1 0x0 DUP5 DUP4 DUP6 PUSH2 0x159C JUMP JUMPDEST POP POP POP JUMP JUMPDEST PUSH1 0x0 DUP1 PUSH1 0x0 SWAP1 SLOAD SWAP1 PUSH2 0x100 EXP SWAP1 DIV PUSH20 0xFFFFFFFFFFFFFFFFFFFFFFFFFFFFFFFFFFFFFFFF AND SWAP1 POP DUP2 PUSH1 0x0 DUP1 PUSH2 0x100 EXP DUP2 SLOAD DUP2 PUSH20 0xFFFFFFFFFFFFFFFFFFFFFFFFFFFFFFFFFFFFFFFF MUL NOT AND SWAP1 DUP4 PUSH20 0xFFFFFFFFFFFFFFFFFFFFFFFFFFFFFFFFFFFFFFFF AND MUL OR SWAP1 SSTORE POP DUP2 PUSH20 0xFFFFFFFFFFFFFFFFFFFFFFFFFFFFFFFFFFFFFFFF AND DUP2 PUSH20 0xFFFFFFFFFFFFFFFFFFFFFFFFFFFFFFFFFFFFFFFF AND PUSH32 0x8BE0079C531659141344CD1FD0A4F28419497F9722A3DAAFE3B4186F6B6457E0 PUSH1 0x40 MLOAD PUSH1 0x40 MLOAD DUP1 SWAP2 SUB SWAP1 LOG3 POP POP JUMP JUMPDEST PUSH1 0x0 DUP4 PUSH20 0xFFFFFFFFFFFFFFFFFFFFFFFFFFFFFFFFFFFFFFFF AND PUSH4 0x150B7A02 PUSH2 0x18DB PUSH2 0x13FD JUMP JUMPDEST DUP8 DUP7 DUP7 PUSH1 0x40 MLOAD DUP6 PUSH4 0xFFFFFFFF AND PUSH1 0xE0 SHL DUP2 MSTORE PUSH1 0x4 ADD PUSH2 0x18FD SWAP5 SWAP4 SWAP3 SWAP2 SWAP1 PUSH2 0x2216 JUMP JUMPDEST PUSH1 0x20 PUSH1 0x40 MLOAD DUP1 DUP4 SUB DUP2 PUSH1 0x0 DUP8 DUP1 EXTCODESIZE ISZERO DUP1 ISZERO PUSH2 0x1917 JUMPI PUSH1 0x0 DUP1 REVERT JUMPDEST POP GAS CALL SWAP3 POP POP POP DUP1 ISZERO PUSH2 0x1948 JUMPI POP PUSH1 0x40 MLOAD RETURNDATASIZE PUSH1 0x1F NOT PUSH1 0x1F DUP3 ADD AND DUP3 ADD DUP1 PUSH1 0x40 MSTORE POP DUP2 ADD SWAP1 PUSH2 0x1945 SWAP2 SWAP1 PUSH2 0x1F10 JUMP JUMPDEST PUSH1 0x1 JUMPDEST PUSH2 0x19C2 JUMPI RETURNDATASIZE DUP1 PUSH1 0x0 DUP2 EQ PUSH2 0x1978 JUMPI PUSH1 0x40 MLOAD SWAP2 POP PUSH1 0x1F NOT PUSH1 0x3F RETURNDATASIZE ADD AND DUP3 ADD PUSH1 0x40 MSTORE RETURNDATASIZE DUP3 MSTORE RETURNDATASIZE PUSH1 0x0 PUSH1 0x20 DUP5 ADD RETURNDATACOPY PUSH2 0x197D JUMP JUMPDEST PUSH1 0x60 SWAP2 POP JUMPDEST POP PUSH1 0x0 DUP2 MLOAD EQ ISZERO PUSH2 0x19BA JUMPI PUSH1 0x40 MLOAD PUSH32 0xD1A57ED600000000000000000000000000000000000000000000000000000000 DUP2 MSTORE PUSH1 0x4 ADD PUSH1 0x40 MLOAD DUP1 SWAP2 SUB SWAP1 REVERT JUMPDEST DUP1 MLOAD DUP2 PUSH1 0x20 ADD REVERT JUMPDEST PUSH4 0x150B7A02 PUSH1 0xE0 SHL PUSH28 0xFFFFFFFFFFFFFFFFFFFFFFFFFFFFFFFFFFFFFFFFFFFFFFFFFFFFFFFF NOT AND DUP2 PUSH28 0xFFFFFFFFFFFFFFFFFFFFFFFFFFFFFFFFFFFFFFFFFFFFFFFFFFFFFFFF NOT AND EQ SWAP2 POP POP SWAP5 SWAP4 POP POP POP POP JUMP JUMPDEST PUSH1 0x60 PUSH1 0xA DUP1 SLOAD PUSH2 0x1A24 SWAP1 PUSH2 0x25C4 JUMP JUMPDEST DUP1 PUSH1 0x1F ADD PUSH1 0x20 DUP1 SWAP2 DIV MUL PUSH1 0x20 ADD PUSH1 0x40 MLOAD SWAP1 DUP2 ADD PUSH1 0x40 MSTORE DUP1 SWAP3 SWAP2 SWAP1 DUP2 DUP2 MSTORE PUSH1 0x20 ADD DUP3 DUP1 SLOAD PUSH2 0x1A50 SWAP1 PUSH2 0x25C4 JUMP JUMPDEST DUP1 ISZERO PUSH2 0x1A9D JUMPI DUP1 PUSH1 0x1F LT PUSH2 0x1A72 JUMPI PUSH2 0x100 DUP1 DUP4 SLOAD DIV MUL DUP4 MSTORE SWAP2 PUSH1 0x20 ADD SWAP2 PUSH2 0x1A9D JUMP JUMPDEST DUP3 ADD SWAP2 SWAP1 PUSH1 0x0 MSTORE PUSH1 0x20 PUSH1 0x0 KECCAK256 SWAP1 JUMPDEST DUP2 SLOAD DUP2 MSTORE SWAP1 PUSH1 0x1 ADD SWAP1 PUSH1 0x20 ADD DUP1 DUP4 GT PUSH2 0x1A80 JUMPI DUP3 SWAP1 SUB PUSH1 0x1F AND DUP3 ADD SWAP2 JUMPDEST POP POP POP POP POP SWAP1 POP SWAP1 JUMP JUMPDEST PUSH1 0x60 PUSH1 0xA0 PUSH1 0x40 MLOAD ADD DUP1 PUSH1 0x40 MSTORE PUSH1 0x20 DUP2 SUB SWAP2 POP PUSH1 0x0 DUP3 MSTORE DUP2 DUP4 JUMPDEST PUSH1 0x1 ISZERO PUSH2 0x1AEB JUMPI PUSH1 0x1 DUP5 SUB SWAP4 POP PUSH1 0xA DUP2 MOD PUSH1 0x30 ADD DUP5 MSTORE8 PUSH1 0xA DUP2 DIV SWAP1 POP DUP1 PUSH2 0x1AE6 JUMPI PUSH2 0x1AEB JUMP JUMPDEST PUSH2 0x1AC0 JUMP JUMPDEST POP DUP3 DUP2 SUB PUSH1 0x20 DUP5 SUB SWAP4 POP DUP1 DUP5 MSTORE POP POP POP SWAP2 SWAP1 POP JUMP JUMPDEST PUSH1 0x0 SWAP4 SWAP3 POP POP POP JUMP JUMPDEST PUSH1 0x0 CALLER SWAP1 POP SWAP1 JUMP JUMPDEST PUSH1 0x0 PUSH1 0x1 DUP3 EQ PUSH1 0xE1 SHL SWAP1 POP SWAP2 SWAP1 POP JUMP JUMPDEST DUP3 DUP1 SLOAD PUSH2 0x1B2D SWAP1 PUSH2 0x25C4 JUMP JUMPDEST SWAP1 PUSH1 0x0 MSTORE PUSH1 0x20 PUSH1 0x0 KECCAK256 SWAP1 PUSH1 0x1F ADD PUSH1 0x20 SWAP1 DIV DUP2 ADD SWAP3 DUP3 PUSH2 0x1B4F JUMPI PUSH1 0x0 DUP6 SSTORE PUSH2 0x1B96 JUMP JUMPDEST DUP3 PUSH1 0x1F LT PUSH2 0x1B68 JUMPI DUP1 CALLDATALOAD PUSH1 0xFF NOT AND DUP4 DUP1 ADD OR DUP6 SSTORE PUSH2 0x1B96 JUMP JUMPDEST DUP3 DUP1 ADD PUSH1 0x1 ADD DUP6 SSTORE DUP3 ISZERO PUSH2 0x1B96 JUMPI SWAP2 DUP3 ADD JUMPDEST DUP3 DUP2 GT ISZERO PUSH2 0x1B95 JUMPI DUP3 CALLDATALOAD DUP3 SSTORE SWAP2 PUSH1 0x20 ADD SWAP2 SWAP1 PUSH1 0x1 ADD SWAP1 PUSH2 0x1B7A JUMP JUMPDEST JUMPDEST POP SWAP1 POP PUSH2 0x1BA3 SWAP2 SWAP1 PUSH2 0x1BA7 JUMP JUMPDEST POP SWAP1 JUMP JUMPDEST JUMPDEST DUP1 DUP3 GT ISZERO PUSH2 0x1BC0 JUMPI PUSH1 0x0 DUP2 PUSH1 0x0 SWAP1 SSTORE POP PUSH1 0x1 ADD PUSH2 0x1BA8 JUMP JUMPDEST POP SWAP1 JUMP JUMPDEST PUSH1 0x0 PUSH2 0x1BD7 PUSH2 0x1BD2 DUP5 PUSH2 0x23DF JUMP JUMPDEST PUSH2 0x23BA JUMP JUMPDEST SWAP1 POP DUP3 DUP2 MSTORE PUSH1 0x20 DUP2 ADD DUP5 DUP5 DUP5 ADD GT ISZERO PUSH2 0x1BF3 JUMPI PUSH2 0x1BF2 PUSH2 0x26C3 JUMP JUMPDEST JUMPDEST PUSH2 0x1BFE DUP5 DUP3 DUP6 PUSH2 0x2582 JUMP JUMPDEST POP SWAP4 SWAP3 POP POP POP JUMP JUMPDEST PUSH1 0x0 DUP2 CALLDATALOAD SWAP1 POP PUSH2 0x1C15 DUP2 PUSH2 0x2854 JUMP JUMPDEST SWAP3 SWAP2 POP POP JUMP JUMPDEST PUSH1 0x0 DUP2 CALLDATALOAD SWAP1 POP PUSH2 0x1C2A DUP2 PUSH2 0x286B JUMP JUMPDEST SWAP3 SWAP2 POP POP JUMP JUMPDEST PUSH1 0x0 DUP2 CALLDATALOAD SWAP1 POP PUSH2 0x1C3F DUP2 PUSH2 0x2882 JUMP JUMPDEST SWAP3 SWAP2 POP POP JUMP JUMPDEST PUSH1 0x0 DUP2 MLOAD SWAP1 POP PUSH2 0x1C54 DUP2 PUSH2 0x2882 JUMP JUMPDEST SWAP3 SWAP2 POP POP JUMP JUMPDEST PUSH1 0x0 DUP3 PUSH1 0x1F DUP4 ADD SLT PUSH2 0x1C6F JUMPI PUSH2 0x1C6E PUSH2 0x26B9 JUMP JUMPDEST JUMPDEST DUP2 CALLDATALOAD PUSH2 0x1C7F DUP5 DUP3 PUSH1 0x20 DUP7 ADD PUSH2 0x1BC4 JUMP JUMPDEST SWAP2 POP POP SWAP3 SWAP2 POP POP JUMP JUMPDEST PUSH1 0x0 DUP1 DUP4 PUSH1 0x1F DUP5 ADD SLT PUSH2 0x1C9E JUMPI PUSH2 0x1C9D PUSH2 0x26B9 JUMP JUMPDEST JUMPDEST DUP3 CALLDATALOAD SWAP1 POP PUSH8 0xFFFFFFFFFFFFFFFF DUP2 GT ISZERO PUSH2 0x1CBB JUMPI PUSH2 0x1CBA PUSH2 0x26B4 JUMP JUMPDEST JUMPDEST PUSH1 0x20 DUP4 ADD SWAP2 POP DUP4 PUSH1 0x1 DUP3 MUL DUP4 ADD GT ISZERO PUSH2 0x1CD7 JUMPI PUSH2 0x1CD6 PUSH2 0x26BE JUMP JUMPDEST JUMPDEST SWAP3 POP SWAP3 SWAP1 POP JUMP JUMPDEST PUSH1 0x0 DUP2 CALLDATALOAD SWAP1 POP PUSH2 0x1CED DUP2 PUSH2 0x2899 JUMP JUMPDEST SWAP3 SWAP2 POP POP JUMP JUMPDEST PUSH1 0x0 PUSH1 0x20 DUP3 DUP5 SUB SLT ISZERO PUSH2 0x1D09 JUMPI PUSH2 0x1D08 PUSH2 0x26CD JUMP JUMPDEST JUMPDEST PUSH1 0x0 PUSH2 0x1D17 DUP5 DUP3 DUP6 ADD PUSH2 0x1C06 JUMP JUMPDEST SWAP2 POP POP SWAP3 SWAP2 POP POP JUMP JUMPDEST PUSH1 0x0 DUP1 PUSH1 0x40 DUP4 DUP6 SUB SLT ISZERO PUSH2 0x1D37 JUMPI PUSH2 0x1D36 PUSH2 0x26CD JUMP JUMPDEST JUMPDEST PUSH1 0x0 PUSH2 0x1D45 DUP6 DUP3 DUP7 ADD PUSH2 0x1C06 JUMP JUMPDEST SWAP3 POP POP PUSH1 0x20 PUSH2 0x1D56 DUP6 DUP3 DUP7 ADD PUSH2 0x1C06 JUMP JUMPDEST SWAP2 POP POP SWAP3 POP SWAP3 SWAP1 POP JUMP JUMPDEST PUSH1 0x0 DUP1 PUSH1 0x0 PUSH1 0x60 DUP5 DUP7 SUB SLT ISZERO PUSH2 0x1D79 JUMPI PUSH2 0x1D78 PUSH2 0x26CD JUMP JUMPDEST JUMPDEST PUSH1 0x0 PUSH2 0x1D87 DUP7 DUP3 DUP8 ADD PUSH2 0x1C06 JUMP JUMPDEST SWAP4 POP POP PUSH1 0x20 PUSH2 0x1D98 DUP7 DUP3 DUP8 ADD PUSH2 0x1C06 JUMP JUMPDEST SWAP3 POP POP PUSH1 0x40 PUSH2 0x1DA9 DUP7 DUP3 DUP8 ADD PUSH2 0x1CDE JUMP JUMPDEST SWAP2 POP POP SWAP3 POP SWAP3 POP SWAP3 JUMP JUMPDEST PUSH1 0x0 DUP1 PUSH1 0x0 DUP1 PUSH1 0x80 DUP6 DUP8 SUB SLT ISZERO PUSH2 0x1DCD JUMPI PUSH2 0x1DCC PUSH2 0x26CD JUMP JUMPDEST JUMPDEST PUSH1 0x0 PUSH2 0x1DDB DUP8 DUP3 DUP9 ADD PUSH2 0x1C06 JUMP JUMPDEST SWAP5 POP POP PUSH1 0x20 PUSH2 0x1DEC DUP8 DUP3 DUP9 ADD PUSH2 0x1C06 JUMP JUMPDEST SWAP4 POP POP PUSH1 0x40 PUSH2 0x1DFD DUP8 DUP3 DUP9 ADD PUSH2 0x1CDE JUMP JUMPDEST SWAP3 POP POP PUSH1 0x60 DUP6 ADD CALLDATALOAD PUSH8 0xFFFFFFFFFFFFFFFF DUP2 GT ISZERO PUSH2 0x1E1E JUMPI PUSH2 0x1E1D PUSH2 0x26C8 JUMP JUMPDEST JUMPDEST PUSH2 0x1E2A DUP8 DUP3 DUP9 ADD PUSH2 0x1C5A JUMP JUMPDEST SWAP2 POP POP SWAP3 SWAP6 SWAP2 SWAP5 POP SWAP3 POP JUMP JUMPDEST PUSH1 0x0 DUP1 PUSH1 0x40 DUP4 DUP6 SUB SLT ISZERO PUSH2 0x1E4D JUMPI PUSH2 0x1E4C PUSH2 0x26CD JUMP JUMPDEST JUMPDEST PUSH1 0x0 PUSH2 0x1E5B DUP6 DUP3 DUP7 ADD PUSH2 0x1C06 JUMP JUMPDEST SWAP3 POP POP PUSH1 0x20 PUSH2 0x1E6C DUP6 DUP3 DUP7 ADD PUSH2 0x1C1B JUMP JUMPDEST SWAP2 POP POP SWAP3 POP SWAP3 SWAP1 POP JUMP JUMPDEST PUSH1 0x0 DUP1 PUSH1 0x40 DUP4 DUP6 SUB SLT ISZERO PUSH2 0x1E8D JUMPI PUSH2 0x1E8C PUSH2 0x26CD JUMP JUMPDEST JUMPDEST PUSH1 0x0 PUSH2 0x1E9B DUP6 DUP3 DUP7 ADD PUSH2 0x1C06 JUMP JUMPDEST SWAP3 POP POP PUSH1 0x20 PUSH2 0x1EAC DUP6 DUP3 DUP7 ADD PUSH2 0x1CDE JUMP JUMPDEST SWAP2 POP POP SWAP3 POP SWAP3 SWAP1 POP JUMP JUMPDEST PUSH1 0x0 PUSH1 0x20 DUP3 DUP5 SUB SLT ISZERO PUSH2 0x1ECC JUMPI PUSH2 0x1ECB PUSH2 0x26CD JUMP JUMPDEST JUMPDEST PUSH1 0x0 PUSH2 0x1EDA DUP5 DUP3 DUP6 ADD PUSH2 0x1C1B JUMP JUMPDEST SWAP2 POP POP SWAP3 SWAP2 POP POP JUMP JUMPDEST PUSH1 0x0 PUSH1 0x20 DUP3 DUP5 SUB SLT ISZERO PUSH2 0x1EF9 JUMPI PUSH2 0x1EF8 PUSH2 0x26CD JUMP JUMPDEST JUMPDEST PUSH1 0x0 PUSH2 0x1F07 DUP5 DUP3 DUP6 ADD PUSH2 0x1C30 JUMP JUMPDEST SWAP2 POP POP SWAP3 SWAP2 POP POP JUMP JUMPDEST PUSH1 0x0 PUSH1 0x20 DUP3 DUP5 SUB SLT ISZERO PUSH2 0x1F26 JUMPI PUSH2 0x1F25 PUSH2 0x26CD JUMP JUMPDEST JUMPDEST PUSH1 0x0 PUSH2 0x1F34 DUP5 DUP3 DUP6 ADD PUSH2 0x1C45 JUMP JUMPDEST SWAP2 POP POP SWAP3 SWAP2 POP POP JUMP JUMPDEST PUSH1 0x0 DUP1 PUSH1 0x20 DUP4 DUP6 SUB SLT ISZERO PUSH2 0x1F54 JUMPI PUSH2 0x1F53 PUSH2 0x26CD JUMP JUMPDEST JUMPDEST PUSH1 0x0 DUP4 ADD CALLDATALOAD PUSH8 0xFFFFFFFFFFFFFFFF DUP2 GT ISZERO PUSH2 0x1F72 JUMPI PUSH2 0x1F71 PUSH2 0x26C8 JUMP JUMPDEST JUMPDEST PUSH2 0x1F7E DUP6 DUP3 DUP7 ADD PUSH2 0x1C88 JUMP JUMPDEST SWAP3 POP SWAP3 POP POP SWAP3 POP SWAP3 SWAP1 POP JUMP JUMPDEST PUSH1 0x0 PUSH1 0x20 DUP3 DUP5 SUB SLT ISZERO PUSH2 0x1FA0 JUMPI PUSH2 0x1F9F PUSH2 0x26CD JUMP JUMPDEST JUMPDEST PUSH1 0x0 PUSH2 0x1FAE DUP5 DUP3 DUP6 ADD PUSH2 0x1CDE JUMP JUMPDEST SWAP2 POP POP SWAP3 SWAP2 POP POP JUMP JUMPDEST PUSH2 0x1FC0 DUP2 PUSH2 0x250E JUMP JUMPDEST DUP3 MSTORE POP POP JUMP JUMPDEST PUSH2 0x1FCF DUP2 PUSH2 0x2520 JUMP JUMPDEST DUP3 MSTORE POP POP JUMP JUMPDEST PUSH1 0x0 PUSH2 0x1FE0 DUP3 PUSH2 0x2410 JUMP JUMPDEST PUSH2 0x1FEA DUP2 DUP6 PUSH2 0x2426 JUMP JUMPDEST SWAP4 POP PUSH2 0x1FFA DUP2 DUP6 PUSH1 0x20 DUP7 ADD PUSH2 0x2591 JUMP JUMPDEST PUSH2 0x2003 DUP2 PUSH2 0x26D2 JUMP JUMPDEST DUP5 ADD SWAP2 POP POP SWAP3 SWAP2 POP POP JUMP JUMPDEST PUSH1 0x0 PUSH2 0x2019 DUP3 PUSH2 0x241B JUMP JUMPDEST PUSH2 0x2023 DUP2 DUP6 PUSH2 0x2442 JUMP JUMPDEST SWAP4 POP PUSH2 0x2033 DUP2 DUP6 PUSH1 0x20 DUP7 ADD PUSH2 0x2591 JUMP JUMPDEST PUSH2 0x203C DUP2 PUSH2 0x26D2 JUMP JUMPDEST DUP5 ADD SWAP2 POP POP SWAP3 SWAP2 POP POP JUMP JUMPDEST PUSH1 0x0 PUSH2 0x2052 DUP3 PUSH2 0x241B JUMP JUMPDEST PUSH2 0x205C DUP2 DUP6 PUSH2 0x2453 JUMP JUMPDEST SWAP4 POP PUSH2 0x206C DUP2 DUP6 PUSH1 0x20 DUP7 ADD PUSH2 0x2591 JUMP JUMPDEST DUP1 DUP5 ADD SWAP2 POP POP SWAP3 SWAP2 POP POP JUMP JUMPDEST PUSH1 0x0 PUSH2 0x2085 PUSH1 0x26 DUP4 PUSH2 0x2442 JUMP JUMPDEST SWAP2 POP PUSH2 0x2090 DUP3 PUSH2 0x26E3 JUMP JUMPDEST PUSH1 0x40 DUP3 ADD SWAP1 POP SWAP2 SWAP1 POP JUMP JUMPDEST PUSH1 0x0 PUSH2 0x20A8 PUSH1 0x12 DUP4 PUSH2 0x2442 JUMP JUMPDEST SWAP2 POP PUSH2 0x20B3 DUP3 PUSH2 0x2732 JUMP JUMPDEST PUSH1 0x20 DUP3 ADD SWAP1 POP SWAP2 SWAP1 POP JUMP JUMPDEST PUSH1 0x0 PUSH2 0x20CB PUSH1 0x10 DUP4 PUSH2 0x2442 JUMP JUMPDEST SWAP2 POP PUSH2 0x20D6 DUP3 PUSH2 0x275B JUMP JUMPDEST PUSH1 0x20 DUP3 ADD SWAP1 POP SWAP2 SWAP1 POP JUMP JUMPDEST PUSH1 0x0 PUSH2 0x20EE PUSH1 0x10 DUP4 PUSH2 0x2442 JUMP JUMPDEST SWAP2 POP PUSH2 0x20F9 DUP3 PUSH2 0x2784 JUMP JUMPDEST PUSH1 0x20 DUP3 ADD SWAP1 POP SWAP2 SWAP1 POP JUMP JUMPDEST PUSH1 0x0 PUSH2 0x2111 PUSH1 0x20 DUP4 PUSH2 0x2442 JUMP JUMPDEST SWAP2 POP PUSH2 0x211C DUP3 PUSH2 0x27AD JUMP JUMPDEST PUSH1 0x20 DUP3 ADD SWAP1 POP SWAP2 SWAP1 POP JUMP JUMPDEST PUSH1 0x0 PUSH2 0x2134 PUSH1 0xE DUP4 PUSH2 0x2442 JUMP JUMPDEST SWAP2 POP PUSH2 0x213F DUP3 PUSH2 0x27D6 JUMP JUMPDEST PUSH1 0x20 DUP3 ADD SWAP1 POP SWAP2 SWAP1 POP JUMP JUMPDEST PUSH1 0x0 PUSH2 0x2157 PUSH1 0xF DUP4 PUSH2 0x2442 JUMP JUMPDEST SWAP2 POP PUSH2 0x2162 DUP3 PUSH2 0x27FF JUMP JUMPDEST PUSH1 0x20 DUP3 ADD SWAP1 POP SWAP2 SWAP1 POP JUMP JUMPDEST PUSH1 0x0 PUSH2 0x217A PUSH1 0x0 DUP4 PUSH2 0x2437 JUMP JUMPDEST SWAP2 POP PUSH2 0x2185 DUP3 PUSH2 0x2828 JUMP JUMPDEST PUSH1 0x0 DUP3 ADD SWAP1 POP SWAP2 SWAP1 POP JUMP JUMPDEST PUSH1 0x0 PUSH2 0x219D PUSH1 0xE DUP4 PUSH2 0x2442 JUMP JUMPDEST SWAP2 POP PUSH2 0x21A8 DUP3 PUSH2 0x282B JUMP JUMPDEST PUSH1 0x20 DUP3 ADD SWAP1 POP SWAP2 SWAP1 POP JUMP JUMPDEST PUSH2 0x21BC DUP2 PUSH2 0x2578 JUMP JUMPDEST DUP3 MSTORE POP POP JUMP JUMPDEST PUSH1 0x0 PUSH2 0x21CE DUP3 DUP6 PUSH2 0x2047 JUMP JUMPDEST SWAP2 POP PUSH2 0x21DA DUP3 DUP5 PUSH2 0x2047 JUMP JUMPDEST SWAP2 POP DUP2 SWAP1 POP SWAP4 SWAP3 POP POP POP JUMP JUMPDEST PUSH1 0x0 PUSH2 0x21F1 DUP3 PUSH2 0x216D JUMP JUMPDEST SWAP2 POP DUP2 SWAP1 POP SWAP2 SWAP1 POP JUMP JUMPDEST PUSH1 0x0 PUSH1 0x20 DUP3 ADD SWAP1 POP PUSH2 0x2210 PUSH1 0x0 DUP4 ADD DUP5 PUSH2 0x1FB7 JUMP JUMPDEST SWAP3 SWAP2 POP POP JUMP JUMPDEST PUSH1 0x0 PUSH1 0x80 DUP3 ADD SWAP1 POP PUSH2 0x222B PUSH1 0x0 DUP4 ADD DUP8 PUSH2 0x1FB7 JUMP JUMPDEST PUSH2 0x2238 PUSH1 0x20 DUP4 ADD DUP7 PUSH2 0x1FB7 JUMP JUMPDEST PUSH2 0x2245 PUSH1 0x40 DUP4 ADD DUP6 PUSH2 0x21B3 JUMP JUMPDEST DUP2 DUP2 SUB PUSH1 0x60 DUP4 ADD MSTORE PUSH2 0x2257 DUP2 DUP5 PUSH2 0x1FD5 JUMP JUMPDEST SWAP1 POP SWAP6 SWAP5 POP POP POP POP POP JUMP JUMPDEST PUSH1 0x0 PUSH1 0x20 DUP3 ADD SWAP1 POP PUSH2 0x2277 PUSH1 0x0 DUP4 ADD DUP5 PUSH2 0x1FC6 JUMP JUMPDEST SWAP3 SWAP2 POP POP JUMP JUMPDEST PUSH1 0x0 PUSH1 0x20 DUP3 ADD SWAP1 POP DUP2 DUP2 SUB PUSH1 0x0 DUP4 ADD MSTORE PUSH2 0x2297 DUP2 DUP5 PUSH2 0x200E JUMP JUMPDEST SWAP1 POP SWAP3 SWAP2 POP POP JUMP JUMPDEST PUSH1 0x0 PUSH1 0x20 DUP3 ADD SWAP1 POP DUP2 DUP2 SUB PUSH1 0x0 DUP4 ADD MSTORE PUSH2 0x22B8 DUP2 PUSH2 0x2078 JUMP JUMPDEST SWAP1 POP SWAP2 SWAP1 POP JUMP JUMPDEST PUSH1 0x0 PUSH1 0x20 DUP3 ADD SWAP1 POP DUP2 DUP2 SUB PUSH1 0x0 DUP4 ADD MSTORE PUSH2 0x22D8 DUP2 PUSH2 0x209B JUMP JUMPDEST SWAP1 POP SWAP2 SWAP1 POP JUMP JUMPDEST PUSH1 0x0 PUSH1 0x20 DUP3 ADD SWAP1 POP DUP2 DUP2 SUB PUSH1 0x0 DUP4 ADD MSTORE PUSH2 0x22F8 DUP2 PUSH2 0x20BE JUMP JUMPDEST SWAP1 POP SWAP2 SWAP1 POP JUMP JUMPDEST PUSH1 0x0 PUSH1 0x20 DUP3 ADD SWAP1 POP DUP2 DUP2 SUB PUSH1 0x0 DUP4 ADD MSTORE PUSH2 0x2318 DUP2 PUSH2 0x20E1 JUMP JUMPDEST SWAP1 POP SWAP2 SWAP1 POP JUMP JUMPDEST PUSH1 0x0 PUSH1 0x20 DUP3 ADD SWAP1 POP DUP2 DUP2 SUB PUSH1 0x0 DUP4 ADD MSTORE PUSH2 0x2338 DUP2 PUSH2 0x2104 JUMP JUMPDEST SWAP1 POP SWAP2 SWAP1 POP JUMP JUMPDEST PUSH1 0x0 PUSH1 0x20 DUP3 ADD SWAP1 POP DUP2 DUP2 SUB PUSH1 0x0 DUP4 ADD MSTORE PUSH2 0x2358 DUP2 PUSH2 0x2127 JUMP JUMPDEST SWAP1 POP SWAP2 SWAP1 POP JUMP JUMPDEST PUSH1 0x0 PUSH1 0x20 DUP3 ADD SWAP1 POP DUP2 DUP2 SUB PUSH1 0x0 DUP4 ADD MSTORE PUSH2 0x2378 DUP2 PUSH2 0x214A JUMP JUMPDEST SWAP1 POP SWAP2 SWAP1 POP JUMP JUMPDEST PUSH1 0x0 PUSH1 0x20 DUP3 ADD SWAP1 POP DUP2 DUP2 SUB PUSH1 0x0 DUP4 ADD MSTORE PUSH2 0x2398 DUP2 PUSH2 0x2190 JUMP JUMPDEST SWAP1 POP SWAP2 SWAP1 POP JUMP JUMPDEST PUSH1 0x0 PUSH1 0x20 DUP3 ADD SWAP1 POP PUSH2 0x23B4 PUSH1 0x0 DUP4 ADD DUP5 PUSH2 0x21B3 JUMP JUMPDEST SWAP3 SWAP2 POP POP JUMP JUMPDEST PUSH1 0x0 PUSH2 0x23C4 PUSH2 0x23D5 JUMP JUMPDEST SWAP1 POP PUSH2 0x23D0 DUP3 DUP3 PUSH2 0x25F6 JUMP JUMPDEST SWAP2 SWAP1 POP JUMP JUMPDEST PUSH1 0x0 PUSH1 0x40 MLOAD SWAP1 POP SWAP1 JUMP JUMPDEST PUSH1 0x0 PUSH8 0xFFFFFFFFFFFFFFFF DUP3 GT ISZERO PUSH2 0x23FA JUMPI PUSH2 0x23F9 PUSH2 0x2685 JUMP JUMPDEST JUMPDEST PUSH2 0x2403 DUP3 PUSH2 0x26D2 JUMP JUMPDEST SWAP1 POP PUSH1 0x20 DUP2 ADD SWAP1 POP SWAP2 SWAP1 POP JUMP JUMPDEST PUSH1 0x0 DUP2 MLOAD SWAP1 POP SWAP2 SWAP1 POP JUMP JUMPDEST PUSH1 0x0 DUP2 MLOAD SWAP1 POP SWAP2 SWAP1 POP JUMP JUMPDEST PUSH1 0x0 DUP3 DUP3 MSTORE PUSH1 0x20 DUP3 ADD SWAP1 POP SWAP3 SWAP2 POP POP JUMP JUMPDEST PUSH1 0x0 DUP2 SWAP1 POP SWAP3 SWAP2 POP POP JUMP JUMPDEST PUSH1 0x0 DUP3 DUP3 MSTORE PUSH1 0x20 DUP3 ADD SWAP1 POP SWAP3 SWAP2 POP POP JUMP JUMPDEST PUSH1 0x0 DUP2 SWAP1 POP SWAP3 SWAP2 POP POP JUMP JUMPDEST PUSH1 0x0 PUSH2 0x2469 DUP3 PUSH2 0x2578 JUMP JUMPDEST SWAP2 POP PUSH2 0x2474 DUP4 PUSH2 0x2578 JUMP JUMPDEST SWAP3 POP DUP3 PUSH32 0xFFFFFFFFFFFFFFFFFFFFFFFFFFFFFFFFFFFFFFFFFFFFFFFFFFFFFFFFFFFFFFFF SUB DUP3 GT ISZERO PUSH2 0x24A9 JUMPI PUSH2 0x24A8 PUSH2 0x2627 JUMP JUMPDEST JUMPDEST DUP3 DUP3 ADD SWAP1 POP SWAP3 SWAP2 POP POP JUMP JUMPDEST PUSH1 0x0 PUSH2 0x24BF DUP3 PUSH2 0x2578 JUMP JUMPDEST SWAP2 POP PUSH2 0x24CA DUP4 PUSH2 0x2578 JUMP JUMPDEST SWAP3 POP DUP2 PUSH32 0xFFFFFFFFFFFFFFFFFFFFFFFFFFFFFFFFFFFFFFFFFFFFFFFFFFFFFFFFFFFFFFFF DIV DUP4 GT DUP3 ISZERO ISZERO AND ISZERO PUSH2 0x2503 JUMPI PUSH2 0x2502 PUSH2 0x2627 JUMP JUMPDEST JUMPDEST DUP3 DUP3 MUL SWAP1 POP SWAP3 SWAP2 POP POP JUMP JUMPDEST PUSH1 0x0 PUSH2 0x2519 DUP3 PUSH2 0x2558 JUMP JUMPDEST SWAP1 POP SWAP2 SWAP1 POP JUMP JUMPDEST PUSH1 0x0 DUP2 ISZERO ISZERO SWAP1 POP SWAP2 SWAP1 POP JUMP JUMPDEST PUSH1 0x0 PUSH32 0xFFFFFFFF00000000000000000000000000000000000000000000000000000000 DUP3 AND SWAP1 POP SWAP2 SWAP1 POP JUMP JUMPDEST PUSH1 0x0 PUSH20 0xFFFFFFFFFFFFFFFFFFFFFFFFFFFFFFFFFFFFFFFF DUP3 AND SWAP1 POP SWAP2 SWAP1 POP JUMP JUMPDEST PUSH1 0x0 DUP2 SWAP1 POP SWAP2 SWAP1 POP JUMP JUMPDEST DUP3 DUP2 DUP4 CALLDATACOPY PUSH1 0x0 DUP4 DUP4 ADD MSTORE POP POP POP JUMP JUMPDEST PUSH1 0x0 JUMPDEST DUP4 DUP2 LT ISZERO PUSH2 0x25AF JUMPI DUP1 DUP3 ADD MLOAD DUP2 DUP5 ADD MSTORE PUSH1 0x20 DUP2 ADD SWAP1 POP PUSH2 0x2594 JUMP JUMPDEST DUP4 DUP2 GT ISZERO PUSH2 0x25BE JUMPI PUSH1 0x0 DUP5 DUP5 ADD MSTORE JUMPDEST POP POP POP POP JUMP JUMPDEST PUSH1 0x0 PUSH1 0x2 DUP3 DIV SWAP1 POP PUSH1 0x1 DUP3 AND DUP1 PUSH2 0x25DC JUMPI PUSH1 0x7F DUP3 AND SWAP2 POP JUMPDEST PUSH1 0x20 DUP3 LT DUP2 EQ ISZERO PUSH2 0x25F0 JUMPI PUSH2 0x25EF PUSH2 0x2656 JUMP JUMPDEST JUMPDEST POP SWAP2 SWAP1 POP JUMP JUMPDEST PUSH2 0x25FF DUP3 PUSH2 0x26D2 JUMP JUMPDEST DUP2 ADD DUP2 DUP2 LT PUSH8 0xFFFFFFFFFFFFFFFF DUP3 GT OR ISZERO PUSH2 0x261E JUMPI PUSH2 0x261D PUSH2 0x2685 JUMP JUMPDEST JUMPDEST DUP1 PUSH1 0x40 MSTORE POP POP POP JUMP JUMPDEST PUSH32 0x4E487B7100000000000000000000000000000000000000000000000000000000 PUSH1 0x0 MSTORE PUSH1 0x11 PUSH1 0x4 MSTORE PUSH1 0x24 PUSH1 0x0 REVERT JUMPDEST PUSH32 0x4E487B7100000000000000000000000000000000000000000000000000000000 PUSH1 0x0 MSTORE PUSH1 0x22 PUSH1 0x4 MSTORE PUSH1 0x24 PUSH1 0x0 REVERT JUMPDEST PUSH32 0x4E487B7100000000000000000000000000000000000000000000000000000000 PUSH1 0x0 MSTORE PUSH1 0x41 PUSH1 0x4 MSTORE PUSH1 0x24 PUSH1 0x0 REVERT JUMPDEST PUSH1 0x0 DUP1 REVERT JUMPDEST PUSH1 0x0 DUP1 REVERT JUMPDEST PUSH1 0x0 DUP1 REVERT JUMPDEST PUSH1 0x0 DUP1 REVERT JUMPDEST PUSH1 0x0 DUP1 REVERT JUMPDEST PUSH1 0x0 DUP1 REVERT JUMPDEST PUSH1 0x0 PUSH1 0x1F NOT PUSH1 0x1F DUP4 ADD AND SWAP1 POP SWAP2 SWAP1 POP JUMP JUMPDEST PUSH32 0x4F776E61626C653A206E6577206F776E657220697320746865207A65726F2061 PUSH1 0x0 DUP3 ADD MSTORE PUSH32 0x6464726573730000000000000000000000000000000000000000000000000000 PUSH1 0x20 DUP3 ADD MSTORE POP JUMP JUMPDEST PUSH32 0x496E73756666696369656E742046756E64730000000000000000000000000000 PUSH1 0x0 DUP3 ADD MSTORE POP JUMP JUMPDEST PUSH32 0x436F6E7472616374207061757365642E00000000000000000000000000000000 PUSH1 0x0 DUP3 ADD MSTORE POP JUMP JUMPDEST PUSH32 0x53616C65206E6F74207374617274656400000000000000000000000000000000 PUSH1 0x0 DUP3 ADD MSTORE POP JUMP JUMPDEST PUSH32 0x4F776E61626C653A2063616C6C6572206973206E6F7420746865206F776E6572 PUSH1 0x0 DUP3 ADD MSTORE POP JUMP JUMPDEST PUSH32 0x4D617820537570706C7920486974000000000000000000000000000000000000 PUSH1 0x0 DUP3 ADD MSTORE POP JUMP JUMPDEST PUSH32 0x5472616E73666572204661696C65640000000000000000000000000000000000 PUSH1 0x0 DUP3 ADD MSTORE POP JUMP JUMPDEST POP JUMP JUMPDEST PUSH32 0x4D696E7420697320706175736564000000000000000000000000000000000000 PUSH1 0x0 DUP3 ADD MSTORE POP JUMP JUMPDEST PUSH2 0x285D DUP2 PUSH2 0x250E JUMP JUMPDEST DUP2 EQ PUSH2 0x2868 JUMPI PUSH1 0x0 DUP1 REVERT JUMPDEST POP JUMP JUMPDEST PUSH2 0x2874 DUP2 PUSH2 0x2520 JUMP JUMPDEST DUP2 EQ PUSH2 0x287F JUMPI PUSH1 0x0 DUP1 REVERT JUMPDEST POP JUMP JUMPDEST PUSH2 0x288B DUP2 PUSH2 0x252C JUMP JUMPDEST DUP2 EQ PUSH2 0x2896 JUMPI PUSH1 0x0 DUP1 REVERT JUMPDEST POP JUMP JUMPDEST PUSH2 0x28A2 DUP2 PUSH2 0x2578 JUMP JUMPDEST DUP2 EQ PUSH2 0x28AD JUMPI PUSH1 0x0 DUP1 REVERT JUMPDEST POP JUMP INVALID LOG2 PUSH5 0x6970667358 0x22 SLT KECCAK256 0xDE SUB SWAP10 0x5E PUSH13 0x8CAC36F90477E3449BA2BA127A 0xC4 PUSH28 0x33C6F0171B9C29E20988987364736F6C634300080700330000000000 "
				},
				"gasEstimates": {
					"creation": {
						"codeDepositCost": "2094000",
						"executionCost": "infinite",
						"totalCost": "infinite"
					},
					"external": {
						"MAX_SUPPLY()": "352",
						"PRICE_PER_TOKEN()": "418",
						"START_TIME()": "infinite",
						"approve(address,uint256)": "infinite",
						"balanceOf(address)": "2908",
						"getApproved(uint256)": "7381",
						"isApprovedForAll(address,address)": "infinite",
						"mint(address,uint256)": "infinite",
						"mintPaused()": "2538",
						"name()": "infinite",
						"owner()": "2633",
						"ownerOf(uint256)": "infinite",
						"pauseMint(bool)": "29209",
						"renounceOwnership()": "30443",
						"safeTransferFrom(address,address,uint256)": "infinite",
						"safeTransferFrom(address,address,uint256,bytes)": "infinite",
						"setApprovalForAll(address,bool)": "infinite",
						"setBaseURI(string)": "infinite",
						"supportsInterface(bytes4)": "745",
						"symbol()": "infinite",
						"tokenURI(uint256)": "infinite",
						"totalSupply()": "4688",
						"transferFrom(address,address,uint256)": "infinite",
						"transferOwnership(address)": "30835",
						"withdraw()": "infinite"
					},
					"internal": {
						"_baseURI()": "infinite"
					}
				},
				"methodIdentifiers": {
					"MAX_SUPPLY()": "32cb6b0c",
					"PRICE_PER_TOKEN()": "833b9499",
					"START_TIME()": "ddaa26ad",
					"approve(address,uint256)": "095ea7b3",
					"balanceOf(address)": "70a08231",
					"getApproved(uint256)": "081812fc",
					"isApprovedForAll(address,address)": "e985e9c5",
					"mint(address,uint256)": "40c10f19",
					"mintPaused()": "7e4831d3",
					"name()": "06fdde03",
					"owner()": "8da5cb5b",
					"ownerOf(uint256)": "6352211e",
					"pauseMint(bool)": "f30e6e77",
					"renounceOwnership()": "715018a6",
					"safeTransferFrom(address,address,uint256)": "42842e0e",
					"safeTransferFrom(address,address,uint256,bytes)": "b88d4fde",
					"setApprovalForAll(address,bool)": "a22cb465",
					"setBaseURI(string)": "55f804b3",
					"supportsInterface(bytes4)": "01ffc9a7",
					"symbol()": "95d89b41",
					"tokenURI(uint256)": "c87b56dd",
					"totalSupply()": "18160ddd",
					"transferFrom(address,address,uint256)": "23b872dd",
					"transferOwnership(address)": "f2fde38b",
					"withdraw()": "3ccfd60b"
				}
			},
			"storageLayout": {
				"storage": [
					{
						"astId": 7,
						"contract": "contracts/MudAi.sol:MudAi",
						"label": "_owner",
						"offset": 0,
						"slot": "0",
						"type": "t_address"
					},
					{
						"astId": 226,
						"contract": "contracts/MudAi.sol:MudAi",
						"label": "_currentIndex",
						"offset": 0,
						"slot": "1",
						"type": "t_uint256"
					},
					{
						"astId": 228,
						"contract": "contracts/MudAi.sol:MudAi",
						"label": "_burnCounter",
						"offset": 0,
						"slot": "2",
						"type": "t_uint256"
					},
					{
						"astId": 230,
						"contract": "contracts/MudAi.sol:MudAi",
						"label": "_name",
						"offset": 0,
						"slot": "3",
						"type": "t_string_storage"
					},
					{
						"astId": 232,
						"contract": "contracts/MudAi.sol:MudAi",
						"label": "_symbol",
						"offset": 0,
						"slot": "4",
						"type": "t_string_storage"
					},
					{
						"astId": 236,
						"contract": "contracts/MudAi.sol:MudAi",
						"label": "_packedOwnerships",
						"offset": 0,
						"slot": "5",
						"type": "t_mapping(t_uint256,t_uint256)"
					},
					{
						"astId": 240,
						"contract": "contracts/MudAi.sol:MudAi",
						"label": "_packedAddressData",
						"offset": 0,
						"slot": "6",
						"type": "t_mapping(t_address,t_uint256)"
					},
					{
						"astId": 245,
						"contract": "contracts/MudAi.sol:MudAi",
						"label": "_tokenApprovals",
						"offset": 0,
						"slot": "7",
						"type": "t_mapping(t_uint256,t_struct(TokenApprovalRef)158_storage)"
					},
					{
						"astId": 251,
						"contract": "contracts/MudAi.sol:MudAi",
						"label": "_operatorApprovals",
						"offset": 0,
						"slot": "8",
						"type": "t_mapping(t_address,t_mapping(t_address,t_bool))"
					},
					{
						"astId": 1775,
						"contract": "contracts/MudAi.sol:MudAi",
						"label": "mintPaused",
						"offset": 0,
						"slot": "9",
						"type": "t_bool"
					},
					{
						"astId": 1777,
						"contract": "contracts/MudAi.sol:MudAi",
						"label": "_baseTokenURI",
						"offset": 0,
						"slot": "10",
						"type": "t_string_storage"
					}
				],
				"types": {
					"t_address": {
						"encoding": "inplace",
						"label": "address",
						"numberOfBytes": "20"
					},
					"t_bool": {
						"encoding": "inplace",
						"label": "bool",
						"numberOfBytes": "1"
					},
					"t_mapping(t_address,t_bool)": {
						"encoding": "mapping",
						"key": "t_address",
						"label": "mapping(address => bool)",
						"numberOfBytes": "32",
						"value": "t_bool"
					},
					"t_mapping(t_address,t_mapping(t_address,t_bool))": {
						"encoding": "mapping",
						"key": "t_address",
						"label": "mapping(address => mapping(address => bool))",
						"numberOfBytes": "32",
						"value": "t_mapping(t_address,t_bool)"
					},
					"t_mapping(t_address,t_uint256)": {
						"encoding": "mapping",
						"key": "t_address",
						"label": "mapping(address => uint256)",
						"numberOfBytes": "32",
						"value": "t_uint256"
					},
					"t_mapping(t_uint256,t_struct(TokenApprovalRef)158_storage)": {
						"encoding": "mapping",
						"key": "t_uint256",
						"label": "mapping(uint256 => struct ERC721A.TokenApprovalRef)",
						"numberOfBytes": "32",
						"value": "t_struct(TokenApprovalRef)158_storage"
					},
					"t_mapping(t_uint256,t_uint256)": {
						"encoding": "mapping",
						"key": "t_uint256",
						"label": "mapping(uint256 => uint256)",
						"numberOfBytes": "32",
						"value": "t_uint256"
					},
					"t_string_storage": {
						"encoding": "bytes",
						"label": "string",
						"numberOfBytes": "32"
					},
					"t_struct(TokenApprovalRef)158_storage": {
						"encoding": "inplace",
						"label": "struct ERC721A.TokenApprovalRef",
						"members": [
							{
								"astId": 157,
								"contract": "contracts/MudAi.sol:MudAi",
								"label": "value",
								"offset": 0,
								"slot": "0",
								"type": "t_address"
							}
						],
						"numberOfBytes": "32"
					},
					"t_uint256": {
						"encoding": "inplace",
						"label": "uint256",
						"numberOfBytes": "32"
					}
				}
			},
			"userdoc": {
				"errors": {
					"ApprovalCallerNotOwnerNorApproved()": [
						{
							"notice": "The caller must own the token or be an approved operator."
						}
					],
					"ApprovalQueryForNonexistentToken()": [
						{
							"notice": "The token does not exist."
						}
					],
					"BalanceQueryForZeroAddress()": [
						{
							"notice": "Cannot query the balance for the zero address."
						}
					],
					"MintERC2309QuantityExceedsLimit()": [
						{
							"notice": "The `quantity` minted with ERC2309 exceeds the safety limit."
						}
					],
					"MintToZeroAddress()": [
						{
							"notice": "Cannot mint to the zero address."
						}
					],
					"MintZeroQuantity()": [
						{
							"notice": "The quantity of tokens minted must be more than zero."
						}
					],
					"OwnerQueryForNonexistentToken()": [
						{
							"notice": "The token does not exist."
						}
					],
					"OwnershipNotInitializedForExtraData()": [
						{
							"notice": "The `extraData` cannot be set on an unintialized ownership slot."
						}
					],
					"TransferCallerNotOwnerNorApproved()": [
						{
							"notice": "The caller must own the token or be an approved operator."
						}
					],
					"TransferFromIncorrectOwner()": [
						{
							"notice": "The token must be owned by `from`."
						}
					],
					"TransferToNonERC721ReceiverImplementer()": [
						{
							"notice": "Cannot safely transfer to a contract that does not implement the ERC721Receiver interface."
						}
					],
					"TransferToZeroAddress()": [
						{
							"notice": "Cannot transfer to the zero address."
						}
					],
					"URIQueryForNonexistentToken()": [
						{
							"notice": "The token does not exist."
						}
					]
				},
				"kind": "user",
				"methods": {},
				"version": 1
			}
		}
	}
}